{
  "address": "0x13993149188d085ACDf9809ae9C65B90a65DbA1c",
  "abi": [
    {
      "inputs": [
        {
          "internalType": "address",
          "name": "feeAccount",
          "type": "address"
        },
        {
          "internalType": "uint96",
          "name": "feeValue",
          "type": "uint96"
        },
        {
          "internalType": "address",
          "name": "trustedForwarder",
          "type": "address"
        }
      ],
      "stateMutability": "nonpayable",
      "type": "constructor"
    },
    {
      "anonymous": false,
      "inputs": [
        {
          "indexed": true,
          "internalType": "uint256",
          "name": "orderId",
          "type": "uint256"
        },
        {
          "indexed": true,
          "internalType": "address",
          "name": "bidder",
          "type": "address"
        },
        {
          "indexed": false,
          "internalType": "uint256",
          "name": "bidAmount",
          "type": "uint256"
        }
      ],
      "name": "OrderBid",
      "type": "event"
    },
    {
      "anonymous": false,
      "inputs": [
        {
          "indexed": true,
          "internalType": "uint256",
          "name": "orderId",
          "type": "uint256"
        }
      ],
      "name": "OrderCancelled",
      "type": "event"
    },
    {
      "anonymous": false,
      "inputs": [
        {
          "indexed": true,
          "internalType": "uint256",
          "name": "orderId",
          "type": "uint256"
        },
        {
          "indexed": false,
          "internalType": "enum LemonadeMarketplaceV1.OrderKind",
          "name": "kind",
          "type": "uint8"
        },
        {
          "indexed": false,
          "internalType": "uint256",
          "name": "openFrom",
          "type": "uint256"
        },
        {
          "indexed": false,
          "internalType": "uint256",
          "name": "openTo",
          "type": "uint256"
        },
        {
          "indexed": true,
          "internalType": "address",
          "name": "maker",
          "type": "address"
        },
        {
          "indexed": false,
          "internalType": "address",
          "name": "currency",
          "type": "address"
        },
        {
          "indexed": false,
          "internalType": "uint256",
          "name": "price",
          "type": "uint256"
        },
        {
          "indexed": false,
          "internalType": "address",
          "name": "tokenContract",
          "type": "address"
        },
        {
          "indexed": false,
          "internalType": "uint256",
          "name": "tokenId",
          "type": "uint256"
        }
      ],
      "name": "OrderCreated",
      "type": "event"
    },
    {
      "anonymous": false,
      "inputs": [
        {
          "indexed": true,
          "internalType": "uint256",
          "name": "orderId",
          "type": "uint256"
        },
        {
          "indexed": true,
          "internalType": "address",
          "name": "taker",
          "type": "address"
        },
        {
          "indexed": false,
          "internalType": "uint256",
          "name": "paidAmount",
          "type": "uint256"
        }
      ],
      "name": "OrderFilled",
      "type": "event"
    },
    {
      "anonymous": false,
      "inputs": [
        {
          "indexed": true,
          "internalType": "bytes32",
          "name": "role",
          "type": "bytes32"
        },
        {
          "indexed": true,
          "internalType": "bytes32",
          "name": "previousAdminRole",
          "type": "bytes32"
        },
        {
          "indexed": true,
          "internalType": "bytes32",
          "name": "newAdminRole",
          "type": "bytes32"
        }
      ],
      "name": "RoleAdminChanged",
      "type": "event"
    },
    {
      "anonymous": false,
      "inputs": [
        {
          "indexed": true,
          "internalType": "bytes32",
          "name": "role",
          "type": "bytes32"
        },
        {
          "indexed": true,
          "internalType": "address",
          "name": "account",
          "type": "address"
        },
        {
          "indexed": true,
          "internalType": "address",
          "name": "sender",
          "type": "address"
        }
      ],
      "name": "RoleGranted",
      "type": "event"
    },
    {
      "anonymous": false,
      "inputs": [
        {
          "indexed": true,
          "internalType": "bytes32",
          "name": "role",
          "type": "bytes32"
        },
        {
          "indexed": true,
          "internalType": "address",
          "name": "account",
          "type": "address"
        },
        {
          "indexed": true,
          "internalType": "address",
          "name": "sender",
          "type": "address"
        }
      ],
      "name": "RoleRevoked",
      "type": "event"
    },
    {
      "inputs": [],
      "name": "DEFAULT_ADMIN_ROLE",
      "outputs": [
        {
          "internalType": "bytes32",
          "name": "",
          "type": "bytes32"
        }
      ],
      "stateMutability": "view",
      "type": "function"
    },
    {
      "inputs": [
        {
          "internalType": "uint256",
          "name": "orderId",
          "type": "uint256"
        },
        {
          "internalType": "uint256",
          "name": "amount",
          "type": "uint256"
        }
      ],
      "name": "bidOrder",
      "outputs": [],
      "stateMutability": "payable",
      "type": "function"
    },
    {
      "inputs": [
        {
          "internalType": "uint256",
          "name": "orderId",
          "type": "uint256"
        }
      ],
      "name": "cancelOrder",
      "outputs": [],
      "stateMutability": "nonpayable",
      "type": "function"
    },
    {
      "inputs": [
        {
          "internalType": "enum LemonadeMarketplaceV1.OrderKind",
          "name": "kind",
          "type": "uint8"
        },
        {
          "internalType": "uint256",
          "name": "openFrom",
          "type": "uint256"
        },
        {
          "internalType": "uint256",
          "name": "openTo",
          "type": "uint256"
        },
        {
          "internalType": "address",
          "name": "currency",
          "type": "address"
        },
        {
          "internalType": "uint256",
          "name": "price",
          "type": "uint256"
        },
        {
          "internalType": "address",
          "name": "tokenContract",
          "type": "address"
        },
        {
          "internalType": "uint256",
          "name": "tokenId",
          "type": "uint256"
        }
      ],
      "name": "createOrder",
      "outputs": [
        {
          "internalType": "uint256",
          "name": "",
          "type": "uint256"
        }
      ],
      "stateMutability": "nonpayable",
      "type": "function"
    },
    {
      "inputs": [],
      "name": "feeAccount",
      "outputs": [
        {
          "internalType": "address",
          "name": "",
          "type": "address"
        }
      ],
      "stateMutability": "view",
      "type": "function"
    },
    {
      "inputs": [],
      "name": "feeValue",
      "outputs": [
        {
          "internalType": "uint96",
          "name": "",
          "type": "uint96"
        }
      ],
      "stateMutability": "view",
      "type": "function"
    },
    {
      "inputs": [
        {
          "internalType": "uint256",
          "name": "orderId",
          "type": "uint256"
        },
        {
          "internalType": "uint256",
          "name": "amount",
          "type": "uint256"
        }
      ],
      "name": "fillOrder",
      "outputs": [],
      "stateMutability": "payable",
      "type": "function"
    },
    {
      "inputs": [
        {
          "internalType": "address",
          "name": "tokenContract",
          "type": "address"
        },
        {
          "internalType": "uint256",
          "name": "tokenId",
          "type": "uint256"
        }
      ],
      "name": "getRaribleV2Royalties",
      "outputs": [
        {
          "internalType": "bool",
          "name": "",
          "type": "bool"
        },
        {
          "components": [
            {
              "internalType": "address payable",
              "name": "account",
              "type": "address"
            },
            {
              "internalType": "uint96",
              "name": "value",
              "type": "uint96"
            }
          ],
          "internalType": "struct LibPart.Part[]",
          "name": "",
          "type": "tuple[]"
        }
      ],
      "stateMutability": "view",
      "type": "function"
    },
    {
      "inputs": [
        {
          "internalType": "bytes32",
          "name": "role",
          "type": "bytes32"
        }
      ],
      "name": "getRoleAdmin",
      "outputs": [
        {
          "internalType": "bytes32",
          "name": "",
          "type": "bytes32"
        }
      ],
      "stateMutability": "view",
      "type": "function"
    },
    {
      "inputs": [
        {
          "internalType": "bytes32",
          "name": "role",
          "type": "bytes32"
        },
        {
          "internalType": "uint256",
          "name": "index",
          "type": "uint256"
        }
      ],
      "name": "getRoleMember",
      "outputs": [
        {
          "internalType": "address",
          "name": "",
          "type": "address"
        }
      ],
      "stateMutability": "view",
      "type": "function"
    },
    {
      "inputs": [
        {
          "internalType": "bytes32",
          "name": "role",
          "type": "bytes32"
        }
      ],
      "name": "getRoleMemberCount",
      "outputs": [
        {
          "internalType": "uint256",
          "name": "",
          "type": "uint256"
        }
      ],
      "stateMutability": "view",
      "type": "function"
    },
    {
      "inputs": [
        {
          "internalType": "address",
          "name": "tokenContract",
          "type": "address"
        },
        {
          "internalType": "uint256",
          "name": "tokenId",
          "type": "uint256"
        },
        {
          "internalType": "uint256",
          "name": "paidAmount",
          "type": "uint256"
        }
      ],
      "name": "getRoyaltyInfo",
      "outputs": [
        {
          "internalType": "bool",
          "name": "",
          "type": "bool"
        },
        {
          "internalType": "address",
          "name": "",
          "type": "address"
        },
        {
          "internalType": "uint256",
          "name": "",
          "type": "uint256"
        }
      ],
      "stateMutability": "view",
      "type": "function"
    },
    {
      "inputs": [
        {
          "internalType": "bytes32",
          "name": "role",
          "type": "bytes32"
        },
        {
          "internalType": "address",
          "name": "account",
          "type": "address"
        }
      ],
      "name": "grantRole",
      "outputs": [],
      "stateMutability": "nonpayable",
      "type": "function"
    },
    {
      "inputs": [
        {
          "internalType": "bytes32",
          "name": "role",
          "type": "bytes32"
        },
        {
          "internalType": "address",
          "name": "account",
          "type": "address"
        }
      ],
      "name": "hasRole",
      "outputs": [
        {
          "internalType": "bool",
          "name": "",
          "type": "bool"
        }
      ],
      "stateMutability": "view",
      "type": "function"
    },
    {
      "inputs": [
        {
          "internalType": "address",
          "name": "forwarder",
          "type": "address"
        }
      ],
      "name": "isTrustedForwarder",
      "outputs": [
        {
          "internalType": "bool",
          "name": "",
          "type": "bool"
        }
      ],
      "stateMutability": "view",
      "type": "function"
    },
    {
      "inputs": [
        {
          "internalType": "uint256",
          "name": "orderId",
          "type": "uint256"
        }
      ],
      "name": "order",
      "outputs": [
        {
          "internalType": "enum LemonadeMarketplaceV1.OrderKind",
          "name": "",
          "type": "uint8"
        },
        {
          "internalType": "bool",
          "name": "",
          "type": "bool"
        },
        {
          "internalType": "uint256",
          "name": "",
          "type": "uint256"
        },
        {
          "internalType": "uint256",
          "name": "",
          "type": "uint256"
        },
        {
          "internalType": "address",
          "name": "",
          "type": "address"
        },
        {
          "internalType": "address",
          "name": "",
          "type": "address"
        },
        {
          "internalType": "uint256",
          "name": "",
          "type": "uint256"
        },
        {
          "internalType": "uint256",
          "name": "",
          "type": "uint256"
        },
        {
          "internalType": "address",
          "name": "",
          "type": "address"
        },
        {
          "internalType": "uint256",
          "name": "",
          "type": "uint256"
        }
      ],
      "stateMutability": "view",
      "type": "function"
    },
    {
      "inputs": [],
      "name": "orderIdTracker",
      "outputs": [
        {
          "internalType": "uint256",
          "name": "_value",
          "type": "uint256"
        }
      ],
      "stateMutability": "view",
      "type": "function"
    },
    {
      "inputs": [
        {
          "internalType": "bytes32",
          "name": "role",
          "type": "bytes32"
        },
        {
          "internalType": "address",
          "name": "account",
          "type": "address"
        }
      ],
      "name": "renounceRole",
      "outputs": [],
      "stateMutability": "nonpayable",
      "type": "function"
    },
    {
      "inputs": [
        {
          "internalType": "bytes32",
          "name": "role",
          "type": "bytes32"
        },
        {
          "internalType": "address",
          "name": "account",
          "type": "address"
        }
      ],
      "name": "revokeRole",
      "outputs": [],
      "stateMutability": "nonpayable",
      "type": "function"
    },
    {
      "inputs": [
        {
          "internalType": "bytes4",
          "name": "interfaceId",
          "type": "bytes4"
        }
      ],
      "name": "supportsInterface",
      "outputs": [
        {
          "internalType": "bool",
          "name": "",
          "type": "bool"
        }
      ],
      "stateMutability": "view",
      "type": "function"
    },
    {
      "inputs": [
        {
          "internalType": "uint256",
          "name": "orderId",
          "type": "uint256"
        }
      ],
      "name": "token",
      "outputs": [
        {
          "internalType": "address",
          "name": "",
          "type": "address"
        },
        {
          "internalType": "uint256",
          "name": "",
          "type": "uint256"
        }
      ],
      "stateMutability": "view",
      "type": "function"
    },
    {
      "inputs": [],
      "name": "trustedForwarder",
      "outputs": [
        {
          "internalType": "address",
          "name": "",
          "type": "address"
        }
      ],
      "stateMutability": "view",
      "type": "function"
    },
    {
      "inputs": [],
      "name": "versionRecipient",
      "outputs": [
        {
          "internalType": "string",
          "name": "",
          "type": "string"
        }
      ],
      "stateMutability": "pure",
      "type": "function"
    }
  ],
  "transactionHash": "0x0391f3c2db97de27e54aba97dde4ff97ac1e24bd483c00e3600fb5d05f1fe5a3",
  "args": [
    "0xFB756b44060e426731e54e9F433c43c75ee90d9f",
    "200",
    "0x67454E169d613a8e9BA6b06af2D267696EAaAf41"
  ],
  "numDeployments": 1,
  "solcInputHash": "718bfb621f2f340f8e52c49d4c3534de",
  "bytecode": "0x60c06040523480156200001157600080fd5b50604051620034ac380380620034ac833981016040819052620000349162000272565b606083901b6001600160601b03191660805260a082811b6001600160a01b03191690528083836200007060006200006a6200009c565b620000b8565b5050600480546001600160a01b0319166001600160a01b039290921691909117905550620002c8915050565b6000620000b3620000c860201b620022dc1760201c565b905090565b620000c48282620000fe565b5050565b600060183610801590620000e657506004546001600160a01b031633145b15620000f9575060131936013560601c90565b503390565b6200011582826200014160201b620023101760201c565b60008281526001602090815260409091206200013c91839062002395620001e3821b17901c565b505050565b6000828152602081815260408083206001600160a01b038516845290915290205460ff16620000c4576000828152602081815260408083206001600160a01b03851684529091529020805460ff191660011790556200019f6200009c565b6001600160a01b0316816001600160a01b0316837f2f8788117e7eff1d82e926ec794901d17c78024a50270940304540a733656f0d60405160405180910390a45050565b6000620001fa836001600160a01b03841662000203565b90505b92915050565b60008181526001830160205260408120546200024c57508154600181810184556000848152602080822090930184905584548482528286019093526040902091909155620001fd565b506000620001fd565b80516001600160a01b03811681146200026d57600080fd5b919050565b60008060006060848603121562000287578283fd5b620002928462000255565b60208501519093506001600160601b0381168114620002af578283fd5b9150620002bf6040850162000255565b90509250925092565b60805160601c60a05160a01c6131aa620003026000396000818161043f0152611ef10152600081816103650152611f2e01526131aa6000f3fe6080604052600436106101405760003560e01c806365e17c9d116100b6578063a217fddf1161006f578063a217fddf14610479578063b858fb5f1461048e578063c37dfc5b146104a1578063ca15c873146104b4578063d547741f146104d4578063f74337d4146104f457600080fd5b806365e17c9d146103535780637241fb7d1461039f5780637da0a877146103cd5780639010d07c146103ed57806391d148541461040d5780639fddaa931461042d57600080fd5b80632f2ff15d116101085780632f2ff15d1461024d57806336568abe1461026f57806336de97421461028f578063486ff0cd146102d4578063514fcac714610304578063572b6c051461032457600080fd5b806301ffc9a714610145578063044215c61461017a5780630c109710146101b957806321603f43146101e7578063248a9ca31461021d575b600080fd5b34801561015157600080fd5b50610165610160366004612cbb565b61050b565b60405190151581526020015b60405180910390f35b34801561018657600080fd5b5061019a610195366004612c53565b610536565b604080516001600160a01b039093168352602083019190915201610171565b3480156101c557600080fd5b506101d96101d4366004612ce3565b6105a4565b604051908152602001610171565b3480156101f357600080fd5b50610207610202366004612c53565b610a85565b6040516101719a99989796959493929190612e7d565b34801561022957600080fd5b506101d9610238366004612c53565b60009081526020819052604090206001015490565b34801561025957600080fd5b5061026d610268366004612c6b565b610cce565b005b34801561027b57600080fd5b5061026d61028a366004612c6b565b610cf8565b34801561029b57600080fd5b506102af6102aa366004612b18565b610d86565b6040805193151584526001600160a01b03909216602084015290820152606001610171565b3480156102e057600080fd5b5060408051808201825260018152603160f81b602082015290516101719190612f25565b34801561031057600080fd5b5061026d61031f366004612c53565b610e28565b34801561033057600080fd5b5061016561033f366004612aa4565b6004546001600160a01b0391821691161490565b34801561035f57600080fd5b506103877f000000000000000000000000000000000000000000000000000000000000000081565b6040516001600160a01b039091168152602001610171565b3480156103ab57600080fd5b506103bf6103ba366004612ac0565b61116a565b604051610171929190612e12565b3480156103d957600080fd5b50600454610387906001600160a01b031681565b3480156103f957600080fd5b50610387610408366004612c9a565b61123e565b34801561041957600080fd5b50610165610428366004612c6b565b61125d565b34801561043957600080fd5b506104617f000000000000000000000000000000000000000000000000000000000000000081565b6040516001600160601b039091168152602001610171565b34801561048557600080fd5b506101d9600081565b61026d61049c366004612c9a565b611286565b61026d6104af366004612c9a565b611858565b3480156104c057600080fd5b506101d96104cf366004612c53565b6122a0565b3480156104e057600080fd5b5061026d6104ef366004612c6b565b6122b7565b34801561050057600080fd5b506003546101d99081565b60006001600160e01b03198216635a05180f60e01b14806105305750610530826123aa565b92915050565b600081815260026020526040812060030154819083906001600160a01b031661057a5760405162461bcd60e51b815260040161057190612f58565b60405180910390fd5b505050600090815260026020526040902060068101546007909101546001600160a01b0390911691565b6000806105b188886123df565b90506000811161060f5760405162461bcd60e51b815260206004820152603560248201526000805160206131558339815191526044820152741899481bdc195b88185d081cdbdb59481c1bda5b9d605a1b6064820152608401610571565b600189600181111561063157634e487b7160e01b600052602160045260246000fd5b14156106ca5762278d008111156106ca5760405162461bcd60e51b815260206004820152605160248201527f4c656d6f6e6164654d61726b6574706c6163653a206f72646572206f66206b6960448201527f6e642061756374696f6e206d757374206e6f74206265206f70656e20666f72206064820152706d6f7265207468616e203330206461797360781b608482015260a401610571565b836001600160a01b03166323b872dd6106e161242d565b30866040518463ffffffff1660e01b815260040161070193929190612dee565b600060405180830381600087803b15801561071b57600080fd5b505af115801561072f573d6000803e3d6000fd5b50505050600061073e60035490565b9050604051806101a001604052808b600181111561076c57634e487b7160e01b600052602160045260246000fd5b81526020016001151581526020018a815260200189815260200161078e61242d565b6001600160a01b03908116825289811660208084019190915260408084018b9052918916606084015260808301889052600060a0840181905260c0840181905260e0840181905261010090930183905284835260029052902081518154829060ff19166001838181111561081257634e487b7160e01b600052602160045260246000fd5b02179055506020820151815461ff00191661010091151582021782556040830151600180840191909155606084015160028401556080840151600380850180546001600160a01b03199081166001600160a01b039485161790915560a0870151600487018054831691851691909117905560c0870151600587015560e0870151600687018054831691851691909117905593860151600786015561012086015160088601805486169184169190911790556101408601516009860155610160860151600a8601805490951692169190911790925561018090930151600b909201919091558054909101905560008181526002602052604080822081516101a081019092528054829060ff16600181111561093c57634e487b7160e01b600052602160045260246000fd5b600181111561095b57634e487b7160e01b600052602160045260246000fd5b8152815460ff6101009182900416151560208301526001830154604080840191909152600284015460608085019190915260038501546001600160a01b039081166080808701919091526004870154821660a080880191909152600588015460c0808901919091526006890154841660e0808a019190915260078a0154888a015260088a015485166101208a015260098a01546101408a0152600a8a015485166101608a0152600b909901546101809098019790975290880151885189860151948a0151928a0151978a0151988a0151968a01519551999a509216978a977f4e400f43dce6cc22df28146360114559ffae81b0644d4752872c7def6d77319e97610a6f979496939490939192909190612edc565b60405180910390a3509998505050505050505050565b6000818152600260205260408120600301548190819081908190819081908190819081908b906001600160a01b0316610ad05760405162461bcd60e51b815260040161057190612f58565b60008c81526002602052604080822081516101a081019092528054829060ff166001811115610b0f57634e487b7160e01b600052602160045260246000fd5b6001811115610b2e57634e487b7160e01b600052602160045260246000fd5b81526020016000820160019054906101000a900460ff1615151515815260200160018201548152602001600282015481526020016003820160009054906101000a90046001600160a01b03166001600160a01b03166001600160a01b031681526020016004820160009054906101000a90046001600160a01b03166001600160a01b03166001600160a01b03168152602001600582015481526020016006820160009054906101000a90046001600160a01b03166001600160a01b03166001600160a01b03168152602001600782015481526020016008820160009054906101000a90046001600160a01b03166001600160a01b03166001600160a01b0316815260200160098201548152602001600a820160009054906101000a90046001600160a01b03166001600160a01b03166001600160a01b03168152602001600b820154815250509050806000015181602001518260400151836060015184608001518560a001518660c001518761014001518861016001518961018001519b509b509b509b509b509b509b509b509b509b5050509193959799509193959799565b600082815260208190526040902060010154610ce98161243c565b610cf38383612450565b505050565b610d0061242d565b6001600160a01b0316816001600160a01b031614610d785760405162461bcd60e51b815260206004820152602f60248201527f416363657373436f6e74726f6c3a2063616e206f6e6c792072656e6f756e636560448201526e103937b632b9903337b91039b2b63360891b6064820152608401610571565b610d828282612472565b5050565b60405163152a902d60e11b81526004810183905260248101829052600090819081906001600160a01b03871690632a55205a90604401604080518083038186803b158015610dd357600080fd5b505afa925050508015610e03575060408051601f3d908101601f19168201909252610e0091810190612aeb565b60015b610e1557506000915081905080610e1f565b6001945090925090505b93509350939050565b60008181526002602052604090206003015481906001600160a01b0316610e615760405162461bcd60e51b815260040161057190612f58565b60008281526002602052604080822081516101a081019092528054829060ff166001811115610ea057634e487b7160e01b600052602160045260246000fd5b6001811115610ebf57634e487b7160e01b600052602160045260246000fd5b8152815460ff610100918290041615156020830152600183015460408301526002830154606083015260038301546001600160a01b0390811660808401526004840154811660a0840152600584015460c08401526006840154811660e0840152600784015491830191909152600883015481166101208301526009830154610140830152600a83015416610160820152600b90910154610180909101529050610f6661242d565b6001600160a01b031681608001516001600160a01b03161480610f915750610f91600061042861242d565b610ff65760405162461bcd60e51b815260206004820152603060248201527f4c656d6f6e6164654d61726b6574706c6163653a206d7573742062652074686560448201526f081b585ad95c881d1bc818d85b98d95b60821b6064820152608401610571565b806020015161104f5760405162461bcd60e51b815260206004820152603160248201526000805160206131558339815191526044820152701899481bdc195b881d1bc818d85b98d95b607a1b6064820152608401610571565b6101208101516001600160a01b0316156110b75760405162461bcd60e51b815260206004820152603560248201526000805160206131558339815191526044820152741a185d99481b9bc8189a59081d1bc818d85b98d95b605a1b6064820152608401610571565b60e081015160808201516101008301516040516323b872dd60e01b81526001600160a01b03909316926323b872dd926110f4923092600401612dee565b600060405180830381600087803b15801561110e57600080fd5b505af1158015611122573d6000803e3d6000fd5b505050600084815260026020526040808220805461ff0019169055518592507f61b9399f2f0f32ca39ce8d7be32caed5ec22fe07a6daba3a467ed479ec6065829190a2505050565b60405163656cb66560e11b8152600481018290526000906060906001600160a01b0385169063cad96cca9060240160006040518083038186803b1580156111b057600080fd5b505afa9250505080156111e557506040513d6000823e601f3d908101601f191682016040526111e29190810190612b4c565b60015b611230576040805160008082526020820190925281611226565b60408051808201909152600080825260208201528152602001906001900390816111ff5790505b5091509150611237565b6001925090505b9250929050565b60008281526001602052604081206112569083612494565b9392505050565b6000918252602082815260408084206001600160a01b0393909316845291905290205460ff1690565b60008281526002602052604090206003015482906001600160a01b03166112bf5760405162461bcd60e51b815260040161057190612f58565b60008381526002602052604080822081516101a081019092528054829060ff1660018111156112fe57634e487b7160e01b600052602160045260246000fd5b600181111561131d57634e487b7160e01b600052602160045260246000fd5b8152815460ff61010091829004161515602083015260018084015460408401526002840154606084015260038401546001600160a01b0390811660808501526004850154811660a0850152600585015460c08501526006850154811660e0850152600785015492840192909252600884015482166101208401526009840154610140840152600a840154909116610160830152600b9092015461018090910152909150815160018111156113e157634e487b7160e01b600052602160045260246000fd5b146114425760405162461bcd60e51b8152602060048201526039602482015260008051602061315583398151915260448201527f6265206f66206b696e642061756374696f6e20746f20626964000000000000006064820152608401610571565b80602001516114985760405162461bcd60e51b815260206004820152602e602482015260008051602061315583398151915260448201526d1899481bdc195b881d1bc8189a5960921b6064820152608401610571565b42816040015111156115005760405162461bcd60e51b815260206004820152603a602482015260008051602061315583398151915260448201527f6265206f70656e20746f20626964202d20746f6f206561726c790000000000006064820152608401610571565b428160600151116115675760405162461bcd60e51b8152602060048201526039602482015260008051602061315583398151915260448201527f6265206f70656e20746f20626964202d20746f6f206c617465000000000000006064820152608401610571565b828160c0015111156115d05760405162461bcd60e51b815260206004820152602c60248201527f4c656d6f6e6164654d61726b6574706c6163653a206d757374206d617463682060448201526b1c1c9a58d9481d1bc8189a5960a21b6064820152608401610571565b60a08101516001600160a01b03161515806115ea57503483145b6116065760405162461bcd60e51b815260040161057190612f9e565b6101208101516001600160a01b0316156116a85782816101400151106116835760405162461bcd60e51b815260206004820152602c60248201527f4c656d6f6e6164654d61726b6574706c6163653a206d7573742073757270617360448201526b1cc8189a59081d1bc8189a5960a21b6064820152608401610571565b610140810151156116a8576116a88160a00151308361012001518461014001516124a0565b6116b061242d565b600085815260026020526040908190206008810180546001600160a01b0319166001600160a01b0394909416939093179092556009820185905580516101a081019091528154909190829060ff16600181111561171d57634e487b7160e01b600052602160045260246000fd5b600181111561173c57634e487b7160e01b600052602160045260246000fd5b8152815460ff610100918290041615156020830152600183015460408301526002830154606083015260038301546001600160a01b0390811660808401526004840154811660a0840152600584015460c08401526006840154811660e084015260078401549183019190915260088301548116610120830152600983015461014080840191909152600a840154909116610160830152600b909201546101809091015281015190915015611804576118048160a00151826101200151308461014001516124a0565b8061012001516001600160a01b0316847f43c168f1d9d74d73325ab680f380bc731699766781190d47b123572b01b2fa2883610140015160405161184a91815260200190565b60405180910390a350505050565b60008281526002602052604090206003015482906001600160a01b03166118915760405162461bcd60e51b815260040161057190612f58565b60008381526002602052604080822081516101a081019092528054829060ff1660018111156118d057634e487b7160e01b600052602160045260246000fd5b60018111156118ef57634e487b7160e01b600052602160045260246000fd5b8152815460ff61010091829004161515602080840191909152600184015460408401526002840154606084015260038401546001600160a01b0390811660808501526004850154811660a0850152600585015460c08501526006850154811660e0850152600785015492840192909252600884015482166101208401526009840154610140840152600a840154909116610160830152600b90920154610180909101528101519091506119ea5760405162461bcd60e51b815260206004820152602f602482015260008051602061315583398151915260448201526e1899481bdc195b881d1bc8199a5b1b608a1b6064820152608401610571565b6000848152600260205260408120805461ff00191690558082516001811115611a2357634e487b7160e01b600052602160045260246000fd5b1415611c03574282604001511115611a915760405162461bcd60e51b815260206004820152603b602482015260008051602061315583398151915260448201527f6265206f70656e20746f2066696c6c202d20746f6f206561726c7900000000006064820152608401610571565b60608201511580611aa55750428260600151115b611b055760405162461bcd60e51b815260206004820152603a602482015260008051602061315583398151915260448201527f6265206f70656e20746f2066696c6c202d20746f6f206c6174650000000000006064820152608401610571565b838260c001511115611b7f5760405162461bcd60e51b815260206004820152603a60248201527f4c656d6f6e6164654d61726b6574706c6163653a206d757374206d617463682060448201527f707269636520746f2066696c6c20646972656374206f726465720000000000006064820152608401610571565b60a08201516001600160a01b0316151580611b9957503484145b611bb55760405162461bcd60e51b815260040161057190612f9e565b611bbd61242d565b6000868152600260205260409020600a810180546001600160a01b0319166001600160a01b039390931692909217909155600b01849055611bfc61242d565b9050611dd2565b600182516001811115611c2657634e487b7160e01b600052602160045260246000fd5b1415611dd2576101208201516001600160a01b0316611c9b5760405162461bcd60e51b815260206004820152603e602482015260008051602061315583398151915260448201527f686176652062696420746f2066696c6c2061756374696f6e206f7264657200006064820152608401610571565b611ca361242d565b6001600160a01b03168261012001516001600160a01b0316148015611ccc575042826060015111155b80611cf35750611cda61242d565b6001600160a01b031682608001516001600160a01b0316145b80611d065750611d06600061042861242d565b611d8d5760405162461bcd60e51b815260206004820152604c60248201527f4c656d6f6e6164654d61726b6574706c6163653a206d7573742062652074686560448201527f206d616b6572206f722066696e616c2062696464657220746f2066696c6c206160648201526b3ab1ba34b7b71037b93232b960a11b608482015260a401610571565b506101208101516000858152600260205260409020600a810180546001600160a01b0319166001600160a01b0390931692909217909155610140820151600b90910155305b6000858152600260205260409081902081516101a081019092528054829060ff166001811115611e1257634e487b7160e01b600052602160045260246000fd5b6001811115611e3157634e487b7160e01b600052602160045260246000fd5b8152815460ff610100918290041615156020830152600183015460408301526002830154606083015260038301546001600160a01b0390811660808401526004840154811660a0840152600584015460c08401526006840154811660e0840152600784015491830191909152600883015481166101208301526009830154610140830152600a83015416610160820152600b9091015461018091820152810151909250156121db576101808201516000612710611f176001600160601b037f0000000000000000000000000000000000000000000000000000000000000000168461307f565b611f21919061305f565b9050611f538460a00151847f0000000000000000000000000000000000000000000000000000000000000000846124a0565b611f5d818361309e565b9150600080611f758660e0015187610100015161116a565b9150915081156120ce57805160005b818110156120c757828181518110611fac57634e487b7160e01b600052603260045260246000fd5b6020026020010151600001516001600160a01b031688608001516001600160a01b03161415801561201157506000838281518110611ffa57634e487b7160e01b600052603260045260246000fd5b6020026020010151602001516001600160601b0316115b156120b557600061271084838151811061203b57634e487b7160e01b600052603260045260246000fd5b6020026020010151602001516001600160601b03168a6101800151612060919061307f565b61206a919061305f565b90506120a78960a001518986858151811061209557634e487b7160e01b600052603260045260246000fd5b602002602001015160000151846124a0565b6120b1818861309e565b9650505b806120bf816130f8565b915050611f84565b5050612147565b60008060006120ec8960e001518a61010001518b6101800151610d86565b9250925092508280156121155750816001600160a01b031689608001516001600160a01b031614155b80156121215750600081115b15612143576121368960a001518984846124a0565b612140818861309e565b96505b5050505b831561216e576121618660a00151868860800151876124a0565b61216b848061309e565b93505b83156121d65760405162461bcd60e51b815260206004820152603160248201527f4c656d6f6e6164654d61726b6574706c6163653a207472616e7366657220616d6044820152706f756e74206d757374206265207a65726f60781b6064820152608401610571565b505050505b60e08201516101608301516101008401516040516323b872dd60e01b81526001600160a01b03909316926323b872dd92612219923092600401612dee565b600060405180830381600087803b15801561223357600080fd5b505af1158015612247573d6000803e3d6000fd5b505050508161016001516001600160a01b0316857f1e7abafb1a786c4e6394b5c494f50a97e3802ff2ce462eca4fe6a2dd4e1f92e884610180015160405161229191815260200190565b60405180910390a35050505050565b600081815260016020526040812061053090612618565b6000828152602081905260409020600101546122d28161243c565b610cf38383612472565b6000601836108015906122f957506004546001600160a01b031633145b1561230b575060131936013560601c90565b503390565b61231a828261125d565b610d82576000828152602081815260408083206001600160a01b03851684529091529020805460ff1916600117905561235161242d565b6001600160a01b0316816001600160a01b0316837f2f8788117e7eff1d82e926ec794901d17c78024a50270940304540a733656f0d60405160405180910390a45050565b6000611256836001600160a01b038416612622565b60006001600160e01b03198216637965db0b60e01b148061053057506301ffc9a760e01b6001600160e01b0319831614610530565b6000804284106123ef57836123f1565b425b9050600083156124015783612405565b6000195b90508082111561241a57600092505050610530565b612424828261309e565b95945050505050565b60006124376122dc565b905090565b61244d8161244861242d565b612671565b50565b61245a8282612310565b6000828152600160205260409020610cf39082612395565b61247c82826126d5565b6000828152600160205260409020610cf39082612758565b6000611256838361276d565b6001600160a01b0384166124fb576001600160a01b03821630146124f6576040516001600160a01b0383169082156108fc029083906000818181858888f193505050501580156124f4573d6000803e3d6000fd5b505b612612565b6001600160a01b03831630141561258e5760405163a9059cbb60e01b81526001600160a01b0383811660048301526024820183905285169063a9059cbb90604401602060405180830381600087803b15801561255657600080fd5b505af115801561256a573d6000803e3d6000fd5b505050506040513d601f19601f820116820180604052508101906124f49190612c33565b6040516323b872dd60e01b81526001600160a01b038516906323b872dd906125be90869086908690600401612dee565b602060405180830381600087803b1580156125d857600080fd5b505af11580156125ec573d6000803e3d6000fd5b505050506040513d601f19601f820116820180604052508101906126109190612c33565b505b50505050565b6000610530825490565b600081815260018301602052604081205461266957508154600181810184556000848152602080822090930184905584548482528286019093526040902091909155610530565b506000610530565b61267b828261125d565b610d8257612693816001600160a01b031660146127a5565b61269e8360206127a5565b6040516020016126af929190612d79565b60408051601f198184030181529082905262461bcd60e51b825261057191600401612f25565b6126df828261125d565b15610d82576000828152602081815260408083206001600160a01b03851684529091529020805460ff1916905561271461242d565b6001600160a01b0316816001600160a01b0316837ff6391f5c32d9c69d2a47ea670b442974b53935d1edc7fd64eb21e047a839171b60405160405180910390a45050565b6000611256836001600160a01b038416612987565b600082600001828154811061279257634e487b7160e01b600052603260045260246000fd5b9060005260206000200154905092915050565b606060006127b483600261307f565b6127bf906002613047565b67ffffffffffffffff8111156127e557634e487b7160e01b600052604160045260246000fd5b6040519080825280601f01601f19166020018201604052801561280f576020820181803683370190505b509050600360fc1b8160008151811061283857634e487b7160e01b600052603260045260246000fd5b60200101906001600160f81b031916908160001a905350600f60fb1b8160018151811061287557634e487b7160e01b600052603260045260246000fd5b60200101906001600160f81b031916908160001a905350600061289984600261307f565b6128a4906001613047565b90505b6001811115612938576f181899199a1a9b1b9c1cb0b131b232b360811b85600f16601081106128e657634e487b7160e01b600052603260045260246000fd5b1a60f81b82828151811061290a57634e487b7160e01b600052603260045260246000fd5b60200101906001600160f81b031916908160001a90535060049490941c93612931816130e1565b90506128a7565b5083156112565760405162461bcd60e51b815260206004820181905260248201527f537472696e67733a20686578206c656e67746820696e73756666696369656e746044820152606401610571565b60008181526001830160205260408120548015612a9a5760006129ab60018361309e565b85549091506000906129bf9060019061309e565b9050818114612a405760008660000182815481106129ed57634e487b7160e01b600052603260045260246000fd5b9060005260206000200154905080876000018481548110612a1e57634e487b7160e01b600052603260045260246000fd5b6000918252602080832090910192909255918252600188019052604090208390555b8554869080612a5f57634e487b7160e01b600052603160045260246000fd5b600190038181906000526020600020016000905590558560010160008681526020019081526020016000206000905560019350505050610530565b6000915050610530565b600060208284031215612ab5578081fd5b81356112568161313f565b60008060408385031215612ad2578081fd5b8235612add8161313f565b946020939093013593505050565b60008060408385031215612afd578182fd5b8251612b088161313f565b6020939093015192949293505050565b600080600060608486031215612b2c578081fd5b8335612b378161313f565b95602085013595506040909401359392505050565b60006020808385031215612b5e578182fd5b825167ffffffffffffffff80821115612b75578384fd5b818501915085601f830112612b88578384fd5b815181811115612b9a57612b9a613129565b612ba8848260051b01613016565b8181528481019250838501600683901b85018601891015612bc7578687fd5b8694505b82851015612c2757604080828b031215612be3578788fd5b612beb612fed565b8251612bf68161313f565b8152828801516001600160601b0381168114612c1057898afd5b818901528552600195909501949386019301612bcb565b50979650505050505050565b600060208284031215612c44578081fd5b81518015158114611256578182fd5b600060208284031215612c64578081fd5b5035919050565b60008060408385031215612c7d578182fd5b823591506020830135612c8f8161313f565b809150509250929050565b60008060408385031215612cac578182fd5b50508035926020909101359150565b600060208284031215612ccc578081fd5b81356001600160e01b031981168114611256578182fd5b600080600080600080600060e0888a031215612cfd578283fd5b873560028110612d0b578384fd5b965060208801359550604088013594506060880135612d298161313f565b93506080880135925060a0880135612d408161313f565b8092505060c0880135905092959891949750929550565b60028110612d7557634e487b7160e01b600052602160045260246000fd5b9052565b7f416363657373436f6e74726f6c3a206163636f756e7420000000000000000000815260008351612db18160178501602088016130b5565b7001034b99036b4b9b9b4b733903937b6329607d1b6017918401918201528351612de28160288401602088016130b5565b01602801949350505050565b6001600160a01b039384168152919092166020820152604081019190915260600190565b600060408083018515158452602082818601528186518084526060870191508288019350855b81811015612e6f57845180516001600160a01b031684528401516001600160601b0316848401529383019391850191600101612e38565b509098975050505050505050565b6101408101612e8c828d612d57565b9915156020820152604081019890985260608801969096526001600160a01b03948516608088015292841660a087015260c086019190915260e08501521661010083015261012090910152919050565b60e08101612eea828a612d57565b602082019790975260408101959095526001600160a01b039384166060860152608085019290925290911660a083015260c090910152919050565b6020815260008251806020840152612f448160408501602087016130b5565b601f01601f19169190910160400192915050565b60208082526026908201527f4c656d6f6e6164654d61726b6574706c6163653a206f72646572206e6f6e65786040820152651a5cdd195b9d60d21b606082015260800190565b6020808252602f908201527f4c656d6f6e6164654d61726b6574706c6163653a20616d6f756e74206d75737460408201526e206d617463682074782076616c756560881b606082015260800190565b6040805190810167ffffffffffffffff8111828210171561301057613010613129565b60405290565b604051601f8201601f1916810167ffffffffffffffff8111828210171561303f5761303f613129565b604052919050565b6000821982111561305a5761305a613113565b500190565b60008261307a57634e487b7160e01b81526012600452602481fd5b500490565b600081600019048311821515161561309957613099613113565b500290565b6000828210156130b0576130b0613113565b500390565b60005b838110156130d05781810151838201526020016130b8565b838111156126125750506000910152565b6000816130f0576130f0613113565b506000190190565b600060001982141561310c5761310c613113565b5060010190565b634e487b7160e01b600052601160045260246000fd5b634e487b7160e01b600052604160045260246000fd5b6001600160a01b038116811461244d57600080fdfe4c656d6f6e6164654d61726b6574706c6163653a206f72646572206d75737420a26469706673582212209c3129d92575434c2a9688c058e2f2a5284cca831520933419d98c23695ddf5364736f6c63430008040033",
  "devdoc": {
    "kind": "dev",
    "methods": {
      "getRoleAdmin(bytes32)": {
        "details": "Returns the admin role that controls `role`. See {grantRole} and {revokeRole}. To change a role's admin, use {_setRoleAdmin}."
      },
      "getRoleMember(bytes32,uint256)": {
        "details": "Returns one of the accounts that have `role`. `index` must be a value between 0 and {getRoleMemberCount}, non-inclusive. Role bearers are not sorted in any particular way, and their ordering may change at any point. WARNING: When using {getRoleMember} and {getRoleMemberCount}, make sure you perform all queries on the same block. See the following https://forum.openzeppelin.com/t/iterating-over-elements-on-enumerableset-in-openzeppelin-contracts/2296[forum post] for more information."
      },
      "getRoleMemberCount(bytes32)": {
        "details": "Returns the number of accounts that have `role`. Can be used together with {getRoleMember} to enumerate all bearers of a role."
      },
      "grantRole(bytes32,address)": {
        "details": "Grants `role` to `account`. If `account` had not been already granted `role`, emits a {RoleGranted} event. Requirements: - the caller must have ``role``'s admin role."
      },
      "hasRole(bytes32,address)": {
        "details": "Returns `true` if `account` has been granted `role`."
      },
      "renounceRole(bytes32,address)": {
        "details": "Revokes `role` from the calling account. Roles are often managed via {grantRole} and {revokeRole}: this function's purpose is to provide a mechanism for accounts to lose their privileges if they are compromised (such as when a trusted device is misplaced). If the calling account had been revoked `role`, emits a {RoleRevoked} event. Requirements: - the caller must be `account`."
      },
      "revokeRole(bytes32,address)": {
        "details": "Revokes `role` from `account`. If `account` had been granted `role`, emits a {RoleRevoked} event. Requirements: - the caller must have ``role``'s admin role."
      },
      "supportsInterface(bytes4)": {
        "details": "See {IERC165-supportsInterface}."
      }
    },
    "version": 1
  },
  "userdoc": {
    "kind": "user",
    "methods": {
      "isTrustedForwarder(address)": {
        "notice": "return if the forwarder is trusted to forward relayed transactions to us. the forwarder is required to verify the sender's signature, and verify the call is not a replay."
      }
    },
    "version": 1
  },
  "storageLayout": {
    "storage": [
      {
        "astId": 2200,
        "contract": "contracts/LemonadeMarketplaceV1Forwardable.sol:LemonadeMarketplaceV1Forwardable",
        "label": "_roles",
        "offset": 0,
        "slot": "0",
        "type": "t_mapping(t_bytes32,t_struct(RoleData)2195_storage)"
      },
      {
        "astId": 2514,
        "contract": "contracts/LemonadeMarketplaceV1Forwardable.sol:LemonadeMarketplaceV1Forwardable",
        "label": "_roleMembers",
        "offset": 0,
        "slot": "1",
        "type": "t_mapping(t_bytes32,t_struct(AddressSet)5730_storage)"
      },
      {
        "astId": 7138,
        "contract": "contracts/LemonadeMarketplaceV1Forwardable.sol:LemonadeMarketplaceV1Forwardable",
        "label": "_orders",
        "offset": 0,
        "slot": "2",
        "type": "t_mapping(t_uint256,t_struct(Order)7133_storage)"
      },
      {
        "astId": 7141,
        "contract": "contracts/LemonadeMarketplaceV1Forwardable.sol:LemonadeMarketplaceV1Forwardable",
        "label": "orderIdTracker",
        "offset": 0,
        "slot": "3",
        "type": "t_struct(Counter)4909_storage"
      },
      {
        "astId": 9450,
        "contract": "contracts/LemonadeMarketplaceV1Forwardable.sol:LemonadeMarketplaceV1Forwardable",
        "label": "trustedForwarder",
        "offset": 0,
        "slot": "4",
        "type": "t_address"
      }
    ],
    "types": {
      "t_address": {
        "encoding": "inplace",
        "label": "address",
        "numberOfBytes": "20"
      },
      "t_array(t_bytes32)dyn_storage": {
        "base": "t_bytes32",
        "encoding": "dynamic_array",
        "label": "bytes32[]",
        "numberOfBytes": "32"
      },
      "t_bool": {
        "encoding": "inplace",
        "label": "bool",
        "numberOfBytes": "1"
      },
      "t_bytes32": {
        "encoding": "inplace",
        "label": "bytes32",
        "numberOfBytes": "32"
      },
      "t_enum(OrderKind)7064": {
        "encoding": "inplace",
        "label": "enum LemonadeMarketplaceV1.OrderKind",
        "numberOfBytes": "1"
      },
      "t_mapping(t_address,t_bool)": {
        "encoding": "mapping",
        "key": "t_address",
        "label": "mapping(address => bool)",
        "numberOfBytes": "32",
        "value": "t_bool"
      },
      "t_mapping(t_bytes32,t_struct(AddressSet)5730_storage)": {
        "encoding": "mapping",
        "key": "t_bytes32",
        "label": "mapping(bytes32 => struct EnumerableSet.AddressSet)",
        "numberOfBytes": "32",
        "value": "t_struct(AddressSet)5730_storage"
      },
      "t_mapping(t_bytes32,t_struct(RoleData)2195_storage)": {
        "encoding": "mapping",
        "key": "t_bytes32",
        "label": "mapping(bytes32 => struct AccessControl.RoleData)",
        "numberOfBytes": "32",
        "value": "t_struct(RoleData)2195_storage"
      },
      "t_mapping(t_bytes32,t_uint256)": {
        "encoding": "mapping",
        "key": "t_bytes32",
        "label": "mapping(bytes32 => uint256)",
        "numberOfBytes": "32",
        "value": "t_uint256"
      },
      "t_mapping(t_uint256,t_struct(Order)7133_storage)": {
        "encoding": "mapping",
        "key": "t_uint256",
        "label": "mapping(uint256 => struct LemonadeMarketplaceV1.Order)",
        "numberOfBytes": "32",
        "value": "t_struct(Order)7133_storage"
      },
      "t_struct(AddressSet)5730_storage": {
        "encoding": "inplace",
        "label": "struct EnumerableSet.AddressSet",
        "members": [
          {
            "astId": 5729,
            "contract": "contracts/LemonadeMarketplaceV1Forwardable.sol:LemonadeMarketplaceV1Forwardable",
            "label": "_inner",
            "offset": 0,
            "slot": "0",
            "type": "t_struct(Set)5429_storage"
          }
        ],
        "numberOfBytes": "64"
      },
      "t_struct(Counter)4909_storage": {
        "encoding": "inplace",
        "label": "struct Counters.Counter",
        "members": [
          {
            "astId": 4908,
            "contract": "contracts/LemonadeMarketplaceV1Forwardable.sol:LemonadeMarketplaceV1Forwardable",
            "label": "_value",
            "offset": 0,
            "slot": "0",
            "type": "t_uint256"
          }
        ],
        "numberOfBytes": "32"
      },
      "t_struct(Order)7133_storage": {
        "encoding": "inplace",
        "label": "struct LemonadeMarketplaceV1.Order",
        "members": [
          {
            "astId": 7108,
            "contract": "contracts/LemonadeMarketplaceV1Forwardable.sol:LemonadeMarketplaceV1Forwardable",
            "label": "kind",
            "offset": 0,
            "slot": "0",
            "type": "t_enum(OrderKind)7064"
          },
          {
            "astId": 7110,
            "contract": "contracts/LemonadeMarketplaceV1Forwardable.sol:LemonadeMarketplaceV1Forwardable",
            "label": "open",
            "offset": 1,
            "slot": "0",
            "type": "t_bool"
          },
          {
            "astId": 7112,
            "contract": "contracts/LemonadeMarketplaceV1Forwardable.sol:LemonadeMarketplaceV1Forwardable",
            "label": "openFrom",
            "offset": 0,
            "slot": "1",
            "type": "t_uint256"
          },
          {
            "astId": 7114,
            "contract": "contracts/LemonadeMarketplaceV1Forwardable.sol:LemonadeMarketplaceV1Forwardable",
            "label": "openTo",
            "offset": 0,
            "slot": "2",
            "type": "t_uint256"
          },
          {
            "astId": 7116,
            "contract": "contracts/LemonadeMarketplaceV1Forwardable.sol:LemonadeMarketplaceV1Forwardable",
            "label": "maker",
            "offset": 0,
            "slot": "3",
            "type": "t_address"
          },
          {
            "astId": 7118,
            "contract": "contracts/LemonadeMarketplaceV1Forwardable.sol:LemonadeMarketplaceV1Forwardable",
            "label": "currency",
            "offset": 0,
            "slot": "4",
            "type": "t_address"
          },
          {
            "astId": 7120,
            "contract": "contracts/LemonadeMarketplaceV1Forwardable.sol:LemonadeMarketplaceV1Forwardable",
            "label": "price",
            "offset": 0,
            "slot": "5",
            "type": "t_uint256"
          },
          {
            "astId": 7122,
            "contract": "contracts/LemonadeMarketplaceV1Forwardable.sol:LemonadeMarketplaceV1Forwardable",
            "label": "tokenContract",
            "offset": 0,
            "slot": "6",
            "type": "t_address"
          },
          {
            "astId": 7124,
            "contract": "contracts/LemonadeMarketplaceV1Forwardable.sol:LemonadeMarketplaceV1Forwardable",
            "label": "tokenId",
            "offset": 0,
            "slot": "7",
            "type": "t_uint256"
          },
          {
            "astId": 7126,
            "contract": "contracts/LemonadeMarketplaceV1Forwardable.sol:LemonadeMarketplaceV1Forwardable",
            "label": "bidder",
            "offset": 0,
            "slot": "8",
            "type": "t_address"
          },
          {
            "astId": 7128,
            "contract": "contracts/LemonadeMarketplaceV1Forwardable.sol:LemonadeMarketplaceV1Forwardable",
            "label": "bidAmount",
            "offset": 0,
            "slot": "9",
            "type": "t_uint256"
          },
          {
            "astId": 7130,
            "contract": "contracts/LemonadeMarketplaceV1Forwardable.sol:LemonadeMarketplaceV1Forwardable",
            "label": "taker",
            "offset": 0,
            "slot": "10",
            "type": "t_address"
          },
          {
            "astId": 7132,
            "contract": "contracts/LemonadeMarketplaceV1Forwardable.sol:LemonadeMarketplaceV1Forwardable",
            "label": "paidAmount",
            "offset": 0,
            "slot": "11",
            "type": "t_uint256"
          }
        ],
        "numberOfBytes": "384"
      },
      "t_struct(RoleData)2195_storage": {
        "encoding": "inplace",
        "label": "struct AccessControl.RoleData",
        "members": [
          {
            "astId": 2192,
            "contract": "contracts/LemonadeMarketplaceV1Forwardable.sol:LemonadeMarketplaceV1Forwardable",
            "label": "members",
            "offset": 0,
            "slot": "0",
            "type": "t_mapping(t_address,t_bool)"
          },
          {
            "astId": 2194,
            "contract": "contracts/LemonadeMarketplaceV1Forwardable.sol:LemonadeMarketplaceV1Forwardable",
            "label": "adminRole",
            "offset": 0,
            "slot": "1",
            "type": "t_bytes32"
          }
        ],
        "numberOfBytes": "64"
      },
      "t_struct(Set)5429_storage": {
        "encoding": "inplace",
        "label": "struct EnumerableSet.Set",
        "members": [
          {
            "astId": 5424,
            "contract": "contracts/LemonadeMarketplaceV1Forwardable.sol:LemonadeMarketplaceV1Forwardable",
            "label": "_values",
            "offset": 0,
            "slot": "0",
            "type": "t_array(t_bytes32)dyn_storage"
          },
          {
            "astId": 5428,
            "contract": "contracts/LemonadeMarketplaceV1Forwardable.sol:LemonadeMarketplaceV1Forwardable",
            "label": "_indexes",
            "offset": 0,
            "slot": "1",
            "type": "t_mapping(t_bytes32,t_uint256)"
          }
        ],
        "numberOfBytes": "64"
      },
      "t_uint256": {
        "encoding": "inplace",
        "label": "uint256",
        "numberOfBytes": "32"
      }
    }
  }
}