{
  "address": "0xE82220094637692e9E6fE28c3D640222862E1456",
  "abi": [
    {
      "inputs": [
        {
          "internalType": "address",
          "name": "feeAccount",
          "type": "address"
        },
        {
          "internalType": "uint96",
          "name": "feeValue",
          "type": "uint96"
        }
      ],
      "stateMutability": "nonpayable",
      "type": "constructor"
    },
    {
      "anonymous": false,
      "inputs": [
        {
          "indexed": true,
          "internalType": "uint256",
          "name": "orderId",
          "type": "uint256"
        },
        {
          "indexed": true,
          "internalType": "address",
          "name": "bidder",
          "type": "address"
        },
        {
          "indexed": false,
          "internalType": "uint256",
          "name": "bidAmount",
          "type": "uint256"
        }
      ],
      "name": "OrderBid",
      "type": "event"
    },
    {
      "anonymous": false,
      "inputs": [
        {
          "indexed": true,
          "internalType": "uint256",
          "name": "orderId",
          "type": "uint256"
        }
      ],
      "name": "OrderCancelled",
      "type": "event"
    },
    {
      "anonymous": false,
      "inputs": [
        {
          "indexed": true,
          "internalType": "uint256",
          "name": "orderId",
          "type": "uint256"
        },
        {
          "indexed": false,
          "internalType": "enum LemonadeMarketplaceV1.OrderKind",
          "name": "kind",
          "type": "uint8"
        },
        {
          "indexed": false,
          "internalType": "uint256",
          "name": "openFrom",
          "type": "uint256"
        },
        {
          "indexed": false,
          "internalType": "uint256",
          "name": "openTo",
          "type": "uint256"
        },
        {
          "indexed": true,
          "internalType": "address",
          "name": "maker",
          "type": "address"
        },
        {
          "indexed": false,
          "internalType": "address",
          "name": "currency",
          "type": "address"
        },
        {
          "indexed": false,
          "internalType": "uint256",
          "name": "price",
          "type": "uint256"
        },
        {
          "indexed": false,
          "internalType": "address",
          "name": "tokenContract",
          "type": "address"
        },
        {
          "indexed": false,
          "internalType": "uint256",
          "name": "tokenId",
          "type": "uint256"
        }
      ],
      "name": "OrderCreated",
      "type": "event"
    },
    {
      "anonymous": false,
      "inputs": [
        {
          "indexed": true,
          "internalType": "uint256",
          "name": "orderId",
          "type": "uint256"
        },
        {
          "indexed": true,
          "internalType": "address",
          "name": "taker",
          "type": "address"
        },
        {
          "indexed": false,
          "internalType": "uint256",
          "name": "paidAmount",
          "type": "uint256"
        }
      ],
      "name": "OrderFilled",
      "type": "event"
    },
    {
      "anonymous": false,
      "inputs": [
        {
          "indexed": false,
          "internalType": "address",
          "name": "account",
          "type": "address"
        }
      ],
      "name": "Paused",
      "type": "event"
    },
    {
      "anonymous": false,
      "inputs": [
        {
          "indexed": true,
          "internalType": "bytes32",
          "name": "role",
          "type": "bytes32"
        },
        {
          "indexed": true,
          "internalType": "bytes32",
          "name": "previousAdminRole",
          "type": "bytes32"
        },
        {
          "indexed": true,
          "internalType": "bytes32",
          "name": "newAdminRole",
          "type": "bytes32"
        }
      ],
      "name": "RoleAdminChanged",
      "type": "event"
    },
    {
      "anonymous": false,
      "inputs": [
        {
          "indexed": true,
          "internalType": "bytes32",
          "name": "role",
          "type": "bytes32"
        },
        {
          "indexed": true,
          "internalType": "address",
          "name": "account",
          "type": "address"
        },
        {
          "indexed": true,
          "internalType": "address",
          "name": "sender",
          "type": "address"
        }
      ],
      "name": "RoleGranted",
      "type": "event"
    },
    {
      "anonymous": false,
      "inputs": [
        {
          "indexed": true,
          "internalType": "bytes32",
          "name": "role",
          "type": "bytes32"
        },
        {
          "indexed": true,
          "internalType": "address",
          "name": "account",
          "type": "address"
        },
        {
          "indexed": true,
          "internalType": "address",
          "name": "sender",
          "type": "address"
        }
      ],
      "name": "RoleRevoked",
      "type": "event"
    },
    {
      "anonymous": false,
      "inputs": [
        {
          "indexed": false,
          "internalType": "address",
          "name": "account",
          "type": "address"
        }
      ],
      "name": "Unpaused",
      "type": "event"
    },
    {
      "inputs": [],
      "name": "DEFAULT_ADMIN_ROLE",
      "outputs": [
        {
          "internalType": "bytes32",
          "name": "",
          "type": "bytes32"
        }
      ],
      "stateMutability": "view",
      "type": "function"
    },
    {
      "inputs": [],
      "name": "FEE_ACCOUNT",
      "outputs": [
        {
          "internalType": "address",
          "name": "",
          "type": "address"
        }
      ],
      "stateMutability": "view",
      "type": "function"
    },
    {
      "inputs": [],
      "name": "FEE_VALUE",
      "outputs": [
        {
          "internalType": "uint96",
          "name": "",
          "type": "uint96"
        }
      ],
      "stateMutability": "view",
      "type": "function"
    },
    {
      "inputs": [
        {
          "internalType": "uint256",
          "name": "orderId",
          "type": "uint256"
        },
        {
          "internalType": "uint256",
          "name": "amount",
          "type": "uint256"
        }
      ],
      "name": "bidOrder",
      "outputs": [],
      "stateMutability": "nonpayable",
      "type": "function"
    },
    {
      "inputs": [
        {
          "internalType": "uint256",
          "name": "orderId",
          "type": "uint256"
        }
      ],
      "name": "cancelOrder",
      "outputs": [],
      "stateMutability": "nonpayable",
      "type": "function"
    },
    {
      "inputs": [
        {
          "internalType": "enum LemonadeMarketplaceV1.OrderKind",
          "name": "kind",
          "type": "uint8"
        },
        {
          "internalType": "uint256",
          "name": "openFrom",
          "type": "uint256"
        },
        {
          "internalType": "uint256",
          "name": "openTo",
          "type": "uint256"
        },
        {
          "internalType": "address",
          "name": "currency",
          "type": "address"
        },
        {
          "internalType": "uint256",
          "name": "price",
          "type": "uint256"
        },
        {
          "internalType": "address",
          "name": "tokenContract",
          "type": "address"
        },
        {
          "internalType": "uint256",
          "name": "tokenId",
          "type": "uint256"
        }
      ],
      "name": "createOrder",
      "outputs": [
        {
          "internalType": "uint256",
          "name": "",
          "type": "uint256"
        }
      ],
      "stateMutability": "nonpayable",
      "type": "function"
    },
    {
      "inputs": [],
      "name": "fee",
      "outputs": [
        {
          "internalType": "address",
          "name": "",
          "type": "address"
        },
        {
          "internalType": "uint96",
          "name": "",
          "type": "uint96"
        }
      ],
      "stateMutability": "view",
      "type": "function"
    },
    {
      "inputs": [
        {
          "internalType": "uint256",
          "name": "orderId",
          "type": "uint256"
        },
        {
          "internalType": "uint256",
          "name": "amount",
          "type": "uint256"
        }
      ],
      "name": "fillOrder",
      "outputs": [],
      "stateMutability": "nonpayable",
      "type": "function"
    },
    {
      "inputs": [
        {
          "internalType": "bytes32",
          "name": "role",
          "type": "bytes32"
        }
      ],
      "name": "getRoleAdmin",
      "outputs": [
        {
          "internalType": "bytes32",
          "name": "",
          "type": "bytes32"
        }
      ],
      "stateMutability": "view",
      "type": "function"
    },
    {
      "inputs": [
        {
          "internalType": "bytes32",
          "name": "role",
          "type": "bytes32"
        },
        {
          "internalType": "uint256",
          "name": "index",
          "type": "uint256"
        }
      ],
      "name": "getRoleMember",
      "outputs": [
        {
          "internalType": "address",
          "name": "",
          "type": "address"
        }
      ],
      "stateMutability": "view",
      "type": "function"
    },
    {
      "inputs": [
        {
          "internalType": "bytes32",
          "name": "role",
          "type": "bytes32"
        }
      ],
      "name": "getRoleMemberCount",
      "outputs": [
        {
          "internalType": "uint256",
          "name": "",
          "type": "uint256"
        }
      ],
      "stateMutability": "view",
      "type": "function"
    },
    {
      "inputs": [
        {
          "internalType": "bytes32",
          "name": "role",
          "type": "bytes32"
        },
        {
          "internalType": "address",
          "name": "account",
          "type": "address"
        }
      ],
      "name": "grantRole",
      "outputs": [],
      "stateMutability": "nonpayable",
      "type": "function"
    },
    {
      "inputs": [
        {
          "internalType": "bytes32",
          "name": "role",
          "type": "bytes32"
        },
        {
          "internalType": "address",
          "name": "account",
          "type": "address"
        }
      ],
      "name": "hasRole",
      "outputs": [
        {
          "internalType": "bool",
          "name": "",
          "type": "bool"
        }
      ],
      "stateMutability": "view",
      "type": "function"
    },
    {
      "inputs": [
        {
          "internalType": "uint256",
          "name": "orderId",
          "type": "uint256"
        }
      ],
      "name": "order",
      "outputs": [
        {
          "internalType": "enum LemonadeMarketplaceV1.OrderKind",
          "name": "",
          "type": "uint8"
        },
        {
          "internalType": "bool",
          "name": "",
          "type": "bool"
        },
        {
          "internalType": "uint256",
          "name": "",
          "type": "uint256"
        },
        {
          "internalType": "uint256",
          "name": "",
          "type": "uint256"
        },
        {
          "internalType": "address",
          "name": "",
          "type": "address"
        },
        {
          "internalType": "address",
          "name": "",
          "type": "address"
        },
        {
          "internalType": "uint256",
          "name": "",
          "type": "uint256"
        },
        {
          "internalType": "uint256",
          "name": "",
          "type": "uint256"
        },
        {
          "internalType": "address",
          "name": "",
          "type": "address"
        },
        {
          "internalType": "uint256",
          "name": "",
          "type": "uint256"
        }
      ],
      "stateMutability": "view",
      "type": "function"
    },
    {
      "inputs": [],
      "name": "pause",
      "outputs": [],
      "stateMutability": "nonpayable",
      "type": "function"
    },
    {
      "inputs": [],
      "name": "paused",
      "outputs": [
        {
          "internalType": "bool",
          "name": "",
          "type": "bool"
        }
      ],
      "stateMutability": "view",
      "type": "function"
    },
    {
      "inputs": [
        {
          "internalType": "bytes32",
          "name": "role",
          "type": "bytes32"
        },
        {
          "internalType": "address",
          "name": "account",
          "type": "address"
        }
      ],
      "name": "renounceRole",
      "outputs": [],
      "stateMutability": "nonpayable",
      "type": "function"
    },
    {
      "inputs": [
        {
          "internalType": "bytes32",
          "name": "role",
          "type": "bytes32"
        },
        {
          "internalType": "address",
          "name": "account",
          "type": "address"
        }
      ],
      "name": "revokeRole",
      "outputs": [],
      "stateMutability": "nonpayable",
      "type": "function"
    },
    {
      "inputs": [
        {
          "internalType": "bytes4",
          "name": "interfaceId",
          "type": "bytes4"
        }
      ],
      "name": "supportsInterface",
      "outputs": [
        {
          "internalType": "bool",
          "name": "",
          "type": "bool"
        }
      ],
      "stateMutability": "view",
      "type": "function"
    },
    {
      "inputs": [
        {
          "internalType": "uint256",
          "name": "orderId",
          "type": "uint256"
        }
      ],
      "name": "token",
      "outputs": [
        {
          "internalType": "address",
          "name": "",
          "type": "address"
        },
        {
          "internalType": "uint256",
          "name": "",
          "type": "uint256"
        }
      ],
      "stateMutability": "view",
      "type": "function"
    },
    {
      "inputs": [],
      "name": "unpause",
      "outputs": [],
      "stateMutability": "nonpayable",
      "type": "function"
    }
  ],
  "transactionHash": "0x9670d0916c66758ed7a6124e99b546fafbaf4c97cc61ac59ceacf7097494171b",
  "args": [
    "0x951292004e8a18955Cb1095CB72Ca6B01d68336E",
    "200"
  ],
  "numDeployments": 1,
  "solcInputHash": "24bd68dcc080e13a4f2a11d9965d8abf",
  "bytecode": "0x60c06040523480156200001157600080fd5b5060405162003053380380620030538339810160408190526200003491620001e2565b6002805460ff19169055606082901b6001600160601b03191660805260a081811b6001600160a01b03191690526200007560006200006f3390565b6200007d565b505062000234565b6200008982826200008d565b5050565b620000a48282620000d060201b62001fe41760201c565b6000828152600160209081526040909120620000cb9183906200206862000170821b17901c565b505050565b6000828152602081815260408083206001600160a01b038516845290915290205460ff1662000089576000828152602081815260408083206001600160a01b03851684529091529020805460ff191660011790556200012c3390565b6001600160a01b0316816001600160a01b0316837f2f8788117e7eff1d82e926ec794901d17c78024a50270940304540a733656f0d60405160405180910390a45050565b600062000187836001600160a01b03841662000190565b90505b92915050565b6000818152600183016020526040812054620001d9575081546001818101845560008481526020808220909301849055845484825282860190935260409020919091556200018a565b5060006200018a565b60008060408385031215620001f5578182fd5b82516001600160a01b03811681146200020c578283fd5b60208401519092506001600160601b038116811462000229578182fd5b809150509250929050565b60805160601c60a05160a01c612dd76200027c600039600081816102cb0152818161038b0152611bf50152600081816102560152818161035f0152611c320152612dd76000f3fe608060405234801561001057600080fd5b50600436106101375760003560e01c80637cca687b116100b8578063ae9130951161007c578063ae913095146102c6578063b858fb5f14610305578063c37dfc5b14610318578063ca15c8731461032b578063d547741f1461033e578063ddca3f431461035157600080fd5b80637cca687b146102515780638456cb59146102905780639010d07c1461029857806391d14854146102ab578063a217fddf146102be57600080fd5b80632f2ff15d116100ff5780632f2ff15d1461020357806336568abe146102185780633f4ba83a1461022b578063514fcac7146102335780635c975abb1461024657600080fd5b806301ffc9a71461013c578063044215c6146101645780630c1097101461019657806321603f43146101b7578063248a9ca3146101e0575b600080fd5b61014f61014a366004612974565b6103b6565b60405190151581526020015b60405180910390f35b61017761017236600461290c565b6103e1565b604080516001600160a01b03909316835260208301919091520161015b565b6101a96101a436600461299c565b61044f565b60405190815260200161015b565b6101ca6101c536600461290c565b610952565b60405161015b9a99989796959493929190612acb565b6101a96101ee36600461290c565b60009081526020819052604090206001015490565b610216610211366004612924565b610b9b565b005b610216610226366004612924565b610bc5565b610216610c43565b61021661024136600461290c565b610c59565b60025460ff1661014f565b6102787f000000000000000000000000000000000000000000000000000000000000000081565b6040516001600160a01b03909116815260200161015b565b610216610fb6565b6102786102a6366004612953565b610fc9565b61014f6102b9366004612924565b610fe8565b6101a9600081565b6102ed7f000000000000000000000000000000000000000000000000000000000000000081565b6040516001600160601b03909116815260200161015b565b610216610313366004612953565b611011565b610216610326366004612953565b6115ab565b6101a961033936600461290c565b611fa8565b61021661034c366004612924565b611fbf565b604080516001600160a01b037f00000000000000000000000000000000000000000000000000000000000000001681526001600160601b037f00000000000000000000000000000000000000000000000000000000000000001660208201520161015b565b60006001600160e01b03198216635a05180f60e01b14806103db57506103db8261207d565b92915050565b600081815260036020819052604082200154819083906001600160a01b03166104255760405162461bcd60e51b815260040161041c90612bd0565b60405180910390fd5b505050600090815260036020526040902060068101546007909101546001600160a01b0390911691565b600061045d60025460ff1690565b1561047a5760405162461bcd60e51b815260040161041c90612ba6565b600061048688886120b2565b9050600081116104e45760405162461bcd60e51b81526020600482015260356024820152600080516020612d828339815191526044820152741899481bdc195b88185d081cdbdb59481c1bda5b9d605a1b606482015260840161041c565b600189600181111561050657634e487b7160e01b600052602160045260246000fd5b141561059f5762278d0081111561059f5760405162461bcd60e51b815260206004820152605160248201527f4c656d6f6e6164654d61726b6574706c6163653a206f72646572206f66206b6960448201527f6e642061756374696f6e206d757374206e6f74206265206f70656e20666f72206064820152706d6f7265207468616e203330206461797360781b608482015260a40161041c565b6040516323b872dd60e01b81526001600160a01b038516906323b872dd906105cf90339030908890600401612aa7565b600060405180830381600087803b1580156105e957600080fd5b505af11580156105fd573d6000803e3d6000fd5b50505050600061060c60045490565b9050604051806101a001604052808b600181111561063a57634e487b7160e01b600052602160045260246000fd5b815260016020820152604081018b9052606081018a9052608001336001600160a01b03908116825289811660208084019190915260408084018b9052918916606084015260808301889052600060a0840181905260c0840181905260e0840181905261010090930183905284835260039052902081518154829060ff1916600183818111156106d957634e487b7160e01b600052602160045260246000fd5b02179055506020820151815490151561010090810261ff0019909216919091178255604083015160018301556060830151600283015560808301516003830180546001600160a01b039283166001600160a01b03199182161790915560a0850151600480860180549285169284169290921790915560c0860151600586015560e08601516006860180549185169184169190911790559285015160078501556101208501516008850180549184169183169190911790556101408501516009850155610160850151600a8501805491909316911617905561018090920151600b909101556107ca9080546001019055565b60008181526003602052604080822081516101a081019092528054829060ff16600181111561080957634e487b7160e01b600052602160045260246000fd5b600181111561082857634e487b7160e01b600052602160045260246000fd5b8152815460ff6101009182900416151560208301526001830154604080840191909152600284015460608085019190915260038501546001600160a01b039081166080808701919091526004870154821660a080880191909152600588015460c0808901919091526006890154841660e0808a019190915260078a0154888a015260088a015485166101208a015260098a01546101408a0152600a8a015485166101608a0152600b909901546101809098019790975290880151885189860151948a0151928a0151978a0151988a0151968a01519551999a509216978a977f4e400f43dce6cc22df28146360114559ffae81b0644d4752872c7def6d77319e9761093c979496939490939192909190612b2a565b60405180910390a3509998505050505050505050565b6000818152600360208190526040822001548190819081908190819081908190819081908b906001600160a01b031661099d5760405162461bcd60e51b815260040161041c90612bd0565b60008c81526003602052604080822081516101a081019092528054829060ff1660018111156109dc57634e487b7160e01b600052602160045260246000fd5b60018111156109fb57634e487b7160e01b600052602160045260246000fd5b81526020016000820160019054906101000a900460ff1615151515815260200160018201548152602001600282015481526020016003820160009054906101000a90046001600160a01b03166001600160a01b03166001600160a01b031681526020016004820160009054906101000a90046001600160a01b03166001600160a01b03166001600160a01b03168152602001600582015481526020016006820160009054906101000a90046001600160a01b03166001600160a01b03166001600160a01b03168152602001600782015481526020016008820160009054906101000a90046001600160a01b03166001600160a01b03166001600160a01b0316815260200160098201548152602001600a820160009054906101000a90046001600160a01b03166001600160a01b03166001600160a01b03168152602001600b820154815250509050806000015181602001518260400151836060015184608001518560a001518660c001518761014001518861016001518961018001519b509b509b509b509b509b509b509b509b509b5050509193959799509193959799565b600082815260208190526040902060010154610bb681612100565b610bc0838361210a565b505050565b6001600160a01b0381163314610c355760405162461bcd60e51b815260206004820152602f60248201527f416363657373436f6e74726f6c3a2063616e206f6e6c792072656e6f756e636560448201526e103937b632b9903337b91039b2b63360891b606482015260840161041c565b610c3f828261212c565b5050565b6000610c4e81612100565b610c5661214e565b50565b60025460ff1615610c7c5760405162461bcd60e51b815260040161041c90612ba6565b6000818152600360208190526040909120015481906001600160a01b0316610cb65760405162461bcd60e51b815260040161041c90612bd0565b60008281526003602052604080822081516101a081019092528054829060ff166001811115610cf557634e487b7160e01b600052602160045260246000fd5b6001811115610d1457634e487b7160e01b600052602160045260246000fd5b815281546101009081900460ff1615156020830152600183015460408301526002830154606083015260038301546001600160a01b0390811660808401526004840154811660a0840152600584015460c08401526006840154811660e0840152600784015491830191909152600883015481166101208301526009830154610140830152600a83015416610160820152600b90910154610180909101529050336001600160a01b031681608001516001600160a01b03161480610ddd5750610ddd600033610fe8565b610e425760405162461bcd60e51b815260206004820152603060248201527f4c656d6f6e6164654d61726b6574706c6163653a206d7573742062652074686560448201526f081b585ad95c881d1bc818d85b98d95b60821b606482015260840161041c565b8060200151610e9b5760405162461bcd60e51b81526020600482015260316024820152600080516020612d828339815191526044820152701899481bdc195b881d1bc818d85b98d95b607a1b606482015260840161041c565b6101208101516001600160a01b031615610f035760405162461bcd60e51b81526020600482015260356024820152600080516020612d828339815191526044820152741a185d99481b9bc8189a59081d1bc818d85b98d95b605a1b606482015260840161041c565b60e08101516080820151610100830151604051632142170760e11b81526001600160a01b03909316926342842e0e92610f40923092600401612aa7565b600060405180830381600087803b158015610f5a57600080fd5b505af1158015610f6e573d6000803e3d6000fd5b505050600084815260036020526040808220805461ff0019169055518592507f61b9399f2f0f32ca39ce8d7be32caed5ec22fe07a6daba3a467ed479ec6065829190a2505050565b6000610fc181612100565b610c566121e1565b6000828152600160205260408120610fe19083612239565b9392505050565b6000918252602082815260408084206001600160a01b0393909316845291905290205460ff1690565b60025460ff16156110345760405162461bcd60e51b815260040161041c90612ba6565b6000828152600360208190526040909120015482906001600160a01b031661106e5760405162461bcd60e51b815260040161041c90612bd0565b60008381526003602052604080822081516101a081019092528054829060ff1660018111156110ad57634e487b7160e01b600052602160045260246000fd5b60018111156110cc57634e487b7160e01b600052602160045260246000fd5b8152815460ff61010091829004161515602083015260018084015460408401526002840154606084015260038401546001600160a01b0390811660808501526004850154811660a0850152600585015460c08501526006850154811660e0850152600785015492840192909252600884015482166101208401526009840154610140840152600a840154909116610160830152600b90920154610180909101529091508151600181111561119057634e487b7160e01b600052602160045260246000fd5b146111f15760405162461bcd60e51b81526020600482015260396024820152600080516020612d8283398151915260448201527f6265206f66206b696e642061756374696f6e20746f2062696400000000000000606482015260840161041c565b80602001516112475760405162461bcd60e51b815260206004820152602e6024820152600080516020612d8283398151915260448201526d1899481bdc195b881d1bc8189a5960921b606482015260840161041c565b42816040015111156112af5760405162461bcd60e51b815260206004820152603a6024820152600080516020612d8283398151915260448201527f6265206f70656e20746f20626964202d20746f6f206561726c79000000000000606482015260840161041c565b428160600151116113165760405162461bcd60e51b81526020600482015260396024820152600080516020612d8283398151915260448201527f6265206f70656e20746f20626964202d20746f6f206c61746500000000000000606482015260840161041c565b828160c00151111561137f5760405162461bcd60e51b815260206004820152602c60248201527f4c656d6f6e6164654d61726b6574706c6163653a206d757374206d617463682060448201526b1c1c9a58d9481d1bc8189a5960a21b606482015260840161041c565b6101208101516001600160a01b0316156114165782816101400151106113fc5760405162461bcd60e51b815260206004820152602c60248201527f4c656d6f6e6164654d61726b6574706c6163653a206d7573742073757270617360448201526b1cc8189a59081d1bc8189a5960a21b606482015260840161041c565b6114168160a0015130836101200151846101400151612245565b600084815260036020526040908190206008810180546001600160a01b031916331790556009810185905581516101a081019092528054829060ff16600181111561147157634e487b7160e01b600052602160045260246000fd5b600181111561149057634e487b7160e01b600052602160045260246000fd5b8152815460ff610100918290041615156020830152600183015460408301526002830154606083015260038301546001600160a01b0390811660808401526004840154811660a080850191909152600585015460c08501526006850154821660e08501526007850154928401929092526008840154811661012080850191909152600985015461014080860191909152600a860154909216610160850152600b90940154610180909301929092528301519183015190830151929350611557923090612245565b8061012001516001600160a01b0316847f43c168f1d9d74d73325ab680f380bc731699766781190d47b123572b01b2fa2883610140015160405161159d91815260200190565b60405180910390a350505050565b60025460ff16156115ce5760405162461bcd60e51b815260040161041c90612ba6565b6000828152600360208190526040909120015482906001600160a01b03166116085760405162461bcd60e51b815260040161041c90612bd0565b60008381526003602052604080822081516101a081019092528054829060ff16600181111561164757634e487b7160e01b600052602160045260246000fd5b600181111561166657634e487b7160e01b600052602160045260246000fd5b8152815460ff61010091829004161515602080840191909152600184015460408401526002840154606084015260038401546001600160a01b0390811660808501526004850154811660a0850152600585015460c08501526006850154811660e0850152600785015492840192909252600884015482166101208401526009840154610140840152600a840154909116610160830152600b90920154610180909101528101519091506117615760405162461bcd60e51b815260206004820152602f6024820152600080516020612d8283398151915260448201526e1899481bdc195b881d1bc8199a5b1b608a1b606482015260840161041c565b6000848152600360205260408120805461ff0019169055808251600181111561179a57634e487b7160e01b600052602160045260246000fd5b14156119295742826040015111156118085760405162461bcd60e51b815260206004820152603b6024820152600080516020612d8283398151915260448201527f6265206f70656e20746f2066696c6c202d20746f6f206561726c790000000000606482015260840161041c565b6060820151158061181c5750428260600151115b61187c5760405162461bcd60e51b815260206004820152603a6024820152600080516020612d8283398151915260448201527f6265206f70656e20746f2066696c6c202d20746f6f206c617465000000000000606482015260840161041c565b838260c0015111156118f65760405162461bcd60e51b815260206004820152603a60248201527f4c656d6f6e6164654d61726b6574706c6163653a206d757374206d617463682060448201527f707269636520746f2066696c6c20646972656374206f72646572000000000000606482015260840161041c565b506000848152600360205260409020600a810180546001600160a01b03191633908117909155600b909101849055611ad6565b60018251600181111561194c57634e487b7160e01b600052602160045260246000fd5b1415611ad6576101208201516001600160a01b03166119c15760405162461bcd60e51b815260206004820152603e6024820152600080516020612d8283398151915260448201527f686176652062696420746f2066696c6c2061756374696f6e206f726465720000606482015260840161041c565b6101208201516001600160a01b0316331480156119e2575042826060015111155b806119f9575060808201516001600160a01b031633145b80611a0a5750611a0a600033610fe8565b611a915760405162461bcd60e51b815260206004820152604c60248201527f4c656d6f6e6164654d61726b6574706c6163653a206d7573742062652074686560448201527f206d616b6572206f722066696e616c2062696464657220746f2066696c6c206160648201526b3ab1ba34b7b71037b93232b960a11b608482015260a40161041c565b506101208101516000858152600360205260409020600a810180546001600160a01b0319166001600160a01b0390931692909217909155610140820151600b90910155305b6000858152600360205260409081902081516101a081019092528054829060ff166001811115611b1657634e487b7160e01b600052602160045260246000fd5b6001811115611b3557634e487b7160e01b600052602160045260246000fd5b8152815460ff610100918290041615156020830152600183015460408301526002830154606083015260038301546001600160a01b0390811660808401526004840154811660a0840152600584015460c08401526006840154811660e0840152600784015491830191909152600883015481166101208301526009830154610140830152600a83015416610160820152600b909101546101809182015281015190925015611ee3576101808201516000612710611c1b6001600160601b037f00000000000000000000000000000000000000000000000000000000000000001684612ca8565b611c259190612c88565b9050611c578460a00151847f000000000000000000000000000000000000000000000000000000000000000084612245565b611c618183612cc7565b91508360e001516001600160a01b031663cad96cca8561010001516040518263ffffffff1660e01b8152600401611c9a91815260200190565b60006040518083038186803b158015611cb257600080fd5b505afa925050508015611ce757506040513d6000823e601f3d908101601f19168201604052611ce49190810190612805565b60015b611dbc5760e084015161010085015161018086015160405163152a902d60e11b8152600481019290925260248201526001600160a01b0390911690632a55205a90604401604080518083038186803b158015611d4257600080fd5b505afa925050508015611d72575060408051601f3d908101601f19168201909252611d6f918101906127d8565b60015b611d7b57611ec6565b816001600160a01b031686608001516001600160a01b031614611db557611da88660a00151868484612245565b611db28185612cc7565b93505b5050611ec6565b805160005b81811015611ec257828181518110611de957634e487b7160e01b600052603260045260246000fd5b6020026020010151600001516001600160a01b031687608001516001600160a01b031614611eb0576000612710848381518110611e3657634e487b7160e01b600052603260045260246000fd5b6020026020010151602001516001600160601b0316896101800151611e5b9190612ca8565b611e659190612c88565b9050611ea28860a0015188868581518110611e9057634e487b7160e01b600052603260045260246000fd5b60200260200101516000015184612245565b611eac8187612cc7565b9550505b80611eba81612d25565b915050611dc1565b5050505b8115611ee057611ee08460a0015184866080015185612245565b50505b60e0820151610160830151610100840151604051632142170760e11b81526001600160a01b03909316926342842e0e92611f21923092600401612aa7565b600060405180830381600087803b158015611f3b57600080fd5b505af1158015611f4f573d6000803e3d6000fd5b505050508161016001516001600160a01b0316857f1e7abafb1a786c4e6394b5c494f50a97e3802ff2ce462eca4fe6a2dd4e1f92e8846101800151604051611f9991815260200190565b60405180910390a35050505050565b60008181526001602052604081206103db9061236a565b600082815260208190526040902060010154611fda81612100565b610bc0838361212c565b611fee8282610fe8565b610c3f576000828152602081815260408083206001600160a01b03851684529091529020805460ff191660011790556120243390565b6001600160a01b0316816001600160a01b0316837f2f8788117e7eff1d82e926ec794901d17c78024a50270940304540a733656f0d60405160405180910390a45050565b6000610fe1836001600160a01b038416612374565b60006001600160e01b03198216637965db0b60e01b14806103db57506301ffc9a760e01b6001600160e01b03198316146103db565b6000804284106120c257836120c4565b425b9050600083156120d457836120d8565b6000195b9050808211156120ed576000925050506103db565b6120f78282612cc7565b95945050505050565b610c5681336123c3565b6121148282611fe4565b6000828152600160205260409020610bc09082612068565b6121368282612427565b6000828152600160205260409020610bc0908261248c565b60025460ff166121975760405162461bcd60e51b815260206004820152601460248201527314185d5cd8589b194e881b9bdd081c185d5cd95960621b604482015260640161041c565b6002805460ff191690557f5db9ee0a495bf2e6ff9c91a7834c1ba4fdd244a5e8aa4e537bd38aeae4b073aa335b6040516001600160a01b03909116815260200160405180910390a1565b60025460ff16156122045760405162461bcd60e51b815260040161041c90612ba6565b6002805460ff191660011790557f62e78cea01bee320cd4e420270b5ea74000d11b0c9f74754ebdbfc544b05a2586121c43390565b6000610fe183836124a1565b836001600160a01b0384163014156122df5760405163a9059cbb60e01b81526001600160a01b0384811660048301526024820184905282169063a9059cbb90604401602060405180830381600087803b1580156122a157600080fd5b505af11580156122b5573d6000803e3d6000fd5b505050506040513d601f19601f820116820180604052508101906122d991906128ec565b50612363565b6040516323b872dd60e01b81526001600160a01b038216906323b872dd9061230f90879087908790600401612aa7565b602060405180830381600087803b15801561232957600080fd5b505af115801561233d573d6000803e3d6000fd5b505050506040513d601f19601f8201168201806040525081019061236191906128ec565b505b5050505050565b60006103db825490565b60008181526001830160205260408120546123bb575081546001818101845560008481526020808220909301849055845484825282860190935260409020919091556103db565b5060006103db565b6123cd8282610fe8565b610c3f576123e5816001600160a01b031660146124d9565b6123f08360206124d9565b604051602001612401929190612a32565b60408051601f198184030181529082905262461bcd60e51b825261041c91600401612b73565b6124318282610fe8565b15610c3f576000828152602081815260408083206001600160a01b0385168085529252808320805460ff1916905551339285917ff6391f5c32d9c69d2a47ea670b442974b53935d1edc7fd64eb21e047a839171b9190a45050565b6000610fe1836001600160a01b0384166126bb565b60008260000182815481106124c657634e487b7160e01b600052603260045260246000fd5b9060005260206000200154905092915050565b606060006124e8836002612ca8565b6124f3906002612c70565b67ffffffffffffffff81111561251957634e487b7160e01b600052604160045260246000fd5b6040519080825280601f01601f191660200182016040528015612543576020820181803683370190505b509050600360fc1b8160008151811061256c57634e487b7160e01b600052603260045260246000fd5b60200101906001600160f81b031916908160001a905350600f60fb1b816001815181106125a957634e487b7160e01b600052603260045260246000fd5b60200101906001600160f81b031916908160001a90535060006125cd846002612ca8565b6125d8906001612c70565b90505b600181111561266c576f181899199a1a9b1b9c1cb0b131b232b360811b85600f166010811061261a57634e487b7160e01b600052603260045260246000fd5b1a60f81b82828151811061263e57634e487b7160e01b600052603260045260246000fd5b60200101906001600160f81b031916908160001a90535060049490941c9361266581612d0e565b90506125db565b508315610fe15760405162461bcd60e51b815260206004820181905260248201527f537472696e67733a20686578206c656e67746820696e73756666696369656e74604482015260640161041c565b600081815260018301602052604081205480156127ce5760006126df600183612cc7565b85549091506000906126f390600190612cc7565b905081811461277457600086600001828154811061272157634e487b7160e01b600052603260045260246000fd5b906000526020600020015490508087600001848154811061275257634e487b7160e01b600052603260045260246000fd5b6000918252602080832090910192909255918252600188019052604090208390555b855486908061279357634e487b7160e01b600052603160045260246000fd5b6001900381819060005260206000200160009055905585600101600086815260200190815260200160002060009055600193505050506103db565b60009150506103db565b600080604083850312156127ea578182fd5b82516127f581612d6c565b6020939093015192949293505050565b60006020808385031215612817578182fd5b825167ffffffffffffffff8082111561282e578384fd5b818501915085601f830112612841578384fd5b81518181111561285357612853612d56565b612861848260051b01612c3f565b8181528481019250838501600683901b85018601891015612880578687fd5b8694505b828510156128e057604080828b03121561289c578788fd5b6128a4612c16565b82516128af81612d6c565b8152828801516001600160601b03811681146128c957898afd5b818901528552600195909501949386019301612884565b50979650505050505050565b6000602082840312156128fd578081fd5b81518015158114610fe1578182fd5b60006020828403121561291d578081fd5b5035919050565b60008060408385031215612936578182fd5b82359150602083013561294881612d6c565b809150509250929050565b60008060408385031215612965578182fd5b50508035926020909101359150565b600060208284031215612985578081fd5b81356001600160e01b031981168114610fe1578182fd5b600080600080600080600060e0888a0312156129b6578283fd5b8735600281106129c4578384fd5b9650602088013595506040880135945060608801356129e281612d6c565b93506080880135925060a08801356129f981612d6c565b8092505060c0880135905092959891949750929550565b60028110612a2e57634e487b7160e01b600052602160045260246000fd5b9052565b7f416363657373436f6e74726f6c3a206163636f756e7420000000000000000000815260008351612a6a816017850160208801612cde565b7001034b99036b4b9b9b4b733903937b6329607d1b6017918401918201528351612a9b816028840160208801612cde565b01602801949350505050565b6001600160a01b039384168152919092166020820152604081019190915260600190565b6101408101612ada828d612a10565b9915156020820152604081019890985260608801969096526001600160a01b03948516608088015292841660a087015260c086019190915260e08501521661010083015261012090910152919050565b60e08101612b38828a612a10565b602082019790975260408101959095526001600160a01b039384166060860152608085019290925290911660a083015260c090910152919050565b6020815260008251806020840152612b92816040850160208701612cde565b601f01601f19169190910160400192915050565b60208082526010908201526f14185d5cd8589b194e881c185d5cd95960821b604082015260600190565b60208082526026908201527f4c656d6f6e6164654d61726b6574706c6163653a206f72646572206e6f6e65786040820152651a5cdd195b9d60d21b606082015260800190565b6040805190810167ffffffffffffffff81118282101715612c3957612c39612d56565b60405290565b604051601f8201601f1916810167ffffffffffffffff81118282101715612c6857612c68612d56565b604052919050565b60008219821115612c8357612c83612d40565b500190565b600082612ca357634e487b7160e01b81526012600452602481fd5b500490565b6000816000190483118215151615612cc257612cc2612d40565b500290565b600082821015612cd957612cd9612d40565b500390565b60005b83811015612cf9578181015183820152602001612ce1565b83811115612d08576000848401525b50505050565b600081612d1d57612d1d612d40565b506000190190565b6000600019821415612d3957612d39612d40565b5060010190565b634e487b7160e01b600052601160045260246000fd5b634e487b7160e01b600052604160045260246000fd5b6001600160a01b0381168114610c5657600080fdfe4c656d6f6e6164654d61726b6574706c6163653a206f72646572206d75737420a26469706673582212208d1d43c9e5d1faca0fc917f02c51f3a5e50430851ce424ae7c8c64f06b652e5064736f6c63430008040033",
  "devdoc": {
    "kind": "dev",
    "methods": {
      "getRoleAdmin(bytes32)": {
        "details": "Returns the admin role that controls `role`. See {grantRole} and {revokeRole}. To change a role's admin, use {_setRoleAdmin}."
      },
      "getRoleMember(bytes32,uint256)": {
        "details": "Returns one of the accounts that have `role`. `index` must be a value between 0 and {getRoleMemberCount}, non-inclusive. Role bearers are not sorted in any particular way, and their ordering may change at any point. WARNING: When using {getRoleMember} and {getRoleMemberCount}, make sure you perform all queries on the same block. See the following https://forum.openzeppelin.com/t/iterating-over-elements-on-enumerableset-in-openzeppelin-contracts/2296[forum post] for more information."
      },
      "getRoleMemberCount(bytes32)": {
        "details": "Returns the number of accounts that have `role`. Can be used together with {getRoleMember} to enumerate all bearers of a role."
      },
      "grantRole(bytes32,address)": {
        "details": "Grants `role` to `account`. If `account` had not been already granted `role`, emits a {RoleGranted} event. Requirements: - the caller must have ``role``'s admin role."
      },
      "hasRole(bytes32,address)": {
        "details": "Returns `true` if `account` has been granted `role`."
      },
      "paused()": {
        "details": "Returns true if the contract is paused, and false otherwise."
      },
      "renounceRole(bytes32,address)": {
        "details": "Revokes `role` from the calling account. Roles are often managed via {grantRole} and {revokeRole}: this function's purpose is to provide a mechanism for accounts to lose their privileges if they are compromised (such as when a trusted device is misplaced). If the calling account had been revoked `role`, emits a {RoleRevoked} event. Requirements: - the caller must be `account`."
      },
      "revokeRole(bytes32,address)": {
        "details": "Revokes `role` from `account`. If `account` had been granted `role`, emits a {RoleRevoked} event. Requirements: - the caller must have ``role``'s admin role."
      },
      "supportsInterface(bytes4)": {
        "details": "See {IERC165-supportsInterface}."
      }
    },
    "version": 1
  },
  "userdoc": {
    "kind": "user",
    "methods": {},
    "version": 1
  },
  "storageLayout": {
    "storage": [
      {
        "astId": 24,
        "contract": "contracts/LemonadeMarketplaceV1.sol:LemonadeMarketplaceV1",
        "label": "_roles",
        "offset": 0,
        "slot": "0",
        "type": "t_mapping(t_bytes32,t_struct(RoleData)19_storage)"
      },
      {
        "astId": 338,
        "contract": "contracts/LemonadeMarketplaceV1.sol:LemonadeMarketplaceV1",
        "label": "_roleMembers",
        "offset": 0,
        "slot": "1",
        "type": "t_mapping(t_bytes32,t_struct(AddressSet)3833_storage)"
      },
      {
        "astId": 665,
        "contract": "contracts/LemonadeMarketplaceV1.sol:LemonadeMarketplaceV1",
        "label": "_paused",
        "offset": 0,
        "slot": "2",
        "type": "t_bool"
      },
      {
        "astId": 7432,
        "contract": "contracts/LemonadeMarketplaceV1.sol:LemonadeMarketplaceV1",
        "label": "_orders",
        "offset": 0,
        "slot": "3",
        "type": "t_mapping(t_uint256,t_struct(Order)7427_storage)"
      },
      {
        "astId": 7435,
        "contract": "contracts/LemonadeMarketplaceV1.sol:LemonadeMarketplaceV1",
        "label": "_orderIdTracker",
        "offset": 0,
        "slot": "4",
        "type": "t_struct(Counter)3214_storage"
      }
    ],
    "types": {
      "t_address": {
        "encoding": "inplace",
        "label": "address",
        "numberOfBytes": "20"
      },
      "t_array(t_bytes32)dyn_storage": {
        "base": "t_bytes32",
        "encoding": "dynamic_array",
        "label": "bytes32[]",
        "numberOfBytes": "32"
      },
      "t_bool": {
        "encoding": "inplace",
        "label": "bool",
        "numberOfBytes": "1"
      },
      "t_bytes32": {
        "encoding": "inplace",
        "label": "bytes32",
        "numberOfBytes": "32"
      },
      "t_enum(OrderKind)7358": {
        "encoding": "inplace",
        "label": "enum LemonadeMarketplaceV1.OrderKind",
        "numberOfBytes": "1"
      },
      "t_mapping(t_address,t_bool)": {
        "encoding": "mapping",
        "key": "t_address",
        "label": "mapping(address => bool)",
        "numberOfBytes": "32",
        "value": "t_bool"
      },
      "t_mapping(t_bytes32,t_struct(AddressSet)3833_storage)": {
        "encoding": "mapping",
        "key": "t_bytes32",
        "label": "mapping(bytes32 => struct EnumerableSet.AddressSet)",
        "numberOfBytes": "32",
        "value": "t_struct(AddressSet)3833_storage"
      },
      "t_mapping(t_bytes32,t_struct(RoleData)19_storage)": {
        "encoding": "mapping",
        "key": "t_bytes32",
        "label": "mapping(bytes32 => struct AccessControl.RoleData)",
        "numberOfBytes": "32",
        "value": "t_struct(RoleData)19_storage"
      },
      "t_mapping(t_bytes32,t_uint256)": {
        "encoding": "mapping",
        "key": "t_bytes32",
        "label": "mapping(bytes32 => uint256)",
        "numberOfBytes": "32",
        "value": "t_uint256"
      },
      "t_mapping(t_uint256,t_struct(Order)7427_storage)": {
        "encoding": "mapping",
        "key": "t_uint256",
        "label": "mapping(uint256 => struct LemonadeMarketplaceV1.Order)",
        "numberOfBytes": "32",
        "value": "t_struct(Order)7427_storage"
      },
      "t_struct(AddressSet)3833_storage": {
        "encoding": "inplace",
        "label": "struct EnumerableSet.AddressSet",
        "members": [
          {
            "astId": 3832,
            "contract": "contracts/LemonadeMarketplaceV1.sol:LemonadeMarketplaceV1",
            "label": "_inner",
            "offset": 0,
            "slot": "0",
            "type": "t_struct(Set)3532_storage"
          }
        ],
        "numberOfBytes": "64"
      },
      "t_struct(Counter)3214_storage": {
        "encoding": "inplace",
        "label": "struct Counters.Counter",
        "members": [
          {
            "astId": 3213,
            "contract": "contracts/LemonadeMarketplaceV1.sol:LemonadeMarketplaceV1",
            "label": "_value",
            "offset": 0,
            "slot": "0",
            "type": "t_uint256"
          }
        ],
        "numberOfBytes": "32"
      },
      "t_struct(Order)7427_storage": {
        "encoding": "inplace",
        "label": "struct LemonadeMarketplaceV1.Order",
        "members": [
          {
            "astId": 7402,
            "contract": "contracts/LemonadeMarketplaceV1.sol:LemonadeMarketplaceV1",
            "label": "kind",
            "offset": 0,
            "slot": "0",
            "type": "t_enum(OrderKind)7358"
          },
          {
            "astId": 7404,
            "contract": "contracts/LemonadeMarketplaceV1.sol:LemonadeMarketplaceV1",
            "label": "open",
            "offset": 1,
            "slot": "0",
            "type": "t_bool"
          },
          {
            "astId": 7406,
            "contract": "contracts/LemonadeMarketplaceV1.sol:LemonadeMarketplaceV1",
            "label": "openFrom",
            "offset": 0,
            "slot": "1",
            "type": "t_uint256"
          },
          {
            "astId": 7408,
            "contract": "contracts/LemonadeMarketplaceV1.sol:LemonadeMarketplaceV1",
            "label": "openTo",
            "offset": 0,
            "slot": "2",
            "type": "t_uint256"
          },
          {
            "astId": 7410,
            "contract": "contracts/LemonadeMarketplaceV1.sol:LemonadeMarketplaceV1",
            "label": "maker",
            "offset": 0,
            "slot": "3",
            "type": "t_address"
          },
          {
            "astId": 7412,
            "contract": "contracts/LemonadeMarketplaceV1.sol:LemonadeMarketplaceV1",
            "label": "currency",
            "offset": 0,
            "slot": "4",
            "type": "t_address"
          },
          {
            "astId": 7414,
            "contract": "contracts/LemonadeMarketplaceV1.sol:LemonadeMarketplaceV1",
            "label": "price",
            "offset": 0,
            "slot": "5",
            "type": "t_uint256"
          },
          {
            "astId": 7416,
            "contract": "contracts/LemonadeMarketplaceV1.sol:LemonadeMarketplaceV1",
            "label": "tokenContract",
            "offset": 0,
            "slot": "6",
            "type": "t_address"
          },
          {
            "astId": 7418,
            "contract": "contracts/LemonadeMarketplaceV1.sol:LemonadeMarketplaceV1",
            "label": "tokenId",
            "offset": 0,
            "slot": "7",
            "type": "t_uint256"
          },
          {
            "astId": 7420,
            "contract": "contracts/LemonadeMarketplaceV1.sol:LemonadeMarketplaceV1",
            "label": "bidder",
            "offset": 0,
            "slot": "8",
            "type": "t_address"
          },
          {
            "astId": 7422,
            "contract": "contracts/LemonadeMarketplaceV1.sol:LemonadeMarketplaceV1",
            "label": "bidAmount",
            "offset": 0,
            "slot": "9",
            "type": "t_uint256"
          },
          {
            "astId": 7424,
            "contract": "contracts/LemonadeMarketplaceV1.sol:LemonadeMarketplaceV1",
            "label": "taker",
            "offset": 0,
            "slot": "10",
            "type": "t_address"
          },
          {
            "astId": 7426,
            "contract": "contracts/LemonadeMarketplaceV1.sol:LemonadeMarketplaceV1",
            "label": "paidAmount",
            "offset": 0,
            "slot": "11",
            "type": "t_uint256"
          }
        ],
        "numberOfBytes": "384"
      },
      "t_struct(RoleData)19_storage": {
        "encoding": "inplace",
        "label": "struct AccessControl.RoleData",
        "members": [
          {
            "astId": 16,
            "contract": "contracts/LemonadeMarketplaceV1.sol:LemonadeMarketplaceV1",
            "label": "members",
            "offset": 0,
            "slot": "0",
            "type": "t_mapping(t_address,t_bool)"
          },
          {
            "astId": 18,
            "contract": "contracts/LemonadeMarketplaceV1.sol:LemonadeMarketplaceV1",
            "label": "adminRole",
            "offset": 0,
            "slot": "1",
            "type": "t_bytes32"
          }
        ],
        "numberOfBytes": "64"
      },
      "t_struct(Set)3532_storage": {
        "encoding": "inplace",
        "label": "struct EnumerableSet.Set",
        "members": [
          {
            "astId": 3527,
            "contract": "contracts/LemonadeMarketplaceV1.sol:LemonadeMarketplaceV1",
            "label": "_values",
            "offset": 0,
            "slot": "0",
            "type": "t_array(t_bytes32)dyn_storage"
          },
          {
            "astId": 3531,
            "contract": "contracts/LemonadeMarketplaceV1.sol:LemonadeMarketplaceV1",
            "label": "_indexes",
            "offset": 0,
            "slot": "1",
            "type": "t_mapping(t_bytes32,t_uint256)"
          }
        ],
        "numberOfBytes": "64"
      },
      "t_uint256": {
        "encoding": "inplace",
        "label": "uint256",
        "numberOfBytes": "32"
      }
    }
  }
}