{
  "address": "0x069751D80a3b3B3948d4c511F7498C8BceD8a92e",
  "abi": [
    {
      "inputs": [
        {
          "internalType": "string",
          "name": "name",
          "type": "string"
        },
        {
          "internalType": "string",
          "name": "symbol",
          "type": "string"
        },
        {
          "internalType": "address",
          "name": "childChainManager",
          "type": "address"
        }
      ],
      "stateMutability": "nonpayable",
      "type": "constructor"
    },
    {
      "anonymous": false,
      "inputs": [
        {
          "indexed": true,
          "internalType": "address",
          "name": "owner",
          "type": "address"
        },
        {
          "indexed": true,
          "internalType": "address",
          "name": "approved",
          "type": "address"
        },
        {
          "indexed": true,
          "internalType": "uint256",
          "name": "tokenId",
          "type": "uint256"
        }
      ],
      "name": "Approval",
      "type": "event"
    },
    {
      "anonymous": false,
      "inputs": [
        {
          "indexed": true,
          "internalType": "address",
          "name": "owner",
          "type": "address"
        },
        {
          "indexed": true,
          "internalType": "address",
          "name": "operator",
          "type": "address"
        },
        {
          "indexed": false,
          "internalType": "bool",
          "name": "approved",
          "type": "bool"
        }
      ],
      "name": "ApprovalForAll",
      "type": "event"
    },
    {
      "anonymous": false,
      "inputs": [
        {
          "indexed": false,
          "internalType": "address",
          "name": "account",
          "type": "address"
        }
      ],
      "name": "Paused",
      "type": "event"
    },
    {
      "anonymous": false,
      "inputs": [
        {
          "indexed": true,
          "internalType": "bytes32",
          "name": "role",
          "type": "bytes32"
        },
        {
          "indexed": true,
          "internalType": "bytes32",
          "name": "previousAdminRole",
          "type": "bytes32"
        },
        {
          "indexed": true,
          "internalType": "bytes32",
          "name": "newAdminRole",
          "type": "bytes32"
        }
      ],
      "name": "RoleAdminChanged",
      "type": "event"
    },
    {
      "anonymous": false,
      "inputs": [
        {
          "indexed": true,
          "internalType": "bytes32",
          "name": "role",
          "type": "bytes32"
        },
        {
          "indexed": true,
          "internalType": "address",
          "name": "account",
          "type": "address"
        },
        {
          "indexed": true,
          "internalType": "address",
          "name": "sender",
          "type": "address"
        }
      ],
      "name": "RoleGranted",
      "type": "event"
    },
    {
      "anonymous": false,
      "inputs": [
        {
          "indexed": true,
          "internalType": "bytes32",
          "name": "role",
          "type": "bytes32"
        },
        {
          "indexed": true,
          "internalType": "address",
          "name": "account",
          "type": "address"
        },
        {
          "indexed": true,
          "internalType": "address",
          "name": "sender",
          "type": "address"
        }
      ],
      "name": "RoleRevoked",
      "type": "event"
    },
    {
      "anonymous": false,
      "inputs": [
        {
          "indexed": false,
          "internalType": "uint256",
          "name": "tokenId",
          "type": "uint256"
        },
        {
          "components": [
            {
              "internalType": "address payable",
              "name": "account",
              "type": "address"
            },
            {
              "internalType": "uint96",
              "name": "value",
              "type": "uint96"
            }
          ],
          "indexed": false,
          "internalType": "struct LibPart.Part[]",
          "name": "royalties",
          "type": "tuple[]"
        }
      ],
      "name": "RoyaltiesSet",
      "type": "event"
    },
    {
      "anonymous": false,
      "inputs": [
        {
          "indexed": true,
          "internalType": "address",
          "name": "from",
          "type": "address"
        },
        {
          "indexed": true,
          "internalType": "address",
          "name": "to",
          "type": "address"
        },
        {
          "indexed": true,
          "internalType": "uint256",
          "name": "tokenId",
          "type": "uint256"
        }
      ],
      "name": "Transfer",
      "type": "event"
    },
    {
      "anonymous": false,
      "inputs": [
        {
          "indexed": true,
          "internalType": "address",
          "name": "from",
          "type": "address"
        },
        {
          "indexed": true,
          "internalType": "address",
          "name": "to",
          "type": "address"
        },
        {
          "indexed": true,
          "internalType": "uint256",
          "name": "tokenId",
          "type": "uint256"
        },
        {
          "indexed": false,
          "internalType": "bytes",
          "name": "metaData",
          "type": "bytes"
        }
      ],
      "name": "TransferWithMetadata",
      "type": "event"
    },
    {
      "anonymous": false,
      "inputs": [
        {
          "indexed": false,
          "internalType": "address",
          "name": "account",
          "type": "address"
        }
      ],
      "name": "Unpaused",
      "type": "event"
    },
    {
      "anonymous": false,
      "inputs": [
        {
          "indexed": true,
          "internalType": "address",
          "name": "user",
          "type": "address"
        },
        {
          "indexed": false,
          "internalType": "uint256[]",
          "name": "tokenIds",
          "type": "uint256[]"
        }
      ],
      "name": "WithdrawnBatch",
      "type": "event"
    },
    {
      "inputs": [],
      "name": "DEFAULT_ADMIN_ROLE",
      "outputs": [
        {
          "internalType": "bytes32",
          "name": "",
          "type": "bytes32"
        }
      ],
      "stateMutability": "view",
      "type": "function"
    },
    {
      "inputs": [],
      "name": "DEPOSITOR_ROLE",
      "outputs": [
        {
          "internalType": "bytes32",
          "name": "",
          "type": "bytes32"
        }
      ],
      "stateMutability": "view",
      "type": "function"
    },
    {
      "inputs": [],
      "name": "PAUSER_ROLE",
      "outputs": [
        {
          "internalType": "bytes32",
          "name": "",
          "type": "bytes32"
        }
      ],
      "stateMutability": "view",
      "type": "function"
    },
    {
      "inputs": [],
      "name": "WITHDRAW_BATCH_LIMIT",
      "outputs": [
        {
          "internalType": "uint256",
          "name": "",
          "type": "uint256"
        }
      ],
      "stateMutability": "view",
      "type": "function"
    },
    {
      "inputs": [
        {
          "internalType": "uint256",
          "name": "",
          "type": "uint256"
        }
      ],
      "name": "_tokenWithdrawn",
      "outputs": [
        {
          "internalType": "bool",
          "name": "",
          "type": "bool"
        }
      ],
      "stateMutability": "view",
      "type": "function"
    },
    {
      "inputs": [
        {
          "internalType": "address",
          "name": "to",
          "type": "address"
        },
        {
          "internalType": "uint256",
          "name": "tokenId",
          "type": "uint256"
        }
      ],
      "name": "approve",
      "outputs": [],
      "stateMutability": "nonpayable",
      "type": "function"
    },
    {
      "inputs": [
        {
          "internalType": "address",
          "name": "owner",
          "type": "address"
        }
      ],
      "name": "balanceOf",
      "outputs": [
        {
          "internalType": "uint256",
          "name": "",
          "type": "uint256"
        }
      ],
      "stateMutability": "view",
      "type": "function"
    },
    {
      "inputs": [
        {
          "internalType": "uint256",
          "name": "tokenId",
          "type": "uint256"
        }
      ],
      "name": "burn",
      "outputs": [],
      "stateMutability": "nonpayable",
      "type": "function"
    },
    {
      "inputs": [
        {
          "internalType": "address",
          "name": "user",
          "type": "address"
        },
        {
          "internalType": "bytes",
          "name": "depositData",
          "type": "bytes"
        }
      ],
      "name": "deposit",
      "outputs": [],
      "stateMutability": "nonpayable",
      "type": "function"
    },
    {
      "inputs": [
        {
          "internalType": "uint256",
          "name": "tokenId",
          "type": "uint256"
        }
      ],
      "name": "encodeState",
      "outputs": [
        {
          "internalType": "bytes",
          "name": "",
          "type": "bytes"
        }
      ],
      "stateMutability": "view",
      "type": "function"
    },
    {
      "inputs": [
        {
          "internalType": "uint256",
          "name": "tokenId",
          "type": "uint256"
        }
      ],
      "name": "getApproved",
      "outputs": [
        {
          "internalType": "address",
          "name": "",
          "type": "address"
        }
      ],
      "stateMutability": "view",
      "type": "function"
    },
    {
      "inputs": [
        {
          "internalType": "uint256",
          "name": "id",
          "type": "uint256"
        }
      ],
      "name": "getRaribleV2Royalties",
      "outputs": [
        {
          "components": [
            {
              "internalType": "address payable",
              "name": "account",
              "type": "address"
            },
            {
              "internalType": "uint96",
              "name": "value",
              "type": "uint96"
            }
          ],
          "internalType": "struct LibPart.Part[]",
          "name": "",
          "type": "tuple[]"
        }
      ],
      "stateMutability": "view",
      "type": "function"
    },
    {
      "inputs": [
        {
          "internalType": "bytes32",
          "name": "role",
          "type": "bytes32"
        }
      ],
      "name": "getRoleAdmin",
      "outputs": [
        {
          "internalType": "bytes32",
          "name": "",
          "type": "bytes32"
        }
      ],
      "stateMutability": "view",
      "type": "function"
    },
    {
      "inputs": [
        {
          "internalType": "bytes32",
          "name": "role",
          "type": "bytes32"
        },
        {
          "internalType": "uint256",
          "name": "index",
          "type": "uint256"
        }
      ],
      "name": "getRoleMember",
      "outputs": [
        {
          "internalType": "address",
          "name": "",
          "type": "address"
        }
      ],
      "stateMutability": "view",
      "type": "function"
    },
    {
      "inputs": [
        {
          "internalType": "bytes32",
          "name": "role",
          "type": "bytes32"
        }
      ],
      "name": "getRoleMemberCount",
      "outputs": [
        {
          "internalType": "uint256",
          "name": "",
          "type": "uint256"
        }
      ],
      "stateMutability": "view",
      "type": "function"
    },
    {
      "inputs": [
        {
          "internalType": "bytes32",
          "name": "role",
          "type": "bytes32"
        },
        {
          "internalType": "address",
          "name": "account",
          "type": "address"
        }
      ],
      "name": "grantRole",
      "outputs": [],
      "stateMutability": "nonpayable",
      "type": "function"
    },
    {
      "inputs": [
        {
          "internalType": "bytes32",
          "name": "role",
          "type": "bytes32"
        },
        {
          "internalType": "address",
          "name": "account",
          "type": "address"
        }
      ],
      "name": "hasRole",
      "outputs": [
        {
          "internalType": "bool",
          "name": "",
          "type": "bool"
        }
      ],
      "stateMutability": "view",
      "type": "function"
    },
    {
      "inputs": [
        {
          "internalType": "address",
          "name": "owner",
          "type": "address"
        },
        {
          "internalType": "address",
          "name": "operator",
          "type": "address"
        }
      ],
      "name": "isApprovedForAll",
      "outputs": [
        {
          "internalType": "bool",
          "name": "",
          "type": "bool"
        }
      ],
      "stateMutability": "view",
      "type": "function"
    },
    {
      "inputs": [
        {
          "internalType": "string",
          "name": "tokenURI_",
          "type": "string"
        }
      ],
      "name": "mintToCaller",
      "outputs": [
        {
          "internalType": "uint256",
          "name": "",
          "type": "uint256"
        }
      ],
      "stateMutability": "nonpayable",
      "type": "function"
    },
    {
      "inputs": [
        {
          "internalType": "string",
          "name": "tokenURI_",
          "type": "string"
        },
        {
          "components": [
            {
              "internalType": "address payable",
              "name": "account",
              "type": "address"
            },
            {
              "internalType": "uint96",
              "name": "value",
              "type": "uint96"
            }
          ],
          "internalType": "struct LibPart.Part[]",
          "name": "royalties_",
          "type": "tuple[]"
        }
      ],
      "name": "mintToCallerWithRoyalty",
      "outputs": [
        {
          "internalType": "uint256",
          "name": "",
          "type": "uint256"
        }
      ],
      "stateMutability": "nonpayable",
      "type": "function"
    },
    {
      "inputs": [],
      "name": "name",
      "outputs": [
        {
          "internalType": "string",
          "name": "",
          "type": "string"
        }
      ],
      "stateMutability": "view",
      "type": "function"
    },
    {
      "inputs": [
        {
          "internalType": "uint256",
          "name": "tokenId",
          "type": "uint256"
        }
      ],
      "name": "ownerOf",
      "outputs": [
        {
          "internalType": "address",
          "name": "",
          "type": "address"
        }
      ],
      "stateMutability": "view",
      "type": "function"
    },
    {
      "inputs": [],
      "name": "pause",
      "outputs": [],
      "stateMutability": "nonpayable",
      "type": "function"
    },
    {
      "inputs": [],
      "name": "paused",
      "outputs": [
        {
          "internalType": "bool",
          "name": "",
          "type": "bool"
        }
      ],
      "stateMutability": "view",
      "type": "function"
    },
    {
      "inputs": [
        {
          "internalType": "bytes32",
          "name": "role",
          "type": "bytes32"
        },
        {
          "internalType": "address",
          "name": "account",
          "type": "address"
        }
      ],
      "name": "renounceRole",
      "outputs": [],
      "stateMutability": "nonpayable",
      "type": "function"
    },
    {
      "inputs": [
        {
          "internalType": "bytes32",
          "name": "role",
          "type": "bytes32"
        },
        {
          "internalType": "address",
          "name": "account",
          "type": "address"
        }
      ],
      "name": "revokeRole",
      "outputs": [],
      "stateMutability": "nonpayable",
      "type": "function"
    },
    {
      "inputs": [
        {
          "internalType": "uint256",
          "name": "tokenId",
          "type": "uint256"
        },
        {
          "internalType": "uint256",
          "name": "price",
          "type": "uint256"
        }
      ],
      "name": "royaltyInfo",
      "outputs": [
        {
          "internalType": "address",
          "name": "receiver",
          "type": "address"
        },
        {
          "internalType": "uint256",
          "name": "royaltyAmount",
          "type": "uint256"
        }
      ],
      "stateMutability": "view",
      "type": "function"
    },
    {
      "inputs": [
        {
          "internalType": "address",
          "name": "from",
          "type": "address"
        },
        {
          "internalType": "address",
          "name": "to",
          "type": "address"
        },
        {
          "internalType": "uint256",
          "name": "tokenId",
          "type": "uint256"
        }
      ],
      "name": "safeTransferFrom",
      "outputs": [],
      "stateMutability": "nonpayable",
      "type": "function"
    },
    {
      "inputs": [
        {
          "internalType": "address",
          "name": "from",
          "type": "address"
        },
        {
          "internalType": "address",
          "name": "to",
          "type": "address"
        },
        {
          "internalType": "uint256",
          "name": "tokenId",
          "type": "uint256"
        },
        {
          "internalType": "bytes",
          "name": "_data",
          "type": "bytes"
        }
      ],
      "name": "safeTransferFrom",
      "outputs": [],
      "stateMutability": "nonpayable",
      "type": "function"
    },
    {
      "inputs": [
        {
          "internalType": "address",
          "name": "operator",
          "type": "address"
        },
        {
          "internalType": "bool",
          "name": "approved",
          "type": "bool"
        }
      ],
      "name": "setApprovalForAll",
      "outputs": [],
      "stateMutability": "nonpayable",
      "type": "function"
    },
    {
      "inputs": [
        {
          "internalType": "bytes4",
          "name": "interfaceId",
          "type": "bytes4"
        }
      ],
      "name": "supportsInterface",
      "outputs": [
        {
          "internalType": "bool",
          "name": "",
          "type": "bool"
        }
      ],
      "stateMutability": "view",
      "type": "function"
    },
    {
      "inputs": [],
      "name": "symbol",
      "outputs": [
        {
          "internalType": "string",
          "name": "",
          "type": "string"
        }
      ],
      "stateMutability": "view",
      "type": "function"
    },
    {
      "inputs": [
        {
          "internalType": "uint256",
          "name": "tokenId",
          "type": "uint256"
        }
      ],
      "name": "tokenURI",
      "outputs": [
        {
          "internalType": "string",
          "name": "",
          "type": "string"
        }
      ],
      "stateMutability": "view",
      "type": "function"
    },
    {
      "inputs": [
        {
          "internalType": "address",
          "name": "from",
          "type": "address"
        },
        {
          "internalType": "address",
          "name": "to",
          "type": "address"
        },
        {
          "internalType": "uint256",
          "name": "tokenId",
          "type": "uint256"
        }
      ],
      "name": "transferFrom",
      "outputs": [],
      "stateMutability": "nonpayable",
      "type": "function"
    },
    {
      "inputs": [],
      "name": "unpause",
      "outputs": [],
      "stateMutability": "nonpayable",
      "type": "function"
    },
    {
      "inputs": [
        {
          "internalType": "uint256",
          "name": "tokenId",
          "type": "uint256"
        }
      ],
      "name": "withdraw",
      "outputs": [],
      "stateMutability": "nonpayable",
      "type": "function"
    },
    {
      "inputs": [
        {
          "internalType": "uint256[]",
          "name": "tokenIds",
          "type": "uint256[]"
        }
      ],
      "name": "withdrawBatch",
      "outputs": [],
      "stateMutability": "nonpayable",
      "type": "function"
    },
    {
      "inputs": [
        {
          "internalType": "uint256",
          "name": "tokenId",
          "type": "uint256"
        }
      ],
      "name": "withdrawWithMetadata",
      "outputs": [],
      "stateMutability": "nonpayable",
      "type": "function"
    }
  ],
  "transactionHash": "0x71c5827c4f9693bde1861f02bed178d0d4cb0061ada207f0cdd26aa0a7684411",
  "args": [
    "Non-Fungible Lemon",
    "NFL",
    "0xA6FA4fB5f76172d178d61B04b0ecd319C5d1C0aa"
  ],
  "solcInputHash": "9493b670c8abf92caf56d659a2dfc740",
  "bytecode": "0x60806040523480156200001157600080fd5b506040516200600a3803806200600a8339818101604052810190620000379190620004f7565b8282816002908051906020019062000051929190620003be565b5080600390805190602001906200006a929190620003be565b5050506000600860006101000a81548160ff021916908315150217905550620000ac6000801b620000a06200012860201b60201c565b6200013060201b60201c565b620000de7f8f4f2da22e8ac8f11e15f9fc141cddbb5deea8800186560abb6e68c5496619a9826200013060201b60201c565b6200011f7f65d7a28e3265b37a6474929f336521b332c1681b933f6cb9f3376673440d862a620001136200012860201b60201c565b6200013060201b60201c565b5050506200073d565b600033905090565b6200014782826200017860201b62001b5e1760201c565b6200017381600160008581526020019081526020016000206200018e60201b62001b6c1790919060201c565b505050565b6200018a8282620001c660201b60201c565b5050565b6000620001be836000018373ffffffffffffffffffffffffffffffffffffffff1660001b620002b760201b60201c565b905092915050565b620001d882826200033160201b60201c565b620002b357600160008084815260200190815260200160002060000160008373ffffffffffffffffffffffffffffffffffffffff1673ffffffffffffffffffffffffffffffffffffffff16815260200190815260200160002060006101000a81548160ff021916908315150217905550620002586200012860201b60201c565b73ffffffffffffffffffffffffffffffffffffffff168173ffffffffffffffffffffffffffffffffffffffff16837f2f8788117e7eff1d82e926ec794901d17c78024a50270940304540a733656f0d60405160405180910390a45b5050565b6000620002cb83836200039b60201b60201c565b620003265782600001829080600181540180825580915050600190039060005260206000200160009091909190915055826000018054905083600101600084815260200190815260200160002081905550600190506200032b565b600090505b92915050565b600080600084815260200190815260200160002060000160008373ffffffffffffffffffffffffffffffffffffffff1673ffffffffffffffffffffffffffffffffffffffff16815260200190815260200160002060009054906101000a900460ff16905092915050565b600080836001016000848152602001908152602001600020541415905092915050565b828054620003cc9062000648565b90600052602060002090601f016020900481019282620003f057600085556200043c565b82601f106200040b57805160ff19168380011785556200043c565b828001600101855582156200043c579182015b828111156200043b5782518255916020019190600101906200041e565b5b5090506200044b91906200044f565b5090565b5b808211156200046a57600081600090555060010162000450565b5090565b6000620004856200047f84620005a8565b6200057f565b9050828152602081018484840111156200049e57600080fd5b620004ab84828562000612565b509392505050565b600081519050620004c48162000723565b92915050565b600082601f830112620004dc57600080fd5b8151620004ee8482602086016200046e565b91505092915050565b6000806000606084860312156200050d57600080fd5b600084015167ffffffffffffffff8111156200052857600080fd5b6200053686828701620004ca565b935050602084015167ffffffffffffffff8111156200055457600080fd5b6200056286828701620004ca565b92505060406200057586828701620004b3565b9150509250925092565b60006200058b6200059e565b90506200059982826200067e565b919050565b6000604051905090565b600067ffffffffffffffff821115620005c657620005c5620006e3565b5b620005d18262000712565b9050602081019050919050565b6000620005eb82620005f2565b9050919050565b600073ffffffffffffffffffffffffffffffffffffffff82169050919050565b60005b838110156200063257808201518184015260208101905062000615565b8381111562000642576000848401525b50505050565b600060028204905060018216806200066157607f821691505b60208210811415620006785762000677620006b4565b5b50919050565b620006898262000712565b810181811067ffffffffffffffff82111715620006ab57620006aa620006e3565b5b80604052505050565b7f4e487b7100000000000000000000000000000000000000000000000000000000600052602260045260246000fd5b7f4e487b7100000000000000000000000000000000000000000000000000000000600052604160045260246000fd5b6000601f19601f8301169050919050565b6200072e81620005de565b81146200073a57600080fd5b50565b6158bd806200074d6000396000f3fe608060405234801561001057600080fd5b50600436106102325760003560e01c80637624f30d11610130578063a5e584dc116100b8578063cf2c52cb1161007c578063cf2c52cb146106d4578063d547741f146106f0578063db65b45f1461070c578063e63ab1e91461073c578063e985e9c51461075a57610232565b8063a5e584dc1461060c578063b88d4fde14610628578063c87b56dd14610644578063ca15c87314610674578063cad96cca146106a457610232565b806395d89b41116100ff57806395d89b411461057a5780639c8d415614610598578063a217fddf146105b4578063a22cb465146105d2578063a3b0b5a3146105ee57610232565b80637624f30d146104e05780638456cb59146105105780639010d07c1461051a57806391d148541461054a57610232565b80632f2ff15d116101be5780634eff851d116101825780634eff851d1461041457806358b4c6bb146104325780635c975abb146104625780636352211e1461048057806370a08231146104b057610232565b80632f2ff15d1461039a57806336568abe146103b65780633f4ba83a146103d257806342842e0e146103dc57806342966c68146103f857610232565b8063111fb47b11610205578063111fb47b146102d157806323b872dd14610301578063248a9ca31461031d5780632a55205a1461034d5780632e1a7d4d1461037e57610232565b806301ffc9a71461023757806306fdde0314610267578063081812fc14610285578063095ea7b3146102b5575b600080fd5b610251600480360381019061024c9190613df4565b61078a565b60405161025e9190614746565b60405180910390f35b61026f61079c565b60405161027c919061479e565b60405180910390f35b61029f600480360381019061029a9190613f34565b61082e565b6040516102ac9190614670565b60405180910390f35b6102cf60048036038101906102ca9190613c91565b6108b3565b005b6102eb60048036038101906102e69190613e87565b6109cb565b6040516102f89190614af7565b60405180910390f35b61031b60048036038101906103169190613b33565b610a6f565b005b61033760048036038101906103329190613d53565b610acf565b6040516103449190614761565b60405180910390f35b61036760048036038101906103629190613f5d565b610aee565b6040516103759291906146d7565b60405180910390f35b61039860048036038101906103939190613f34565b610cf9565b005b6103b460048036038101906103af9190613d7c565b610d05565b005b6103d060048036038101906103cb9190613d7c565b610d39565b005b6103da610d6d565b005b6103f660048036038101906103f19190613b33565b610daa565b005b610412600480360381019061040d9190613f34565b610dca565b005b61041c610e26565b6040516104299190614af7565b60405180910390f35b61044c60048036038101906104479190613ec8565b610e2b565b6040516104599190614af7565b60405180910390f35b61046a610e96565b6040516104779190614746565b60405180910390f35b61049a60048036038101906104959190613f34565b610ead565b6040516104a79190614670565b60405180910390f35b6104ca60048036038101906104c59190613ace565b610f5f565b6040516104d79190614af7565b60405180910390f35b6104fa60048036038101906104f59190613f34565b611017565b6040516105079190614746565b60405180910390f35b610518611037565b005b610534600480360381019061052f9190613db8565b611074565b6040516105419190614670565b60405180910390f35b610564600480360381019061055f9190613d7c565b6110a3565b6040516105719190614746565b60405180910390f35b61058261110d565b60405161058f919061479e565b60405180910390f35b6105b260048036038101906105ad9190613ccd565b61119f565b005b6105bc6112b4565b6040516105c99190614761565b60405180910390f35b6105ec60048036038101906105e79190613bfd565b6112bb565b005b6105f661143c565b6040516106039190614761565b60405180910390f35b61062660048036038101906106219190613f34565b611460565b005b610642600480360381019061063d9190613b82565b611634565b005b61065e60048036038101906106599190613f34565b611696565b60405161066b919061479e565b60405180910390f35b61068e60048036038101906106899190613d53565b611783565b60405161069b9190614af7565b60405180910390f35b6106be60048036038101906106b99190613f34565b6117a7565b6040516106cb9190614700565b60405180910390f35b6106ee60048036038101906106e99190613c39565b6118a9565b005b61070a60048036038101906107059190613d7c565b611a2d565b005b61072660048036038101906107219190613f34565b611a61565b604051610733919061477c565b60405180910390f35b610744611aa6565b6040516107519190614761565b60405180910390f35b610774600480360381019061076f9190613af7565b611aca565b6040516107819190614746565b60405180910390f35b600061079582611b9c565b9050919050565b6060600280546107ab90614f3c565b80601f01602080910402602001604051908101604052809291908181526020018280546107d790614f3c565b80156108245780601f106107f957610100808354040283529160200191610824565b820191906000526020600020905b81548152906001019060200180831161080757829003601f168201915b5050505050905090565b600061083982611c7e565b610878576040517f08c379a000000000000000000000000000000000000000000000000000000000815260040161086f906149f7565b60405180910390fd5b6006600083815260200190815260200160002060009054906101000a900473ffffffffffffffffffffffffffffffffffffffff169050919050565b60006108be82610ead565b90508073ffffffffffffffffffffffffffffffffffffffff168373ffffffffffffffffffffffffffffffffffffffff16141561092f576040517f08c379a000000000000000000000000000000000000000000000000000000000815260040161092690614a37565b60405180910390fd5b8073ffffffffffffffffffffffffffffffffffffffff1661094e611cea565b73ffffffffffffffffffffffffffffffffffffffff16148061097d575061097c81610977611cea565b611aca565b5b6109bc576040517f08c379a00000000000000000000000000000000000000000000000000000000081526004016109b390614977565b60405180910390fd5b6109c68383611cf2565b505050565b60006109d5610e96565b15610a15576040517f08c379a0000000000000000000000000000000000000000000000000000000008152600401610a0c90614957565b60405180910390fd5b6000610a21600a611dab565b9050610a34610a2e611cea565b82611db9565b82600c60008381526020019081526020016000209080519060200190610a5b92919061363f565b50610a66600a611f87565b80915050919050565b610a80610a7a611cea565b82611f9d565b610abf576040517f08c379a0000000000000000000000000000000000000000000000000000000008152600401610ab690614a57565b60405180910390fd5b610aca83838361207b565b505050565b6000806000838152602001908152602001600020600101549050919050565b600080600060096000868152602001908152602001600020805480602002602001604051908101604052809291908181526020016000905b82821015610be8578382906000526020600020016040518060400160405290816000820160009054906101000a900473ffffffffffffffffffffffffffffffffffffffff1673ffffffffffffffffffffffffffffffffffffffff1673ffffffffffffffffffffffffffffffffffffffff1681526020016000820160149054906101000a90046bffffffffffffffffffffffff166bffffffffffffffffffffffff166bffffffffffffffffffffffff168152505081526020019060010190610b26565b5050505090506000815190506000811415610c0b57600080935093505050610cf2565b6000805b82811015610c8a57838181518110610c50577f4e487b7100000000000000000000000000000000000000000000000000000000600052603260045260246000fd5b6020026020010151602001516bffffffffffffffffffffffff1682610c759190614cdb565b91508080610c8290614fd3565b915050610c0f565b5082600081518110610cc5577f4e487b7100000000000000000000000000000000000000000000000000000000600052603260045260246000fd5b6020026020010151600001516127108288610ce09190614d62565b610cea9190614d31565b945094505050505b9250929050565b610d0281611460565b50565b610d0f82826122d7565b610d348160016000858152602001908152602001600020611b6c90919063ffffffff16565b505050565b610d438282612300565b610d68816001600085815260200190815260200160002061238390919063ffffffff16565b505050565b7f65d7a28e3265b37a6474929f336521b332c1681b933f6cb9f3376673440d862a610d9f81610d9a611cea565b6123b3565b610da7612450565b50565b610dc583838360405180602001604052806000815250611634565b505050565b610ddb610dd5611cea565b82611f9d565b610e1a576040517f08c379a0000000000000000000000000000000000000000000000000000000008152600401610e1190614ab7565b60405180910390fd5b610e23816124f2565b50565b601481565b6000610e35610e96565b15610e75576040517f08c379a0000000000000000000000000000000000000000000000000000000008152600401610e6c90614957565b60405180910390fd5b6000610e80846109cb565b9050610e8c8184612603565b8091505092915050565b6000600860009054906101000a900460ff16905090565b6000806004600084815260200190815260200160002060009054906101000a900473ffffffffffffffffffffffffffffffffffffffff169050600073ffffffffffffffffffffffffffffffffffffffff168173ffffffffffffffffffffffffffffffffffffffff161415610f56576040517f08c379a0000000000000000000000000000000000000000000000000000000008152600401610f4d906149b7565b60405180910390fd5b80915050919050565b60008073ffffffffffffffffffffffffffffffffffffffff168273ffffffffffffffffffffffffffffffffffffffff161415610fd0576040517f08c379a0000000000000000000000000000000000000000000000000000000008152600401610fc790614997565b60405180910390fd5b600560008373ffffffffffffffffffffffffffffffffffffffff1673ffffffffffffffffffffffffffffffffffffffff168152602001908152602001600020549050919050565b600b6020528060005260406000206000915054906101000a900460ff1681565b7f65d7a28e3265b37a6474929f336521b332c1681b933f6cb9f3376673440d862a61106981611064611cea565b6123b3565b61107161291e565b50565b600061109b82600160008681526020019081526020016000206129c190919063ffffffff16565b905092915050565b600080600084815260200190815260200160002060000160008373ffffffffffffffffffffffffffffffffffffffff1673ffffffffffffffffffffffffffffffffffffffff16815260200190815260200160002060009054906101000a900460ff16905092915050565b60606003805461111c90614f3c565b80601f016020809104026020016040519081016040528092919081815260200182805461114890614f3c565b80156111955780601f1061116a57610100808354040283529160200191611195565b820191906000526020600020905b81548152906001019060200180831161117857829003601f168201915b5050505050905090565b600082829050905060148111156111eb576040517f08c379a00000000000000000000000000000000000000000000000000000000081526004016111e290614857565b60405180910390fd5b60005b81811015611257576000848483818110611231577f4e487b7100000000000000000000000000000000000000000000000000000000600052603260045260246000fd5b90506020020135905061124381611460565b50808061124f90614fd3565b9150506111ee565b50611260611cea565b73ffffffffffffffffffffffffffffffffffffffff167ff871896b17e9cb7a64941c62c188a4f5c621b86800e3d15452ece01ce56073df84846040516112a7929190614722565b60405180910390a2505050565b6000801b81565b6112c3611cea565b73ffffffffffffffffffffffffffffffffffffffff168273ffffffffffffffffffffffffffffffffffffffff161415611331576040517f08c379a0000000000000000000000000000000000000000000000000000000008152600401611328906148d7565b60405180910390fd5b806007600061133e611cea565b73ffffffffffffffffffffffffffffffffffffffff1673ffffffffffffffffffffffffffffffffffffffff16815260200190815260200160002060008473ffffffffffffffffffffffffffffffffffffffff1673ffffffffffffffffffffffffffffffffffffffff16815260200190815260200160002060006101000a81548160ff0219169083151502179055508173ffffffffffffffffffffffffffffffffffffffff166113eb611cea565b73ffffffffffffffffffffffffffffffffffffffff167f17307eab39ab6107e8899845ad3d59bd9653f200f220920489ca2b5937696c31836040516114309190614746565b60405180910390a35050565b7f8f4f2da22e8ac8f11e15f9fc141cddbb5deea8800186560abb6e68c5496619a981565b61146981610ead565b73ffffffffffffffffffffffffffffffffffffffff16611487611cea565b73ffffffffffffffffffffffffffffffffffffffff1614816040516020016114af9190614610565b604051602081830303815290604052906114ff576040517f08c379a00000000000000000000000000000000000000000000000000000000081526004016114f6919061479e565b60405180910390fd5b506001600b600083815260200190815260200160002060006101000a81548160ff02191690831515021790555080600073ffffffffffffffffffffffffffffffffffffffff1661154e83610ead565b73ffffffffffffffffffffffffffffffffffffffff167ff94915c6d1fd521cee85359239227480c7e8776d7caf1fc3bacad5c269b66a143073ffffffffffffffffffffffffffffffffffffffff1663db65b45f866040518263ffffffff1660e01b81526004016115be9190614af7565b60006040518083038186803b1580156115d657600080fd5b505afa1580156115ea573d6000803e3d6000fd5b505050506040513d6000823e3d601f19601f820116820180604052508101906116139190613e46565b604051611620919061477c565b60405180910390a4611631816124f2565b50565b61164561163f611cea565b83611f9d565b611684576040517f08c379a000000000000000000000000000000000000000000000000000000000815260040161167b90614a57565b60405180910390fd5b611690848484846129db565b50505050565b60606116a182611c7e565b6116e0576040517f08c379a00000000000000000000000000000000000000000000000000000000081526004016116d7906148f7565b60405180910390fd5b600c600083815260200190815260200160002080546116fe90614f3c565b80601f016020809104026020016040519081016040528092919081815260200182805461172a90614f3c565b80156117775780601f1061174c57610100808354040283529160200191611777565b820191906000526020600020905b81548152906001019060200180831161175a57829003601f168201915b50505050509050919050565b60006117a060016000848152602001908152602001600020612a37565b9050919050565b606060096000838152602001908152602001600020805480602002602001604051908101604052809291908181526020016000905b8282101561189e578382906000526020600020016040518060400160405290816000820160009054906101000a900473ffffffffffffffffffffffffffffffffffffffff1673ffffffffffffffffffffffffffffffffffffffff1673ffffffffffffffffffffffffffffffffffffffff1681526020016000820160149054906101000a90046bffffffffffffffffffffffff166bffffffffffffffffffffffff166bffffffffffffffffffffffff1681525050815260200190600101906117dc565b505050509050919050565b7f8f4f2da22e8ac8f11e15f9fc141cddbb5deea8800186560abb6e68c5496619a96118db816118d6611cea565b6123b3565b602083839050141561193657600083838101906118f89190613f34565b90506000600b600083815260200190815260200160002060006101000a81548160ff0219169083151502179055506119308582611db9565b50611a27565b600083838101906119479190613d12565b905060008151905060005b81811015611a23576000600b6000858481518110611999577f4e487b7100000000000000000000000000000000000000000000000000000000600052603260045260246000fd5b6020026020010151815260200190815260200160002060006101000a81548160ff021916908315150217905550611a1087848381518110611a03577f4e487b7100000000000000000000000000000000000000000000000000000000600052603260045260246000fd5b6020026020010151611db9565b8080611a1b90614fd3565b915050611952565b5050505b50505050565b611a378282612a4c565b611a5c816001600085815260200190815260200160002061238390919063ffffffff16565b505050565b6060611a6c82611696565b60096000848152602001908152602001600020604051602001611a909291906147c0565b6040516020818303038152906040529050919050565b7f65d7a28e3265b37a6474929f336521b332c1681b933f6cb9f3376673440d862a81565b6000600760008473ffffffffffffffffffffffffffffffffffffffff1673ffffffffffffffffffffffffffffffffffffffff16815260200190815260200160002060008373ffffffffffffffffffffffffffffffffffffffff1673ffffffffffffffffffffffffffffffffffffffff16815260200190815260200160002060009054906101000a900460ff16905092915050565b611b688282612a75565b5050565b6000611b94836000018373ffffffffffffffffffffffffffffffffffffffff1660001b612b55565b905092915050565b60007f2a55205a000000000000000000000000000000000000000000000000000000007bffffffffffffffffffffffffffffffffffffffffffffffffffffffff1916827bffffffffffffffffffffffffffffffffffffffffffffffffffffffff19161480611c6757507fcad96cca000000000000000000000000000000000000000000000000000000007bffffffffffffffffffffffffffffffffffffffffffffffffffffffff1916827bffffffffffffffffffffffffffffffffffffffffffffffffffffffff1916145b80611c775750611c7682612bc5565b5b9050919050565b60008073ffffffffffffffffffffffffffffffffffffffff166004600084815260200190815260200160002060009054906101000a900473ffffffffffffffffffffffffffffffffffffffff1673ffffffffffffffffffffffffffffffffffffffff1614159050919050565b600033905090565b816006600083815260200190815260200160002060006101000a81548173ffffffffffffffffffffffffffffffffffffffff021916908373ffffffffffffffffffffffffffffffffffffffff160217905550808273ffffffffffffffffffffffffffffffffffffffff16611d6583610ead565b73ffffffffffffffffffffffffffffffffffffffff167f8c5be1e5ebec7d5bd14f71427d1e84f3dd0314c0f7b2291e5b200ac8c7c3b92560405160405180910390a45050565b600081600001549050919050565b600073ffffffffffffffffffffffffffffffffffffffff168273ffffffffffffffffffffffffffffffffffffffff161415611e29576040517f08c379a0000000000000000000000000000000000000000000000000000000008152600401611e20906149d7565b60405180910390fd5b611e3281611c7e565b15611e72576040517f08c379a0000000000000000000000000000000000000000000000000000000008152600401611e6990614897565b60405180910390fd5b611e7e60008383612ca7565b6001600560008473ffffffffffffffffffffffffffffffffffffffff1673ffffffffffffffffffffffffffffffffffffffff1681526020019081526020016000206000828254611ece9190614cdb565b92505081905550816004600083815260200190815260200160002060006101000a81548173ffffffffffffffffffffffffffffffffffffffff021916908373ffffffffffffffffffffffffffffffffffffffff160217905550808273ffffffffffffffffffffffffffffffffffffffff16600073ffffffffffffffffffffffffffffffffffffffff167fddf252ad1be2c89b69c2b068fc378daa952ba7f163c4a11628f55a4df523b3ef60405160405180910390a45050565b6001816000016000828254019250508190555050565b6000611fa882611c7e565b611fe7576040517f08c379a0000000000000000000000000000000000000000000000000000000008152600401611fde90614917565b60405180910390fd5b6000611ff283610ead565b90508073ffffffffffffffffffffffffffffffffffffffff168473ffffffffffffffffffffffffffffffffffffffff16148061206157508373ffffffffffffffffffffffffffffffffffffffff166120498461082e565b73ffffffffffffffffffffffffffffffffffffffff16145b8061207257506120718185611aca565b5b91505092915050565b8273ffffffffffffffffffffffffffffffffffffffff1661209b82610ead565b73ffffffffffffffffffffffffffffffffffffffff16146120f1576040517f08c379a00000000000000000000000000000000000000000000000000000000081526004016120e890614a17565b60405180910390fd5b600073ffffffffffffffffffffffffffffffffffffffff168273ffffffffffffffffffffffffffffffffffffffff161415612161576040517f08c379a0000000000000000000000000000000000000000000000000000000008152600401612158906148b7565b60405180910390fd5b61216c838383612ca7565b612177600082611cf2565b6001600560008573ffffffffffffffffffffffffffffffffffffffff1673ffffffffffffffffffffffffffffffffffffffff16815260200190815260200160002060008282546121c79190614dbc565b925050819055506001600560008473ffffffffffffffffffffffffffffffffffffffff1673ffffffffffffffffffffffffffffffffffffffff168152602001908152602001600020600082825461221e9190614cdb565b92505081905550816004600083815260200190815260200160002060006101000a81548173ffffffffffffffffffffffffffffffffffffffff021916908373ffffffffffffffffffffffffffffffffffffffff160217905550808273ffffffffffffffffffffffffffffffffffffffff168473ffffffffffffffffffffffffffffffffffffffff167fddf252ad1be2c89b69c2b068fc378daa952ba7f163c4a11628f55a4df523b3ef60405160405180910390a4505050565b6122e082610acf565b6122f1816122ec611cea565b6123b3565b6122fb8383612a75565b505050565b612308611cea565b73ffffffffffffffffffffffffffffffffffffffff168173ffffffffffffffffffffffffffffffffffffffff1614612375576040517f08c379a000000000000000000000000000000000000000000000000000000000815260040161236c90614ad7565b60405180910390fd5b61237f8282612cb7565b5050565b60006123ab836000018373ffffffffffffffffffffffffffffffffffffffff1660001b612d98565b905092915050565b6123bd82826110a3565b61244c576123e28173ffffffffffffffffffffffffffffffffffffffff166014612f1e565b6123f08360001c6020612f1e565b604051602001612401929190614636565b6040516020818303038152906040526040517f08c379a0000000000000000000000000000000000000000000000000000000008152600401612443919061479e565b60405180910390fd5b5050565b612458610e96565b612497576040517f08c379a000000000000000000000000000000000000000000000000000000000815260040161248e90614837565b60405180910390fd5b6000600860006101000a81548160ff0219169083151502179055507f5db9ee0a495bf2e6ff9c91a7834c1ba4fdd244a5e8aa4e537bd38aeae4b073aa6124db611cea565b6040516124e89190614670565b60405180910390a1565b60006124fd82610ead565b905061250b81600084612ca7565b612516600083611cf2565b6001600560008373ffffffffffffffffffffffffffffffffffffffff1673ffffffffffffffffffffffffffffffffffffffff16815260200190815260200160002060008282546125669190614dbc565b925050819055506004600083815260200190815260200160002060006101000a81549073ffffffffffffffffffffffffffffffffffffffff021916905581600073ffffffffffffffffffffffffffffffffffffffff168273ffffffffffffffffffffffffffffffffffffffff167fddf252ad1be2c89b69c2b068fc378daa952ba7f163c4a11628f55a4df523b3ef60405160405180910390a45050565b600080600090505b82518110156128ca57600073ffffffffffffffffffffffffffffffffffffffff16838281518110612665577f4e487b7100000000000000000000000000000000000000000000000000000000600052603260045260246000fd5b60200260200101516000015173ffffffffffffffffffffffffffffffffffffffff1614156126c8576040517f08c379a00000000000000000000000000000000000000000000000000000000081526004016126bf90614a97565b60405180910390fd5b6000838281518110612703577f4e487b7100000000000000000000000000000000000000000000000000000000600052603260045260246000fd5b6020026020010151602001516bffffffffffffffffffffffff16141561275e576040517f08c379a000000000000000000000000000000000000000000000000000000000815260040161275590614937565b60405180910390fd5b828181518110612797577f4e487b7100000000000000000000000000000000000000000000000000000000600052603260045260246000fd5b6020026020010151602001516bffffffffffffffffffffffff16826127bc9190614cdb565b91506009600085815260200190815260200160002083828151811061280a577f4e487b7100000000000000000000000000000000000000000000000000000000600052603260045260246000fd5b60200260200101519080600181540180825580915050600190039060005260206000200160009091909190915060008201518160000160006101000a81548173ffffffffffffffffffffffffffffffffffffffff021916908373ffffffffffffffffffffffffffffffffffffffff16021790555060208201518160000160146101000a8154816bffffffffffffffffffffffff02191690836bffffffffffffffffffffffff160217905550505080806128c290614fd3565b91505061260b565b50612710811061290f576040517f08c379a000000000000000000000000000000000000000000000000000000000815260040161290690614a77565b60405180910390fd5b6129198383613218565b505050565b612926610e96565b15612966576040517f08c379a000000000000000000000000000000000000000000000000000000000815260040161295d90614957565b60405180910390fd5b6001600860006101000a81548160ff0219169083151502179055507f62e78cea01bee320cd4e420270b5ea74000d11b0c9f74754ebdbfc544b05a2586129aa611cea565b6040516129b79190614670565b60405180910390a1565b60006129d08360000183613255565b60001c905092915050565b6129e684848461207b565b6129f2848484846132a6565b612a31576040517f08c379a0000000000000000000000000000000000000000000000000000000008152600401612a2890614877565b60405180910390fd5b50505050565b6000612a458260000161343d565b9050919050565b612a5582610acf565b612a6681612a61611cea565b6123b3565b612a708383612cb7565b505050565b612a7f82826110a3565b612b5157600160008084815260200190815260200160002060000160008373ffffffffffffffffffffffffffffffffffffffff1673ffffffffffffffffffffffffffffffffffffffff16815260200190815260200160002060006101000a81548160ff021916908315150217905550612af6611cea565b73ffffffffffffffffffffffffffffffffffffffff168173ffffffffffffffffffffffffffffffffffffffff16837f2f8788117e7eff1d82e926ec794901d17c78024a50270940304540a733656f0d60405160405180910390a45b5050565b6000612b61838361344e565b612bba578260000182908060018154018082558091505060019003906000526020600020016000909190919091505582600001805490508360010160008481526020019081526020016000208190555060019050612bbf565b600090505b92915050565b60007f80ac58cd000000000000000000000000000000000000000000000000000000007bffffffffffffffffffffffffffffffffffffffffffffffffffffffff1916827bffffffffffffffffffffffffffffffffffffffffffffffffffffffff19161480612c9057507f5b5e139f000000000000000000000000000000000000000000000000000000007bffffffffffffffffffffffffffffffffffffffffffffffffffffffff1916827bffffffffffffffffffffffffffffffffffffffffffffffffffffffff1916145b80612ca05750612c9f82613471565b5b9050919050565b612cb28383836134eb565b505050565b612cc182826110a3565b15612d9457600080600084815260200190815260200160002060000160008373ffffffffffffffffffffffffffffffffffffffff1673ffffffffffffffffffffffffffffffffffffffff16815260200190815260200160002060006101000a81548160ff021916908315150217905550612d39611cea565b73ffffffffffffffffffffffffffffffffffffffff168173ffffffffffffffffffffffffffffffffffffffff16837ff6391f5c32d9c69d2a47ea670b442974b53935d1edc7fd64eb21e047a839171b60405160405180910390a45b5050565b60008083600101600084815260200190815260200160002054905060008114612f12576000600182612dca9190614dbc565b9050600060018660000180549050612de29190614dbc565b9050818114612e9d576000866000018281548110612e29577f4e487b7100000000000000000000000000000000000000000000000000000000600052603260045260246000fd5b9060005260206000200154905080876000018481548110612e73577f4e487b7100000000000000000000000000000000000000000000000000000000600052603260045260246000fd5b90600052602060002001819055508387600101600083815260200190815260200160002081905550505b85600001805480612ed7577f4e487b7100000000000000000000000000000000000000000000000000000000600052603160045260246000fd5b600190038181906000526020600020016000905590558560010160008681526020019081526020016000206000905560019350505050612f18565b60009150505b92915050565b606060006002836002612f319190614d62565b612f3b9190614cdb565b67ffffffffffffffff811115612f7a577f4e487b7100000000000000000000000000000000000000000000000000000000600052604160045260246000fd5b6040519080825280601f01601f191660200182016040528015612fac5781602001600182028036833780820191505090505b5090507f30000000000000000000000000000000000000000000000000000000000000008160008151811061300a577f4e487b7100000000000000000000000000000000000000000000000000000000600052603260045260246000fd5b60200101907effffffffffffffffffffffffffffffffffffffffffffffffffffffffffffff1916908160001a9053507f780000000000000000000000000000000000000000000000000000000000000081600181518110613094577f4e487b7100000000000000000000000000000000000000000000000000000000600052603260045260246000fd5b60200101907effffffffffffffffffffffffffffffffffffffffffffffffffffffffffffff1916908160001a905350600060018460026130d49190614d62565b6130de9190614cdb565b90505b60018111156131ca577f3031323334353637383961626364656600000000000000000000000000000000600f861660108110613146577f4e487b7100000000000000000000000000000000000000000000000000000000600052603260045260246000fd5b1a60f81b828281518110613183577f4e487b7100000000000000000000000000000000000000000000000000000000600052603260045260246000fd5b60200101907effffffffffffffffffffffffffffffffffffffffffffffffffffffffffffff1916908160001a905350600485901c9450806131c390614f12565b90506130e1565b506000841461320e576040517f08c379a0000000000000000000000000000000000000000000000000000000008152600401613205906147f7565b60405180910390fd5b8091505092915050565b7f3fa96d7b6bcbfe71ef171666d84db3cf52fa2d1c8afdb1cc8e486177f208b7df8282604051613249929190614b12565b60405180910390a15050565b6000826000018281548110613293577f4e487b7100000000000000000000000000000000000000000000000000000000600052603260045260246000fd5b9060005260206000200154905092915050565b60006132c78473ffffffffffffffffffffffffffffffffffffffff16613543565b15613430578373ffffffffffffffffffffffffffffffffffffffff1663150b7a026132f0611cea565b8786866040518563ffffffff1660e01b8152600401613312949392919061468b565b602060405180830381600087803b15801561332c57600080fd5b505af192505050801561335d57506040513d601f19601f8201168201806040525081019061335a9190613e1d565b60015b6133e0573d806000811461338d576040519150601f19603f3d011682016040523d82523d6000602084013e613392565b606091505b506000815114156133d8576040517f08c379a00000000000000000000000000000000000000000000000000000000081526004016133cf90614877565b60405180910390fd5b805181602001fd5b63150b7a0260e01b7bffffffffffffffffffffffffffffffffffffffffffffffffffffffff1916817bffffffffffffffffffffffffffffffffffffffffffffffffffffffff191614915050613435565b600190505b949350505050565b600081600001805490509050919050565b600080836001016000848152602001908152602001600020541415905092915050565b60007f5a05180f000000000000000000000000000000000000000000000000000000007bffffffffffffffffffffffffffffffffffffffffffffffffffffffff1916827bffffffffffffffffffffffffffffffffffffffffffffffffffffffff191614806134e457506134e382613556565b5b9050919050565b6134f68383836135d0565b6134fe610e96565b1561353e576040517f08c379a000000000000000000000000000000000000000000000000000000000815260040161353590614817565b60405180910390fd5b505050565b600080823b905060008111915050919050565b60007f7965db0b000000000000000000000000000000000000000000000000000000007bffffffffffffffffffffffffffffffffffffffffffffffffffffffff1916827bffffffffffffffffffffffffffffffffffffffffffffffffffffffff191614806135c957506135c8826135d5565b5b9050919050565b505050565b60007f01ffc9a7000000000000000000000000000000000000000000000000000000007bffffffffffffffffffffffffffffffffffffffffffffffffffffffff1916827bffffffffffffffffffffffffffffffffffffffffffffffffffffffff1916149050919050565b82805461364b90614f3c565b90600052602060002090601f01602090048101928261366d57600085556136b4565b82601f1061368657805160ff19168380011785556136b4565b828001600101855582156136b4579182015b828111156136b3578251825591602001919060010190613698565b5b5090506136c191906136c5565b5090565b5b808211156136de5760008160009055506001016136c6565b5090565b60006136f56136f084614b67565b614b42565b9050808382526020820190508285604086028201111561371457600080fd5b60005b85811015613744578161372a8882613a58565b845260208401935060408301925050600181019050613717565b5050509392505050565b600061376161375c84614b93565b614b42565b9050808382526020820190508285602086028201111561378057600080fd5b60005b858110156137b057816137968882613aa4565b845260208401935060208301925050600181019050613783565b5050509392505050565b60006137cd6137c884614bbf565b614b42565b9050828152602081018484840111156137e557600080fd5b6137f0848285614ed0565b509392505050565b600061380b61380684614bbf565b614b42565b90508281526020810184848401111561382357600080fd5b61382e848285614edf565b509392505050565b600061384961384484614bf0565b614b42565b90508281526020810184848401111561386157600080fd5b61386c848285614ed0565b509392505050565b600081359050613883816157e6565b92915050565b600081359050613898816157fd565b92915050565b600082601f8301126138af57600080fd5b81356138bf8482602086016136e2565b91505092915050565b60008083601f8401126138da57600080fd5b8235905067ffffffffffffffff8111156138f357600080fd5b60208301915083602082028301111561390b57600080fd5b9250929050565b600082601f83011261392357600080fd5b813561393384826020860161374e565b91505092915050565b60008135905061394b81615814565b92915050565b6000813590506139608161582b565b92915050565b60008135905061397581615842565b92915050565b60008151905061398a81615842565b92915050565b60008083601f8401126139a257600080fd5b8235905067ffffffffffffffff8111156139bb57600080fd5b6020830191508360018202830111156139d357600080fd5b9250929050565b600082601f8301126139eb57600080fd5b81356139fb8482602086016137ba565b91505092915050565b600082601f830112613a1557600080fd5b8151613a258482602086016137f8565b91505092915050565b600082601f830112613a3f57600080fd5b8135613a4f848260208601613836565b91505092915050565b600060408284031215613a6a57600080fd5b613a746040614b42565b90506000613a8484828501613889565b6000830152506020613a9884828501613ab9565b60208301525092915050565b600081359050613ab381615859565b92915050565b600081359050613ac881615870565b92915050565b600060208284031215613ae057600080fd5b6000613aee84828501613874565b91505092915050565b60008060408385031215613b0a57600080fd5b6000613b1885828601613874565b9250506020613b2985828601613874565b9150509250929050565b600080600060608486031215613b4857600080fd5b6000613b5686828701613874565b9350506020613b6786828701613874565b9250506040613b7886828701613aa4565b9150509250925092565b60008060008060808587031215613b9857600080fd5b6000613ba687828801613874565b9450506020613bb787828801613874565b9350506040613bc887828801613aa4565b925050606085013567ffffffffffffffff811115613be557600080fd5b613bf1878288016139da565b91505092959194509250565b60008060408385031215613c1057600080fd5b6000613c1e85828601613874565b9250506020613c2f8582860161393c565b9150509250929050565b600080600060408486031215613c4e57600080fd5b6000613c5c86828701613874565b935050602084013567ffffffffffffffff811115613c7957600080fd5b613c8586828701613990565b92509250509250925092565b60008060408385031215613ca457600080fd5b6000613cb285828601613874565b9250506020613cc385828601613aa4565b9150509250929050565b60008060208385031215613ce057600080fd5b600083013567ffffffffffffffff811115613cfa57600080fd5b613d06858286016138c8565b92509250509250929050565b600060208284031215613d2457600080fd5b600082013567ffffffffffffffff811115613d3e57600080fd5b613d4a84828501613912565b91505092915050565b600060208284031215613d6557600080fd5b6000613d7384828501613951565b91505092915050565b60008060408385031215613d8f57600080fd5b6000613d9d85828601613951565b9250506020613dae85828601613874565b9150509250929050565b60008060408385031215613dcb57600080fd5b6000613dd985828601613951565b9250506020613dea85828601613aa4565b9150509250929050565b600060208284031215613e0657600080fd5b6000613e1484828501613966565b91505092915050565b600060208284031215613e2f57600080fd5b6000613e3d8482850161397b565b91505092915050565b600060208284031215613e5857600080fd5b600082015167ffffffffffffffff811115613e7257600080fd5b613e7e84828501613a04565b91505092915050565b600060208284031215613e9957600080fd5b600082013567ffffffffffffffff811115613eb357600080fd5b613ebf84828501613a2e565b91505092915050565b60008060408385031215613edb57600080fd5b600083013567ffffffffffffffff811115613ef557600080fd5b613f0185828601613a2e565b925050602083013567ffffffffffffffff811115613f1e57600080fd5b613f2a8582860161389e565b9150509250929050565b600060208284031215613f4657600080fd5b6000613f5484828501613aa4565b91505092915050565b60008060408385031215613f7057600080fd5b6000613f7e85828601613aa4565b9250506020613f8f85828601613aa4565b9150509250929050565b6000613fa5838361456c565b60408301905092915050565b6000613fbd838361459b565b60408301905092915050565b613fd281614e3a565b82525050565b613fe181614e28565b82525050565b6000613ff282614c46565b613ffc8185614c8c565b935061400783614c21565b8060005b8381101561403857815161401f8882613f99565b975061402a83614c72565b92505060018101905061400b565b5085935050505092915050565b600061405082614c51565b61405a8185614c8c565b935061406583614c31565b8060005b83811015614095578161407c8882613fb1565b975061408783614c7f565b925050600181019050614069565b5085935050505092915050565b60006140ae8385614c9d565b93507f07ffffffffffffffffffffffffffffffffffffffffffffffffffffffffffffff8311156140dd57600080fd5b6020830292506140ee838584614ed0565b82840190509392505050565b61410381614e4c565b82525050565b61411281614e58565b82525050565b600061412382614c5c565b61412d8185614cae565b935061413d818560208601614edf565b614146816150e2565b840191505092915050565b600061415c82614c67565b6141668185614cbf565b9350614176818560208601614edf565b61417f816150e2565b840191505092915050565b600061419582614c67565b61419f8185614cd0565b93506141af818560208601614edf565b80840191505092915050565b60006141c8602083614cbf565b91506141d38261510d565b602082019050919050565b60006141eb602b83614cbf565b91506141f682615136565b604082019050919050565b600061420e601483614cbf565b915061421982615185565b602082019050919050565b6000614231602383614cbf565b915061423c826151ae565b604082019050919050565b6000614254603283614cbf565b915061425f826151fd565b604082019050919050565b6000614277601c83614cbf565b91506142828261524c565b602082019050919050565b600061429a602483614cbf565b91506142a582615275565b604082019050919050565b60006142bd601983614cbf565b91506142c8826152c4565b602082019050919050565b60006142e0602f83614cbf565b91506142eb826152ed565b604082019050919050565b6000614303602c83614cbf565b915061430e8261533c565b604082019050919050565b6000614326602083614cbf565b91506143318261538b565b602082019050919050565b6000614349601083614cbf565b9150614354826153b4565b602082019050919050565b600061436c603883614cbf565b9150614377826153dd565b604082019050919050565b600061438f602a83614cbf565b915061439a8261542c565b604082019050919050565b60006143b2602983614cbf565b91506143bd8261547b565b604082019050919050565b60006143d5602083614cbf565b91506143e0826154ca565b602082019050919050565b60006143f8602c83614cbf565b9150614403826154f3565b604082019050919050565b600061441b602983614cbf565b915061442682615542565b604082019050919050565b600061443e602483614cd0565b915061444982615591565b602482019050919050565b6000614461602183614cbf565b915061446c826155e0565b604082019050919050565b6000614484603183614cbf565b915061448f8261562f565b604082019050919050565b60006144a7602583614cbf565b91506144b28261567e565b604082019050919050565b60006144ca601783614cd0565b91506144d5826156cd565b601782019050919050565b60006144ed601b83614cbf565b91506144f8826156f6565b602082019050919050565b6000614510603083614cbf565b915061451b8261571f565b604082019050919050565b6000614533601183614cd0565b915061453e8261576e565b601182019050919050565b6000614556602f83614cbf565b915061456182615797565b604082019050919050565b6040820160008201516145826000850182613fc9565b5060208201516145956020850182614601565b50505050565b6040820160008083015490506145b081614f6e565b6145bd6000860182613fc9565b506145c781614f88565b6145d46020860182614601565b5050505050565b6145e481614eae565b82525050565b6145fb6145f682614eae565b61501c565b82525050565b61460a81614eb8565b82525050565b600061461b82614431565b915061462782846145ea565b60208201915081905092915050565b6000614641826144bd565b915061464d828561418a565b915061465882614526565b9150614664828461418a565b91508190509392505050565b60006020820190506146856000830184613fd8565b92915050565b60006080820190506146a06000830187613fd8565b6146ad6020830186613fd8565b6146ba60408301856145db565b81810360608301526146cc8184614118565b905095945050505050565b60006040820190506146ec6000830185613fd8565b6146f960208301846145db565b9392505050565b6000602082019050818103600083015261471a8184613fe7565b905092915050565b6000602082019050818103600083015261473d8184866140a2565b90509392505050565b600060208201905061475b60008301846140fa565b92915050565b60006020820190506147766000830184614109565b92915050565b600060208201905081810360008301526147968184614118565b905092915050565b600060208201905081810360008301526147b88184614151565b905092915050565b600060408201905081810360008301526147da8185614151565b905081810360208301526147ee8184614045565b90509392505050565b60006020820190508181036000830152614810816141bb565b9050919050565b60006020820190508181036000830152614830816141de565b9050919050565b6000602082019050818103600083015261485081614201565b9050919050565b6000602082019050818103600083015261487081614224565b9050919050565b6000602082019050818103600083015261489081614247565b9050919050565b600060208201905081810360008301526148b08161426a565b9050919050565b600060208201905081810360008301526148d08161428d565b9050919050565b600060208201905081810360008301526148f0816142b0565b9050919050565b60006020820190508181036000830152614910816142d3565b9050919050565b60006020820190508181036000830152614930816142f6565b9050919050565b6000602082019050818103600083015261495081614319565b9050919050565b600060208201905081810360008301526149708161433c565b9050919050565b600060208201905081810360008301526149908161435f565b9050919050565b600060208201905081810360008301526149b081614382565b9050919050565b600060208201905081810360008301526149d0816143a5565b9050919050565b600060208201905081810360008301526149f0816143c8565b9050919050565b60006020820190508181036000830152614a10816143eb565b9050919050565b60006020820190508181036000830152614a308161440e565b9050919050565b60006020820190508181036000830152614a5081614454565b9050919050565b60006020820190508181036000830152614a7081614477565b9050919050565b60006020820190508181036000830152614a908161449a565b9050919050565b60006020820190508181036000830152614ab0816144e0565b9050919050565b60006020820190508181036000830152614ad081614503565b9050919050565b60006020820190508181036000830152614af081614549565b9050919050565b6000602082019050614b0c60008301846145db565b92915050565b6000604082019050614b2760008301856145db565b8181036020830152614b398184613fe7565b90509392505050565b6000614b4c614b5d565b9050614b588282614fa2565b919050565b6000604051905090565b600067ffffffffffffffff821115614b8257614b816150b3565b5b602082029050602081019050919050565b600067ffffffffffffffff821115614bae57614bad6150b3565b5b602082029050602081019050919050565b600067ffffffffffffffff821115614bda57614bd96150b3565b5b614be3826150e2565b9050602081019050919050565b600067ffffffffffffffff821115614c0b57614c0a6150b3565b5b614c14826150e2565b9050602081019050919050565b6000819050602082019050919050565b60008190508160005260206000209050919050565b600081519050919050565b600081549050919050565b600081519050919050565b600081519050919050565b6000602082019050919050565b6000600182019050919050565b600082825260208201905092915050565b600082825260208201905092915050565b600082825260208201905092915050565b600082825260208201905092915050565b600081905092915050565b6000614ce682614eae565b9150614cf183614eae565b9250827fffffffffffffffffffffffffffffffffffffffffffffffffffffffffffffffff03821115614d2657614d25615026565b5b828201905092915050565b6000614d3c82614eae565b9150614d4783614eae565b925082614d5757614d56615055565b5b828204905092915050565b6000614d6d82614eae565b9150614d7883614eae565b9250817fffffffffffffffffffffffffffffffffffffffffffffffffffffffffffffffff0483118215151615614db157614db0615026565b5b828202905092915050565b6000614dc782614eae565b9150614dd283614eae565b925082821015614de557614de4615026565b5b828203905092915050565b600073ffffffffffffffffffffffffffffffffffffffff82169050919050565b60006bffffffffffffffffffffffff82169050919050565b6000614e3382614e8e565b9050919050565b6000614e4582614e8e565b9050919050565b60008115159050919050565b6000819050919050565b60007fffffffff0000000000000000000000000000000000000000000000000000000082169050919050565b600073ffffffffffffffffffffffffffffffffffffffff82169050919050565b6000819050919050565b60006bffffffffffffffffffffffff82169050919050565b82818337600083830152505050565b60005b83811015614efd578082015181840152602081019050614ee2565b83811115614f0c576000848401525b50505050565b6000614f1d82614eae565b91506000821415614f3157614f30615026565b5b600182039050919050565b60006002820490506001821680614f5457607f821691505b60208210811415614f6857614f67615084565b5b50919050565b6000614f81614f7c836150f3565b614df0565b9050919050565b6000614f9b614f9683615100565b614e10565b9050919050565b614fab826150e2565b810181811067ffffffffffffffff82111715614fca57614fc96150b3565b5b80604052505050565b6000614fde82614eae565b91507fffffffffffffffffffffffffffffffffffffffffffffffffffffffffffffffff82141561501157615010615026565b5b600182019050919050565b6000819050919050565b7f4e487b7100000000000000000000000000000000000000000000000000000000600052601160045260246000fd5b7f4e487b7100000000000000000000000000000000000000000000000000000000600052601260045260246000fd5b7f4e487b7100000000000000000000000000000000000000000000000000000000600052602260045260246000fd5b7f4e487b7100000000000000000000000000000000000000000000000000000000600052604160045260246000fd5b6000601f19601f8301169050919050565b60008160001c9050919050565b60008160a01c9050919050565b7f537472696e67733a20686578206c656e67746820696e73756666696369656e74600082015250565b7f4552433732315061757361626c653a20746f6b656e207472616e73666572207760008201527f68696c6520706175736564000000000000000000000000000000000000000000602082015250565b7f5061757361626c653a206e6f7420706175736564000000000000000000000000600082015250565b7f4552433732314c656d6f6e6164653a20455843454544535f42415443485f4c4960008201527f4d49540000000000000000000000000000000000000000000000000000000000602082015250565b7f4552433732313a207472616e7366657220746f206e6f6e20455243373231526560008201527f63656976657220696d706c656d656e7465720000000000000000000000000000602082015250565b7f4552433732313a20746f6b656e20616c7265616479206d696e74656400000000600082015250565b7f4552433732313a207472616e7366657220746f20746865207a65726f2061646460008201527f7265737300000000000000000000000000000000000000000000000000000000602082015250565b7f4552433732313a20617070726f766520746f2063616c6c657200000000000000600082015250565b7f4552433732314c656d6f6e6164653a2055524920717565727920666f72206e6f60008201527f6e6578697374656e7420746f6b656e0000000000000000000000000000000000602082015250565b7f4552433732313a206f70657261746f7220717565727920666f72206e6f6e657860008201527f697374656e7420746f6b656e0000000000000000000000000000000000000000602082015250565b7f526f79616c74792076616c75652073686f756c6420626520706f736974697665600082015250565b7f5061757361626c653a2070617573656400000000000000000000000000000000600082015250565b7f4552433732313a20617070726f76652063616c6c6572206973206e6f74206f7760008201527f6e6572206e6f7220617070726f76656420666f7220616c6c0000000000000000602082015250565b7f4552433732313a2062616c616e636520717565727920666f7220746865207a6560008201527f726f206164647265737300000000000000000000000000000000000000000000602082015250565b7f4552433732313a206f776e657220717565727920666f72206e6f6e657869737460008201527f656e7420746f6b656e0000000000000000000000000000000000000000000000602082015250565b7f4552433732313a206d696e7420746f20746865207a65726f2061646472657373600082015250565b7f4552433732313a20617070726f76656420717565727920666f72206e6f6e657860008201527f697374656e7420746f6b656e0000000000000000000000000000000000000000602082015250565b7f4552433732313a207472616e73666572206f6620746f6b656e2074686174206960008201527f73206e6f74206f776e0000000000000000000000000000000000000000000000602082015250565b7f4552433732314c656d6f6e6164653a20494e56414c49445f544f4b454e5f4f5760008201527f4e45522000000000000000000000000000000000000000000000000000000000602082015250565b7f4552433732313a20617070726f76616c20746f2063757272656e74206f776e6560008201527f7200000000000000000000000000000000000000000000000000000000000000602082015250565b7f4552433732313a207472616e736665722063616c6c6572206973206e6f74206f60008201527f776e6572206e6f7220617070726f766564000000000000000000000000000000602082015250565b7f526f79616c747920746f74616c2076616c75652073686f756c64206265203c2060008201527f3130303030000000000000000000000000000000000000000000000000000000602082015250565b7f416363657373436f6e74726f6c3a206163636f756e7420000000000000000000600082015250565b7f526563697069656e742073686f756c642062652070726573656e740000000000600082015250565b7f4552433732314275726e61626c653a2063616c6c6572206973206e6f74206f7760008201527f6e6572206e6f7220617070726f76656400000000000000000000000000000000602082015250565b7f206973206d697373696e6720726f6c6520000000000000000000000000000000600082015250565b7f416363657373436f6e74726f6c3a2063616e206f6e6c792072656e6f756e636560008201527f20726f6c657320666f722073656c660000000000000000000000000000000000602082015250565b6157ef81614e28565b81146157fa57600080fd5b50565b61580681614e3a565b811461581157600080fd5b50565b61581d81614e4c565b811461582857600080fd5b50565b61583481614e58565b811461583f57600080fd5b50565b61584b81614e62565b811461585657600080fd5b50565b61586281614eae565b811461586d57600080fd5b50565b61587981614eb8565b811461588457600080fd5b5056fea264697066735822122056b3fa7eab075b33afaa546e2e97129fc9c4d145307e1d5df8d9cb808c3d4a5464736f6c63430008040033",
  "devdoc": {
    "kind": "dev",
    "methods": {
      "approve(address,uint256)": {
        "details": "See {IERC721-approve}."
      },
      "balanceOf(address)": {
        "details": "See {IERC721-balanceOf}."
      },
      "burn(uint256)": {
        "details": "Burns `tokenId`. See {ERC721-_burn}. Requirements: - The caller must own `tokenId` or be an approved operator."
      },
      "deposit(address,bytes)": {
        "details": "see https://github.com/maticnetwork/pos-portal/blob/88dbf0a88fd68fa11f7a3b9d36629930f6b93a05/flat/ChildMintableERC721.sol#L2160"
      },
      "encodeState(uint256)": {
        "details": "see https://github.com/maticnetwork/pos-portal/blob/88dbf0a88fd68fa11f7a3b9d36629930f6b93a05/flat/ChildMintableERC721.sol#L2255"
      },
      "getApproved(uint256)": {
        "details": "See {IERC721-getApproved}."
      },
      "getRoleAdmin(bytes32)": {
        "details": "Returns the admin role that controls `role`. See {grantRole} and {revokeRole}. To change a role's admin, use {_setRoleAdmin}."
      },
      "getRoleMember(bytes32,uint256)": {
        "details": "Returns one of the accounts that have `role`. `index` must be a value between 0 and {getRoleMemberCount}, non-inclusive. Role bearers are not sorted in any particular way, and their ordering may change at any point. WARNING: When using {getRoleMember} and {getRoleMemberCount}, make sure you perform all queries on the same block. See the following https://forum.openzeppelin.com/t/iterating-over-elements-on-enumerableset-in-openzeppelin-contracts/2296[forum post] for more information."
      },
      "getRoleMemberCount(bytes32)": {
        "details": "Returns the number of accounts that have `role`. Can be used together with {getRoleMember} to enumerate all bearers of a role."
      },
      "grantRole(bytes32,address)": {
        "details": "Overload {grantRole} to track enumerable memberships"
      },
      "hasRole(bytes32,address)": {
        "details": "Returns `true` if `account` has been granted `role`."
      },
      "isApprovedForAll(address,address)": {
        "details": "See {IERC721-isApprovedForAll}."
      },
      "name()": {
        "details": "See {IERC721Metadata-name}."
      },
      "ownerOf(uint256)": {
        "details": "See {IERC721-ownerOf}."
      },
      "paused()": {
        "details": "Returns true if the contract is paused, and false otherwise."
      },
      "renounceRole(bytes32,address)": {
        "details": "Overload {renounceRole} to track enumerable memberships"
      },
      "revokeRole(bytes32,address)": {
        "details": "Overload {revokeRole} to track enumerable memberships"
      },
      "safeTransferFrom(address,address,uint256)": {
        "details": "See {IERC721-safeTransferFrom}."
      },
      "safeTransferFrom(address,address,uint256,bytes)": {
        "details": "See {IERC721-safeTransferFrom}."
      },
      "setApprovalForAll(address,bool)": {
        "details": "See {IERC721-setApprovalForAll}."
      },
      "symbol()": {
        "details": "See {IERC721Metadata-symbol}."
      },
      "tokenURI(uint256)": {
        "details": "See {IERC721Metadata-tokenURI}."
      },
      "transferFrom(address,address,uint256)": {
        "details": "See {IERC721-transferFrom}."
      },
      "withdraw(uint256)": {
        "details": "see https://github.com/maticnetwork/pos-portal/blob/88dbf0a88fd68fa11f7a3b9d36629930f6b93a05/flat/ChildMintableERC721.sol#L2191"
      },
      "withdrawBatch(uint256[])": {
        "details": "see https://github.com/maticnetwork/pos-portal/blob/88dbf0a88fd68fa11f7a3b9d36629930f6b93a05/flat/ChildMintableERC721.sol#L2202"
      },
      "withdrawWithMetadata(uint256)": {
        "details": "see https://github.com/maticnetwork/pos-portal/blob/88dbf0a88fd68fa11f7a3b9d36629930f6b93a05/flat/ChildMintableERC721.sol#L2234"
      }
    },
    "version": 1
  },
  "userdoc": {
    "kind": "user",
    "methods": {},
    "version": 1
  },
  "storageLayout": {
    "storage": [
      {
        "astId": 24,
        "contract": "contracts/ERC721Lemonade.sol:ERC721Lemonade",
        "label": "_roles",
        "offset": 0,
        "slot": "0",
        "type": "t_mapping(t_bytes32,t_struct(RoleData)19_storage)"
      },
      {
        "astId": 325,
        "contract": "contracts/ERC721Lemonade.sol:ERC721Lemonade",
        "label": "_roleMembers",
        "offset": 0,
        "slot": "1",
        "type": "t_mapping(t_bytes32,t_struct(AddressSet)2663_storage)"
      },
      {
        "astId": 701,
        "contract": "contracts/ERC721Lemonade.sol:ERC721Lemonade",
        "label": "_name",
        "offset": 0,
        "slot": "2",
        "type": "t_string_storage"
      },
      {
        "astId": 703,
        "contract": "contracts/ERC721Lemonade.sol:ERC721Lemonade",
        "label": "_symbol",
        "offset": 0,
        "slot": "3",
        "type": "t_string_storage"
      },
      {
        "astId": 707,
        "contract": "contracts/ERC721Lemonade.sol:ERC721Lemonade",
        "label": "_owners",
        "offset": 0,
        "slot": "4",
        "type": "t_mapping(t_uint256,t_address)"
      },
      {
        "astId": 711,
        "contract": "contracts/ERC721Lemonade.sol:ERC721Lemonade",
        "label": "_balances",
        "offset": 0,
        "slot": "5",
        "type": "t_mapping(t_address,t_uint256)"
      },
      {
        "astId": 715,
        "contract": "contracts/ERC721Lemonade.sol:ERC721Lemonade",
        "label": "_tokenApprovals",
        "offset": 0,
        "slot": "6",
        "type": "t_mapping(t_uint256,t_address)"
      },
      {
        "astId": 721,
        "contract": "contracts/ERC721Lemonade.sol:ERC721Lemonade",
        "label": "_operatorApprovals",
        "offset": 0,
        "slot": "7",
        "type": "t_mapping(t_address,t_mapping(t_address,t_bool))"
      },
      {
        "astId": 601,
        "contract": "contracts/ERC721Lemonade.sol:ERC721Lemonade",
        "label": "_paused",
        "offset": 0,
        "slot": "8",
        "type": "t_bool"
      },
      {
        "astId": 3597,
        "contract": "contracts/ERC721Lemonade.sol:ERC721Lemonade",
        "label": "royalties",
        "offset": 0,
        "slot": "9",
        "type": "t_mapping(t_uint256,t_array(t_struct(Part)3545_storage)dyn_storage)"
      },
      {
        "astId": 2989,
        "contract": "contracts/ERC721Lemonade.sol:ERC721Lemonade",
        "label": "_tokenIdTracker",
        "offset": 0,
        "slot": "10",
        "type": "t_struct(Counter)2044_storage"
      },
      {
        "astId": 2993,
        "contract": "contracts/ERC721Lemonade.sol:ERC721Lemonade",
        "label": "_tokenWithdrawn",
        "offset": 0,
        "slot": "11",
        "type": "t_mapping(t_uint256,t_bool)"
      },
      {
        "astId": 2997,
        "contract": "contracts/ERC721Lemonade.sol:ERC721Lemonade",
        "label": "_tokenURIs",
        "offset": 0,
        "slot": "12",
        "type": "t_mapping(t_uint256,t_string_storage)"
      }
    ],
    "types": {
      "t_address": {
        "encoding": "inplace",
        "label": "address",
        "numberOfBytes": "20"
      },
      "t_address_payable": {
        "encoding": "inplace",
        "label": "address payable",
        "numberOfBytes": "20"
      },
      "t_array(t_bytes32)dyn_storage": {
        "base": "t_bytes32",
        "encoding": "dynamic_array",
        "label": "bytes32[]",
        "numberOfBytes": "32"
      },
      "t_array(t_struct(Part)3545_storage)dyn_storage": {
        "base": "t_struct(Part)3545_storage",
        "encoding": "dynamic_array",
        "label": "struct LibPart.Part[]",
        "numberOfBytes": "32"
      },
      "t_bool": {
        "encoding": "inplace",
        "label": "bool",
        "numberOfBytes": "1"
      },
      "t_bytes32": {
        "encoding": "inplace",
        "label": "bytes32",
        "numberOfBytes": "32"
      },
      "t_mapping(t_address,t_bool)": {
        "encoding": "mapping",
        "key": "t_address",
        "label": "mapping(address => bool)",
        "numberOfBytes": "32",
        "value": "t_bool"
      },
      "t_mapping(t_address,t_mapping(t_address,t_bool))": {
        "encoding": "mapping",
        "key": "t_address",
        "label": "mapping(address => mapping(address => bool))",
        "numberOfBytes": "32",
        "value": "t_mapping(t_address,t_bool)"
      },
      "t_mapping(t_address,t_uint256)": {
        "encoding": "mapping",
        "key": "t_address",
        "label": "mapping(address => uint256)",
        "numberOfBytes": "32",
        "value": "t_uint256"
      },
      "t_mapping(t_bytes32,t_struct(AddressSet)2663_storage)": {
        "encoding": "mapping",
        "key": "t_bytes32",
        "label": "mapping(bytes32 => struct EnumerableSet.AddressSet)",
        "numberOfBytes": "32",
        "value": "t_struct(AddressSet)2663_storage"
      },
      "t_mapping(t_bytes32,t_struct(RoleData)19_storage)": {
        "encoding": "mapping",
        "key": "t_bytes32",
        "label": "mapping(bytes32 => struct AccessControl.RoleData)",
        "numberOfBytes": "32",
        "value": "t_struct(RoleData)19_storage"
      },
      "t_mapping(t_bytes32,t_uint256)": {
        "encoding": "mapping",
        "key": "t_bytes32",
        "label": "mapping(bytes32 => uint256)",
        "numberOfBytes": "32",
        "value": "t_uint256"
      },
      "t_mapping(t_uint256,t_address)": {
        "encoding": "mapping",
        "key": "t_uint256",
        "label": "mapping(uint256 => address)",
        "numberOfBytes": "32",
        "value": "t_address"
      },
      "t_mapping(t_uint256,t_array(t_struct(Part)3545_storage)dyn_storage)": {
        "encoding": "mapping",
        "key": "t_uint256",
        "label": "mapping(uint256 => struct LibPart.Part[])",
        "numberOfBytes": "32",
        "value": "t_array(t_struct(Part)3545_storage)dyn_storage"
      },
      "t_mapping(t_uint256,t_bool)": {
        "encoding": "mapping",
        "key": "t_uint256",
        "label": "mapping(uint256 => bool)",
        "numberOfBytes": "32",
        "value": "t_bool"
      },
      "t_mapping(t_uint256,t_string_storage)": {
        "encoding": "mapping",
        "key": "t_uint256",
        "label": "mapping(uint256 => string)",
        "numberOfBytes": "32",
        "value": "t_string_storage"
      },
      "t_string_storage": {
        "encoding": "bytes",
        "label": "string",
        "numberOfBytes": "32"
      },
      "t_struct(AddressSet)2663_storage": {
        "encoding": "inplace",
        "label": "struct EnumerableSet.AddressSet",
        "members": [
          {
            "astId": 2662,
            "contract": "contracts/ERC721Lemonade.sol:ERC721Lemonade",
            "label": "_inner",
            "offset": 0,
            "slot": "0",
            "type": "t_struct(Set)2362_storage"
          }
        ],
        "numberOfBytes": "64"
      },
      "t_struct(Counter)2044_storage": {
        "encoding": "inplace",
        "label": "struct Counters.Counter",
        "members": [
          {
            "astId": 2043,
            "contract": "contracts/ERC721Lemonade.sol:ERC721Lemonade",
            "label": "_value",
            "offset": 0,
            "slot": "0",
            "type": "t_uint256"
          }
        ],
        "numberOfBytes": "32"
      },
      "t_struct(Part)3545_storage": {
        "encoding": "inplace",
        "label": "struct LibPart.Part",
        "members": [
          {
            "astId": 3542,
            "contract": "contracts/ERC721Lemonade.sol:ERC721Lemonade",
            "label": "account",
            "offset": 0,
            "slot": "0",
            "type": "t_address_payable"
          },
          {
            "astId": 3544,
            "contract": "contracts/ERC721Lemonade.sol:ERC721Lemonade",
            "label": "value",
            "offset": 20,
            "slot": "0",
            "type": "t_uint96"
          }
        ],
        "numberOfBytes": "32"
      },
      "t_struct(RoleData)19_storage": {
        "encoding": "inplace",
        "label": "struct AccessControl.RoleData",
        "members": [
          {
            "astId": 16,
            "contract": "contracts/ERC721Lemonade.sol:ERC721Lemonade",
            "label": "members",
            "offset": 0,
            "slot": "0",
            "type": "t_mapping(t_address,t_bool)"
          },
          {
            "astId": 18,
            "contract": "contracts/ERC721Lemonade.sol:ERC721Lemonade",
            "label": "adminRole",
            "offset": 0,
            "slot": "1",
            "type": "t_bytes32"
          }
        ],
        "numberOfBytes": "64"
      },
      "t_struct(Set)2362_storage": {
        "encoding": "inplace",
        "label": "struct EnumerableSet.Set",
        "members": [
          {
            "astId": 2357,
            "contract": "contracts/ERC721Lemonade.sol:ERC721Lemonade",
            "label": "_values",
            "offset": 0,
            "slot": "0",
            "type": "t_array(t_bytes32)dyn_storage"
          },
          {
            "astId": 2361,
            "contract": "contracts/ERC721Lemonade.sol:ERC721Lemonade",
            "label": "_indexes",
            "offset": 0,
            "slot": "1",
            "type": "t_mapping(t_bytes32,t_uint256)"
          }
        ],
        "numberOfBytes": "64"
      },
      "t_uint256": {
        "encoding": "inplace",
        "label": "uint256",
        "numberOfBytes": "32"
      },
      "t_uint96": {
        "encoding": "inplace",
        "label": "uint96",
        "numberOfBytes": "12"
      }
    }
  }
}