{
  "address": "0x72dee53512e615f8df09c99e3cc87d9f9e8b9d64",
  "abi": [
    {
      "inputs": [
        {
          "internalType": "string",
          "name": "name",
          "type": "string"
        },
        {
          "internalType": "string",
          "name": "symbol",
          "type": "string"
        },
        {
          "internalType": "address",
          "name": "trustedForwarder_",
          "type": "address"
        },
        {
          "internalType": "address",
          "name": "trustedOperator",
          "type": "address"
        }
      ],
      "stateMutability": "nonpayable",
      "type": "constructor"
    },
    {
      "anonymous": false,
      "inputs": [
        {
          "indexed": true,
          "internalType": "address",
          "name": "owner",
          "type": "address"
        },
        {
          "indexed": true,
          "internalType": "address",
          "name": "approved",
          "type": "address"
        },
        {
          "indexed": true,
          "internalType": "uint256",
          "name": "tokenId",
          "type": "uint256"
        }
      ],
      "name": "Approval",
      "type": "event"
    },
    {
      "anonymous": false,
      "inputs": [
        {
          "indexed": true,
          "internalType": "address",
          "name": "owner",
          "type": "address"
        },
        {
          "indexed": true,
          "internalType": "address",
          "name": "operator",
          "type": "address"
        },
        {
          "indexed": false,
          "internalType": "bool",
          "name": "approved",
          "type": "bool"
        }
      ],
      "name": "ApprovalForAll",
      "type": "event"
    },
    {
      "anonymous": false,
      "inputs": [
        {
          "indexed": true,
          "internalType": "address",
          "name": "previousOwner",
          "type": "address"
        },
        {
          "indexed": true,
          "internalType": "address",
          "name": "newOwner",
          "type": "address"
        }
      ],
      "name": "OwnershipTransferred",
      "type": "event"
    },
    {
      "anonymous": false,
      "inputs": [
        {
          "indexed": false,
          "internalType": "uint256",
          "name": "tokenId",
          "type": "uint256"
        },
        {
          "components": [
            {
              "internalType": "address payable",
              "name": "account",
              "type": "address"
            },
            {
              "internalType": "uint96",
              "name": "value",
              "type": "uint96"
            }
          ],
          "indexed": false,
          "internalType": "struct LibPart.Part[]",
          "name": "royalties",
          "type": "tuple[]"
        }
      ],
      "name": "RoyaltiesSet",
      "type": "event"
    },
    {
      "anonymous": false,
      "inputs": [
        {
          "indexed": true,
          "internalType": "address",
          "name": "from",
          "type": "address"
        },
        {
          "indexed": true,
          "internalType": "address",
          "name": "to",
          "type": "address"
        },
        {
          "indexed": true,
          "internalType": "uint256",
          "name": "tokenId",
          "type": "uint256"
        }
      ],
      "name": "Transfer",
      "type": "event"
    },
    {
      "inputs": [
        {
          "internalType": "address",
          "name": "to",
          "type": "address"
        },
        {
          "internalType": "uint256",
          "name": "tokenId",
          "type": "uint256"
        }
      ],
      "name": "approve",
      "outputs": [],
      "stateMutability": "nonpayable",
      "type": "function"
    },
    {
      "inputs": [
        {
          "internalType": "address",
          "name": "owner",
          "type": "address"
        }
      ],
      "name": "balanceOf",
      "outputs": [
        {
          "internalType": "uint256",
          "name": "",
          "type": "uint256"
        }
      ],
      "stateMutability": "view",
      "type": "function"
    },
    {
      "inputs": [
        {
          "internalType": "uint256",
          "name": "tokenId",
          "type": "uint256"
        }
      ],
      "name": "getApproved",
      "outputs": [
        {
          "internalType": "address",
          "name": "",
          "type": "address"
        }
      ],
      "stateMutability": "view",
      "type": "function"
    },
    {
      "inputs": [
        {
          "internalType": "uint256",
          "name": "id",
          "type": "uint256"
        }
      ],
      "name": "getRaribleV2Royalties",
      "outputs": [
        {
          "components": [
            {
              "internalType": "address payable",
              "name": "account",
              "type": "address"
            },
            {
              "internalType": "uint96",
              "name": "value",
              "type": "uint96"
            }
          ],
          "internalType": "struct LibPart.Part[]",
          "name": "",
          "type": "tuple[]"
        }
      ],
      "stateMutability": "view",
      "type": "function"
    },
    {
      "inputs": [
        {
          "internalType": "address",
          "name": "owner",
          "type": "address"
        },
        {
          "internalType": "address",
          "name": "operator",
          "type": "address"
        }
      ],
      "name": "isApprovedForAll",
      "outputs": [
        {
          "internalType": "bool",
          "name": "",
          "type": "bool"
        }
      ],
      "stateMutability": "view",
      "type": "function"
    },
    {
      "inputs": [
        {
          "internalType": "address",
          "name": "forwarder",
          "type": "address"
        }
      ],
      "name": "isTrustedForwarder",
      "outputs": [
        {
          "internalType": "bool",
          "name": "",
          "type": "bool"
        }
      ],
      "stateMutability": "view",
      "type": "function"
    },
    {
      "inputs": [
        {
          "internalType": "string",
          "name": "tokenURI_",
          "type": "string"
        }
      ],
      "name": "mintToCaller",
      "outputs": [
        {
          "internalType": "uint256",
          "name": "",
          "type": "uint256"
        }
      ],
      "stateMutability": "nonpayable",
      "type": "function"
    },
    {
      "inputs": [
        {
          "internalType": "string",
          "name": "tokenURI_",
          "type": "string"
        },
        {
          "components": [
            {
              "internalType": "address payable",
              "name": "account",
              "type": "address"
            },
            {
              "internalType": "uint96",
              "name": "value",
              "type": "uint96"
            }
          ],
          "internalType": "struct LibPart.Part[]",
          "name": "royalties_",
          "type": "tuple[]"
        }
      ],
      "name": "mintToCallerWithRoyalty",
      "outputs": [
        {
          "internalType": "uint256",
          "name": "",
          "type": "uint256"
        }
      ],
      "stateMutability": "nonpayable",
      "type": "function"
    },
    {
      "inputs": [],
      "name": "name",
      "outputs": [
        {
          "internalType": "string",
          "name": "",
          "type": "string"
        }
      ],
      "stateMutability": "view",
      "type": "function"
    },
    {
      "inputs": [],
      "name": "owner",
      "outputs": [
        {
          "internalType": "address",
          "name": "",
          "type": "address"
        }
      ],
      "stateMutability": "view",
      "type": "function"
    },
    {
      "inputs": [
        {
          "internalType": "uint256",
          "name": "tokenId",
          "type": "uint256"
        }
      ],
      "name": "ownerOf",
      "outputs": [
        {
          "internalType": "address",
          "name": "",
          "type": "address"
        }
      ],
      "stateMutability": "view",
      "type": "function"
    },
    {
      "inputs": [],
      "name": "renounceOwnership",
      "outputs": [],
      "stateMutability": "nonpayable",
      "type": "function"
    },
    {
      "inputs": [
        {
          "internalType": "uint256",
          "name": "tokenId",
          "type": "uint256"
        },
        {
          "internalType": "uint256",
          "name": "price",
          "type": "uint256"
        }
      ],
      "name": "royaltyInfo",
      "outputs": [
        {
          "internalType": "address",
          "name": "receiver",
          "type": "address"
        },
        {
          "internalType": "uint256",
          "name": "royaltyAmount",
          "type": "uint256"
        }
      ],
      "stateMutability": "view",
      "type": "function"
    },
    {
      "inputs": [
        {
          "internalType": "address",
          "name": "from",
          "type": "address"
        },
        {
          "internalType": "address",
          "name": "to",
          "type": "address"
        },
        {
          "internalType": "uint256",
          "name": "tokenId",
          "type": "uint256"
        }
      ],
      "name": "safeTransferFrom",
      "outputs": [],
      "stateMutability": "nonpayable",
      "type": "function"
    },
    {
      "inputs": [
        {
          "internalType": "address",
          "name": "from",
          "type": "address"
        },
        {
          "internalType": "address",
          "name": "to",
          "type": "address"
        },
        {
          "internalType": "uint256",
          "name": "tokenId",
          "type": "uint256"
        },
        {
          "internalType": "bytes",
          "name": "_data",
          "type": "bytes"
        }
      ],
      "name": "safeTransferFrom",
      "outputs": [],
      "stateMutability": "nonpayable",
      "type": "function"
    },
    {
      "inputs": [
        {
          "internalType": "address",
          "name": "operator",
          "type": "address"
        },
        {
          "internalType": "bool",
          "name": "approved",
          "type": "bool"
        }
      ],
      "name": "setApprovalForAll",
      "outputs": [],
      "stateMutability": "nonpayable",
      "type": "function"
    },
    {
      "inputs": [
        {
          "internalType": "bytes4",
          "name": "interfaceId",
          "type": "bytes4"
        }
      ],
      "name": "supportsInterface",
      "outputs": [
        {
          "internalType": "bool",
          "name": "",
          "type": "bool"
        }
      ],
      "stateMutability": "view",
      "type": "function"
    },
    {
      "inputs": [],
      "name": "symbol",
      "outputs": [
        {
          "internalType": "string",
          "name": "",
          "type": "string"
        }
      ],
      "stateMutability": "view",
      "type": "function"
    },
    {
      "inputs": [
        {
          "internalType": "uint256",
          "name": "tokenId",
          "type": "uint256"
        }
      ],
      "name": "tokenURI",
      "outputs": [
        {
          "internalType": "string",
          "name": "",
          "type": "string"
        }
      ],
      "stateMutability": "view",
      "type": "function"
    },
    {
      "inputs": [
        {
          "internalType": "address",
          "name": "from",
          "type": "address"
        },
        {
          "internalType": "address",
          "name": "to",
          "type": "address"
        },
        {
          "internalType": "uint256",
          "name": "tokenId",
          "type": "uint256"
        }
      ],
      "name": "transferFrom",
      "outputs": [],
      "stateMutability": "nonpayable",
      "type": "function"
    },
    {
      "inputs": [
        {
          "internalType": "address",
          "name": "newOwner",
          "type": "address"
        }
      ],
      "name": "transferOwnership",
      "outputs": [],
      "stateMutability": "nonpayable",
      "type": "function"
    },
    {
      "inputs": [],
      "name": "trustedForwarder",
      "outputs": [
        {
          "internalType": "address",
          "name": "",
          "type": "address"
        }
      ],
      "stateMutability": "view",
      "type": "function"
    },
    {
      "inputs": [],
      "name": "versionRecipient",
      "outputs": [
        {
          "internalType": "string",
          "name": "",
          "type": "string"
        }
      ],
      "stateMutability": "pure",
      "type": "function"
    }
  ],
  "transactionHash": "0x1072b71b02dc7dd4c1dfb9936d28f7775c685eac179a4cb84caa4b4aa0ec1748",
  "args": [
    "Non-Fungible Lemon",
    "NFL",
    "0x86C80a8aa58e0A4fa09A69624c31Ab2a6CAD56b8",
    "0x58807baD0B376efc12F5AD86aAc70E78ed67deaE"
  ],
  "numDeployments": 1,
  "solcInputHash": "a3c2ce3dde38e95054ba663fb7987557",
  "bytecode": "0x60806040523480156200001157600080fd5b50604051620022d5380380620022d5833981016040819052620000349162000346565b83838181816000908051906020019062000050929190620001d5565b50805162000066906001906020840190620001d5565b505050620000836200007d620000ba60201b60201c565b62000131565b5050600a80546001600160a01b039384166001600160a01b031991821617909155600b805492909316911617905550620004259050565b600080333014156200011457600080368080601f0160208091040260200160405190810160405280939291908181526020018383808284376000920191909152505050503601516001600160a01b031691506200012c9050565b620001296200018360201b62000cb21760201c565b90505b919050565b600780546001600160a01b038381166001600160a01b0319831681179093556040519116919082907f8be0079c531659141344cd1fd0a4f28419497f9722a3daafe3b4186f6b6457e090600090a35050565b60006200019a6200019f60201b62000cc11760201c565b905090565b600060183610801590620001bd5750600a546001600160a01b031633145b15620001d0575060131936013560601c90565b503390565b828054620001e390620003d2565b90600052602060002090601f01602090048101928262000207576000855562000252565b82601f106200022257805160ff191683800117855562000252565b8280016001018555821562000252579182015b828111156200025257825182559160200191906001019062000235565b506200026092915062000264565b5090565b5b8082111562000260576000815560010162000265565b80516001600160a01b03811681146200012c57600080fd5b600082601f830112620002a4578081fd5b81516001600160401b0380821115620002c157620002c16200040f565b604051601f8301601f19908116603f01168101908282118183101715620002ec57620002ec6200040f565b8160405283815260209250868385880101111562000308578485fd5b8491505b838210156200032b57858201830151818301840152908201906200030c565b838211156200033c57848385830101525b9695505050505050565b600080600080608085870312156200035c578384fd5b84516001600160401b038082111562000373578586fd5b620003818883890162000293565b9550602087015191508082111562000397578485fd5b50620003a68782880162000293565b935050620003b7604086016200027b565b9150620003c7606086016200027b565b905092959194509250565b600181811c90821680620003e757607f821691505b602082108114156200040957634e487b7160e01b600052602260045260246000fd5b50919050565b634e487b7160e01b600052604160045260246000fd5b611ea080620004356000396000f3fe608060405234801561001057600080fd5b506004361061014d5760003560e01c80636352211e116100c3578063a22cb4651161007c578063a22cb465146102f4578063b88d4fde14610307578063c87b56dd1461031a578063cad96cca1461032d578063e985e9c51461034d578063f2fde38b1461036057600080fd5b80636352211e1461029a57806370a08231146102ad578063715018a6146102c05780637da0a877146102c85780638da5cb5b146102db57806395d89b41146102ec57600080fd5b806323b872dd1161011557806323b872dd146101f05780632a55205a1461020357806342842e0e14610235578063486ff0cd14610248578063572b6c051461026557806358b4c6bb1461028757600080fd5b806301ffc9a71461015257806306fdde031461017a578063081812fc1461018f578063095ea7b3146101ba578063111fb47b146101cf575b600080fd5b610165610160366004611985565b610373565b60405190151581526020015b60405180910390f35b610182610384565b6040516101719190611c26565b6101a261019d366004611afb565b610416565b6040516001600160a01b039091168152602001610171565b6101cd6101c836600461195a565b6104b0565b005b6101e26101dd3660046119bd565b6105d8565b604051908152602001610171565b6101cd6101fe36600461186c565b610625565b610216610211366004611b13565b61065d565b604080516001600160a01b039093168352602083019190915201610171565b6101cd61024336600461186c565b6107ac565b6040805180820190915260018152603160f81b6020820152610182565b610165610273366004611818565b600a546001600160a01b0391821691161490565b6101e26102953660046119f0565b6107c7565b6101a26102a8366004611afb565b6107e6565b6101e26102bb366004611818565b61085d565b6101cd6108e4565b600a546101a2906001600160a01b031681565b6007546001600160a01b03166101a2565b610182610969565b6101cd610302366004611929565b610978565b6101cd6103153660046118ac565b61098e565b610182610328366004611afb565b6109cd565b61034061033b366004611afb565b610aea565b6040516101719190611c13565b61016561035b366004611834565b610b79565b6101cd61036e366004611818565b610bc8565b600061037e82610cf5565b92915050565b60606000805461039390611dbd565b80601f01602080910402602001604051908101604052809291908181526020018280546103bf90611dbd565b801561040c5780601f106103e15761010080835404028352916020019161040c565b820191906000526020600020905b8154815290600101906020018083116103ef57829003601f168201915b5050505050905090565b6000818152600260205260408120546001600160a01b03166104945760405162461bcd60e51b815260206004820152602c60248201527f4552433732313a20617070726f76656420717565727920666f72206e6f6e657860448201526b34b9ba32b73a103a37b5b2b760a11b60648201526084015b60405180910390fd5b506000908152600460205260409020546001600160a01b031690565b60006104bb826107e6565b9050806001600160a01b0316836001600160a01b031614156105295760405162461bcd60e51b815260206004820152602160248201527f4552433732313a20617070726f76616c20746f2063757272656e74206f776e656044820152603960f91b606482015260840161048b565b806001600160a01b031661053b610d35565b6001600160a01b0316148061055757506105578161035b610d35565b6105c95760405162461bcd60e51b815260206004820152603860248201527f4552433732313a20617070726f76652063616c6c6572206973206e6f74206f7760448201527f6e6572206e6f7220617070726f76656420666f7220616c6c0000000000000000606482015260840161048b565b6105d38383610d9d565b505050565b6000806105e460085490565b90506105f76105f1610d35565b82610e0b565b6000818152600960209081526040909120845161061692860190611708565b5061037e600880546001019055565b610636610630610d35565b82610f4d565b6106525760405162461bcd60e51b815260040161048b90611c8b565b6105d3838383611024565b6000828152600660209081526040808320805482518185028101850190935280835284938493929190849084015b828210156106da57600084815260209081902060408051808201909152908401546001600160a01b0381168252600160a01b90046001600160601b03168183015282526001909201910161068b565b505082519293505050806106f6576000809350935050506107a5565b6000805b828110156107565783818151811061072257634e487b7160e01b600052603260045260246000fd5b6020026020010151602001516001600160601b0316826107429190611d4f565b91508061074e81611df8565b9150506106fa565b508260008151811061077857634e487b7160e01b600052603260045260246000fd5b60200260200101516000015161271082886107939190611d87565b61079d9190611d67565b945094505050505b9250929050565b6105d38383836040518060200160405280600081525061098e565b6000806107d3846105d8565b90506107df81846111c0565b9392505050565b6000818152600260205260408120546001600160a01b03168061037e5760405162461bcd60e51b815260206004820152602960248201527f4552433732313a206f776e657220717565727920666f72206e6f6e657869737460448201526832b73a103a37b5b2b760b91b606482015260840161048b565b60006001600160a01b0382166108c85760405162461bcd60e51b815260206004820152602a60248201527f4552433732313a2062616c616e636520717565727920666f7220746865207a65604482015269726f206164647265737360b01b606482015260840161048b565b506001600160a01b031660009081526003602052604090205490565b6108ec610d35565b6001600160a01b03166109076007546001600160a01b031690565b6001600160a01b03161461095d5760405162461bcd60e51b815260206004820181905260248201527f4f776e61626c653a2063616c6c6572206973206e6f7420746865206f776e6572604482015260640161048b565b6109676000611413565b565b60606001805461039390611dbd565b61098a610983610d35565b8383611465565b5050565b61099f610999610d35565b83610f4d565b6109bb5760405162461bcd60e51b815260040161048b90611c8b565b6109c784848484611534565b50505050565b6000818152600260205260409020546060906001600160a01b0316610a4c5760405162461bcd60e51b815260206004820152602f60248201527f4552433732314c656d6f6e6164653a2055524920717565727920666f72206e6f60448201526e3732bc34b9ba32b73a103a37b5b2b760891b606482015260840161048b565b60008281526009602052604090208054610a6590611dbd565b80601f0160208091040260200160405190810160405280929190818152602001828054610a9190611dbd565b8015610ade5780601f10610ab357610100808354040283529160200191610ade565b820191906000526020600020905b815481529060010190602001808311610ac157829003601f168201915b50505050509050919050565b606060066000838152602001908152602001600020805480602002602001604051908101604052809291908181526020016000905b82821015610b6e57600084815260209081902060408051808201909152908401546001600160a01b0381168252600160a01b90046001600160601b031681830152825260019092019101610b1f565b505050509050919050565b600b546000906001600160a01b0383811691161415610b9a5750600161037e565b6001600160a01b0380841660009081526005602090815260408083209386168352929052205460ff166107df565b610bd0610d35565b6001600160a01b0316610beb6007546001600160a01b031690565b6001600160a01b031614610c415760405162461bcd60e51b815260206004820181905260248201527f4f776e61626c653a2063616c6c6572206973206e6f7420746865206f776e6572604482015260640161048b565b6001600160a01b038116610ca65760405162461bcd60e51b815260206004820152602660248201527f4f776e61626c653a206e6577206f776e657220697320746865207a65726f206160448201526564647265737360d01b606482015260840161048b565b610caf81611413565b50565b6000610cbc610cc1565b905090565b600060183610801590610cde5750600a546001600160a01b031633145b15610cf0575060131936013560601c90565b503390565b60006001600160e01b0319821663152a902d60e11b1480610d2657506001600160e01b0319821663656cb66560e11b145b8061037e575061037e82611567565b60008033301415610d8d57600080368080601f0160208091040260200160405190810160405280939291908181526020018383808284376000920191909152505050503601516001600160a01b03169150610d989050565b610d95610cb2565b90505b919050565b600081815260046020526040902080546001600160a01b0319166001600160a01b0384169081179091558190610dd2826107e6565b6001600160a01b03167f8c5be1e5ebec7d5bd14f71427d1e84f3dd0314c0f7b2291e5b200ac8c7c3b92560405160405180910390a45050565b6001600160a01b038216610e615760405162461bcd60e51b815260206004820181905260248201527f4552433732313a206d696e7420746f20746865207a65726f2061646472657373604482015260640161048b565b6000818152600260205260409020546001600160a01b031615610ec65760405162461bcd60e51b815260206004820152601c60248201527f4552433732313a20746f6b656e20616c7265616479206d696e74656400000000604482015260640161048b565b6001600160a01b0382166000908152600360205260408120805460019290610eef908490611d4f565b909155505060008181526002602052604080822080546001600160a01b0319166001600160a01b03861690811790915590518392907fddf252ad1be2c89b69c2b068fc378daa952ba7f163c4a11628f55a4df523b3ef908290a45050565b6000818152600260205260408120546001600160a01b0316610fc65760405162461bcd60e51b815260206004820152602c60248201527f4552433732313a206f70657261746f7220717565727920666f72206e6f6e657860448201526b34b9ba32b73a103a37b5b2b760a11b606482015260840161048b565b6000610fd1836107e6565b9050806001600160a01b0316846001600160a01b03161480610ff85750610ff88185610b79565b8061101c5750836001600160a01b031661101184610416565b6001600160a01b0316145b949350505050565b826001600160a01b0316611037826107e6565b6001600160a01b03161461109b5760405162461bcd60e51b815260206004820152602560248201527f4552433732313a207472616e736665722066726f6d20696e636f72726563742060448201526437bbb732b960d91b606482015260840161048b565b6001600160a01b0382166110fd5760405162461bcd60e51b8152602060048201526024808201527f4552433732313a207472616e7366657220746f20746865207a65726f206164646044820152637265737360e01b606482015260840161048b565b611108600082610d9d565b6001600160a01b0383166000908152600360205260408120805460019290611131908490611da6565b90915550506001600160a01b038216600090815260036020526040812080546001929061115f908490611d4f565b909155505060008181526002602052604080822080546001600160a01b0319166001600160a01b0386811691821790925591518493918716917fddf252ad1be2c89b69c2b068fc378daa952ba7f163c4a11628f55a4df523b3ef91a4505050565b6000805b82518110156113a95760006001600160a01b03168382815181106111f857634e487b7160e01b600052603260045260246000fd5b6020026020010151600001516001600160a01b0316141561125b5760405162461bcd60e51b815260206004820152601b60248201527f526563697069656e742073686f756c642062652070726573656e740000000000604482015260640161048b565b82818151811061127b57634e487b7160e01b600052603260045260246000fd5b6020026020010151602001516001600160601b0316600014156112e05760405162461bcd60e51b815260206004820181905260248201527f526f79616c74792076616c75652073686f756c6420626520706f736974697665604482015260640161048b565b82818151811061130057634e487b7160e01b600052603260045260246000fd5b6020026020010151602001516001600160601b0316826113209190611d4f565b91506006600085815260200190815260200160002083828151811061135557634e487b7160e01b600052603260045260246000fd5b6020908102919091018101518254600181018455600093845292829020815191909201516001600160601b0316600160a01b026001600160a01b0390911617910155806113a181611df8565b9150506111c4565b5061271081106114095760405162461bcd60e51b815260206004820152602560248201527f526f79616c747920746f74616c2076616c75652073686f756c64206265203c20604482015264031303030360dc1b606482015260840161048b565b6105d383836115b7565b600780546001600160a01b038381166001600160a01b0319831681179093556040519116919082907f8be0079c531659141344cd1fd0a4f28419497f9722a3daafe3b4186f6b6457e090600090a35050565b816001600160a01b0316836001600160a01b031614156114c75760405162461bcd60e51b815260206004820152601960248201527f4552433732313a20617070726f766520746f2063616c6c657200000000000000604482015260640161048b565b6001600160a01b03838116600081815260056020908152604080832094871680845294825291829020805460ff191686151590811790915591519182527f17307eab39ab6107e8899845ad3d59bd9653f200f220920489ca2b5937696c31910160405180910390a3505050565b61153f848484611024565b61154b848484846115f4565b6109c75760405162461bcd60e51b815260040161048b90611c39565b60006001600160e01b031982166380ac58cd60e01b148061159857506001600160e01b03198216635b5e139f60e01b145b8061037e57506301ffc9a760e01b6001600160e01b031983161461037e565b7f3fa96d7b6bcbfe71ef171666d84db3cf52fa2d1c8afdb1cc8e486177f208b7df82826040516115e8929190611cdc565b60405180910390a15050565b60006001600160a01b0384163b156116fd57836001600160a01b031663150b7a0261161d610d35565b8786866040518563ffffffff1660e01b815260040161163f9493929190611bd6565b602060405180830381600087803b15801561165957600080fd5b505af1925050508015611689575060408051601f3d908101601f19168201909252611686918101906119a1565b60015b6116e3573d8080156116b7576040519150601f19603f3d011682016040523d82523d6000602084013e6116bc565b606091505b5080516116db5760405162461bcd60e51b815260040161048b90611c39565b805181602001fd5b6001600160e01b031916630a85bd0160e11b14905061101c565b506001949350505050565b82805461171490611dbd565b90600052602060002090601f016020900481019282611736576000855561177c565b82601f1061174f57805160ff191683800117855561177c565b8280016001018555821561177c579182015b8281111561177c578251825591602001919060010190611761565b5061178892915061178c565b5090565b5b80821115611788576000815560010161178d565b600067ffffffffffffffff8311156117bb576117bb611e29565b6117ce601f8401601f1916602001611d1e565b90508281528383830111156117e257600080fd5b828260208301376000602084830101529392505050565b600082601f830112611809578081fd5b6107df838335602085016117a1565b600060208284031215611829578081fd5b81356107df81611e3f565b60008060408385031215611846578081fd5b823561185181611e3f565b9150602083013561186181611e3f565b809150509250929050565b600080600060608486031215611880578081fd5b833561188b81611e3f565b9250602084013561189b81611e3f565b929592945050506040919091013590565b600080600080608085870312156118c1578081fd5b84356118cc81611e3f565b935060208501356118dc81611e3f565b925060408501359150606085013567ffffffffffffffff8111156118fe578182fd5b8501601f8101871361190e578182fd5b61191d878235602084016117a1565b91505092959194509250565b6000806040838503121561193b578182fd5b823561194681611e3f565b915060208301358015158114611861578182fd5b6000806040838503121561196c578182fd5b823561197781611e3f565b946020939093013593505050565b600060208284031215611996578081fd5b81356107df81611e54565b6000602082840312156119b2578081fd5b81516107df81611e54565b6000602082840312156119ce578081fd5b813567ffffffffffffffff8111156119e4578182fd5b61101c848285016117f9565b6000806040808486031215611a03578283fd5b833567ffffffffffffffff80821115611a1a578485fd5b611a26878388016117f9565b9450602091508186013581811115611a3c578485fd5b8601601f81018813611a4c578485fd5b803582811115611a5e57611a5e611e29565b611a6c848260051b01611d1e565b8181528481019350828501600683901b840186018b1015611a8b578788fd5b8793505b82841015611aea5786818c031215611aa5578788fd5b611aad611cf5565b8135611ab881611e3f565b8152818701356001600160601b0381168114611ad257898afd5b81880152855293850193600193909301928601611a8f565b508096505050505050509250929050565b600060208284031215611b0c578081fd5b5035919050565b60008060408385031215611b25578182fd5b50508035926020909101359150565b6000815180845260208085019450808401835b83811015611b8057815180516001600160a01b031688528301516001600160601b03168388015260409096019590820190600101611b47565b509495945050505050565b60008151808452815b81811015611bb057602081850181015186830182015201611b94565b81811115611bc15782602083870101525b50601f01601f19169290920160200192915050565b6001600160a01b0385811682528416602082015260408101839052608060608201819052600090611c0990830184611b8b565b9695505050505050565b6020815260006107df6020830184611b34565b6020815260006107df6020830184611b8b565b60208082526032908201527f4552433732313a207472616e7366657220746f206e6f6e20455243373231526560408201527131b2b4bb32b91034b6b83632b6b2b73a32b960711b606082015260800190565b60208082526031908201527f4552433732313a207472616e736665722063616c6c6572206973206e6f74206f6040820152701ddb995c881b9bdc88185c1c1c9bdd9959607a1b606082015260800190565b82815260406020820152600061101c6040830184611b34565b6040805190810167ffffffffffffffff81118282101715611d1857611d18611e29565b60405290565b604051601f8201601f1916810167ffffffffffffffff81118282101715611d4757611d47611e29565b604052919050565b60008219821115611d6257611d62611e13565b500190565b600082611d8257634e487b7160e01b81526012600452602481fd5b500490565b6000816000190483118215151615611da157611da1611e13565b500290565b600082821015611db857611db8611e13565b500390565b600181811c90821680611dd157607f821691505b60208210811415611df257634e487b7160e01b600052602260045260246000fd5b50919050565b6000600019821415611e0c57611e0c611e13565b5060010190565b634e487b7160e01b600052601160045260246000fd5b634e487b7160e01b600052604160045260246000fd5b6001600160a01b0381168114610caf57600080fd5b6001600160e01b031981168114610caf57600080fdfea26469706673582212207cfec61d0afd095a979b158640f1f31aa0c5bbba69f969682a385877775b870464736f6c63430008040033",
  "devdoc": {
    "kind": "dev",
    "methods": {
      "approve(address,uint256)": {
        "details": "See {IERC721-approve}."
      },
      "balanceOf(address)": {
        "details": "See {IERC721-balanceOf}."
      },
      "getApproved(uint256)": {
        "details": "See {IERC721-getApproved}."
      },
      "isApprovedForAll(address,address)": {
        "details": "See {IERC721-isApprovedForAll}."
      },
      "name()": {
        "details": "See {IERC721Metadata-name}."
      },
      "owner()": {
        "details": "Returns the address of the current owner."
      },
      "ownerOf(uint256)": {
        "details": "See {IERC721-ownerOf}."
      },
      "renounceOwnership()": {
        "details": "Leaves the contract without owner. It will not be possible to call `onlyOwner` functions anymore. Can only be called by the current owner. NOTE: Renouncing ownership will leave the contract without an owner, thereby removing any functionality that is only available to the owner."
      },
      "safeTransferFrom(address,address,uint256)": {
        "details": "See {IERC721-safeTransferFrom}."
      },
      "safeTransferFrom(address,address,uint256,bytes)": {
        "details": "See {IERC721-safeTransferFrom}."
      },
      "setApprovalForAll(address,bool)": {
        "details": "See {IERC721-setApprovalForAll}."
      },
      "symbol()": {
        "details": "See {IERC721Metadata-symbol}."
      },
      "tokenURI(uint256)": {
        "details": "See {IERC721Metadata-tokenURI}."
      },
      "transferFrom(address,address,uint256)": {
        "details": "See {IERC721-transferFrom}."
      },
      "transferOwnership(address)": {
        "details": "Transfers ownership of the contract to a new account (`newOwner`). Can only be called by the current owner."
      }
    },
    "version": 1
  },
  "userdoc": {
    "kind": "user",
    "methods": {
      "isTrustedForwarder(address)": {
        "notice": "return if the forwarder is trusted to forward relayed transactions to us. the forwarder is required to verify the sender's signature, and verify the call is not a replay."
      }
    },
    "version": 1
  },
  "storageLayout": {
    "storage": [
      {
        "astId": 1454,
        "contract": "contracts/ERC721LemonadeV1Polygon.sol:ERC721LemonadeV1Polygon",
        "label": "_name",
        "offset": 0,
        "slot": "0",
        "type": "t_string_storage"
      },
      {
        "astId": 1456,
        "contract": "contracts/ERC721LemonadeV1Polygon.sol:ERC721LemonadeV1Polygon",
        "label": "_symbol",
        "offset": 0,
        "slot": "1",
        "type": "t_string_storage"
      },
      {
        "astId": 1460,
        "contract": "contracts/ERC721LemonadeV1Polygon.sol:ERC721LemonadeV1Polygon",
        "label": "_owners",
        "offset": 0,
        "slot": "2",
        "type": "t_mapping(t_uint256,t_address)"
      },
      {
        "astId": 1464,
        "contract": "contracts/ERC721LemonadeV1Polygon.sol:ERC721LemonadeV1Polygon",
        "label": "_balances",
        "offset": 0,
        "slot": "3",
        "type": "t_mapping(t_address,t_uint256)"
      },
      {
        "astId": 1468,
        "contract": "contracts/ERC721LemonadeV1Polygon.sol:ERC721LemonadeV1Polygon",
        "label": "_tokenApprovals",
        "offset": 0,
        "slot": "4",
        "type": "t_mapping(t_uint256,t_address)"
      },
      {
        "astId": 1474,
        "contract": "contracts/ERC721LemonadeV1Polygon.sol:ERC721LemonadeV1Polygon",
        "label": "_operatorApprovals",
        "offset": 0,
        "slot": "5",
        "type": "t_mapping(t_address,t_mapping(t_address,t_bool))"
      },
      {
        "astId": 9343,
        "contract": "contracts/ERC721LemonadeV1Polygon.sol:ERC721LemonadeV1Polygon",
        "label": "royalties",
        "offset": 0,
        "slot": "6",
        "type": "t_mapping(t_uint256,t_array(t_struct(Part)9291_storage)dyn_storage)"
      },
      {
        "astId": 550,
        "contract": "contracts/ERC721LemonadeV1Polygon.sol:ERC721LemonadeV1Polygon",
        "label": "_owner",
        "offset": 0,
        "slot": "7",
        "type": "t_address"
      },
      {
        "astId": 5903,
        "contract": "contracts/ERC721LemonadeV1Polygon.sol:ERC721LemonadeV1Polygon",
        "label": "_tokenIdTracker",
        "offset": 0,
        "slot": "8",
        "type": "t_struct(Counter)3214_storage"
      },
      {
        "astId": 5907,
        "contract": "contracts/ERC721LemonadeV1Polygon.sol:ERC721LemonadeV1Polygon",
        "label": "_tokenURIs",
        "offset": 0,
        "slot": "9",
        "type": "t_mapping(t_uint256,t_string_storage)"
      },
      {
        "astId": 9202,
        "contract": "contracts/ERC721LemonadeV1Polygon.sol:ERC721LemonadeV1Polygon",
        "label": "trustedForwarder",
        "offset": 0,
        "slot": "10",
        "type": "t_address"
      },
      {
        "astId": 6136,
        "contract": "contracts/ERC721LemonadeV1Polygon.sol:ERC721LemonadeV1Polygon",
        "label": "_trustedOperator",
        "offset": 0,
        "slot": "11",
        "type": "t_address"
      }
    ],
    "types": {
      "t_address": {
        "encoding": "inplace",
        "label": "address",
        "numberOfBytes": "20"
      },
      "t_address_payable": {
        "encoding": "inplace",
        "label": "address payable",
        "numberOfBytes": "20"
      },
      "t_array(t_struct(Part)9291_storage)dyn_storage": {
        "base": "t_struct(Part)9291_storage",
        "encoding": "dynamic_array",
        "label": "struct LibPart.Part[]",
        "numberOfBytes": "32"
      },
      "t_bool": {
        "encoding": "inplace",
        "label": "bool",
        "numberOfBytes": "1"
      },
      "t_mapping(t_address,t_bool)": {
        "encoding": "mapping",
        "key": "t_address",
        "label": "mapping(address => bool)",
        "numberOfBytes": "32",
        "value": "t_bool"
      },
      "t_mapping(t_address,t_mapping(t_address,t_bool))": {
        "encoding": "mapping",
        "key": "t_address",
        "label": "mapping(address => mapping(address => bool))",
        "numberOfBytes": "32",
        "value": "t_mapping(t_address,t_bool)"
      },
      "t_mapping(t_address,t_uint256)": {
        "encoding": "mapping",
        "key": "t_address",
        "label": "mapping(address => uint256)",
        "numberOfBytes": "32",
        "value": "t_uint256"
      },
      "t_mapping(t_uint256,t_address)": {
        "encoding": "mapping",
        "key": "t_uint256",
        "label": "mapping(uint256 => address)",
        "numberOfBytes": "32",
        "value": "t_address"
      },
      "t_mapping(t_uint256,t_array(t_struct(Part)9291_storage)dyn_storage)": {
        "encoding": "mapping",
        "key": "t_uint256",
        "label": "mapping(uint256 => struct LibPart.Part[])",
        "numberOfBytes": "32",
        "value": "t_array(t_struct(Part)9291_storage)dyn_storage"
      },
      "t_mapping(t_uint256,t_string_storage)": {
        "encoding": "mapping",
        "key": "t_uint256",
        "label": "mapping(uint256 => string)",
        "numberOfBytes": "32",
        "value": "t_string_storage"
      },
      "t_string_storage": {
        "encoding": "bytes",
        "label": "string",
        "numberOfBytes": "32"
      },
      "t_struct(Counter)3214_storage": {
        "encoding": "inplace",
        "label": "struct Counters.Counter",
        "members": [
          {
            "astId": 3213,
            "contract": "contracts/ERC721LemonadeV1Polygon.sol:ERC721LemonadeV1Polygon",
            "label": "_value",
            "offset": 0,
            "slot": "0",
            "type": "t_uint256"
          }
        ],
        "numberOfBytes": "32"
      },
      "t_struct(Part)9291_storage": {
        "encoding": "inplace",
        "label": "struct LibPart.Part",
        "members": [
          {
            "astId": 9288,
            "contract": "contracts/ERC721LemonadeV1Polygon.sol:ERC721LemonadeV1Polygon",
            "label": "account",
            "offset": 0,
            "slot": "0",
            "type": "t_address_payable"
          },
          {
            "astId": 9290,
            "contract": "contracts/ERC721LemonadeV1Polygon.sol:ERC721LemonadeV1Polygon",
            "label": "value",
            "offset": 20,
            "slot": "0",
            "type": "t_uint96"
          }
        ],
        "numberOfBytes": "32"
      },
      "t_uint256": {
        "encoding": "inplace",
        "label": "uint256",
        "numberOfBytes": "32"
      },
      "t_uint96": {
        "encoding": "inplace",
        "label": "uint96",
        "numberOfBytes": "12"
      }
    }
  }
}