{
  "address": "0x7254e06afb533964b389Be742524FA696a290C81",
  "abi": [
    {
      "inputs": [
        {
          "internalType": "string",
          "name": "name",
          "type": "string"
        },
        {
          "internalType": "string",
          "name": "symbol",
          "type": "string"
        }
      ],
      "stateMutability": "nonpayable",
      "type": "constructor"
    },
    {
      "anonymous": false,
      "inputs": [
        {
          "indexed": true,
          "internalType": "address",
          "name": "owner",
          "type": "address"
        },
        {
          "indexed": true,
          "internalType": "address",
          "name": "approved",
          "type": "address"
        },
        {
          "indexed": true,
          "internalType": "uint256",
          "name": "tokenId",
          "type": "uint256"
        }
      ],
      "name": "Approval",
      "type": "event"
    },
    {
      "anonymous": false,
      "inputs": [
        {
          "indexed": true,
          "internalType": "address",
          "name": "owner",
          "type": "address"
        },
        {
          "indexed": true,
          "internalType": "address",
          "name": "operator",
          "type": "address"
        },
        {
          "indexed": false,
          "internalType": "bool",
          "name": "approved",
          "type": "bool"
        }
      ],
      "name": "ApprovalForAll",
      "type": "event"
    },
    {
      "anonymous": false,
      "inputs": [
        {
          "indexed": false,
          "internalType": "address",
          "name": "account",
          "type": "address"
        }
      ],
      "name": "Paused",
      "type": "event"
    },
    {
      "anonymous": false,
      "inputs": [
        {
          "indexed": true,
          "internalType": "bytes32",
          "name": "role",
          "type": "bytes32"
        },
        {
          "indexed": true,
          "internalType": "bytes32",
          "name": "previousAdminRole",
          "type": "bytes32"
        },
        {
          "indexed": true,
          "internalType": "bytes32",
          "name": "newAdminRole",
          "type": "bytes32"
        }
      ],
      "name": "RoleAdminChanged",
      "type": "event"
    },
    {
      "anonymous": false,
      "inputs": [
        {
          "indexed": true,
          "internalType": "bytes32",
          "name": "role",
          "type": "bytes32"
        },
        {
          "indexed": true,
          "internalType": "address",
          "name": "account",
          "type": "address"
        },
        {
          "indexed": true,
          "internalType": "address",
          "name": "sender",
          "type": "address"
        }
      ],
      "name": "RoleGranted",
      "type": "event"
    },
    {
      "anonymous": false,
      "inputs": [
        {
          "indexed": true,
          "internalType": "bytes32",
          "name": "role",
          "type": "bytes32"
        },
        {
          "indexed": true,
          "internalType": "address",
          "name": "account",
          "type": "address"
        },
        {
          "indexed": true,
          "internalType": "address",
          "name": "sender",
          "type": "address"
        }
      ],
      "name": "RoleRevoked",
      "type": "event"
    },
    {
      "anonymous": false,
      "inputs": [
        {
          "indexed": true,
          "internalType": "address",
          "name": "from",
          "type": "address"
        },
        {
          "indexed": true,
          "internalType": "address",
          "name": "to",
          "type": "address"
        },
        {
          "indexed": true,
          "internalType": "uint256",
          "name": "tokenId",
          "type": "uint256"
        }
      ],
      "name": "Transfer",
      "type": "event"
    },
    {
      "anonymous": false,
      "inputs": [
        {
          "indexed": false,
          "internalType": "address",
          "name": "account",
          "type": "address"
        }
      ],
      "name": "Unpaused",
      "type": "event"
    },
    {
      "inputs": [],
      "name": "DEFAULT_ADMIN_ROLE",
      "outputs": [
        {
          "internalType": "bytes32",
          "name": "",
          "type": "bytes32"
        }
      ],
      "stateMutability": "view",
      "type": "function"
    },
    {
      "inputs": [],
      "name": "PAUSER_ROLE",
      "outputs": [
        {
          "internalType": "bytes32",
          "name": "",
          "type": "bytes32"
        }
      ],
      "stateMutability": "view",
      "type": "function"
    },
    {
      "inputs": [
        {
          "internalType": "address",
          "name": "to",
          "type": "address"
        },
        {
          "internalType": "uint256",
          "name": "tokenId",
          "type": "uint256"
        }
      ],
      "name": "approve",
      "outputs": [],
      "stateMutability": "nonpayable",
      "type": "function"
    },
    {
      "inputs": [
        {
          "internalType": "address",
          "name": "owner",
          "type": "address"
        }
      ],
      "name": "balanceOf",
      "outputs": [
        {
          "internalType": "uint256",
          "name": "",
          "type": "uint256"
        }
      ],
      "stateMutability": "view",
      "type": "function"
    },
    {
      "inputs": [
        {
          "internalType": "uint256",
          "name": "tokenId",
          "type": "uint256"
        }
      ],
      "name": "burn",
      "outputs": [],
      "stateMutability": "nonpayable",
      "type": "function"
    },
    {
      "inputs": [
        {
          "internalType": "uint256",
          "name": "tokenId",
          "type": "uint256"
        }
      ],
      "name": "getApproved",
      "outputs": [
        {
          "internalType": "address",
          "name": "",
          "type": "address"
        }
      ],
      "stateMutability": "view",
      "type": "function"
    },
    {
      "inputs": [
        {
          "internalType": "bytes32",
          "name": "role",
          "type": "bytes32"
        }
      ],
      "name": "getRoleAdmin",
      "outputs": [
        {
          "internalType": "bytes32",
          "name": "",
          "type": "bytes32"
        }
      ],
      "stateMutability": "view",
      "type": "function"
    },
    {
      "inputs": [
        {
          "internalType": "bytes32",
          "name": "role",
          "type": "bytes32"
        },
        {
          "internalType": "uint256",
          "name": "index",
          "type": "uint256"
        }
      ],
      "name": "getRoleMember",
      "outputs": [
        {
          "internalType": "address",
          "name": "",
          "type": "address"
        }
      ],
      "stateMutability": "view",
      "type": "function"
    },
    {
      "inputs": [
        {
          "internalType": "bytes32",
          "name": "role",
          "type": "bytes32"
        }
      ],
      "name": "getRoleMemberCount",
      "outputs": [
        {
          "internalType": "uint256",
          "name": "",
          "type": "uint256"
        }
      ],
      "stateMutability": "view",
      "type": "function"
    },
    {
      "inputs": [
        {
          "internalType": "bytes32",
          "name": "role",
          "type": "bytes32"
        },
        {
          "internalType": "address",
          "name": "account",
          "type": "address"
        }
      ],
      "name": "grantRole",
      "outputs": [],
      "stateMutability": "nonpayable",
      "type": "function"
    },
    {
      "inputs": [
        {
          "internalType": "bytes32",
          "name": "role",
          "type": "bytes32"
        },
        {
          "internalType": "address",
          "name": "account",
          "type": "address"
        }
      ],
      "name": "hasRole",
      "outputs": [
        {
          "internalType": "bool",
          "name": "",
          "type": "bool"
        }
      ],
      "stateMutability": "view",
      "type": "function"
    },
    {
      "inputs": [
        {
          "internalType": "address",
          "name": "owner",
          "type": "address"
        },
        {
          "internalType": "address",
          "name": "operator",
          "type": "address"
        }
      ],
      "name": "isApprovedForAll",
      "outputs": [
        {
          "internalType": "bool",
          "name": "",
          "type": "bool"
        }
      ],
      "stateMutability": "view",
      "type": "function"
    },
    {
      "inputs": [
        {
          "internalType": "string",
          "name": "tokenURI_",
          "type": "string"
        }
      ],
      "name": "mintToCaller",
      "outputs": [
        {
          "internalType": "uint256",
          "name": "",
          "type": "uint256"
        }
      ],
      "stateMutability": "nonpayable",
      "type": "function"
    },
    {
      "inputs": [
        {
          "internalType": "string",
          "name": "tokenURI_",
          "type": "string"
        },
        {
          "internalType": "uint256",
          "name": "fraction",
          "type": "uint256"
        }
      ],
      "name": "mintToCallerWithRoyalty",
      "outputs": [
        {
          "internalType": "uint256",
          "name": "",
          "type": "uint256"
        }
      ],
      "stateMutability": "nonpayable",
      "type": "function"
    },
    {
      "inputs": [],
      "name": "name",
      "outputs": [
        {
          "internalType": "string",
          "name": "",
          "type": "string"
        }
      ],
      "stateMutability": "view",
      "type": "function"
    },
    {
      "inputs": [
        {
          "internalType": "uint256",
          "name": "tokenId",
          "type": "uint256"
        }
      ],
      "name": "ownerOf",
      "outputs": [
        {
          "internalType": "address",
          "name": "",
          "type": "address"
        }
      ],
      "stateMutability": "view",
      "type": "function"
    },
    {
      "inputs": [],
      "name": "pause",
      "outputs": [],
      "stateMutability": "nonpayable",
      "type": "function"
    },
    {
      "inputs": [],
      "name": "paused",
      "outputs": [
        {
          "internalType": "bool",
          "name": "",
          "type": "bool"
        }
      ],
      "stateMutability": "view",
      "type": "function"
    },
    {
      "inputs": [
        {
          "internalType": "bytes32",
          "name": "role",
          "type": "bytes32"
        },
        {
          "internalType": "address",
          "name": "account",
          "type": "address"
        }
      ],
      "name": "renounceRole",
      "outputs": [],
      "stateMutability": "nonpayable",
      "type": "function"
    },
    {
      "inputs": [
        {
          "internalType": "bytes32",
          "name": "role",
          "type": "bytes32"
        },
        {
          "internalType": "address",
          "name": "account",
          "type": "address"
        }
      ],
      "name": "revokeRole",
      "outputs": [],
      "stateMutability": "nonpayable",
      "type": "function"
    },
    {
      "inputs": [
        {
          "internalType": "uint256",
          "name": "tokenId",
          "type": "uint256"
        }
      ],
      "name": "royalty",
      "outputs": [
        {
          "internalType": "address",
          "name": "",
          "type": "address"
        },
        {
          "internalType": "uint256",
          "name": "",
          "type": "uint256"
        }
      ],
      "stateMutability": "view",
      "type": "function"
    },
    {
      "inputs": [
        {
          "internalType": "address",
          "name": "from",
          "type": "address"
        },
        {
          "internalType": "address",
          "name": "to",
          "type": "address"
        },
        {
          "internalType": "uint256",
          "name": "tokenId",
          "type": "uint256"
        }
      ],
      "name": "safeTransferFrom",
      "outputs": [],
      "stateMutability": "nonpayable",
      "type": "function"
    },
    {
      "inputs": [
        {
          "internalType": "address",
          "name": "from",
          "type": "address"
        },
        {
          "internalType": "address",
          "name": "to",
          "type": "address"
        },
        {
          "internalType": "uint256",
          "name": "tokenId",
          "type": "uint256"
        },
        {
          "internalType": "bytes",
          "name": "_data",
          "type": "bytes"
        }
      ],
      "name": "safeTransferFrom",
      "outputs": [],
      "stateMutability": "nonpayable",
      "type": "function"
    },
    {
      "inputs": [
        {
          "internalType": "address",
          "name": "operator",
          "type": "address"
        },
        {
          "internalType": "bool",
          "name": "approved",
          "type": "bool"
        }
      ],
      "name": "setApprovalForAll",
      "outputs": [],
      "stateMutability": "nonpayable",
      "type": "function"
    },
    {
      "inputs": [
        {
          "internalType": "bytes4",
          "name": "interfaceId",
          "type": "bytes4"
        }
      ],
      "name": "supportsInterface",
      "outputs": [
        {
          "internalType": "bool",
          "name": "",
          "type": "bool"
        }
      ],
      "stateMutability": "view",
      "type": "function"
    },
    {
      "inputs": [],
      "name": "symbol",
      "outputs": [
        {
          "internalType": "string",
          "name": "",
          "type": "string"
        }
      ],
      "stateMutability": "view",
      "type": "function"
    },
    {
      "inputs": [
        {
          "internalType": "uint256",
          "name": "index",
          "type": "uint256"
        }
      ],
      "name": "tokenByIndex",
      "outputs": [
        {
          "internalType": "uint256",
          "name": "",
          "type": "uint256"
        }
      ],
      "stateMutability": "view",
      "type": "function"
    },
    {
      "inputs": [
        {
          "internalType": "address",
          "name": "owner",
          "type": "address"
        },
        {
          "internalType": "uint256",
          "name": "index",
          "type": "uint256"
        }
      ],
      "name": "tokenOfOwnerByIndex",
      "outputs": [
        {
          "internalType": "uint256",
          "name": "",
          "type": "uint256"
        }
      ],
      "stateMutability": "view",
      "type": "function"
    },
    {
      "inputs": [
        {
          "internalType": "uint256",
          "name": "tokenId",
          "type": "uint256"
        }
      ],
      "name": "tokenURI",
      "outputs": [
        {
          "internalType": "string",
          "name": "",
          "type": "string"
        }
      ],
      "stateMutability": "view",
      "type": "function"
    },
    {
      "inputs": [],
      "name": "totalSupply",
      "outputs": [
        {
          "internalType": "uint256",
          "name": "",
          "type": "uint256"
        }
      ],
      "stateMutability": "view",
      "type": "function"
    },
    {
      "inputs": [
        {
          "internalType": "address",
          "name": "from",
          "type": "address"
        },
        {
          "internalType": "address",
          "name": "to",
          "type": "address"
        },
        {
          "internalType": "uint256",
          "name": "tokenId",
          "type": "uint256"
        }
      ],
      "name": "transferFrom",
      "outputs": [],
      "stateMutability": "nonpayable",
      "type": "function"
    },
    {
      "inputs": [],
      "name": "unpause",
      "outputs": [],
      "stateMutability": "nonpayable",
      "type": "function"
    }
  ],
  "transactionHash": "0x37bbcd32aad2ff57679b1e16dfcfdc5fe65621d9f19b1ddbe1bd191e5f20581d",
  "args": [
    "Non-Fungible Lemon",
    "NFL"
  ],
  "solcInputHash": "d6f5c2c8d0ddf5b28c64dee59cb9b645",
  "bytecode": "0x60806040523480156200001157600080fd5b5060405162005534380380620055348339818101604052810190620000379190620004ad565b81818160029080519060200190620000519291906200038b565b5080600390805190602001906200006a9291906200038b565b5050506000600c60006101000a81548160ff021916908315150217905550620000ac6000801b620000a0620000f560201b60201c565b620000fd60201b60201c565b620000ed7f65d7a28e3265b37a6474929f336521b332c1681b933f6cb9f3376673440d862a620000e1620000f560201b60201c565b620000fd60201b60201c565b505062000690565b600033905090565b6200011482826200014560201b6200155d1760201c565b6200014081600160008581526020019081526020016000206200015b60201b6200156b1790919060201c565b505050565b6200015782826200019360201b60201c565b5050565b60006200018b836000018373ffffffffffffffffffffffffffffffffffffffff1660001b6200028460201b60201c565b905092915050565b620001a58282620002fe60201b60201c565b6200028057600160008084815260200190815260200160002060000160008373ffffffffffffffffffffffffffffffffffffffff1673ffffffffffffffffffffffffffffffffffffffff16815260200190815260200160002060006101000a81548160ff02191690831515021790555062000225620000f560201b60201c565b73ffffffffffffffffffffffffffffffffffffffff168173ffffffffffffffffffffffffffffffffffffffff16837f2f8788117e7eff1d82e926ec794901d17c78024a50270940304540a733656f0d60405160405180910390a45b5050565b60006200029883836200036860201b60201c565b620002f3578260000182908060018154018082558091505060019003906000526020600020016000909190919091505582600001805490508360010160008481526020019081526020016000208190555060019050620002f8565b600090505b92915050565b600080600084815260200190815260200160002060000160008373ffffffffffffffffffffffffffffffffffffffff1673ffffffffffffffffffffffffffffffffffffffff16815260200190815260200160002060009054906101000a900460ff16905092915050565b600080836001016000848152602001908152602001600020541415905092915050565b8280546200039990620005b5565b90600052602060002090601f016020900481019282620003bd576000855562000409565b82601f10620003d857805160ff191683800117855562000409565b8280016001018555821562000409579182015b8281111562000408578251825591602001919060010190620003eb565b5b5090506200041891906200041c565b5090565b5b80821115620004375760008160009055506001016200041d565b5090565b6000620004526200044c8462000549565b62000520565b9050828152602081018484840111156200046b57600080fd5b620004788482856200057f565b509392505050565b600082601f8301126200049257600080fd5b8151620004a48482602086016200043b565b91505092915050565b60008060408385031215620004c157600080fd5b600083015167ffffffffffffffff811115620004dc57600080fd5b620004ea8582860162000480565b925050602083015167ffffffffffffffff8111156200050857600080fd5b620005168582860162000480565b9150509250929050565b60006200052c6200053f565b90506200053a8282620005eb565b919050565b6000604051905090565b600067ffffffffffffffff82111562000567576200056662000650565b5b62000572826200067f565b9050602081019050919050565b60005b838110156200059f57808201518184015260208101905062000582565b83811115620005af576000848401525b50505050565b60006002820490506001821680620005ce57607f821691505b60208210811415620005e557620005e462000621565b5b50919050565b620005f6826200067f565b810181811067ffffffffffffffff8211171562000618576200061762000650565b5b80604052505050565b7f4e487b7100000000000000000000000000000000000000000000000000000000600052602260045260246000fd5b7f4e487b7100000000000000000000000000000000000000000000000000000000600052604160045260246000fd5b6000601f19601f8301169050919050565b614e9480620006a06000396000f3fe608060405234801561001057600080fd5b50600436106101f05760003560e01c80636352211e1161010f578063b88d4fde116100a2578063e63ab1e911610071578063e63ab1e9146105db578063e814cb71146105f9578063e985e9c51461062a578063f6e8391d1461065a576101f0565b8063b88d4fde14610543578063c87b56dd1461055f578063ca15c8731461058f578063d547741f146105bf576101f0565b806391d14854116100de57806391d14854146104bb57806395d89b41146104eb578063a217fddf14610509578063a22cb46514610527576101f0565b80636352211e1461042157806370a08231146104515780638456cb59146104815780639010d07c1461048b576101f0565b80632f2ff15d1161018757806342842e0e1161015657806342842e0e1461039b57806342966c68146103b75780634f6ccce7146103d35780635c975abb14610403576101f0565b80632f2ff15d146103295780632f745c591461034557806336568abe146103755780633f4ba83a14610391576101f0565b8063111fb47b116101c3578063111fb47b1461028f57806318160ddd146102bf57806323b872dd146102dd578063248a9ca3146102f9576101f0565b806301ffc9a7146101f557806306fdde0314610225578063081812fc14610243578063095ea7b314610273575b600080fd5b61020f600480360381019061020a91906136e8565b61068a565b60405161021c9190613dde565b60405180910390f35b61022d61069c565b60405161023a9190613e14565b60405180910390f35b61025d600480360381019061025891906137cf565b61072e565b60405161026a9190613d4e565b60405180910390f35b61028d6004803603810190610288919061360b565b6107b3565b005b6102a960048036038101906102a4919061373a565b6108cb565b6040516102b691906141d6565b60405180910390f35b6102c761096f565b6040516102d491906141d6565b60405180910390f35b6102f760048036038101906102f29190613505565b61097c565b005b610313600480360381019061030e9190613647565b6109dc565b6040516103209190613df9565b60405180910390f35b610343600480360381019061033e9190613670565b6109fb565b005b61035f600480360381019061035a919061360b565b610a2f565b60405161036c91906141d6565b60405180910390f35b61038f600480360381019061038a9190613670565b610ad4565b005b610399610b08565b005b6103b560048036038101906103b09190613505565b610b82565b005b6103d160048036038101906103cc91906137cf565b610ba2565b005b6103ed60048036038101906103e891906137cf565b610bfe565b6040516103fa91906141d6565b60405180910390f35b61040b610c95565b6040516104189190613dde565b60405180910390f35b61043b600480360381019061043691906137cf565b610cac565b6040516104489190613d4e565b60405180910390f35b61046b600480360381019061046691906134a0565b610d5e565b60405161047891906141d6565b60405180910390f35b610489610e16565b005b6104a560048036038101906104a091906136ac565b610e90565b6040516104b29190613d4e565b60405180910390f35b6104d560048036038101906104d09190613670565b610ebf565b6040516104e29190613dde565b60405180910390f35b6104f3610f29565b6040516105009190613e14565b60405180910390f35b610511610fbb565b60405161051e9190613df9565b60405180910390f35b610541600480360381019061053c91906135cf565b610fc2565b005b61055d60048036038101906105589190613554565b611143565b005b610579600480360381019061057491906137cf565b6111a5565b6040516105869190613e14565b60405180910390f35b6105a960048036038101906105a49190613647565b611292565b6040516105b691906141d6565b60405180910390f35b6105d960048036038101906105d49190613670565b6112b6565b005b6105e36112ea565b6040516105f09190613df9565b60405180910390f35b610613600480360381019061060e91906137cf565b61130e565b604051610621929190613db5565b60405180910390f35b610644600480360381019061063f91906134c9565b611456565b6040516106519190613dde565b60405180910390f35b610674600480360381019061066f919061377b565b6114ea565b60405161068191906141d6565b60405180910390f35b60006106958261159b565b9050919050565b6060600280546106ab90614489565b80601f01602080910402602001604051908101604052809291908181526020018280546106d790614489565b80156107245780601f106106f957610100808354040283529160200191610724565b820191906000526020600020905b81548152906001019060200180831161070757829003601f168201915b5050505050905090565b600061073982611615565b610778576040517f08c379a000000000000000000000000000000000000000000000000000000000815260040161076f906140d6565b60405180910390fd5b6006600083815260200190815260200160002060009054906101000a900473ffffffffffffffffffffffffffffffffffffffff169050919050565b60006107be82610cac565b90508073ffffffffffffffffffffffffffffffffffffffff168373ffffffffffffffffffffffffffffffffffffffff16141561082f576040517f08c379a000000000000000000000000000000000000000000000000000000000815260040161082690614136565b60405180910390fd5b8073ffffffffffffffffffffffffffffffffffffffff1661084e611681565b73ffffffffffffffffffffffffffffffffffffffff16148061087d575061087c81610877611681565b611456565b5b6108bc576040517f08c379a00000000000000000000000000000000000000000000000000000000081526004016108b390613ff6565b60405180910390fd5b6108c68383611689565b505050565b60006108d5610c95565b15610915576040517f08c379a000000000000000000000000000000000000000000000000000000000815260040161090c90613fd6565b60405180910390fd5b6000610921600e611742565b905061093461092e611681565b82611750565b82600f6000838152602001908152602001600020908051906020019061095b9291906132af565b50610966600e61191e565b80915050919050565b6000600a80549050905090565b61098d610987611681565b82611934565b6109cc576040517f08c379a00000000000000000000000000000000000000000000000000000000081526004016109c390614156565b60405180910390fd5b6109d7838383611a12565b505050565b6000806000838152602001908152602001600020600101549050919050565b610a058282611c6e565b610a2a816001600085815260200190815260200160002061156b90919063ffffffff16565b505050565b6000610a3a83610d5e565b8210610a7b576040517f08c379a0000000000000000000000000000000000000000000000000000000008152600401610a7290613eb6565b60405180910390fd5b600860008473ffffffffffffffffffffffffffffffffffffffff1673ffffffffffffffffffffffffffffffffffffffff168152602001908152602001600020600083815260200190815260200160002054905092915050565b610ade8282611c97565b610b038160016000858152602001908152602001600020611d1a90919063ffffffff16565b505050565b610b397f65d7a28e3265b37a6474929f336521b332c1681b933f6cb9f3376673440d862a610b34611681565b610ebf565b610b78576040517f08c379a0000000000000000000000000000000000000000000000000000000008152600401610b6f90614016565b60405180910390fd5b610b80611d4a565b565b610b9d83838360405180602001604052806000815250611143565b505050565b610bb3610bad611681565b82611934565b610bf2576040517f08c379a0000000000000000000000000000000000000000000000000000000008152600401610be990614196565b60405180910390fd5b610bfb81611dec565b50565b6000610c0861096f565b8210610c49576040517f08c379a0000000000000000000000000000000000000000000000000000000008152600401610c4090614176565b60405180910390fd5b600a8281548110610c83577f4e487b7100000000000000000000000000000000000000000000000000000000600052603260045260246000fd5b90600052602060002001549050919050565b6000600c60009054906101000a900460ff16905090565b6000806004600084815260200190815260200160002060009054906101000a900473ffffffffffffffffffffffffffffffffffffffff169050600073ffffffffffffffffffffffffffffffffffffffff168173ffffffffffffffffffffffffffffffffffffffff161415610d55576040517f08c379a0000000000000000000000000000000000000000000000000000000008152600401610d4c90614056565b60405180910390fd5b80915050919050565b60008073ffffffffffffffffffffffffffffffffffffffff168273ffffffffffffffffffffffffffffffffffffffff161415610dcf576040517f08c379a0000000000000000000000000000000000000000000000000000000008152600401610dc690614036565b60405180910390fd5b600560008373ffffffffffffffffffffffffffffffffffffffff1673ffffffffffffffffffffffffffffffffffffffff168152602001908152602001600020549050919050565b610e477f65d7a28e3265b37a6474929f336521b332c1681b933f6cb9f3376673440d862a610e42611681565b610ebf565b610e86576040517f08c379a0000000000000000000000000000000000000000000000000000000008152600401610e7d90613fb6565b60405180910390fd5b610e8e611efd565b565b6000610eb78260016000868152602001908152602001600020611fa090919063ffffffff16565b905092915050565b600080600084815260200190815260200160002060000160008373ffffffffffffffffffffffffffffffffffffffff1673ffffffffffffffffffffffffffffffffffffffff16815260200190815260200160002060009054906101000a900460ff16905092915050565b606060038054610f3890614489565b80601f0160208091040260200160405190810160405280929190818152602001828054610f6490614489565b8015610fb15780601f10610f8657610100808354040283529160200191610fb1565b820191906000526020600020905b815481529060010190602001808311610f9457829003601f168201915b5050505050905090565b6000801b81565b610fca611681565b73ffffffffffffffffffffffffffffffffffffffff168273ffffffffffffffffffffffffffffffffffffffff161415611038576040517f08c379a000000000000000000000000000000000000000000000000000000000815260040161102f90613f56565b60405180910390fd5b8060076000611045611681565b73ffffffffffffffffffffffffffffffffffffffff1673ffffffffffffffffffffffffffffffffffffffff16815260200190815260200160002060008473ffffffffffffffffffffffffffffffffffffffff1673ffffffffffffffffffffffffffffffffffffffff16815260200190815260200160002060006101000a81548160ff0219169083151502179055508173ffffffffffffffffffffffffffffffffffffffff166110f2611681565b73ffffffffffffffffffffffffffffffffffffffff167f17307eab39ab6107e8899845ad3d59bd9653f200f220920489ca2b5937696c31836040516111379190613dde565b60405180910390a35050565b61115461114e611681565b83611934565b611193576040517f08c379a000000000000000000000000000000000000000000000000000000000815260040161118a90614156565b60405180910390fd5b61119f84848484611fba565b50505050565b60606111b082611615565b6111ef576040517f08c379a00000000000000000000000000000000000000000000000000000000081526004016111e690613f76565b60405180910390fd5b600f6000838152602001908152602001600020805461120d90614489565b80601f016020809104026020016040519081016040528092919081815260200182805461123990614489565b80156112865780601f1061125b57610100808354040283529160200191611286565b820191906000526020600020905b81548152906001019060200180831161126957829003601f168201915b50505050509050919050565b60006112af60016000848152602001908152602001600020612016565b9050919050565b6112c0828261202b565b6112e58160016000858152602001908152602001600020611d1a90919063ffffffff16565b505050565b7f65d7a28e3265b37a6474929f336521b332c1681b933f6cb9f3376673440d862a81565b60008061131a83611615565b611359576040517f08c379a000000000000000000000000000000000000000000000000000000000815260040161135090613e96565b60405180910390fd5b600073ffffffffffffffffffffffffffffffffffffffff16600d600085815260200190815260200160002060000160009054906101000a900473ffffffffffffffffffffffffffffffffffffffff1673ffffffffffffffffffffffffffffffffffffffff1614156113ff576040517f08c379a00000000000000000000000000000000000000000000000000000000081526004016113f690613f16565b60405180910390fd5b600d600084815260200190815260200160002060000160009054906101000a900473ffffffffffffffffffffffffffffffffffffffff16600d60008581526020019081526020016000206001015491509150915091565b6000600760008473ffffffffffffffffffffffffffffffffffffffff1673ffffffffffffffffffffffffffffffffffffffff16815260200190815260200160002060008373ffffffffffffffffffffffffffffffffffffffff1673ffffffffffffffffffffffffffffffffffffffff16815260200190815260200160002060009054906101000a900460ff16905092915050565b60006114f4610c95565b15611534576040517f08c379a000000000000000000000000000000000000000000000000000000000815260040161152b90613fd6565b60405180910390fd5b600061153f846108cb565b90506115538161154d611681565b85612054565b8091505092915050565b61156782826121f9565b5050565b6000611593836000018373ffffffffffffffffffffffffffffffffffffffff1660001b6122d9565b905092915050565b60007f780e9d63000000000000000000000000000000000000000000000000000000007bffffffffffffffffffffffffffffffffffffffffffffffffffffffff1916827bffffffffffffffffffffffffffffffffffffffffffffffffffffffff1916148061160e575061160d82612349565b5b9050919050565b60008073ffffffffffffffffffffffffffffffffffffffff166004600084815260200190815260200160002060009054906101000a900473ffffffffffffffffffffffffffffffffffffffff1673ffffffffffffffffffffffffffffffffffffffff1614159050919050565b600033905090565b816006600083815260200190815260200160002060006101000a81548173ffffffffffffffffffffffffffffffffffffffff021916908373ffffffffffffffffffffffffffffffffffffffff160217905550808273ffffffffffffffffffffffffffffffffffffffff166116fc83610cac565b73ffffffffffffffffffffffffffffffffffffffff167f8c5be1e5ebec7d5bd14f71427d1e84f3dd0314c0f7b2291e5b200ac8c7c3b92560405160405180910390a45050565b600081600001549050919050565b600073ffffffffffffffffffffffffffffffffffffffff168273ffffffffffffffffffffffffffffffffffffffff1614156117c0576040517f08c379a00000000000000000000000000000000000000000000000000000000081526004016117b7906140b6565b60405180910390fd5b6117c981611615565b15611809576040517f08c379a000000000000000000000000000000000000000000000000000000000815260040161180090613ef6565b60405180910390fd5b6118156000838361242b565b6001600560008473ffffffffffffffffffffffffffffffffffffffff1673ffffffffffffffffffffffffffffffffffffffff168152602001908152602001600020600082825461186591906142bb565b92505081905550816004600083815260200190815260200160002060006101000a81548173ffffffffffffffffffffffffffffffffffffffff021916908373ffffffffffffffffffffffffffffffffffffffff160217905550808273ffffffffffffffffffffffffffffffffffffffff16600073ffffffffffffffffffffffffffffffffffffffff167fddf252ad1be2c89b69c2b068fc378daa952ba7f163c4a11628f55a4df523b3ef60405160405180910390a45050565b6001816000016000828254019250508190555050565b600061193f82611615565b61197e576040517f08c379a000000000000000000000000000000000000000000000000000000000815260040161197590613f96565b60405180910390fd5b600061198983610cac565b90508073ffffffffffffffffffffffffffffffffffffffff168473ffffffffffffffffffffffffffffffffffffffff1614806119f857508373ffffffffffffffffffffffffffffffffffffffff166119e08461072e565b73ffffffffffffffffffffffffffffffffffffffff16145b80611a095750611a088185611456565b5b91505092915050565b8273ffffffffffffffffffffffffffffffffffffffff16611a3282610cac565b73ffffffffffffffffffffffffffffffffffffffff1614611a88576040517f08c379a0000000000000000000000000000000000000000000000000000000008152600401611a7f906140f6565b60405180910390fd5b600073ffffffffffffffffffffffffffffffffffffffff168273ffffffffffffffffffffffffffffffffffffffff161415611af8576040517f08c379a0000000000000000000000000000000000000000000000000000000008152600401611aef90613f36565b60405180910390fd5b611b0383838361242b565b611b0e600082611689565b6001600560008573ffffffffffffffffffffffffffffffffffffffff1673ffffffffffffffffffffffffffffffffffffffff1681526020019081526020016000206000828254611b5e919061436b565b925050819055506001600560008473ffffffffffffffffffffffffffffffffffffffff1673ffffffffffffffffffffffffffffffffffffffff1681526020019081526020016000206000828254611bb591906142bb565b92505081905550816004600083815260200190815260200160002060006101000a81548173ffffffffffffffffffffffffffffffffffffffff021916908373ffffffffffffffffffffffffffffffffffffffff160217905550808273ffffffffffffffffffffffffffffffffffffffff168473ffffffffffffffffffffffffffffffffffffffff167fddf252ad1be2c89b69c2b068fc378daa952ba7f163c4a11628f55a4df523b3ef60405160405180910390a4505050565b611c77826109dc565b611c8881611c83611681565b61243b565b611c9283836121f9565b505050565b611c9f611681565b73ffffffffffffffffffffffffffffffffffffffff168173ffffffffffffffffffffffffffffffffffffffff1614611d0c576040517f08c379a0000000000000000000000000000000000000000000000000000000008152600401611d03906141b6565b60405180910390fd5b611d1682826124d8565b5050565b6000611d42836000018373ffffffffffffffffffffffffffffffffffffffff1660001b6125b9565b905092915050565b611d52610c95565b611d91576040517f08c379a0000000000000000000000000000000000000000000000000000000008152600401611d8890613e76565b60405180910390fd5b6000600c60006101000a81548160ff0219169083151502179055507f5db9ee0a495bf2e6ff9c91a7834c1ba4fdd244a5e8aa4e537bd38aeae4b073aa611dd5611681565b604051611de29190613d4e565b60405180910390a1565b6000611df782610cac565b9050611e058160008461242b565b611e10600083611689565b6001600560008373ffffffffffffffffffffffffffffffffffffffff1673ffffffffffffffffffffffffffffffffffffffff1681526020019081526020016000206000828254611e60919061436b565b925050819055506004600083815260200190815260200160002060006101000a81549073ffffffffffffffffffffffffffffffffffffffff021916905581600073ffffffffffffffffffffffffffffffffffffffff168273ffffffffffffffffffffffffffffffffffffffff167fddf252ad1be2c89b69c2b068fc378daa952ba7f163c4a11628f55a4df523b3ef60405160405180910390a45050565b611f05610c95565b15611f45576040517f08c379a0000000000000000000000000000000000000000000000000000000008152600401611f3c90613fd6565b60405180910390fd5b6001600c60006101000a81548160ff0219169083151502179055507f62e78cea01bee320cd4e420270b5ea74000d11b0c9f74754ebdbfc544b05a258611f89611681565b604051611f969190613d4e565b60405180910390a1565b6000611faf836000018361273f565b60001c905092915050565b611fc5848484611a12565b611fd184848484612790565b612010576040517f08c379a000000000000000000000000000000000000000000000000000000000815260040161200790613ed6565b60405180910390fd5b50505050565b600061202482600001612927565b9050919050565b612034826109dc565b61204581612040611681565b61243b565b61204f83836124d8565b505050565b61205d83611615565b61209c576040517f08c379a000000000000000000000000000000000000000000000000000000000815260040161209390614096565b60405180910390fd5b600073ffffffffffffffffffffffffffffffffffffffff168273ffffffffffffffffffffffffffffffffffffffff16141561210c576040517f08c379a000000000000000000000000000000000000000000000000000000000815260040161210390614076565b60405180910390fd5b6000811180156121235750670de0b6b3a764000081105b612162576040517f08c379a000000000000000000000000000000000000000000000000000000000815260040161215990614116565b60405180910390fd5b60405180604001604052808373ffffffffffffffffffffffffffffffffffffffff16815260200182815250600d600085815260200190815260200160002060008201518160000160006101000a81548173ffffffffffffffffffffffffffffffffffffffff021916908373ffffffffffffffffffffffffffffffffffffffff16021790555060208201518160010155905050505050565b6122038282610ebf565b6122d557600160008084815260200190815260200160002060000160008373ffffffffffffffffffffffffffffffffffffffff1673ffffffffffffffffffffffffffffffffffffffff16815260200190815260200160002060006101000a81548160ff02191690831515021790555061227a611681565b73ffffffffffffffffffffffffffffffffffffffff168173ffffffffffffffffffffffffffffffffffffffff16837f2f8788117e7eff1d82e926ec794901d17c78024a50270940304540a733656f0d60405160405180910390a45b5050565b60006122e58383612938565b61233e578260000182908060018154018082558091505060019003906000526020600020016000909190919091505582600001805490508360010160008481526020019081526020016000208190555060019050612343565b600090505b92915050565b60007f80ac58cd000000000000000000000000000000000000000000000000000000007bffffffffffffffffffffffffffffffffffffffffffffffffffffffff1916827bffffffffffffffffffffffffffffffffffffffffffffffffffffffff1916148061241457507f5b5e139f000000000000000000000000000000000000000000000000000000007bffffffffffffffffffffffffffffffffffffffffffffffffffffffff1916827bffffffffffffffffffffffffffffffffffffffffffffffffffffffff1916145b8061242457506124238261295b565b5b9050919050565b6124368383836129d5565b505050565b6124458282610ebf565b6124d45761246a8173ffffffffffffffffffffffffffffffffffffffff166014612a2d565b6124788360001c6020612a2d565b604051602001612489929190613d14565b6040516020818303038152906040526040517f08c379a00000000000000000000000000000000000000000000000000000000081526004016124cb9190613e14565b60405180910390fd5b5050565b6124e28282610ebf565b156125b557600080600084815260200190815260200160002060000160008373ffffffffffffffffffffffffffffffffffffffff1673ffffffffffffffffffffffffffffffffffffffff16815260200190815260200160002060006101000a81548160ff02191690831515021790555061255a611681565b73ffffffffffffffffffffffffffffffffffffffff168173ffffffffffffffffffffffffffffffffffffffff16837ff6391f5c32d9c69d2a47ea670b442974b53935d1edc7fd64eb21e047a839171b60405160405180910390a45b5050565b600080836001016000848152602001908152602001600020549050600081146127335760006001826125eb919061436b565b9050600060018660000180549050612603919061436b565b90508181146126be57600086600001828154811061264a577f4e487b7100000000000000000000000000000000000000000000000000000000600052603260045260246000fd5b9060005260206000200154905080876000018481548110612694577f4e487b7100000000000000000000000000000000000000000000000000000000600052603260045260246000fd5b90600052602060002001819055508387600101600083815260200190815260200160002081905550505b856000018054806126f8577f4e487b7100000000000000000000000000000000000000000000000000000000600052603160045260246000fd5b600190038181906000526020600020016000905590558560010160008681526020019081526020016000206000905560019350505050612739565b60009150505b92915050565b600082600001828154811061277d577f4e487b7100000000000000000000000000000000000000000000000000000000600052603260045260246000fd5b9060005260206000200154905092915050565b60006127b18473ffffffffffffffffffffffffffffffffffffffff16612d27565b1561291a578373ffffffffffffffffffffffffffffffffffffffff1663150b7a026127da611681565b8786866040518563ffffffff1660e01b81526004016127fc9493929190613d69565b602060405180830381600087803b15801561281657600080fd5b505af192505050801561284757506040513d601f19601f820116820180604052508101906128449190613711565b60015b6128ca573d8060008114612877576040519150601f19603f3d011682016040523d82523d6000602084013e61287c565b606091505b506000815114156128c2576040517f08c379a00000000000000000000000000000000000000000000000000000000081526004016128b990613ed6565b60405180910390fd5b805181602001fd5b63150b7a0260e01b7bffffffffffffffffffffffffffffffffffffffffffffffffffffffff1916817bffffffffffffffffffffffffffffffffffffffffffffffffffffffff19161491505061291f565b600190505b949350505050565b600081600001805490509050919050565b600080836001016000848152602001908152602001600020541415905092915050565b60007f5a05180f000000000000000000000000000000000000000000000000000000007bffffffffffffffffffffffffffffffffffffffffffffffffffffffff1916827bffffffffffffffffffffffffffffffffffffffffffffffffffffffff191614806129ce57506129cd82612d3a565b5b9050919050565b6129e0838383612db4565b6129e8610c95565b15612a28576040517f08c379a0000000000000000000000000000000000000000000000000000000008152600401612a1f90613e56565b60405180910390fd5b505050565b606060006002836002612a409190614311565b612a4a91906142bb565b67ffffffffffffffff811115612a89577f4e487b7100000000000000000000000000000000000000000000000000000000600052604160045260246000fd5b6040519080825280601f01601f191660200182016040528015612abb5781602001600182028036833780820191505090505b5090507f300000000000000000000000000000000000000000000000000000000000000081600081518110612b19577f4e487b7100000000000000000000000000000000000000000000000000000000600052603260045260246000fd5b60200101907effffffffffffffffffffffffffffffffffffffffffffffffffffffffffffff1916908160001a9053507f780000000000000000000000000000000000000000000000000000000000000081600181518110612ba3577f4e487b7100000000000000000000000000000000000000000000000000000000600052603260045260246000fd5b60200101907effffffffffffffffffffffffffffffffffffffffffffffffffffffffffffff1916908160001a90535060006001846002612be39190614311565b612bed91906142bb565b90505b6001811115612cd9577f3031323334353637383961626364656600000000000000000000000000000000600f861660108110612c55577f4e487b7100000000000000000000000000000000000000000000000000000000600052603260045260246000fd5b1a60f81b828281518110612c92577f4e487b7100000000000000000000000000000000000000000000000000000000600052603260045260246000fd5b60200101907effffffffffffffffffffffffffffffffffffffffffffffffffffffffffffff1916908160001a905350600485901c945080612cd29061445f565b9050612bf0565b5060008414612d1d576040517f08c379a0000000000000000000000000000000000000000000000000000000008152600401612d1490613e36565b60405180910390fd5b8091505092915050565b600080823b905060008111915050919050565b60007f7965db0b000000000000000000000000000000000000000000000000000000007bffffffffffffffffffffffffffffffffffffffffffffffffffffffff1916827bffffffffffffffffffffffffffffffffffffffffffffffffffffffff19161480612dad5750612dac82612ec8565b5b9050919050565b612dbf838383612f32565b600073ffffffffffffffffffffffffffffffffffffffff168373ffffffffffffffffffffffffffffffffffffffff161415612e0257612dfd81612f37565b612e41565b8173ffffffffffffffffffffffffffffffffffffffff168373ffffffffffffffffffffffffffffffffffffffff1614612e4057612e3f8382612f80565b5b5b600073ffffffffffffffffffffffffffffffffffffffff168273ffffffffffffffffffffffffffffffffffffffff161415612e8457612e7f816130ed565b612ec3565b8273ffffffffffffffffffffffffffffffffffffffff168273ffffffffffffffffffffffffffffffffffffffff1614612ec257612ec18282613230565b5b5b505050565b60007f01ffc9a7000000000000000000000000000000000000000000000000000000007bffffffffffffffffffffffffffffffffffffffffffffffffffffffff1916827bffffffffffffffffffffffffffffffffffffffffffffffffffffffff1916149050919050565b505050565b600a80549050600b600083815260200190815260200160002081905550600a81908060018154018082558091505060019003906000526020600020016000909190919091505550565b60006001612f8d84610d5e565b612f97919061436b565b905060006009600084815260200190815260200160002054905081811461307c576000600860008673ffffffffffffffffffffffffffffffffffffffff1673ffffffffffffffffffffffffffffffffffffffff168152602001908152602001600020600084815260200190815260200160002054905080600860008773ffffffffffffffffffffffffffffffffffffffff1673ffffffffffffffffffffffffffffffffffffffff168152602001908152602001600020600084815260200190815260200160002081905550816009600083815260200190815260200160002081905550505b6009600084815260200190815260200160002060009055600860008573ffffffffffffffffffffffffffffffffffffffff1673ffffffffffffffffffffffffffffffffffffffff16815260200190815260200160002060008381526020019081526020016000206000905550505050565b60006001600a80549050613101919061436b565b90506000600b60008481526020019081526020016000205490506000600a8381548110613157577f4e487b7100000000000000000000000000000000000000000000000000000000600052603260045260246000fd5b9060005260206000200154905080600a838154811061319f577f4e487b7100000000000000000000000000000000000000000000000000000000600052603260045260246000fd5b906000526020600020018190555081600b600083815260200190815260200160002081905550600b600085815260200190815260200160002060009055600a805480613214577f4e487b7100000000000000000000000000000000000000000000000000000000600052603160045260246000fd5b6001900381819060005260206000200160009055905550505050565b600061323b83610d5e565b905081600860008573ffffffffffffffffffffffffffffffffffffffff1673ffffffffffffffffffffffffffffffffffffffff168152602001908152602001600020600083815260200190815260200160002081905550806009600084815260200190815260200160002081905550505050565b8280546132bb90614489565b90600052602060002090601f0160209004810192826132dd5760008555613324565b82601f106132f657805160ff1916838001178555613324565b82800160010185558215613324579182015b82811115613323578251825591602001919060010190613308565b5b5090506133319190613335565b5090565b5b8082111561334e576000816000905550600101613336565b5090565b600061336561336084614216565b6141f1565b90508281526020810184848401111561337d57600080fd5b61338884828561441d565b509392505050565b60006133a361339e84614247565b6141f1565b9050828152602081018484840111156133bb57600080fd5b6133c684828561441d565b509392505050565b6000813590506133dd81614deb565b92915050565b6000813590506133f281614e02565b92915050565b60008135905061340781614e19565b92915050565b60008135905061341c81614e30565b92915050565b60008151905061343181614e30565b92915050565b600082601f83011261344857600080fd5b8135613458848260208601613352565b91505092915050565b600082601f83011261347257600080fd5b8135613482848260208601613390565b91505092915050565b60008135905061349a81614e47565b92915050565b6000602082840312156134b257600080fd5b60006134c0848285016133ce565b91505092915050565b600080604083850312156134dc57600080fd5b60006134ea858286016133ce565b92505060206134fb858286016133ce565b9150509250929050565b60008060006060848603121561351a57600080fd5b6000613528868287016133ce565b9350506020613539868287016133ce565b925050604061354a8682870161348b565b9150509250925092565b6000806000806080858703121561356a57600080fd5b6000613578878288016133ce565b9450506020613589878288016133ce565b935050604061359a8782880161348b565b925050606085013567ffffffffffffffff8111156135b757600080fd5b6135c387828801613437565b91505092959194509250565b600080604083850312156135e257600080fd5b60006135f0858286016133ce565b9250506020613601858286016133e3565b9150509250929050565b6000806040838503121561361e57600080fd5b600061362c858286016133ce565b925050602061363d8582860161348b565b9150509250929050565b60006020828403121561365957600080fd5b6000613667848285016133f8565b91505092915050565b6000806040838503121561368357600080fd5b6000613691858286016133f8565b92505060206136a2858286016133ce565b9150509250929050565b600080604083850312156136bf57600080fd5b60006136cd858286016133f8565b92505060206136de8582860161348b565b9150509250929050565b6000602082840312156136fa57600080fd5b60006137088482850161340d565b91505092915050565b60006020828403121561372357600080fd5b600061373184828501613422565b91505092915050565b60006020828403121561374c57600080fd5b600082013567ffffffffffffffff81111561376657600080fd5b61377284828501613461565b91505092915050565b6000806040838503121561378e57600080fd5b600083013567ffffffffffffffff8111156137a857600080fd5b6137b485828601613461565b92505060206137c58582860161348b565b9150509250929050565b6000602082840312156137e157600080fd5b60006137ef8482850161348b565b91505092915050565b6138018161439f565b82525050565b613810816143b1565b82525050565b61381f816143bd565b82525050565b600061383082614278565b61383a818561428e565b935061384a81856020860161442c565b61385381614579565b840191505092915050565b600061386982614283565b613873818561429f565b935061388381856020860161442c565b61388c81614579565b840191505092915050565b60006138a282614283565b6138ac81856142b0565b93506138bc81856020860161442c565b80840191505092915050565b60006138d560208361429f565b91506138e08261458a565b602082019050919050565b60006138f8602b8361429f565b9150613903826145b3565b604082019050919050565b600061391b60148361429f565b915061392682614602565b602082019050919050565b600061393e602a8361429f565b91506139498261462b565b604082019050919050565b6000613961602b8361429f565b915061396c8261467a565b604082019050919050565b600061398460328361429f565b915061398f826146c9565b604082019050919050565b60006139a7601c8361429f565b91506139b282614718565b602082019050919050565b60006139ca602d8361429f565b91506139d582614741565b604082019050919050565b60006139ed60248361429f565b91506139f882614790565b604082019050919050565b6000613a1060198361429f565b9150613a1b826147df565b602082019050919050565b6000613a33602f8361429f565b9150613a3e82614808565b604082019050919050565b6000613a56602c8361429f565b9150613a6182614857565b604082019050919050565b6000613a79602e8361429f565b9150613a84826148a6565b604082019050919050565b6000613a9c60108361429f565b9150613aa7826148f5565b602082019050919050565b6000613abf60388361429f565b9150613aca8261491e565b604082019050919050565b6000613ae260308361429f565b9150613aed8261496d565b604082019050919050565b6000613b05602a8361429f565b9150613b10826149bc565b604082019050919050565b6000613b2860298361429f565b9150613b3382614a0b565b604082019050919050565b6000613b4b60268361429f565b9150613b5682614a5a565b604082019050919050565b6000613b6e60288361429f565b9150613b7982614aa9565b604082019050919050565b6000613b9160208361429f565b9150613b9c82614af8565b602082019050919050565b6000613bb4602c8361429f565b9150613bbf82614b21565b604082019050919050565b6000613bd760298361429f565b9150613be282614b70565b604082019050919050565b6000613bfa603c8361429f565b9150613c0582614bbf565b604082019050919050565b6000613c1d60218361429f565b9150613c2882614c0e565b604082019050919050565b6000613c4060318361429f565b9150613c4b82614c5d565b604082019050919050565b6000613c63602c8361429f565b9150613c6e82614cac565b604082019050919050565b6000613c866017836142b0565b9150613c9182614cfb565b601782019050919050565b6000613ca960308361429f565b9150613cb482614d24565b604082019050919050565b6000613ccc6011836142b0565b9150613cd782614d73565b601182019050919050565b6000613cef602f8361429f565b9150613cfa82614d9c565b604082019050919050565b613d0e81614413565b82525050565b6000613d1f82613c79565b9150613d2b8285613897565b9150613d3682613cbf565b9150613d428284613897565b91508190509392505050565b6000602082019050613d6360008301846137f8565b92915050565b6000608082019050613d7e60008301876137f8565b613d8b60208301866137f8565b613d986040830185613d05565b8181036060830152613daa8184613825565b905095945050505050565b6000604082019050613dca60008301856137f8565b613dd76020830184613d05565b9392505050565b6000602082019050613df36000830184613807565b92915050565b6000602082019050613e0e6000830184613816565b92915050565b60006020820190508181036000830152613e2e818461385e565b905092915050565b60006020820190508181036000830152613e4f816138c8565b9050919050565b60006020820190508181036000830152613e6f816138eb565b9050919050565b60006020820190508181036000830152613e8f8161390e565b9050919050565b60006020820190508181036000830152613eaf81613931565b9050919050565b60006020820190508181036000830152613ecf81613954565b9050919050565b60006020820190508181036000830152613eef81613977565b9050919050565b60006020820190508181036000830152613f0f8161399a565b9050919050565b60006020820190508181036000830152613f2f816139bd565b9050919050565b60006020820190508181036000830152613f4f816139e0565b9050919050565b60006020820190508181036000830152613f6f81613a03565b9050919050565b60006020820190508181036000830152613f8f81613a26565b9050919050565b60006020820190508181036000830152613faf81613a49565b9050919050565b60006020820190508181036000830152613fcf81613a6c565b9050919050565b60006020820190508181036000830152613fef81613a8f565b9050919050565b6000602082019050818103600083015261400f81613ab2565b9050919050565b6000602082019050818103600083015261402f81613ad5565b9050919050565b6000602082019050818103600083015261404f81613af8565b9050919050565b6000602082019050818103600083015261406f81613b1b565b9050919050565b6000602082019050818103600083015261408f81613b3e565b9050919050565b600060208201905081810360008301526140af81613b61565b9050919050565b600060208201905081810360008301526140cf81613b84565b9050919050565b600060208201905081810360008301526140ef81613ba7565b9050919050565b6000602082019050818103600083015261410f81613bca565b9050919050565b6000602082019050818103600083015261412f81613bed565b9050919050565b6000602082019050818103600083015261414f81613c10565b9050919050565b6000602082019050818103600083015261416f81613c33565b9050919050565b6000602082019050818103600083015261418f81613c56565b9050919050565b600060208201905081810360008301526141af81613c9c565b9050919050565b600060208201905081810360008301526141cf81613ce2565b9050919050565b60006020820190506141eb6000830184613d05565b92915050565b60006141fb61420c565b905061420782826144bb565b919050565b6000604051905090565b600067ffffffffffffffff8211156142315761423061454a565b5b61423a82614579565b9050602081019050919050565b600067ffffffffffffffff8211156142625761426161454a565b5b61426b82614579565b9050602081019050919050565b600081519050919050565b600081519050919050565b600082825260208201905092915050565b600082825260208201905092915050565b600081905092915050565b60006142c682614413565b91506142d183614413565b9250827fffffffffffffffffffffffffffffffffffffffffffffffffffffffffffffffff03821115614306576143056144ec565b5b828201905092915050565b600061431c82614413565b915061432783614413565b9250817fffffffffffffffffffffffffffffffffffffffffffffffffffffffffffffffff04831182151516156143605761435f6144ec565b5b828202905092915050565b600061437682614413565b915061438183614413565b925082821015614394576143936144ec565b5b828203905092915050565b60006143aa826143f3565b9050919050565b60008115159050919050565b6000819050919050565b60007fffffffff0000000000000000000000000000000000000000000000000000000082169050919050565b600073ffffffffffffffffffffffffffffffffffffffff82169050919050565b6000819050919050565b82818337600083830152505050565b60005b8381101561444a57808201518184015260208101905061442f565b83811115614459576000848401525b50505050565b600061446a82614413565b9150600082141561447e5761447d6144ec565b5b600182039050919050565b600060028204905060018216806144a157607f821691505b602082108114156144b5576144b461451b565b5b50919050565b6144c482614579565b810181811067ffffffffffffffff821117156144e3576144e261454a565b5b80604052505050565b7f4e487b7100000000000000000000000000000000000000000000000000000000600052601160045260246000fd5b7f4e487b7100000000000000000000000000000000000000000000000000000000600052602260045260246000fd5b7f4e487b7100000000000000000000000000000000000000000000000000000000600052604160045260246000fd5b6000601f19601f8301169050919050565b7f537472696e67733a20686578206c656e67746820696e73756666696369656e74600082015250565b7f4552433732315061757361626c653a20746f6b656e207472616e73666572207760008201527f68696c6520706175736564000000000000000000000000000000000000000000602082015250565b7f5061757361626c653a206e6f7420706175736564000000000000000000000000600082015250565b7f455243373231526f79616c74793a20717565727920666f72206e6f6e6578697360008201527f74656e7420746f6b656e00000000000000000000000000000000000000000000602082015250565b7f455243373231456e756d657261626c653a206f776e657220696e646578206f7560008201527f74206f6620626f756e6473000000000000000000000000000000000000000000602082015250565b7f4552433732313a207472616e7366657220746f206e6f6e20455243373231526560008201527f63656976657220696d706c656d656e7465720000000000000000000000000000602082015250565b7f4552433732313a20746f6b656e20616c7265616479206d696e74656400000000600082015250565b7f4552433732314c656d6f6e6164653a20717565727920666f72206e6f6e65786960008201527f7374656e7420726f79616c747900000000000000000000000000000000000000602082015250565b7f4552433732313a207472616e7366657220746f20746865207a65726f2061646460008201527f7265737300000000000000000000000000000000000000000000000000000000602082015250565b7f4552433732313a20617070726f766520746f2063616c6c657200000000000000600082015250565b7f4552433732314c656d6f6e6164653a2055524920717565727920666f72206e6f60008201527f6e6578697374656e7420746f6b656e0000000000000000000000000000000000602082015250565b7f4552433732313a206f70657261746f7220717565727920666f72206e6f6e657860008201527f697374656e7420746f6b656e0000000000000000000000000000000000000000602082015250565b7f4552433732314c656d6f6e6164653a206d75737420686176652070617573657260008201527f20726f6c6520746f207061757365000000000000000000000000000000000000602082015250565b7f5061757361626c653a2070617573656400000000000000000000000000000000600082015250565b7f4552433732313a20617070726f76652063616c6c6572206973206e6f74206f7760008201527f6e6572206e6f7220617070726f76656420666f7220616c6c0000000000000000602082015250565b7f4552433732314c656d6f6e6164653a206d75737420686176652070617573657260008201527f20726f6c6520746f20756e706175736500000000000000000000000000000000602082015250565b7f4552433732313a2062616c616e636520717565727920666f7220746865207a6560008201527f726f206164647265737300000000000000000000000000000000000000000000602082015250565b7f4552433732313a206f776e657220717565727920666f72206e6f6e657869737460008201527f656e7420746f6b656e0000000000000000000000000000000000000000000000602082015250565b7f455243373231526f79616c74793a2073657420746f20746865207a65726f206160008201527f6464726573730000000000000000000000000000000000000000000000000000602082015250565b7f455243373231526f79616c74793a2073657420666f72206e6f6e65786973746560008201527f6e7420746f6b656e000000000000000000000000000000000000000000000000602082015250565b7f4552433732313a206d696e7420746f20746865207a65726f2061646472657373600082015250565b7f4552433732313a20617070726f76656420717565727920666f72206e6f6e657860008201527f697374656e7420746f6b656e0000000000000000000000000000000000000000602082015250565b7f4552433732313a207472616e73666572206f6620746f6b656e2074686174206960008201527f73206e6f74206f776e0000000000000000000000000000000000000000000000602082015250565b7f455243373231526f79616c74793a2073657420666f72206672616374696f6e2060008201527f6e6f74207374726963746c79206265747765656e203020616e64203100000000602082015250565b7f4552433732313a20617070726f76616c20746f2063757272656e74206f776e6560008201527f7200000000000000000000000000000000000000000000000000000000000000602082015250565b7f4552433732313a207472616e736665722063616c6c6572206973206e6f74206f60008201527f776e6572206e6f7220617070726f766564000000000000000000000000000000602082015250565b7f455243373231456e756d657261626c653a20676c6f62616c20696e646578206f60008201527f7574206f6620626f756e64730000000000000000000000000000000000000000602082015250565b7f416363657373436f6e74726f6c3a206163636f756e7420000000000000000000600082015250565b7f4552433732314275726e61626c653a2063616c6c6572206973206e6f74206f7760008201527f6e6572206e6f7220617070726f76656400000000000000000000000000000000602082015250565b7f206973206d697373696e6720726f6c6520000000000000000000000000000000600082015250565b7f416363657373436f6e74726f6c3a2063616e206f6e6c792072656e6f756e636560008201527f20726f6c657320666f722073656c660000000000000000000000000000000000602082015250565b614df48161439f565b8114614dff57600080fd5b50565b614e0b816143b1565b8114614e1657600080fd5b50565b614e22816143bd565b8114614e2d57600080fd5b50565b614e39816143c7565b8114614e4457600080fd5b50565b614e5081614413565b8114614e5b57600080fd5b5056fea2646970667358221220095907a7e5919b77c91ca17a7ea9db12478e5e905553e01f20135c13fd3cb66164736f6c63430008040033",
  "devdoc": {
    "kind": "dev",
    "methods": {
      "approve(address,uint256)": {
        "details": "See {IERC721-approve}."
      },
      "balanceOf(address)": {
        "details": "See {IERC721-balanceOf}."
      },
      "burn(uint256)": {
        "details": "Burns `tokenId`. See {ERC721-_burn}. Requirements: - The caller must own `tokenId` or be an approved operator."
      },
      "getApproved(uint256)": {
        "details": "See {IERC721-getApproved}."
      },
      "getRoleAdmin(bytes32)": {
        "details": "Returns the admin role that controls `role`. See {grantRole} and {revokeRole}. To change a role's admin, use {_setRoleAdmin}."
      },
      "getRoleMember(bytes32,uint256)": {
        "details": "Returns one of the accounts that have `role`. `index` must be a value between 0 and {getRoleMemberCount}, non-inclusive. Role bearers are not sorted in any particular way, and their ordering may change at any point. WARNING: When using {getRoleMember} and {getRoleMemberCount}, make sure you perform all queries on the same block. See the following https://forum.openzeppelin.com/t/iterating-over-elements-on-enumerableset-in-openzeppelin-contracts/2296[forum post] for more information."
      },
      "getRoleMemberCount(bytes32)": {
        "details": "Returns the number of accounts that have `role`. Can be used together with {getRoleMember} to enumerate all bearers of a role."
      },
      "grantRole(bytes32,address)": {
        "details": "Overload {grantRole} to track enumerable memberships"
      },
      "hasRole(bytes32,address)": {
        "details": "Returns `true` if `account` has been granted `role`."
      },
      "isApprovedForAll(address,address)": {
        "details": "See {IERC721-isApprovedForAll}."
      },
      "name()": {
        "details": "See {IERC721Metadata-name}."
      },
      "ownerOf(uint256)": {
        "details": "See {IERC721-ownerOf}."
      },
      "paused()": {
        "details": "Returns true if the contract is paused, and false otherwise."
      },
      "renounceRole(bytes32,address)": {
        "details": "Overload {renounceRole} to track enumerable memberships"
      },
      "revokeRole(bytes32,address)": {
        "details": "Overload {revokeRole} to track enumerable memberships"
      },
      "royalty(uint256)": {
        "details": "Returns the royalty maker and fraction for `tokenId` token."
      },
      "safeTransferFrom(address,address,uint256)": {
        "details": "See {IERC721-safeTransferFrom}."
      },
      "safeTransferFrom(address,address,uint256,bytes)": {
        "details": "See {IERC721-safeTransferFrom}."
      },
      "setApprovalForAll(address,bool)": {
        "details": "See {IERC721-setApprovalForAll}."
      },
      "symbol()": {
        "details": "See {IERC721Metadata-symbol}."
      },
      "tokenByIndex(uint256)": {
        "details": "See {IERC721Enumerable-tokenByIndex}."
      },
      "tokenOfOwnerByIndex(address,uint256)": {
        "details": "See {IERC721Enumerable-tokenOfOwnerByIndex}."
      },
      "tokenURI(uint256)": {
        "details": "See {IERC721Metadata-tokenURI}."
      },
      "totalSupply()": {
        "details": "See {IERC721Enumerable-totalSupply}."
      },
      "transferFrom(address,address,uint256)": {
        "details": "See {IERC721-transferFrom}."
      }
    },
    "version": 1
  },
  "userdoc": {
    "kind": "user",
    "methods": {},
    "version": 1
  },
  "storageLayout": {
    "storage": [
      {
        "astId": 24,
        "contract": "contracts/ERC721Lemonade.sol:ERC721Lemonade",
        "label": "_roles",
        "offset": 0,
        "slot": "0",
        "type": "t_mapping(t_bytes32,t_struct(RoleData)19_storage)"
      },
      {
        "astId": 325,
        "contract": "contracts/ERC721Lemonade.sol:ERC721Lemonade",
        "label": "_roleMembers",
        "offset": 0,
        "slot": "1",
        "type": "t_mapping(t_bytes32,t_struct(AddressSet)3032_storage)"
      },
      {
        "astId": 701,
        "contract": "contracts/ERC721Lemonade.sol:ERC721Lemonade",
        "label": "_name",
        "offset": 0,
        "slot": "2",
        "type": "t_string_storage"
      },
      {
        "astId": 703,
        "contract": "contracts/ERC721Lemonade.sol:ERC721Lemonade",
        "label": "_symbol",
        "offset": 0,
        "slot": "3",
        "type": "t_string_storage"
      },
      {
        "astId": 707,
        "contract": "contracts/ERC721Lemonade.sol:ERC721Lemonade",
        "label": "_owners",
        "offset": 0,
        "slot": "4",
        "type": "t_mapping(t_uint256,t_address)"
      },
      {
        "astId": 711,
        "contract": "contracts/ERC721Lemonade.sol:ERC721Lemonade",
        "label": "_balances",
        "offset": 0,
        "slot": "5",
        "type": "t_mapping(t_address,t_uint256)"
      },
      {
        "astId": 715,
        "contract": "contracts/ERC721Lemonade.sol:ERC721Lemonade",
        "label": "_tokenApprovals",
        "offset": 0,
        "slot": "6",
        "type": "t_mapping(t_uint256,t_address)"
      },
      {
        "astId": 721,
        "contract": "contracts/ERC721Lemonade.sol:ERC721Lemonade",
        "label": "_operatorApprovals",
        "offset": 0,
        "slot": "7",
        "type": "t_mapping(t_address,t_mapping(t_address,t_bool))"
      },
      {
        "astId": 1670,
        "contract": "contracts/ERC721Lemonade.sol:ERC721Lemonade",
        "label": "_ownedTokens",
        "offset": 0,
        "slot": "8",
        "type": "t_mapping(t_address,t_mapping(t_uint256,t_uint256))"
      },
      {
        "astId": 1674,
        "contract": "contracts/ERC721Lemonade.sol:ERC721Lemonade",
        "label": "_ownedTokensIndex",
        "offset": 0,
        "slot": "9",
        "type": "t_mapping(t_uint256,t_uint256)"
      },
      {
        "astId": 1677,
        "contract": "contracts/ERC721Lemonade.sol:ERC721Lemonade",
        "label": "_allTokens",
        "offset": 0,
        "slot": "10",
        "type": "t_array(t_uint256)dyn_storage"
      },
      {
        "astId": 1681,
        "contract": "contracts/ERC721Lemonade.sol:ERC721Lemonade",
        "label": "_allTokensIndex",
        "offset": 0,
        "slot": "11",
        "type": "t_mapping(t_uint256,t_uint256)"
      },
      {
        "astId": 601,
        "contract": "contracts/ERC721Lemonade.sol:ERC721Lemonade",
        "label": "_paused",
        "offset": 0,
        "slot": "12",
        "type": "t_bool"
      },
      {
        "astId": 3557,
        "contract": "contracts/ERC721Lemonade.sol:ERC721Lemonade",
        "label": "_royalties",
        "offset": 0,
        "slot": "13",
        "type": "t_mapping(t_uint256,t_struct(Royalty)3552_storage)"
      },
      {
        "astId": 3353,
        "contract": "contracts/ERC721Lemonade.sol:ERC721Lemonade",
        "label": "_tokenIdTracker",
        "offset": 0,
        "slot": "14",
        "type": "t_struct(Counter)2413_storage"
      },
      {
        "astId": 3357,
        "contract": "contracts/ERC721Lemonade.sol:ERC721Lemonade",
        "label": "_tokenURIs",
        "offset": 0,
        "slot": "15",
        "type": "t_mapping(t_uint256,t_string_storage)"
      }
    ],
    "types": {
      "t_address": {
        "encoding": "inplace",
        "label": "address",
        "numberOfBytes": "20"
      },
      "t_array(t_bytes32)dyn_storage": {
        "base": "t_bytes32",
        "encoding": "dynamic_array",
        "label": "bytes32[]",
        "numberOfBytes": "32"
      },
      "t_array(t_uint256)dyn_storage": {
        "base": "t_uint256",
        "encoding": "dynamic_array",
        "label": "uint256[]",
        "numberOfBytes": "32"
      },
      "t_bool": {
        "encoding": "inplace",
        "label": "bool",
        "numberOfBytes": "1"
      },
      "t_bytes32": {
        "encoding": "inplace",
        "label": "bytes32",
        "numberOfBytes": "32"
      },
      "t_mapping(t_address,t_bool)": {
        "encoding": "mapping",
        "key": "t_address",
        "label": "mapping(address => bool)",
        "numberOfBytes": "32",
        "value": "t_bool"
      },
      "t_mapping(t_address,t_mapping(t_address,t_bool))": {
        "encoding": "mapping",
        "key": "t_address",
        "label": "mapping(address => mapping(address => bool))",
        "numberOfBytes": "32",
        "value": "t_mapping(t_address,t_bool)"
      },
      "t_mapping(t_address,t_mapping(t_uint256,t_uint256))": {
        "encoding": "mapping",
        "key": "t_address",
        "label": "mapping(address => mapping(uint256 => uint256))",
        "numberOfBytes": "32",
        "value": "t_mapping(t_uint256,t_uint256)"
      },
      "t_mapping(t_address,t_uint256)": {
        "encoding": "mapping",
        "key": "t_address",
        "label": "mapping(address => uint256)",
        "numberOfBytes": "32",
        "value": "t_uint256"
      },
      "t_mapping(t_bytes32,t_struct(AddressSet)3032_storage)": {
        "encoding": "mapping",
        "key": "t_bytes32",
        "label": "mapping(bytes32 => struct EnumerableSet.AddressSet)",
        "numberOfBytes": "32",
        "value": "t_struct(AddressSet)3032_storage"
      },
      "t_mapping(t_bytes32,t_struct(RoleData)19_storage)": {
        "encoding": "mapping",
        "key": "t_bytes32",
        "label": "mapping(bytes32 => struct AccessControl.RoleData)",
        "numberOfBytes": "32",
        "value": "t_struct(RoleData)19_storage"
      },
      "t_mapping(t_bytes32,t_uint256)": {
        "encoding": "mapping",
        "key": "t_bytes32",
        "label": "mapping(bytes32 => uint256)",
        "numberOfBytes": "32",
        "value": "t_uint256"
      },
      "t_mapping(t_uint256,t_address)": {
        "encoding": "mapping",
        "key": "t_uint256",
        "label": "mapping(uint256 => address)",
        "numberOfBytes": "32",
        "value": "t_address"
      },
      "t_mapping(t_uint256,t_string_storage)": {
        "encoding": "mapping",
        "key": "t_uint256",
        "label": "mapping(uint256 => string)",
        "numberOfBytes": "32",
        "value": "t_string_storage"
      },
      "t_mapping(t_uint256,t_struct(Royalty)3552_storage)": {
        "encoding": "mapping",
        "key": "t_uint256",
        "label": "mapping(uint256 => struct ERC721Royalty.Royalty)",
        "numberOfBytes": "32",
        "value": "t_struct(Royalty)3552_storage"
      },
      "t_mapping(t_uint256,t_uint256)": {
        "encoding": "mapping",
        "key": "t_uint256",
        "label": "mapping(uint256 => uint256)",
        "numberOfBytes": "32",
        "value": "t_uint256"
      },
      "t_string_storage": {
        "encoding": "bytes",
        "label": "string",
        "numberOfBytes": "32"
      },
      "t_struct(AddressSet)3032_storage": {
        "encoding": "inplace",
        "label": "struct EnumerableSet.AddressSet",
        "members": [
          {
            "astId": 3031,
            "contract": "contracts/ERC721Lemonade.sol:ERC721Lemonade",
            "label": "_inner",
            "offset": 0,
            "slot": "0",
            "type": "t_struct(Set)2731_storage"
          }
        ],
        "numberOfBytes": "64"
      },
      "t_struct(Counter)2413_storage": {
        "encoding": "inplace",
        "label": "struct Counters.Counter",
        "members": [
          {
            "astId": 2412,
            "contract": "contracts/ERC721Lemonade.sol:ERC721Lemonade",
            "label": "_value",
            "offset": 0,
            "slot": "0",
            "type": "t_uint256"
          }
        ],
        "numberOfBytes": "32"
      },
      "t_struct(RoleData)19_storage": {
        "encoding": "inplace",
        "label": "struct AccessControl.RoleData",
        "members": [
          {
            "astId": 16,
            "contract": "contracts/ERC721Lemonade.sol:ERC721Lemonade",
            "label": "members",
            "offset": 0,
            "slot": "0",
            "type": "t_mapping(t_address,t_bool)"
          },
          {
            "astId": 18,
            "contract": "contracts/ERC721Lemonade.sol:ERC721Lemonade",
            "label": "adminRole",
            "offset": 0,
            "slot": "1",
            "type": "t_bytes32"
          }
        ],
        "numberOfBytes": "64"
      },
      "t_struct(Royalty)3552_storage": {
        "encoding": "inplace",
        "label": "struct ERC721Royalty.Royalty",
        "members": [
          {
            "astId": 3549,
            "contract": "contracts/ERC721Lemonade.sol:ERC721Lemonade",
            "label": "maker",
            "offset": 0,
            "slot": "0",
            "type": "t_address"
          },
          {
            "astId": 3551,
            "contract": "contracts/ERC721Lemonade.sol:ERC721Lemonade",
            "label": "fraction",
            "offset": 0,
            "slot": "1",
            "type": "t_uint256"
          }
        ],
        "numberOfBytes": "64"
      },
      "t_struct(Set)2731_storage": {
        "encoding": "inplace",
        "label": "struct EnumerableSet.Set",
        "members": [
          {
            "astId": 2726,
            "contract": "contracts/ERC721Lemonade.sol:ERC721Lemonade",
            "label": "_values",
            "offset": 0,
            "slot": "0",
            "type": "t_array(t_bytes32)dyn_storage"
          },
          {
            "astId": 2730,
            "contract": "contracts/ERC721Lemonade.sol:ERC721Lemonade",
            "label": "_indexes",
            "offset": 0,
            "slot": "1",
            "type": "t_mapping(t_bytes32,t_uint256)"
          }
        ],
        "numberOfBytes": "64"
      },
      "t_uint256": {
        "encoding": "inplace",
        "label": "uint256",
        "numberOfBytes": "32"
      }
    }
  }
}