{
  "address": "0xd0bFdF64F622D79Eb7554c0Dc4C38b42cdfD5780",
  "abi": [
    {
      "inputs": [
        {
          "internalType": "address",
          "name": "feeAccount",
          "type": "address"
        },
        {
          "internalType": "uint96",
          "name": "feeValue",
          "type": "uint96"
        }
      ],
      "stateMutability": "nonpayable",
      "type": "constructor"
    },
    {
      "anonymous": false,
      "inputs": [
        {
          "indexed": true,
          "internalType": "uint256",
          "name": "orderId",
          "type": "uint256"
        },
        {
          "indexed": true,
          "internalType": "address",
          "name": "bidder",
          "type": "address"
        },
        {
          "indexed": false,
          "internalType": "uint256",
          "name": "bidAmount",
          "type": "uint256"
        }
      ],
      "name": "OrderBid",
      "type": "event"
    },
    {
      "anonymous": false,
      "inputs": [
        {
          "indexed": true,
          "internalType": "uint256",
          "name": "orderId",
          "type": "uint256"
        }
      ],
      "name": "OrderCancelled",
      "type": "event"
    },
    {
      "anonymous": false,
      "inputs": [
        {
          "indexed": true,
          "internalType": "uint256",
          "name": "orderId",
          "type": "uint256"
        },
        {
          "indexed": false,
          "internalType": "enum LemonadeMarketplace.OrderKind",
          "name": "kind",
          "type": "uint8"
        },
        {
          "indexed": false,
          "internalType": "uint256",
          "name": "openFrom",
          "type": "uint256"
        },
        {
          "indexed": false,
          "internalType": "uint256",
          "name": "openTo",
          "type": "uint256"
        },
        {
          "indexed": true,
          "internalType": "address",
          "name": "maker",
          "type": "address"
        },
        {
          "indexed": false,
          "internalType": "address",
          "name": "currency",
          "type": "address"
        },
        {
          "indexed": false,
          "internalType": "uint256",
          "name": "price",
          "type": "uint256"
        },
        {
          "indexed": false,
          "internalType": "address",
          "name": "tokenContract",
          "type": "address"
        },
        {
          "indexed": false,
          "internalType": "uint256",
          "name": "tokenId",
          "type": "uint256"
        }
      ],
      "name": "OrderCreated",
      "type": "event"
    },
    {
      "anonymous": false,
      "inputs": [
        {
          "indexed": true,
          "internalType": "uint256",
          "name": "orderId",
          "type": "uint256"
        },
        {
          "indexed": true,
          "internalType": "address",
          "name": "taker",
          "type": "address"
        },
        {
          "indexed": false,
          "internalType": "uint256",
          "name": "paidAmount",
          "type": "uint256"
        }
      ],
      "name": "OrderFilled",
      "type": "event"
    },
    {
      "anonymous": false,
      "inputs": [
        {
          "indexed": false,
          "internalType": "address",
          "name": "account",
          "type": "address"
        }
      ],
      "name": "Paused",
      "type": "event"
    },
    {
      "anonymous": false,
      "inputs": [
        {
          "indexed": true,
          "internalType": "bytes32",
          "name": "role",
          "type": "bytes32"
        },
        {
          "indexed": true,
          "internalType": "bytes32",
          "name": "previousAdminRole",
          "type": "bytes32"
        },
        {
          "indexed": true,
          "internalType": "bytes32",
          "name": "newAdminRole",
          "type": "bytes32"
        }
      ],
      "name": "RoleAdminChanged",
      "type": "event"
    },
    {
      "anonymous": false,
      "inputs": [
        {
          "indexed": true,
          "internalType": "bytes32",
          "name": "role",
          "type": "bytes32"
        },
        {
          "indexed": true,
          "internalType": "address",
          "name": "account",
          "type": "address"
        },
        {
          "indexed": true,
          "internalType": "address",
          "name": "sender",
          "type": "address"
        }
      ],
      "name": "RoleGranted",
      "type": "event"
    },
    {
      "anonymous": false,
      "inputs": [
        {
          "indexed": true,
          "internalType": "bytes32",
          "name": "role",
          "type": "bytes32"
        },
        {
          "indexed": true,
          "internalType": "address",
          "name": "account",
          "type": "address"
        },
        {
          "indexed": true,
          "internalType": "address",
          "name": "sender",
          "type": "address"
        }
      ],
      "name": "RoleRevoked",
      "type": "event"
    },
    {
      "anonymous": false,
      "inputs": [
        {
          "indexed": false,
          "internalType": "address",
          "name": "account",
          "type": "address"
        }
      ],
      "name": "Unpaused",
      "type": "event"
    },
    {
      "inputs": [],
      "name": "DEFAULT_ADMIN_ROLE",
      "outputs": [
        {
          "internalType": "bytes32",
          "name": "",
          "type": "bytes32"
        }
      ],
      "stateMutability": "view",
      "type": "function"
    },
    {
      "inputs": [],
      "name": "FEE_ACCOUNT",
      "outputs": [
        {
          "internalType": "address",
          "name": "",
          "type": "address"
        }
      ],
      "stateMutability": "view",
      "type": "function"
    },
    {
      "inputs": [],
      "name": "FEE_VALUE",
      "outputs": [
        {
          "internalType": "uint96",
          "name": "",
          "type": "uint96"
        }
      ],
      "stateMutability": "view",
      "type": "function"
    },
    {
      "inputs": [],
      "name": "PAUSER_ROLE",
      "outputs": [
        {
          "internalType": "bytes32",
          "name": "",
          "type": "bytes32"
        }
      ],
      "stateMutability": "view",
      "type": "function"
    },
    {
      "inputs": [
        {
          "internalType": "uint256",
          "name": "orderId",
          "type": "uint256"
        },
        {
          "internalType": "uint256",
          "name": "amount",
          "type": "uint256"
        }
      ],
      "name": "bidOrder",
      "outputs": [],
      "stateMutability": "nonpayable",
      "type": "function"
    },
    {
      "inputs": [
        {
          "internalType": "uint256",
          "name": "orderId",
          "type": "uint256"
        }
      ],
      "name": "cancelOrder",
      "outputs": [],
      "stateMutability": "nonpayable",
      "type": "function"
    },
    {
      "inputs": [
        {
          "internalType": "enum LemonadeMarketplace.OrderKind",
          "name": "kind",
          "type": "uint8"
        },
        {
          "internalType": "uint256",
          "name": "openFrom",
          "type": "uint256"
        },
        {
          "internalType": "uint256",
          "name": "openTo",
          "type": "uint256"
        },
        {
          "internalType": "address",
          "name": "currency",
          "type": "address"
        },
        {
          "internalType": "uint256",
          "name": "price",
          "type": "uint256"
        },
        {
          "internalType": "address",
          "name": "tokenContract",
          "type": "address"
        },
        {
          "internalType": "uint256",
          "name": "tokenId",
          "type": "uint256"
        }
      ],
      "name": "createOrder",
      "outputs": [
        {
          "internalType": "uint256",
          "name": "",
          "type": "uint256"
        }
      ],
      "stateMutability": "nonpayable",
      "type": "function"
    },
    {
      "inputs": [],
      "name": "fee",
      "outputs": [
        {
          "internalType": "address",
          "name": "",
          "type": "address"
        },
        {
          "internalType": "uint96",
          "name": "",
          "type": "uint96"
        }
      ],
      "stateMutability": "view",
      "type": "function"
    },
    {
      "inputs": [
        {
          "internalType": "uint256",
          "name": "orderId",
          "type": "uint256"
        },
        {
          "internalType": "uint256",
          "name": "amount",
          "type": "uint256"
        }
      ],
      "name": "fillOrder",
      "outputs": [],
      "stateMutability": "nonpayable",
      "type": "function"
    },
    {
      "inputs": [
        {
          "internalType": "bytes32",
          "name": "role",
          "type": "bytes32"
        }
      ],
      "name": "getRoleAdmin",
      "outputs": [
        {
          "internalType": "bytes32",
          "name": "",
          "type": "bytes32"
        }
      ],
      "stateMutability": "view",
      "type": "function"
    },
    {
      "inputs": [
        {
          "internalType": "bytes32",
          "name": "role",
          "type": "bytes32"
        },
        {
          "internalType": "uint256",
          "name": "index",
          "type": "uint256"
        }
      ],
      "name": "getRoleMember",
      "outputs": [
        {
          "internalType": "address",
          "name": "",
          "type": "address"
        }
      ],
      "stateMutability": "view",
      "type": "function"
    },
    {
      "inputs": [
        {
          "internalType": "bytes32",
          "name": "role",
          "type": "bytes32"
        }
      ],
      "name": "getRoleMemberCount",
      "outputs": [
        {
          "internalType": "uint256",
          "name": "",
          "type": "uint256"
        }
      ],
      "stateMutability": "view",
      "type": "function"
    },
    {
      "inputs": [
        {
          "internalType": "bytes32",
          "name": "role",
          "type": "bytes32"
        },
        {
          "internalType": "address",
          "name": "account",
          "type": "address"
        }
      ],
      "name": "grantRole",
      "outputs": [],
      "stateMutability": "nonpayable",
      "type": "function"
    },
    {
      "inputs": [
        {
          "internalType": "bytes32",
          "name": "role",
          "type": "bytes32"
        },
        {
          "internalType": "address",
          "name": "account",
          "type": "address"
        }
      ],
      "name": "hasRole",
      "outputs": [
        {
          "internalType": "bool",
          "name": "",
          "type": "bool"
        }
      ],
      "stateMutability": "view",
      "type": "function"
    },
    {
      "inputs": [
        {
          "internalType": "uint256",
          "name": "orderId",
          "type": "uint256"
        }
      ],
      "name": "order",
      "outputs": [
        {
          "internalType": "enum LemonadeMarketplace.OrderKind",
          "name": "",
          "type": "uint8"
        },
        {
          "internalType": "bool",
          "name": "",
          "type": "bool"
        },
        {
          "internalType": "uint256",
          "name": "",
          "type": "uint256"
        },
        {
          "internalType": "uint256",
          "name": "",
          "type": "uint256"
        },
        {
          "internalType": "address",
          "name": "",
          "type": "address"
        },
        {
          "internalType": "address",
          "name": "",
          "type": "address"
        },
        {
          "internalType": "uint256",
          "name": "",
          "type": "uint256"
        },
        {
          "internalType": "uint256",
          "name": "",
          "type": "uint256"
        },
        {
          "internalType": "address",
          "name": "",
          "type": "address"
        },
        {
          "internalType": "uint256",
          "name": "",
          "type": "uint256"
        }
      ],
      "stateMutability": "view",
      "type": "function"
    },
    {
      "inputs": [],
      "name": "pause",
      "outputs": [],
      "stateMutability": "nonpayable",
      "type": "function"
    },
    {
      "inputs": [],
      "name": "paused",
      "outputs": [
        {
          "internalType": "bool",
          "name": "",
          "type": "bool"
        }
      ],
      "stateMutability": "view",
      "type": "function"
    },
    {
      "inputs": [
        {
          "internalType": "bytes32",
          "name": "role",
          "type": "bytes32"
        },
        {
          "internalType": "address",
          "name": "account",
          "type": "address"
        }
      ],
      "name": "renounceRole",
      "outputs": [],
      "stateMutability": "nonpayable",
      "type": "function"
    },
    {
      "inputs": [
        {
          "internalType": "bytes32",
          "name": "role",
          "type": "bytes32"
        },
        {
          "internalType": "address",
          "name": "account",
          "type": "address"
        }
      ],
      "name": "revokeRole",
      "outputs": [],
      "stateMutability": "nonpayable",
      "type": "function"
    },
    {
      "inputs": [
        {
          "internalType": "bytes4",
          "name": "interfaceId",
          "type": "bytes4"
        }
      ],
      "name": "supportsInterface",
      "outputs": [
        {
          "internalType": "bool",
          "name": "",
          "type": "bool"
        }
      ],
      "stateMutability": "view",
      "type": "function"
    },
    {
      "inputs": [
        {
          "internalType": "uint256",
          "name": "orderId",
          "type": "uint256"
        }
      ],
      "name": "token",
      "outputs": [
        {
          "internalType": "address",
          "name": "",
          "type": "address"
        },
        {
          "internalType": "uint256",
          "name": "",
          "type": "uint256"
        }
      ],
      "stateMutability": "view",
      "type": "function"
    },
    {
      "inputs": [],
      "name": "unpause",
      "outputs": [],
      "stateMutability": "nonpayable",
      "type": "function"
    }
  ],
  "transactionHash": "0xe7f07cb4fe7d00f709db3a01bf0961e9f35d3a905ef5a3f21027986a69efce0c",
  "args": [
    "0x951292004e8a18955Cb1095CB72Ca6B01d68336E",
    "200"
  ],
  "solcInputHash": "c58bdbc880cdf62a6a73feb73ae067d6",
  "bytecode": "0x60c06040523480156200001157600080fd5b506040516200639b3803806200639b8339818101604052810190620000379190620003e1565b6000600260006101000a81548160ff0219169083151502179055508173ffffffffffffffffffffffffffffffffffffffff1660808173ffffffffffffffffffffffffffffffffffffffff1660601b81525050806bffffffffffffffffffffffff1660a0816bffffffffffffffffffffffff1660a01b81525050620000d46000801b620000c86200011d60201b60201c565b6200012560201b60201c565b620001157f65d7a28e3265b37a6474929f336521b332c1681b933f6cb9f3376673440d862a620001096200011d60201b60201c565b6200012560201b60201c565b5050620004a2565b600033905090565b6200013c82826200016d60201b6200369c1760201c565b6200016881600160008581526020019081526020016000206200018360201b620036aa1790919060201c565b505050565b6200017f8282620001bb60201b60201c565b5050565b6000620001b3836000018373ffffffffffffffffffffffffffffffffffffffff1660001b620002ac60201b60201c565b905092915050565b620001cd82826200032660201b60201c565b620002a857600160008084815260200190815260200160002060000160008373ffffffffffffffffffffffffffffffffffffffff1673ffffffffffffffffffffffffffffffffffffffff16815260200190815260200160002060006101000a81548160ff0219169083151502179055506200024d6200011d60201b60201c565b73ffffffffffffffffffffffffffffffffffffffff168173ffffffffffffffffffffffffffffffffffffffff16837f2f8788117e7eff1d82e926ec794901d17c78024a50270940304540a733656f0d60405160405180910390a45b5050565b6000620002c083836200039060201b60201c565b6200031b57826000018290806001815401808255809150506001900390600052602060002001600090919091909150558260000180549050836001016000848152602001908152602001600020819055506001905062000320565b600090505b92915050565b600080600084815260200190815260200160002060000160008373ffffffffffffffffffffffffffffffffffffffff1673ffffffffffffffffffffffffffffffffffffffff16815260200190815260200160002060009054906101000a900460ff16905092915050565b600080836001016000848152602001908152602001600020541415905092915050565b600081519050620003c4816200046e565b92915050565b600081519050620003db8162000488565b92915050565b60008060408385031215620003f557600080fd5b60006200040585828601620003b3565b92505060206200041885828601620003ca565b9150509250929050565b60006200042f8262000436565b9050919050565b600073ffffffffffffffffffffffffffffffffffffffff82169050919050565b60006bffffffffffffffffffffffff82169050919050565b620004798162000422565b81146200048557600080fd5b50565b620004938162000456565b81146200049f57600080fd5b50565b60805160601c60a05160a01c615eb1620004ea60003960008181611c67015281816131470152613651015260008181611b290152818161319b01526136300152615eb16000f3fe608060405234801561001057600080fd5b50600436106101425760003560e01c80638456cb59116100b8578063b858fb5f1161007c578063b858fb5f14610381578063c37dfc5b1461039d578063ca15c873146103b9578063d547741f146103e9578063ddca3f4314610405578063e63ab1e91461042457610142565b80638456cb59146102db5780639010d07c146102e557806391d1485414610315578063a217fddf14610345578063ae9130951461036357610142565b80632f2ff15d1161010a5780632f2ff15d1461024157806336568abe1461025d5780633f4ba83a14610279578063514fcac7146102835780635c975abb1461029f5780637cca687b146102bd57610142565b806301ffc9a714610147578063044215c6146101775780630c109710146101a857806321603f43146101d8578063248a9ca314610211575b600080fd5b610161600480360381019061015c9190614706565b610442565b60405161016e9190614d62565b60405180910390f35b610191600480360381019061018c91906147cd565b6104bc565b60405161019f929190614d10565b60405180910390f35b6101c260048036038101906101bd919061472f565b61082b565b6040516101cf91906151c5565b60405180910390f35b6101f260048036038101906101ed91906147cd565b61108b565b6040516102089a99989796959493929190614d98565b60405180910390f35b61022b60048036038101906102269190614665565b611448565b6040516102389190614d7d565b60405180910390f35b61025b6004803603810190610256919061468e565b611467565b005b6102776004803603810190610272919061468e565b61149b565b005b6102816114cf565b005b61029d600480360381019061029891906147cd565b611549565b005b6102a7611b10565b6040516102b49190614d62565b60405180910390f35b6102c5611b27565b6040516102d29190614cbe565b60405180910390f35b6102e3611b4b565b005b6102ff60048036038101906102fa91906146ca565b611bc5565b60405161030c9190614cbe565b60405180910390f35b61032f600480360381019061032a919061468e565b611bf4565b60405161033c9190614d62565b60405180910390f35b61034d611c5e565b60405161035a9190614d7d565b60405180910390f35b61036b611c65565b6040516103789190615209565b60405180910390f35b61039b600480360381019061039691906147f6565b611c89565b005b6103b760048036038101906103b291906147f6565b61262d565b005b6103d360048036038101906103ce9190614665565b6135d3565b6040516103e091906151c5565b60405180910390f35b61040360048036038101906103fe919061468e565b6135f7565b005b61040d61362b565b60405161041b929190614d39565b60405180910390f35b61042c613678565b6040516104399190614d7d565b60405180910390f35b60007f5a05180f000000000000000000000000000000000000000000000000000000007bffffffffffffffffffffffffffffffffffffffffffffffffffffffff1916827bffffffffffffffffffffffffffffffffffffffffffffffffffffffff191614806104b557506104b4826136da565b5b9050919050565b60008082600073ffffffffffffffffffffffffffffffffffffffff166003600083815260200190815260200160002060030160009054906101000a900473ffffffffffffffffffffffffffffffffffffffff1673ffffffffffffffffffffffffffffffffffffffff161415610566576040517f08c379a000000000000000000000000000000000000000000000000000000000815260040161055d906150a5565b60405180910390fd5b600060036000868152602001908152602001600020604051806101a00160405290816000820160009054906101000a900460ff1660018111156105d2577f4e487b7100000000000000000000000000000000000000000000000000000000600052602160045260246000fd5b600181111561060a577f4e487b7100000000000000000000000000000000000000000000000000000000600052602160045260246000fd5b81526020016000820160019054906101000a900460ff1615151515815260200160018201548152602001600282015481526020016003820160009054906101000a900473ffffffffffffffffffffffffffffffffffffffff1673ffffffffffffffffffffffffffffffffffffffff1673ffffffffffffffffffffffffffffffffffffffff1681526020016004820160009054906101000a900473ffffffffffffffffffffffffffffffffffffffff1673ffffffffffffffffffffffffffffffffffffffff1673ffffffffffffffffffffffffffffffffffffffff168152602001600582015481526020016006820160009054906101000a900473ffffffffffffffffffffffffffffffffffffffff1673ffffffffffffffffffffffffffffffffffffffff1673ffffffffffffffffffffffffffffffffffffffff168152602001600782015481526020016008820160009054906101000a900473ffffffffffffffffffffffffffffffffffffffff1673ffffffffffffffffffffffffffffffffffffffff1673ffffffffffffffffffffffffffffffffffffffff16815260200160098201548152602001600a820160009054906101000a900473ffffffffffffffffffffffffffffffffffffffff1673ffffffffffffffffffffffffffffffffffffffff1673ffffffffffffffffffffffffffffffffffffffff168152602001600b8201548152505090508060e00151816101000151935093505050915091565b6000610835611b10565b15610875576040517f08c379a000000000000000000000000000000000000000000000000000000000815260040161086c90614fe5565b60405180910390fd5b60006108818888613754565b9050600081116108c6576040517f08c379a00000000000000000000000000000000000000000000000000000000081526004016108bd90615025565b60405180910390fd5b6001808111156108ff577f4e487b7100000000000000000000000000000000000000000000000000000000600052602160045260246000fd5b896001811115610938577f4e487b7100000000000000000000000000000000000000000000000000000000600052602160045260246000fd5b14156109855762278d00811115610984576040517f08c379a000000000000000000000000000000000000000000000000000000000815260040161097b90615005565b60405180910390fd5b5b8373ffffffffffffffffffffffffffffffffffffffff166323b872dd6109a96137c5565b30866040518463ffffffff1660e01b81526004016109c993929190614cd9565b600060405180830381600087803b1580156109e357600080fd5b505af11580156109f7573d6000803e3d6000fd5b505050506000610a0760046137cd565b9050604051806101a001604052808b6001811115610a4e577f4e487b7100000000000000000000000000000000000000000000000000000000600052602160045260246000fd5b81526020016001151581526020018a8152602001898152602001610a706137c5565b73ffffffffffffffffffffffffffffffffffffffff1681526020018873ffffffffffffffffffffffffffffffffffffffff1681526020018781526020018673ffffffffffffffffffffffffffffffffffffffff168152602001858152602001600073ffffffffffffffffffffffffffffffffffffffff16815260200160008152602001600073ffffffffffffffffffffffffffffffffffffffff16815260200160008152506003600083815260200190815260200160002060008201518160000160006101000a81548160ff02191690836001811115610b79577f4e487b7100000000000000000000000000000000000000000000000000000000600052602160045260246000fd5b021790555060208201518160000160016101000a81548160ff021916908315150217905550604082015181600101556060820151816002015560808201518160030160006101000a81548173ffffffffffffffffffffffffffffffffffffffff021916908373ffffffffffffffffffffffffffffffffffffffff16021790555060a08201518160040160006101000a81548173ffffffffffffffffffffffffffffffffffffffff021916908373ffffffffffffffffffffffffffffffffffffffff16021790555060c0820151816005015560e08201518160060160006101000a81548173ffffffffffffffffffffffffffffffffffffffff021916908373ffffffffffffffffffffffffffffffffffffffff16021790555061010082015181600701556101208201518160080160006101000a81548173ffffffffffffffffffffffffffffffffffffffff021916908373ffffffffffffffffffffffffffffffffffffffff160217905550610140820151816009015561016082015181600a0160006101000a81548173ffffffffffffffffffffffffffffffffffffffff021916908373ffffffffffffffffffffffffffffffffffffffff16021790555061018082015181600b0155905050610d4f60046137db565b600060036000838152602001908152602001600020604051806101a00160405290816000820160009054906101000a900460ff166001811115610dbb577f4e487b7100000000000000000000000000000000000000000000000000000000600052602160045260246000fd5b6001811115610df3577f4e487b7100000000000000000000000000000000000000000000000000000000600052602160045260246000fd5b81526020016000820160019054906101000a900460ff1615151515815260200160018201548152602001600282015481526020016003820160009054906101000a900473ffffffffffffffffffffffffffffffffffffffff1673ffffffffffffffffffffffffffffffffffffffff1673ffffffffffffffffffffffffffffffffffffffff1681526020016004820160009054906101000a900473ffffffffffffffffffffffffffffffffffffffff1673ffffffffffffffffffffffffffffffffffffffff1673ffffffffffffffffffffffffffffffffffffffff168152602001600582015481526020016006820160009054906101000a900473ffffffffffffffffffffffffffffffffffffffff1673ffffffffffffffffffffffffffffffffffffffff1673ffffffffffffffffffffffffffffffffffffffff168152602001600782015481526020016008820160009054906101000a900473ffffffffffffffffffffffffffffffffffffffff1673ffffffffffffffffffffffffffffffffffffffff1673ffffffffffffffffffffffffffffffffffffffff16815260200160098201548152602001600a820160009054906101000a900473ffffffffffffffffffffffffffffffffffffffff1673ffffffffffffffffffffffffffffffffffffffff1673ffffffffffffffffffffffffffffffffffffffff168152602001600b820154815250509050806080015173ffffffffffffffffffffffffffffffffffffffff16827f4e400f43dce6cc22df28146360114559ffae81b0644d4752872c7def6d77319e8360000151846040015185606001518660a001518760c001518860e001518961010001516040516110729796959493929190614e34565b60405180910390a3819350505050979650505050505050565b6000806000806000806000806000808a600073ffffffffffffffffffffffffffffffffffffffff166003600083815260200190815260200160002060030160009054906101000a900473ffffffffffffffffffffffffffffffffffffffff1673ffffffffffffffffffffffffffffffffffffffff161415611141576040517f08c379a0000000000000000000000000000000000000000000000000000000008152600401611138906150a5565b60405180910390fd5b6000600360008e8152602001908152602001600020604051806101a00160405290816000820160009054906101000a900460ff1660018111156111ad577f4e487b7100000000000000000000000000000000000000000000000000000000600052602160045260246000fd5b60018111156111e5577f4e487b7100000000000000000000000000000000000000000000000000000000600052602160045260246000fd5b81526020016000820160019054906101000a900460ff1615151515815260200160018201548152602001600282015481526020016003820160009054906101000a900473ffffffffffffffffffffffffffffffffffffffff1673ffffffffffffffffffffffffffffffffffffffff1673ffffffffffffffffffffffffffffffffffffffff1681526020016004820160009054906101000a900473ffffffffffffffffffffffffffffffffffffffff1673ffffffffffffffffffffffffffffffffffffffff1673ffffffffffffffffffffffffffffffffffffffff168152602001600582015481526020016006820160009054906101000a900473ffffffffffffffffffffffffffffffffffffffff1673ffffffffffffffffffffffffffffffffffffffff1673ffffffffffffffffffffffffffffffffffffffff168152602001600782015481526020016008820160009054906101000a900473ffffffffffffffffffffffffffffffffffffffff1673ffffffffffffffffffffffffffffffffffffffff1673ffffffffffffffffffffffffffffffffffffffff16815260200160098201548152602001600a820160009054906101000a900473ffffffffffffffffffffffffffffffffffffffff1673ffffffffffffffffffffffffffffffffffffffff1673ffffffffffffffffffffffffffffffffffffffff168152602001600b820154815250509050806000015181602001518260400151836060015184608001518560a001518660c001518761014001518861016001518961018001519b509b509b509b509b509b509b509b509b509b5050509193959799509193959799565b6000806000838152602001908152602001600020600101549050919050565b61147182826137f1565b61149681600160008581526020019081526020016000206136aa90919063ffffffff16565b505050565b6114a5828261381a565b6114ca816001600085815260200190815260200160002061389d90919063ffffffff16565b505050565b6115007f65d7a28e3265b37a6474929f336521b332c1681b933f6cb9f3376673440d862a6114fb6137c5565b611bf4565b61153f576040517f08c379a000000000000000000000000000000000000000000000000000000000815260040161153690615105565b60405180910390fd5b6115476138cd565b565b611551611b10565b15611591576040517f08c379a000000000000000000000000000000000000000000000000000000000815260040161158890614fe5565b60405180910390fd5b80600073ffffffffffffffffffffffffffffffffffffffff166003600083815260200190815260200160002060030160009054906101000a900473ffffffffffffffffffffffffffffffffffffffff1673ffffffffffffffffffffffffffffffffffffffff161415611638576040517f08c379a000000000000000000000000000000000000000000000000000000000815260040161162f906150a5565b60405180910390fd5b600060036000848152602001908152602001600020604051806101a00160405290816000820160009054906101000a900460ff1660018111156116a4577f4e487b7100000000000000000000000000000000000000000000000000000000600052602160045260246000fd5b60018111156116dc577f4e487b7100000000000000000000000000000000000000000000000000000000600052602160045260246000fd5b81526020016000820160019054906101000a900460ff1615151515815260200160018201548152602001600282015481526020016003820160009054906101000a900473ffffffffffffffffffffffffffffffffffffffff1673ffffffffffffffffffffffffffffffffffffffff1673ffffffffffffffffffffffffffffffffffffffff1681526020016004820160009054906101000a900473ffffffffffffffffffffffffffffffffffffffff1673ffffffffffffffffffffffffffffffffffffffff1673ffffffffffffffffffffffffffffffffffffffff168152602001600582015481526020016006820160009054906101000a900473ffffffffffffffffffffffffffffffffffffffff1673ffffffffffffffffffffffffffffffffffffffff1673ffffffffffffffffffffffffffffffffffffffff168152602001600782015481526020016008820160009054906101000a900473ffffffffffffffffffffffffffffffffffffffff1673ffffffffffffffffffffffffffffffffffffffff1673ffffffffffffffffffffffffffffffffffffffff16815260200160098201548152602001600a820160009054906101000a900473ffffffffffffffffffffffffffffffffffffffff1673ffffffffffffffffffffffffffffffffffffffff1673ffffffffffffffffffffffffffffffffffffffff168152602001600b8201548152505090506118ef6137c5565b73ffffffffffffffffffffffffffffffffffffffff16816080015173ffffffffffffffffffffffffffffffffffffffff16148061193c575061193b6000801b6119366137c5565b611bf4565b5b61197b576040517f08c379a000000000000000000000000000000000000000000000000000000000815260040161197290615085565b60405180910390fd5b80602001516119bf576040517f08c379a00000000000000000000000000000000000000000000000000000000081526004016119b690615065565b60405180910390fd5b600073ffffffffffffffffffffffffffffffffffffffff1681610120015173ffffffffffffffffffffffffffffffffffffffff1614611a33576040517f08c379a0000000000000000000000000000000000000000000000000000000008152600401611a2a90615045565b60405180910390fd5b8060e0015173ffffffffffffffffffffffffffffffffffffffff166342842e0e3083608001518461010001516040518463ffffffff1660e01b8152600401611a7d93929190614cd9565b600060405180830381600087803b158015611a9757600080fd5b505af1158015611aab573d6000803e3d6000fd5b5050505060006003600085815260200190815260200160002060000160016101000a81548160ff021916908315150217905550827f61b9399f2f0f32ca39ce8d7be32caed5ec22fe07a6daba3a467ed479ec60658260405160405180910390a2505050565b6000600260009054906101000a900460ff16905090565b7f000000000000000000000000000000000000000000000000000000000000000081565b611b7c7f65d7a28e3265b37a6474929f336521b332c1681b933f6cb9f3376673440d862a611b776137c5565b611bf4565b611bbb576040517f08c379a0000000000000000000000000000000000000000000000000000000008152600401611bb290614f25565b60405180910390fd5b611bc361396f565b565b6000611bec8260016000868152602001908152602001600020613a1290919063ffffffff16565b905092915050565b600080600084815260200190815260200160002060000160008373ffffffffffffffffffffffffffffffffffffffff1673ffffffffffffffffffffffffffffffffffffffff16815260200190815260200160002060009054906101000a900460ff16905092915050565b6000801b81565b7f000000000000000000000000000000000000000000000000000000000000000081565b611c91611b10565b15611cd1576040517f08c379a0000000000000000000000000000000000000000000000000000000008152600401611cc890614fe5565b60405180910390fd5b81600073ffffffffffffffffffffffffffffffffffffffff166003600083815260200190815260200160002060030160009054906101000a900473ffffffffffffffffffffffffffffffffffffffff1673ffffffffffffffffffffffffffffffffffffffff161415611d78576040517f08c379a0000000000000000000000000000000000000000000000000000000008152600401611d6f906150a5565b60405180910390fd5b600060036000858152602001908152602001600020604051806101a00160405290816000820160009054906101000a900460ff166001811115611de4577f4e487b7100000000000000000000000000000000000000000000000000000000600052602160045260246000fd5b6001811115611e1c577f4e487b7100000000000000000000000000000000000000000000000000000000600052602160045260246000fd5b81526020016000820160019054906101000a900460ff1615151515815260200160018201548152602001600282015481526020016003820160009054906101000a900473ffffffffffffffffffffffffffffffffffffffff1673ffffffffffffffffffffffffffffffffffffffff1673ffffffffffffffffffffffffffffffffffffffff1681526020016004820160009054906101000a900473ffffffffffffffffffffffffffffffffffffffff1673ffffffffffffffffffffffffffffffffffffffff1673ffffffffffffffffffffffffffffffffffffffff168152602001600582015481526020016006820160009054906101000a900473ffffffffffffffffffffffffffffffffffffffff1673ffffffffffffffffffffffffffffffffffffffff1673ffffffffffffffffffffffffffffffffffffffff168152602001600782015481526020016008820160009054906101000a900473ffffffffffffffffffffffffffffffffffffffff1673ffffffffffffffffffffffffffffffffffffffff1673ffffffffffffffffffffffffffffffffffffffff16815260200160098201548152602001600a820160009054906101000a900473ffffffffffffffffffffffffffffffffffffffff1673ffffffffffffffffffffffffffffffffffffffff1673ffffffffffffffffffffffffffffffffffffffff168152602001600b820154815250509050600180811115612060577f4e487b7100000000000000000000000000000000000000000000000000000000600052602160045260246000fd5b8160000151600181111561209d577f4e487b7100000000000000000000000000000000000000000000000000000000600052602160045260246000fd5b146120dd576040517f08c379a00000000000000000000000000000000000000000000000000000000081526004016120d490614f85565b60405180910390fd5b8060200151612121576040517f08c379a000000000000000000000000000000000000000000000000000000000815260040161211890614f65565b60405180910390fd5b4281604001511115612168576040517f08c379a000000000000000000000000000000000000000000000000000000000815260040161215f906150e5565b60405180910390fd5b428160600151116121ae576040517f08c379a00000000000000000000000000000000000000000000000000000000081526004016121a590614f45565b60405180910390fd5b828160c0015111156121f5576040517f08c379a00000000000000000000000000000000000000000000000000000000081526004016121ec906150c5565b60405180910390fd5b600073ffffffffffffffffffffffffffffffffffffffff1681610120015173ffffffffffffffffffffffffffffffffffffffff1614612290578281610140015110612275576040517f08c379a000000000000000000000000000000000000000000000000000000000815260040161226c906151a5565b60405180910390fd5b61228f8160a0015130836101200151846101400151613a2c565b5b6122986137c5565b6003600086815260200190815260200160002060080160006101000a81548173ffffffffffffffffffffffffffffffffffffffff021916908373ffffffffffffffffffffffffffffffffffffffff16021790555082600360008681526020019081526020016000206009018190555060036000858152602001908152602001600020604051806101a00160405290816000820160009054906101000a900460ff166001811115612371577f4e487b7100000000000000000000000000000000000000000000000000000000600052602160045260246000fd5b60018111156123a9577f4e487b7100000000000000000000000000000000000000000000000000000000600052602160045260246000fd5b81526020016000820160019054906101000a900460ff1615151515815260200160018201548152602001600282015481526020016003820160009054906101000a900473ffffffffffffffffffffffffffffffffffffffff1673ffffffffffffffffffffffffffffffffffffffff1673ffffffffffffffffffffffffffffffffffffffff1681526020016004820160009054906101000a900473ffffffffffffffffffffffffffffffffffffffff1673ffffffffffffffffffffffffffffffffffffffff1673ffffffffffffffffffffffffffffffffffffffff168152602001600582015481526020016006820160009054906101000a900473ffffffffffffffffffffffffffffffffffffffff1673ffffffffffffffffffffffffffffffffffffffff1673ffffffffffffffffffffffffffffffffffffffff168152602001600782015481526020016008820160009054906101000a900473ffffffffffffffffffffffffffffffffffffffff1673ffffffffffffffffffffffffffffffffffffffff1673ffffffffffffffffffffffffffffffffffffffff16815260200160098201548152602001600a820160009054906101000a900473ffffffffffffffffffffffffffffffffffffffff1673ffffffffffffffffffffffffffffffffffffffff1673ffffffffffffffffffffffffffffffffffffffff168152602001600b8201548152505090506125ce8160a0015182610120015130846101400151613a2c565b80610120015173ffffffffffffffffffffffffffffffffffffffff16847f43c168f1d9d74d73325ab680f380bc731699766781190d47b123572b01b2fa2883610140015160405161261f91906151c5565b60405180910390a350505050565b612635611b10565b15612675576040517f08c379a000000000000000000000000000000000000000000000000000000000815260040161266c90614fe5565b60405180910390fd5b81600073ffffffffffffffffffffffffffffffffffffffff166003600083815260200190815260200160002060030160009054906101000a900473ffffffffffffffffffffffffffffffffffffffff1673ffffffffffffffffffffffffffffffffffffffff16141561271c576040517f08c379a0000000000000000000000000000000000000000000000000000000008152600401612713906150a5565b60405180910390fd5b600060036000858152602001908152602001600020604051806101a00160405290816000820160009054906101000a900460ff166001811115612788577f4e487b7100000000000000000000000000000000000000000000000000000000600052602160045260246000fd5b60018111156127c0577f4e487b7100000000000000000000000000000000000000000000000000000000600052602160045260246000fd5b81526020016000820160019054906101000a900460ff1615151515815260200160018201548152602001600282015481526020016003820160009054906101000a900473ffffffffffffffffffffffffffffffffffffffff1673ffffffffffffffffffffffffffffffffffffffff1673ffffffffffffffffffffffffffffffffffffffff1681526020016004820160009054906101000a900473ffffffffffffffffffffffffffffffffffffffff1673ffffffffffffffffffffffffffffffffffffffff1673ffffffffffffffffffffffffffffffffffffffff168152602001600582015481526020016006820160009054906101000a900473ffffffffffffffffffffffffffffffffffffffff1673ffffffffffffffffffffffffffffffffffffffff1673ffffffffffffffffffffffffffffffffffffffff168152602001600782015481526020016008820160009054906101000a900473ffffffffffffffffffffffffffffffffffffffff1673ffffffffffffffffffffffffffffffffffffffff1673ffffffffffffffffffffffffffffffffffffffff16815260200160098201548152602001600a820160009054906101000a900473ffffffffffffffffffffffffffffffffffffffff1673ffffffffffffffffffffffffffffffffffffffff1673ffffffffffffffffffffffffffffffffffffffff168152602001600b8201548152505090508060200151612a0f576040517f08c379a0000000000000000000000000000000000000000000000000000000008152600401612a0690614f05565b60405180910390fd5b60006003600086815260200190815260200160002060000160016101000a81548160ff0219169083151502179055506000806001811115612a79577f4e487b7100000000000000000000000000000000000000000000000000000000600052602160045260246000fd5b82600001516001811115612ab6577f4e487b7100000000000000000000000000000000000000000000000000000000600052602160045260246000fd5b1415612c25574282604001511115612b03576040517f08c379a0000000000000000000000000000000000000000000000000000000008152600401612afa90614fc5565b60405180910390fd5b600082606001511480612b195750428260600151115b612b58576040517f08c379a0000000000000000000000000000000000000000000000000000000008152600401612b4f90614fa5565b60405180910390fd5b838260c001511115612b9f576040517f08c379a0000000000000000000000000000000000000000000000000000000008152600401612b9690615145565b60405180910390fd5b612ba76137c5565b60036000878152602001908152602001600020600a0160006101000a81548173ffffffffffffffffffffffffffffffffffffffff021916908373ffffffffffffffffffffffffffffffffffffffff1602179055508360036000878152602001908152602001600020600b0181905550612c1e6137c5565b9050612e7b565b600180811115612c5e577f4e487b7100000000000000000000000000000000000000000000000000000000600052602160045260246000fd5b82600001516001811115612c9b577f4e487b7100000000000000000000000000000000000000000000000000000000600052602160045260246000fd5b1415612e7a57600073ffffffffffffffffffffffffffffffffffffffff1682610120015173ffffffffffffffffffffffffffffffffffffffff161415612d16576040517f08c379a0000000000000000000000000000000000000000000000000000000008152600401612d0d90615125565b60405180910390fd5b612d1e6137c5565b73ffffffffffffffffffffffffffffffffffffffff1682610120015173ffffffffffffffffffffffffffffffffffffffff16148015612d61575042826060015111155b80612da25750612d6f6137c5565b73ffffffffffffffffffffffffffffffffffffffff16826080015173ffffffffffffffffffffffffffffffffffffffff16145b80612dbd5750612dbc6000801b612db76137c5565b611bf4565b5b612dfc576040517f08c379a0000000000000000000000000000000000000000000000000000000008152600401612df390615165565b60405180910390fd5b81610120015160036000878152602001908152602001600020600a0160006101000a81548173ffffffffffffffffffffffffffffffffffffffff021916908373ffffffffffffffffffffffffffffffffffffffff16021790555081610140015160036000878152602001908152602001600020600b01819055503090505b5b60036000868152602001908152602001600020604051806101a00160405290816000820160009054906101000a900460ff166001811115612ee5577f4e487b7100000000000000000000000000000000000000000000000000000000600052602160045260246000fd5b6001811115612f1d577f4e487b7100000000000000000000000000000000000000000000000000000000600052602160045260246000fd5b81526020016000820160019054906101000a900460ff1615151515815260200160018201548152602001600282015481526020016003820160009054906101000a900473ffffffffffffffffffffffffffffffffffffffff1673ffffffffffffffffffffffffffffffffffffffff1673ffffffffffffffffffffffffffffffffffffffff1681526020016004820160009054906101000a900473ffffffffffffffffffffffffffffffffffffffff1673ffffffffffffffffffffffffffffffffffffffff1673ffffffffffffffffffffffffffffffffffffffff168152602001600582015481526020016006820160009054906101000a900473ffffffffffffffffffffffffffffffffffffffff1673ffffffffffffffffffffffffffffffffffffffff1673ffffffffffffffffffffffffffffffffffffffff168152602001600782015481526020016008820160009054906101000a900473ffffffffffffffffffffffffffffffffffffffff1673ffffffffffffffffffffffffffffffffffffffff1673ffffffffffffffffffffffffffffffffffffffff16815260200160098201548152602001600a820160009054906101000a900473ffffffffffffffffffffffffffffffffffffffff1673ffffffffffffffffffffffffffffffffffffffff1673ffffffffffffffffffffffffffffffffffffffff168152602001600b820154815250509150600082610180015111156134f6576000826101800151905060006127107f00000000000000000000000000000000000000000000000000000000000000006bffffffffffffffffffffffff168561018001516131849190615323565b61318e91906152f2565b90506131c08460a00151847f000000000000000000000000000000000000000000000000000000000000000084613a2c565b80826131cc919061537d565b91508360e0015173ffffffffffffffffffffffffffffffffffffffff1663cad96cca8561010001516040518263ffffffff1660e01b815260040161321091906151c5565b60006040518083038186803b15801561322857600080fd5b505afa92505050801561325e57506040513d6000823e3d601f19601f8201168201806040525081019061325b91906145fb565b60015b61335a578360e0015173ffffffffffffffffffffffffffffffffffffffff16632a55205a8561010001518661018001516040518363ffffffff1660e01b81526004016132ab9291906151e0565b604080518083038186803b1580156132c257600080fd5b505afa9250505080156132f357506040513d601f19601f820116820180604052508101906132f091906145bf565b60015b6132fc57613355565b8173ffffffffffffffffffffffffffffffffffffffff16866080015173ffffffffffffffffffffffffffffffffffffffff1614613352576133438660a00151868484613a2c565b808461334f919061537d565b93505b50505b6134d5565b60008151905060005b818110156134d1578281815181106133a4577f4e487b7100000000000000000000000000000000000000000000000000000000600052603260045260246000fd5b60200260200101516000015173ffffffffffffffffffffffffffffffffffffffff16876080015173ffffffffffffffffffffffffffffffffffffffff16146134be576000612710848381518110613424577f4e487b7100000000000000000000000000000000000000000000000000000000600052603260045260246000fd5b6020026020010151602001516bffffffffffffffffffffffff1689610180015161344e9190615323565b61345891906152f2565b90506134ae8860a001518886858151811061349c577f4e487b7100000000000000000000000000000000000000000000000000000000600052603260045260246000fd5b60200260200101516000015184613a2c565b80866134ba919061537d565b9550505b80806134c99061550c565b915050613363565b5050505b60008211156134f3576134f28460a0015184866080015185613a2c565b5b50505b8160e0015173ffffffffffffffffffffffffffffffffffffffff166342842e0e308461016001518561010001516040518463ffffffff1660e01b815260040161354193929190614cd9565b600060405180830381600087803b15801561355b57600080fd5b505af115801561356f573d6000803e3d6000fd5b5050505081610160015173ffffffffffffffffffffffffffffffffffffffff16857f1e7abafb1a786c4e6394b5c494f50a97e3802ff2ce462eca4fe6a2dd4e1f92e88461018001516040516135c491906151c5565b60405180910390a35050505050565b60006135f060016000848152602001908152602001600020613b90565b9050919050565b6136018282613ba5565b613626816001600085815260200190815260200160002061389d90919063ffffffff16565b505050565b6000807f00000000000000000000000000000000000000000000000000000000000000007f0000000000000000000000000000000000000000000000000000000000000000915091509091565b7f65d7a28e3265b37a6474929f336521b332c1681b933f6cb9f3376673440d862a81565b6136a68282613bce565b5050565b60006136d2836000018373ffffffffffffffffffffffffffffffffffffffff1660001b613cae565b905092915050565b60007f7965db0b000000000000000000000000000000000000000000000000000000007bffffffffffffffffffffffffffffffffffffffffffffffffffffffff1916827bffffffffffffffffffffffffffffffffffffffffffffffffffffffff1916148061374d575061374c82613d1e565b5b9050919050565b6000804284106137645783613766565b425b905060008084146137775783613799565b7fffffffffffffffffffffffffffffffffffffffffffffffffffffffffffffffff5b9050808211156137ae576000925050506137bf565b81816137ba919061537d565b925050505b92915050565b600033905090565b600081600001549050919050565b6001816000016000828254019250508190555050565b6137fa82611448565b61380b816138066137c5565b613d88565b6138158383613bce565b505050565b6138226137c5565b73ffffffffffffffffffffffffffffffffffffffff168173ffffffffffffffffffffffffffffffffffffffff161461388f576040517f08c379a000000000000000000000000000000000000000000000000000000000815260040161388690615185565b60405180910390fd5b6138998282613e25565b5050565b60006138c5836000018373ffffffffffffffffffffffffffffffffffffffff1660001b613f06565b905092915050565b6138d5611b10565b613914576040517f08c379a000000000000000000000000000000000000000000000000000000000815260040161390b90614ee5565b60405180910390fd5b6000600260006101000a81548160ff0219169083151502179055507f5db9ee0a495bf2e6ff9c91a7834c1ba4fdd244a5e8aa4e537bd38aeae4b073aa6139586137c5565b6040516139659190614cbe565b60405180910390a1565b613977611b10565b156139b7576040517f08c379a00000000000000000000000000000000000000000000000000000000081526004016139ae90614fe5565b60405180910390fd5b6001600260006101000a81548160ff0219169083151502179055507f62e78cea01bee320cd4e420270b5ea74000d11b0c9f74754ebdbfc544b05a2586139fb6137c5565b604051613a089190614cbe565b60405180910390a1565b6000613a21836000018361408c565b60001c905092915050565b60008490503073ffffffffffffffffffffffffffffffffffffffff168473ffffffffffffffffffffffffffffffffffffffff161415613af8578073ffffffffffffffffffffffffffffffffffffffff1663a9059cbb84846040518363ffffffff1660e01b8152600401613aa0929190614d10565b602060405180830381600087803b158015613aba57600080fd5b505af1158015613ace573d6000803e3d6000fd5b505050506040513d601f19601f82011682018060405250810190613af2919061463c565b50613b89565b8073ffffffffffffffffffffffffffffffffffffffff166323b872dd8585856040518463ffffffff1660e01b8152600401613b3593929190614cd9565b602060405180830381600087803b158015613b4f57600080fd5b505af1158015613b63573d6000803e3d6000fd5b505050506040513d601f19601f82011682018060405250810190613b87919061463c565b505b5050505050565b6000613b9e826000016140dd565b9050919050565b613bae82611448565b613bbf81613bba6137c5565b613d88565b613bc98383613e25565b505050565b613bd88282611bf4565b613caa57600160008084815260200190815260200160002060000160008373ffffffffffffffffffffffffffffffffffffffff1673ffffffffffffffffffffffffffffffffffffffff16815260200190815260200160002060006101000a81548160ff021916908315150217905550613c4f6137c5565b73ffffffffffffffffffffffffffffffffffffffff168173ffffffffffffffffffffffffffffffffffffffff16837f2f8788117e7eff1d82e926ec794901d17c78024a50270940304540a733656f0d60405160405180910390a45b5050565b6000613cba83836140ee565b613d13578260000182908060018154018082558091505060019003906000526020600020016000909190919091505582600001805490508360010160008481526020019081526020016000208190555060019050613d18565b600090505b92915050565b60007f01ffc9a7000000000000000000000000000000000000000000000000000000007bffffffffffffffffffffffffffffffffffffffffffffffffffffffff1916827bffffffffffffffffffffffffffffffffffffffffffffffffffffffff1916149050919050565b613d928282611bf4565b613e2157613db78173ffffffffffffffffffffffffffffffffffffffff166014614111565b613dc58360001c6020614111565b604051602001613dd6929190614c84565b6040516020818303038152906040526040517f08c379a0000000000000000000000000000000000000000000000000000000008152600401613e189190614ea3565b60405180910390fd5b5050565b613e2f8282611bf4565b15613f0257600080600084815260200190815260200160002060000160008373ffffffffffffffffffffffffffffffffffffffff1673ffffffffffffffffffffffffffffffffffffffff16815260200190815260200160002060006101000a81548160ff021916908315150217905550613ea76137c5565b73ffffffffffffffffffffffffffffffffffffffff168173ffffffffffffffffffffffffffffffffffffffff16837ff6391f5c32d9c69d2a47ea670b442974b53935d1edc7fd64eb21e047a839171b60405160405180910390a45b5050565b60008083600101600084815260200190815260200160002054905060008114614080576000600182613f38919061537d565b9050600060018660000180549050613f50919061537d565b905081811461400b576000866000018281548110613f97577f4e487b7100000000000000000000000000000000000000000000000000000000600052603260045260246000fd5b9060005260206000200154905080876000018481548110613fe1577f4e487b7100000000000000000000000000000000000000000000000000000000600052603260045260246000fd5b90600052602060002001819055508387600101600083815260200190815260200160002081905550505b85600001805480614045577f4e487b7100000000000000000000000000000000000000000000000000000000600052603160045260246000fd5b600190038181906000526020600020016000905590558560010160008681526020019081526020016000206000905560019350505050614086565b60009150505b92915050565b60008260000182815481106140ca577f4e487b7100000000000000000000000000000000000000000000000000000000600052603260045260246000fd5b9060005260206000200154905092915050565b600081600001805490509050919050565b600080836001016000848152602001908152602001600020541415905092915050565b6060600060028360026141249190615323565b61412e919061529c565b67ffffffffffffffff81111561416d577f4e487b7100000000000000000000000000000000000000000000000000000000600052604160045260246000fd5b6040519080825280601f01601f19166020018201604052801561419f5781602001600182028036833780820191505090505b5090507f3000000000000000000000000000000000000000000000000000000000000000816000815181106141fd577f4e487b7100000000000000000000000000000000000000000000000000000000600052603260045260246000fd5b60200101907effffffffffffffffffffffffffffffffffffffffffffffffffffffffffffff1916908160001a9053507f780000000000000000000000000000000000000000000000000000000000000081600181518110614287577f4e487b7100000000000000000000000000000000000000000000000000000000600052603260045260246000fd5b60200101907effffffffffffffffffffffffffffffffffffffffffffffffffffffffffffff1916908160001a905350600060018460026142c79190615323565b6142d1919061529c565b90505b60018111156143bd577f3031323334353637383961626364656600000000000000000000000000000000600f861660108110614339577f4e487b7100000000000000000000000000000000000000000000000000000000600052603260045260246000fd5b1a60f81b828281518110614376577f4e487b7100000000000000000000000000000000000000000000000000000000600052603260045260246000fd5b60200101907effffffffffffffffffffffffffffffffffffffffffffffffffffffffffffff1916908160001a905350600485901c9450806143b6906154b1565b90506142d4565b5060008414614401576040517f08c379a00000000000000000000000000000000000000000000000000000000081526004016143f890614ec5565b60405180910390fd5b8091505092915050565b600061441e61441984615249565b615224565b9050808382526020820190508285604086028201111561443d57600080fd5b60005b8581101561446d57816144538882614534565b845260208401935060408301925050600181019050614440565b5050509392505050565b60008135905061448681615dca565b92915050565b60008151905061449b81615dca565b92915050565b6000815190506144b081615de1565b92915050565b600082601f8301126144c757600080fd5b81516144d784826020860161440b565b91505092915050565b6000815190506144ef81615df8565b92915050565b60008135905061450481615e0f565b92915050565b60008135905061451981615e26565b92915050565b60008135905061452e81615e3d565b92915050565b60006040828403121561454657600080fd5b6145506040615224565b90506000614560848285016144a1565b6000830152506020614574848285016145aa565b60208301525092915050565b60008135905061458f81615e4d565b92915050565b6000815190506145a481615e4d565b92915050565b6000815190506145b981615e64565b92915050565b600080604083850312156145d257600080fd5b60006145e08582860161448c565b92505060206145f185828601614595565b9150509250929050565b60006020828403121561460d57600080fd5b600082015167ffffffffffffffff81111561462757600080fd5b614633848285016144b6565b91505092915050565b60006020828403121561464e57600080fd5b600061465c848285016144e0565b91505092915050565b60006020828403121561467757600080fd5b6000614685848285016144f5565b91505092915050565b600080604083850312156146a157600080fd5b60006146af858286016144f5565b92505060206146c085828601614477565b9150509250929050565b600080604083850312156146dd57600080fd5b60006146eb858286016144f5565b92505060206146fc85828601614580565b9150509250929050565b60006020828403121561471857600080fd5b60006147268482850161450a565b91505092915050565b600080600080600080600060e0888a03121561474a57600080fd5b60006147588a828b0161451f565b97505060206147698a828b01614580565b965050604061477a8a828b01614580565b955050606061478b8a828b01614477565b945050608061479c8a828b01614580565b93505060a06147ad8a828b01614477565b92505060c06147be8a828b01614580565b91505092959891949750929550565b6000602082840312156147df57600080fd5b60006147ed84828501614580565b91505092915050565b6000806040838503121561480957600080fd5b600061481785828601614580565b925050602061482885828601614580565b9150509250929050565b61483b816153b1565b82525050565b61484a816153d5565b82525050565b614859816153e1565b82525050565b6148688161546c565b82525050565b600061487982615275565b6148838185615280565b935061489381856020860161547e565b61489c81615611565b840191505092915050565b60006148b282615275565b6148bc8185615291565b93506148cc81856020860161547e565b80840191505092915050565b60006148e5602083615280565b91506148f082615622565b602082019050919050565b6000614908601483615280565b91506149138261564b565b602082019050919050565b600061492b602f83615280565b915061493682615674565b604082019050919050565b600061494e603383615280565b9150614959826156c3565b604082019050919050565b6000614971603983615280565b915061497c82615712565b604082019050919050565b6000614994602e83615280565b915061499f82615761565b604082019050919050565b60006149b7603983615280565b91506149c2826157b0565b604082019050919050565b60006149da603a83615280565b91506149e5826157ff565b604082019050919050565b60006149fd603b83615280565b9150614a088261584e565b604082019050919050565b6000614a20601083615280565b9150614a2b8261589d565b602082019050919050565b6000614a43605183615280565b9150614a4e826158c6565b606082019050919050565b6000614a66603583615280565b9150614a718261593b565b604082019050919050565b6000614a89603583615280565b9150614a948261598a565b604082019050919050565b6000614aac603183615280565b9150614ab7826159d9565b604082019050919050565b6000614acf603083615280565b9150614ada82615a28565b604082019050919050565b6000614af2602683615280565b9150614afd82615a77565b604082019050919050565b6000614b15602c83615280565b9150614b2082615ac6565b604082019050919050565b6000614b38603a83615280565b9150614b4382615b15565b604082019050919050565b6000614b5b601783615291565b9150614b6682615b64565b601782019050919050565b6000614b7e603583615280565b9150614b8982615b8d565b604082019050919050565b6000614ba1603e83615280565b9150614bac82615bdc565b604082019050919050565b6000614bc4603a83615280565b9150614bcf82615c2b565b604082019050919050565b6000614be7601183615291565b9150614bf282615c7a565b601182019050919050565b6000614c0a604c83615280565b9150614c1582615ca3565b606082019050919050565b6000614c2d602f83615280565b9150614c3882615d18565b604082019050919050565b6000614c50602c83615280565b9150614c5b82615d67565b604082019050919050565b614c6f8161544a565b82525050565b614c7e81615454565b82525050565b6000614c8f82614b4e565b9150614c9b82856148a7565b9150614ca682614bda565b9150614cb282846148a7565b91508190509392505050565b6000602082019050614cd36000830184614832565b92915050565b6000606082019050614cee6000830186614832565b614cfb6020830185614832565b614d086040830184614c66565b949350505050565b6000604082019050614d256000830185614832565b614d326020830184614c66565b9392505050565b6000604082019050614d4e6000830185614832565b614d5b6020830184614c75565b9392505050565b6000602082019050614d776000830184614841565b92915050565b6000602082019050614d926000830184614850565b92915050565b600061014082019050614dae600083018d61485f565b614dbb602083018c614841565b614dc8604083018b614c66565b614dd5606083018a614c66565b614de26080830189614832565b614def60a0830188614832565b614dfc60c0830187614c66565b614e0960e0830186614c66565b614e17610100830185614832565b614e25610120830184614c66565b9b9a5050505050505050505050565b600060e082019050614e49600083018a61485f565b614e566020830189614c66565b614e636040830188614c66565b614e706060830187614832565b614e7d6080830186614c66565b614e8a60a0830185614832565b614e9760c0830184614c66565b98975050505050505050565b60006020820190508181036000830152614ebd818461486e565b905092915050565b60006020820190508181036000830152614ede816148d8565b9050919050565b60006020820190508181036000830152614efe816148fb565b9050919050565b60006020820190508181036000830152614f1e8161491e565b9050919050565b60006020820190508181036000830152614f3e81614941565b9050919050565b60006020820190508181036000830152614f5e81614964565b9050919050565b60006020820190508181036000830152614f7e81614987565b9050919050565b60006020820190508181036000830152614f9e816149aa565b9050919050565b60006020820190508181036000830152614fbe816149cd565b9050919050565b60006020820190508181036000830152614fde816149f0565b9050919050565b60006020820190508181036000830152614ffe81614a13565b9050919050565b6000602082019050818103600083015261501e81614a36565b9050919050565b6000602082019050818103600083015261503e81614a59565b9050919050565b6000602082019050818103600083015261505e81614a7c565b9050919050565b6000602082019050818103600083015261507e81614a9f565b9050919050565b6000602082019050818103600083015261509e81614ac2565b9050919050565b600060208201905081810360008301526150be81614ae5565b9050919050565b600060208201905081810360008301526150de81614b08565b9050919050565b600060208201905081810360008301526150fe81614b2b565b9050919050565b6000602082019050818103600083015261511e81614b71565b9050919050565b6000602082019050818103600083015261513e81614b94565b9050919050565b6000602082019050818103600083015261515e81614bb7565b9050919050565b6000602082019050818103600083015261517e81614bfd565b9050919050565b6000602082019050818103600083015261519e81614c20565b9050919050565b600060208201905081810360008301526151be81614c43565b9050919050565b60006020820190506151da6000830184614c66565b92915050565b60006040820190506151f56000830185614c66565b6152026020830184614c66565b9392505050565b600060208201905061521e6000830184614c75565b92915050565b600061522e61523f565b905061523a82826154db565b919050565b6000604051905090565b600067ffffffffffffffff821115615264576152636155e2565b5b602082029050602081019050919050565b600081519050919050565b600082825260208201905092915050565b600081905092915050565b60006152a78261544a565b91506152b28361544a565b9250827fffffffffffffffffffffffffffffffffffffffffffffffffffffffffffffffff038211156152e7576152e6615555565b5b828201905092915050565b60006152fd8261544a565b91506153088361544a565b92508261531857615317615584565b5b828204905092915050565b600061532e8261544a565b91506153398361544a565b9250817fffffffffffffffffffffffffffffffffffffffffffffffffffffffffffffffff048311821515161561537257615371615555565b5b828202905092915050565b60006153888261544a565b91506153938361544a565b9250828210156153a6576153a5615555565b5b828203905092915050565b60006153bc8261542a565b9050919050565b60006153ce8261542a565b9050919050565b60008115159050919050565b6000819050919050565b60007fffffffff0000000000000000000000000000000000000000000000000000000082169050919050565b600081905061542582615db6565b919050565b600073ffffffffffffffffffffffffffffffffffffffff82169050919050565b6000819050919050565b60006bffffffffffffffffffffffff82169050919050565b600061547782615417565b9050919050565b60005b8381101561549c578082015181840152602081019050615481565b838111156154ab576000848401525b50505050565b60006154bc8261544a565b915060008214156154d0576154cf615555565b5b600182039050919050565b6154e482615611565b810181811067ffffffffffffffff82111715615503576155026155e2565b5b80604052505050565b60006155178261544a565b91507fffffffffffffffffffffffffffffffffffffffffffffffffffffffffffffffff82141561554a57615549615555565b5b600182019050919050565b7f4e487b7100000000000000000000000000000000000000000000000000000000600052601160045260246000fd5b7f4e487b7100000000000000000000000000000000000000000000000000000000600052601260045260246000fd5b7f4e487b7100000000000000000000000000000000000000000000000000000000600052602160045260246000fd5b7f4e487b7100000000000000000000000000000000000000000000000000000000600052604160045260246000fd5b6000601f19601f8301169050919050565b7f537472696e67733a20686578206c656e67746820696e73756666696369656e74600082015250565b7f5061757361626c653a206e6f7420706175736564000000000000000000000000600082015250565b7f4c656d6f6e6164654d61726b6574706c6163653a206f72646572206d7573742060008201527f6265206f70656e20746f2066696c6c0000000000000000000000000000000000602082015250565b7f4c656d6f6e6164654d61726b6574706c6163653a206d7573742068617665207060008201527f617573657220726f6c6520746f20706175736500000000000000000000000000602082015250565b7f4c656d6f6e6164654d61726b6574706c6163653a206f72646572206d7573742060008201527f6265206f70656e20746f20626964202d20746f6f206c61746500000000000000602082015250565b7f4c656d6f6e6164654d61726b6574706c6163653a206f72646572206d7573742060008201527f6265206f70656e20746f20626964000000000000000000000000000000000000602082015250565b7f4c656d6f6e6164654d61726b6574706c6163653a206f72646572206d7573742060008201527f6265206f66206b696e642061756374696f6e20746f2062696400000000000000602082015250565b7f4c656d6f6e6164654d61726b6574706c6163653a206f72646572206d7573742060008201527f6265206f70656e20746f2066696c6c202d20746f6f206c617465000000000000602082015250565b7f4c656d6f6e6164654d61726b6574706c6163653a206f72646572206d7573742060008201527f6265206f70656e20746f2066696c6c202d20746f6f206561726c790000000000602082015250565b7f5061757361626c653a2070617573656400000000000000000000000000000000600082015250565b7f4c656d6f6e6164654d61726b6574706c6163653a206f72646572206f66206b6960008201527f6e642061756374696f6e206d757374206e6f74206265206f70656e20666f722060208201527f6d6f7265207468616e2033302064617973000000000000000000000000000000604082015250565b7f4c656d6f6e6164654d61726b6574706c6163653a206f72646572206d7573742060008201527f6265206f70656e20617420736f6d6520706f696e740000000000000000000000602082015250565b7f4c656d6f6e6164654d61726b6574706c6163653a206f72646572206d7573742060008201527f68617665206e6f2062696420746f2063616e63656c0000000000000000000000602082015250565b7f4c656d6f6e6164654d61726b6574706c6163653a206f72646572206d7573742060008201527f6265206f70656e20746f2063616e63656c000000000000000000000000000000602082015250565b7f4c656d6f6e6164654d61726b6574706c6163653a206d7573742062652074686560008201527f206d616b657220746f2063616e63656c00000000000000000000000000000000602082015250565b7f4c656d6f6e6164654d61726b6574706c6163653a206f72646572206e6f6e657860008201527f697374656e740000000000000000000000000000000000000000000000000000602082015250565b7f4c656d6f6e6164654d61726b6574706c6163653a206d757374206d617463682060008201527f707269636520746f206269640000000000000000000000000000000000000000602082015250565b7f4c656d6f6e6164654d61726b6574706c6163653a206f72646572206d7573742060008201527f6265206f70656e20746f20626964202d20746f6f206561726c79000000000000602082015250565b7f416363657373436f6e74726f6c3a206163636f756e7420000000000000000000600082015250565b7f4c656d6f6e6164654d61726b6574706c6163653a206d7573742068617665207060008201527f617573657220726f6c6520746f20756e70617573650000000000000000000000602082015250565b7f4c656d6f6e6164654d61726b6574706c6163653a206f72646572206d7573742060008201527f686176652062696420746f2066696c6c2061756374696f6e206f726465720000602082015250565b7f4c656d6f6e6164654d61726b6574706c6163653a206d757374206d617463682060008201527f707269636520746f2066696c6c20646972656374206f72646572000000000000602082015250565b7f206973206d697373696e6720726f6c6520000000000000000000000000000000600082015250565b7f4c656d6f6e6164654d61726b6574706c6163653a206d7573742062652074686560008201527f206d616b6572206f722066696e616c2062696464657220746f2066696c6c206160208201527f756374696f6e206f726465720000000000000000000000000000000000000000604082015250565b7f416363657373436f6e74726f6c3a2063616e206f6e6c792072656e6f756e636560008201527f20726f6c657320666f722073656c660000000000000000000000000000000000602082015250565b7f4c656d6f6e6164654d61726b6574706c6163653a206d7573742073757270617360008201527f732062696420746f206269640000000000000000000000000000000000000000602082015250565b60028110615dc757615dc66155b3565b5b50565b615dd3816153b1565b8114615dde57600080fd5b50565b615dea816153c3565b8114615df557600080fd5b50565b615e01816153d5565b8114615e0c57600080fd5b50565b615e18816153e1565b8114615e2357600080fd5b50565b615e2f816153eb565b8114615e3a57600080fd5b50565b60028110615e4a57600080fd5b50565b615e568161544a565b8114615e6157600080fd5b50565b615e6d81615454565b8114615e7857600080fd5b5056fea2646970667358221220701baded93b9e96787d3d1a74bf380bf764a84c1eaefab99d20e4eef551ed58064736f6c63430008040033",
  "devdoc": {
    "kind": "dev",
    "methods": {
      "getRoleAdmin(bytes32)": {
        "details": "Returns the admin role that controls `role`. See {grantRole} and {revokeRole}. To change a role's admin, use {_setRoleAdmin}."
      },
      "getRoleMember(bytes32,uint256)": {
        "details": "Returns one of the accounts that have `role`. `index` must be a value between 0 and {getRoleMemberCount}, non-inclusive. Role bearers are not sorted in any particular way, and their ordering may change at any point. WARNING: When using {getRoleMember} and {getRoleMemberCount}, make sure you perform all queries on the same block. See the following https://forum.openzeppelin.com/t/iterating-over-elements-on-enumerableset-in-openzeppelin-contracts/2296[forum post] for more information."
      },
      "getRoleMemberCount(bytes32)": {
        "details": "Returns the number of accounts that have `role`. Can be used together with {getRoleMember} to enumerate all bearers of a role."
      },
      "grantRole(bytes32,address)": {
        "details": "Overload {grantRole} to track enumerable memberships"
      },
      "hasRole(bytes32,address)": {
        "details": "Returns `true` if `account` has been granted `role`."
      },
      "paused()": {
        "details": "Returns true if the contract is paused, and false otherwise."
      },
      "renounceRole(bytes32,address)": {
        "details": "Overload {renounceRole} to track enumerable memberships"
      },
      "revokeRole(bytes32,address)": {
        "details": "Overload {revokeRole} to track enumerable memberships"
      },
      "supportsInterface(bytes4)": {
        "details": "See {IERC165-supportsInterface}."
      }
    },
    "version": 1
  },
  "userdoc": {
    "kind": "user",
    "methods": {},
    "version": 1
  },
  "storageLayout": {
    "storage": [
      {
        "astId": 24,
        "contract": "contracts/LemonadeMarketplace.sol:LemonadeMarketplace",
        "label": "_roles",
        "offset": 0,
        "slot": "0",
        "type": "t_mapping(t_bytes32,t_struct(RoleData)19_storage)"
      },
      {
        "astId": 325,
        "contract": "contracts/LemonadeMarketplace.sol:LemonadeMarketplace",
        "label": "_roleMembers",
        "offset": 0,
        "slot": "1",
        "type": "t_mapping(t_bytes32,t_struct(AddressSet)1516_storage)"
      },
      {
        "astId": 601,
        "contract": "contracts/LemonadeMarketplace.sol:LemonadeMarketplace",
        "label": "_paused",
        "offset": 0,
        "slot": "2",
        "type": "t_bool"
      },
      {
        "astId": 1925,
        "contract": "contracts/LemonadeMarketplace.sol:LemonadeMarketplace",
        "label": "_orders",
        "offset": 0,
        "slot": "3",
        "type": "t_mapping(t_uint256,t_struct(Order)1920_storage)"
      },
      {
        "astId": 1928,
        "contract": "contracts/LemonadeMarketplace.sol:LemonadeMarketplace",
        "label": "_orderIdTracker",
        "offset": 0,
        "slot": "4",
        "type": "t_struct(Counter)897_storage"
      }
    ],
    "types": {
      "t_address": {
        "encoding": "inplace",
        "label": "address",
        "numberOfBytes": "20"
      },
      "t_array(t_bytes32)dyn_storage": {
        "base": "t_bytes32",
        "encoding": "dynamic_array",
        "label": "bytes32[]",
        "numberOfBytes": "32"
      },
      "t_bool": {
        "encoding": "inplace",
        "label": "bool",
        "numberOfBytes": "1"
      },
      "t_bytes32": {
        "encoding": "inplace",
        "label": "bytes32",
        "numberOfBytes": "32"
      },
      "t_enum(OrderKind)1851": {
        "encoding": "inplace",
        "label": "enum LemonadeMarketplace.OrderKind",
        "numberOfBytes": "1"
      },
      "t_mapping(t_address,t_bool)": {
        "encoding": "mapping",
        "key": "t_address",
        "label": "mapping(address => bool)",
        "numberOfBytes": "32",
        "value": "t_bool"
      },
      "t_mapping(t_bytes32,t_struct(AddressSet)1516_storage)": {
        "encoding": "mapping",
        "key": "t_bytes32",
        "label": "mapping(bytes32 => struct EnumerableSet.AddressSet)",
        "numberOfBytes": "32",
        "value": "t_struct(AddressSet)1516_storage"
      },
      "t_mapping(t_bytes32,t_struct(RoleData)19_storage)": {
        "encoding": "mapping",
        "key": "t_bytes32",
        "label": "mapping(bytes32 => struct AccessControl.RoleData)",
        "numberOfBytes": "32",
        "value": "t_struct(RoleData)19_storage"
      },
      "t_mapping(t_bytes32,t_uint256)": {
        "encoding": "mapping",
        "key": "t_bytes32",
        "label": "mapping(bytes32 => uint256)",
        "numberOfBytes": "32",
        "value": "t_uint256"
      },
      "t_mapping(t_uint256,t_struct(Order)1920_storage)": {
        "encoding": "mapping",
        "key": "t_uint256",
        "label": "mapping(uint256 => struct LemonadeMarketplace.Order)",
        "numberOfBytes": "32",
        "value": "t_struct(Order)1920_storage"
      },
      "t_struct(AddressSet)1516_storage": {
        "encoding": "inplace",
        "label": "struct EnumerableSet.AddressSet",
        "members": [
          {
            "astId": 1515,
            "contract": "contracts/LemonadeMarketplace.sol:LemonadeMarketplace",
            "label": "_inner",
            "offset": 0,
            "slot": "0",
            "type": "t_struct(Set)1215_storage"
          }
        ],
        "numberOfBytes": "64"
      },
      "t_struct(Counter)897_storage": {
        "encoding": "inplace",
        "label": "struct Counters.Counter",
        "members": [
          {
            "astId": 896,
            "contract": "contracts/LemonadeMarketplace.sol:LemonadeMarketplace",
            "label": "_value",
            "offset": 0,
            "slot": "0",
            "type": "t_uint256"
          }
        ],
        "numberOfBytes": "32"
      },
      "t_struct(Order)1920_storage": {
        "encoding": "inplace",
        "label": "struct LemonadeMarketplace.Order",
        "members": [
          {
            "astId": 1895,
            "contract": "contracts/LemonadeMarketplace.sol:LemonadeMarketplace",
            "label": "kind",
            "offset": 0,
            "slot": "0",
            "type": "t_enum(OrderKind)1851"
          },
          {
            "astId": 1897,
            "contract": "contracts/LemonadeMarketplace.sol:LemonadeMarketplace",
            "label": "open",
            "offset": 1,
            "slot": "0",
            "type": "t_bool"
          },
          {
            "astId": 1899,
            "contract": "contracts/LemonadeMarketplace.sol:LemonadeMarketplace",
            "label": "openFrom",
            "offset": 0,
            "slot": "1",
            "type": "t_uint256"
          },
          {
            "astId": 1901,
            "contract": "contracts/LemonadeMarketplace.sol:LemonadeMarketplace",
            "label": "openTo",
            "offset": 0,
            "slot": "2",
            "type": "t_uint256"
          },
          {
            "astId": 1903,
            "contract": "contracts/LemonadeMarketplace.sol:LemonadeMarketplace",
            "label": "maker",
            "offset": 0,
            "slot": "3",
            "type": "t_address"
          },
          {
            "astId": 1905,
            "contract": "contracts/LemonadeMarketplace.sol:LemonadeMarketplace",
            "label": "currency",
            "offset": 0,
            "slot": "4",
            "type": "t_address"
          },
          {
            "astId": 1907,
            "contract": "contracts/LemonadeMarketplace.sol:LemonadeMarketplace",
            "label": "price",
            "offset": 0,
            "slot": "5",
            "type": "t_uint256"
          },
          {
            "astId": 1909,
            "contract": "contracts/LemonadeMarketplace.sol:LemonadeMarketplace",
            "label": "tokenContract",
            "offset": 0,
            "slot": "6",
            "type": "t_address"
          },
          {
            "astId": 1911,
            "contract": "contracts/LemonadeMarketplace.sol:LemonadeMarketplace",
            "label": "tokenId",
            "offset": 0,
            "slot": "7",
            "type": "t_uint256"
          },
          {
            "astId": 1913,
            "contract": "contracts/LemonadeMarketplace.sol:LemonadeMarketplace",
            "label": "bidder",
            "offset": 0,
            "slot": "8",
            "type": "t_address"
          },
          {
            "astId": 1915,
            "contract": "contracts/LemonadeMarketplace.sol:LemonadeMarketplace",
            "label": "bidAmount",
            "offset": 0,
            "slot": "9",
            "type": "t_uint256"
          },
          {
            "astId": 1917,
            "contract": "contracts/LemonadeMarketplace.sol:LemonadeMarketplace",
            "label": "taker",
            "offset": 0,
            "slot": "10",
            "type": "t_address"
          },
          {
            "astId": 1919,
            "contract": "contracts/LemonadeMarketplace.sol:LemonadeMarketplace",
            "label": "paidAmount",
            "offset": 0,
            "slot": "11",
            "type": "t_uint256"
          }
        ],
        "numberOfBytes": "384"
      },
      "t_struct(RoleData)19_storage": {
        "encoding": "inplace",
        "label": "struct AccessControl.RoleData",
        "members": [
          {
            "astId": 16,
            "contract": "contracts/LemonadeMarketplace.sol:LemonadeMarketplace",
            "label": "members",
            "offset": 0,
            "slot": "0",
            "type": "t_mapping(t_address,t_bool)"
          },
          {
            "astId": 18,
            "contract": "contracts/LemonadeMarketplace.sol:LemonadeMarketplace",
            "label": "adminRole",
            "offset": 0,
            "slot": "1",
            "type": "t_bytes32"
          }
        ],
        "numberOfBytes": "64"
      },
      "t_struct(Set)1215_storage": {
        "encoding": "inplace",
        "label": "struct EnumerableSet.Set",
        "members": [
          {
            "astId": 1210,
            "contract": "contracts/LemonadeMarketplace.sol:LemonadeMarketplace",
            "label": "_values",
            "offset": 0,
            "slot": "0",
            "type": "t_array(t_bytes32)dyn_storage"
          },
          {
            "astId": 1214,
            "contract": "contracts/LemonadeMarketplace.sol:LemonadeMarketplace",
            "label": "_indexes",
            "offset": 0,
            "slot": "1",
            "type": "t_mapping(t_bytes32,t_uint256)"
          }
        ],
        "numberOfBytes": "64"
      },
      "t_uint256": {
        "encoding": "inplace",
        "label": "uint256",
        "numberOfBytes": "32"
      }
    }
  }
}