{
  "address": "0x4c75bC858516243993fB186C242ACF22a37673e1",
  "abi": [
    {
      "inputs": [
        {
          "internalType": "address",
          "name": "feeAccount",
          "type": "address"
        },
        {
          "internalType": "uint96",
          "name": "feeValue",
          "type": "uint96"
        },
        {
          "internalType": "address",
          "name": "trustedForwarder_",
          "type": "address"
        }
      ],
      "stateMutability": "nonpayable",
      "type": "constructor"
    },
    {
      "anonymous": false,
      "inputs": [
        {
          "indexed": true,
          "internalType": "uint256",
          "name": "orderId",
          "type": "uint256"
        },
        {
          "indexed": true,
          "internalType": "address",
          "name": "bidder",
          "type": "address"
        },
        {
          "indexed": false,
          "internalType": "uint256",
          "name": "bidAmount",
          "type": "uint256"
        }
      ],
      "name": "OrderBid",
      "type": "event"
    },
    {
      "anonymous": false,
      "inputs": [
        {
          "indexed": true,
          "internalType": "uint256",
          "name": "orderId",
          "type": "uint256"
        }
      ],
      "name": "OrderCancelled",
      "type": "event"
    },
    {
      "anonymous": false,
      "inputs": [
        {
          "indexed": true,
          "internalType": "uint256",
          "name": "orderId",
          "type": "uint256"
        },
        {
          "indexed": false,
          "internalType": "enum LemonadeMarketplaceV1.OrderKind",
          "name": "kind",
          "type": "uint8"
        },
        {
          "indexed": false,
          "internalType": "uint256",
          "name": "openFrom",
          "type": "uint256"
        },
        {
          "indexed": false,
          "internalType": "uint256",
          "name": "openTo",
          "type": "uint256"
        },
        {
          "indexed": true,
          "internalType": "address",
          "name": "maker",
          "type": "address"
        },
        {
          "indexed": false,
          "internalType": "address",
          "name": "currency",
          "type": "address"
        },
        {
          "indexed": false,
          "internalType": "uint256",
          "name": "price",
          "type": "uint256"
        },
        {
          "indexed": false,
          "internalType": "address",
          "name": "tokenContract",
          "type": "address"
        },
        {
          "indexed": false,
          "internalType": "uint256",
          "name": "tokenId",
          "type": "uint256"
        }
      ],
      "name": "OrderCreated",
      "type": "event"
    },
    {
      "anonymous": false,
      "inputs": [
        {
          "indexed": true,
          "internalType": "uint256",
          "name": "orderId",
          "type": "uint256"
        },
        {
          "indexed": true,
          "internalType": "address",
          "name": "taker",
          "type": "address"
        },
        {
          "indexed": false,
          "internalType": "uint256",
          "name": "paidAmount",
          "type": "uint256"
        }
      ],
      "name": "OrderFilled",
      "type": "event"
    },
    {
      "anonymous": false,
      "inputs": [
        {
          "indexed": false,
          "internalType": "address",
          "name": "account",
          "type": "address"
        }
      ],
      "name": "Paused",
      "type": "event"
    },
    {
      "anonymous": false,
      "inputs": [
        {
          "indexed": true,
          "internalType": "bytes32",
          "name": "role",
          "type": "bytes32"
        },
        {
          "indexed": true,
          "internalType": "bytes32",
          "name": "previousAdminRole",
          "type": "bytes32"
        },
        {
          "indexed": true,
          "internalType": "bytes32",
          "name": "newAdminRole",
          "type": "bytes32"
        }
      ],
      "name": "RoleAdminChanged",
      "type": "event"
    },
    {
      "anonymous": false,
      "inputs": [
        {
          "indexed": true,
          "internalType": "bytes32",
          "name": "role",
          "type": "bytes32"
        },
        {
          "indexed": true,
          "internalType": "address",
          "name": "account",
          "type": "address"
        },
        {
          "indexed": true,
          "internalType": "address",
          "name": "sender",
          "type": "address"
        }
      ],
      "name": "RoleGranted",
      "type": "event"
    },
    {
      "anonymous": false,
      "inputs": [
        {
          "indexed": true,
          "internalType": "bytes32",
          "name": "role",
          "type": "bytes32"
        },
        {
          "indexed": true,
          "internalType": "address",
          "name": "account",
          "type": "address"
        },
        {
          "indexed": true,
          "internalType": "address",
          "name": "sender",
          "type": "address"
        }
      ],
      "name": "RoleRevoked",
      "type": "event"
    },
    {
      "anonymous": false,
      "inputs": [
        {
          "indexed": false,
          "internalType": "address",
          "name": "account",
          "type": "address"
        }
      ],
      "name": "Unpaused",
      "type": "event"
    },
    {
      "inputs": [],
      "name": "DEFAULT_ADMIN_ROLE",
      "outputs": [
        {
          "internalType": "bytes32",
          "name": "",
          "type": "bytes32"
        }
      ],
      "stateMutability": "view",
      "type": "function"
    },
    {
      "inputs": [],
      "name": "FEE_ACCOUNT",
      "outputs": [
        {
          "internalType": "address",
          "name": "",
          "type": "address"
        }
      ],
      "stateMutability": "view",
      "type": "function"
    },
    {
      "inputs": [],
      "name": "FEE_VALUE",
      "outputs": [
        {
          "internalType": "uint96",
          "name": "",
          "type": "uint96"
        }
      ],
      "stateMutability": "view",
      "type": "function"
    },
    {
      "inputs": [
        {
          "internalType": "uint256",
          "name": "orderId",
          "type": "uint256"
        },
        {
          "internalType": "uint256",
          "name": "amount",
          "type": "uint256"
        }
      ],
      "name": "bidOrder",
      "outputs": [],
      "stateMutability": "nonpayable",
      "type": "function"
    },
    {
      "inputs": [
        {
          "internalType": "uint256",
          "name": "orderId",
          "type": "uint256"
        }
      ],
      "name": "cancelOrder",
      "outputs": [],
      "stateMutability": "nonpayable",
      "type": "function"
    },
    {
      "inputs": [
        {
          "internalType": "enum LemonadeMarketplaceV1.OrderKind",
          "name": "kind",
          "type": "uint8"
        },
        {
          "internalType": "uint256",
          "name": "openFrom",
          "type": "uint256"
        },
        {
          "internalType": "uint256",
          "name": "openTo",
          "type": "uint256"
        },
        {
          "internalType": "address",
          "name": "currency",
          "type": "address"
        },
        {
          "internalType": "uint256",
          "name": "price",
          "type": "uint256"
        },
        {
          "internalType": "address",
          "name": "tokenContract",
          "type": "address"
        },
        {
          "internalType": "uint256",
          "name": "tokenId",
          "type": "uint256"
        }
      ],
      "name": "createOrder",
      "outputs": [
        {
          "internalType": "uint256",
          "name": "",
          "type": "uint256"
        }
      ],
      "stateMutability": "nonpayable",
      "type": "function"
    },
    {
      "inputs": [],
      "name": "fee",
      "outputs": [
        {
          "internalType": "address",
          "name": "",
          "type": "address"
        },
        {
          "internalType": "uint96",
          "name": "",
          "type": "uint96"
        }
      ],
      "stateMutability": "view",
      "type": "function"
    },
    {
      "inputs": [
        {
          "internalType": "uint256",
          "name": "orderId",
          "type": "uint256"
        },
        {
          "internalType": "uint256",
          "name": "amount",
          "type": "uint256"
        }
      ],
      "name": "fillOrder",
      "outputs": [],
      "stateMutability": "nonpayable",
      "type": "function"
    },
    {
      "inputs": [
        {
          "internalType": "bytes32",
          "name": "role",
          "type": "bytes32"
        }
      ],
      "name": "getRoleAdmin",
      "outputs": [
        {
          "internalType": "bytes32",
          "name": "",
          "type": "bytes32"
        }
      ],
      "stateMutability": "view",
      "type": "function"
    },
    {
      "inputs": [
        {
          "internalType": "bytes32",
          "name": "role",
          "type": "bytes32"
        },
        {
          "internalType": "uint256",
          "name": "index",
          "type": "uint256"
        }
      ],
      "name": "getRoleMember",
      "outputs": [
        {
          "internalType": "address",
          "name": "",
          "type": "address"
        }
      ],
      "stateMutability": "view",
      "type": "function"
    },
    {
      "inputs": [
        {
          "internalType": "bytes32",
          "name": "role",
          "type": "bytes32"
        }
      ],
      "name": "getRoleMemberCount",
      "outputs": [
        {
          "internalType": "uint256",
          "name": "",
          "type": "uint256"
        }
      ],
      "stateMutability": "view",
      "type": "function"
    },
    {
      "inputs": [
        {
          "internalType": "bytes32",
          "name": "role",
          "type": "bytes32"
        },
        {
          "internalType": "address",
          "name": "account",
          "type": "address"
        }
      ],
      "name": "grantRole",
      "outputs": [],
      "stateMutability": "nonpayable",
      "type": "function"
    },
    {
      "inputs": [
        {
          "internalType": "bytes32",
          "name": "role",
          "type": "bytes32"
        },
        {
          "internalType": "address",
          "name": "account",
          "type": "address"
        }
      ],
      "name": "hasRole",
      "outputs": [
        {
          "internalType": "bool",
          "name": "",
          "type": "bool"
        }
      ],
      "stateMutability": "view",
      "type": "function"
    },
    {
      "inputs": [
        {
          "internalType": "address",
          "name": "forwarder",
          "type": "address"
        }
      ],
      "name": "isTrustedForwarder",
      "outputs": [
        {
          "internalType": "bool",
          "name": "",
          "type": "bool"
        }
      ],
      "stateMutability": "view",
      "type": "function"
    },
    {
      "inputs": [
        {
          "internalType": "uint256",
          "name": "orderId",
          "type": "uint256"
        }
      ],
      "name": "order",
      "outputs": [
        {
          "internalType": "enum LemonadeMarketplaceV1.OrderKind",
          "name": "",
          "type": "uint8"
        },
        {
          "internalType": "bool",
          "name": "",
          "type": "bool"
        },
        {
          "internalType": "uint256",
          "name": "",
          "type": "uint256"
        },
        {
          "internalType": "uint256",
          "name": "",
          "type": "uint256"
        },
        {
          "internalType": "address",
          "name": "",
          "type": "address"
        },
        {
          "internalType": "address",
          "name": "",
          "type": "address"
        },
        {
          "internalType": "uint256",
          "name": "",
          "type": "uint256"
        },
        {
          "internalType": "uint256",
          "name": "",
          "type": "uint256"
        },
        {
          "internalType": "address",
          "name": "",
          "type": "address"
        },
        {
          "internalType": "uint256",
          "name": "",
          "type": "uint256"
        }
      ],
      "stateMutability": "view",
      "type": "function"
    },
    {
      "inputs": [],
      "name": "pause",
      "outputs": [],
      "stateMutability": "nonpayable",
      "type": "function"
    },
    {
      "inputs": [],
      "name": "paused",
      "outputs": [
        {
          "internalType": "bool",
          "name": "",
          "type": "bool"
        }
      ],
      "stateMutability": "view",
      "type": "function"
    },
    {
      "inputs": [
        {
          "internalType": "bytes32",
          "name": "role",
          "type": "bytes32"
        },
        {
          "internalType": "address",
          "name": "account",
          "type": "address"
        }
      ],
      "name": "renounceRole",
      "outputs": [],
      "stateMutability": "nonpayable",
      "type": "function"
    },
    {
      "inputs": [
        {
          "internalType": "bytes32",
          "name": "role",
          "type": "bytes32"
        },
        {
          "internalType": "address",
          "name": "account",
          "type": "address"
        }
      ],
      "name": "revokeRole",
      "outputs": [],
      "stateMutability": "nonpayable",
      "type": "function"
    },
    {
      "inputs": [
        {
          "internalType": "address",
          "name": "trustedForwarder_",
          "type": "address"
        }
      ],
      "name": "setTrustedForwarder",
      "outputs": [],
      "stateMutability": "nonpayable",
      "type": "function"
    },
    {
      "inputs": [
        {
          "internalType": "bytes4",
          "name": "interfaceId",
          "type": "bytes4"
        }
      ],
      "name": "supportsInterface",
      "outputs": [
        {
          "internalType": "bool",
          "name": "",
          "type": "bool"
        }
      ],
      "stateMutability": "view",
      "type": "function"
    },
    {
      "inputs": [
        {
          "internalType": "uint256",
          "name": "orderId",
          "type": "uint256"
        }
      ],
      "name": "token",
      "outputs": [
        {
          "internalType": "address",
          "name": "",
          "type": "address"
        },
        {
          "internalType": "uint256",
          "name": "",
          "type": "uint256"
        }
      ],
      "stateMutability": "view",
      "type": "function"
    },
    {
      "inputs": [],
      "name": "trustedForwarder",
      "outputs": [
        {
          "internalType": "address",
          "name": "",
          "type": "address"
        }
      ],
      "stateMutability": "view",
      "type": "function"
    },
    {
      "inputs": [],
      "name": "unpause",
      "outputs": [],
      "stateMutability": "nonpayable",
      "type": "function"
    },
    {
      "inputs": [],
      "name": "versionRecipient",
      "outputs": [
        {
          "internalType": "string",
          "name": "",
          "type": "string"
        }
      ],
      "stateMutability": "pure",
      "type": "function"
    }
  ],
  "transactionHash": "0x0d4493f57a3e3b54fbe6d1539ce2920abec63513c2473ccc1fb9649a932d0fe9",
  "args": [
    "0xFB756b44060e426731e54e9F433c43c75ee90d9f",
    "200",
    "0x61456BF1715C1415730076BB79ae118E806E74d2"
  ],
  "numDeployments": 1,
  "solcInputHash": "5276eb5f3823f5acce097ae410abe87c",
  "bytecode": "0x60c06040523480156200001157600080fd5b50604051620032ef380380620032ef833981016040819052620000349162000291565b6002805460ff19169055606083901b6001600160601b03191660805260a082811b6001600160a01b0319169052828262000079600062000073620000a4565b620000c0565b5050600580546001600160a01b0319166001600160a01b039290921691909117905550620002e79050565b6000620000bb620000d060201b620021371760201c565b905090565b620000cc8282620000e7565b5050565b6000620000bb6200012a60201b620021461760201c565b620000fe82826200016060201b6200217a1760201c565b600082815260016020908152604090912062000125918390620021ff62000202821b17901c565b505050565b6000601836108015906200014857506005546001600160a01b031633145b156200015b575060131936013560601c90565b503390565b6000828152602081815260408083206001600160a01b038516845290915290205460ff16620000cc576000828152602081815260408083206001600160a01b03851684529091529020805460ff19166001179055620001be620000a4565b6001600160a01b0316816001600160a01b0316837f2f8788117e7eff1d82e926ec794901d17c78024a50270940304540a733656f0d60405160405180910390a45050565b600062000219836001600160a01b03841662000222565b90505b92915050565b60008181526001830160205260408120546200026b575081546001818101845560008481526020808220909301849055845484825282860190935260409020919091556200021c565b5060006200021c565b80516001600160a01b03811681146200028c57600080fd5b919050565b600080600060608486031215620002a6578283fd5b620002b18462000274565b60208501519093506001600160601b0381168114620002ce578283fd5b9150620002de6040850162000274565b90509250925092565b60805160601c60a05160a01c612fc06200032f6000396000818161035f015281816104320152611d1a0152600081816102d7015281816104060152611d570152612fc06000f3fe608060405234801561001057600080fd5b50600436106101735760003560e01c80637cca687b116100de578063ae91309511610097578063ca15c87311610071578063ca15c873146103bf578063d547741f146103d2578063da742228146103e5578063ddca3f43146103f857600080fd5b8063ae9130951461035a578063b858fb5f14610399578063c37dfc5b146103ac57600080fd5b80637cca687b146102d25780637da0a877146103115780638456cb59146103245780639010d07c1461032c57806391d148541461033f578063a217fddf1461035257600080fd5b806336568abe1161013057806336568abe146102545780633f4ba83a14610267578063486ff0cd1461026f578063514fcac714610292578063572b6c05146102a55780635c975abb146102c757600080fd5b806301ffc9a714610178578063044215c6146101a05780630c109710146101d257806321603f43146101f3578063248a9ca31461021c5780632f2ff15d1461023f575b600080fd5b61018b610186366004612b5d565b61045d565b60405190151581526020015b60405180910390f35b6101b36101ae366004612af5565b610488565b604080516001600160a01b039093168352602083019190915201610197565b6101e56101e0366004612b85565b6104f6565b604051908152602001610197565b610206610201366004612af5565b610a07565b6040516101979a99989796959493929190612cb4565b6101e561022a366004612af5565b60009081526020819052604090206001015490565b61025261024d366004612b0d565b610c50565b005b610252610262366004612b0d565b610c7a565b610252610d08565b60408051808201825260018152603160f81b602082015290516101979190612d5c565b6102526102a0366004612af5565b610d1e565b61018b6102b33660046129a5565b6005546001600160a01b0391821691161490565b60025460ff1661018b565b6102f97f000000000000000000000000000000000000000000000000000000000000000081565b6040516001600160a01b039091168152602001610197565b6005546102f9906001600160a01b031681565b610252611084565b6102f961033a366004612b3c565b611097565b61018b61034d366004612b0d565b6110b6565b6101e5600081565b6103817f000000000000000000000000000000000000000000000000000000000000000081565b6040516001600160601b039091168152602001610197565b6102526103a7366004612b3c565b6110df565b6102526103ba366004612b3c565b611693565b6101e56103cd366004612af5565b6120cd565b6102526103e0366004612b0d565b6120e4565b6102526103f33660046129a5565b612109565b604080516001600160a01b037f00000000000000000000000000000000000000000000000000000000000000001681526001600160601b037f000000000000000000000000000000000000000000000000000000000000000016602082015201610197565b60006001600160e01b03198216635a05180f60e01b1480610482575061048282612214565b92915050565b600081815260036020819052604082200154819083906001600160a01b03166104cc5760405162461bcd60e51b81526004016104c390612db9565b60405180910390fd5b505050600090815260036020526040902060068101546007909101546001600160a01b0390911691565b600061050460025460ff1690565b156105215760405162461bcd60e51b81526004016104c390612d8f565b600061052d8888612249565b90506000811161058b5760405162461bcd60e51b81526020600482015260356024820152600080516020612f6b8339815191526044820152741899481bdc195b88185d081cdbdb59481c1bda5b9d605a1b60648201526084016104c3565b60018960018111156105ad57634e487b7160e01b600052602160045260246000fd5b14156106465762278d008111156106465760405162461bcd60e51b815260206004820152605160248201527f4c656d6f6e6164654d61726b6574706c6163653a206f72646572206f66206b6960448201527f6e642061756374696f6e206d757374206e6f74206265206f70656e20666f72206064820152706d6f7265207468616e203330206461797360781b608482015260a4016104c3565b836001600160a01b03166323b872dd61065d612297565b30866040518463ffffffff1660e01b815260040161067d93929190612c90565b600060405180830381600087803b15801561069757600080fd5b505af11580156106ab573d6000803e3d6000fd5b5050505060006106ba60045490565b9050604051806101a001604052808b60018111156106e857634e487b7160e01b600052602160045260246000fd5b81526020016001151581526020018a815260200189815260200161070a612297565b6001600160a01b03908116825289811660208084019190915260408084018b9052918916606084015260808301889052600060a0840181905260c0840181905260e0840181905261010090930183905284835260039052902081518154829060ff19166001838181111561078e57634e487b7160e01b600052602160045260246000fd5b02179055506020820151815490151561010090810261ff0019909216919091178255604083015160018301556060830151600283015560808301516003830180546001600160a01b039283166001600160a01b03199182161790915560a0850151600480860180549285169284169290921790915560c0860151600586015560e08601516006860180549185169184169190911790559285015160078501556101208501516008850180549184169183169190911790556101408501516009850155610160850151600a8501805491909316911617905561018090920151600b9091015561087f9080546001019055565b60008181526003602052604080822081516101a081019092528054829060ff1660018111156108be57634e487b7160e01b600052602160045260246000fd5b60018111156108dd57634e487b7160e01b600052602160045260246000fd5b8152815460ff6101009182900416151560208301526001830154604080840191909152600284015460608085019190915260038501546001600160a01b039081166080808701919091526004870154821660a080880191909152600588015460c0808901919091526006890154841660e0808a019190915260078a0154888a015260088a015485166101208a015260098a01546101408a0152600a8a015485166101608a0152600b909901546101809098019790975290880151885189860151948a0151928a0151978a0151988a0151968a01519551999a509216978a977f4e400f43dce6cc22df28146360114559ffae81b0644d4752872c7def6d77319e976109f1979496939490939192909190612d13565b60405180910390a3509998505050505050505050565b6000818152600360208190526040822001548190819081908190819081908190819081908b906001600160a01b0316610a525760405162461bcd60e51b81526004016104c390612db9565b60008c81526003602052604080822081516101a081019092528054829060ff166001811115610a9157634e487b7160e01b600052602160045260246000fd5b6001811115610ab057634e487b7160e01b600052602160045260246000fd5b81526020016000820160019054906101000a900460ff1615151515815260200160018201548152602001600282015481526020016003820160009054906101000a90046001600160a01b03166001600160a01b03166001600160a01b031681526020016004820160009054906101000a90046001600160a01b03166001600160a01b03166001600160a01b03168152602001600582015481526020016006820160009054906101000a90046001600160a01b03166001600160a01b03166001600160a01b03168152602001600782015481526020016008820160009054906101000a90046001600160a01b03166001600160a01b03166001600160a01b0316815260200160098201548152602001600a820160009054906101000a90046001600160a01b03166001600160a01b03166001600160a01b03168152602001600b820154815250509050806000015181602001518260400151836060015184608001518560a001518660c001518761014001518861016001518961018001519b509b509b509b509b509b509b509b509b509b5050509193959799509193959799565b600082815260208190526040902060010154610c6b816122a1565b610c7583836122b2565b505050565b610c82612297565b6001600160a01b0316816001600160a01b031614610cfa5760405162461bcd60e51b815260206004820152602f60248201527f416363657373436f6e74726f6c3a2063616e206f6e6c792072656e6f756e636560448201526e103937b632b9903337b91039b2b63360891b60648201526084016104c3565b610d0482826122d4565b5050565b6000610d13816122a1565b610d1b6122f6565b50565b60025460ff1615610d415760405162461bcd60e51b81526004016104c390612d8f565b6000818152600360208190526040909120015481906001600160a01b0316610d7b5760405162461bcd60e51b81526004016104c390612db9565b60008281526003602052604080822081516101a081019092528054829060ff166001811115610dba57634e487b7160e01b600052602160045260246000fd5b6001811115610dd957634e487b7160e01b600052602160045260246000fd5b8152815460ff610100918290041615156020830152600183015460408301526002830154606083015260038301546001600160a01b0390811660808401526004840154811660a0840152600584015460c08401526006840154811660e0840152600784015491830191909152600883015481166101208301526009830154610140830152600a83015416610160820152600b90910154610180909101529050610e80612297565b6001600160a01b031681608001516001600160a01b03161480610eab5750610eab600061034d612297565b610f105760405162461bcd60e51b815260206004820152603060248201527f4c656d6f6e6164654d61726b6574706c6163653a206d7573742062652074686560448201526f081b585ad95c881d1bc818d85b98d95b60821b60648201526084016104c3565b8060200151610f695760405162461bcd60e51b81526020600482015260316024820152600080516020612f6b8339815191526044820152701899481bdc195b881d1bc818d85b98d95b607a1b60648201526084016104c3565b6101208101516001600160a01b031615610fd15760405162461bcd60e51b81526020600482015260356024820152600080516020612f6b8339815191526044820152741a185d99481b9bc8189a59081d1bc818d85b98d95b605a1b60648201526084016104c3565b60e08101516080820151610100830151604051632142170760e11b81526001600160a01b03909316926342842e0e9261100e923092600401612c90565b600060405180830381600087803b15801561102857600080fd5b505af115801561103c573d6000803e3d6000fd5b505050600084815260036020526040808220805461ff0019169055518592507f61b9399f2f0f32ca39ce8d7be32caed5ec22fe07a6daba3a467ed479ec6065829190a2505050565b600061108f816122a1565b610d1b61238f565b60008281526001602052604081206110af90836123e8565b9392505050565b6000918252602082815260408084206001600160a01b0393909316845291905290205460ff1690565b60025460ff16156111025760405162461bcd60e51b81526004016104c390612d8f565b6000828152600360208190526040909120015482906001600160a01b031661113c5760405162461bcd60e51b81526004016104c390612db9565b60008381526003602052604080822081516101a081019092528054829060ff16600181111561117b57634e487b7160e01b600052602160045260246000fd5b600181111561119a57634e487b7160e01b600052602160045260246000fd5b8152815460ff61010091829004161515602083015260018084015460408401526002840154606084015260038401546001600160a01b0390811660808501526004850154811660a0850152600585015460c08501526006850154811660e0850152600785015492840192909252600884015482166101208401526009840154610140840152600a840154909116610160830152600b90920154610180909101529091508151600181111561125e57634e487b7160e01b600052602160045260246000fd5b146112bf5760405162461bcd60e51b81526020600482015260396024820152600080516020612f6b83398151915260448201527f6265206f66206b696e642061756374696f6e20746f206269640000000000000060648201526084016104c3565b80602001516113155760405162461bcd60e51b815260206004820152602e6024820152600080516020612f6b83398151915260448201526d1899481bdc195b881d1bc8189a5960921b60648201526084016104c3565b428160400151111561137d5760405162461bcd60e51b815260206004820152603a6024820152600080516020612f6b83398151915260448201527f6265206f70656e20746f20626964202d20746f6f206561726c7900000000000060648201526084016104c3565b428160600151116113e45760405162461bcd60e51b81526020600482015260396024820152600080516020612f6b83398151915260448201527f6265206f70656e20746f20626964202d20746f6f206c6174650000000000000060648201526084016104c3565b828160c00151111561144d5760405162461bcd60e51b815260206004820152602c60248201527f4c656d6f6e6164654d61726b6574706c6163653a206d757374206d617463682060448201526b1c1c9a58d9481d1bc8189a5960a21b60648201526084016104c3565b6101208101516001600160a01b0316156114e45782816101400151106114ca5760405162461bcd60e51b815260206004820152602c60248201527f4c656d6f6e6164654d61726b6574706c6163653a206d7573742073757270617360448201526b1cc8189a59081d1bc8189a5960a21b60648201526084016104c3565b6114e48160a00151308361012001518461014001516123f4565b6114ec612297565b600085815260036020526040908190206008810180546001600160a01b0319166001600160a01b0394909416939093179092556009820185905580516101a081019091528154909190829060ff16600181111561155957634e487b7160e01b600052602160045260246000fd5b600181111561157857634e487b7160e01b600052602160045260246000fd5b8152815460ff610100918290041615156020830152600183015460408301526002830154606083015260038301546001600160a01b0390811660808401526004840154811660a080850191909152600585015460c08501526006850154821660e08501526007850154928401929092526008840154811661012080850191909152600985015461014080860191909152600a860154909216610160850152600b9094015461018090930192909252830151918301519083015192935061163f9230906123f4565b8061012001516001600160a01b0316847f43c168f1d9d74d73325ab680f380bc731699766781190d47b123572b01b2fa2883610140015160405161168591815260200190565b60405180910390a350505050565b60025460ff16156116b65760405162461bcd60e51b81526004016104c390612d8f565b6000828152600360208190526040909120015482906001600160a01b03166116f05760405162461bcd60e51b81526004016104c390612db9565b60008381526003602052604080822081516101a081019092528054829060ff16600181111561172f57634e487b7160e01b600052602160045260246000fd5b600181111561174e57634e487b7160e01b600052602160045260246000fd5b8152815460ff61010091829004161515602080840191909152600184015460408401526002840154606084015260038401546001600160a01b0390811660808501526004850154811660a0850152600585015460c08501526006850154811660e0850152600785015492840192909252600884015482166101208401526009840154610140840152600a840154909116610160830152600b90920154610180909101528101519091506118495760405162461bcd60e51b815260206004820152602f6024820152600080516020612f6b83398151915260448201526e1899481bdc195b881d1bc8199a5b1b608a1b60648201526084016104c3565b6000848152600360205260408120805461ff0019169055808251600181111561188257634e487b7160e01b600052602160045260246000fd5b1415611a2c5742826040015111156118f05760405162461bcd60e51b815260206004820152603b6024820152600080516020612f6b83398151915260448201527f6265206f70656e20746f2066696c6c202d20746f6f206561726c79000000000060648201526084016104c3565b606082015115806119045750428260600151115b6119645760405162461bcd60e51b815260206004820152603a6024820152600080516020612f6b83398151915260448201527f6265206f70656e20746f2066696c6c202d20746f6f206c61746500000000000060648201526084016104c3565b838260c0015111156119de5760405162461bcd60e51b815260206004820152603a60248201527f4c656d6f6e6164654d61726b6574706c6163653a206d757374206d617463682060448201527f707269636520746f2066696c6c20646972656374206f7264657200000000000060648201526084016104c3565b6119e6612297565b6000868152600360205260409020600a810180546001600160a01b0319166001600160a01b039390931692909217909155600b01849055611a25612297565b9050611bfb565b600182516001811115611a4f57634e487b7160e01b600052602160045260246000fd5b1415611bfb576101208201516001600160a01b0316611ac45760405162461bcd60e51b815260206004820152603e6024820152600080516020612f6b83398151915260448201527f686176652062696420746f2066696c6c2061756374696f6e206f72646572000060648201526084016104c3565b611acc612297565b6001600160a01b03168261012001516001600160a01b0316148015611af5575042826060015111155b80611b1c5750611b03612297565b6001600160a01b031682608001516001600160a01b0316145b80611b2f5750611b2f600061034d612297565b611bb65760405162461bcd60e51b815260206004820152604c60248201527f4c656d6f6e6164654d61726b6574706c6163653a206d7573742062652074686560448201527f206d616b6572206f722066696e616c2062696464657220746f2066696c6c206160648201526b3ab1ba34b7b71037b93232b960a11b608482015260a4016104c3565b506101208101516000858152600360205260409020600a810180546001600160a01b0319166001600160a01b0390931692909217909155610140820151600b90910155305b6000858152600360205260409081902081516101a081019092528054829060ff166001811115611c3b57634e487b7160e01b600052602160045260246000fd5b6001811115611c5a57634e487b7160e01b600052602160045260246000fd5b8152815460ff610100918290041615156020830152600183015460408301526002830154606083015260038301546001600160a01b0390811660808401526004840154811660a0840152600584015460c08401526006840154811660e0840152600784015491830191909152600883015481166101208301526009830154610140830152600a83015416610160820152600b909101546101809182015281015190925015612008576101808201516000612710611d406001600160601b037f00000000000000000000000000000000000000000000000000000000000000001684612e91565b611d4a9190612e71565b9050611d7c8460a00151847f0000000000000000000000000000000000000000000000000000000000000000846123f4565b611d868183612eb0565b91508360e001516001600160a01b031663cad96cca8561010001516040518263ffffffff1660e01b8152600401611dbf91815260200190565b60006040518083038186803b158015611dd757600080fd5b505afa925050508015611e0c57506040513d6000823e601f3d908101601f19168201604052611e0991908101906129ee565b60015b611ee15760e084015161010085015161018086015160405163152a902d60e11b8152600481019290925260248201526001600160a01b0390911690632a55205a90604401604080518083038186803b158015611e6757600080fd5b505afa925050508015611e97575060408051601f3d908101601f19168201909252611e94918101906129c1565b60015b611ea057611feb565b816001600160a01b031686608001516001600160a01b031614611eda57611ecd8660a001518684846123f4565b611ed78185612eb0565b93505b5050611feb565b805160005b81811015611fe757828181518110611f0e57634e487b7160e01b600052603260045260246000fd5b6020026020010151600001516001600160a01b031687608001516001600160a01b031614611fd5576000612710848381518110611f5b57634e487b7160e01b600052603260045260246000fd5b6020026020010151602001516001600160601b0316896101800151611f809190612e91565b611f8a9190612e71565b9050611fc78860a0015188868581518110611fb557634e487b7160e01b600052603260045260246000fd5b602002602001015160000151846123f4565b611fd18187612eb0565b9550505b80611fdf81612f0e565b915050611ee6565b5050505b8115612005576120058460a00151848660800151856123f4565b50505b60e0820151610160830151610100840151604051632142170760e11b81526001600160a01b03909316926342842e0e92612046923092600401612c90565b600060405180830381600087803b15801561206057600080fd5b505af1158015612074573d6000803e3d6000fd5b505050508161016001516001600160a01b0316857f1e7abafb1a786c4e6394b5c494f50a97e3802ff2ce462eca4fe6a2dd4e1f92e88461018001516040516120be91815260200190565b60405180910390a35050505050565b600081815260016020526040812061048290612519565b6000828152602081905260409020600101546120ff816122a1565b610c7583836122d4565b6000612114816122a1565b50600580546001600160a01b0319166001600160a01b0392909216919091179055565b6000612141612146565b905090565b60006018361080159061216357506005546001600160a01b031633145b15612175575060131936013560601c90565b503390565b61218482826110b6565b610d04576000828152602081815260408083206001600160a01b03851684529091529020805460ff191660011790556121bb612297565b6001600160a01b0316816001600160a01b0316837f2f8788117e7eff1d82e926ec794901d17c78024a50270940304540a733656f0d60405160405180910390a45050565b60006110af836001600160a01b038416612523565b60006001600160e01b03198216637965db0b60e01b148061048257506301ffc9a760e01b6001600160e01b0319831614610482565b600080428410612259578361225b565b425b90506000831561226b578361226f565b6000195b90508082111561228457600092505050610482565b61228e8282612eb0565b95945050505050565b6000612141612137565b610d1b816122ad612297565b612572565b6122bc828261217a565b6000828152600160205260409020610c7590826121ff565b6122de82826125d6565b6000828152600160205260409020610c759082612659565b60025460ff1661233f5760405162461bcd60e51b815260206004820152601460248201527314185d5cd8589b194e881b9bdd081c185d5cd95960621b60448201526064016104c3565b6002805460ff191690557f5db9ee0a495bf2e6ff9c91a7834c1ba4fdd244a5e8aa4e537bd38aeae4b073aa612372612297565b6040516001600160a01b03909116815260200160405180910390a1565b60025460ff16156123b25760405162461bcd60e51b81526004016104c390612d8f565b6002805460ff191660011790557f62e78cea01bee320cd4e420270b5ea74000d11b0c9f74754ebdbfc544b05a258612372612297565b60006110af838361266e565b836001600160a01b03841630141561248e5760405163a9059cbb60e01b81526001600160a01b0384811660048301526024820184905282169063a9059cbb90604401602060405180830381600087803b15801561245057600080fd5b505af1158015612464573d6000803e3d6000fd5b505050506040513d601f19601f820116820180604052508101906124889190612ad5565b50612512565b6040516323b872dd60e01b81526001600160a01b038216906323b872dd906124be90879087908790600401612c90565b602060405180830381600087803b1580156124d857600080fd5b505af11580156124ec573d6000803e3d6000fd5b505050506040513d601f19601f820116820180604052508101906125109190612ad5565b505b5050505050565b6000610482825490565b600081815260018301602052604081205461256a57508154600181810184556000848152602080822090930184905584548482528286019093526040902091909155610482565b506000610482565b61257c82826110b6565b610d0457612594816001600160a01b031660146126a6565b61259f8360206126a6565b6040516020016125b0929190612c1b565b60408051601f198184030181529082905262461bcd60e51b82526104c391600401612d5c565b6125e082826110b6565b15610d04576000828152602081815260408083206001600160a01b03851684529091529020805460ff19169055612615612297565b6001600160a01b0316816001600160a01b0316837ff6391f5c32d9c69d2a47ea670b442974b53935d1edc7fd64eb21e047a839171b60405160405180910390a45050565b60006110af836001600160a01b038416612888565b600082600001828154811061269357634e487b7160e01b600052603260045260246000fd5b9060005260206000200154905092915050565b606060006126b5836002612e91565b6126c0906002612e59565b67ffffffffffffffff8111156126e657634e487b7160e01b600052604160045260246000fd5b6040519080825280601f01601f191660200182016040528015612710576020820181803683370190505b509050600360fc1b8160008151811061273957634e487b7160e01b600052603260045260246000fd5b60200101906001600160f81b031916908160001a905350600f60fb1b8160018151811061277657634e487b7160e01b600052603260045260246000fd5b60200101906001600160f81b031916908160001a905350600061279a846002612e91565b6127a5906001612e59565b90505b6001811115612839576f181899199a1a9b1b9c1cb0b131b232b360811b85600f16601081106127e757634e487b7160e01b600052603260045260246000fd5b1a60f81b82828151811061280b57634e487b7160e01b600052603260045260246000fd5b60200101906001600160f81b031916908160001a90535060049490941c9361283281612ef7565b90506127a8565b5083156110af5760405162461bcd60e51b815260206004820181905260248201527f537472696e67733a20686578206c656e67746820696e73756666696369656e7460448201526064016104c3565b6000818152600183016020526040812054801561299b5760006128ac600183612eb0565b85549091506000906128c090600190612eb0565b90508181146129415760008660000182815481106128ee57634e487b7160e01b600052603260045260246000fd5b906000526020600020015490508087600001848154811061291f57634e487b7160e01b600052603260045260246000fd5b6000918252602080832090910192909255918252600188019052604090208390555b855486908061296057634e487b7160e01b600052603160045260246000fd5b600190038181906000526020600020016000905590558560010160008681526020019081526020016000206000905560019350505050610482565b6000915050610482565b6000602082840312156129b6578081fd5b81356110af81612f55565b600080604083850312156129d3578081fd5b82516129de81612f55565b6020939093015192949293505050565b60006020808385031215612a00578182fd5b825167ffffffffffffffff80821115612a17578384fd5b818501915085601f830112612a2a578384fd5b815181811115612a3c57612a3c612f3f565b612a4a848260051b01612e28565b8181528481019250838501600683901b85018601891015612a69578687fd5b8694505b82851015612ac957604080828b031215612a85578788fd5b612a8d612dff565b8251612a9881612f55565b8152828801516001600160601b0381168114612ab257898afd5b818901528552600195909501949386019301612a6d565b50979650505050505050565b600060208284031215612ae6578081fd5b815180151581146110af578182fd5b600060208284031215612b06578081fd5b5035919050565b60008060408385031215612b1f578182fd5b823591506020830135612b3181612f55565b809150509250929050565b60008060408385031215612b4e578182fd5b50508035926020909101359150565b600060208284031215612b6e578081fd5b81356001600160e01b0319811681146110af578182fd5b600080600080600080600060e0888a031215612b9f578283fd5b873560028110612bad578384fd5b965060208801359550604088013594506060880135612bcb81612f55565b93506080880135925060a0880135612be281612f55565b8092505060c0880135905092959891949750929550565b60028110612c1757634e487b7160e01b600052602160045260246000fd5b9052565b7f416363657373436f6e74726f6c3a206163636f756e7420000000000000000000815260008351612c53816017850160208801612ec7565b7001034b99036b4b9b9b4b733903937b6329607d1b6017918401918201528351612c84816028840160208801612ec7565b01602801949350505050565b6001600160a01b039384168152919092166020820152604081019190915260600190565b6101408101612cc3828d612bf9565b9915156020820152604081019890985260608801969096526001600160a01b03948516608088015292841660a087015260c086019190915260e08501521661010083015261012090910152919050565b60e08101612d21828a612bf9565b602082019790975260408101959095526001600160a01b039384166060860152608085019290925290911660a083015260c090910152919050565b6020815260008251806020840152612d7b816040850160208701612ec7565b601f01601f19169190910160400192915050565b60208082526010908201526f14185d5cd8589b194e881c185d5cd95960821b604082015260600190565b60208082526026908201527f4c656d6f6e6164654d61726b6574706c6163653a206f72646572206e6f6e65786040820152651a5cdd195b9d60d21b606082015260800190565b6040805190810167ffffffffffffffff81118282101715612e2257612e22612f3f565b60405290565b604051601f8201601f1916810167ffffffffffffffff81118282101715612e5157612e51612f3f565b604052919050565b60008219821115612e6c57612e6c612f29565b500190565b600082612e8c57634e487b7160e01b81526012600452602481fd5b500490565b6000816000190483118215151615612eab57612eab612f29565b500290565b600082821015612ec257612ec2612f29565b500390565b60005b83811015612ee2578181015183820152602001612eca565b83811115612ef1576000848401525b50505050565b600081612f0657612f06612f29565b506000190190565b6000600019821415612f2257612f22612f29565b5060010190565b634e487b7160e01b600052601160045260246000fd5b634e487b7160e01b600052604160045260246000fd5b6001600160a01b0381168114610d1b57600080fdfe4c656d6f6e6164654d61726b6574706c6163653a206f72646572206d75737420a26469706673582212208c3445288258a299e5b13ceb142699d39b58de560bcf315764113fb6dc0e863164736f6c63430008040033",
  "devdoc": {
    "kind": "dev",
    "methods": {
      "getRoleAdmin(bytes32)": {
        "details": "Returns the admin role that controls `role`. See {grantRole} and {revokeRole}. To change a role's admin, use {_setRoleAdmin}."
      },
      "getRoleMember(bytes32,uint256)": {
        "details": "Returns one of the accounts that have `role`. `index` must be a value between 0 and {getRoleMemberCount}, non-inclusive. Role bearers are not sorted in any particular way, and their ordering may change at any point. WARNING: When using {getRoleMember} and {getRoleMemberCount}, make sure you perform all queries on the same block. See the following https://forum.openzeppelin.com/t/iterating-over-elements-on-enumerableset-in-openzeppelin-contracts/2296[forum post] for more information."
      },
      "getRoleMemberCount(bytes32)": {
        "details": "Returns the number of accounts that have `role`. Can be used together with {getRoleMember} to enumerate all bearers of a role."
      },
      "grantRole(bytes32,address)": {
        "details": "Grants `role` to `account`. If `account` had not been already granted `role`, emits a {RoleGranted} event. Requirements: - the caller must have ``role``'s admin role."
      },
      "hasRole(bytes32,address)": {
        "details": "Returns `true` if `account` has been granted `role`."
      },
      "paused()": {
        "details": "Returns true if the contract is paused, and false otherwise."
      },
      "renounceRole(bytes32,address)": {
        "details": "Revokes `role` from the calling account. Roles are often managed via {grantRole} and {revokeRole}: this function's purpose is to provide a mechanism for accounts to lose their privileges if they are compromised (such as when a trusted device is misplaced). If the calling account had been revoked `role`, emits a {RoleRevoked} event. Requirements: - the caller must be `account`."
      },
      "revokeRole(bytes32,address)": {
        "details": "Revokes `role` from `account`. If `account` had been granted `role`, emits a {RoleRevoked} event. Requirements: - the caller must have ``role``'s admin role."
      },
      "supportsInterface(bytes4)": {
        "details": "See {IERC165-supportsInterface}."
      }
    },
    "version": 1
  },
  "userdoc": {
    "kind": "user",
    "methods": {
      "isTrustedForwarder(address)": {
        "notice": "return if the forwarder is trusted to forward relayed transactions to us. the forwarder is required to verify the sender's signature, and verify the call is not a replay."
      }
    },
    "version": 1
  },
  "storageLayout": {
    "storage": [
      {
        "astId": 24,
        "contract": "contracts/LemonadeMarketplaceV1Forwardable.sol:LemonadeMarketplaceV1Forwardable",
        "label": "_roles",
        "offset": 0,
        "slot": "0",
        "type": "t_mapping(t_bytes32,t_struct(RoleData)19_storage)"
      },
      {
        "astId": 338,
        "contract": "contracts/LemonadeMarketplaceV1Forwardable.sol:LemonadeMarketplaceV1Forwardable",
        "label": "_roleMembers",
        "offset": 0,
        "slot": "1",
        "type": "t_mapping(t_bytes32,t_struct(AddressSet)3833_storage)"
      },
      {
        "astId": 665,
        "contract": "contracts/LemonadeMarketplaceV1Forwardable.sol:LemonadeMarketplaceV1Forwardable",
        "label": "_paused",
        "offset": 0,
        "slot": "2",
        "type": "t_bool"
      },
      {
        "astId": 7432,
        "contract": "contracts/LemonadeMarketplaceV1Forwardable.sol:LemonadeMarketplaceV1Forwardable",
        "label": "_orders",
        "offset": 0,
        "slot": "3",
        "type": "t_mapping(t_uint256,t_struct(Order)7427_storage)"
      },
      {
        "astId": 7435,
        "contract": "contracts/LemonadeMarketplaceV1Forwardable.sol:LemonadeMarketplaceV1Forwardable",
        "label": "_orderIdTracker",
        "offset": 0,
        "slot": "4",
        "type": "t_struct(Counter)3214_storage"
      },
      {
        "astId": 9185,
        "contract": "contracts/LemonadeMarketplaceV1Forwardable.sol:LemonadeMarketplaceV1Forwardable",
        "label": "trustedForwarder",
        "offset": 0,
        "slot": "5",
        "type": "t_address"
      }
    ],
    "types": {
      "t_address": {
        "encoding": "inplace",
        "label": "address",
        "numberOfBytes": "20"
      },
      "t_array(t_bytes32)dyn_storage": {
        "base": "t_bytes32",
        "encoding": "dynamic_array",
        "label": "bytes32[]",
        "numberOfBytes": "32"
      },
      "t_bool": {
        "encoding": "inplace",
        "label": "bool",
        "numberOfBytes": "1"
      },
      "t_bytes32": {
        "encoding": "inplace",
        "label": "bytes32",
        "numberOfBytes": "32"
      },
      "t_enum(OrderKind)7358": {
        "encoding": "inplace",
        "label": "enum LemonadeMarketplaceV1.OrderKind",
        "numberOfBytes": "1"
      },
      "t_mapping(t_address,t_bool)": {
        "encoding": "mapping",
        "key": "t_address",
        "label": "mapping(address => bool)",
        "numberOfBytes": "32",
        "value": "t_bool"
      },
      "t_mapping(t_bytes32,t_struct(AddressSet)3833_storage)": {
        "encoding": "mapping",
        "key": "t_bytes32",
        "label": "mapping(bytes32 => struct EnumerableSet.AddressSet)",
        "numberOfBytes": "32",
        "value": "t_struct(AddressSet)3833_storage"
      },
      "t_mapping(t_bytes32,t_struct(RoleData)19_storage)": {
        "encoding": "mapping",
        "key": "t_bytes32",
        "label": "mapping(bytes32 => struct AccessControl.RoleData)",
        "numberOfBytes": "32",
        "value": "t_struct(RoleData)19_storage"
      },
      "t_mapping(t_bytes32,t_uint256)": {
        "encoding": "mapping",
        "key": "t_bytes32",
        "label": "mapping(bytes32 => uint256)",
        "numberOfBytes": "32",
        "value": "t_uint256"
      },
      "t_mapping(t_uint256,t_struct(Order)7427_storage)": {
        "encoding": "mapping",
        "key": "t_uint256",
        "label": "mapping(uint256 => struct LemonadeMarketplaceV1.Order)",
        "numberOfBytes": "32",
        "value": "t_struct(Order)7427_storage"
      },
      "t_struct(AddressSet)3833_storage": {
        "encoding": "inplace",
        "label": "struct EnumerableSet.AddressSet",
        "members": [
          {
            "astId": 3832,
            "contract": "contracts/LemonadeMarketplaceV1Forwardable.sol:LemonadeMarketplaceV1Forwardable",
            "label": "_inner",
            "offset": 0,
            "slot": "0",
            "type": "t_struct(Set)3532_storage"
          }
        ],
        "numberOfBytes": "64"
      },
      "t_struct(Counter)3214_storage": {
        "encoding": "inplace",
        "label": "struct Counters.Counter",
        "members": [
          {
            "astId": 3213,
            "contract": "contracts/LemonadeMarketplaceV1Forwardable.sol:LemonadeMarketplaceV1Forwardable",
            "label": "_value",
            "offset": 0,
            "slot": "0",
            "type": "t_uint256"
          }
        ],
        "numberOfBytes": "32"
      },
      "t_struct(Order)7427_storage": {
        "encoding": "inplace",
        "label": "struct LemonadeMarketplaceV1.Order",
        "members": [
          {
            "astId": 7402,
            "contract": "contracts/LemonadeMarketplaceV1Forwardable.sol:LemonadeMarketplaceV1Forwardable",
            "label": "kind",
            "offset": 0,
            "slot": "0",
            "type": "t_enum(OrderKind)7358"
          },
          {
            "astId": 7404,
            "contract": "contracts/LemonadeMarketplaceV1Forwardable.sol:LemonadeMarketplaceV1Forwardable",
            "label": "open",
            "offset": 1,
            "slot": "0",
            "type": "t_bool"
          },
          {
            "astId": 7406,
            "contract": "contracts/LemonadeMarketplaceV1Forwardable.sol:LemonadeMarketplaceV1Forwardable",
            "label": "openFrom",
            "offset": 0,
            "slot": "1",
            "type": "t_uint256"
          },
          {
            "astId": 7408,
            "contract": "contracts/LemonadeMarketplaceV1Forwardable.sol:LemonadeMarketplaceV1Forwardable",
            "label": "openTo",
            "offset": 0,
            "slot": "2",
            "type": "t_uint256"
          },
          {
            "astId": 7410,
            "contract": "contracts/LemonadeMarketplaceV1Forwardable.sol:LemonadeMarketplaceV1Forwardable",
            "label": "maker",
            "offset": 0,
            "slot": "3",
            "type": "t_address"
          },
          {
            "astId": 7412,
            "contract": "contracts/LemonadeMarketplaceV1Forwardable.sol:LemonadeMarketplaceV1Forwardable",
            "label": "currency",
            "offset": 0,
            "slot": "4",
            "type": "t_address"
          },
          {
            "astId": 7414,
            "contract": "contracts/LemonadeMarketplaceV1Forwardable.sol:LemonadeMarketplaceV1Forwardable",
            "label": "price",
            "offset": 0,
            "slot": "5",
            "type": "t_uint256"
          },
          {
            "astId": 7416,
            "contract": "contracts/LemonadeMarketplaceV1Forwardable.sol:LemonadeMarketplaceV1Forwardable",
            "label": "tokenContract",
            "offset": 0,
            "slot": "6",
            "type": "t_address"
          },
          {
            "astId": 7418,
            "contract": "contracts/LemonadeMarketplaceV1Forwardable.sol:LemonadeMarketplaceV1Forwardable",
            "label": "tokenId",
            "offset": 0,
            "slot": "7",
            "type": "t_uint256"
          },
          {
            "astId": 7420,
            "contract": "contracts/LemonadeMarketplaceV1Forwardable.sol:LemonadeMarketplaceV1Forwardable",
            "label": "bidder",
            "offset": 0,
            "slot": "8",
            "type": "t_address"
          },
          {
            "astId": 7422,
            "contract": "contracts/LemonadeMarketplaceV1Forwardable.sol:LemonadeMarketplaceV1Forwardable",
            "label": "bidAmount",
            "offset": 0,
            "slot": "9",
            "type": "t_uint256"
          },
          {
            "astId": 7424,
            "contract": "contracts/LemonadeMarketplaceV1Forwardable.sol:LemonadeMarketplaceV1Forwardable",
            "label": "taker",
            "offset": 0,
            "slot": "10",
            "type": "t_address"
          },
          {
            "astId": 7426,
            "contract": "contracts/LemonadeMarketplaceV1Forwardable.sol:LemonadeMarketplaceV1Forwardable",
            "label": "paidAmount",
            "offset": 0,
            "slot": "11",
            "type": "t_uint256"
          }
        ],
        "numberOfBytes": "384"
      },
      "t_struct(RoleData)19_storage": {
        "encoding": "inplace",
        "label": "struct AccessControl.RoleData",
        "members": [
          {
            "astId": 16,
            "contract": "contracts/LemonadeMarketplaceV1Forwardable.sol:LemonadeMarketplaceV1Forwardable",
            "label": "members",
            "offset": 0,
            "slot": "0",
            "type": "t_mapping(t_address,t_bool)"
          },
          {
            "astId": 18,
            "contract": "contracts/LemonadeMarketplaceV1Forwardable.sol:LemonadeMarketplaceV1Forwardable",
            "label": "adminRole",
            "offset": 0,
            "slot": "1",
            "type": "t_bytes32"
          }
        ],
        "numberOfBytes": "64"
      },
      "t_struct(Set)3532_storage": {
        "encoding": "inplace",
        "label": "struct EnumerableSet.Set",
        "members": [
          {
            "astId": 3527,
            "contract": "contracts/LemonadeMarketplaceV1Forwardable.sol:LemonadeMarketplaceV1Forwardable",
            "label": "_values",
            "offset": 0,
            "slot": "0",
            "type": "t_array(t_bytes32)dyn_storage"
          },
          {
            "astId": 3531,
            "contract": "contracts/LemonadeMarketplaceV1Forwardable.sol:LemonadeMarketplaceV1Forwardable",
            "label": "_indexes",
            "offset": 0,
            "slot": "1",
            "type": "t_mapping(t_bytes32,t_uint256)"
          }
        ],
        "numberOfBytes": "64"
      },
      "t_uint256": {
        "encoding": "inplace",
        "label": "uint256",
        "numberOfBytes": "32"
      }
    }
  }
}