{
  "address": "0x09C8b91dF16c8F21a6Cd2A6d802ca728A2DB2828",
  "abi": [
    {
      "inputs": [
        {
          "internalType": "string",
          "name": "name",
          "type": "string"
        },
        {
          "internalType": "string",
          "name": "symbol",
          "type": "string"
        },
        {
          "internalType": "address",
          "name": "trustedForwarder",
          "type": "address"
        }
      ],
      "stateMutability": "nonpayable",
      "type": "constructor"
    },
    {
      "anonymous": false,
      "inputs": [
        {
          "indexed": true,
          "internalType": "address",
          "name": "owner",
          "type": "address"
        },
        {
          "indexed": true,
          "internalType": "address",
          "name": "approved",
          "type": "address"
        },
        {
          "indexed": true,
          "internalType": "uint256",
          "name": "tokenId",
          "type": "uint256"
        }
      ],
      "name": "Approval",
      "type": "event"
    },
    {
      "anonymous": false,
      "inputs": [
        {
          "indexed": true,
          "internalType": "address",
          "name": "owner",
          "type": "address"
        },
        {
          "indexed": true,
          "internalType": "address",
          "name": "operator",
          "type": "address"
        },
        {
          "indexed": false,
          "internalType": "bool",
          "name": "approved",
          "type": "bool"
        }
      ],
      "name": "ApprovalForAll",
      "type": "event"
    },
    {
      "anonymous": false,
      "inputs": [
        {
          "indexed": true,
          "internalType": "address",
          "name": "previousOwner",
          "type": "address"
        },
        {
          "indexed": true,
          "internalType": "address",
          "name": "newOwner",
          "type": "address"
        }
      ],
      "name": "OwnershipTransferred",
      "type": "event"
    },
    {
      "anonymous": false,
      "inputs": [
        {
          "indexed": true,
          "internalType": "address",
          "name": "from",
          "type": "address"
        },
        {
          "indexed": true,
          "internalType": "address",
          "name": "to",
          "type": "address"
        },
        {
          "indexed": true,
          "internalType": "uint256",
          "name": "tokenId",
          "type": "uint256"
        }
      ],
      "name": "Transfer",
      "type": "event"
    },
    {
      "inputs": [
        {
          "internalType": "address",
          "name": "to",
          "type": "address"
        },
        {
          "internalType": "uint256",
          "name": "tokenId",
          "type": "uint256"
        }
      ],
      "name": "approve",
      "outputs": [],
      "stateMutability": "nonpayable",
      "type": "function"
    },
    {
      "inputs": [
        {
          "internalType": "address",
          "name": "owner",
          "type": "address"
        }
      ],
      "name": "balanceOf",
      "outputs": [
        {
          "internalType": "uint256",
          "name": "",
          "type": "uint256"
        }
      ],
      "stateMutability": "view",
      "type": "function"
    },
    {
      "inputs": [
        {
          "internalType": "uint256",
          "name": "tokenId",
          "type": "uint256"
        }
      ],
      "name": "getApproved",
      "outputs": [
        {
          "internalType": "address",
          "name": "",
          "type": "address"
        }
      ],
      "stateMutability": "view",
      "type": "function"
    },
    {
      "inputs": [
        {
          "internalType": "uint256",
          "name": "tokenId",
          "type": "uint256"
        }
      ],
      "name": "getRaribleV2Royalties",
      "outputs": [
        {
          "components": [
            {
              "internalType": "address payable",
              "name": "account",
              "type": "address"
            },
            {
              "internalType": "uint96",
              "name": "value",
              "type": "uint96"
            }
          ],
          "internalType": "struct LibPart.Part[]",
          "name": "",
          "type": "tuple[]"
        }
      ],
      "stateMutability": "view",
      "type": "function"
    },
    {
      "inputs": [
        {
          "internalType": "address",
          "name": "owner",
          "type": "address"
        },
        {
          "internalType": "address",
          "name": "operator",
          "type": "address"
        }
      ],
      "name": "isApprovedForAll",
      "outputs": [
        {
          "internalType": "bool",
          "name": "",
          "type": "bool"
        }
      ],
      "stateMutability": "view",
      "type": "function"
    },
    {
      "inputs": [
        {
          "internalType": "address",
          "name": "forwarder",
          "type": "address"
        }
      ],
      "name": "isTrustedForwarder",
      "outputs": [
        {
          "internalType": "bool",
          "name": "",
          "type": "bool"
        }
      ],
      "stateMutability": "view",
      "type": "function"
    },
    {
      "inputs": [
        {
          "internalType": "string",
          "name": "tokenURI_",
          "type": "string"
        }
      ],
      "name": "mintToCaller",
      "outputs": [
        {
          "internalType": "uint256",
          "name": "",
          "type": "uint256"
        }
      ],
      "stateMutability": "nonpayable",
      "type": "function"
    },
    {
      "inputs": [
        {
          "internalType": "string",
          "name": "tokenURI_",
          "type": "string"
        },
        {
          "components": [
            {
              "internalType": "address payable",
              "name": "account",
              "type": "address"
            },
            {
              "internalType": "uint96",
              "name": "value",
              "type": "uint96"
            }
          ],
          "internalType": "struct LibPart.Part[]",
          "name": "royalties_",
          "type": "tuple[]"
        }
      ],
      "name": "mintToCallerWithRoyalty",
      "outputs": [
        {
          "internalType": "uint256",
          "name": "",
          "type": "uint256"
        }
      ],
      "stateMutability": "nonpayable",
      "type": "function"
    },
    {
      "inputs": [],
      "name": "name",
      "outputs": [
        {
          "internalType": "string",
          "name": "",
          "type": "string"
        }
      ],
      "stateMutability": "view",
      "type": "function"
    },
    {
      "inputs": [],
      "name": "owner",
      "outputs": [
        {
          "internalType": "address",
          "name": "",
          "type": "address"
        }
      ],
      "stateMutability": "view",
      "type": "function"
    },
    {
      "inputs": [
        {
          "internalType": "uint256",
          "name": "tokenId",
          "type": "uint256"
        }
      ],
      "name": "ownerOf",
      "outputs": [
        {
          "internalType": "address",
          "name": "",
          "type": "address"
        }
      ],
      "stateMutability": "view",
      "type": "function"
    },
    {
      "inputs": [],
      "name": "renounceOwnership",
      "outputs": [],
      "stateMutability": "nonpayable",
      "type": "function"
    },
    {
      "inputs": [
        {
          "internalType": "uint256",
          "name": "",
          "type": "uint256"
        },
        {
          "internalType": "uint256",
          "name": "",
          "type": "uint256"
        }
      ],
      "name": "royalties",
      "outputs": [
        {
          "internalType": "address payable",
          "name": "account",
          "type": "address"
        },
        {
          "internalType": "uint96",
          "name": "value",
          "type": "uint96"
        }
      ],
      "stateMutability": "view",
      "type": "function"
    },
    {
      "inputs": [
        {
          "internalType": "uint256",
          "name": "tokenId",
          "type": "uint256"
        },
        {
          "internalType": "uint256",
          "name": "price",
          "type": "uint256"
        }
      ],
      "name": "royaltyInfo",
      "outputs": [
        {
          "internalType": "address",
          "name": "receiver",
          "type": "address"
        },
        {
          "internalType": "uint256",
          "name": "royaltyAmount",
          "type": "uint256"
        }
      ],
      "stateMutability": "view",
      "type": "function"
    },
    {
      "inputs": [
        {
          "internalType": "address",
          "name": "from",
          "type": "address"
        },
        {
          "internalType": "address",
          "name": "to",
          "type": "address"
        },
        {
          "internalType": "uint256",
          "name": "tokenId",
          "type": "uint256"
        }
      ],
      "name": "safeTransferFrom",
      "outputs": [],
      "stateMutability": "nonpayable",
      "type": "function"
    },
    {
      "inputs": [
        {
          "internalType": "address",
          "name": "from",
          "type": "address"
        },
        {
          "internalType": "address",
          "name": "to",
          "type": "address"
        },
        {
          "internalType": "uint256",
          "name": "tokenId",
          "type": "uint256"
        },
        {
          "internalType": "bytes",
          "name": "_data",
          "type": "bytes"
        }
      ],
      "name": "safeTransferFrom",
      "outputs": [],
      "stateMutability": "nonpayable",
      "type": "function"
    },
    {
      "inputs": [
        {
          "internalType": "address",
          "name": "operator",
          "type": "address"
        },
        {
          "internalType": "bool",
          "name": "approved",
          "type": "bool"
        }
      ],
      "name": "setApprovalForAll",
      "outputs": [],
      "stateMutability": "nonpayable",
      "type": "function"
    },
    {
      "inputs": [
        {
          "internalType": "bytes4",
          "name": "interfaceId",
          "type": "bytes4"
        }
      ],
      "name": "supportsInterface",
      "outputs": [
        {
          "internalType": "bool",
          "name": "",
          "type": "bool"
        }
      ],
      "stateMutability": "view",
      "type": "function"
    },
    {
      "inputs": [],
      "name": "symbol",
      "outputs": [
        {
          "internalType": "string",
          "name": "",
          "type": "string"
        }
      ],
      "stateMutability": "view",
      "type": "function"
    },
    {
      "inputs": [],
      "name": "tokenIdTracker",
      "outputs": [
        {
          "internalType": "uint256",
          "name": "_value",
          "type": "uint256"
        }
      ],
      "stateMutability": "view",
      "type": "function"
    },
    {
      "inputs": [
        {
          "internalType": "uint256",
          "name": "tokenId",
          "type": "uint256"
        }
      ],
      "name": "tokenURI",
      "outputs": [
        {
          "internalType": "string",
          "name": "",
          "type": "string"
        }
      ],
      "stateMutability": "view",
      "type": "function"
    },
    {
      "inputs": [
        {
          "internalType": "uint256",
          "name": "",
          "type": "uint256"
        }
      ],
      "name": "tokenURIs",
      "outputs": [
        {
          "internalType": "string",
          "name": "",
          "type": "string"
        }
      ],
      "stateMutability": "view",
      "type": "function"
    },
    {
      "inputs": [
        {
          "internalType": "address",
          "name": "from",
          "type": "address"
        },
        {
          "internalType": "address",
          "name": "to",
          "type": "address"
        },
        {
          "internalType": "uint256",
          "name": "tokenId",
          "type": "uint256"
        }
      ],
      "name": "transferFrom",
      "outputs": [],
      "stateMutability": "nonpayable",
      "type": "function"
    },
    {
      "inputs": [
        {
          "internalType": "address",
          "name": "newOwner",
          "type": "address"
        }
      ],
      "name": "transferOwnership",
      "outputs": [],
      "stateMutability": "nonpayable",
      "type": "function"
    },
    {
      "inputs": [],
      "name": "trustedForwarder",
      "outputs": [
        {
          "internalType": "address",
          "name": "",
          "type": "address"
        }
      ],
      "stateMutability": "view",
      "type": "function"
    },
    {
      "inputs": [],
      "name": "versionRecipient",
      "outputs": [
        {
          "internalType": "string",
          "name": "",
          "type": "string"
        }
      ],
      "stateMutability": "pure",
      "type": "function"
    }
  ],
  "transactionHash": "0xf2f7cf2ff976df7522af6048aa81b7ba8957e926b6a63026bec15d9802592d77",
  "args": [
    "Non-Fungible Lemon",
    "NFL",
    "0x64CD353384109423a966dCd3Aa30D884C9b2E057"
  ],
  "numDeployments": 1,
  "solcInputHash": "8070e3783bf0d9853d1e72aacc5695cb",
  "bytecode": "0x60806040523480156200001157600080fd5b50604051620020c3380380620020c38339810160408190526200003491620002ad565b808383818181600090805190602001906200005192919062000154565b5080516200006790600190602084019062000154565b505050620000846200007e620000b060201b60201c565b620000cc565b5050600a80546001600160a01b0319166001600160a01b03929092169190911790555062000389915050565b6000620000c76200011e60201b62000e6f1760201c565b905090565b600680546001600160a01b038381166001600160a01b0319831681179093556040519116919082907f8be0079c531659141344cd1fd0a4f28419497f9722a3daafe3b4186f6b6457e090600090a35050565b6000601836108015906200013c5750600a546001600160a01b031633145b156200014f575060131936013560601c90565b503390565b828054620001629062000336565b90600052602060002090601f016020900481019282620001865760008555620001d1565b82601f10620001a157805160ff1916838001178555620001d1565b82800160010185558215620001d1579182015b82811115620001d1578251825591602001919060010190620001b4565b50620001df929150620001e3565b5090565b5b80821115620001df5760008155600101620001e4565b600082601f8301126200020b578081fd5b81516001600160401b038082111562000228576200022862000373565b604051601f8301601f19908116603f0116810190828211818310171562000253576200025362000373565b816040528381526020925086838588010111156200026f578485fd5b8491505b8382101562000292578582018301518183018401529082019062000273565b83821115620002a357848385830101525b9695505050505050565b600080600060608486031215620002c2578283fd5b83516001600160401b0380821115620002d9578485fd5b620002e787838801620001fa565b94506020860151915080821115620002fd578384fd5b506200030c86828701620001fa565b604086015190935090506001600160a01b03811681146200032b578182fd5b809150509250925092565b600181811c908216806200034b57607f821691505b602082108114156200036d57634e487b7160e01b600052602260045260246000fd5b50919050565b634e487b7160e01b600052604160045260246000fd5b611d2a80620003996000396000f3fe608060405234801561001057600080fd5b506004361061018e5760003560e01c80636c8b703f116100de57806395d89b4111610097578063c87b56dd11610071578063c87b56dd146103b2578063cad96cca146103c5578063e985e9c5146103e5578063f2fde38b1461042157600080fd5b806395d89b4114610384578063a22cb4651461038c578063b88d4fde1461039f57600080fd5b80636c8b703f146102f857806370a082311461030b578063715018a61461031e5780637da0a877146103265780638924af74146103395780638da5cb5b1461037357600080fd5b806323b872dd1161014b578063486ff0cd11610125578063486ff0cd14610293578063572b6c05146102b057806358b4c6bb146102d25780636352211e146102e557600080fd5b806323b872dd1461023b5780632a55205a1461024e57806342842e0e1461028057600080fd5b806301ffc9a71461019357806302bf3d56146101bb57806306fdde03146101d3578063081812fc146101e8578063095ea7b314610213578063111fb47b14610228575b600080fd5b6101a66101a1366004611831565b610434565b60405190151581526020015b60405180910390f35b6007546101c59081565b6040519081526020016101b2565b6101db61047a565b6040516101b29190611ac9565b6101fb6101f63660046119a7565b61050c565b6040516001600160a01b0390911681526020016101b2565b610226610221366004611806565b6105a6565b005b6101c5610236366004611869565b6106ce565b610226610249366004611718565b61071b565b61026161025c3660046119bf565b610753565b604080516001600160a01b0390931683526020830191909152016101b2565b61022661028e366004611718565b610852565b6040805180820190915260018152603160f81b60208201526101db565b6101a66102be3660046116c4565b600a546001600160a01b0391821691161490565b6101c56102e036600461189c565b61086d565b6101fb6102f33660046119a7565b61090f565b6101db6103063660046119a7565b610986565b6101c56103193660046116c4565b610a20565b610226610aa7565b600a546101fb906001600160a01b031681565b61034c6103473660046119bf565b610b2c565b604080516001600160a01b0390931683526001600160601b039091166020830152016101b2565b6006546001600160a01b03166101fb565b6101db610b75565b61022661039a3660046117d5565b610b84565b6102266103ad366004611758565b610b9a565b6101db6103c03660046119a7565b610bd9565b6103d86103d33660046119a7565b610cf6565b6040516101b29190611a68565b6101a66103f33660046116e0565b6001600160a01b03918216600090815260056020908152604080832093909416825291909152205460ff1690565b61022661042f3660046116c4565b610d85565b60006001600160e01b0319821663152a902d60e11b148061046557506001600160e01b0319821663656cb66560e11b145b80610474575061047482610ea3565b92915050565b60606000805461048990611c47565b80601f01602080910402602001604051908101604052809291908181526020018280546104b590611c47565b80156105025780601f106104d757610100808354040283529160200191610502565b820191906000526020600020905b8154815290600101906020018083116104e557829003601f168201915b5050505050905090565b6000818152600260205260408120546001600160a01b031661058a5760405162461bcd60e51b815260206004820152602c60248201527f4552433732313a20617070726f76656420717565727920666f72206e6f6e657860448201526b34b9ba32b73a103a37b5b2b760a11b60648201526084015b60405180910390fd5b506000908152600460205260409020546001600160a01b031690565b60006105b18261090f565b9050806001600160a01b0316836001600160a01b0316141561061f5760405162461bcd60e51b815260206004820152602160248201527f4552433732313a20617070726f76616c20746f2063757272656e74206f776e656044820152603960f91b6064820152608401610581565b806001600160a01b0316610631610ef3565b6001600160a01b0316148061064d575061064d816103f3610ef3565b6106bf5760405162461bcd60e51b815260206004820152603860248201527f4552433732313a20617070726f76652063616c6c6572206973206e6f74206f7760448201527f6e6572206e6f7220617070726f76656420666f7220616c6c00000000000000006064820152608401610581565b6106c98383610f02565b505050565b6000806106da60075490565b90506106ed6106e7610ef3565b82610f70565b6000818152600860209081526040909120845161070c928601906115ad565b50610474600780546001019055565b61072c610726610ef3565b826110b2565b6107485760405162461bcd60e51b815260040161058190611b2e565b6106c98383836111a9565b60008281526009602052604081205481908061077657600080925092505061084b565b6000805b828110156107ea5760008781526009602052604090208054829081106107b057634e487b7160e01b600052603260045260246000fd5b6000918252602090912001546107d690600160a01b90046001600160601b031683611bd9565b9150806107e281611c82565b91505061077a565b506000868152600960205260408120805490919061081857634e487b7160e01b600052603260045260246000fd5b6000918252602090912001546001600160a01b031661271061083a8388611c11565b6108449190611bf1565b9350935050505b9250929050565b6106c983838360405180602001604052806000815250610b9a565b600080610879846106ce565b835190915060005b8181101561090557600083815260096020526040902085518690839081106108b957634e487b7160e01b600052603260045260246000fd5b602090810291909101810151825460018181018555600094855293839020825192909301516001600160601b0316600160a01b026001600160a01b039092169190911791015501610881565b5090949350505050565b6000818152600260205260408120546001600160a01b0316806104745760405162461bcd60e51b815260206004820152602960248201527f4552433732313a206f776e657220717565727920666f72206e6f6e657869737460448201526832b73a103a37b5b2b760b91b6064820152608401610581565b6008602052600090815260409020805461099f90611c47565b80601f01602080910402602001604051908101604052809291908181526020018280546109cb90611c47565b8015610a185780601f106109ed57610100808354040283529160200191610a18565b820191906000526020600020905b8154815290600101906020018083116109fb57829003601f168201915b505050505081565b60006001600160a01b038216610a8b5760405162461bcd60e51b815260206004820152602a60248201527f4552433732313a2062616c616e636520717565727920666f7220746865207a65604482015269726f206164647265737360b01b6064820152608401610581565b506001600160a01b031660009081526003602052604090205490565b610aaf610ef3565b6001600160a01b0316610aca6006546001600160a01b031690565b6001600160a01b031614610b205760405162461bcd60e51b815260206004820181905260248201527f4f776e61626c653a2063616c6c6572206973206e6f7420746865206f776e65726044820152606401610581565b610b2a6000611345565b565b60096020528160005260406000208181548110610b4857600080fd5b6000918252602090912001546001600160a01b0381169250600160a01b90046001600160601b0316905082565b60606001805461048990611c47565b610b96610b8f610ef3565b8383611397565b5050565b610bab610ba5610ef3565b836110b2565b610bc75760405162461bcd60e51b815260040161058190611b2e565b610bd384848484611466565b50505050565b6000818152600260205260409020546060906001600160a01b0316610c585760405162461bcd60e51b815260206004820152602f60248201527f4552433732314c656d6f6e6164653a2055524920717565727920666f72206e6f60448201526e3732bc34b9ba32b73a103a37b5b2b760891b6064820152608401610581565b60008281526008602052604090208054610c7190611c47565b80601f0160208091040260200160405190810160405280929190818152602001828054610c9d90611c47565b8015610cea5780601f10610cbf57610100808354040283529160200191610cea565b820191906000526020600020905b815481529060010190602001808311610ccd57829003601f168201915b50505050509050919050565b606060096000838152602001908152602001600020805480602002602001604051908101604052809291908181526020016000905b82821015610d7a57600084815260209081902060408051808201909152908401546001600160a01b0381168252600160a01b90046001600160601b031681830152825260019092019101610d2b565b505050509050919050565b610d8d610ef3565b6001600160a01b0316610da86006546001600160a01b031690565b6001600160a01b031614610dfe5760405162461bcd60e51b815260206004820181905260248201527f4f776e61626c653a2063616c6c6572206973206e6f7420746865206f776e65726044820152606401610581565b6001600160a01b038116610e635760405162461bcd60e51b815260206004820152602660248201527f4f776e61626c653a206e6577206f776e657220697320746865207a65726f206160448201526564647265737360d01b6064820152608401610581565b610e6c81611345565b50565b600060183610801590610e8c5750600a546001600160a01b031633145b15610e9e575060131936013560601c90565b503390565b60006001600160e01b031982166380ac58cd60e01b1480610ed457506001600160e01b03198216635b5e139f60e01b145b8061047457506301ffc9a760e01b6001600160e01b0319831614610474565b6000610efd610e6f565b905090565b600081815260046020526040902080546001600160a01b0319166001600160a01b0384169081179091558190610f378261090f565b6001600160a01b03167f8c5be1e5ebec7d5bd14f71427d1e84f3dd0314c0f7b2291e5b200ac8c7c3b92560405160405180910390a45050565b6001600160a01b038216610fc65760405162461bcd60e51b815260206004820181905260248201527f4552433732313a206d696e7420746f20746865207a65726f20616464726573736044820152606401610581565b6000818152600260205260409020546001600160a01b03161561102b5760405162461bcd60e51b815260206004820152601c60248201527f4552433732313a20746f6b656e20616c7265616479206d696e746564000000006044820152606401610581565b6001600160a01b0382166000908152600360205260408120805460019290611054908490611bd9565b909155505060008181526002602052604080822080546001600160a01b0319166001600160a01b03861690811790915590518392907fddf252ad1be2c89b69c2b068fc378daa952ba7f163c4a11628f55a4df523b3ef908290a45050565b6000818152600260205260408120546001600160a01b031661112b5760405162461bcd60e51b815260206004820152602c60248201527f4552433732313a206f70657261746f7220717565727920666f72206e6f6e657860448201526b34b9ba32b73a103a37b5b2b760a11b6064820152608401610581565b60006111368361090f565b9050806001600160a01b0316846001600160a01b0316148061117d57506001600160a01b0380821660009081526005602090815260408083209388168352929052205460ff165b806111a15750836001600160a01b03166111968461050c565b6001600160a01b0316145b949350505050565b826001600160a01b03166111bc8261090f565b6001600160a01b0316146112205760405162461bcd60e51b815260206004820152602560248201527f4552433732313a207472616e736665722066726f6d20696e636f72726563742060448201526437bbb732b960d91b6064820152608401610581565b6001600160a01b0382166112825760405162461bcd60e51b8152602060048201526024808201527f4552433732313a207472616e7366657220746f20746865207a65726f206164646044820152637265737360e01b6064820152608401610581565b61128d600082610f02565b6001600160a01b03831660009081526003602052604081208054600192906112b6908490611c30565b90915550506001600160a01b03821660009081526003602052604081208054600192906112e4908490611bd9565b909155505060008181526002602052604080822080546001600160a01b0319166001600160a01b0386811691821790925591518493918716917fddf252ad1be2c89b69c2b068fc378daa952ba7f163c4a11628f55a4df523b3ef91a4505050565b600680546001600160a01b038381166001600160a01b0319831681179093556040519116919082907f8be0079c531659141344cd1fd0a4f28419497f9722a3daafe3b4186f6b6457e090600090a35050565b816001600160a01b0316836001600160a01b031614156113f95760405162461bcd60e51b815260206004820152601960248201527f4552433732313a20617070726f766520746f2063616c6c6572000000000000006044820152606401610581565b6001600160a01b03838116600081815260056020908152604080832094871680845294825291829020805460ff191686151590811790915591519182527f17307eab39ab6107e8899845ad3d59bd9653f200f220920489ca2b5937696c31910160405180910390a3505050565b6114718484846111a9565b61147d84848484611499565b610bd35760405162461bcd60e51b815260040161058190611adc565b60006001600160a01b0384163b156115a257836001600160a01b031663150b7a026114c2610ef3565b8786866040518563ffffffff1660e01b81526004016114e49493929190611a2b565b602060405180830381600087803b1580156114fe57600080fd5b505af192505050801561152e575060408051601f3d908101601f1916820190925261152b9181019061184d565b60015b611588573d80801561155c576040519150601f19603f3d011682016040523d82523d6000602084013e611561565b606091505b5080516115805760405162461bcd60e51b815260040161058190611adc565b805181602001fd5b6001600160e01b031916630a85bd0160e11b1490506111a1565b506001949350505050565b8280546115b990611c47565b90600052602060002090601f0160209004810192826115db5760008555611621565b82601f106115f457805160ff1916838001178555611621565b82800160010185558215611621579182015b82811115611621578251825591602001919060010190611606565b5061162d929150611631565b5090565b5b8082111561162d5760008155600101611632565b600067ffffffffffffffff83111561166057611660611cb3565b611673601f8401601f1916602001611ba8565b905082815283838301111561168757600080fd5b828260208301376000602084830101529392505050565b600082601f8301126116ae578081fd5b6116bd83833560208501611646565b9392505050565b6000602082840312156116d5578081fd5b81356116bd81611cc9565b600080604083850312156116f2578081fd5b82356116fd81611cc9565b9150602083013561170d81611cc9565b809150509250929050565b60008060006060848603121561172c578081fd5b833561173781611cc9565b9250602084013561174781611cc9565b929592945050506040919091013590565b6000806000806080858703121561176d578081fd5b843561177881611cc9565b9350602085013561178881611cc9565b925060408501359150606085013567ffffffffffffffff8111156117aa578182fd5b8501601f810187136117ba578182fd5b6117c987823560208401611646565b91505092959194509250565b600080604083850312156117e7578182fd5b82356117f281611cc9565b91506020830135801515811461170d578182fd5b60008060408385031215611818578182fd5b823561182381611cc9565b946020939093013593505050565b600060208284031215611842578081fd5b81356116bd81611cde565b60006020828403121561185e578081fd5b81516116bd81611cde565b60006020828403121561187a578081fd5b813567ffffffffffffffff811115611890578182fd5b6111a18482850161169e565b60008060408084860312156118af578283fd5b833567ffffffffffffffff808211156118c6578485fd5b6118d28783880161169e565b94506020915081860135818111156118e8578485fd5b8601601f810188136118f8578485fd5b80358281111561190a5761190a611cb3565b611918848260051b01611ba8565b8181528481019350828501600683901b840186018b1015611937578788fd5b8793505b828410156119965786818c031215611951578788fd5b611959611b7f565b813561196481611cc9565b8152818701356001600160601b038116811461197e57898afd5b8188015285529385019360019390930192860161193b565b508096505050505050509250929050565b6000602082840312156119b8578081fd5b5035919050565b600080604083850312156119d1578182fd5b50508035926020909101359150565b60008151808452815b81811015611a05576020818501810151868301820152016119e9565b81811115611a165782602083870101525b50601f01601f19169290920160200192915050565b6001600160a01b0385811682528416602082015260408101839052608060608201819052600090611a5e908301846119e0565b9695505050505050565b602080825282518282018190526000919060409081850190868401855b82811015611abc57815180516001600160a01b031685528601516001600160601b0316868501529284019290850190600101611a85565b5091979650505050505050565b6020815260006116bd60208301846119e0565b60208082526032908201527f4552433732313a207472616e7366657220746f206e6f6e20455243373231526560408201527131b2b4bb32b91034b6b83632b6b2b73a32b960711b606082015260800190565b60208082526031908201527f4552433732313a207472616e736665722063616c6c6572206973206e6f74206f6040820152701ddb995c881b9bdc88185c1c1c9bdd9959607a1b606082015260800190565b6040805190810167ffffffffffffffff81118282101715611ba257611ba2611cb3565b60405290565b604051601f8201601f1916810167ffffffffffffffff81118282101715611bd157611bd1611cb3565b604052919050565b60008219821115611bec57611bec611c9d565b500190565b600082611c0c57634e487b7160e01b81526012600452602481fd5b500490565b6000816000190483118215151615611c2b57611c2b611c9d565b500290565b600082821015611c4257611c42611c9d565b500390565b600181811c90821680611c5b57607f821691505b60208210811415611c7c57634e487b7160e01b600052602260045260246000fd5b50919050565b6000600019821415611c9657611c96611c9d565b5060010190565b634e487b7160e01b600052601160045260246000fd5b634e487b7160e01b600052604160045260246000fd5b6001600160a01b0381168114610e6c57600080fd5b6001600160e01b031981168114610e6c57600080fdfea264697066735822122039eb4ede19265fac420fa5b392d5fc79a2b84786a453f76d597203c525c9223764736f6c63430008040033",
  "devdoc": {
    "kind": "dev",
    "methods": {
      "approve(address,uint256)": {
        "details": "See {IERC721-approve}."
      },
      "balanceOf(address)": {
        "details": "See {IERC721-balanceOf}."
      },
      "getApproved(uint256)": {
        "details": "See {IERC721-getApproved}."
      },
      "isApprovedForAll(address,address)": {
        "details": "See {IERC721-isApprovedForAll}."
      },
      "name()": {
        "details": "See {IERC721Metadata-name}."
      },
      "owner()": {
        "details": "Returns the address of the current owner."
      },
      "ownerOf(uint256)": {
        "details": "See {IERC721-ownerOf}."
      },
      "renounceOwnership()": {
        "details": "Leaves the contract without owner. It will not be possible to call `onlyOwner` functions anymore. Can only be called by the current owner. NOTE: Renouncing ownership will leave the contract without an owner, thereby removing any functionality that is only available to the owner."
      },
      "safeTransferFrom(address,address,uint256)": {
        "details": "See {IERC721-safeTransferFrom}."
      },
      "safeTransferFrom(address,address,uint256,bytes)": {
        "details": "See {IERC721-safeTransferFrom}."
      },
      "setApprovalForAll(address,bool)": {
        "details": "See {IERC721-setApprovalForAll}."
      },
      "supportsInterface(bytes4)": {
        "details": "See {IERC165-supportsInterface}."
      },
      "symbol()": {
        "details": "See {IERC721Metadata-symbol}."
      },
      "tokenURI(uint256)": {
        "details": "See {IERC721Metadata-tokenURI}."
      },
      "transferFrom(address,address,uint256)": {
        "details": "See {IERC721-transferFrom}."
      },
      "transferOwnership(address)": {
        "details": "Transfers ownership of the contract to a new account (`newOwner`). Can only be called by the current owner."
      }
    },
    "version": 1
  },
  "userdoc": {
    "kind": "user",
    "methods": {
      "isTrustedForwarder(address)": {
        "notice": "return if the forwarder is trusted to forward relayed transactions to us. the forwarder is required to verify the sender's signature, and verify the call is not a replay."
      }
    },
    "version": 1
  },
  "storageLayout": {
    "storage": [
      {
        "astId": 3538,
        "contract": "contracts/ERC721LemonadeV1Forwardable.sol:ERC721LemonadeV1Forwardable",
        "label": "_name",
        "offset": 0,
        "slot": "0",
        "type": "t_string_storage"
      },
      {
        "astId": 3540,
        "contract": "contracts/ERC721LemonadeV1Forwardable.sol:ERC721LemonadeV1Forwardable",
        "label": "_symbol",
        "offset": 0,
        "slot": "1",
        "type": "t_string_storage"
      },
      {
        "astId": 3544,
        "contract": "contracts/ERC721LemonadeV1Forwardable.sol:ERC721LemonadeV1Forwardable",
        "label": "_owners",
        "offset": 0,
        "slot": "2",
        "type": "t_mapping(t_uint256,t_address)"
      },
      {
        "astId": 3548,
        "contract": "contracts/ERC721LemonadeV1Forwardable.sol:ERC721LemonadeV1Forwardable",
        "label": "_balances",
        "offset": 0,
        "slot": "3",
        "type": "t_mapping(t_address,t_uint256)"
      },
      {
        "astId": 3552,
        "contract": "contracts/ERC721LemonadeV1Forwardable.sol:ERC721LemonadeV1Forwardable",
        "label": "_tokenApprovals",
        "offset": 0,
        "slot": "4",
        "type": "t_mapping(t_uint256,t_address)"
      },
      {
        "astId": 3558,
        "contract": "contracts/ERC721LemonadeV1Forwardable.sol:ERC721LemonadeV1Forwardable",
        "label": "_operatorApprovals",
        "offset": 0,
        "slot": "5",
        "type": "t_mapping(t_address,t_mapping(t_address,t_bool))"
      },
      {
        "astId": 2726,
        "contract": "contracts/ERC721LemonadeV1Forwardable.sol:ERC721LemonadeV1Forwardable",
        "label": "_owner",
        "offset": 0,
        "slot": "6",
        "type": "t_address"
      },
      {
        "astId": 6639,
        "contract": "contracts/ERC721LemonadeV1Forwardable.sol:ERC721LemonadeV1Forwardable",
        "label": "tokenIdTracker",
        "offset": 0,
        "slot": "7",
        "type": "t_struct(Counter)4909_storage"
      },
      {
        "astId": 6643,
        "contract": "contracts/ERC721LemonadeV1Forwardable.sol:ERC721LemonadeV1Forwardable",
        "label": "tokenURIs",
        "offset": 0,
        "slot": "8",
        "type": "t_mapping(t_uint256,t_string_storage)"
      },
      {
        "astId": 6649,
        "contract": "contracts/ERC721LemonadeV1Forwardable.sol:ERC721LemonadeV1Forwardable",
        "label": "royalties",
        "offset": 0,
        "slot": "9",
        "type": "t_mapping(t_uint256,t_array(t_struct(Part)11460_storage)dyn_storage)"
      },
      {
        "astId": 11391,
        "contract": "contracts/ERC721LemonadeV1Forwardable.sol:ERC721LemonadeV1Forwardable",
        "label": "trustedForwarder",
        "offset": 0,
        "slot": "10",
        "type": "t_address"
      }
    ],
    "types": {
      "t_address": {
        "encoding": "inplace",
        "label": "address",
        "numberOfBytes": "20"
      },
      "t_address_payable": {
        "encoding": "inplace",
        "label": "address payable",
        "numberOfBytes": "20"
      },
      "t_array(t_struct(Part)11460_storage)dyn_storage": {
        "base": "t_struct(Part)11460_storage",
        "encoding": "dynamic_array",
        "label": "struct LibPart.Part[]",
        "numberOfBytes": "32"
      },
      "t_bool": {
        "encoding": "inplace",
        "label": "bool",
        "numberOfBytes": "1"
      },
      "t_mapping(t_address,t_bool)": {
        "encoding": "mapping",
        "key": "t_address",
        "label": "mapping(address => bool)",
        "numberOfBytes": "32",
        "value": "t_bool"
      },
      "t_mapping(t_address,t_mapping(t_address,t_bool))": {
        "encoding": "mapping",
        "key": "t_address",
        "label": "mapping(address => mapping(address => bool))",
        "numberOfBytes": "32",
        "value": "t_mapping(t_address,t_bool)"
      },
      "t_mapping(t_address,t_uint256)": {
        "encoding": "mapping",
        "key": "t_address",
        "label": "mapping(address => uint256)",
        "numberOfBytes": "32",
        "value": "t_uint256"
      },
      "t_mapping(t_uint256,t_address)": {
        "encoding": "mapping",
        "key": "t_uint256",
        "label": "mapping(uint256 => address)",
        "numberOfBytes": "32",
        "value": "t_address"
      },
      "t_mapping(t_uint256,t_array(t_struct(Part)11460_storage)dyn_storage)": {
        "encoding": "mapping",
        "key": "t_uint256",
        "label": "mapping(uint256 => struct LibPart.Part[])",
        "numberOfBytes": "32",
        "value": "t_array(t_struct(Part)11460_storage)dyn_storage"
      },
      "t_mapping(t_uint256,t_string_storage)": {
        "encoding": "mapping",
        "key": "t_uint256",
        "label": "mapping(uint256 => string)",
        "numberOfBytes": "32",
        "value": "t_string_storage"
      },
      "t_string_storage": {
        "encoding": "bytes",
        "label": "string",
        "numberOfBytes": "32"
      },
      "t_struct(Counter)4909_storage": {
        "encoding": "inplace",
        "label": "struct Counters.Counter",
        "members": [
          {
            "astId": 4908,
            "contract": "contracts/ERC721LemonadeV1Forwardable.sol:ERC721LemonadeV1Forwardable",
            "label": "_value",
            "offset": 0,
            "slot": "0",
            "type": "t_uint256"
          }
        ],
        "numberOfBytes": "32"
      },
      "t_struct(Part)11460_storage": {
        "encoding": "inplace",
        "label": "struct LibPart.Part",
        "members": [
          {
            "astId": 11457,
            "contract": "contracts/ERC721LemonadeV1Forwardable.sol:ERC721LemonadeV1Forwardable",
            "label": "account",
            "offset": 0,
            "slot": "0",
            "type": "t_address_payable"
          },
          {
            "astId": 11459,
            "contract": "contracts/ERC721LemonadeV1Forwardable.sol:ERC721LemonadeV1Forwardable",
            "label": "value",
            "offset": 20,
            "slot": "0",
            "type": "t_uint96"
          }
        ],
        "numberOfBytes": "32"
      },
      "t_uint256": {
        "encoding": "inplace",
        "label": "uint256",
        "numberOfBytes": "32"
      },
      "t_uint96": {
        "encoding": "inplace",
        "label": "uint96",
        "numberOfBytes": "12"
      }
    }
  }
}