{
  "address": "0x29b1aC5C0737Ddbe93e7F54780855deaD94ADa1D",
  "abi": [
    {
      "inputs": [
        {
          "internalType": "address",
          "name": "account",
          "type": "address"
        },
        {
          "internalType": "bytes4[]",
          "name": "interfaceIds",
          "type": "bytes4[]"
        }
      ],
      "name": "getSupportedInterfaces",
      "outputs": [
        {
          "internalType": "bool[]",
          "name": "",
          "type": "bool[]"
        }
      ],
      "stateMutability": "view",
      "type": "function"
    }
  ],
  "transactionHash": "0x782af334c7a791b4b3f030f4bdac4f7fb467fe96d047776cfe7ef94fe485242b",
  "args": [],
  "numDeployments": 1,
  "solcInputHash": "696da32c9e80d7de8ba64b798ee35630",
  "bytecode": "0x608060405234801561001057600080fd5b50610448806100206000396000f3fe608060405234801561001057600080fd5b506004361061002b5760003560e01c806377e6b4cc14610030575b600080fd5b61004361003e3660046102a8565b610059565b604051610050919061038f565b60405180910390f35b60606000836001600160a01b03163b116100c75760405162461bcd60e51b815260206004820152602560248201527f496e74726f7370656374696f6e3a206163636f756e74206e6f74206120636f6e6044820152641d1c9858dd60da1b606482015260840160405180910390fd5b6100da6001600160a01b038416836100e1565b9392505050565b60606000825167ffffffffffffffff81111561010d57634e487b7160e01b600052604160045260246000fd5b604051908082528060200260200182016040528015610136578160200160208202803683370190505b509050610142846101ce565b156100da5760005b83518110156101c6576101848585838151811061017757634e487b7160e01b600052603260045260246000fd5b6020026020010151610202565b8282815181106101a457634e487b7160e01b600052603260045260246000fd5b91151560209283029190910190910152806101be816103d5565b91505061014a565b509392505050565b60006101e1826301ffc9a760e01b610202565b80156101fc57506101fa826001600160e01b0319610202565b155b92915050565b604080516001600160e01b03198316602480830191909152825180830390910181526044909101909152602080820180516001600160e01b03166301ffc9a760e01b178152825160009392849283928392918391908a617530fa92503d91506000519050828015610274575060208210155b80156102805750600081115b979650505050505050565b80356001600160e01b0319811681146102a357600080fd5b919050565b600080604083850312156102ba578182fd5b82356001600160a01b03811681146102d0578283fd5b915060208381013567ffffffffffffffff808211156102ed578384fd5b818601915086601f830112610300578384fd5b813581811115610312576103126103fc565b8060051b604051601f19603f83011681018181108582111715610337576103376103fc565b604052828152858101935084860182860187018b1015610355578788fd5b8795505b8386101561037e5761036a8161028b565b855260019590950194938601938601610359565b508096505050505050509250929050565b6020808252825182820181905260009190848201906040850190845b818110156103c95783511515835292840192918401916001016103ab565b50909695505050505050565b60006000198214156103f557634e487b7160e01b81526011600452602481fd5b5060010190565b634e487b7160e01b600052604160045260246000fdfea26469706673582212203b01b8de7b6025f176c420a590d4c952574d8111b332fda18225e2670653f50964736f6c63430008040033",
  "devdoc": {
    "kind": "dev",
    "methods": {},
    "version": 1
  },
  "userdoc": {
    "kind": "user",
    "methods": {},
    "version": 1
  },
  "storageLayout": {
    "storage": [],
    "types": null
  }
}