{
  "address": "0x263dfF9528cB883cD5D44E9869b3dc89701dA418",
  "abi": [
    {
      "inputs": [
        {
          "internalType": "address",
          "name": "_initialSigner",
          "type": "address"
        }
      ],
      "stateMutability": "nonpayable",
      "type": "constructor"
    },
    {
      "anonymous": false,
      "inputs": [
        {
          "indexed": false,
          "internalType": "address",
          "name": "escrow",
          "type": "address"
        }
      ],
      "name": "EscrowCreated",
      "type": "event"
    },
    {
      "anonymous": false,
      "inputs": [
        {
          "indexed": true,
          "internalType": "address",
          "name": "previousOwner",
          "type": "address"
        },
        {
          "indexed": true,
          "internalType": "address",
          "name": "newOwner",
          "type": "address"
        }
      ],
      "name": "OwnershipTransferred",
      "type": "event"
    },
    {
      "inputs": [
        {
          "internalType": "address",
          "name": "owner",
          "type": "address"
        },
        {
          "internalType": "address[]",
          "name": "delegates",
          "type": "address[]"
        },
        {
          "internalType": "address[]",
          "name": "payees",
          "type": "address[]"
        },
        {
          "internalType": "uint256[]",
          "name": "shares",
          "type": "uint256[]"
        },
        {
          "internalType": "uint16",
          "name": "hostRefundPercent",
          "type": "uint16"
        },
        {
          "components": [
            {
              "internalType": "uint256",
              "name": "timestamp",
              "type": "uint256"
            },
            {
              "internalType": "uint16",
              "name": "percent",
              "type": "uint16"
            }
          ],
          "internalType": "struct RefundPolicy[]",
          "name": "refundPolicies",
          "type": "tuple[]"
        }
      ],
      "name": "createEscrow",
      "outputs": [],
      "stateMutability": "nonpayable",
      "type": "function"
    },
    {
      "inputs": [],
      "name": "getSigner",
      "outputs": [
        {
          "internalType": "address",
          "name": "",
          "type": "address"
        }
      ],
      "stateMutability": "view",
      "type": "function"
    },
    {
      "inputs": [],
      "name": "owner",
      "outputs": [
        {
          "internalType": "address",
          "name": "",
          "type": "address"
        }
      ],
      "stateMutability": "view",
      "type": "function"
    },
    {
      "inputs": [],
      "name": "renounceOwnership",
      "outputs": [],
      "stateMutability": "nonpayable",
      "type": "function"
    },
    {
      "inputs": [
        {
          "internalType": "address",
          "name": "signer",
          "type": "address"
        }
      ],
      "name": "setSigner",
      "outputs": [],
      "stateMutability": "nonpayable",
      "type": "function"
    },
    {
      "inputs": [
        {
          "internalType": "address",
          "name": "newOwner",
          "type": "address"
        }
      ],
      "name": "transferOwnership",
      "outputs": [],
      "stateMutability": "nonpayable",
      "type": "function"
    }
  ],
  "transactionHash": "0xe32d50b4fcd7413728ec055f7505eedff5c02e4b36dd4ba33cc43dfe3fac7698",
  "args": [
    "0xca5AD04d2b42985134BB2E85E78CA6f143787e3B"
  ],
  "numDeployments": 5,
  "solcInputHash": "095fe4007456e217387c970606c508f0",
  "bytecode": "0x608060405234801561001057600080fd5b50604051613ed9380380613ed983398101604081905261002f91610117565b61003833610047565b61004181610097565b50610145565b600080546001600160a01b038381166001600160a01b0319831681178455604051919092169283917f8be0079c531659141344cd1fd0a4f28419497f9722a3daafe3b4186f6b6457e09190a35050565b6000546001600160a01b031633146100f55760405162461bcd60e51b815260206004820181905260248201527f4f776e61626c653a2063616c6c6572206973206e6f7420746865206f776e6572604482015260640160405180910390fd5b600180546001600160a01b0319166001600160a01b0392909216919091179055565b600060208284031215610128578081fd5b81516001600160a01b038116811461013e578182fd5b9392505050565b613d85806101546000396000f3fe60806040523480156200001157600080fd5b50600436106200006a5760003560e01c80636c19e783146200006f578063715018a614620000885780637ac3c02f14620000925780638da5cb5b14620000bb578063b0bc30d314620000cd578063f2fde38b14620000e4575b600080fd5b6200008662000080366004620004c4565b620000fb565b005b6200008662000153565b6001546001600160a01b03165b6040516001600160a01b03909116815260200160405180910390f35b6000546001600160a01b03166200009f565b62000086620000de366004620004e8565b6200018e565b62000086620000f5366004620004c4565b6200021d565b6000546001600160a01b03163314620001315760405162461bcd60e51b81526004016200012890620006fe565b60405180910390fd5b600180546001600160a01b0319166001600160a01b0392909216919091179055565b6000546001600160a01b03163314620001805760405162461bcd60e51b81526004016200012890620006fe565b6200018c6000620002bf565b565b600086868686868630604051620001a5906200030f565b620001b7979695949392919062000646565b604051809103906000f080158015620001d4573d6000803e3d6000fd5b506040516001600160a01b03821681529091507fdc172423e65e4eb718110c42ad3b66ac4b0a613e4d07bfb55f2477f2d1bf34eb9060200160405180910390a150505050505050565b6000546001600160a01b031633146200024a5760405162461bcd60e51b81526004016200012890620006fe565b6001600160a01b038116620002b15760405162461bcd60e51b815260206004820152602660248201527f4f776e61626c653a206e6577206f776e657220697320746865207a65726f206160448201526564647265737360d01b606482015260840162000128565b620002bc81620002bf565b50565b600080546001600160a01b038381166001600160a01b0319831681178455604051919092169283917f8be0079c531659141344cd1fd0a4f28419497f9722a3daafe3b4186f6b6457e09190a35050565b61357f80620007d183390190565b80356001600160a01b03811681146200033557600080fd5b919050565b600082601f8301126200034b578081fd5b81356020620003646200035e8362000793565b6200075f565b80838252828201915082860187848660051b890101111562000384578586fd5b855b85811015620003ad576200039a826200031d565b8452928401929084019060010162000386565b5090979650505050505050565b600082601f830112620003cb578081fd5b81356020620003de6200035e8362000793565b80838252828201915082860187848660061b8901011115620003fe578586fd5b855b85811015620003ad57604080838b0312156200041a578788fd5b6200042462000733565b8335815262000435878501620004b1565b81880152855293850193919091019060010162000400565b600082601f8301126200045e578081fd5b81356020620004716200035e8362000793565b80838252828201915082860187848660051b890101111562000491578586fd5b855b85811015620003ad5781358452928401929084019060010162000493565b803561ffff811681146200033557600080fd5b600060208284031215620004d6578081fd5b620004e1826200031d565b9392505050565b60008060008060008060c0878903121562000501578182fd5b6200050c876200031d565b9550602087013567ffffffffffffffff8082111562000529578384fd5b620005378a838b016200033a565b965060408901359150808211156200054d578384fd5b6200055b8a838b016200033a565b9550606089013591508082111562000571578384fd5b6200057f8a838b016200044d565b94506200058f60808a01620004b1565b935060a0890135915080821115620005a5578283fd5b50620005b489828a01620003ba565b9150509295509295509295565b6000815180845260208085019450808401835b83811015620005fb5781516001600160a01b031687529582019590820190600101620005d4565b509495945050505050565b6000815180845260208085019450808401835b83811015620005fb5781518051885283015161ffff16838801526040909601959082019060010162000619565b6001600160a01b038816815260e060208083018290526000916200066d9084018a620005c1565b838103604085015262000681818a620005c1565b84810360608601528851808252838a01925090830190845b81811015620006b75783518352928401929184019160010162000699565b505061ffff8816608086015284810360a0860152620006d7818862000606565b9350505050620006f260c08301846001600160a01b03169052565b98975050505050505050565b6020808252818101527f4f776e61626c653a2063616c6c6572206973206e6f7420746865206f776e6572604082015260600190565b6040805190810167ffffffffffffffff81118282101715620007595762000759620007ba565b60405290565b604051601f8201601f1916810167ffffffffffffffff811182821017156200078b576200078b620007ba565b604052919050565b600067ffffffffffffffff821115620007b057620007b0620007ba565b5060051b60200190565b634e487b7160e01b600052604160045260246000fdfe60806040523480156200001157600080fd5b506040516200357f3803806200357f8339810160408190526200003491620009ed565b84848051825114620000a85760405162461bcd60e51b815260206004820152603260248201527f5061796d656e7453706c69747465723a2070617965657320616e6420736861726044820152710cae640d8cadccee8d040dad2e6dac2e8c6d60731b60648201526084015b60405180910390fd5b6000825111620000fb5760405162461bcd60e51b815260206004820152601a60248201527f5061796d656e7453706c69747465723a206e6f2070617965657300000000000060448201526064016200009f565b60005b82518110156200017f576200016a8382815181106200012d57634e487b7160e01b600052603260045260246000fd5b60200260200101518383815181106200015657634e487b7160e01b600052603260045260246000fd5b6020026020010151620004d260201b60201c565b80620001768162000b79565b915050620000fe565b50505060648361ffff161115620001a957604051631fd655cd60e11b815260040160405180910390fd5b6009805462ffff00191661010061ffff861602179055815160018114156200026757600083600081518110620001ef57634e487b7160e01b600052603260045260246000fd5b602002602001015190506200020a81620006be60201b60201c565b600a805460018101825560009190915281516000805160206200353f8339815191526002909202918201556020909101516000805160206200351f833981519152909101805461ffff191661ffff90921691909117905562000419565b600181111562000419576040805180820190915260008082526020820152604080518082019091526000808252602082015284600081518110620002bb57634e487b7160e01b600052603260045260246000fd5b60200260200101519050620002d681620006be60201b60201c565b600a80546001808201835560009290925282516000805160206200353f83398151915260029092029182015560208301516000805160206200351f833981519152909101805461ffff191661ffff9092169190911790555b8381101562000415578192508581815181106200035b57634e487b7160e01b600052603260045260246000fd5b60200260200101519150816000015183600001511015806200038d5750816020015161ffff16836020015161ffff1611155b15620003ac57604051638ebf7c8f60e01b815260040160405180910390fd5b620003b782620006be565b600a80546001808201835560009290925283516000805160206200353f83398151915260029092029182015560208401516000805160206200351f833981519152909101805461ffff191661ffff909216919091179055016200032e565b5050505b62000426600089620006ec565b620004416000805160206200355f83398151915289620006ec565b865160005b81811015620004a157620004986000805160206200355f8339815191528a83815181106200048457634e487b7160e01b600052603260045260246000fd5b6020026020010151620006ec60201b60201c565b60010162000446565b5050600d80546001600160a01b0319166001600160a01b0393909316929092179091555062000bc395505050505050565b6001600160a01b0382166200053f5760405162461bcd60e51b815260206004820152602c60248201527f5061796d656e7453706c69747465723a206163636f756e74206973207468652060448201526b7a65726f206164647265737360a01b60648201526084016200009f565b60008111620005915760405162461bcd60e51b815260206004820152601d60248201527f5061796d656e7453706c69747465723a2073686172657320617265203000000060448201526064016200009f565b6001600160a01b038216600090815260026020526040902054156200060d5760405162461bcd60e51b815260206004820152602b60248201527f5061796d656e7453706c69747465723a206163636f756e7420616c726561647960448201526a206861732073686172657360a81b60648201526084016200009f565b60048054600181019091557f8a35acfbc15ff81a39ae7d344fd709f28e8600b4aa8c65c6b64bfe7fe36bd19b0180546001600160a01b0319166001600160a01b0384169081179091556000908152600260205260408120829055546200067590829062000b5e565b600055604080516001600160a01b0384168152602081018390527f40c340f65e17194d14ddddb073d3c9f888e3cb52b5aae0c6c7706b4fbc905fac910160405180910390a15050565b6064816020015161ffff161115620006e9576040516324999a8f60e21b815260040160405180910390fd5b50565b6200070382826200072f60201b6200124b1760201c565b60008281526008602090815260409091206200072a918390620012d1620007d4821b17901c565b505050565b60008281526007602090815260408083206001600160a01b038516845290915290205460ff16620007d05760008281526007602090815260408083206001600160a01b03851684529091529020805460ff191660011790556200078f3390565b6001600160a01b0316816001600160a01b0316837f2f8788117e7eff1d82e926ec794901d17c78024a50270940304540a733656f0d60405160405180910390a45b5050565b6000620007eb836001600160a01b038416620007f4565b90505b92915050565b60008181526001830160205260408120546200083d57508154600181810184556000848152602080822090930184905584548482528286019093526040902091909155620007ee565b506000620007ee565b80516001600160a01b03811681146200085e57600080fd5b919050565b600082601f83011262000874578081fd5b815160206200088d620008878362000b38565b62000b05565b80838252828201915082860187848660051b8901011115620008ad578586fd5b855b85811015620008d657620008c38262000846565b84529284019290840190600101620008af565b5090979650505050505050565b600082601f830112620008f4578081fd5b8151602062000907620008878362000b38565b80838252828201915082860187848660061b890101111562000927578586fd5b855b85811015620008d657604080838b03121562000943578788fd5b6200094d62000ada565b835181526200095e878501620009da565b81880152855293850193919091019060010162000929565b600082601f83011262000987578081fd5b815160206200099a620008878362000b38565b80838252828201915082860187848660051b8901011115620009ba578586fd5b855b85811015620008d657815184529284019290840190600101620009bc565b805161ffff811681146200085e57600080fd5b600080600080600080600060e0888a03121562000a08578283fd5b62000a138862000846565b60208901519097506001600160401b038082111562000a30578485fd5b62000a3e8b838c0162000863565b975060408a015191508082111562000a54578485fd5b62000a628b838c0162000863565b965060608a015191508082111562000a78578485fd5b62000a868b838c0162000976565b955062000a9660808b01620009da565b945060a08a015191508082111562000aac578384fd5b5062000abb8a828b01620008e3565b92505062000acc60c0890162000846565b905092959891949750929550565b604080519081016001600160401b038111828210171562000aff5762000aff62000bad565b60405290565b604051601f8201601f191681016001600160401b038111828210171562000b305762000b3062000bad565b604052919050565b60006001600160401b0382111562000b545762000b5462000bad565b5060051b60200190565b6000821982111562000b745762000b7462000b97565b500190565b600060001982141562000b905762000b9062000b97565b5060010190565b634e487b7160e01b600052601160045260246000fd5b634e487b7160e01b600052604160045260246000fd5b61294c8062000bd36000396000f3fe6080604052600436106101bb5760003560e01c80638b83209b116100ec578063ca15c8731161008a578063d547741f11610064578063d547741f14610596578063d79779b2146105b6578063e33b7de3146105ec578063fab480f41461060157600080fd5b8063ca15c87314610520578063ce7c2ac214610540578063d2fd101b1461057657600080fd5b80639852595c116100c65780639852595c146104ad578063a217fddf146104e3578063bc157ac1146104f8578063c163de3d1461050b57600080fd5b80638b83209b146104355780639010d07c1461046d57806391d148541461048d57600080fd5b806336568abe1161015957806340e58ee51161013357806340e58ee5146103b957806348b75044146103d9578063597e1fb5146103f9578063700d4aec1461041357600080fd5b806336568abe1461033e5780633a98ef391461035e578063406072a91461037357600080fd5b80631916558711610195578063191655871461029e578063245a91a3146102c0578063248a9ca3146102e05780632f2ff15d1461031e57600080fd5b806301ffc9a714610209578063085c967f1461023e578063129f33171461026b57600080fd5b36610204577f6ef95f06320e7a25a04a175ca677b7052bdd97131872c2192525a629f51be77033604080516001600160a01b0390921682523460208301520160405180910390a1005b600080fd5b34801561021557600080fd5b50610229610224366004612498565b610621565b60405190151581526020015b60405180910390f35b34801561024a57600080fd5b5061025e610259366004612430565b61064c565b604051610235919061269f565b34801561027757600080fd5b5060095461028b90610100900461ffff1681565b60405161ffff9091168152602001610235565b3480156102aa57600080fd5b506102be6102b93660046123d8565b6106d4565b005b3480156102cc57600080fd5b506102296102db366004612430565b61080b565b3480156102ec57600080fd5b506103106102fb366004612430565b60009081526007602052604090206001015490565b604051908152602001610235565b34801561032a57600080fd5b506102be610339366004612448565b610830565b34801561034a57600080fd5b506102be610359366004612448565b61085a565b34801561036a57600080fd5b50600054610310565b34801561037f57600080fd5b5061031061038e3660046124c0565b6001600160a01b03918216600090815260066020908152604080832093909416825291909152205490565b3480156103c557600080fd5b506102be6103d4366004612430565b6108d8565b3480156103e557600080fd5b506102be6103f43660046124c0565b61097e565b34801561040557600080fd5b506009546102299060ff1681565b34801561041f57600080fd5b50610428610b66565b60405161023591906126f7565b34801561044157600080fd5b50610455610450366004612430565b610c90565b6040516001600160a01b039091168152602001610235565b34801561047957600080fd5b50610455610488366004612477565b610cce565b34801561049957600080fd5b506102296104a8366004612448565b610ced565b3480156104b957600080fd5b506103106104c83660046123d8565b6001600160a01b031660009081526003602052604090205490565b3480156104ef57600080fd5b50610310600081565b6102be610506366004612505565b610d18565b34801561051757600080fd5b506102be610f1b565b34801561052c57600080fd5b5061031061053b366004612430565b610fbe565b34801561054c57600080fd5b5061031061055b3660046123d8565b6001600160a01b031660009081526002602052604090205490565b34801561058257600080fd5b506102be61059136600461253c565b610fd5565b3480156105a257600080fd5b506102be6105b1366004612448565b611096565b3480156105c257600080fd5b506103106105d13660046123d8565b6001600160a01b031660009081526005602052604090205490565b3480156105f857600080fd5b50600154610310565b34801561060d57600080fd5b506102be61061c36600461253c565b6110bb565b60006001600160e01b03198216635a05180f60e01b14806106465750610646826112e6565b92915050565b6060600c6000838152602001908152602001600020805480602002602001604051908101604052809291908181526020016000905b828210156106c9576000848152602090819020604080518082019091526002850290910180546001600160a01b03168252600190810154828401529083529092019101610681565b505050509050919050565b6001600160a01b0381166000908152600260205260409020546107125760405162461bcd60e51b815260040161070990612770565b60405180910390fd5b600061071d60015490565b6107279047612801565b90506000610754838361074f866001600160a01b031660009081526003602052604090205490565b61131b565b9050806107735760405162461bcd60e51b8152600401610709906127b6565b6001600160a01b0383166000908152600360205260408120805483929061079b908490612801565b9250508190555080600160008282546107b49190612801565b909155506107c49050838261135e565b604080516001600160a01b0385168152602081018390527fdf20fd1e76bc69d672e4814fafb2c449bba3a5369d8359adf9e05e6fde87b056910160405180910390a1505050565b60095460009060ff16806106465750506000908152600b602052604090205460ff1690565b60008281526007602052604090206001015461084b81611477565b6108558383611484565b505050565b6001600160a01b03811633146108ca5760405162461bcd60e51b815260206004820152602f60248201527f416363657373436f6e74726f6c3a2063616e206f6e6c792072656e6f756e636560448201526e103937b632b9903337b91039b2b63360891b6064820152608401610709565b6108d482826114a6565b5050565b6109027fb012ba8c7281edbf1d476d7a0eccd3cb202b439a7f0a8f6c574f02e5df5c10b133610ced565b61091f57604051634ca8886760e01b815260040160405180910390fd5b6000818152600b6020526040808220805460ff19166001179055517f3fdad7f8cdfcd1b65d4d09d35f3a990abd6d5cf186ba129cfb4abbf332cf961b91610973918491909182521515602082015260400190565b60405180910390a150565b6001600160a01b0381166000908152600260205260409020546109b35760405162461bcd60e51b815260040161070990612770565b6001600160a01b0382166000908152600560205260408120546040516370a0823160e01b81523060048201526001600160a01b038516906370a082319060240160206040518083038186803b158015610a0b57600080fd5b505afa158015610a1f573d6000803e3d6000fd5b505050506040513d601f19601f82011682018060405250810190610a4391906124ed565b610a4d9190612801565b90506000610a86838361074f87876001600160a01b03918216600090815260066020908152604080832093909416825291909152205490565b905080610aa55760405162461bcd60e51b8152600401610709906127b6565b6001600160a01b03808516600090815260066020908152604080832093871683529290529081208054839290610adc908490612801565b90915550506001600160a01b03841660009081526005602052604081208054839290610b09908490612801565b90915550610b1a90508484836114c8565b604080516001600160a01b038581168252602082018490528616917f3be5b7a71e84ed12875d241991c70855ac5817d847039e17a9d895c1ceb0f18a910160405180910390a250505050565b600a5460609060008167ffffffffffffffff811115610b9557634e487b7160e01b600052604160045260246000fd5b604051908082528060200260200182016040528015610bda57816020015b6040805180820190915260008082526020820152815260200190600190039081610bb35790505b50905060005b82811015610c89576000600a8281548110610c0b57634e487b7160e01b600052603260045260246000fd5b60009182526020918290206040805180820182526002909302909101805483526001015461ffff9081168385019081528251808401909352835183525116928101929092528451909250849084908110610c7557634e487b7160e01b600052603260045260246000fd5b602090810291909101015250600101610be0565b5092915050565b600060048281548110610cb357634e487b7160e01b600052603260045260246000fd5b6000918252602090912001546001600160a01b031692915050565b6000828152600860205260408120610ce6908361151a565b9392505050565b60009182526007602090815260408084206001600160a01b0393909316845291905290205460ff1690565b60095460ff1615610d3c57604051638819799d60e01b815260040160405180910390fd5b3481610d5b5760405163162908e360e11b815260040160405180910390fd5b6000848152600b602052604090205460ff1615610d8b5760405163b8f8d1f760e01b815260040160405180910390fd5b6001600160a01b038316158015908190610da457508115155b80610db8575080158015610db85750828214155b15610dd65760405163fe9ba5cd60e01b815260040160405180910390fd5b338115610e67576040516323b872dd60e01b81526001600160a01b038281166004830152306024830152604482018690528616906323b872dd90606401602060405180830381600087803b158015610e2d57600080fd5b505af1158015610e41573d6000803e3d6000fd5b505050506040513d601f19601f82011682018060405250810190610e659190612410565b505b6000868152600c60209081526040808320815180830183526001600160a01b038a81168083528286018b8152845460018082018755958952978790209351600290980290930180546001600160a01b0319169783169790971787559151959092019490945581519085168152918201899052810191909152606081018590527fde50620a8362ed2d89afd08b856fe6db50ad03c096d5f6e10a7ce71ee5359de39060800160405180910390a1505050505050565b610f457fb012ba8c7281edbf1d476d7a0eccd3cb202b439a7f0a8f6c574f02e5df5c10b133610ced565b610f6257604051634ca8886760e01b815260040160405180910390fd5b60095460ff1615610f8657604051638819799d60e01b815260040160405180910390fd5b6009805460ff191660011790556040517fc67401958d8f4f70d6e5fb87c0190c6f0df5a05a8926d934f81c7491e7402f4790600090a1565b600081815260086020526040812061064690611526565b33610fdf8461080b565b610ffc576040516332d6d8f560e21b815260040160405180910390fd5b61104e8185600960019054906101000a900461ffff1686868080601f01602080910402602001604051908101604052809392919081815260200183838082843760009201919091525061153092505050565b604080516001600160a01b0383168152602081018690527fe6cdcbc54159ba58a71f3aae716b81d82506c6fc76a7383e605e7e365d834425910160405180910390a150505050565b6000828152600760205260409020600101546110b181611477565b61085583836114a6565b60095460ff16156110df57604051638819799d60e01b815260040160405180910390fd5b6000838152600b602052604090205460ff161561110f5760405163b8f8d1f760e01b815260040160405180910390fd5b600a54600090815b818110156111a9576000600a826001600a80549050611136919061284c565b611140919061284c565b8154811061115e57634e487b7160e01b600052603260045260246000fd5b600091825260209182902060408051808201909152600290920201805480835260019091015461ffff169282019290925291504210156111a057806020015193505b50600101611117565b506000858152600b60205260409020805460ff1916600117905561120b6111cd3390565b868487878080601f01602080910402602001604051908101604052809392919081815260200183838082843760009201919091525061153092505050565b60408051868152600160208201527f3fdad7f8cdfcd1b65d4d09d35f3a990abd6d5cf186ba129cfb4abbf332cf961b910160405180910390a15050505050565b6112558282610ced565b6108d45760008281526007602090815260408083206001600160a01b03851684529091529020805460ff1916600117905561128d3390565b6001600160a01b0316816001600160a01b0316837f2f8788117e7eff1d82e926ec794901d17c78024a50270940304540a733656f0d60405160405180910390a45050565b6000610ce6836001600160a01b0384166116db565b60006001600160e01b03198216637965db0b60e01b148061064657506301ffc9a760e01b6001600160e01b0319831614610646565b600080546001600160a01b038516825260026020526040822054839190611342908661282d565b61134c9190612819565b611356919061284c565b949350505050565b804710156113ae5760405162461bcd60e51b815260206004820152601d60248201527f416464726573733a20696e73756666696369656e742062616c616e63650000006044820152606401610709565b6000826001600160a01b03168260405160006040518083038185875af1925050503d80600081146113fb576040519150601f19603f3d011682016040523d82523d6000602084013e611400565b606091505b50509050806108555760405162461bcd60e51b815260206004820152603a60248201527f416464726573733a20756e61626c6520746f2073656e642076616c75652c207260448201527f6563697069656e74206d617920686176652072657665727465640000000000006064820152608401610709565b611481813361172a565b50565b61148e828261124b565b600082815260086020526040902061085590826112d1565b6114b0828261178e565b600082815260086020526040902061085590826117f5565b604080516001600160a01b038416602482015260448082018490528251808303909101815260649091019091526020810180516001600160e01b031663a9059cbb60e01b17905261085590849061180a565b6000610ce683836118dc565b6000610646825490565b61153a8382611914565b61ffff8216611548576116d5565b60006115538461064c565b90508051600014156115785760405163d1dafa8560e01b815260040160405180910390fd5b6000848152600c6020526040812061158f91612392565b805160005b818161ffff1610156116d1576000838261ffff16815181106115c657634e487b7160e01b600052603260045260246000fd5b60200260200101519050600060648761ffff1683602001516115e8919061282d565b6115f29190612819565b82519091506001600160a01b0316611640576040516001600160a01b038a169082156108fc029083906000818181858888f1935050505015801561163a573d6000803e3d6000fd5b506116c7565b815160405163a9059cbb60e01b81526001600160a01b038b81166004830152602482018490529091169063a9059cbb90604401602060405180830381600087803b15801561168d57600080fd5b505af11580156116a1573d6000803e3d6000fd5b505050506040513d601f19601f820116820180604052508101906116c59190612410565b505b5050600101611594565b5050505b50505050565b600081815260018301602052604081205461172257508154600181810184556000848152602080822090930184905584548482528286019093526040902091909155610646565b506000610646565b6117348282610ced565b6108d45761174c816001600160a01b03166014611a0a565b611757836020611a0a565b60405160200161176892919061262a565b60408051601f198184030181529082905262461bcd60e51b82526107099160040161273d565b6117988282610ced565b156108d45760008281526007602090815260408083206001600160a01b0385168085529252808320805460ff1916905551339285917ff6391f5c32d9c69d2a47ea670b442974b53935d1edc7fd64eb21e047a839171b9190a45050565b6000610ce6836001600160a01b038416611bec565b600061185f826040518060400160405280602081526020017f5361666545524332303a206c6f772d6c6576656c2063616c6c206661696c6564815250856001600160a01b0316611d099092919063ffffffff16565b805190915015610855578080602001905181019061187d9190612410565b6108555760405162461bcd60e51b815260206004820152602a60248201527f5361666545524332303a204552433230206f7065726174696f6e20646964206e6044820152691bdd081cdd58d8d9595960b21b6064820152608401610709565b600082600001828154811061190157634e487b7160e01b600052603260045260246000fd5b9060005260206000200154905092915050565b600061194a826119448560405160200161193091815260200190565b604051602081830303815290604052611d18565b90611d53565b90506000600d60009054906101000a90046001600160a01b03166001600160a01b0316637ac3c02f6040518163ffffffff1660e01b8152600401602060405180830381600087803b15801561199e57600080fd5b505af11580156119b2573d6000803e3d6000fd5b505050506040513d601f19601f820116820180604052508101906119d691906123f4565b9050806001600160a01b0316826001600160a01b0316146116d557604051632057875960e21b815260040160405180910390fd5b60606000611a1983600261282d565b611a24906002612801565b67ffffffffffffffff811115611a4a57634e487b7160e01b600052604160045260246000fd5b6040519080825280601f01601f191660200182016040528015611a74576020820181803683370190505b509050600360fc1b81600081518110611a9d57634e487b7160e01b600052603260045260246000fd5b60200101906001600160f81b031916908160001a905350600f60fb1b81600181518110611ada57634e487b7160e01b600052603260045260246000fd5b60200101906001600160f81b031916908160001a9053506000611afe84600261282d565b611b09906001612801565b90505b6001811115611b9d576f181899199a1a9b1b9c1cb0b131b232b360811b85600f1660108110611b4b57634e487b7160e01b600052603260045260246000fd5b1a60f81b828281518110611b6f57634e487b7160e01b600052603260045260246000fd5b60200101906001600160f81b031916908160001a90535060049490941c93611b968161288f565b9050611b0c565b508315610ce65760405162461bcd60e51b815260206004820181905260248201527f537472696e67733a20686578206c656e67746820696e73756666696369656e746044820152606401610709565b60008181526001830160205260408120548015611cff576000611c1060018361284c565b8554909150600090611c249060019061284c565b9050818114611ca5576000866000018281548110611c5257634e487b7160e01b600052603260045260246000fd5b9060005260206000200154905080876000018481548110611c8357634e487b7160e01b600052603260045260246000fd5b6000918252602080832090910192909255918252600188019052604090208390555b8554869080611cc457634e487b7160e01b600052603160045260246000fd5b600190038181906000526020600020016000905590558560010160008681526020019081526020016000206000905560019350505050610646565b6000915050610646565b60606113568484600085611d77565b6000611d248251611ea8565b82604051602001611d369291906125cf565b604051602081830303815290604052805190602001209050919050565b6000806000611d628585611fc2565b91509150611d6f81612032565b509392505050565b606082471015611dd85760405162461bcd60e51b815260206004820152602660248201527f416464726573733a20696e73756666696369656e742062616c616e636520666f6044820152651c8818d85b1b60d21b6064820152608401610709565b6001600160a01b0385163b611e2f5760405162461bcd60e51b815260206004820152601d60248201527f416464726573733a2063616c6c20746f206e6f6e2d636f6e74726163740000006044820152606401610709565b600080866001600160a01b03168587604051611e4b91906125b3565b60006040518083038185875af1925050503d8060008114611e88576040519150601f19603f3d011682016040523d82523d6000602084013e611e8d565b606091505b5091509150611e9d828286612233565b979650505050505050565b606081611ecc5750506040805180820190915260018152600360fc1b602082015290565b8160005b8115611ef65780611ee0816128a6565b9150611eef9050600a83612819565b9150611ed0565b60008167ffffffffffffffff811115611f1f57634e487b7160e01b600052604160045260246000fd5b6040519080825280601f01601f191660200182016040528015611f49576020820181803683370190505b5090505b841561135657611f5e60018361284c565b9150611f6b600a866128c1565b611f76906030612801565b60f81b818381518110611f9957634e487b7160e01b600052603260045260246000fd5b60200101906001600160f81b031916908160001a905350611fbb600a86612819565b9450611f4d565b600080825160411415611ff95760208301516040840151606085015160001a611fed8782858561226c565b9450945050505061202b565b8251604014156120235760208301516040840151612018868383612359565b93509350505061202b565b506000905060025b9250929050565b600081600481111561205457634e487b7160e01b600052602160045260246000fd5b141561205d5750565b600181600481111561207f57634e487b7160e01b600052602160045260246000fd5b14156120cd5760405162461bcd60e51b815260206004820152601860248201527f45434453413a20696e76616c6964207369676e617475726500000000000000006044820152606401610709565b60028160048111156120ef57634e487b7160e01b600052602160045260246000fd5b141561213d5760405162461bcd60e51b815260206004820152601f60248201527f45434453413a20696e76616c6964207369676e6174757265206c656e677468006044820152606401610709565b600381600481111561215f57634e487b7160e01b600052602160045260246000fd5b14156121b85760405162461bcd60e51b815260206004820152602260248201527f45434453413a20696e76616c6964207369676e6174757265202773272076616c604482015261756560f01b6064820152608401610709565b60048160048111156121da57634e487b7160e01b600052602160045260246000fd5b14156114815760405162461bcd60e51b815260206004820152602260248201527f45434453413a20696e76616c6964207369676e6174757265202776272076616c604482015261756560f01b6064820152608401610709565b60608315612242575081610ce6565b8251156122525782518084602001fd5b8160405162461bcd60e51b8152600401610709919061273d565b6000807f7fffffffffffffffffffffffffffffff5d576e7357a4501ddfe92f46681b20a08311156122a35750600090506003612350565b8460ff16601b141580156122bb57508460ff16601c14155b156122cc5750600090506004612350565b6040805160008082526020820180845289905260ff881692820192909252606081018690526080810185905260019060a0016020604051602081039080840390855afa158015612320573d6000803e3d6000fd5b5050604051601f1901519150506001600160a01b03811661234957600060019250925050612350565b9150600090505b94509492505050565b6000806001600160ff1b0383168161237660ff86901c601b612801565b90506123848782888561226c565b935093505050935093915050565b508054600082556002029060005260206000209081019061148191905b808211156123d45780546001600160a01b0319168155600060018201556002016123af565b5090565b6000602082840312156123e9578081fd5b8135610ce681612901565b600060208284031215612405578081fd5b8151610ce681612901565b600060208284031215612421578081fd5b81518015158114610ce6578182fd5b600060208284031215612441578081fd5b5035919050565b6000806040838503121561245a578081fd5b82359150602083013561246c81612901565b809150509250929050565b60008060408385031215612489578182fd5b50508035926020909101359150565b6000602082840312156124a9578081fd5b81356001600160e01b031981168114610ce6578182fd5b600080604083850312156124d2578182fd5b82356124dd81612901565b9150602083013561246c81612901565b6000602082840312156124fe578081fd5b5051919050565b600080600060608486031215612519578081fd5b83359250602084013561252b81612901565b929592945050506040919091013590565b600080600060408486031215612550578283fd5b83359250602084013567ffffffffffffffff8082111561256e578384fd5b818601915086601f830112612581578384fd5b81358181111561258f578485fd5b8760208285010111156125a0578485fd5b6020830194508093505050509250925092565b600082516125c5818460208701612863565b9190910192915050565b7f19457468657265756d205369676e6564204d6573736167653a0a00000000000081526000835161260781601a850160208801612863565b83519083019061261e81601a840160208801612863565b01601a01949350505050565b7f416363657373436f6e74726f6c3a206163636f756e7420000000000000000000815260008351612662816017850160208801612863565b7001034b99036b4b9b9b4b733903937b6329607d1b6017918401918201528351612693816028840160208801612863565b01602801949350505050565b602080825282518282018190526000919060409081850190868401855b828110156126ea57815180516001600160a01b031685528601518685015292840192908501906001016126bc565b5091979650505050505050565b602080825282518282018190526000919060409081850190868401855b828110156126ea5781518051855286015161ffff16868501529284019290850190600101612714565b602081526000825180602084015261275c816040850160208701612863565b601f01601f19169190910160400192915050565b60208082526026908201527f5061796d656e7453706c69747465723a206163636f756e7420686173206e6f2060408201526573686172657360d01b606082015260800190565b6020808252602b908201527f5061796d656e7453706c69747465723a206163636f756e74206973206e6f742060408201526a191d59481c185e5b595b9d60aa1b606082015260800190565b60008219821115612814576128146128d5565b500190565b600082612828576128286128eb565b500490565b6000816000190483118215151615612847576128476128d5565b500290565b60008282101561285e5761285e6128d5565b500390565b60005b8381101561287e578181015183820152602001612866565b838111156116d55750506000910152565b60008161289e5761289e6128d5565b506000190190565b60006000198214156128ba576128ba6128d5565b5060010190565b6000826128d0576128d06128eb565b500690565b634e487b7160e01b600052601160045260246000fd5b634e487b7160e01b600052601260045260246000fd5b6001600160a01b038116811461148157600080fdfea2646970667358221220a04dc1aa2052fce0e63a21a7a6576b1cdb62c9edcaf4b5d16b613df30f73a35364736f6c63430008040033c65a7bb8d6351c1cf70c95a316cc6a92839c986682d98bc35f958f4883f9d2a9c65a7bb8d6351c1cf70c95a316cc6a92839c986682d98bc35f958f4883f9d2a8b012ba8c7281edbf1d476d7a0eccd3cb202b439a7f0a8f6c574f02e5df5c10b1a2646970667358221220d9dccfacad6ec367e3319e819d959fff53b6435068a0d1e33838e495a758e67764736f6c63430008040033",
  "devdoc": {
    "kind": "dev",
    "methods": {
      "owner()": {
        "details": "Returns the address of the current owner."
      },
      "renounceOwnership()": {
        "details": "Leaves the contract without owner. It will not be possible to call `onlyOwner` functions anymore. Can only be called by the current owner. NOTE: Renouncing ownership will leave the contract without an owner, thereby removing any functionality that is only available to the owner."
      },
      "transferOwnership(address)": {
        "details": "Transfers ownership of the contract to a new account (`newOwner`). Can only be called by the current owner."
      }
    },
    "version": 1
  },
  "userdoc": {
    "kind": "user",
    "methods": {},
    "version": 1
  },
  "storageLayout": {
    "storage": [
      {
        "astId": 550,
        "contract": "contracts/escrow/LemonadeEscrowFactoryV1.sol:LemonadeEscrowFactoryV1",
        "label": "_owner",
        "offset": 0,
        "slot": "0",
        "type": "t_address"
      },
      {
        "astId": 3093,
        "contract": "contracts/escrow/LemonadeEscrowFactoryV1.sol:LemonadeEscrowFactoryV1",
        "label": "_signer",
        "offset": 0,
        "slot": "1",
        "type": "t_address"
      }
    ],
    "types": {
      "t_address": {
        "encoding": "inplace",
        "label": "address",
        "numberOfBytes": "20"
      }
    }
  }
}