{
  "address": "0xcE48c65AF441a3fD9be7890DA017276aCC73c307",
  "abi": [
    {
      "inputs": [
        {
          "internalType": "address",
          "name": "initialSigner",
          "type": "address"
        },
        {
          "internalType": "address",
          "name": "initialFeeCollector",
          "type": "address"
        },
        {
          "internalType": "uint256",
          "name": "initialFeeAmount",
          "type": "uint256"
        }
      ],
      "stateMutability": "nonpayable",
      "type": "constructor"
    },
    {
      "inputs": [],
      "name": "CannotPayFee",
      "type": "error"
    },
    {
      "anonymous": false,
      "inputs": [
        {
          "indexed": false,
          "internalType": "address",
          "name": "escrow",
          "type": "address"
        }
      ],
      "name": "EscrowCreated",
      "type": "event"
    },
    {
      "anonymous": false,
      "inputs": [
        {
          "indexed": true,
          "internalType": "address",
          "name": "previousOwner",
          "type": "address"
        },
        {
          "indexed": true,
          "internalType": "address",
          "name": "newOwner",
          "type": "address"
        }
      ],
      "name": "OwnershipTransferred",
      "type": "event"
    },
    {
      "inputs": [],
      "name": "_signer",
      "outputs": [
        {
          "internalType": "address",
          "name": "",
          "type": "address"
        }
      ],
      "stateMutability": "view",
      "type": "function"
    },
    {
      "inputs": [
        {
          "internalType": "address",
          "name": "owner",
          "type": "address"
        },
        {
          "internalType": "address[]",
          "name": "delegates",
          "type": "address[]"
        },
        {
          "internalType": "address[]",
          "name": "payees",
          "type": "address[]"
        },
        {
          "internalType": "uint256[]",
          "name": "shares",
          "type": "uint256[]"
        },
        {
          "internalType": "uint16",
          "name": "hostRefundPercent",
          "type": "uint16"
        },
        {
          "components": [
            {
              "internalType": "uint256",
              "name": "timestamp",
              "type": "uint256"
            },
            {
              "internalType": "uint16",
              "name": "percent",
              "type": "uint16"
            }
          ],
          "internalType": "struct RefundPolicy[]",
          "name": "refundPolicies",
          "type": "tuple[]"
        }
      ],
      "name": "createEscrow",
      "outputs": [],
      "stateMutability": "payable",
      "type": "function"
    },
    {
      "inputs": [],
      "name": "getSigner",
      "outputs": [
        {
          "internalType": "address",
          "name": "",
          "type": "address"
        }
      ],
      "stateMutability": "view",
      "type": "function"
    },
    {
      "inputs": [],
      "name": "owner",
      "outputs": [
        {
          "internalType": "address",
          "name": "",
          "type": "address"
        }
      ],
      "stateMutability": "view",
      "type": "function"
    },
    {
      "inputs": [],
      "name": "renounceOwnership",
      "outputs": [],
      "stateMutability": "nonpayable",
      "type": "function"
    },
    {
      "inputs": [
        {
          "internalType": "uint256",
          "name": "feeAmount",
          "type": "uint256"
        }
      ],
      "name": "setFeeAmount",
      "outputs": [],
      "stateMutability": "nonpayable",
      "type": "function"
    },
    {
      "inputs": [
        {
          "internalType": "address",
          "name": "feeCollector",
          "type": "address"
        }
      ],
      "name": "setFeeCollector",
      "outputs": [],
      "stateMutability": "nonpayable",
      "type": "function"
    },
    {
      "inputs": [
        {
          "internalType": "address",
          "name": "signer",
          "type": "address"
        }
      ],
      "name": "setSigner",
      "outputs": [],
      "stateMutability": "nonpayable",
      "type": "function"
    },
    {
      "inputs": [
        {
          "internalType": "address",
          "name": "newOwner",
          "type": "address"
        }
      ],
      "name": "transferOwnership",
      "outputs": [],
      "stateMutability": "nonpayable",
      "type": "function"
    }
  ],
  "transactionHash": "0xe77fc026812e5f5d1c46e4e4a8aa0d0f1a40e4f1e7ffa55d16a0f4f4b02d03d4",
  "args": [
    "0xca5AD04d2b42985134BB2E85E78CA6f143787e3B",
    "0xca5AD04d2b42985134BB2E85E78CA6f143787e3B",
    0
  ],
  "numDeployments": 10,
  "solcInputHash": "8570d76eecadccfea1f7a4aaf3a31427",
  "bytecode": "0x60806040523480156200001157600080fd5b5060405162004ec538038062004ec5833981016040819052620000349162000204565b6200003f3362000069565b6200004a83620000b9565b62000055826200012a565b620000608162000197565b50505062000244565b600080546001600160a01b038381166001600160a01b0319831681178455604051919092169283917f8be0079c531659141344cd1fd0a4f28419497f9722a3daafe3b4186f6b6457e09190a35050565b6000546001600160a01b03163314620001085760405162461bcd60e51b8152602060048201819052602482015260008051602062004ea583398151915260448201526064015b60405180910390fd5b600180546001600160a01b0319166001600160a01b0392909216919091179055565b6000546001600160a01b03163314620001755760405162461bcd60e51b8152602060048201819052602482015260008051602062004ea58339815191526044820152606401620000ff565b600280546001600160a01b0319166001600160a01b0392909216919091179055565b6000546001600160a01b03163314620001e25760405162461bcd60e51b8152602060048201819052602482015260008051602062004ea58339815191526044820152606401620000ff565b600355565b80516001600160a01b0381168114620001ff57600080fd5b919050565b60008060006060848603121562000219578283fd5b6200022484620001e7565b92506200023460208501620001e7565b9150604084015190509250925092565b614c5180620002546000396000f3fe608060405260043610620000915760003560e01c80638da5cb5b11620000605780638da5cb5b1462000131578063a42dce801462000151578063b0bc30d31462000176578063ca29e8c8146200018d578063f2fde38b14620001af57600080fd5b80636b39268014620000965780636c19e78314620000bd578063715018a614620000e25780637ac3c02f14620000fa575b600080fd5b348015620000a357600080fd5b50620000bb620000b5366004620007b9565b620001d4565b005b348015620000ca57600080fd5b50620000bb620000dc366004620006bc565b6200020f565b348015620000ef57600080fd5b50620000bb6200025e565b3480156200010757600080fd5b506001546001600160a01b03165b6040516001600160a01b03909116815260200160405180910390f35b3480156200013e57600080fd5b506000546001600160a01b031662000115565b3480156200015e57600080fd5b50620000bb62000170366004620006bc565b62000299565b620000bb62000187366004620006e0565b620002e8565b3480156200019a57600080fd5b5060015462000115906001600160a01b031681565b348015620001bc57600080fd5b50620000bb620001ce366004620006bc565b62000415565b6000546001600160a01b031633146200020a5760405162461bcd60e51b815260040162000201906200090f565b60405180910390fd5b600355565b6000546001600160a01b031633146200023c5760405162461bcd60e51b815260040162000201906200090f565b600180546001600160a01b0319166001600160a01b0392909216919091179055565b6000546001600160a01b031633146200028b5760405162461bcd60e51b815260040162000201906200090f565b620002976000620004b7565b565b6000546001600160a01b03163314620002c65760405162461bcd60e51b815260040162000201906200090f565b600280546001600160a01b0319166001600160a01b0392909216919091179055565b60006003541180156200030557506002546001600160a01b031615155b1562000386576002546003546040516000926001600160a01b031691908381818185875af1925050503d80600081146200035c576040519150601f19603f3d011682016040523d82523d6000602084013e62000361565b606091505b50509050806200038457604051630b2f05f960e11b815260040160405180910390fd5b505b6000868686868686306040516200039d9062000507565b620003af979695949392919062000857565b604051809103906000f080158015620003cc573d6000803e3d6000fd5b506040516001600160a01b03821681529091507fdc172423e65e4eb718110c42ad3b66ac4b0a613e4d07bfb55f2477f2d1bf34eb9060200160405180910390a150505050505050565b6000546001600160a01b03163314620004425760405162461bcd60e51b815260040162000201906200090f565b6001600160a01b038116620004a95760405162461bcd60e51b815260206004820152602660248201527f4f776e61626c653a206e6577206f776e657220697320746865207a65726f206160448201526564647265737360d01b606482015260840162000201565b620004b481620004b7565b50565b600080546001600160a01b038381166001600160a01b0319831681178455604051919092169283917f8be0079c531659141344cd1fd0a4f28419497f9722a3daafe3b4186f6b6457e09190a35050565b61423a80620009e283390190565b80356001600160a01b03811681146200052d57600080fd5b919050565b600082601f83011262000543578081fd5b813560206200055c6200055683620009a4565b62000970565b80838252828201915082860187848660051b89010111156200057c578586fd5b855b85811015620005a557620005928262000515565b845292840192908401906001016200057e565b5090979650505050505050565b600082601f830112620005c3578081fd5b81356020620005d66200055683620009a4565b80838252828201915082860187848660061b8901011115620005f6578586fd5b855b85811015620005a557604080838b03121562000612578788fd5b6200061c62000944565b833581526200062d878501620006a9565b818801528552938501939190910190600101620005f8565b600082601f83011262000656578081fd5b81356020620006696200055683620009a4565b80838252828201915082860187848660051b890101111562000689578586fd5b855b85811015620005a5578135845292840192908401906001016200068b565b803561ffff811681146200052d57600080fd5b600060208284031215620006ce578081fd5b620006d98262000515565b9392505050565b60008060008060008060c08789031215620006f9578182fd5b620007048762000515565b9550602087013567ffffffffffffffff8082111562000721578384fd5b6200072f8a838b0162000532565b9650604089013591508082111562000745578384fd5b620007538a838b0162000532565b9550606089013591508082111562000769578384fd5b620007778a838b0162000645565b94506200078760808a01620006a9565b935060a08901359150808211156200079d578283fd5b50620007ac89828a01620005b2565b9150509295509295509295565b600060208284031215620007cb578081fd5b5035919050565b6000815180845260208085019450808401835b838110156200080c5781516001600160a01b031687529582019590820190600101620007e5565b509495945050505050565b6000815180845260208085019450808401835b838110156200080c5781518051885283015161ffff1683880152604090960195908201906001016200082a565b6001600160a01b038816815260e060208083018290526000916200087e9084018a620007d2565b838103604085015262000892818a620007d2565b84810360608601528851808252838a01925090830190845b81811015620008c857835183529284019291840191600101620008aa565b505061ffff8816608086015284810360a0860152620008e8818862000817565b93505050506200090360c08301846001600160a01b03169052565b98975050505050505050565b6020808252818101527f4f776e61626c653a2063616c6c6572206973206e6f7420746865206f776e6572604082015260600190565b6040805190810167ffffffffffffffff811182821017156200096a576200096a620009cb565b60405290565b604051601f8201601f1916810167ffffffffffffffff811182821017156200099c576200099c620009cb565b604052919050565b600067ffffffffffffffff821115620009c157620009c1620009cb565b5060051b60200190565b634e487b7160e01b600052604160045260246000fdfe60806040523480156200001157600080fd5b506040516200423a3803806200423a833981016040819052620000349162000a00565b84848051825114620000a85760405162461bcd60e51b815260206004820152603260248201527f5061796d656e7453706c69747465723a2070617965657320616e6420736861726044820152710cae640d8cadccee8d040dad2e6dac2e8c6d60731b60648201526084015b60405180910390fd5b6000825111620000fb5760405162461bcd60e51b815260206004820152601a60248201527f5061796d656e7453706c69747465723a206e6f2070617965657300000000000060448201526064016200009f565b60005b82518110156200017f576200016a8382815181106200012d57634e487b7160e01b600052603260045260246000fd5b60200260200101518383815181106200015657634e487b7160e01b600052603260045260246000fd5b6020026020010151620001e660201b60201c565b80620001768162000b8c565b915050620000fe565b506200019191506000905088620003d2565b620001ac6000805160206200421a83398151915288620003d2565b620001b986848462000415565b600e80546001600160a01b0319166001600160a01b03929092169190911790555062000bd6945050505050565b6001600160a01b038216620002535760405162461bcd60e51b815260206004820152602c60248201527f5061796d656e7453706c69747465723a206163636f756e74206973207468652060448201526b7a65726f206164647265737360a01b60648201526084016200009f565b60008111620002a55760405162461bcd60e51b815260206004820152601d60248201527f5061796d656e7453706c69747465723a2073686172657320617265203000000060448201526064016200009f565b6001600160a01b03821660009081526002602052604090205415620003215760405162461bcd60e51b815260206004820152602b60248201527f5061796d656e7453706c69747465723a206163636f756e7420616c726561647960448201526a206861732073686172657360a81b60648201526084016200009f565b60048054600181019091557f8a35acfbc15ff81a39ae7d344fd709f28e8600b4aa8c65c6b64bfe7fe36bd19b0180546001600160a01b0319166001600160a01b0384169081179091556000908152600260205260408120829055546200038990829062000b71565b600055604080516001600160a01b0384168152602081018390527f40c340f65e17194d14ddddb073d3c9f888e3cb52b5aae0c6c7706b4fbc905fac910160405180910390a15050565b620003e982826200071460201b620015071760201c565b6000828152600860209081526040909120620004109183906200158d620007b9821b17901c565b505050565b60648261ffff1611156200043c57604051631fd655cd60e11b815260040160405180910390fd5b6009805462ffff00191661010061ffff85160217905580516001811415620004fa576000826000815181106200048257634e487b7160e01b600052603260045260246000fd5b602002602001015190506200049d81620007d960201b60201c565b600a80546001810182556000919091528151600080516020620041fa833981519152600290920291820155602090910151600080516020620041da833981519152909101805461ffff191661ffff909216919091179055620006ac565b6001811115620006ac5760408051808201909152600080825260208201526040805180820190915260008082526020820152836000815181106200054e57634e487b7160e01b600052603260045260246000fd5b602002602001015190506200056981620007d960201b60201c565b600a8054600180820183556000929092528251600080516020620041fa8339815191526002909202918201556020830151600080516020620041da833981519152909101805461ffff191661ffff9092169190911790555b83811015620006a857819250848181518110620005ee57634e487b7160e01b600052603260045260246000fd5b6020026020010151915081600001518360000151101580620006205750816020015161ffff16836020015161ffff1611155b156200063f57604051638ebf7c8f60e01b815260040160405180910390fd5b6200064a82620007d9565b600a8054600180820183556000929092528351600080516020620041fa8339815191526002909202918201556020840151600080516020620041da833981519152909101805461ffff191661ffff90921691909117905501620005c1565b5050505b835160005b818110156200070c57620007036000805160206200421a833981519152878381518110620006ef57634e487b7160e01b600052603260045260246000fd5b6020026020010151620003d260201b60201c565b600101620006b1565b505050505050565b60008281526007602090815260408083206001600160a01b038516845290915290205460ff16620007b55760008281526007602090815260408083206001600160a01b03851684529091529020805460ff19166001179055620007743390565b6001600160a01b0316816001600160a01b0316837f2f8788117e7eff1d82e926ec794901d17c78024a50270940304540a733656f0d60405160405180910390a45b5050565b6000620007d0836001600160a01b03841662000807565b90505b92915050565b6064816020015161ffff16111562000804576040516324999a8f60e21b815260040160405180910390fd5b50565b60008181526001830160205260408120546200085057508154600181810184556000848152602080822090930184905584548482528286019093526040902091909155620007d3565b506000620007d3565b80516001600160a01b03811681146200087157600080fd5b919050565b600082601f83011262000887578081fd5b81516020620008a06200089a8362000b4b565b62000b18565b80838252828201915082860187848660051b8901011115620008c0578586fd5b855b85811015620008e957620008d68262000859565b84529284019290840190600101620008c2565b5090979650505050505050565b600082601f83011262000907578081fd5b815160206200091a6200089a8362000b4b565b80838252828201915082860187848660061b89010111156200093a578586fd5b855b85811015620008e957604080838b03121562000956578788fd5b6200096062000aed565b8351815262000971878501620009ed565b8188015285529385019391909101906001016200093c565b600082601f8301126200099a578081fd5b81516020620009ad6200089a8362000b4b565b80838252828201915082860187848660051b8901011115620009cd578586fd5b855b85811015620008e957815184529284019290840190600101620009cf565b805161ffff811681146200087157600080fd5b600080600080600080600060e0888a03121562000a1b578283fd5b62000a268862000859565b60208901519097506001600160401b038082111562000a43578485fd5b62000a518b838c0162000876565b975060408a015191508082111562000a67578485fd5b62000a758b838c0162000876565b965060608a015191508082111562000a8b578485fd5b62000a998b838c0162000989565b955062000aa960808b01620009ed565b945060a08a015191508082111562000abf578384fd5b5062000ace8a828b01620008f6565b92505062000adf60c0890162000859565b905092959891949750929550565b604080519081016001600160401b038111828210171562000b125762000b1262000bc0565b60405290565b604051601f8201601f191681016001600160401b038111828210171562000b435762000b4362000bc0565b604052919050565b60006001600160401b0382111562000b675762000b6762000bc0565b5060051b60200190565b6000821982111562000b875762000b8762000baa565b500190565b600060001982141562000ba35762000ba362000baa565b5060010190565b634e487b7160e01b600052601160045260246000fd5b634e487b7160e01b600052604160045260246000fd5b6135f48062000be66000396000f3fe6080604052600436106101d15760003560e01c80637d9b434c116100f7578063c163de3d11610095578063d79779b211610064578063d79779b2146105ee578063dffbab9514610624578063e33b7de314610644578063fc8cc92b1461065957600080fd5b8063c163de3d14610563578063ca15c87314610578578063ce7c2ac214610598578063d547741f146105ce57600080fd5b806391d14854116100d157806391d14854146104e55780639852595c14610505578063a217fddf1461053b578063bc157ac11461055057600080fd5b80637d9b434c146104605780638b83209b1461048d5780639010d07c146104c557600080fd5b806336568abe1161016f578063549fdb5a1161013e578063549fdb5a146103ef578063597e1fb51461040f578063700d4aec1461042957806371b5bba61461044b57600080fd5b806336568abe146103545780633a98ef3914610374578063406072a91461038957806348b75044146103cf57600080fd5b80631b02554d116101ab5780631b02554d146102a9578063245dc4c9146102c9578063248a9ca3146102f65780632f2ff15d1461033457600080fd5b806301ffc9a71461021f578063129f331714610254578063191655871461028757600080fd5b3661021a577f6ef95f06320e7a25a04a175ca677b7052bdd97131872c2192525a629f51be77033604080516001600160a01b0390921682523460208301520160405180910390a1005b600080fd5b34801561022b57600080fd5b5061023f61023a366004613054565b610679565b60405190151581526020015b60405180910390f35b34801561026057600080fd5b5060095461027490610100900461ffff1681565b60405161ffff909116815260200161024b565b34801561029357600080fd5b506102a76102a2366004612e59565b6106a4565b005b3480156102b557600080fd5b506102a76102c4366004612e91565b6107db565b3480156102d557600080fd5b506102e96102e4366004612f90565b610a7b565b60405161024b91906132c7565b34801561030257600080fd5b50610326610311366004612fec565b60009081526007602052604090206001015490565b60405190815260200161024b565b34801561034057600080fd5b506102a761034f366004613004565b610b62565b34801561036057600080fd5b506102a761036f366004613004565b610b8c565b34801561038057600080fd5b50600054610326565b34801561039557600080fd5b506103266103a436600461307c565b6001600160a01b03918216600090815260066020908152604080832093909416825291909152205490565b3480156103db57600080fd5b506102a76103ea36600461307c565b610c0a565b3480156103fb57600080fd5b506102a761040a366004613157565b610df2565b34801561041b57600080fd5b5060095461023f9060ff1681565b34801561043557600080fd5b5061043e610f7d565b60405161024b9190613360565b34801561045757600080fd5b50600454610326565b34801561046c57600080fd5b5061032661047b366004612fec565b6000908152600b602052604090205490565b34801561049957600080fd5b506104ad6104a8366004612fec565b6110a7565b6040516001600160a01b03909116815260200161024b565b3480156104d157600080fd5b506104ad6104e0366004613033565b6110e5565b3480156104f157600080fd5b5061023f610500366004613004565b611104565b34801561051157600080fd5b50610326610520366004612e59565b6001600160a01b031660009081526003602052604090205490565b34801561054757600080fd5b50610326600081565b6102a761055e366004613120565b61112f565b34801561056f57600080fd5b506102a761132f565b34801561058457600080fd5b50610326610593366004612fec565b6113c0565b3480156105a457600080fd5b506103266105b3366004612e59565b6001600160a01b031660009081526002602052604090205490565b3480156105da57600080fd5b506102a76105e9366004613004565b6113d7565b3480156105fa57600080fd5b50610326610609366004612e59565b6001600160a01b031660009081526005602052604090205490565b34801561063057600080fd5b506102e961063f366004612f90565b6113fc565b34801561065057600080fd5b50600154610326565b34801561066557600080fd5b5061023f610674366004612fec565b6114db565b60006001600160e01b03198216635a05180f60e01b148061069e575061069e826115a2565b92915050565b6001600160a01b0381166000908152600260205260409020546106e25760405162461bcd60e51b81526004016106d9906133e6565b60405180910390fd5b60006106ed60015490565b6106f79047613477565b90506000610724838361071f866001600160a01b031660009081526003602052604090205490565b6115d7565b9050806107435760405162461bcd60e51b81526004016106d99061342c565b6001600160a01b0383166000908152600360205260408120805483929061076b908490613477565b9250508190555080600160008282546107849190613477565b909155506107949050838261161a565b604080516001600160a01b0385168152602081018390527fdf20fd1e76bc69d672e4814fafb2c449bba3a5369d8359adf9e05e6fde87b056910160405180910390a1505050565b6107e6600033611104565b61080357604051634ca8886760e01b815260040160405180910390fd5b60095460ff161561082757604051638819799d60e01b815260040160405180910390fd5b610833600a6000612d3e565b600061084c60008051602061359f8339815191526113c0565b905060008167ffffffffffffffff81111561087757634e487b7160e01b600052604160045260246000fd5b6040519080825280602002602001820160405280156108a0578160200160208202803683370190505b50905060005b8281101561090c5760006108c860008051602061359f833981519152836110e5565b9050808383815181106108eb57634e487b7160e01b600052603260045260246000fd5b6001600160a01b0390921660209283029190910190910152506001016108a6565b5060005b8281101561097657600082828151811061093a57634e487b7160e01b600052603260045260246000fd5b602002602001015190506109516000801b82611104565b61096d5761096d60008051602061359f83398151915282611733565b50600101610910565b50610a018b8b808060200260200160405190810160405280939291908181526020018383602002808284376000920182905250604080516020808c02820181019092528a81528c955093508a92508991829185015b828210156109f7576109e8604083028601368190038101906130a9565b815260200190600101906109cb565b5050505050611755565b610a6e89898080602002602001604051908101604052809392919081815260200183836020028082843760009201919091525050604080516020808d0282810182019093528c82529093508c92508b918291850190849080828437600092019190915250611a9192505050565b5050505050505050505050565b6060818067ffffffffffffffff811115610aa557634e487b7160e01b600052604160045260246000fd5b604051908082528060200260200182016040528015610ad857816020015b6060815260200190600190039081610ac35790505b50915060005b818161ffff161015610b5a576000610b1f86868461ffff16818110610b1357634e487b7160e01b600052603260045260246000fd5b90506020020135611c7a565b905080848361ffff1681518110610b4657634e487b7160e01b600052603260045260246000fd5b602090810291909101015250600101610ade565b505092915050565b600082815260076020526040902060010154610b7d81611d02565b610b878383611d0f565b505050565b6001600160a01b0381163314610bfc5760405162461bcd60e51b815260206004820152602f60248201527f416363657373436f6e74726f6c3a2063616e206f6e6c792072656e6f756e636560448201526e103937b632b9903337b91039b2b63360891b60648201526084016106d9565b610c068282611733565b5050565b6001600160a01b038116600090815260026020526040902054610c3f5760405162461bcd60e51b81526004016106d9906133e6565b6001600160a01b0382166000908152600560205260408120546040516370a0823160e01b81523060048201526001600160a01b038516906370a082319060240160206040518083038186803b158015610c9757600080fd5b505afa158015610cab573d6000803e3d6000fd5b505050506040513d601f19601f82011682018060405250810190610ccf9190613108565b610cd99190613477565b90506000610d12838361071f87876001600160a01b03918216600090815260066020908152604080832093909416825291909152205490565b905080610d315760405162461bcd60e51b81526004016106d99061342c565b6001600160a01b03808516600090815260066020908152604080832093871683529290529081208054839290610d68908490613477565b90915550506001600160a01b03841660009081526005602052604081208054839290610d95908490613477565b90915550610da69050848483611d31565b604080516001600160a01b038581168252602082018490528616917f3be5b7a71e84ed12875d241991c70855ac5817d847039e17a9d895c1ceb0f18a910160405180910390a250505050565b60095460ff1615610e1657604051638819799d60e01b815260040160405180910390fd5b610e1f846114db565b610e3c576040516332d6d8f560e21b815260040160405180910390fd5b6000610e7f858585858080601f016020809104026020016040519081016040528093929190818152602001838380828437600092019190915250611d8392505050565b8315610e975750600954610100900461ffff16610f32565b600a5460005b81811015610f2f576000600a826001600a80549050610ebc91906134c2565b610ec691906134c2565b81548110610ee457634e487b7160e01b600052603260045260246000fd5b600091825260209182902060408051808201909152600290920201805480835260019091015461ffff16928201929092529150421015610f2657806020015193505b50600101610e9d565b50505b610f3d338683611e8b565b60408051868152600160208201527f3fdad7f8cdfcd1b65d4d09d35f3a990abd6d5cf186ba129cfb4abbf332cf961b910160405180910390a15050505050565b600a5460609060008167ffffffffffffffff811115610fac57634e487b7160e01b600052604160045260246000fd5b604051908082528060200260200182016040528015610ff157816020015b6040805180820190915260008082526020820152815260200190600190039081610fca5790505b50905060005b828110156110a0576000600a828154811061102257634e487b7160e01b600052603260045260246000fd5b60009182526020918290206040805180820182526002909302909101805483526001015461ffff908116838501908152825180840190935283518352511692810192909252845190925084908490811061108c57634e487b7160e01b600052603260045260246000fd5b602090810291909101015250600101610ff7565b5092915050565b6000600482815481106110ca57634e487b7160e01b600052603260045260246000fd5b6000918252602090912001546001600160a01b031692915050565b60008281526008602052604081206110fd90836120ca565b9392505050565b60009182526007602090815260408084206001600160a01b0393909316845291905290205460ff1690565b60095460ff161561115357604051638819799d60e01b815260040160405180910390fd5b34816111725760405163162908e360e11b815260040160405180910390fd5b6000848152600b60205260409020541561119f576040516308fefb0960e01b815260040160405180910390fd5b6001600160a01b0383161580159081906111b857508115155b806111cc5750801580156111cc5750828214155b156111ea5760405163fe9ba5cd60e01b815260040160405180910390fd5b33811561127b576040516323b872dd60e01b81526001600160a01b038281166004830152306024830152604482018690528616906323b872dd90606401602060405180830381600087803b15801561124157600080fd5b505af1158015611255573d6000803e3d6000fd5b505050506040513d601f19601f820116820180604052508101906112799190612fd0565b505b6000868152600d60209081526040808320815180830183526001600160a01b038a81168083528286018b8152845460018082018755958952978790209351600290980290930180546001600160a01b0319169783169790971787559151959092019490945581519085168152918201899052810191909152606081018590527fde50620a8362ed2d89afd08b856fe6db50ad03c096d5f6e10a7ce71ee5359de39060800160405180910390a1505050505050565b61134760008051602061359f83398151915233611104565b61136457604051634ca8886760e01b815260040160405180910390fd5b60095460ff161561138857604051638819799d60e01b815260040160405180910390fd5b6009805460ff191660011790556040517fc67401958d8f4f70d6e5fb87c0190c6f0df5a05a8926d934f81c7491e7402f4790600090a1565b600081815260086020526040812061069e906120d6565b6000828152600760205260409020600101546113f281611d02565b610b878383611733565b6060818067ffffffffffffffff81111561142657634e487b7160e01b600052604160045260246000fd5b60405190808252806020026020018201604052801561145957816020015b60608152602001906001900390816114445790505b50915060005b818161ffff161015610b5a5760006114a086868461ffff1681811061149457634e487b7160e01b600052603260045260246000fd5b905060200201356120e0565b905080848361ffff16815181106114c757634e487b7160e01b600052603260045260246000fd5b60209081029190910101525060010161145f565b6000818152600d60205260408120541580159061069e5750506000908152600b60205260409020541590565b6115118282611104565b610c065760008281526007602090815260408083206001600160a01b03851684529091529020805460ff191660011790556115493390565b6001600160a01b0316816001600160a01b0316837f2f8788117e7eff1d82e926ec794901d17c78024a50270940304540a733656f0d60405160405180910390a45050565b60006110fd836001600160a01b038416612153565b60006001600160e01b03198216637965db0b60e01b148061069e57506301ffc9a760e01b6001600160e01b031983161461069e565b600080546001600160a01b0385168252600260205260408220548391906115fe90866134a3565b611608919061348f565b61161291906134c2565b949350505050565b8047101561166a5760405162461bcd60e51b815260206004820152601d60248201527f416464726573733a20696e73756666696369656e742062616c616e636500000060448201526064016106d9565b6000826001600160a01b03168260405160006040518083038185875af1925050503d80600081146116b7576040519150601f19603f3d011682016040523d82523d6000602084013e6116bc565b606091505b5050905080610b875760405162461bcd60e51b815260206004820152603a60248201527f416464726573733a20756e61626c6520746f2073656e642076616c75652c207260448201527f6563697069656e74206d6179206861766520726576657274656400000000000060648201526084016106d9565b61173d82826121a2565b6000828152600860205260409020610b879082612209565b60648261ffff16111561177b57604051631fd655cd60e11b815260040160405180910390fd5b6009805462ffff00191661010061ffff85160217905580516001811415611850576000826000815181106117bf57634e487b7160e01b600052603260045260246000fd5b602002602001015190506117d28161221e565b600a805460018101825560009190915281517fc65a7bb8d6351c1cf70c95a316cc6a92839c986682d98bc35f958f4883f9d2a86002909202918201556020909101517fc65a7bb8d6351c1cf70c95a316cc6a92839c986682d98bc35f958f4883f9d2a9909101805461ffff191661ffff909216919091179055611a35565b6001811115611a355760408051808201909152600080825260208201526040805180820190915260008082526020820152836000815181106118a257634e487b7160e01b600052603260045260246000fd5b602002602001015190506118b58161221e565b600a80546001808201835560009290925282517fc65a7bb8d6351c1cf70c95a316cc6a92839c986682d98bc35f958f4883f9d2a860029092029182015560208301517fc65a7bb8d6351c1cf70c95a316cc6a92839c986682d98bc35f958f4883f9d2a9909101805461ffff191661ffff9092169190911790555b83811015611a315781925084818151811061195a57634e487b7160e01b600052603260045260246000fd5b602002602001015191508160000151836000015110158061198b5750816020015161ffff16836020015161ffff1611155b156119a957604051638ebf7c8f60e01b815260040160405180910390fd5b6119b28261221e565b600a80546001808201835560009290925283517fc65a7bb8d6351c1cf70c95a316cc6a92839c986682d98bc35f958f4883f9d2a860029092029182015560208401517fc65a7bb8d6351c1cf70c95a316cc6a92839c986682d98bc35f958f4883f9d2a9909101805461ffff191661ffff9092169190911790550161192f565b5050505b835160005b81811015611a8957611a8160008051602061359f833981519152878381518110611a7457634e487b7160e01b600052603260045260246000fd5b6020026020010151611d0f565b600101611a3a565b505050505050565b6000808055611aa290600490612d5f565b60005b8251811015611c4c576000838281518110611ad057634e487b7160e01b600052603260045260246000fd5b602002602001015190506000838381518110611afc57634e487b7160e01b600052603260045260246000fd5b6020026020010151905060006001600160a01b0316826001600160a01b03161415611b7e5760405162461bcd60e51b815260206004820152602c60248201527f5061796d656e7453706c69747465723a206163636f756e74206973207468652060448201526b7a65726f206164647265737360a01b60648201526084016106d9565b60008111611bce5760405162461bcd60e51b815260206004820152601d60248201527f5061796d656e7453706c69747465723a2073686172657320617265203000000060448201526064016106d9565b60048054600181019091557f8a35acfbc15ff81a39ae7d344fd709f28e8600b4aa8c65c6b64bfe7fe36bd19b0180546001600160a01b0319166001600160a01b038416908117909155600090815260026020526040812082905554611c34908290613477565b60005550819050611c4481613520565b915050611aa5565b506040517f3407fd525bf6581e0ae8e3a3636bd90d02112bea34d66802743c28ced73f910e90600090a15050565b6060600d6000838152602001908152602001600020805480602002602001604051908101604052809291908181526020016000905b82821015611cf7576000848152602090819020604080518082019091526002850290910180546001600160a01b03168252600190810154828401529083529092019101611caf565b505050509050919050565b611d0c8133612248565b50565b611d198282611507565b6000828152600860205260409020610b87908261158d565b604080516001600160a01b038416602482015260448082018490528251808303909101815260649091019091526020810180516001600160e01b031663a9059cbb60e01b179052610b879084906122ac565b6000611dc482611dbe8686604051602001611daa9291909182521515602082015260400190565b60405160208183030381529060405261237e565b906123b9565b90506000600e60009054906101000a90046001600160a01b03166001600160a01b0316637ac3c02f6040518163ffffffff1660e01b8152600401602060405180830381600087803b158015611e1857600080fd5b505af1158015611e2c573d6000803e3d6000fd5b505050506040513d601f19601f82011682018060405250810190611e509190612e75565b9050806001600160a01b0316826001600160a01b031614611e8457604051632057875960e21b815260040160405180910390fd5b5050505050565b6000828152600b6020526040902042905561ffff8116611eaa57505050565b6000611eb583611c7a565b6000848152600d60205260408120919250611ed09190612d7d565b805160005b818161ffff161015611a89576000838261ffff1681518110611f0757634e487b7160e01b600052603260045260246000fd5b60200260200101519050600060648661ffff168360200151611f2991906134a3565b611f33919061348f565b82519091506001600160a01b0316611fbe576000886001600160a01b03168260405160006040518083038185875af1925050503d8060008114611f92576040519150601f19603f3d011682016040523d82523d6000602084013e611f97565b606091505b5050905080611fb8576040516202d94960ed1b815260040160405180910390fd5b50612065565b815160405163a9059cbb60e01b81526001600160a01b038a8116600483015260248201849052600092169063a9059cbb90604401602060405180830381600087803b15801561200c57600080fd5b505af1158015612020573d6000803e3d6000fd5b505050506040513d601f19601f820116820180604052508101906120449190612fd0565b905080612063576040516202d94960ed1b815260040160405180910390fd5b505b6000878152600c60209081526040808320815180830190925294516001600160a01b03908116825281830194855285546001808201885596855292909320905160029092020180546001600160a01b0319169190921617815590519082015501611ed5565b60006110fd83836123dd565b600061069e825490565b6000818152600c60209081526040808320805482518185028101850190935280835260609492939192909184018215611cf7576000848152602090819020604080518082019091526002850290910180546001600160a01b03168252600190810154828401529083529092019101611caf565b600081815260018301602052604081205461219a5750815460018181018455600084815260208082209093018490558454848252828601909352604090209190915561069e565b50600061069e565b6121ac8282611104565b15610c065760008281526007602090815260408083206001600160a01b0385168085529252808320805460ff1916905551339285917ff6391f5c32d9c69d2a47ea670b442974b53935d1edc7fd64eb21e047a839171b9190a45050565b60006110fd836001600160a01b038416612415565b6064816020015161ffff161115611d0c576040516324999a8f60e21b815260040160405180910390fd5b6122528282611104565b610c065761226a816001600160a01b03166014612532565b612275836020612532565b604051602001612286929190613252565b60408051601f198184030181529082905262461bcd60e51b82526106d9916004016133b3565b6000612301826040518060400160405280602081526020017f5361666545524332303a206c6f772d6c6576656c2063616c6c206661696c6564815250856001600160a01b03166127149092919063ffffffff16565b805190915015610b87578080602001905181019061231f9190612fd0565b610b875760405162461bcd60e51b815260206004820152602a60248201527f5361666545524332303a204552433230206f7065726174696f6e20646964206e6044820152691bdd081cdd58d8d9595960b21b60648201526084016106d9565b600061238a8251612723565b8260405160200161239c9291906131f7565b604051602081830303815290604052805190602001209050919050565b60008060006123c8858561283d565b915091506123d5816128ad565b509392505050565b600082600001828154811061240257634e487b7160e01b600052603260045260246000fd5b9060005260206000200154905092915050565b600081815260018301602052604081205480156125285760006124396001836134c2565b855490915060009061244d906001906134c2565b90508181146124ce57600086600001828154811061247b57634e487b7160e01b600052603260045260246000fd5b90600052602060002001549050808760000184815481106124ac57634e487b7160e01b600052603260045260246000fd5b6000918252602080832090910192909255918252600188019052604090208390555b85548690806124ed57634e487b7160e01b600052603160045260246000fd5b60019003818190600052602060002001600090559055856001016000868152602001908152602001600020600090556001935050505061069e565b600091505061069e565b606060006125418360026134a3565b61254c906002613477565b67ffffffffffffffff81111561257257634e487b7160e01b600052604160045260246000fd5b6040519080825280601f01601f19166020018201604052801561259c576020820181803683370190505b509050600360fc1b816000815181106125c557634e487b7160e01b600052603260045260246000fd5b60200101906001600160f81b031916908160001a905350600f60fb1b8160018151811061260257634e487b7160e01b600052603260045260246000fd5b60200101906001600160f81b031916908160001a90535060006126268460026134a3565b612631906001613477565b90505b60018111156126c5576f181899199a1a9b1b9c1cb0b131b232b360811b85600f166010811061267357634e487b7160e01b600052603260045260246000fd5b1a60f81b82828151811061269757634e487b7160e01b600052603260045260246000fd5b60200101906001600160f81b031916908160001a90535060049490941c936126be81613509565b9050612634565b5083156110fd5760405162461bcd60e51b815260206004820181905260248201527f537472696e67733a20686578206c656e67746820696e73756666696369656e7460448201526064016106d9565b60606116128484600085612aae565b6060816127475750506040805180820190915260018152600360fc1b602082015290565b8160005b8115612771578061275b81613520565b915061276a9050600a8361348f565b915061274b565b60008167ffffffffffffffff81111561279a57634e487b7160e01b600052604160045260246000fd5b6040519080825280601f01601f1916602001820160405280156127c4576020820181803683370190505b5090505b8415611612576127d96001836134c2565b91506127e6600a8661353b565b6127f1906030613477565b60f81b81838151811061281457634e487b7160e01b600052603260045260246000fd5b60200101906001600160f81b031916908160001a905350612836600a8661348f565b94506127c8565b6000808251604114156128745760208301516040840151606085015160001a61286887828585612bdf565b945094505050506128a6565b82516040141561289e5760208301516040840151612893868383612ccc565b9350935050506128a6565b506000905060025b9250929050565b60008160048111156128cf57634e487b7160e01b600052602160045260246000fd5b14156128d85750565b60018160048111156128fa57634e487b7160e01b600052602160045260246000fd5b14156129485760405162461bcd60e51b815260206004820152601860248201527f45434453413a20696e76616c6964207369676e6174757265000000000000000060448201526064016106d9565b600281600481111561296a57634e487b7160e01b600052602160045260246000fd5b14156129b85760405162461bcd60e51b815260206004820152601f60248201527f45434453413a20696e76616c6964207369676e6174757265206c656e6774680060448201526064016106d9565b60038160048111156129da57634e487b7160e01b600052602160045260246000fd5b1415612a335760405162461bcd60e51b815260206004820152602260248201527f45434453413a20696e76616c6964207369676e6174757265202773272076616c604482015261756560f01b60648201526084016106d9565b6004816004811115612a5557634e487b7160e01b600052602160045260246000fd5b1415611d0c5760405162461bcd60e51b815260206004820152602260248201527f45434453413a20696e76616c6964207369676e6174757265202776272076616c604482015261756560f01b60648201526084016106d9565b606082471015612b0f5760405162461bcd60e51b815260206004820152602660248201527f416464726573733a20696e73756666696369656e742062616c616e636520666f6044820152651c8818d85b1b60d21b60648201526084016106d9565b6001600160a01b0385163b612b665760405162461bcd60e51b815260206004820152601d60248201527f416464726573733a2063616c6c20746f206e6f6e2d636f6e747261637400000060448201526064016106d9565b600080866001600160a01b03168587604051612b8291906131db565b60006040518083038185875af1925050503d8060008114612bbf576040519150601f19603f3d011682016040523d82523d6000602084013e612bc4565b606091505b5091509150612bd4828286612d05565b979650505050505050565b6000807f7fffffffffffffffffffffffffffffff5d576e7357a4501ddfe92f46681b20a0831115612c165750600090506003612cc3565b8460ff16601b14158015612c2e57508460ff16601c14155b15612c3f5750600090506004612cc3565b6040805160008082526020820180845289905260ff881692820192909252606081018690526080810185905260019060a0016020604051602081039080840390855afa158015612c93573d6000803e3d6000fd5b5050604051601f1901519150506001600160a01b038116612cbc57600060019250925050612cc3565b9150600090505b94509492505050565b6000806001600160ff1b03831681612ce960ff86901c601b613477565b9050612cf787828885612bdf565b935093505050935093915050565b60608315612d145750816110fd565b825115612d245782518084602001fd5b8160405162461bcd60e51b81526004016106d991906133b3565b5080546000825560020290600052602060002090810190611d0c9190612d9e565b5080546000825590600052602060002090810190611d0c9190612dc4565b5080546000825560020290600052602060002090810190611d0c9190612dd9565b5b80821115612dc0576000815560018101805461ffff19169055600201612d9f565b5090565b5b80821115612dc05760008155600101612dc5565b5b80821115612dc05780546001600160a01b031916815560006001820155600201612dda565b60008083601f840112612e10578182fd5b50813567ffffffffffffffff811115612e27578182fd5b6020830191508360208260051b85010111156128a657600080fd5b803561ffff81168114612e5457600080fd5b919050565b600060208284031215612e6a578081fd5b81356110fd8161357b565b600060208284031215612e86578081fd5b81516110fd8161357b565b600080600080600080600080600060a08a8c031215612eae578485fd5b893567ffffffffffffffff80821115612ec5578687fd5b612ed18d838e01612dff565b909b50995060208c0135915080821115612ee9578687fd5b612ef58d838e01612dff565b909950975060408c0135915080821115612f0d578687fd5b612f198d838e01612dff565b9097509550859150612f2d60608d01612e42565b945060808c0135915080821115612f42578384fd5b818c0191508c601f830112612f55578384fd5b813581811115612f63578485fd5b8d60208260061b8501011115612f77578485fd5b6020830194508093505050509295985092959850929598565b60008060208385031215612fa2578182fd5b823567ffffffffffffffff811115612fb8578283fd5b612fc485828601612dff565b90969095509350505050565b600060208284031215612fe1578081fd5b81516110fd81613590565b600060208284031215612ffd578081fd5b5035919050565b60008060408385031215613016578182fd5b8235915060208301356130288161357b565b809150509250929050565b60008060408385031215613045578182fd5b50508035926020909101359150565b600060208284031215613065578081fd5b81356001600160e01b0319811681146110fd578182fd5b6000806040838503121561308e578182fd5b82356130998161357b565b915060208301356130288161357b565b6000604082840312156130ba578081fd5b6040516040810181811067ffffffffffffffff821117156130e957634e487b7160e01b83526041600452602483fd5b604052823581526130fc60208401612e42565b60208201529392505050565b600060208284031215613119578081fd5b5051919050565b600080600060608486031215613134578081fd5b8335925060208401356131468161357b565b929592945050506040919091013590565b6000806000806060858703121561316c578182fd5b84359350602085013561317e81613590565b9250604085013567ffffffffffffffff8082111561319a578384fd5b818701915087601f8301126131ad578384fd5b8135818111156131bb578485fd5b8860208285010111156131cc578485fd5b95989497505060200194505050565b600082516131ed8184602087016134d9565b9190910192915050565b7f19457468657265756d205369676e6564204d6573736167653a0a00000000000081526000835161322f81601a8501602088016134d9565b83519083019061324681601a8401602088016134d9565b01601a01949350505050565b7f416363657373436f6e74726f6c3a206163636f756e742000000000000000000081526000835161328a8160178501602088016134d9565b7001034b99036b4b9b9b4b733903937b6329607d1b60179184019182015283516132bb8160288401602088016134d9565b01602801949350505050565b60006020808301818452808551808352604092508286019150828160051b870101848801865b8381101561335257888303603f190185528151805180855290880190888501908a5b8181101561333d57835180516001600160a01b031684528b01518b840152928a01929189019160010161330f565b505095880195935050908601906001016132ed565b509098975050505050505050565b602080825282518282018190526000919060409081850190868401855b828110156133a65781518051855286015161ffff1686850152928401929085019060010161337d565b5091979650505050505050565b60208152600082518060208401526133d28160408501602087016134d9565b601f01601f19169190910160400192915050565b60208082526026908201527f5061796d656e7453706c69747465723a206163636f756e7420686173206e6f2060408201526573686172657360d01b606082015260800190565b6020808252602b908201527f5061796d656e7453706c69747465723a206163636f756e74206973206e6f742060408201526a191d59481c185e5b595b9d60aa1b606082015260800190565b6000821982111561348a5761348a61354f565b500190565b60008261349e5761349e613565565b500490565b60008160001904831182151516156134bd576134bd61354f565b500290565b6000828210156134d4576134d461354f565b500390565b60005b838110156134f45781810151838201526020016134dc565b83811115613503576000848401525b50505050565b6000816135185761351861354f565b506000190190565b60006000198214156135345761353461354f565b5060010190565b60008261354a5761354a613565565b500690565b634e487b7160e01b600052601160045260246000fd5b634e487b7160e01b600052601260045260246000fd5b6001600160a01b0381168114611d0c57600080fd5b8015158114611d0c57600080fdfeb012ba8c7281edbf1d476d7a0eccd3cb202b439a7f0a8f6c574f02e5df5c10b1a264697066735822122041cdeac5fac8444665cd4acbc45d10cd413380eb6b750096d68eba22170c6b5a64736f6c63430008040033c65a7bb8d6351c1cf70c95a316cc6a92839c986682d98bc35f958f4883f9d2a9c65a7bb8d6351c1cf70c95a316cc6a92839c986682d98bc35f958f4883f9d2a8b012ba8c7281edbf1d476d7a0eccd3cb202b439a7f0a8f6c574f02e5df5c10b1a26469706673582212208509393c1049d7af82de2cedd5892d5ef8d12b691dd87570c418fa1e1f9d476864736f6c634300080400334f776e61626c653a2063616c6c6572206973206e6f7420746865206f776e6572",
  "devdoc": {
    "kind": "dev",
    "methods": {
      "owner()": {
        "details": "Returns the address of the current owner."
      },
      "renounceOwnership()": {
        "details": "Leaves the contract without owner. It will not be possible to call `onlyOwner` functions anymore. Can only be called by the current owner. NOTE: Renouncing ownership will leave the contract without an owner, thereby removing any functionality that is only available to the owner."
      },
      "transferOwnership(address)": {
        "details": "Transfers ownership of the contract to a new account (`newOwner`). Can only be called by the current owner."
      }
    },
    "version": 1
  },
  "userdoc": {
    "kind": "user",
    "methods": {},
    "version": 1
  },
  "storageLayout": {
    "storage": [
      {
        "astId": 550,
        "contract": "contracts/escrow/LemonadeEscrowFactoryV1.sol:LemonadeEscrowFactoryV1",
        "label": "_owner",
        "offset": 0,
        "slot": "0",
        "type": "t_address"
      },
      {
        "astId": 2685,
        "contract": "contracts/escrow/LemonadeEscrowFactoryV1.sol:LemonadeEscrowFactoryV1",
        "label": "_signer",
        "offset": 0,
        "slot": "1",
        "type": "t_address"
      },
      {
        "astId": 2687,
        "contract": "contracts/escrow/LemonadeEscrowFactoryV1.sol:LemonadeEscrowFactoryV1",
        "label": "_feeCollector",
        "offset": 0,
        "slot": "2",
        "type": "t_address"
      },
      {
        "astId": 2689,
        "contract": "contracts/escrow/LemonadeEscrowFactoryV1.sol:LemonadeEscrowFactoryV1",
        "label": "_feeAmount",
        "offset": 0,
        "slot": "3",
        "type": "t_uint256"
      }
    ],
    "types": {
      "t_address": {
        "encoding": "inplace",
        "label": "address",
        "numberOfBytes": "20"
      },
      "t_uint256": {
        "encoding": "inplace",
        "label": "uint256",
        "numberOfBytes": "32"
      }
    }
  }
}