{
  "address": "0xc0fEe3865971DFB585226fb38a22E223a7e3C45f",
  "abi": [
    {
      "inputs": [
        {
          "internalType": "address",
          "name": "initialSigner",
          "type": "address"
        },
        {
          "internalType": "address",
          "name": "initialFeeCollector",
          "type": "address"
        },
        {
          "internalType": "uint256",
          "name": "initialFeeAmount",
          "type": "uint256"
        }
      ],
      "stateMutability": "nonpayable",
      "type": "constructor"
    },
    {
      "inputs": [],
      "name": "CannotPayFee",
      "type": "error"
    },
    {
      "anonymous": false,
      "inputs": [
        {
          "indexed": false,
          "internalType": "address",
          "name": "escrow",
          "type": "address"
        }
      ],
      "name": "EscrowCreated",
      "type": "event"
    },
    {
      "anonymous": false,
      "inputs": [
        {
          "indexed": true,
          "internalType": "address",
          "name": "previousOwner",
          "type": "address"
        },
        {
          "indexed": true,
          "internalType": "address",
          "name": "newOwner",
          "type": "address"
        }
      ],
      "name": "OwnershipTransferred",
      "type": "event"
    },
    {
      "inputs": [],
      "name": "_signer",
      "outputs": [
        {
          "internalType": "address",
          "name": "",
          "type": "address"
        }
      ],
      "stateMutability": "view",
      "type": "function"
    },
    {
      "inputs": [
        {
          "internalType": "address",
          "name": "owner",
          "type": "address"
        },
        {
          "internalType": "address[]",
          "name": "delegates",
          "type": "address[]"
        },
        {
          "internalType": "address[]",
          "name": "payees",
          "type": "address[]"
        },
        {
          "internalType": "uint256[]",
          "name": "shares",
          "type": "uint256[]"
        },
        {
          "internalType": "uint16",
          "name": "hostRefundPercent",
          "type": "uint16"
        },
        {
          "components": [
            {
              "internalType": "uint256",
              "name": "timestamp",
              "type": "uint256"
            },
            {
              "internalType": "uint16",
              "name": "percent",
              "type": "uint16"
            }
          ],
          "internalType": "struct RefundPolicy[]",
          "name": "refundPolicies",
          "type": "tuple[]"
        }
      ],
      "name": "createEscrow",
      "outputs": [],
      "stateMutability": "payable",
      "type": "function"
    },
    {
      "inputs": [],
      "name": "getSigner",
      "outputs": [
        {
          "internalType": "address",
          "name": "",
          "type": "address"
        }
      ],
      "stateMutability": "view",
      "type": "function"
    },
    {
      "inputs": [],
      "name": "owner",
      "outputs": [
        {
          "internalType": "address",
          "name": "",
          "type": "address"
        }
      ],
      "stateMutability": "view",
      "type": "function"
    },
    {
      "inputs": [],
      "name": "renounceOwnership",
      "outputs": [],
      "stateMutability": "nonpayable",
      "type": "function"
    },
    {
      "inputs": [
        {
          "internalType": "uint256",
          "name": "feeAmount",
          "type": "uint256"
        }
      ],
      "name": "setFeeAmount",
      "outputs": [],
      "stateMutability": "nonpayable",
      "type": "function"
    },
    {
      "inputs": [
        {
          "internalType": "address",
          "name": "feeCollector",
          "type": "address"
        }
      ],
      "name": "setFeeCollector",
      "outputs": [],
      "stateMutability": "nonpayable",
      "type": "function"
    },
    {
      "inputs": [
        {
          "internalType": "address",
          "name": "signer",
          "type": "address"
        }
      ],
      "name": "setSigner",
      "outputs": [],
      "stateMutability": "nonpayable",
      "type": "function"
    },
    {
      "inputs": [
        {
          "internalType": "address",
          "name": "newOwner",
          "type": "address"
        }
      ],
      "name": "transferOwnership",
      "outputs": [],
      "stateMutability": "nonpayable",
      "type": "function"
    }
  ],
  "transactionHash": "0x568b419629d8063abe15719c4c8120c3af78c676797bb13b931ba6581126cde5",
  "args": [
    "0xca5AD04d2b42985134BB2E85E78CA6f143787e3B",
    "0xca5AD04d2b42985134BB2E85E78CA6f143787e3B",
    0
  ],
  "numDeployments": 7,
  "solcInputHash": "57ae5dc080f456964795970a959eb1dd",
  "bytecode": "0x60806040523480156200001157600080fd5b50604051620043ec380380620043ec833981016040819052620000349162000204565b6200003f3362000069565b6200004a83620000b9565b62000055826200012a565b620000608162000197565b50505062000244565b600080546001600160a01b038381166001600160a01b0319831681178455604051919092169283917f8be0079c531659141344cd1fd0a4f28419497f9722a3daafe3b4186f6b6457e09190a35050565b6000546001600160a01b03163314620001085760405162461bcd60e51b81526020600482018190526024820152600080516020620043cc83398151915260448201526064015b60405180910390fd5b600180546001600160a01b0319166001600160a01b0392909216919091179055565b6000546001600160a01b03163314620001755760405162461bcd60e51b81526020600482018190526024820152600080516020620043cc8339815191526044820152606401620000ff565b600280546001600160a01b0319166001600160a01b0392909216919091179055565b6000546001600160a01b03163314620001e25760405162461bcd60e51b81526020600482018190526024820152600080516020620043cc8339815191526044820152606401620000ff565b600355565b80516001600160a01b0381168114620001ff57600080fd5b919050565b60008060006060848603121562000219578283fd5b6200022484620001e7565b92506200023460208501620001e7565b9150604084015190509250925092565b61417880620002546000396000f3fe608060405260043610620000915760003560e01c80638da5cb5b11620000605780638da5cb5b1462000131578063a42dce801462000151578063b0bc30d31462000176578063ca29e8c8146200018d578063f2fde38b14620001af57600080fd5b80636b39268014620000965780636c19e78314620000bd578063715018a614620000e25780637ac3c02f14620000fa575b600080fd5b348015620000a357600080fd5b50620000bb620000b5366004620007b9565b620001d4565b005b348015620000ca57600080fd5b50620000bb620000dc366004620006bc565b6200020f565b348015620000ef57600080fd5b50620000bb6200025e565b3480156200010757600080fd5b506001546001600160a01b03165b6040516001600160a01b03909116815260200160405180910390f35b3480156200013e57600080fd5b506000546001600160a01b031662000115565b3480156200015e57600080fd5b50620000bb62000170366004620006bc565b62000299565b620000bb62000187366004620006e0565b620002e8565b3480156200019a57600080fd5b5060015462000115906001600160a01b031681565b348015620001bc57600080fd5b50620000bb620001ce366004620006bc565b62000415565b6000546001600160a01b031633146200020a5760405162461bcd60e51b815260040162000201906200090f565b60405180910390fd5b600355565b6000546001600160a01b031633146200023c5760405162461bcd60e51b815260040162000201906200090f565b600180546001600160a01b0319166001600160a01b0392909216919091179055565b6000546001600160a01b031633146200028b5760405162461bcd60e51b815260040162000201906200090f565b620002976000620004b7565b565b6000546001600160a01b03163314620002c65760405162461bcd60e51b815260040162000201906200090f565b600280546001600160a01b0319166001600160a01b0392909216919091179055565b60006003541180156200030557506002546001600160a01b031615155b1562000386576002546003546040516000926001600160a01b031691908381818185875af1925050503d80600081146200035c576040519150601f19603f3d011682016040523d82523d6000602084013e62000361565b606091505b50509050806200038457604051630b2f05f960e11b815260040160405180910390fd5b505b6000868686868686306040516200039d9062000507565b620003af979695949392919062000857565b604051809103906000f080158015620003cc573d6000803e3d6000fd5b506040516001600160a01b03821681529091507fdc172423e65e4eb718110c42ad3b66ac4b0a613e4d07bfb55f2477f2d1bf34eb9060200160405180910390a150505050505050565b6000546001600160a01b03163314620004425760405162461bcd60e51b815260040162000201906200090f565b6001600160a01b038116620004a95760405162461bcd60e51b815260206004820152602660248201527f4f776e61626c653a206e6577206f776e657220697320746865207a65726f206160448201526564647265737360d01b606482015260840162000201565b620004b481620004b7565b50565b600080546001600160a01b038381166001600160a01b0319831681178455604051919092169283917f8be0079c531659141344cd1fd0a4f28419497f9722a3daafe3b4186f6b6457e09190a35050565b61376180620009e283390190565b80356001600160a01b03811681146200052d57600080fd5b919050565b600082601f83011262000543578081fd5b813560206200055c6200055683620009a4565b62000970565b80838252828201915082860187848660051b89010111156200057c578586fd5b855b85811015620005a557620005928262000515565b845292840192908401906001016200057e565b5090979650505050505050565b600082601f830112620005c3578081fd5b81356020620005d66200055683620009a4565b80838252828201915082860187848660061b8901011115620005f6578586fd5b855b85811015620005a557604080838b03121562000612578788fd5b6200061c62000944565b833581526200062d878501620006a9565b818801528552938501939190910190600101620005f8565b600082601f83011262000656578081fd5b81356020620006696200055683620009a4565b80838252828201915082860187848660051b890101111562000689578586fd5b855b85811015620005a5578135845292840192908401906001016200068b565b803561ffff811681146200052d57600080fd5b600060208284031215620006ce578081fd5b620006d98262000515565b9392505050565b60008060008060008060c08789031215620006f9578182fd5b620007048762000515565b9550602087013567ffffffffffffffff8082111562000721578384fd5b6200072f8a838b0162000532565b9650604089013591508082111562000745578384fd5b620007538a838b0162000532565b9550606089013591508082111562000769578384fd5b620007778a838b0162000645565b94506200078760808a01620006a9565b935060a08901359150808211156200079d578283fd5b50620007ac89828a01620005b2565b9150509295509295509295565b600060208284031215620007cb578081fd5b5035919050565b6000815180845260208085019450808401835b838110156200080c5781516001600160a01b031687529582019590820190600101620007e5565b509495945050505050565b6000815180845260208085019450808401835b838110156200080c5781518051885283015161ffff1683880152604090960195908201906001016200082a565b6001600160a01b038816815260e060208083018290526000916200087e9084018a620007d2565b838103604085015262000892818a620007d2565b84810360608601528851808252838a01925090830190845b81811015620008c857835183529284019291840191600101620008aa565b505061ffff8816608086015284810360a0860152620008e8818862000817565b93505050506200090360c08301846001600160a01b03169052565b98975050505050505050565b6020808252818101527f4f776e61626c653a2063616c6c6572206973206e6f7420746865206f776e6572604082015260600190565b6040805190810167ffffffffffffffff811182821017156200096a576200096a620009cb565b60405290565b604051601f8201601f1916810167ffffffffffffffff811182821017156200099c576200099c620009cb565b604052919050565b600067ffffffffffffffff821115620009c157620009c1620009cb565b5060051b60200190565b634e487b7160e01b600052604160045260246000fdfe60806040523480156200001157600080fd5b5060405162003761380380620037618339810160408190526200003491620009ed565b84848051825114620000a85760405162461bcd60e51b815260206004820152603260248201527f5061796d656e7453706c69747465723a2070617965657320616e6420736861726044820152710cae640d8cadccee8d040dad2e6dac2e8c6d60731b60648201526084015b60405180910390fd5b6000825111620000fb5760405162461bcd60e51b815260206004820152601a60248201527f5061796d656e7453706c69747465723a206e6f2070617965657300000000000060448201526064016200009f565b60005b82518110156200017f576200016a8382815181106200012d57634e487b7160e01b600052603260045260246000fd5b60200260200101518383815181106200015657634e487b7160e01b600052603260045260246000fd5b6020026020010151620004d260201b60201c565b80620001768162000b79565b915050620000fe565b50505060648361ffff161115620001a957604051631fd655cd60e11b815260040160405180910390fd5b6009805462ffff00191661010061ffff861602179055815160018114156200026757600083600081518110620001ef57634e487b7160e01b600052603260045260246000fd5b602002602001015190506200020a81620006be60201b60201c565b600a805460018101825560009190915281516000805160206200372183398151915260029092029182015560209091015160008051602062003701833981519152909101805461ffff191661ffff90921691909117905562000419565b600181111562000419576040805180820190915260008082526020820152604080518082019091526000808252602082015284600081518110620002bb57634e487b7160e01b600052603260045260246000fd5b60200260200101519050620002d681620006be60201b60201c565b600a805460018082018355600092909252825160008051602062003721833981519152600290920291820155602083015160008051602062003701833981519152909101805461ffff191661ffff9092169190911790555b8381101562000415578192508581815181106200035b57634e487b7160e01b600052603260045260246000fd5b60200260200101519150816000015183600001511015806200038d5750816020015161ffff16836020015161ffff1611155b15620003ac57604051638ebf7c8f60e01b815260040160405180910390fd5b620003b782620006be565b600a805460018082018355600092909252835160008051602062003721833981519152600290920291820155602084015160008051602062003701833981519152909101805461ffff191661ffff909216919091179055016200032e565b5050505b62000426600089620006ec565b620004416000805160206200374183398151915289620006ec565b865160005b81811015620004a15762000498600080516020620037418339815191528a83815181106200048457634e487b7160e01b600052603260045260246000fd5b6020026020010151620006ec60201b60201c565b60010162000446565b5050600d80546001600160a01b0319166001600160a01b0393909316929092179091555062000bc395505050505050565b6001600160a01b0382166200053f5760405162461bcd60e51b815260206004820152602c60248201527f5061796d656e7453706c69747465723a206163636f756e74206973207468652060448201526b7a65726f206164647265737360a01b60648201526084016200009f565b60008111620005915760405162461bcd60e51b815260206004820152601d60248201527f5061796d656e7453706c69747465723a2073686172657320617265203000000060448201526064016200009f565b6001600160a01b038216600090815260026020526040902054156200060d5760405162461bcd60e51b815260206004820152602b60248201527f5061796d656e7453706c69747465723a206163636f756e7420616c726561647960448201526a206861732073686172657360a81b60648201526084016200009f565b60048054600181019091557f8a35acfbc15ff81a39ae7d344fd709f28e8600b4aa8c65c6b64bfe7fe36bd19b0180546001600160a01b0319166001600160a01b0384169081179091556000908152600260205260408120829055546200067590829062000b5e565b600055604080516001600160a01b0384168152602081018390527f40c340f65e17194d14ddddb073d3c9f888e3cb52b5aae0c6c7706b4fbc905fac910160405180910390a15050565b6064816020015161ffff161115620006e9576040516324999a8f60e21b815260040160405180910390fd5b50565b6200070382826200072f60201b620012aa1760201c565b60008281526008602090815260409091206200072a91839062001330620007d4821b17901c565b505050565b60008281526007602090815260408083206001600160a01b038516845290915290205460ff16620007d05760008281526007602090815260408083206001600160a01b03851684529091529020805460ff191660011790556200078f3390565b6001600160a01b0316816001600160a01b0316837f2f8788117e7eff1d82e926ec794901d17c78024a50270940304540a733656f0d60405160405180910390a45b5050565b6000620007eb836001600160a01b038416620007f4565b90505b92915050565b60008181526001830160205260408120546200083d57508154600181810184556000848152602080822090930184905584548482528286019093526040902091909155620007ee565b506000620007ee565b80516001600160a01b03811681146200085e57600080fd5b919050565b600082601f83011262000874578081fd5b815160206200088d620008878362000b38565b62000b05565b80838252828201915082860187848660051b8901011115620008ad578586fd5b855b85811015620008d657620008c38262000846565b84529284019290840190600101620008af565b5090979650505050505050565b600082601f830112620008f4578081fd5b8151602062000907620008878362000b38565b80838252828201915082860187848660061b890101111562000927578586fd5b855b85811015620008d657604080838b03121562000943578788fd5b6200094d62000ada565b835181526200095e878501620009da565b81880152855293850193919091019060010162000929565b600082601f83011262000987578081fd5b815160206200099a620008878362000b38565b80838252828201915082860187848660051b8901011115620009ba578586fd5b855b85811015620008d657815184529284019290840190600101620009bc565b805161ffff811681146200085e57600080fd5b600080600080600080600060e0888a03121562000a08578283fd5b62000a138862000846565b60208901519097506001600160401b038082111562000a30578485fd5b62000a3e8b838c0162000863565b975060408a015191508082111562000a54578485fd5b62000a628b838c0162000863565b965060608a015191508082111562000a78578485fd5b62000a868b838c0162000976565b955062000a9660808b01620009da565b945060a08a015191508082111562000aac578384fd5b5062000abb8a828b01620008e3565b92505062000acc60c0890162000846565b905092959891949750929550565b604080519081016001600160401b038111828210171562000aff5762000aff62000bad565b60405290565b604051601f8201601f191681016001600160401b038111828210171562000b305762000b3062000bad565b604052919050565b60006001600160401b0382111562000b545762000b5462000bad565b5060051b60200190565b6000821982111562000b745762000b7462000b97565b500190565b600060001982141562000b905762000b9062000b97565b5060010190565b634e487b7160e01b600052601160045260246000fd5b634e487b7160e01b600052604160045260246000fd5b612b2e8062000bd36000396000f3fe6080604052600436106101bb5760003560e01c80638b83209b116100ec578063ca15c8731161008a578063d547741f11610064578063d547741f14610596578063d79779b2146105b6578063e33b7de3146105ec578063fab480f41461060157600080fd5b8063ca15c87314610520578063ce7c2ac214610540578063d2fd101b1461057657600080fd5b80639852595c116100c65780639852595c146104ad578063a217fddf146104e3578063bc157ac1146104f8578063c163de3d1461050b57600080fd5b80638b83209b146104355780639010d07c1461046d57806391d148541461048d57600080fd5b806336568abe1161015957806340e58ee51161013357806340e58ee5146103b957806348b75044146103d9578063597e1fb5146103f9578063700d4aec1461041357600080fd5b806336568abe1461033e5780633a98ef391461035e578063406072a91461037357600080fd5b8063245a91a311610195578063245a91a314610293578063245dc4c9146102b3578063248a9ca3146102e05780632f2ff15d1461031e57600080fd5b806301ffc9a714610209578063129f33171461023e578063191655871461027157600080fd5b36610204577f6ef95f06320e7a25a04a175ca677b7052bdd97131872c2192525a629f51be77033604080516001600160a01b0390921682523460208301520160405180910390a1005b600080fd5b34801561021557600080fd5b5061022961022436600461262c565b610621565b60405190151581526020015b60405180910390f35b34801561024a57600080fd5b5060095461025e90610100900461ffff1681565b60405161ffff9091168152602001610235565b34801561027d57600080fd5b5061029161028c3660046124fc565b61064c565b005b34801561029f57600080fd5b506102296102ae3660046125c4565b610783565b3480156102bf57600080fd5b506102d36102ce366004612534565b6107a8565b6040516102359190612833565b3480156102ec57600080fd5b506103106102fb3660046125c4565b60009081526007602052604090206001015490565b604051908152602001610235565b34801561032a57600080fd5b506102916103393660046125dc565b61088f565b34801561034a57600080fd5b506102916103593660046125dc565b6108b9565b34801561036a57600080fd5b50600054610310565b34801561037f57600080fd5b5061031061038e366004612654565b6001600160a01b03918216600090815260066020908152604080832093909416825291909152205490565b3480156103c557600080fd5b506102916103d43660046125c4565b610937565b3480156103e557600080fd5b506102916103f4366004612654565b6109dd565b34801561040557600080fd5b506009546102299060ff1681565b34801561041f57600080fd5b50610428610bc5565b60405161023591906128cc565b34801561044157600080fd5b506104556104503660046125c4565b610cef565b6040516001600160a01b039091168152602001610235565b34801561047957600080fd5b5061045561048836600461260b565b610d2d565b34801561049957600080fd5b506102296104a83660046125dc565b610d4c565b3480156104b957600080fd5b506103106104c83660046124fc565b6001600160a01b031660009081526003602052604090205490565b3480156104ef57600080fd5b50610310600081565b610291610506366004612699565b610d77565b34801561051757600080fd5b50610291610f7a565b34801561052c57600080fd5b5061031061053b3660046125c4565b61101d565b34801561054c57600080fd5b5061031061055b3660046124fc565b6001600160a01b031660009081526002602052604090205490565b34801561058257600080fd5b506102916105913660046126d0565b611034565b3480156105a257600080fd5b506102916105b13660046125dc565b6110f5565b3480156105c257600080fd5b506103106105d13660046124fc565b6001600160a01b031660009081526005602052604090205490565b3480156105f857600080fd5b50600154610310565b34801561060d57600080fd5b5061029161061c3660046126d0565b61111a565b60006001600160e01b03198216635a05180f60e01b1480610646575061064682611345565b92915050565b6001600160a01b03811660009081526002602052604090205461068a5760405162461bcd60e51b815260040161068190612952565b60405180910390fd5b600061069560015490565b61069f90476129e3565b905060006106cc83836106c7866001600160a01b031660009081526003602052604090205490565b61137a565b9050806106eb5760405162461bcd60e51b815260040161068190612998565b6001600160a01b038316600090815260036020526040812080548392906107139084906129e3565b92505081905550806001600082825461072c91906129e3565b9091555061073c905083826113bd565b604080516001600160a01b0385168152602081018390527fdf20fd1e76bc69d672e4814fafb2c449bba3a5369d8359adf9e05e6fde87b056910160405180910390a1505050565b60095460009060ff16806106465750506000908152600b602052604090205460ff1690565b6060818067ffffffffffffffff8111156107d257634e487b7160e01b600052604160045260246000fd5b60405190808252806020026020018201604052801561080557816020015b60608152602001906001900390816107f05790505b50915060005b818161ffff16101561088757600061084c86868461ffff1681811061084057634e487b7160e01b600052603260045260246000fd5b905060200201356114d6565b905080848361ffff168151811061087357634e487b7160e01b600052603260045260246000fd5b60209081029190910101525060010161080b565b505092915050565b6000828152600760205260409020600101546108aa8161155e565b6108b4838361156b565b505050565b6001600160a01b03811633146109295760405162461bcd60e51b815260206004820152602f60248201527f416363657373436f6e74726f6c3a2063616e206f6e6c792072656e6f756e636560448201526e103937b632b9903337b91039b2b63360891b6064820152608401610681565b610933828261158d565b5050565b6109617fb012ba8c7281edbf1d476d7a0eccd3cb202b439a7f0a8f6c574f02e5df5c10b133610d4c565b61097e57604051634ca8886760e01b815260040160405180910390fd5b6000818152600b6020526040808220805460ff19166001179055517f3fdad7f8cdfcd1b65d4d09d35f3a990abd6d5cf186ba129cfb4abbf332cf961b916109d2918491909182521515602082015260400190565b60405180910390a150565b6001600160a01b038116600090815260026020526040902054610a125760405162461bcd60e51b815260040161068190612952565b6001600160a01b0382166000908152600560205260408120546040516370a0823160e01b81523060048201526001600160a01b038516906370a082319060240160206040518083038186803b158015610a6a57600080fd5b505afa158015610a7e573d6000803e3d6000fd5b505050506040513d601f19601f82011682018060405250810190610aa29190612681565b610aac91906129e3565b90506000610ae583836106c787876001600160a01b03918216600090815260066020908152604080832093909416825291909152205490565b905080610b045760405162461bcd60e51b815260040161068190612998565b6001600160a01b03808516600090815260066020908152604080832093871683529290529081208054839290610b3b9084906129e3565b90915550506001600160a01b03841660009081526005602052604081208054839290610b689084906129e3565b90915550610b7990508484836115af565b604080516001600160a01b038581168252602082018490528616917f3be5b7a71e84ed12875d241991c70855ac5817d847039e17a9d895c1ceb0f18a910160405180910390a250505050565b600a5460609060008167ffffffffffffffff811115610bf457634e487b7160e01b600052604160045260246000fd5b604051908082528060200260200182016040528015610c3957816020015b6040805180820190915260008082526020820152815260200190600190039081610c125790505b50905060005b82811015610ce8576000600a8281548110610c6a57634e487b7160e01b600052603260045260246000fd5b60009182526020918290206040805180820182526002909302909101805483526001015461ffff9081168385019081528251808401909352835183525116928101929092528451909250849084908110610cd457634e487b7160e01b600052603260045260246000fd5b602090810291909101015250600101610c3f565b5092915050565b600060048281548110610d1257634e487b7160e01b600052603260045260246000fd5b6000918252602090912001546001600160a01b031692915050565b6000828152600860205260408120610d459083611601565b9392505050565b60009182526007602090815260408084206001600160a01b0393909316845291905290205460ff1690565b60095460ff1615610d9b57604051638819799d60e01b815260040160405180910390fd5b3481610dba5760405163162908e360e11b815260040160405180910390fd5b6000848152600b602052604090205460ff1615610dea5760405163b8f8d1f760e01b815260040160405180910390fd5b6001600160a01b038316158015908190610e0357508115155b80610e17575080158015610e175750828214155b15610e355760405163fe9ba5cd60e01b815260040160405180910390fd5b338115610ec6576040516323b872dd60e01b81526001600160a01b038281166004830152306024830152604482018690528616906323b872dd90606401602060405180830381600087803b158015610e8c57600080fd5b505af1158015610ea0573d6000803e3d6000fd5b505050506040513d601f19601f82011682018060405250810190610ec491906125a4565b505b6000868152600c60209081526040808320815180830183526001600160a01b038a81168083528286018b8152845460018082018755958952978790209351600290980290930180546001600160a01b0319169783169790971787559151959092019490945581519085168152918201899052810191909152606081018590527fde50620a8362ed2d89afd08b856fe6db50ad03c096d5f6e10a7ce71ee5359de39060800160405180910390a1505050505050565b610fa47fb012ba8c7281edbf1d476d7a0eccd3cb202b439a7f0a8f6c574f02e5df5c10b133610d4c565b610fc157604051634ca8886760e01b815260040160405180910390fd5b60095460ff1615610fe557604051638819799d60e01b815260040160405180910390fd5b6009805460ff191660011790556040517fc67401958d8f4f70d6e5fb87c0190c6f0df5a05a8926d934f81c7491e7402f4790600090a1565b60008181526008602052604081206106469061160d565b3361103e84610783565b61105b576040516332d6d8f560e21b815260040160405180910390fd5b6110ad8185600960019054906101000a900461ffff1686868080601f01602080910402602001604051908101604052809392919081815260200183838082843760009201919091525061161792505050565b604080516001600160a01b0383168152602081018690527fe6cdcbc54159ba58a71f3aae716b81d82506c6fc76a7383e605e7e365d834425910160405180910390a150505050565b6000828152600760205260409020600101546111108161155e565b6108b4838361158d565b60095460ff161561113e57604051638819799d60e01b815260040160405180910390fd5b6000838152600b602052604090205460ff161561116e5760405163b8f8d1f760e01b815260040160405180910390fd5b600a54600090815b81811015611208576000600a826001600a805490506111959190612a2e565b61119f9190612a2e565b815481106111bd57634e487b7160e01b600052603260045260246000fd5b600091825260209182902060408051808201909152600290920201805480835260019091015461ffff169282019290925291504210156111ff57806020015193505b50600101611176565b506000858152600b60205260409020805460ff1916600117905561126a61122c3390565b868487878080601f01602080910402602001604051908101604052809392919081815260200183838082843760009201919091525061161792505050565b60408051868152600160208201527f3fdad7f8cdfcd1b65d4d09d35f3a990abd6d5cf186ba129cfb4abbf332cf961b910160405180910390a15050505050565b6112b48282610d4c565b6109335760008281526007602090815260408083206001600160a01b03851684529091529020805460ff191660011790556112ec3390565b6001600160a01b0316816001600160a01b0316837f2f8788117e7eff1d82e926ec794901d17c78024a50270940304540a733656f0d60405160405180910390a45050565b6000610d45836001600160a01b0384166117ff565b60006001600160e01b03198216637965db0b60e01b148061064657506301ffc9a760e01b6001600160e01b0319831614610646565b600080546001600160a01b0385168252600260205260408220548391906113a19086612a0f565b6113ab91906129fb565b6113b59190612a2e565b949350505050565b8047101561140d5760405162461bcd60e51b815260206004820152601d60248201527f416464726573733a20696e73756666696369656e742062616c616e63650000006044820152606401610681565b6000826001600160a01b03168260405160006040518083038185875af1925050503d806000811461145a576040519150601f19603f3d011682016040523d82523d6000602084013e61145f565b606091505b50509050806108b45760405162461bcd60e51b815260206004820152603a60248201527f416464726573733a20756e61626c6520746f2073656e642076616c75652c207260448201527f6563697069656e74206d617920686176652072657665727465640000000000006064820152608401610681565b6060600c6000838152602001908152602001600020805480602002602001604051908101604052809291908181526020016000905b82821015611553576000848152602090819020604080518082019091526002850290910180546001600160a01b0316825260019081015482840152908352909201910161150b565b505050509050919050565b611568813361184e565b50565b61157582826112aa565b60008281526008602052604090206108b49082611330565b61159782826118b2565b60008281526008602052604090206108b49082611919565b604080516001600160a01b038416602482015260448082018490528251808303909101815260649091019091526020810180516001600160e01b031663a9059cbb60e01b1790526108b490849061192e565b6000610d458383611a00565b6000610646825490565b6116218382611a38565b61ffff821661162f576117f9565b600061163a846114d6565b905080516000141561165f5760405163d1dafa8560e01b815260040160405180910390fd5b6000848152600c60205260408120611676916124b6565b805160005b818161ffff1610156117f5576000838261ffff16815181106116ad57634e487b7160e01b600052603260045260246000fd5b60200260200101519050600060648761ffff1683602001516116cf9190612a0f565b6116d991906129fb565b82519091506001600160a01b0316611764576000896001600160a01b03168260405160006040518083038185875af1925050503d8060008114611738576040519150601f19603f3d011682016040523d82523d6000602084013e61173d565b606091505b505090508061175e576040516202d94960ed1b815260040160405180910390fd5b506117eb565b815160405163a9059cbb60e01b81526001600160a01b038b81166004830152602482018490529091169063a9059cbb90604401602060405180830381600087803b1580156117b157600080fd5b505af11580156117c5573d6000803e3d6000fd5b505050506040513d601f19601f820116820180604052508101906117e991906125a4565b505b505060010161167b565b5050505b50505050565b600081815260018301602052604081205461184657508154600181810184556000848152602080822090930184905584548482528286019093526040902091909155610646565b506000610646565b6118588282610d4c565b61093357611870816001600160a01b03166014611b2e565b61187b836020611b2e565b60405160200161188c9291906127be565b60408051601f198184030181529082905262461bcd60e51b82526106819160040161291f565b6118bc8282610d4c565b156109335760008281526007602090815260408083206001600160a01b0385168085529252808320805460ff1916905551339285917ff6391f5c32d9c69d2a47ea670b442974b53935d1edc7fd64eb21e047a839171b9190a45050565b6000610d45836001600160a01b038416611d10565b6000611983826040518060400160405280602081526020017f5361666545524332303a206c6f772d6c6576656c2063616c6c206661696c6564815250856001600160a01b0316611e2d9092919063ffffffff16565b8051909150156108b457808060200190518101906119a191906125a4565b6108b45760405162461bcd60e51b815260206004820152602a60248201527f5361666545524332303a204552433230206f7065726174696f6e20646964206e6044820152691bdd081cdd58d8d9595960b21b6064820152608401610681565b6000826000018281548110611a2557634e487b7160e01b600052603260045260246000fd5b9060005260206000200154905092915050565b6000611a6e82611a6885604051602001611a5491815260200190565b604051602081830303815290604052611e3c565b90611e77565b90506000600d60009054906101000a90046001600160a01b03166001600160a01b0316637ac3c02f6040518163ffffffff1660e01b8152600401602060405180830381600087803b158015611ac257600080fd5b505af1158015611ad6573d6000803e3d6000fd5b505050506040513d601f19601f82011682018060405250810190611afa9190612518565b9050806001600160a01b0316826001600160a01b0316146117f957604051632057875960e21b815260040160405180910390fd5b60606000611b3d836002612a0f565b611b489060026129e3565b67ffffffffffffffff811115611b6e57634e487b7160e01b600052604160045260246000fd5b6040519080825280601f01601f191660200182016040528015611b98576020820181803683370190505b509050600360fc1b81600081518110611bc157634e487b7160e01b600052603260045260246000fd5b60200101906001600160f81b031916908160001a905350600f60fb1b81600181518110611bfe57634e487b7160e01b600052603260045260246000fd5b60200101906001600160f81b031916908160001a9053506000611c22846002612a0f565b611c2d9060016129e3565b90505b6001811115611cc1576f181899199a1a9b1b9c1cb0b131b232b360811b85600f1660108110611c6f57634e487b7160e01b600052603260045260246000fd5b1a60f81b828281518110611c9357634e487b7160e01b600052603260045260246000fd5b60200101906001600160f81b031916908160001a90535060049490941c93611cba81612a71565b9050611c30565b508315610d455760405162461bcd60e51b815260206004820181905260248201527f537472696e67733a20686578206c656e67746820696e73756666696369656e746044820152606401610681565b60008181526001830160205260408120548015611e23576000611d34600183612a2e565b8554909150600090611d4890600190612a2e565b9050818114611dc9576000866000018281548110611d7657634e487b7160e01b600052603260045260246000fd5b9060005260206000200154905080876000018481548110611da757634e487b7160e01b600052603260045260246000fd5b6000918252602080832090910192909255918252600188019052604090208390555b8554869080611de857634e487b7160e01b600052603160045260246000fd5b600190038181906000526020600020016000905590558560010160008681526020019081526020016000206000905560019350505050610646565b6000915050610646565b60606113b58484600085611e9b565b6000611e488251611fcc565b82604051602001611e5a929190612763565b604051602081830303815290604052805190602001209050919050565b6000806000611e8685856120e6565b91509150611e9381612156565b509392505050565b606082471015611efc5760405162461bcd60e51b815260206004820152602660248201527f416464726573733a20696e73756666696369656e742062616c616e636520666f6044820152651c8818d85b1b60d21b6064820152608401610681565b6001600160a01b0385163b611f535760405162461bcd60e51b815260206004820152601d60248201527f416464726573733a2063616c6c20746f206e6f6e2d636f6e74726163740000006044820152606401610681565b600080866001600160a01b03168587604051611f6f9190612747565b60006040518083038185875af1925050503d8060008114611fac576040519150601f19603f3d011682016040523d82523d6000602084013e611fb1565b606091505b5091509150611fc1828286612357565b979650505050505050565b606081611ff05750506040805180820190915260018152600360fc1b602082015290565b8160005b811561201a578061200481612a88565b91506120139050600a836129fb565b9150611ff4565b60008167ffffffffffffffff81111561204357634e487b7160e01b600052604160045260246000fd5b6040519080825280601f01601f19166020018201604052801561206d576020820181803683370190505b5090505b84156113b557612082600183612a2e565b915061208f600a86612aa3565b61209a9060306129e3565b60f81b8183815181106120bd57634e487b7160e01b600052603260045260246000fd5b60200101906001600160f81b031916908160001a9053506120df600a866129fb565b9450612071565b60008082516041141561211d5760208301516040840151606085015160001a61211187828585612390565b9450945050505061214f565b825160401415612147576020830151604084015161213c86838361247d565b93509350505061214f565b506000905060025b9250929050565b600081600481111561217857634e487b7160e01b600052602160045260246000fd5b14156121815750565b60018160048111156121a357634e487b7160e01b600052602160045260246000fd5b14156121f15760405162461bcd60e51b815260206004820152601860248201527f45434453413a20696e76616c6964207369676e617475726500000000000000006044820152606401610681565b600281600481111561221357634e487b7160e01b600052602160045260246000fd5b14156122615760405162461bcd60e51b815260206004820152601f60248201527f45434453413a20696e76616c6964207369676e6174757265206c656e677468006044820152606401610681565b600381600481111561228357634e487b7160e01b600052602160045260246000fd5b14156122dc5760405162461bcd60e51b815260206004820152602260248201527f45434453413a20696e76616c6964207369676e6174757265202773272076616c604482015261756560f01b6064820152608401610681565b60048160048111156122fe57634e487b7160e01b600052602160045260246000fd5b14156115685760405162461bcd60e51b815260206004820152602260248201527f45434453413a20696e76616c6964207369676e6174757265202776272076616c604482015261756560f01b6064820152608401610681565b60608315612366575081610d45565b8251156123765782518084602001fd5b8160405162461bcd60e51b8152600401610681919061291f565b6000807f7fffffffffffffffffffffffffffffff5d576e7357a4501ddfe92f46681b20a08311156123c75750600090506003612474565b8460ff16601b141580156123df57508460ff16601c14155b156123f05750600090506004612474565b6040805160008082526020820180845289905260ff881692820192909252606081018690526080810185905260019060a0016020604051602081039080840390855afa158015612444573d6000803e3d6000fd5b5050604051601f1901519150506001600160a01b03811661246d57600060019250925050612474565b9150600090505b94509492505050565b6000806001600160ff1b0383168161249a60ff86901c601b6129e3565b90506124a887828885612390565b935093505050935093915050565b508054600082556002029060005260206000209081019061156891905b808211156124f85780546001600160a01b0319168155600060018201556002016124d3565b5090565b60006020828403121561250d578081fd5b8135610d4581612ae3565b600060208284031215612529578081fd5b8151610d4581612ae3565b60008060208385031215612546578081fd5b823567ffffffffffffffff8082111561255d578283fd5b818501915085601f830112612570578283fd5b81358181111561257e578384fd5b8660208260051b8501011115612592578384fd5b60209290920196919550909350505050565b6000602082840312156125b5578081fd5b81518015158114610d45578182fd5b6000602082840312156125d5578081fd5b5035919050565b600080604083850312156125ee578182fd5b82359150602083013561260081612ae3565b809150509250929050565b6000806040838503121561261d578182fd5b50508035926020909101359150565b60006020828403121561263d578081fd5b81356001600160e01b031981168114610d45578182fd5b60008060408385031215612666578182fd5b823561267181612ae3565b9150602083013561260081612ae3565b600060208284031215612692578081fd5b5051919050565b6000806000606084860312156126ad578081fd5b8335925060208401356126bf81612ae3565b929592945050506040919091013590565b6000806000604084860312156126e4578283fd5b83359250602084013567ffffffffffffffff80821115612702578384fd5b818601915086601f830112612715578384fd5b813581811115612723578485fd5b876020828501011115612734578485fd5b6020830194508093505050509250925092565b60008251612759818460208701612a45565b9190910192915050565b7f19457468657265756d205369676e6564204d6573736167653a0a00000000000081526000835161279b81601a850160208801612a45565b8351908301906127b281601a840160208801612a45565b01601a01949350505050565b7f416363657373436f6e74726f6c3a206163636f756e74200000000000000000008152600083516127f6816017850160208801612a45565b7001034b99036b4b9b9b4b733903937b6329607d1b6017918401918201528351612827816028840160208801612a45565b01602801949350505050565b60006020808301818452808551808352604092508286019150828160051b870101848801865b838110156128be57888303603f190185528151805180855290880190888501908a5b818110156128a957835180516001600160a01b031684528b01518b840152928a01929189019160010161287b565b50509588019593505090860190600101612859565b509098975050505050505050565b602080825282518282018190526000919060409081850190868401855b828110156129125781518051855286015161ffff168685015292840192908501906001016128e9565b5091979650505050505050565b602081526000825180602084015261293e816040850160208701612a45565b601f01601f19169190910160400192915050565b60208082526026908201527f5061796d656e7453706c69747465723a206163636f756e7420686173206e6f2060408201526573686172657360d01b606082015260800190565b6020808252602b908201527f5061796d656e7453706c69747465723a206163636f756e74206973206e6f742060408201526a191d59481c185e5b595b9d60aa1b606082015260800190565b600082198211156129f6576129f6612ab7565b500190565b600082612a0a57612a0a612acd565b500490565b6000816000190483118215151615612a2957612a29612ab7565b500290565b600082821015612a4057612a40612ab7565b500390565b60005b83811015612a60578181015183820152602001612a48565b838111156117f95750506000910152565b600081612a8057612a80612ab7565b506000190190565b6000600019821415612a9c57612a9c612ab7565b5060010190565b600082612ab257612ab2612acd565b500690565b634e487b7160e01b600052601160045260246000fd5b634e487b7160e01b600052601260045260246000fd5b6001600160a01b038116811461156857600080fdfea2646970667358221220c55fa6bec6e41e05ca20b1c2a9a0f5e6cd55f4a2663df280da7abf011b8a9d9064736f6c63430008040033c65a7bb8d6351c1cf70c95a316cc6a92839c986682d98bc35f958f4883f9d2a9c65a7bb8d6351c1cf70c95a316cc6a92839c986682d98bc35f958f4883f9d2a8b012ba8c7281edbf1d476d7a0eccd3cb202b439a7f0a8f6c574f02e5df5c10b1a2646970667358221220c61bdbbcc80cfb39ecd83aafca5d01a9f85ba2cd9afac1cd733a1456200ca9e964736f6c634300080400334f776e61626c653a2063616c6c6572206973206e6f7420746865206f776e6572",
  "devdoc": {
    "kind": "dev",
    "methods": {
      "owner()": {
        "details": "Returns the address of the current owner."
      },
      "renounceOwnership()": {
        "details": "Leaves the contract without owner. It will not be possible to call `onlyOwner` functions anymore. Can only be called by the current owner. NOTE: Renouncing ownership will leave the contract without an owner, thereby removing any functionality that is only available to the owner."
      },
      "transferOwnership(address)": {
        "details": "Transfers ownership of the contract to a new account (`newOwner`). Can only be called by the current owner."
      }
    },
    "version": 1
  },
  "userdoc": {
    "kind": "user",
    "methods": {},
    "version": 1
  },
  "storageLayout": {
    "storage": [
      {
        "astId": 550,
        "contract": "contracts/escrow/LemonadeEscrowFactoryV1.sol:LemonadeEscrowFactoryV1",
        "label": "_owner",
        "offset": 0,
        "slot": "0",
        "type": "t_address"
      },
      {
        "astId": 3099,
        "contract": "contracts/escrow/LemonadeEscrowFactoryV1.sol:LemonadeEscrowFactoryV1",
        "label": "_signer",
        "offset": 0,
        "slot": "1",
        "type": "t_address"
      },
      {
        "astId": 3101,
        "contract": "contracts/escrow/LemonadeEscrowFactoryV1.sol:LemonadeEscrowFactoryV1",
        "label": "_feeCollector",
        "offset": 0,
        "slot": "2",
        "type": "t_address"
      },
      {
        "astId": 3103,
        "contract": "contracts/escrow/LemonadeEscrowFactoryV1.sol:LemonadeEscrowFactoryV1",
        "label": "_feeAmount",
        "offset": 0,
        "slot": "3",
        "type": "t_uint256"
      }
    ],
    "types": {
      "t_address": {
        "encoding": "inplace",
        "label": "address",
        "numberOfBytes": "20"
      },
      "t_uint256": {
        "encoding": "inplace",
        "label": "uint256",
        "numberOfBytes": "32"
      }
    }
  }
}