{
  "address": "0x2Ce257EEA89F56579f9eBBE124304A6ea123aC4e",
  "abi": [
    {
      "inputs": [
        {
          "internalType": "address",
          "name": "_initialSigner",
          "type": "address"
        }
      ],
      "stateMutability": "nonpayable",
      "type": "constructor"
    },
    {
      "anonymous": false,
      "inputs": [
        {
          "indexed": false,
          "internalType": "address",
          "name": "escrow",
          "type": "address"
        }
      ],
      "name": "EscrowCreated",
      "type": "event"
    },
    {
      "anonymous": false,
      "inputs": [
        {
          "indexed": true,
          "internalType": "address",
          "name": "previousOwner",
          "type": "address"
        },
        {
          "indexed": true,
          "internalType": "address",
          "name": "newOwner",
          "type": "address"
        }
      ],
      "name": "OwnershipTransferred",
      "type": "event"
    },
    {
      "inputs": [
        {
          "internalType": "address",
          "name": "owner",
          "type": "address"
        },
        {
          "internalType": "address[]",
          "name": "delegates",
          "type": "address[]"
        },
        {
          "internalType": "address[]",
          "name": "payees",
          "type": "address[]"
        },
        {
          "internalType": "uint256[]",
          "name": "shares",
          "type": "uint256[]"
        },
        {
          "internalType": "uint16",
          "name": "hostRefundPercent",
          "type": "uint16"
        },
        {
          "components": [
            {
              "internalType": "uint256",
              "name": "timestamp",
              "type": "uint256"
            },
            {
              "internalType": "uint16",
              "name": "percent",
              "type": "uint16"
            }
          ],
          "internalType": "struct RefundPolicy[]",
          "name": "refundPolicies",
          "type": "tuple[]"
        }
      ],
      "name": "createEscrow",
      "outputs": [],
      "stateMutability": "nonpayable",
      "type": "function"
    },
    {
      "inputs": [],
      "name": "getSigner",
      "outputs": [
        {
          "internalType": "address",
          "name": "",
          "type": "address"
        }
      ],
      "stateMutability": "view",
      "type": "function"
    },
    {
      "inputs": [],
      "name": "owner",
      "outputs": [
        {
          "internalType": "address",
          "name": "",
          "type": "address"
        }
      ],
      "stateMutability": "view",
      "type": "function"
    },
    {
      "inputs": [],
      "name": "renounceOwnership",
      "outputs": [],
      "stateMutability": "nonpayable",
      "type": "function"
    },
    {
      "inputs": [
        {
          "internalType": "address",
          "name": "signer",
          "type": "address"
        }
      ],
      "name": "setSigner",
      "outputs": [],
      "stateMutability": "nonpayable",
      "type": "function"
    },
    {
      "inputs": [
        {
          "internalType": "address",
          "name": "newOwner",
          "type": "address"
        }
      ],
      "name": "transferOwnership",
      "outputs": [],
      "stateMutability": "nonpayable",
      "type": "function"
    }
  ],
  "transactionHash": "0xf060b03f1d430f936d4415eda1734e77e6eff253c5adc78b0307198baac2803e",
  "args": [
    "0xca5AD04d2b42985134BB2E85E78CA6f143787e3B"
  ],
  "numDeployments": 6,
  "solcInputHash": "b53b30746b67cf0aacb340206f50e42d",
  "bytecode": "0x608060405234801561001057600080fd5b5060405161407e38038061407e83398101604081905261002f91610117565b61003833610047565b61004181610097565b50610145565b600080546001600160a01b038381166001600160a01b0319831681178455604051919092169283917f8be0079c531659141344cd1fd0a4f28419497f9722a3daafe3b4186f6b6457e09190a35050565b6000546001600160a01b031633146100f55760405162461bcd60e51b815260206004820181905260248201527f4f776e61626c653a2063616c6c6572206973206e6f7420746865206f776e6572604482015260640160405180910390fd5b600180546001600160a01b0319166001600160a01b0392909216919091179055565b600060208284031215610128578081fd5b81516001600160a01b038116811461013e578182fd5b9392505050565b613f2a806101546000396000f3fe60806040523480156200001157600080fd5b50600436106200006a5760003560e01c80636c19e783146200006f578063715018a614620000885780637ac3c02f14620000925780638da5cb5b14620000bb578063b0bc30d314620000cd578063f2fde38b14620000e4575b600080fd5b6200008662000080366004620004c4565b620000fb565b005b6200008662000153565b6001546001600160a01b03165b6040516001600160a01b03909116815260200160405180910390f35b6000546001600160a01b03166200009f565b62000086620000de366004620004e8565b6200018e565b62000086620000f5366004620004c4565b6200021d565b6000546001600160a01b03163314620001315760405162461bcd60e51b81526004016200012890620006fe565b60405180910390fd5b600180546001600160a01b0319166001600160a01b0392909216919091179055565b6000546001600160a01b03163314620001805760405162461bcd60e51b81526004016200012890620006fe565b6200018c6000620002bf565b565b600086868686868630604051620001a5906200030f565b620001b7979695949392919062000646565b604051809103906000f080158015620001d4573d6000803e3d6000fd5b506040516001600160a01b03821681529091507fdc172423e65e4eb718110c42ad3b66ac4b0a613e4d07bfb55f2477f2d1bf34eb9060200160405180910390a150505050505050565b6000546001600160a01b031633146200024a5760405162461bcd60e51b81526004016200012890620006fe565b6001600160a01b038116620002b15760405162461bcd60e51b815260206004820152602660248201527f4f776e61626c653a206e6577206f776e657220697320746865207a65726f206160448201526564647265737360d01b606482015260840162000128565b620002bc81620002bf565b50565b600080546001600160a01b038381166001600160a01b0319831681178455604051919092169283917f8be0079c531659141344cd1fd0a4f28419497f9722a3daafe3b4186f6b6457e09190a35050565b61372480620007d183390190565b80356001600160a01b03811681146200033557600080fd5b919050565b600082601f8301126200034b578081fd5b81356020620003646200035e8362000793565b6200075f565b80838252828201915082860187848660051b890101111562000384578586fd5b855b85811015620003ad576200039a826200031d565b8452928401929084019060010162000386565b5090979650505050505050565b600082601f830112620003cb578081fd5b81356020620003de6200035e8362000793565b80838252828201915082860187848660061b8901011115620003fe578586fd5b855b85811015620003ad57604080838b0312156200041a578788fd5b6200042462000733565b8335815262000435878501620004b1565b81880152855293850193919091019060010162000400565b600082601f8301126200045e578081fd5b81356020620004716200035e8362000793565b80838252828201915082860187848660051b890101111562000491578586fd5b855b85811015620003ad5781358452928401929084019060010162000493565b803561ffff811681146200033557600080fd5b600060208284031215620004d6578081fd5b620004e1826200031d565b9392505050565b60008060008060008060c0878903121562000501578182fd5b6200050c876200031d565b9550602087013567ffffffffffffffff8082111562000529578384fd5b620005378a838b016200033a565b965060408901359150808211156200054d578384fd5b6200055b8a838b016200033a565b9550606089013591508082111562000571578384fd5b6200057f8a838b016200044d565b94506200058f60808a01620004b1565b935060a0890135915080821115620005a5578283fd5b50620005b489828a01620003ba565b9150509295509295509295565b6000815180845260208085019450808401835b83811015620005fb5781516001600160a01b031687529582019590820190600101620005d4565b509495945050505050565b6000815180845260208085019450808401835b83811015620005fb5781518051885283015161ffff16838801526040909601959082019060010162000619565b6001600160a01b038816815260e060208083018290526000916200066d9084018a620005c1565b838103604085015262000681818a620005c1565b84810360608601528851808252838a01925090830190845b81811015620006b75783518352928401929184019160010162000699565b505061ffff8816608086015284810360a0860152620006d7818862000606565b9350505050620006f260c08301846001600160a01b03169052565b98975050505050505050565b6020808252818101527f4f776e61626c653a2063616c6c6572206973206e6f7420746865206f776e6572604082015260600190565b6040805190810167ffffffffffffffff81118282101715620007595762000759620007ba565b60405290565b604051601f8201601f1916810167ffffffffffffffff811182821017156200078b576200078b620007ba565b604052919050565b600067ffffffffffffffff821115620007b057620007b0620007ba565b5060051b60200190565b634e487b7160e01b600052604160045260246000fdfe60806040523480156200001157600080fd5b5060405162003724380380620037248339810160408190526200003491620009ed565b84848051825114620000a85760405162461bcd60e51b815260206004820152603260248201527f5061796d656e7453706c69747465723a2070617965657320616e6420736861726044820152710cae640d8cadccee8d040dad2e6dac2e8c6d60731b60648201526084015b60405180910390fd5b6000825111620000fb5760405162461bcd60e51b815260206004820152601a60248201527f5061796d656e7453706c69747465723a206e6f2070617965657300000000000060448201526064016200009f565b60005b82518110156200017f576200016a8382815181106200012d57634e487b7160e01b600052603260045260246000fd5b60200260200101518383815181106200015657634e487b7160e01b600052603260045260246000fd5b6020026020010151620004d260201b60201c565b80620001768162000b79565b915050620000fe565b50505060648361ffff161115620001a957604051631fd655cd60e11b815260040160405180910390fd5b6009805462ffff00191661010061ffff861602179055815160018114156200026757600083600081518110620001ef57634e487b7160e01b600052603260045260246000fd5b602002602001015190506200020a81620006be60201b60201c565b600a80546001810182556000919091528151600080516020620036e4833981519152600290920291820155602090910151600080516020620036c4833981519152909101805461ffff191661ffff90921691909117905562000419565b600181111562000419576040805180820190915260008082526020820152604080518082019091526000808252602082015284600081518110620002bb57634e487b7160e01b600052603260045260246000fd5b60200260200101519050620002d681620006be60201b60201c565b600a8054600180820183556000929092528251600080516020620036e48339815191526002909202918201556020830151600080516020620036c4833981519152909101805461ffff191661ffff9092169190911790555b8381101562000415578192508581815181106200035b57634e487b7160e01b600052603260045260246000fd5b60200260200101519150816000015183600001511015806200038d5750816020015161ffff16836020015161ffff1611155b15620003ac57604051638ebf7c8f60e01b815260040160405180910390fd5b620003b782620006be565b600a8054600180820183556000929092528351600080516020620036e48339815191526002909202918201556020840151600080516020620036c4833981519152909101805461ffff191661ffff909216919091179055016200032e565b5050505b62000426600089620006ec565b620004416000805160206200370483398151915289620006ec565b865160005b81811015620004a15762000498600080516020620037048339815191528a83815181106200048457634e487b7160e01b600052603260045260246000fd5b6020026020010151620006ec60201b60201c565b60010162000446565b5050600d80546001600160a01b0319166001600160a01b0393909316929092179091555062000bc395505050505050565b6001600160a01b0382166200053f5760405162461bcd60e51b815260206004820152602c60248201527f5061796d656e7453706c69747465723a206163636f756e74206973207468652060448201526b7a65726f206164647265737360a01b60648201526084016200009f565b60008111620005915760405162461bcd60e51b815260206004820152601d60248201527f5061796d656e7453706c69747465723a2073686172657320617265203000000060448201526064016200009f565b6001600160a01b038216600090815260026020526040902054156200060d5760405162461bcd60e51b815260206004820152602b60248201527f5061796d656e7453706c69747465723a206163636f756e7420616c726561647960448201526a206861732073686172657360a81b60648201526084016200009f565b60048054600181019091557f8a35acfbc15ff81a39ae7d344fd709f28e8600b4aa8c65c6b64bfe7fe36bd19b0180546001600160a01b0319166001600160a01b0384169081179091556000908152600260205260408120829055546200067590829062000b5e565b600055604080516001600160a01b0384168152602081018390527f40c340f65e17194d14ddddb073d3c9f888e3cb52b5aae0c6c7706b4fbc905fac910160405180910390a15050565b6064816020015161ffff161115620006e9576040516324999a8f60e21b815260040160405180910390fd5b50565b6200070382826200072f60201b620012aa1760201c565b60008281526008602090815260409091206200072a91839062001330620007d4821b17901c565b505050565b60008281526007602090815260408083206001600160a01b038516845290915290205460ff16620007d05760008281526007602090815260408083206001600160a01b03851684529091529020805460ff191660011790556200078f3390565b6001600160a01b0316816001600160a01b0316837f2f8788117e7eff1d82e926ec794901d17c78024a50270940304540a733656f0d60405160405180910390a45b5050565b6000620007eb836001600160a01b038416620007f4565b90505b92915050565b60008181526001830160205260408120546200083d57508154600181810184556000848152602080822090930184905584548482528286019093526040902091909155620007ee565b506000620007ee565b80516001600160a01b03811681146200085e57600080fd5b919050565b600082601f83011262000874578081fd5b815160206200088d620008878362000b38565b62000b05565b80838252828201915082860187848660051b8901011115620008ad578586fd5b855b85811015620008d657620008c38262000846565b84529284019290840190600101620008af565b5090979650505050505050565b600082601f830112620008f4578081fd5b8151602062000907620008878362000b38565b80838252828201915082860187848660061b890101111562000927578586fd5b855b85811015620008d657604080838b03121562000943578788fd5b6200094d62000ada565b835181526200095e878501620009da565b81880152855293850193919091019060010162000929565b600082601f83011262000987578081fd5b815160206200099a620008878362000b38565b80838252828201915082860187848660051b8901011115620009ba578586fd5b855b85811015620008d657815184529284019290840190600101620009bc565b805161ffff811681146200085e57600080fd5b600080600080600080600060e0888a03121562000a08578283fd5b62000a138862000846565b60208901519097506001600160401b038082111562000a30578485fd5b62000a3e8b838c0162000863565b975060408a015191508082111562000a54578485fd5b62000a628b838c0162000863565b965060608a015191508082111562000a78578485fd5b62000a868b838c0162000976565b955062000a9660808b01620009da565b945060a08a015191508082111562000aac578384fd5b5062000abb8a828b01620008e3565b92505062000acc60c0890162000846565b905092959891949750929550565b604080519081016001600160401b038111828210171562000aff5762000aff62000bad565b60405290565b604051601f8201601f191681016001600160401b038111828210171562000b305762000b3062000bad565b604052919050565b60006001600160401b0382111562000b545762000b5462000bad565b5060051b60200190565b6000821982111562000b745762000b7462000b97565b500190565b600060001982141562000b905762000b9062000b97565b5060010190565b634e487b7160e01b600052601160045260246000fd5b634e487b7160e01b600052604160045260246000fd5b612af18062000bd36000396000f3fe6080604052600436106101bb5760003560e01c80638b83209b116100ec578063ca15c8731161008a578063d547741f11610064578063d547741f14610596578063d79779b2146105b6578063e33b7de3146105ec578063fab480f41461060157600080fd5b8063ca15c87314610520578063ce7c2ac214610540578063d2fd101b1461057657600080fd5b80639852595c116100c65780639852595c146104ad578063a217fddf146104e3578063bc157ac1146104f8578063c163de3d1461050b57600080fd5b80638b83209b146104355780639010d07c1461046d57806391d148541461048d57600080fd5b806336568abe1161015957806340e58ee51161013357806340e58ee5146103b957806348b75044146103d9578063597e1fb5146103f9578063700d4aec1461041357600080fd5b806336568abe1461033e5780633a98ef391461035e578063406072a91461037357600080fd5b8063245a91a311610195578063245a91a314610293578063245dc4c9146102b3578063248a9ca3146102e05780632f2ff15d1461031e57600080fd5b806301ffc9a714610209578063129f33171461023e578063191655871461027157600080fd5b36610204577f6ef95f06320e7a25a04a175ca677b7052bdd97131872c2192525a629f51be77033604080516001600160a01b0390921682523460208301520160405180910390a1005b600080fd5b34801561021557600080fd5b506102296102243660046125ef565b610621565b60405190151581526020015b60405180910390f35b34801561024a57600080fd5b5060095461025e90610100900461ffff1681565b60405161ffff9091168152602001610235565b34801561027d57600080fd5b5061029161028c3660046124bf565b61064c565b005b34801561029f57600080fd5b506102296102ae366004612587565b610783565b3480156102bf57600080fd5b506102d36102ce3660046124f7565b6107a8565b60405161023591906127f6565b3480156102ec57600080fd5b506103106102fb366004612587565b60009081526007602052604090206001015490565b604051908152602001610235565b34801561032a57600080fd5b5061029161033936600461259f565b61088f565b34801561034a57600080fd5b5061029161035936600461259f565b6108b9565b34801561036a57600080fd5b50600054610310565b34801561037f57600080fd5b5061031061038e366004612617565b6001600160a01b03918216600090815260066020908152604080832093909416825291909152205490565b3480156103c557600080fd5b506102916103d4366004612587565b610937565b3480156103e557600080fd5b506102916103f4366004612617565b6109dd565b34801561040557600080fd5b506009546102299060ff1681565b34801561041f57600080fd5b50610428610bc5565b604051610235919061288f565b34801561044157600080fd5b50610455610450366004612587565b610cef565b6040516001600160a01b039091168152602001610235565b34801561047957600080fd5b506104556104883660046125ce565b610d2d565b34801561049957600080fd5b506102296104a836600461259f565b610d4c565b3480156104b957600080fd5b506103106104c83660046124bf565b6001600160a01b031660009081526003602052604090205490565b3480156104ef57600080fd5b50610310600081565b61029161050636600461265c565b610d77565b34801561051757600080fd5b50610291610f7a565b34801561052c57600080fd5b5061031061053b366004612587565b61101d565b34801561054c57600080fd5b5061031061055b3660046124bf565b6001600160a01b031660009081526002602052604090205490565b34801561058257600080fd5b50610291610591366004612693565b611034565b3480156105a257600080fd5b506102916105b136600461259f565b6110f5565b3480156105c257600080fd5b506103106105d13660046124bf565b6001600160a01b031660009081526005602052604090205490565b3480156105f857600080fd5b50600154610310565b34801561060d57600080fd5b5061029161061c366004612693565b61111a565b60006001600160e01b03198216635a05180f60e01b1480610646575061064682611345565b92915050565b6001600160a01b03811660009081526002602052604090205461068a5760405162461bcd60e51b815260040161068190612915565b60405180910390fd5b600061069560015490565b61069f90476129a6565b905060006106cc83836106c7866001600160a01b031660009081526003602052604090205490565b61137a565b9050806106eb5760405162461bcd60e51b81526004016106819061295b565b6001600160a01b038316600090815260036020526040812080548392906107139084906129a6565b92505081905550806001600082825461072c91906129a6565b9091555061073c905083826113bd565b604080516001600160a01b0385168152602081018390527fdf20fd1e76bc69d672e4814fafb2c449bba3a5369d8359adf9e05e6fde87b056910160405180910390a1505050565b60095460009060ff16806106465750506000908152600b602052604090205460ff1690565b6060818067ffffffffffffffff8111156107d257634e487b7160e01b600052604160045260246000fd5b60405190808252806020026020018201604052801561080557816020015b60608152602001906001900390816107f05790505b50915060005b818161ffff16101561088757600061084c86868461ffff1681811061084057634e487b7160e01b600052603260045260246000fd5b905060200201356114d6565b905080848361ffff168151811061087357634e487b7160e01b600052603260045260246000fd5b60209081029190910101525060010161080b565b505092915050565b6000828152600760205260409020600101546108aa8161155e565b6108b4838361156b565b505050565b6001600160a01b03811633146109295760405162461bcd60e51b815260206004820152602f60248201527f416363657373436f6e74726f6c3a2063616e206f6e6c792072656e6f756e636560448201526e103937b632b9903337b91039b2b63360891b6064820152608401610681565b610933828261158d565b5050565b6109617fb012ba8c7281edbf1d476d7a0eccd3cb202b439a7f0a8f6c574f02e5df5c10b133610d4c565b61097e57604051634ca8886760e01b815260040160405180910390fd5b6000818152600b6020526040808220805460ff19166001179055517f3fdad7f8cdfcd1b65d4d09d35f3a990abd6d5cf186ba129cfb4abbf332cf961b916109d2918491909182521515602082015260400190565b60405180910390a150565b6001600160a01b038116600090815260026020526040902054610a125760405162461bcd60e51b815260040161068190612915565b6001600160a01b0382166000908152600560205260408120546040516370a0823160e01b81523060048201526001600160a01b038516906370a082319060240160206040518083038186803b158015610a6a57600080fd5b505afa158015610a7e573d6000803e3d6000fd5b505050506040513d601f19601f82011682018060405250810190610aa29190612644565b610aac91906129a6565b90506000610ae583836106c787876001600160a01b03918216600090815260066020908152604080832093909416825291909152205490565b905080610b045760405162461bcd60e51b81526004016106819061295b565b6001600160a01b03808516600090815260066020908152604080832093871683529290529081208054839290610b3b9084906129a6565b90915550506001600160a01b03841660009081526005602052604081208054839290610b689084906129a6565b90915550610b7990508484836115af565b604080516001600160a01b038581168252602082018490528616917f3be5b7a71e84ed12875d241991c70855ac5817d847039e17a9d895c1ceb0f18a910160405180910390a250505050565b600a5460609060008167ffffffffffffffff811115610bf457634e487b7160e01b600052604160045260246000fd5b604051908082528060200260200182016040528015610c3957816020015b6040805180820190915260008082526020820152815260200190600190039081610c125790505b50905060005b82811015610ce8576000600a8281548110610c6a57634e487b7160e01b600052603260045260246000fd5b60009182526020918290206040805180820182526002909302909101805483526001015461ffff9081168385019081528251808401909352835183525116928101929092528451909250849084908110610cd457634e487b7160e01b600052603260045260246000fd5b602090810291909101015250600101610c3f565b5092915050565b600060048281548110610d1257634e487b7160e01b600052603260045260246000fd5b6000918252602090912001546001600160a01b031692915050565b6000828152600860205260408120610d459083611601565b9392505050565b60009182526007602090815260408084206001600160a01b0393909316845291905290205460ff1690565b60095460ff1615610d9b57604051638819799d60e01b815260040160405180910390fd5b3481610dba5760405163162908e360e11b815260040160405180910390fd5b6000848152600b602052604090205460ff1615610dea5760405163b8f8d1f760e01b815260040160405180910390fd5b6001600160a01b038316158015908190610e0357508115155b80610e17575080158015610e175750828214155b15610e355760405163fe9ba5cd60e01b815260040160405180910390fd5b338115610ec6576040516323b872dd60e01b81526001600160a01b038281166004830152306024830152604482018690528616906323b872dd90606401602060405180830381600087803b158015610e8c57600080fd5b505af1158015610ea0573d6000803e3d6000fd5b505050506040513d601f19601f82011682018060405250810190610ec49190612567565b505b6000868152600c60209081526040808320815180830183526001600160a01b038a81168083528286018b8152845460018082018755958952978790209351600290980290930180546001600160a01b0319169783169790971787559151959092019490945581519085168152918201899052810191909152606081018590527fde50620a8362ed2d89afd08b856fe6db50ad03c096d5f6e10a7ce71ee5359de39060800160405180910390a1505050505050565b610fa47fb012ba8c7281edbf1d476d7a0eccd3cb202b439a7f0a8f6c574f02e5df5c10b133610d4c565b610fc157604051634ca8886760e01b815260040160405180910390fd5b60095460ff1615610fe557604051638819799d60e01b815260040160405180910390fd5b6009805460ff191660011790556040517fc67401958d8f4f70d6e5fb87c0190c6f0df5a05a8926d934f81c7491e7402f4790600090a1565b60008181526008602052604081206106469061160d565b3361103e84610783565b61105b576040516332d6d8f560e21b815260040160405180910390fd5b6110ad8185600960019054906101000a900461ffff1686868080601f01602080910402602001604051908101604052809392919081815260200183838082843760009201919091525061161792505050565b604080516001600160a01b0383168152602081018690527fe6cdcbc54159ba58a71f3aae716b81d82506c6fc76a7383e605e7e365d834425910160405180910390a150505050565b6000828152600760205260409020600101546111108161155e565b6108b4838361158d565b60095460ff161561113e57604051638819799d60e01b815260040160405180910390fd5b6000838152600b602052604090205460ff161561116e5760405163b8f8d1f760e01b815260040160405180910390fd5b600a54600090815b81811015611208576000600a826001600a8054905061119591906129f1565b61119f91906129f1565b815481106111bd57634e487b7160e01b600052603260045260246000fd5b600091825260209182902060408051808201909152600290920201805480835260019091015461ffff169282019290925291504210156111ff57806020015193505b50600101611176565b506000858152600b60205260409020805460ff1916600117905561126a61122c3390565b868487878080601f01602080910402602001604051908101604052809392919081815260200183838082843760009201919091525061161792505050565b60408051868152600160208201527f3fdad7f8cdfcd1b65d4d09d35f3a990abd6d5cf186ba129cfb4abbf332cf961b910160405180910390a15050505050565b6112b48282610d4c565b6109335760008281526007602090815260408083206001600160a01b03851684529091529020805460ff191660011790556112ec3390565b6001600160a01b0316816001600160a01b0316837f2f8788117e7eff1d82e926ec794901d17c78024a50270940304540a733656f0d60405160405180910390a45050565b6000610d45836001600160a01b0384166117c2565b60006001600160e01b03198216637965db0b60e01b148061064657506301ffc9a760e01b6001600160e01b0319831614610646565b600080546001600160a01b0385168252600260205260408220548391906113a190866129d2565b6113ab91906129be565b6113b591906129f1565b949350505050565b8047101561140d5760405162461bcd60e51b815260206004820152601d60248201527f416464726573733a20696e73756666696369656e742062616c616e63650000006044820152606401610681565b6000826001600160a01b03168260405160006040518083038185875af1925050503d806000811461145a576040519150601f19603f3d011682016040523d82523d6000602084013e61145f565b606091505b50509050806108b45760405162461bcd60e51b815260206004820152603a60248201527f416464726573733a20756e61626c6520746f2073656e642076616c75652c207260448201527f6563697069656e74206d617920686176652072657665727465640000000000006064820152608401610681565b6060600c6000838152602001908152602001600020805480602002602001604051908101604052809291908181526020016000905b82821015611553576000848152602090819020604080518082019091526002850290910180546001600160a01b0316825260019081015482840152908352909201910161150b565b505050509050919050565b6115688133611811565b50565b61157582826112aa565b60008281526008602052604090206108b49082611330565b6115978282611875565b60008281526008602052604090206108b490826118dc565b604080516001600160a01b038416602482015260448082018490528251808303909101815260649091019091526020810180516001600160e01b031663a9059cbb60e01b1790526108b49084906118f1565b6000610d4583836119c3565b6000610646825490565b61162183826119fb565b61ffff821661162f576117bc565b600061163a846114d6565b905080516000141561165f5760405163d1dafa8560e01b815260040160405180910390fd5b6000848152600c6020526040812061167691612479565b805160005b818161ffff1610156117b8576000838261ffff16815181106116ad57634e487b7160e01b600052603260045260246000fd5b60200260200101519050600060648761ffff1683602001516116cf91906129d2565b6116d991906129be565b82519091506001600160a01b0316611727576040516001600160a01b038a169082156108fc029083906000818181858888f19350505050158015611721573d6000803e3d6000fd5b506117ae565b815160405163a9059cbb60e01b81526001600160a01b038b81166004830152602482018490529091169063a9059cbb90604401602060405180830381600087803b15801561177457600080fd5b505af1158015611788573d6000803e3d6000fd5b505050506040513d601f19601f820116820180604052508101906117ac9190612567565b505b505060010161167b565b5050505b50505050565b600081815260018301602052604081205461180957508154600181810184556000848152602080822090930184905584548482528286019093526040902091909155610646565b506000610646565b61181b8282610d4c565b61093357611833816001600160a01b03166014611af1565b61183e836020611af1565b60405160200161184f929190612781565b60408051601f198184030181529082905262461bcd60e51b8252610681916004016128e2565b61187f8282610d4c565b156109335760008281526007602090815260408083206001600160a01b0385168085529252808320805460ff1916905551339285917ff6391f5c32d9c69d2a47ea670b442974b53935d1edc7fd64eb21e047a839171b9190a45050565b6000610d45836001600160a01b038416611cd3565b6000611946826040518060400160405280602081526020017f5361666545524332303a206c6f772d6c6576656c2063616c6c206661696c6564815250856001600160a01b0316611df09092919063ffffffff16565b8051909150156108b457808060200190518101906119649190612567565b6108b45760405162461bcd60e51b815260206004820152602a60248201527f5361666545524332303a204552433230206f7065726174696f6e20646964206e6044820152691bdd081cdd58d8d9595960b21b6064820152608401610681565b60008260000182815481106119e857634e487b7160e01b600052603260045260246000fd5b9060005260206000200154905092915050565b6000611a3182611a2b85604051602001611a1791815260200190565b604051602081830303815290604052611dff565b90611e3a565b90506000600d60009054906101000a90046001600160a01b03166001600160a01b0316637ac3c02f6040518163ffffffff1660e01b8152600401602060405180830381600087803b158015611a8557600080fd5b505af1158015611a99573d6000803e3d6000fd5b505050506040513d601f19601f82011682018060405250810190611abd91906124db565b9050806001600160a01b0316826001600160a01b0316146117bc57604051632057875960e21b815260040160405180910390fd5b60606000611b008360026129d2565b611b0b9060026129a6565b67ffffffffffffffff811115611b3157634e487b7160e01b600052604160045260246000fd5b6040519080825280601f01601f191660200182016040528015611b5b576020820181803683370190505b509050600360fc1b81600081518110611b8457634e487b7160e01b600052603260045260246000fd5b60200101906001600160f81b031916908160001a905350600f60fb1b81600181518110611bc157634e487b7160e01b600052603260045260246000fd5b60200101906001600160f81b031916908160001a9053506000611be58460026129d2565b611bf09060016129a6565b90505b6001811115611c84576f181899199a1a9b1b9c1cb0b131b232b360811b85600f1660108110611c3257634e487b7160e01b600052603260045260246000fd5b1a60f81b828281518110611c5657634e487b7160e01b600052603260045260246000fd5b60200101906001600160f81b031916908160001a90535060049490941c93611c7d81612a34565b9050611bf3565b508315610d455760405162461bcd60e51b815260206004820181905260248201527f537472696e67733a20686578206c656e67746820696e73756666696369656e746044820152606401610681565b60008181526001830160205260408120548015611de6576000611cf76001836129f1565b8554909150600090611d0b906001906129f1565b9050818114611d8c576000866000018281548110611d3957634e487b7160e01b600052603260045260246000fd5b9060005260206000200154905080876000018481548110611d6a57634e487b7160e01b600052603260045260246000fd5b6000918252602080832090910192909255918252600188019052604090208390555b8554869080611dab57634e487b7160e01b600052603160045260246000fd5b600190038181906000526020600020016000905590558560010160008681526020019081526020016000206000905560019350505050610646565b6000915050610646565b60606113b58484600085611e5e565b6000611e0b8251611f8f565b82604051602001611e1d929190612726565b604051602081830303815290604052805190602001209050919050565b6000806000611e4985856120a9565b91509150611e5681612119565b509392505050565b606082471015611ebf5760405162461bcd60e51b815260206004820152602660248201527f416464726573733a20696e73756666696369656e742062616c616e636520666f6044820152651c8818d85b1b60d21b6064820152608401610681565b6001600160a01b0385163b611f165760405162461bcd60e51b815260206004820152601d60248201527f416464726573733a2063616c6c20746f206e6f6e2d636f6e74726163740000006044820152606401610681565b600080866001600160a01b03168587604051611f32919061270a565b60006040518083038185875af1925050503d8060008114611f6f576040519150601f19603f3d011682016040523d82523d6000602084013e611f74565b606091505b5091509150611f8482828661231a565b979650505050505050565b606081611fb35750506040805180820190915260018152600360fc1b602082015290565b8160005b8115611fdd5780611fc781612a4b565b9150611fd69050600a836129be565b9150611fb7565b60008167ffffffffffffffff81111561200657634e487b7160e01b600052604160045260246000fd5b6040519080825280601f01601f191660200182016040528015612030576020820181803683370190505b5090505b84156113b5576120456001836129f1565b9150612052600a86612a66565b61205d9060306129a6565b60f81b81838151811061208057634e487b7160e01b600052603260045260246000fd5b60200101906001600160f81b031916908160001a9053506120a2600a866129be565b9450612034565b6000808251604114156120e05760208301516040840151606085015160001a6120d487828585612353565b94509450505050612112565b82516040141561210a57602083015160408401516120ff868383612440565b935093505050612112565b506000905060025b9250929050565b600081600481111561213b57634e487b7160e01b600052602160045260246000fd5b14156121445750565b600181600481111561216657634e487b7160e01b600052602160045260246000fd5b14156121b45760405162461bcd60e51b815260206004820152601860248201527f45434453413a20696e76616c6964207369676e617475726500000000000000006044820152606401610681565b60028160048111156121d657634e487b7160e01b600052602160045260246000fd5b14156122245760405162461bcd60e51b815260206004820152601f60248201527f45434453413a20696e76616c6964207369676e6174757265206c656e677468006044820152606401610681565b600381600481111561224657634e487b7160e01b600052602160045260246000fd5b141561229f5760405162461bcd60e51b815260206004820152602260248201527f45434453413a20696e76616c6964207369676e6174757265202773272076616c604482015261756560f01b6064820152608401610681565b60048160048111156122c157634e487b7160e01b600052602160045260246000fd5b14156115685760405162461bcd60e51b815260206004820152602260248201527f45434453413a20696e76616c6964207369676e6174757265202776272076616c604482015261756560f01b6064820152608401610681565b60608315612329575081610d45565b8251156123395782518084602001fd5b8160405162461bcd60e51b815260040161068191906128e2565b6000807f7fffffffffffffffffffffffffffffff5d576e7357a4501ddfe92f46681b20a083111561238a5750600090506003612437565b8460ff16601b141580156123a257508460ff16601c14155b156123b35750600090506004612437565b6040805160008082526020820180845289905260ff881692820192909252606081018690526080810185905260019060a0016020604051602081039080840390855afa158015612407573d6000803e3d6000fd5b5050604051601f1901519150506001600160a01b03811661243057600060019250925050612437565b9150600090505b94509492505050565b6000806001600160ff1b0383168161245d60ff86901c601b6129a6565b905061246b87828885612353565b935093505050935093915050565b508054600082556002029060005260206000209081019061156891905b808211156124bb5780546001600160a01b031916815560006001820155600201612496565b5090565b6000602082840312156124d0578081fd5b8135610d4581612aa6565b6000602082840312156124ec578081fd5b8151610d4581612aa6565b60008060208385031215612509578081fd5b823567ffffffffffffffff80821115612520578283fd5b818501915085601f830112612533578283fd5b813581811115612541578384fd5b8660208260051b8501011115612555578384fd5b60209290920196919550909350505050565b600060208284031215612578578081fd5b81518015158114610d45578182fd5b600060208284031215612598578081fd5b5035919050565b600080604083850312156125b1578182fd5b8235915060208301356125c381612aa6565b809150509250929050565b600080604083850312156125e0578182fd5b50508035926020909101359150565b600060208284031215612600578081fd5b81356001600160e01b031981168114610d45578182fd5b60008060408385031215612629578182fd5b823561263481612aa6565b915060208301356125c381612aa6565b600060208284031215612655578081fd5b5051919050565b600080600060608486031215612670578081fd5b83359250602084013561268281612aa6565b929592945050506040919091013590565b6000806000604084860312156126a7578283fd5b83359250602084013567ffffffffffffffff808211156126c5578384fd5b818601915086601f8301126126d8578384fd5b8135818111156126e6578485fd5b8760208285010111156126f7578485fd5b6020830194508093505050509250925092565b6000825161271c818460208701612a08565b9190910192915050565b7f19457468657265756d205369676e6564204d6573736167653a0a00000000000081526000835161275e81601a850160208801612a08565b83519083019061277581601a840160208801612a08565b01601a01949350505050565b7f416363657373436f6e74726f6c3a206163636f756e74200000000000000000008152600083516127b9816017850160208801612a08565b7001034b99036b4b9b9b4b733903937b6329607d1b60179184019182015283516127ea816028840160208801612a08565b01602801949350505050565b60006020808301818452808551808352604092508286019150828160051b870101848801865b8381101561288157888303603f190185528151805180855290880190888501908a5b8181101561286c57835180516001600160a01b031684528b01518b840152928a01929189019160010161283e565b5050958801959350509086019060010161281c565b509098975050505050505050565b602080825282518282018190526000919060409081850190868401855b828110156128d55781518051855286015161ffff168685015292840192908501906001016128ac565b5091979650505050505050565b6020815260008251806020840152612901816040850160208701612a08565b601f01601f19169190910160400192915050565b60208082526026908201527f5061796d656e7453706c69747465723a206163636f756e7420686173206e6f2060408201526573686172657360d01b606082015260800190565b6020808252602b908201527f5061796d656e7453706c69747465723a206163636f756e74206973206e6f742060408201526a191d59481c185e5b595b9d60aa1b606082015260800190565b600082198211156129b9576129b9612a7a565b500190565b6000826129cd576129cd612a90565b500490565b60008160001904831182151516156129ec576129ec612a7a565b500290565b600082821015612a0357612a03612a7a565b500390565b60005b83811015612a23578181015183820152602001612a0b565b838111156117bc5750506000910152565b600081612a4357612a43612a7a565b506000190190565b6000600019821415612a5f57612a5f612a7a565b5060010190565b600082612a7557612a75612a90565b500690565b634e487b7160e01b600052601160045260246000fd5b634e487b7160e01b600052601260045260246000fd5b6001600160a01b038116811461156857600080fdfea2646970667358221220c566c51f44d7288a9e7b6b72fd8e174ed15e45ec87ec411b3fc4e2b3d22e7ab464736f6c63430008040033c65a7bb8d6351c1cf70c95a316cc6a92839c986682d98bc35f958f4883f9d2a9c65a7bb8d6351c1cf70c95a316cc6a92839c986682d98bc35f958f4883f9d2a8b012ba8c7281edbf1d476d7a0eccd3cb202b439a7f0a8f6c574f02e5df5c10b1a2646970667358221220aefab09767f2785aa544704e2bc8fae828a5f566ec4cfc61007b28fb8109824064736f6c63430008040033",
  "devdoc": {
    "kind": "dev",
    "methods": {
      "owner()": {
        "details": "Returns the address of the current owner."
      },
      "renounceOwnership()": {
        "details": "Leaves the contract without owner. It will not be possible to call `onlyOwner` functions anymore. Can only be called by the current owner. NOTE: Renouncing ownership will leave the contract without an owner, thereby removing any functionality that is only available to the owner."
      },
      "transferOwnership(address)": {
        "details": "Transfers ownership of the contract to a new account (`newOwner`). Can only be called by the current owner."
      }
    },
    "version": 1
  },
  "userdoc": {
    "kind": "user",
    "methods": {},
    "version": 1
  },
  "storageLayout": {
    "storage": [
      {
        "astId": 550,
        "contract": "contracts/escrow/LemonadeEscrowFactoryV1.sol:LemonadeEscrowFactoryV1",
        "label": "_owner",
        "offset": 0,
        "slot": "0",
        "type": "t_address"
      },
      {
        "astId": 3095,
        "contract": "contracts/escrow/LemonadeEscrowFactoryV1.sol:LemonadeEscrowFactoryV1",
        "label": "_signer",
        "offset": 0,
        "slot": "1",
        "type": "t_address"
      }
    ],
    "types": {
      "t_address": {
        "encoding": "inplace",
        "label": "address",
        "numberOfBytes": "20"
      }
    }
  }
}