{
  "address": "0xbc6C027B7F0CA2BEb0d71E479a05758187d4ea63",
  "abi": [
    {
      "inputs": [
        {
          "internalType": "address",
          "name": "account",
          "type": "address"
        },
        {
          "internalType": "bytes4[]",
          "name": "interfaceIds",
          "type": "bytes4[]"
        }
      ],
      "name": "getSupportedInterfaces",
      "outputs": [
        {
          "internalType": "bool[]",
          "name": "",
          "type": "bool[]"
        }
      ],
      "stateMutability": "view",
      "type": "function"
    }
  ],
  "transactionHash": "0x8187eb00dce70d64fedfedb5776b3c8c451b92bf401173c81f4163ffae7187bb",
  "args": [],
  "numDeployments": 2,
  "solcInputHash": "594fbd59c14951ca8239e051350e6301",
  "bytecode": "0x608060405234801561001057600080fd5b50610502806100206000396000f3fe608060405234801561001057600080fd5b506004361061002b5760003560e01c806377e6b4cc14610030575b600080fd5b61004361003e366004610309565b610059565b6040516100509190610449565b60405180910390f35b60606000836001600160a01b03163b116100c75760405162461bcd60e51b815260206004820152602560248201527f496e74726f7370656374696f6e3a206163636f756e74206e6f74206120636f6e6044820152641d1c9858dd60da1b606482015260840160405180910390fd5b6100da6001600160a01b038416836100e3565b90505b92915050565b60606000825167ffffffffffffffff81111561010f57634e487b7160e01b600052604160045260246000fd5b604051908082528060200260200182016040528015610138578160200160208202803683370190505b509050610144846101d0565b156100da5760005b83518110156101c8576101868585838151811061017957634e487b7160e01b600052603260045260246000fd5b6020026020010151610203565b8282815181106101a657634e487b7160e01b600052603260045260246000fd5b91151560209283029190910190910152806101c08161048f565b91505061014c565b509392505050565b60006101e3826301ffc9a760e01b610203565b80156100dd57506101fc826001600160e01b0319610203565b1592915050565b604080516001600160e01b0319831660248083019190915282518083039091018152604490910182526020810180516001600160e01b03166301ffc9a760e01b179052905160009190829081906001600160a01b038716906175309061026a908690610410565b6000604051808303818686fa925050503d80600081146102a6576040519150601f19603f3d011682016040523d82523d6000602084013e6102ab565b606091505b50915091506020815110156102c657600093505050506100dd565b8180156102e25750808060200190518101906102e291906103f0565b9695505050505050565b80356001600160e01b03198116811461030457600080fd5b919050565b6000806040838503121561031b578182fd5b82356001600160a01b0381168114610331578283fd5b915060208381013567ffffffffffffffff8082111561034e578384fd5b818601915086601f830112610361578384fd5b813581811115610373576103736104b6565b8060051b604051601f19603f83011681018181108582111715610398576103986104b6565b604052828152858101935084860182860187018b10156103b6578788fd5b8795505b838610156103df576103cb816102ec565b8552600195909501949386019386016103ba565b508096505050505050509250929050565b600060208284031215610401578081fd5b815180151581146100da578182fd5b60008251815b818110156104305760208186018101518583015201610416565b8181111561043e5782828501525b509190910192915050565b6020808252825182820181905260009190848201906040850190845b81811015610483578351151583529284019291840191600101610465565b50909695505050505050565b60006000198214156104af57634e487b7160e01b81526011600452602481fd5b5060010190565b634e487b7160e01b600052604160045260246000fdfea2646970667358221220f4213b09b1012cf0ab011d475d5d790ec726c0fa3585b1a3e69f985aa4fb38ee64736f6c63430008040033",
  "devdoc": {
    "kind": "dev",
    "methods": {},
    "version": 1
  },
  "userdoc": {
    "kind": "user",
    "methods": {},
    "version": 1
  },
  "storageLayout": {
    "storage": [],
    "types": null
  }
}