{
  "address": "0x371107562Fee3a20F81145eF532C05Bc54E44B3e",
  "abi": [
    {
      "inputs": [
        {
          "internalType": "address",
          "name": "collectionHelpers",
          "type": "address"
        },
        {
          "internalType": "string",
          "name": "name",
          "type": "string"
        },
        {
          "internalType": "string",
          "name": "description",
          "type": "string"
        },
        {
          "internalType": "string",
          "name": "tokenPrefix",
          "type": "string"
        }
      ],
      "stateMutability": "payable",
      "type": "constructor"
    },
    {
      "inputs": [],
      "name": "collection",
      "outputs": [
        {
          "internalType": "address",
          "name": "",
          "type": "address"
        }
      ],
      "stateMutability": "view",
      "type": "function"
    },
    {
      "inputs": [
        {
          "internalType": "string",
          "name": "tokenURI",
          "type": "string"
        }
      ],
      "name": "mintToCaller",
      "outputs": [
        {
          "internalType": "uint256",
          "name": "",
          "type": "uint256"
        }
      ],
      "stateMutability": "nonpayable",
      "type": "function"
    },
    {
      "inputs": [
        {
          "internalType": "string",
          "name": "tokenURI",
          "type": "string"
        },
        {
          "components": [
            {
              "internalType": "address payable",
              "name": "account",
              "type": "address"
            },
            {
              "internalType": "uint96",
              "name": "value",
              "type": "uint96"
            }
          ],
          "internalType": "struct LibPart.Part[]",
          "name": "royalties",
          "type": "tuple[]"
        }
      ],
      "name": "mintToCallerWithRoyalty",
      "outputs": [
        {
          "internalType": "uint256",
          "name": "",
          "type": "uint256"
        }
      ],
      "stateMutability": "nonpayable",
      "type": "function"
    }
  ],
  "transactionHash": "0x6c36fbd3f103628f85257b9c59954570a040e7b5bf80e7e7aaa4e4e4f884a4c6",
  "args": [
    "0x6c4e9fe1ae37a41e93cee429e8e1881abdcbb54f",
    "Non-Fungible Lemon",
    "Non-Fungible Lemon",
    "NFL"
  ],
  "numDeployments": 5,
  "solcInputHash": "54c9b71944e029efd4ed275f0b634d6d",
  "bytecode": "0x608060405260405162000a7638038062000a76833981016040819052620000269162000353565b6040516310895ecb60e31b815284906001600160a01b0382169063844af6589034906200005c9088908890889060040162000455565b6020604051808303818588803b1580156200007657600080fd5b505af11580156200008b573d6000803e3d6000fd5b50505050506040513d601f19601f82011682018060405250810190620000b291906200032f565b600080546001600160a01b0319166001600160a01b039283169081178255604080516310ac484b60e31b815260048101929092526024820152604481019190915290821690638562425890606401600060405180830381600087803b1580156200011b57600080fd5b505af115801562000130573d6000803e3d6000fd5b50506000546040516392e462c760e01b81523060048201526001600160a01b0390911692508291506392e462c790602401600060405180830381600087803b1580156200017c57600080fd5b505af115801562000191573d6000803e3d6000fd5b50506040516327a9f11360e11b81523360048201526001600160a01b0384169250634f53e2269150602401600060405180830381600087803b158015620001d757600080fd5b505af1158015620001ec573d6000803e3d6000fd5b50506040805180820182526009815268726f79616c7469657360b81b60208201529051631116cbfd60e11b81526001600160a01b038516935063222d97fa9250620002439190600090600190829060040162000422565b600060405180830381600087803b1580156200025e57600080fd5b505af115801562000273573d6000803e3d6000fd5b50505050505050505050620004dd565b80516001600160a01b03811681146200029b57600080fd5b919050565b600082601f830112620002b1578081fd5b81516001600160401b0380821115620002ce57620002ce620004c7565b604051601f8301601f19908116603f01168101908282118183101715620002f957620002f9620004c7565b8160405283815286602085880101111562000312578485fd5b6200032584602083016020890162000494565b9695505050505050565b60006020828403121562000341578081fd5b6200034c8262000283565b9392505050565b6000806000806080858703121562000369578283fd5b620003748562000283565b60208601519094506001600160401b038082111562000391578485fd5b6200039f88838901620002a0565b94506040870151915080821115620003b5578384fd5b620003c388838901620002a0565b93506060870151915080821115620003d9578283fd5b50620003e887828801620002a0565b91505092959194509250565b600081518084526200040e81602086016020860162000494565b601f01601f19169290920160200192915050565b608081526000620004376080830187620003f4565b94151560208301525091151560408301521515606090910152919050565b6060815260006200046a6060830186620003f4565b82810360208401526200047e8186620003f4565b90508281036040840152620003258185620003f4565b60005b83811015620004b157818101518382015260200162000497565b83811115620004c1576000848401525b50505050565b634e487b7160e01b600052604160045260246000fd5b61058980620004ed6000396000f3fe608060405234801561001057600080fd5b50600436106100415760003560e01c8063111fb47b1461004657806358b4c6bb1461006c5780637de1e5361461007f575b600080fd5b61005961005436600461026b565b6100aa565b6040519081526020015b60405180910390f35b61005961007a3660046102a6565b610135565b600054610092906001600160a01b031681565b6040516001600160a01b039091168152602001610063565b600080546040516322e0bbc160e11b81526001600160a01b03909116906345c17782906100dd9033908690600401610424565b602060405180830381600087803b1580156100f757600080fd5b505af115801561010b573d6000803e3d6000fd5b505050506040513d601f19601f8201168201806040525081019061012f91906103c1565b92915050565b600080610141846100aa565b905060008054906101000a90046001600160a01b03166001600160a01b0316631752d67b8260405180604001604052806009815260200168726f79616c7469657360b81b815250866040516020016101999190610448565b6040516020818303038152906040526040518463ffffffff1660e01b81526004016101c6939291906104ae565b600060405180830381600087803b1580156101e057600080fd5b505af11580156101f4573d6000803e3d6000fd5b50929695505050505050565b600082601f830112610210578081fd5b813567ffffffffffffffff81111561022a5761022a61053d565b61023d601f8201601f191660200161050c565b818152846020838601011115610251578283fd5b816020850160208301379081016020019190915292915050565b60006020828403121561027c578081fd5b813567ffffffffffffffff811115610292578182fd5b61029e84828501610200565b949350505050565b60008060408084860312156102b9578182fd5b833567ffffffffffffffff808211156102d0578384fd5b6102dc87838801610200565b94506020915081860135818111156102f2578485fd5b8601601f81018813610302578485fd5b8035828111156103145761031461053d565b610322848260051b0161050c565b8181528481019350828501600683901b840186018b1015610341578788fd5b8793505b828410156103b05786818c03121561035b578788fd5b6103636104e3565b81356001600160a01b038116811461037957898afd5b8152818701356bffffffffffffffffffffffff8116811461039857898afd5b81880152855293850193600193909301928601610345565b508096505050505050509250929050565b6000602082840312156103d2578081fd5b5051919050565b60008151808452815b818110156103fe576020818501810151868301820152016103e2565b8181111561040f5782602083870101525b50601f01601f19169290920160200192915050565b6001600160a01b038316815260406020820181905260009061029e908301846103d9565b602080825282518282018190526000919060409081850190868401855b828110156104a157815180516001600160a01b031685528601516bffffffffffffffffffffffff16868501529284019290850190600101610465565b5091979650505050505050565b8381526060602082015260006104c760608301856103d9565b82810360408401526104d981856103d9565b9695505050505050565b6040805190810167ffffffffffffffff811182821017156105065761050661053d565b60405290565b604051601f8201601f1916810167ffffffffffffffff811182821017156105355761053561053d565b604052919050565b634e487b7160e01b600052604160045260246000fdfea2646970667358221220e154859ec88e6b0ffe0138a2541d9b5d1a1437c45c27a2a7f287e31cd39f3e9964736f6c63430008040033",
  "devdoc": {
    "kind": "dev",
    "methods": {},
    "version": 1
  },
  "userdoc": {
    "kind": "user",
    "methods": {},
    "version": 1
  },
  "storageLayout": {
    "storage": [
      {
        "astId": 9379,
        "contract": "contracts/LemonadeUniqueCollectionV1.sol:LemonadeUniqueCollectionV1",
        "label": "collection",
        "offset": 0,
        "slot": "0",
        "type": "t_address"
      }
    ],
    "types": {
      "t_address": {
        "encoding": "inplace",
        "label": "address",
        "numberOfBytes": "20"
      }
    }
  }
}