{
  "address": "0x00049EF1b965ce344B3e0A2095d7C89486A57fCF",
  "abi": [
    {
      "inputs": [
        {
          "internalType": "address",
          "name": "feeAccount",
          "type": "address"
        },
        {
          "internalType": "uint96",
          "name": "feeValue",
          "type": "uint96"
        }
      ],
      "stateMutability": "nonpayable",
      "type": "constructor"
    },
    {
      "anonymous": false,
      "inputs": [
        {
          "indexed": true,
          "internalType": "uint256",
          "name": "orderId",
          "type": "uint256"
        },
        {
          "indexed": true,
          "internalType": "address",
          "name": "bidder",
          "type": "address"
        },
        {
          "indexed": false,
          "internalType": "uint256",
          "name": "bidAmount",
          "type": "uint256"
        }
      ],
      "name": "OrderBid",
      "type": "event"
    },
    {
      "anonymous": false,
      "inputs": [
        {
          "indexed": true,
          "internalType": "uint256",
          "name": "orderId",
          "type": "uint256"
        }
      ],
      "name": "OrderCancelled",
      "type": "event"
    },
    {
      "anonymous": false,
      "inputs": [
        {
          "indexed": true,
          "internalType": "uint256",
          "name": "orderId",
          "type": "uint256"
        },
        {
          "indexed": false,
          "internalType": "enum LemonadeMarketplaceV1.OrderKind",
          "name": "kind",
          "type": "uint8"
        },
        {
          "indexed": false,
          "internalType": "uint256",
          "name": "openFrom",
          "type": "uint256"
        },
        {
          "indexed": false,
          "internalType": "uint256",
          "name": "openTo",
          "type": "uint256"
        },
        {
          "indexed": true,
          "internalType": "address",
          "name": "maker",
          "type": "address"
        },
        {
          "indexed": false,
          "internalType": "address",
          "name": "currency",
          "type": "address"
        },
        {
          "indexed": false,
          "internalType": "uint256",
          "name": "price",
          "type": "uint256"
        },
        {
          "indexed": false,
          "internalType": "address",
          "name": "tokenContract",
          "type": "address"
        },
        {
          "indexed": false,
          "internalType": "uint256",
          "name": "tokenId",
          "type": "uint256"
        }
      ],
      "name": "OrderCreated",
      "type": "event"
    },
    {
      "anonymous": false,
      "inputs": [
        {
          "indexed": true,
          "internalType": "uint256",
          "name": "orderId",
          "type": "uint256"
        },
        {
          "indexed": true,
          "internalType": "address",
          "name": "taker",
          "type": "address"
        },
        {
          "indexed": false,
          "internalType": "uint256",
          "name": "paidAmount",
          "type": "uint256"
        }
      ],
      "name": "OrderFilled",
      "type": "event"
    },
    {
      "anonymous": false,
      "inputs": [
        {
          "indexed": true,
          "internalType": "bytes32",
          "name": "role",
          "type": "bytes32"
        },
        {
          "indexed": true,
          "internalType": "bytes32",
          "name": "previousAdminRole",
          "type": "bytes32"
        },
        {
          "indexed": true,
          "internalType": "bytes32",
          "name": "newAdminRole",
          "type": "bytes32"
        }
      ],
      "name": "RoleAdminChanged",
      "type": "event"
    },
    {
      "anonymous": false,
      "inputs": [
        {
          "indexed": true,
          "internalType": "bytes32",
          "name": "role",
          "type": "bytes32"
        },
        {
          "indexed": true,
          "internalType": "address",
          "name": "account",
          "type": "address"
        },
        {
          "indexed": true,
          "internalType": "address",
          "name": "sender",
          "type": "address"
        }
      ],
      "name": "RoleGranted",
      "type": "event"
    },
    {
      "anonymous": false,
      "inputs": [
        {
          "indexed": true,
          "internalType": "bytes32",
          "name": "role",
          "type": "bytes32"
        },
        {
          "indexed": true,
          "internalType": "address",
          "name": "account",
          "type": "address"
        },
        {
          "indexed": true,
          "internalType": "address",
          "name": "sender",
          "type": "address"
        }
      ],
      "name": "RoleRevoked",
      "type": "event"
    },
    {
      "inputs": [],
      "name": "DEFAULT_ADMIN_ROLE",
      "outputs": [
        {
          "internalType": "bytes32",
          "name": "",
          "type": "bytes32"
        }
      ],
      "stateMutability": "view",
      "type": "function"
    },
    {
      "inputs": [
        {
          "internalType": "uint256",
          "name": "orderId",
          "type": "uint256"
        },
        {
          "internalType": "uint256",
          "name": "amount",
          "type": "uint256"
        }
      ],
      "name": "bidOrder",
      "outputs": [],
      "stateMutability": "payable",
      "type": "function"
    },
    {
      "inputs": [
        {
          "internalType": "uint256",
          "name": "orderId",
          "type": "uint256"
        }
      ],
      "name": "cancelOrder",
      "outputs": [],
      "stateMutability": "nonpayable",
      "type": "function"
    },
    {
      "inputs": [
        {
          "internalType": "enum LemonadeMarketplaceV1.OrderKind",
          "name": "kind",
          "type": "uint8"
        },
        {
          "internalType": "uint256",
          "name": "openFrom",
          "type": "uint256"
        },
        {
          "internalType": "uint256",
          "name": "openTo",
          "type": "uint256"
        },
        {
          "internalType": "address",
          "name": "currency",
          "type": "address"
        },
        {
          "internalType": "uint256",
          "name": "price",
          "type": "uint256"
        },
        {
          "internalType": "address",
          "name": "tokenContract",
          "type": "address"
        },
        {
          "internalType": "uint256",
          "name": "tokenId",
          "type": "uint256"
        }
      ],
      "name": "createOrder",
      "outputs": [
        {
          "internalType": "uint256",
          "name": "",
          "type": "uint256"
        }
      ],
      "stateMutability": "nonpayable",
      "type": "function"
    },
    {
      "inputs": [],
      "name": "fee",
      "outputs": [
        {
          "internalType": "address",
          "name": "",
          "type": "address"
        },
        {
          "internalType": "uint96",
          "name": "",
          "type": "uint96"
        }
      ],
      "stateMutability": "view",
      "type": "function"
    },
    {
      "inputs": [
        {
          "internalType": "uint256",
          "name": "orderId",
          "type": "uint256"
        },
        {
          "internalType": "uint256",
          "name": "amount",
          "type": "uint256"
        }
      ],
      "name": "fillOrder",
      "outputs": [],
      "stateMutability": "payable",
      "type": "function"
    },
    {
      "inputs": [
        {
          "internalType": "address",
          "name": "tokenContract",
          "type": "address"
        },
        {
          "internalType": "uint256",
          "name": "tokenId",
          "type": "uint256"
        }
      ],
      "name": "getRaribleV2Royalties",
      "outputs": [
        {
          "internalType": "bool",
          "name": "",
          "type": "bool"
        },
        {
          "components": [
            {
              "internalType": "address payable",
              "name": "account",
              "type": "address"
            },
            {
              "internalType": "uint96",
              "name": "value",
              "type": "uint96"
            }
          ],
          "internalType": "struct LibPart.Part[]",
          "name": "",
          "type": "tuple[]"
        }
      ],
      "stateMutability": "view",
      "type": "function"
    },
    {
      "inputs": [
        {
          "internalType": "bytes32",
          "name": "role",
          "type": "bytes32"
        }
      ],
      "name": "getRoleAdmin",
      "outputs": [
        {
          "internalType": "bytes32",
          "name": "",
          "type": "bytes32"
        }
      ],
      "stateMutability": "view",
      "type": "function"
    },
    {
      "inputs": [
        {
          "internalType": "bytes32",
          "name": "role",
          "type": "bytes32"
        },
        {
          "internalType": "uint256",
          "name": "index",
          "type": "uint256"
        }
      ],
      "name": "getRoleMember",
      "outputs": [
        {
          "internalType": "address",
          "name": "",
          "type": "address"
        }
      ],
      "stateMutability": "view",
      "type": "function"
    },
    {
      "inputs": [
        {
          "internalType": "bytes32",
          "name": "role",
          "type": "bytes32"
        }
      ],
      "name": "getRoleMemberCount",
      "outputs": [
        {
          "internalType": "uint256",
          "name": "",
          "type": "uint256"
        }
      ],
      "stateMutability": "view",
      "type": "function"
    },
    {
      "inputs": [
        {
          "internalType": "address",
          "name": "tokenContract",
          "type": "address"
        },
        {
          "internalType": "uint256",
          "name": "tokenId",
          "type": "uint256"
        },
        {
          "internalType": "uint256",
          "name": "paidAmount",
          "type": "uint256"
        }
      ],
      "name": "getRoyaltyInfo",
      "outputs": [
        {
          "internalType": "bool",
          "name": "",
          "type": "bool"
        },
        {
          "internalType": "address",
          "name": "",
          "type": "address"
        },
        {
          "internalType": "uint256",
          "name": "",
          "type": "uint256"
        }
      ],
      "stateMutability": "view",
      "type": "function"
    },
    {
      "inputs": [
        {
          "internalType": "bytes32",
          "name": "role",
          "type": "bytes32"
        },
        {
          "internalType": "address",
          "name": "account",
          "type": "address"
        }
      ],
      "name": "grantRole",
      "outputs": [],
      "stateMutability": "nonpayable",
      "type": "function"
    },
    {
      "inputs": [
        {
          "internalType": "bytes32",
          "name": "role",
          "type": "bytes32"
        },
        {
          "internalType": "address",
          "name": "account",
          "type": "address"
        }
      ],
      "name": "hasRole",
      "outputs": [
        {
          "internalType": "bool",
          "name": "",
          "type": "bool"
        }
      ],
      "stateMutability": "view",
      "type": "function"
    },
    {
      "inputs": [
        {
          "internalType": "uint256",
          "name": "orderId",
          "type": "uint256"
        }
      ],
      "name": "order",
      "outputs": [
        {
          "internalType": "enum LemonadeMarketplaceV1.OrderKind",
          "name": "",
          "type": "uint8"
        },
        {
          "internalType": "bool",
          "name": "",
          "type": "bool"
        },
        {
          "internalType": "uint256",
          "name": "",
          "type": "uint256"
        },
        {
          "internalType": "uint256",
          "name": "",
          "type": "uint256"
        },
        {
          "internalType": "address",
          "name": "",
          "type": "address"
        },
        {
          "internalType": "address",
          "name": "",
          "type": "address"
        },
        {
          "internalType": "uint256",
          "name": "",
          "type": "uint256"
        },
        {
          "internalType": "uint256",
          "name": "",
          "type": "uint256"
        },
        {
          "internalType": "address",
          "name": "",
          "type": "address"
        },
        {
          "internalType": "uint256",
          "name": "",
          "type": "uint256"
        }
      ],
      "stateMutability": "view",
      "type": "function"
    },
    {
      "inputs": [
        {
          "internalType": "bytes32",
          "name": "role",
          "type": "bytes32"
        },
        {
          "internalType": "address",
          "name": "account",
          "type": "address"
        }
      ],
      "name": "renounceRole",
      "outputs": [],
      "stateMutability": "nonpayable",
      "type": "function"
    },
    {
      "inputs": [
        {
          "internalType": "bytes32",
          "name": "role",
          "type": "bytes32"
        },
        {
          "internalType": "address",
          "name": "account",
          "type": "address"
        }
      ],
      "name": "revokeRole",
      "outputs": [],
      "stateMutability": "nonpayable",
      "type": "function"
    },
    {
      "inputs": [
        {
          "internalType": "bytes4",
          "name": "interfaceId",
          "type": "bytes4"
        }
      ],
      "name": "supportsInterface",
      "outputs": [
        {
          "internalType": "bool",
          "name": "",
          "type": "bool"
        }
      ],
      "stateMutability": "view",
      "type": "function"
    },
    {
      "inputs": [
        {
          "internalType": "uint256",
          "name": "orderId",
          "type": "uint256"
        }
      ],
      "name": "token",
      "outputs": [
        {
          "internalType": "address",
          "name": "",
          "type": "address"
        },
        {
          "internalType": "uint256",
          "name": "",
          "type": "uint256"
        }
      ],
      "stateMutability": "view",
      "type": "function"
    }
  ],
  "transactionHash": "0xcb3ab0d012c1b5bc28c0a1699594bef8e821a40938679e47f52b2bb4a965b490",
  "args": [
    "0xFB756b44060e426731e54e9F433c43c75ee90d9f",
    "200"
  ],
  "numDeployments": 1,
  "solcInputHash": "d90d3372699ad14f347bd67800e52bed",
  "bytecode": "0x60c06040523480156200001157600080fd5b506040516200339d3803806200339d8339810160408190526200003491620001dc565b606082901b6001600160601b03191660805260a081811b6001600160a01b031916905281816200006d6000620000673390565b62000077565b505050506200022e565b62000083828262000087565b5050565b6200009e8282620000ca60201b6200218f1760201c565b6000828152600160209081526040909120620000c5918390620022136200016a821b17901c565b505050565b6000828152602081815260408083206001600160a01b038516845290915290205460ff1662000083576000828152602081815260408083206001600160a01b03851684529091529020805460ff19166001179055620001263390565b6001600160a01b0316816001600160a01b0316837f2f8788117e7eff1d82e926ec794901d17c78024a50270940304540a733656f0d60405160405180910390a45050565b600062000181836001600160a01b0384166200018a565b90505b92915050565b6000818152600183016020526040812054620001d35750815460018181018455600084815260208082209093018490558454848252828601909352604090209190915562000184565b50600062000184565b60008060408385031215620001ef578182fd5b82516001600160a01b038116811462000206578283fd5b60208401519092506001600160601b038116811462000223578182fd5b809150509250929050565b60805160601c60a05160a01c61313562000268600039600081816104050152611e190152600081816103d90152611e5601526131356000f3fe6080604052600436106101095760003560e01c80637241fb7d11610095578063b858fb5f11610064578063b858fb5f14610358578063c37dfc5b1461036b578063ca15c8731461037e578063d547741f1461039e578063ddca3f43146103be57600080fd5b80637241fb7d146102bd5780639010d07c146102eb57806391d1485414610323578063a217fddf1461034357600080fd5b8063248a9ca3116100dc578063248a9ca3146101e65780632f2ff15d1461021657806336568abe1461023857806336de974214610258578063514fcac71461029d57600080fd5b806301ffc9a71461010e578063044215c6146101435780630c1097101461018257806321603f43146101b0575b600080fd5b34801561011a57600080fd5b5061012e610129366004612b89565b610430565b60405190151581526020015b60405180910390f35b34801561014f57600080fd5b5061016361015e366004612b21565b61045b565b604080516001600160a01b03909316835260208301919091520161013a565b34801561018e57600080fd5b506101a261019d366004612c41565b6104c9565b60405190815260200161013a565b3480156101bc57600080fd5b506101d06101cb366004612b21565b61099c565b60405161013a9a99989796959493929190612e07565b3480156101f257600080fd5b506101a2610201366004612b21565b60009081526020819052604090206001015490565b34801561022257600080fd5b50610236610231366004612b39565b610be5565b005b34801561024457600080fd5b50610236610253366004612b39565b610c0f565b34801561026457600080fd5b506102786102733660046129e6565b610c8d565b6040805193151584526001600160a01b0390921660208401529082015260600161013a565b3480156102a957600080fd5b506102366102b8366004612b21565b610d2f565b3480156102c957600080fd5b506102dd6102d836600461298e565b611068565b60405161013a929190612d9c565b3480156102f757600080fd5b5061030b610306366004612b68565b6111bd565b6040516001600160a01b03909116815260200161013a565b34801561032f57600080fd5b5061012e61033e366004612b39565b6111dc565b34801561034f57600080fd5b506101a2600081565b610236610366366004612b68565b611205565b610236610379366004612b68565b6117bd565b34801561038a57600080fd5b506101a2610399366004612b21565b612153565b3480156103aa57600080fd5b506102366103b9366004612b39565b61216a565b3480156103ca57600080fd5b50604080516001600160a01b037f00000000000000000000000000000000000000000000000000000000000000001681526001600160601b037f00000000000000000000000000000000000000000000000000000000000000001660208201520161013a565b60006001600160e01b03198216635a05180f60e01b1480610455575061045582612228565b92915050565b600081815260026020526040812060030154819083906001600160a01b031661049f5760405162461bcd60e51b815260040161049690612ec2565b60405180910390fd5b505050600090815260026020526040902060068101546007909101546001600160a01b0390911691565b6000806104d6888861225d565b9050600081116105345760405162461bcd60e51b815260206004820152603560248201526000805160206130e08339815191526044820152741899481bdc195b88185d081cdbdb59481c1bda5b9d605a1b6064820152608401610496565b600189600181111561055657634e487b7160e01b600052602160045260246000fd5b14156105ef5762278d008111156105ef5760405162461bcd60e51b815260206004820152605160248201527f4c656d6f6e6164654d61726b6574706c6163653a206f72646572206f66206b6960448201527f6e642061756374696f6e206d757374206e6f74206265206f70656e20666f72206064820152706d6f7265207468616e203330206461797360781b608482015260a401610496565b6040516323b872dd60e01b81526001600160a01b038516906323b872dd9061061f90339030908890600401612d78565b600060405180830381600087803b15801561063957600080fd5b505af115801561064d573d6000803e3d6000fd5b50505050600061065c60035490565b9050604051806101a001604052808b600181111561068a57634e487b7160e01b600052602160045260246000fd5b815260016020820152604081018b9052606081018a9052608001336001600160a01b03908116825289811660208084019190915260408084018b9052918916606084015260808301889052600060a0840181905260c0840181905260e0840181905261010090930183905284835260029052902081518154829060ff19166001838181111561072957634e487b7160e01b600052602160045260246000fd5b02179055506020820151815461ff00191661010091151582021782556040830151600180840191909155606084015160028401556080840151600380850180546001600160a01b03199081166001600160a01b039485161790915560a0870151600487018054831691851691909117905560c0870151600587015560e0870151600687018054831691851691909117905593860151600786015561012086015160088601805486169184169190911790556101408601516009860155610160860151600a8601805490951692169190911790925561018090930151600b909201919091558054909101905560008181526002602052604080822081516101a081019092528054829060ff16600181111561085357634e487b7160e01b600052602160045260246000fd5b600181111561087257634e487b7160e01b600052602160045260246000fd5b8152815460ff6101009182900416151560208301526001830154604080840191909152600284015460608085019190915260038501546001600160a01b039081166080808701919091526004870154821660a080880191909152600588015460c0808901919091526006890154841660e0808a019190915260078a0154888a015260088a015485166101208a015260098a01546101408a0152600a8a015485166101608a0152600b909901546101809098019790975290880151885189860151948a0151928a0151978a0151988a0151968a01519551999a509216978a977f4e400f43dce6cc22df28146360114559ffae81b0644d4752872c7def6d77319e97610986979496939490939192909190612e66565b60405180910390a3509998505050505050505050565b6000818152600260205260408120600301548190819081908190819081908190819081908b906001600160a01b03166109e75760405162461bcd60e51b815260040161049690612ec2565b60008c81526002602052604080822081516101a081019092528054829060ff166001811115610a2657634e487b7160e01b600052602160045260246000fd5b6001811115610a4557634e487b7160e01b600052602160045260246000fd5b81526020016000820160019054906101000a900460ff1615151515815260200160018201548152602001600282015481526020016003820160009054906101000a90046001600160a01b03166001600160a01b03166001600160a01b031681526020016004820160009054906101000a90046001600160a01b03166001600160a01b03166001600160a01b03168152602001600582015481526020016006820160009054906101000a90046001600160a01b03166001600160a01b03166001600160a01b03168152602001600782015481526020016008820160009054906101000a90046001600160a01b03166001600160a01b03166001600160a01b0316815260200160098201548152602001600a820160009054906101000a90046001600160a01b03166001600160a01b03166001600160a01b03168152602001600b820154815250509050806000015181602001518260400151836060015184608001518560a001518660c001518761014001518861016001518961018001519b509b509b509b509b509b509b509b509b509b5050509193959799509193959799565b600082815260208190526040902060010154610c00816122ab565b610c0a83836122b8565b505050565b6001600160a01b0381163314610c7f5760405162461bcd60e51b815260206004820152602f60248201527f416363657373436f6e74726f6c3a2063616e206f6e6c792072656e6f756e636560448201526e103937b632b9903337b91039b2b63360891b6064820152608401610496565b610c8982826122da565b5050565b60405163152a902d60e11b81526004810183905260248101829052600090819081906001600160a01b03871690632a55205a90604401604080518083038186803b158015610cda57600080fd5b505afa925050508015610d0a575060408051601f3d908101601f19168201909252610d07918101906129b9565b60015b610d1c57506000915081905080610d26565b6001945090925090505b93509350939050565b60008181526002602052604090206003015481906001600160a01b0316610d685760405162461bcd60e51b815260040161049690612ec2565b60008281526002602052604080822081516101a081019092528054829060ff166001811115610da757634e487b7160e01b600052602160045260246000fd5b6001811115610dc657634e487b7160e01b600052602160045260246000fd5b815281546101009081900460ff1615156020830152600183015460408301526002830154606083015260038301546001600160a01b0390811660808401526004840154811660a0840152600584015460c08401526006840154811660e0840152600784015491830191909152600883015481166101208301526009830154610140830152600a83015416610160820152600b90910154610180909101529050336001600160a01b031681608001516001600160a01b03161480610e8f5750610e8f6000336111dc565b610ef45760405162461bcd60e51b815260206004820152603060248201527f4c656d6f6e6164654d61726b6574706c6163653a206d7573742062652074686560448201526f081b585ad95c881d1bc818d85b98d95b60821b6064820152608401610496565b8060200151610f4d5760405162461bcd60e51b815260206004820152603160248201526000805160206130e08339815191526044820152701899481bdc195b881d1bc818d85b98d95b607a1b6064820152608401610496565b6101208101516001600160a01b031615610fb55760405162461bcd60e51b815260206004820152603560248201526000805160206130e08339815191526044820152741a185d99481b9bc8189a59081d1bc818d85b98d95b605a1b6064820152608401610496565b60e081015160808201516101008301516040516323b872dd60e01b81526001600160a01b03909316926323b872dd92610ff2923092600401612d78565b600060405180830381600087803b15801561100c57600080fd5b505af1158015611020573d6000803e3d6000fd5b505050600084815260026020526040808220805461ff0019169055518592507f61b9399f2f0f32ca39ce8d7be32caed5ec22fe07a6daba3a467ed479ec6065829190a2505050565b6000606073ffffffffffffffffffffffffffffffff0000000084167317c4e6453cc49aaaaeaca894e6d9683e00000000146110b0576110a784846122fc565b915091506111b6565b6040805180820182526009815268726f79616c7469657360b81b60208201529051637228c32760e01b81526001600160a01b03861691637228c327916110fa918791600401612f57565b60006040518083038186803b15801561111257600080fd5b505afa92505050801561114757506040513d6000823e601f3d908101601f191682016040526111449190810190612bb1565b60015b611192576040805160008082526020820190925281611188565b60408051808201909152600080825260208201528152602001906001900390816111615790505b50915091506111b6565b6000818060200190518101906111a89190612a1a565b6001945092506111b6915050565b9250929050565b60008281526001602052604081206111d5908361239c565b9392505050565b6000918252602082815260408084206001600160a01b0393909316845291905290205460ff1690565b60008281526002602052604090206003015482906001600160a01b031661123e5760405162461bcd60e51b815260040161049690612ec2565b60008381526002602052604080822081516101a081019092528054829060ff16600181111561127d57634e487b7160e01b600052602160045260246000fd5b600181111561129c57634e487b7160e01b600052602160045260246000fd5b8152815460ff61010091829004161515602083015260018084015460408401526002840154606084015260038401546001600160a01b0390811660808501526004850154811660a0850152600585015460c08501526006850154811660e0850152600785015492840192909252600884015482166101208401526009840154610140840152600a840154909116610160830152600b90920154610180909101529091508151600181111561136057634e487b7160e01b600052602160045260246000fd5b146113c15760405162461bcd60e51b815260206004820152603960248201526000805160206130e083398151915260448201527f6265206f66206b696e642061756374696f6e20746f20626964000000000000006064820152608401610496565b80602001516114175760405162461bcd60e51b815260206004820152602e60248201526000805160206130e083398151915260448201526d1899481bdc195b881d1bc8189a5960921b6064820152608401610496565b428160400151111561147f5760405162461bcd60e51b815260206004820152603a60248201526000805160206130e083398151915260448201527f6265206f70656e20746f20626964202d20746f6f206561726c790000000000006064820152608401610496565b428160600151116114e65760405162461bcd60e51b815260206004820152603960248201526000805160206130e083398151915260448201527f6265206f70656e20746f20626964202d20746f6f206c617465000000000000006064820152608401610496565b828160c00151111561154f5760405162461bcd60e51b815260206004820152602c60248201527f4c656d6f6e6164654d61726b6574706c6163653a206d757374206d617463682060448201526b1c1c9a58d9481d1bc8189a5960a21b6064820152608401610496565b60a08101516001600160a01b031615158061156957503483145b6115855760405162461bcd60e51b815260040161049690612f08565b6101208101516001600160a01b0316156116275782816101400151106116025760405162461bcd60e51b815260206004820152602c60248201527f4c656d6f6e6164654d61726b6574706c6163653a206d7573742073757270617360448201526b1cc8189a59081d1bc8189a5960a21b6064820152608401610496565b61014081015115611627576116278160a00151308361012001518461014001516123a8565b600084815260026020526040908190206008810180546001600160a01b031916331790556009810185905581516101a081019092528054829060ff16600181111561168257634e487b7160e01b600052602160045260246000fd5b60018111156116a157634e487b7160e01b600052602160045260246000fd5b8152815460ff610100918290041615156020830152600183015460408301526002830154606083015260038301546001600160a01b0390811660808401526004840154811660a0840152600584015460c08401526006840154811660e084015260078401549183019190915260088301548116610120830152600983015461014080840191909152600a840154909116610160830152600b909201546101809091015281015190915015611769576117698160a00151826101200151308461014001516123a8565b8061012001516001600160a01b0316847f43c168f1d9d74d73325ab680f380bc731699766781190d47b123572b01b2fa288361014001516040516117af91815260200190565b60405180910390a350505050565b60008281526002602052604090206003015482906001600160a01b03166117f65760405162461bcd60e51b815260040161049690612ec2565b60008381526002602052604080822081516101a081019092528054829060ff16600181111561183557634e487b7160e01b600052602160045260246000fd5b600181111561185457634e487b7160e01b600052602160045260246000fd5b8152815460ff61010091829004161515602080840191909152600184015460408401526002840154606084015260038401546001600160a01b0390811660808501526004850154811660a0850152600585015460c08501526006850154811660e0850152600785015492840192909252600884015482166101208401526009840154610140840152600a840154909116610160830152600b909201546101809091015281015190915061194f5760405162461bcd60e51b815260206004820152602f60248201526000805160206130e083398151915260448201526e1899481bdc195b881d1bc8199a5b1b608a1b6064820152608401610496565b6000848152600260205260408120805461ff0019169055808251600181111561198857634e487b7160e01b600052602160045260246000fd5b1415611b4d5742826040015111156119f65760405162461bcd60e51b815260206004820152603b60248201526000805160206130e083398151915260448201527f6265206f70656e20746f2066696c6c202d20746f6f206561726c7900000000006064820152608401610496565b60608201511580611a0a5750428260600151115b611a6a5760405162461bcd60e51b815260206004820152603a60248201526000805160206130e083398151915260448201527f6265206f70656e20746f2066696c6c202d20746f6f206c6174650000000000006064820152608401610496565b838260c001511115611ae45760405162461bcd60e51b815260206004820152603a60248201527f4c656d6f6e6164654d61726b6574706c6163653a206d757374206d617463682060448201527f707269636520746f2066696c6c20646972656374206f726465720000000000006064820152608401610496565b60a08201516001600160a01b0316151580611afe57503484145b611b1a5760405162461bcd60e51b815260040161049690612f08565b506000848152600260205260409020600a810180546001600160a01b03191633908117909155600b909101849055611cfa565b600182516001811115611b7057634e487b7160e01b600052602160045260246000fd5b1415611cfa576101208201516001600160a01b0316611be55760405162461bcd60e51b815260206004820152603e60248201526000805160206130e083398151915260448201527f686176652062696420746f2066696c6c2061756374696f6e206f7264657200006064820152608401610496565b6101208201516001600160a01b031633148015611c06575042826060015111155b80611c1d575060808201516001600160a01b031633145b80611c2e5750611c2e6000336111dc565b611cb55760405162461bcd60e51b815260206004820152604c60248201527f4c656d6f6e6164654d61726b6574706c6163653a206d7573742062652074686560448201527f206d616b6572206f722066696e616c2062696464657220746f2066696c6c206160648201526b3ab1ba34b7b71037b93232b960a11b608482015260a401610496565b506101208101516000858152600260205260409020600a810180546001600160a01b0319166001600160a01b0390931692909217909155610140820151600b90910155305b6000858152600260205260409081902081516101a081019092528054829060ff166001811115611d3a57634e487b7160e01b600052602160045260246000fd5b6001811115611d5957634e487b7160e01b600052602160045260246000fd5b8152815460ff610100918290041615156020830152600183015460408301526002830154606083015260038301546001600160a01b0390811660808401526004840154811660a0840152600584015460c08401526006840154811660e0840152600784015491830191909152600883015481166101208301526009830154610140830152600a83015416610160820152600b90910154610180918201528101519092501561208e576101808201516000612710611e3f6001600160601b037f0000000000000000000000000000000000000000000000000000000000000000168461300a565b611e499190612fea565b9050611e7b8460a00151847f0000000000000000000000000000000000000000000000000000000000000000846123a8565b611e858183613029565b9150600080611e9d8660e00151876101000151611068565b915091508115611ff657805160005b81811015611fef57828181518110611ed457634e487b7160e01b600052603260045260246000fd5b6020026020010151600001516001600160a01b031688608001516001600160a01b031614158015611f3957506000838281518110611f2257634e487b7160e01b600052603260045260246000fd5b6020026020010151602001516001600160601b0316115b15611fdd576000612710848381518110611f6357634e487b7160e01b600052603260045260246000fd5b6020026020010151602001516001600160601b03168a6101800151611f88919061300a565b611f929190612fea565b9050611fcf8960a0015189868581518110611fbd57634e487b7160e01b600052603260045260246000fd5b602002602001015160000151846123a8565b611fd98188613029565b9650505b80611fe781613083565b915050611eac565b505061206f565b60008060006120148960e001518a61010001518b6101800151610c8d565b92509250925082801561203d5750816001600160a01b031689608001516001600160a01b031614155b80156120495750600081115b1561206b5761205e8960a001518984846123a8565b6120688188613029565b96505b5050505b8315612089576120898660a00151868860800151876123a8565b505050505b60e08201516101608301516101008401516040516323b872dd60e01b81526001600160a01b03909316926323b872dd926120cc923092600401612d78565b600060405180830381600087803b1580156120e657600080fd5b505af11580156120fa573d6000803e3d6000fd5b505050508161016001516001600160a01b0316857f1e7abafb1a786c4e6394b5c494f50a97e3802ff2ce462eca4fe6a2dd4e1f92e884610180015160405161214491815260200190565b60405180910390a35050505050565b600081815260016020526040812061045590612520565b600082815260208190526040902060010154612185816122ab565b610c0a83836122da565b61219982826111dc565b610c89576000828152602081815260408083206001600160a01b03851684529091529020805460ff191660011790556121cf3390565b6001600160a01b0316816001600160a01b0316837f2f8788117e7eff1d82e926ec794901d17c78024a50270940304540a733656f0d60405160405180910390a45050565b60006111d5836001600160a01b03841661252a565b60006001600160e01b03198216637965db0b60e01b148061045557506301ffc9a760e01b6001600160e01b0319831614610455565b60008042841061226d578361226f565b425b90506000831561227f5783612283565b6000195b90508082111561229857600092505050610455565b6122a28282613029565b95945050505050565b6122b58133612579565b50565b6122c2828261218f565b6000828152600160205260409020610c0a9082612213565b6122e482826125dd565b6000828152600160205260409020610c0a9082612642565b60405163656cb66560e11b8152600481018290526000906060906001600160a01b0385169063cad96cca9060240160006040518083038186803b15801561234257600080fd5b505afa92505050801561237757506040513d6000823e601f3d908101601f191682016040526123749190810190612a1a565b60015b612391576040805160008082526020820190925281611188565b6001925090506111b6565b60006111d58383612657565b6001600160a01b038416612403576001600160a01b03821630146123fe576040516001600160a01b0383169082156108fc029083906000818181858888f193505050501580156123fc573d6000803e3d6000fd5b505b61251a565b6001600160a01b0383163014156124965760405163a9059cbb60e01b81526001600160a01b0383811660048301526024820183905285169063a9059cbb90604401602060405180830381600087803b15801561245e57600080fd5b505af1158015612472573d6000803e3d6000fd5b505050506040513d601f19601f820116820180604052508101906123fc9190612b01565b6040516323b872dd60e01b81526001600160a01b038516906323b872dd906124c690869086908690600401612d78565b602060405180830381600087803b1580156124e057600080fd5b505af11580156124f4573d6000803e3d6000fd5b505050506040513d601f19601f820116820180604052508101906125189190612b01565b505b50505050565b6000610455825490565b600081815260018301602052604081205461257157508154600181810184556000848152602080822090930184905584548482528286019093526040902091909155610455565b506000610455565b61258382826111dc565b610c895761259b816001600160a01b0316601461268f565b6125a683602061268f565b6040516020016125b7929190612d03565b60408051601f198184030181529082905262461bcd60e51b825261049691600401612eaf565b6125e782826111dc565b15610c89576000828152602081815260408083206001600160a01b0385168085529252808320805460ff1916905551339285917ff6391f5c32d9c69d2a47ea670b442974b53935d1edc7fd64eb21e047a839171b9190a45050565b60006111d5836001600160a01b038416612871565b600082600001828154811061267c57634e487b7160e01b600052603260045260246000fd5b9060005260206000200154905092915050565b6060600061269e83600261300a565b6126a9906002612fd2565b67ffffffffffffffff8111156126cf57634e487b7160e01b600052604160045260246000fd5b6040519080825280601f01601f1916602001820160405280156126f9576020820181803683370190505b509050600360fc1b8160008151811061272257634e487b7160e01b600052603260045260246000fd5b60200101906001600160f81b031916908160001a905350600f60fb1b8160018151811061275f57634e487b7160e01b600052603260045260246000fd5b60200101906001600160f81b031916908160001a905350600061278384600261300a565b61278e906001612fd2565b90505b6001811115612822576f181899199a1a9b1b9c1cb0b131b232b360811b85600f16601081106127d057634e487b7160e01b600052603260045260246000fd5b1a60f81b8282815181106127f457634e487b7160e01b600052603260045260246000fd5b60200101906001600160f81b031916908160001a90535060049490941c9361281b8161306c565b9050612791565b5083156111d55760405162461bcd60e51b815260206004820181905260248201527f537472696e67733a20686578206c656e67746820696e73756666696369656e746044820152606401610496565b60008181526001830160205260408120548015612984576000612895600183613029565b85549091506000906128a990600190613029565b905081811461292a5760008660000182815481106128d757634e487b7160e01b600052603260045260246000fd5b906000526020600020015490508087600001848154811061290857634e487b7160e01b600052603260045260246000fd5b6000918252602080832090910192909255918252600188019052604090208390555b855486908061294957634e487b7160e01b600052603160045260246000fd5b600190038181906000526020600020016000905590558560010160008681526020019081526020016000206000905560019350505050610455565b6000915050610455565b600080604083850312156129a0578182fd5b82356129ab816130ca565b946020939093013593505050565b600080604083850312156129cb578182fd5b82516129d6816130ca565b6020939093015192949293505050565b6000806000606084860312156129fa578081fd5b8335612a05816130ca565b95602085013595506040909401359392505050565b60006020808385031215612a2c578182fd5b825167ffffffffffffffff80821115612a43578384fd5b818501915085601f830112612a56578384fd5b815181811115612a6857612a686130b4565b612a76848260051b01612fa1565b8181528481019250838501600683901b85018601891015612a95578687fd5b8694505b82851015612af557604080828b031215612ab1578788fd5b612ab9612f78565b8251612ac4816130ca565b8152828801516001600160601b0381168114612ade57898afd5b818901528552600195909501949386019301612a99565b50979650505050505050565b600060208284031215612b12578081fd5b815180151581146111d5578182fd5b600060208284031215612b32578081fd5b5035919050565b60008060408385031215612b4b578182fd5b823591506020830135612b5d816130ca565b809150509250929050565b60008060408385031215612b7a578182fd5b50508035926020909101359150565b600060208284031215612b9a578081fd5b81356001600160e01b0319811681146111d5578182fd5b600060208284031215612bc2578081fd5b815167ffffffffffffffff80821115612bd9578283fd5b818401915084601f830112612bec578283fd5b815181811115612bfe57612bfe6130b4565b612c11601f8201601f1916602001612fa1565b9150808252856020828501011115612c27578384fd5b612c38816020840160208601613040565b50949350505050565b600080600080600080600060e0888a031215612c5b578283fd5b873560028110612c69578384fd5b965060208801359550604088013594506060880135612c87816130ca565b93506080880135925060a0880135612c9e816130ca565b8092505060c0880135905092959891949750929550565b60028110612cd357634e487b7160e01b600052602160045260246000fd5b9052565b60008151808452612cef816020860160208601613040565b601f01601f19169290920160200192915050565b7f416363657373436f6e74726f6c3a206163636f756e7420000000000000000000815260008351612d3b816017850160208801613040565b7001034b99036b4b9b9b4b733903937b6329607d1b6017918401918201528351612d6c816028840160208801613040565b01602801949350505050565b6001600160a01b039384168152919092166020820152604081019190915260600190565b600060408083018515158452602082818601528186518084526060870191508288019350855b81811015612df957845180516001600160a01b031684528401516001600160601b0316848401529383019391850191600101612dc2565b509098975050505050505050565b6101408101612e16828d612cb5565b9915156020820152604081019890985260608801969096526001600160a01b03948516608088015292841660a087015260c086019190915260e08501521661010083015261012090910152919050565b60e08101612e74828a612cb5565b602082019790975260408101959095526001600160a01b039384166060860152608085019290925290911660a083015260c090910152919050565b6020815260006111d56020830184612cd7565b60208082526026908201527f4c656d6f6e6164654d61726b6574706c6163653a206f72646572206e6f6e65786040820152651a5cdd195b9d60d21b606082015260800190565b6020808252602f908201527f4c656d6f6e6164654d61726b6574706c6163653a20616d6f756e74206d75737460408201526e206d617463682074782076616c756560881b606082015260800190565b828152604060208201526000612f706040830184612cd7565b949350505050565b6040805190810167ffffffffffffffff81118282101715612f9b57612f9b6130b4565b60405290565b604051601f8201601f1916810167ffffffffffffffff81118282101715612fca57612fca6130b4565b604052919050565b60008219821115612fe557612fe561309e565b500190565b60008261300557634e487b7160e01b81526012600452602481fd5b500490565b60008160001904831182151516156130245761302461309e565b500290565b60008282101561303b5761303b61309e565b500390565b60005b8381101561305b578181015183820152602001613043565b8381111561251a5750506000910152565b60008161307b5761307b61309e565b506000190190565b60006000198214156130975761309761309e565b5060010190565b634e487b7160e01b600052601160045260246000fd5b634e487b7160e01b600052604160045260246000fd5b6001600160a01b03811681146122b557600080fdfe4c656d6f6e6164654d61726b6574706c6163653a206f72646572206d75737420a26469706673582212203dad2c4cc10208ff419009f22e23ffb2965da17952f97a8455b1fa4792a9274964736f6c63430008040033",
  "devdoc": {
    "kind": "dev",
    "methods": {
      "getRoleAdmin(bytes32)": {
        "details": "Returns the admin role that controls `role`. See {grantRole} and {revokeRole}. To change a role's admin, use {_setRoleAdmin}."
      },
      "getRoleMember(bytes32,uint256)": {
        "details": "Returns one of the accounts that have `role`. `index` must be a value between 0 and {getRoleMemberCount}, non-inclusive. Role bearers are not sorted in any particular way, and their ordering may change at any point. WARNING: When using {getRoleMember} and {getRoleMemberCount}, make sure you perform all queries on the same block. See the following https://forum.openzeppelin.com/t/iterating-over-elements-on-enumerableset-in-openzeppelin-contracts/2296[forum post] for more information."
      },
      "getRoleMemberCount(bytes32)": {
        "details": "Returns the number of accounts that have `role`. Can be used together with {getRoleMember} to enumerate all bearers of a role."
      },
      "grantRole(bytes32,address)": {
        "details": "Grants `role` to `account`. If `account` had not been already granted `role`, emits a {RoleGranted} event. Requirements: - the caller must have ``role``'s admin role."
      },
      "hasRole(bytes32,address)": {
        "details": "Returns `true` if `account` has been granted `role`."
      },
      "renounceRole(bytes32,address)": {
        "details": "Revokes `role` from the calling account. Roles are often managed via {grantRole} and {revokeRole}: this function's purpose is to provide a mechanism for accounts to lose their privileges if they are compromised (such as when a trusted device is misplaced). If the calling account had been revoked `role`, emits a {RoleRevoked} event. Requirements: - the caller must be `account`."
      },
      "revokeRole(bytes32,address)": {
        "details": "Revokes `role` from `account`. If `account` had been granted `role`, emits a {RoleRevoked} event. Requirements: - the caller must have ``role``'s admin role."
      },
      "supportsInterface(bytes4)": {
        "details": "See {IERC165-supportsInterface}."
      }
    },
    "version": 1
  },
  "userdoc": {
    "kind": "user",
    "methods": {},
    "version": 1
  },
  "storageLayout": {
    "storage": [
      {
        "astId": 24,
        "contract": "contracts/LemonadeMarketplaceV1Unique.sol:LemonadeMarketplaceV1Unique",
        "label": "_roles",
        "offset": 0,
        "slot": "0",
        "type": "t_mapping(t_bytes32,t_struct(RoleData)19_storage)"
      },
      {
        "astId": 338,
        "contract": "contracts/LemonadeMarketplaceV1Unique.sol:LemonadeMarketplaceV1Unique",
        "label": "_roleMembers",
        "offset": 0,
        "slot": "1",
        "type": "t_mapping(t_bytes32,t_struct(AddressSet)3833_storage)"
      },
      {
        "astId": 7445,
        "contract": "contracts/LemonadeMarketplaceV1Unique.sol:LemonadeMarketplaceV1Unique",
        "label": "_orders",
        "offset": 0,
        "slot": "2",
        "type": "t_mapping(t_uint256,t_struct(Order)7440_storage)"
      },
      {
        "astId": 7448,
        "contract": "contracts/LemonadeMarketplaceV1Unique.sol:LemonadeMarketplaceV1Unique",
        "label": "_orderIdTracker",
        "offset": 0,
        "slot": "3",
        "type": "t_struct(Counter)3214_storage"
      }
    ],
    "types": {
      "t_address": {
        "encoding": "inplace",
        "label": "address",
        "numberOfBytes": "20"
      },
      "t_array(t_bytes32)dyn_storage": {
        "base": "t_bytes32",
        "encoding": "dynamic_array",
        "label": "bytes32[]",
        "numberOfBytes": "32"
      },
      "t_bool": {
        "encoding": "inplace",
        "label": "bool",
        "numberOfBytes": "1"
      },
      "t_bytes32": {
        "encoding": "inplace",
        "label": "bytes32",
        "numberOfBytes": "32"
      },
      "t_enum(OrderKind)7371": {
        "encoding": "inplace",
        "label": "enum LemonadeMarketplaceV1.OrderKind",
        "numberOfBytes": "1"
      },
      "t_mapping(t_address,t_bool)": {
        "encoding": "mapping",
        "key": "t_address",
        "label": "mapping(address => bool)",
        "numberOfBytes": "32",
        "value": "t_bool"
      },
      "t_mapping(t_bytes32,t_struct(AddressSet)3833_storage)": {
        "encoding": "mapping",
        "key": "t_bytes32",
        "label": "mapping(bytes32 => struct EnumerableSet.AddressSet)",
        "numberOfBytes": "32",
        "value": "t_struct(AddressSet)3833_storage"
      },
      "t_mapping(t_bytes32,t_struct(RoleData)19_storage)": {
        "encoding": "mapping",
        "key": "t_bytes32",
        "label": "mapping(bytes32 => struct AccessControl.RoleData)",
        "numberOfBytes": "32",
        "value": "t_struct(RoleData)19_storage"
      },
      "t_mapping(t_bytes32,t_uint256)": {
        "encoding": "mapping",
        "key": "t_bytes32",
        "label": "mapping(bytes32 => uint256)",
        "numberOfBytes": "32",
        "value": "t_uint256"
      },
      "t_mapping(t_uint256,t_struct(Order)7440_storage)": {
        "encoding": "mapping",
        "key": "t_uint256",
        "label": "mapping(uint256 => struct LemonadeMarketplaceV1.Order)",
        "numberOfBytes": "32",
        "value": "t_struct(Order)7440_storage"
      },
      "t_struct(AddressSet)3833_storage": {
        "encoding": "inplace",
        "label": "struct EnumerableSet.AddressSet",
        "members": [
          {
            "astId": 3832,
            "contract": "contracts/LemonadeMarketplaceV1Unique.sol:LemonadeMarketplaceV1Unique",
            "label": "_inner",
            "offset": 0,
            "slot": "0",
            "type": "t_struct(Set)3532_storage"
          }
        ],
        "numberOfBytes": "64"
      },
      "t_struct(Counter)3214_storage": {
        "encoding": "inplace",
        "label": "struct Counters.Counter",
        "members": [
          {
            "astId": 3213,
            "contract": "contracts/LemonadeMarketplaceV1Unique.sol:LemonadeMarketplaceV1Unique",
            "label": "_value",
            "offset": 0,
            "slot": "0",
            "type": "t_uint256"
          }
        ],
        "numberOfBytes": "32"
      },
      "t_struct(Order)7440_storage": {
        "encoding": "inplace",
        "label": "struct LemonadeMarketplaceV1.Order",
        "members": [
          {
            "astId": 7415,
            "contract": "contracts/LemonadeMarketplaceV1Unique.sol:LemonadeMarketplaceV1Unique",
            "label": "kind",
            "offset": 0,
            "slot": "0",
            "type": "t_enum(OrderKind)7371"
          },
          {
            "astId": 7417,
            "contract": "contracts/LemonadeMarketplaceV1Unique.sol:LemonadeMarketplaceV1Unique",
            "label": "open",
            "offset": 1,
            "slot": "0",
            "type": "t_bool"
          },
          {
            "astId": 7419,
            "contract": "contracts/LemonadeMarketplaceV1Unique.sol:LemonadeMarketplaceV1Unique",
            "label": "openFrom",
            "offset": 0,
            "slot": "1",
            "type": "t_uint256"
          },
          {
            "astId": 7421,
            "contract": "contracts/LemonadeMarketplaceV1Unique.sol:LemonadeMarketplaceV1Unique",
            "label": "openTo",
            "offset": 0,
            "slot": "2",
            "type": "t_uint256"
          },
          {
            "astId": 7423,
            "contract": "contracts/LemonadeMarketplaceV1Unique.sol:LemonadeMarketplaceV1Unique",
            "label": "maker",
            "offset": 0,
            "slot": "3",
            "type": "t_address"
          },
          {
            "astId": 7425,
            "contract": "contracts/LemonadeMarketplaceV1Unique.sol:LemonadeMarketplaceV1Unique",
            "label": "currency",
            "offset": 0,
            "slot": "4",
            "type": "t_address"
          },
          {
            "astId": 7427,
            "contract": "contracts/LemonadeMarketplaceV1Unique.sol:LemonadeMarketplaceV1Unique",
            "label": "price",
            "offset": 0,
            "slot": "5",
            "type": "t_uint256"
          },
          {
            "astId": 7429,
            "contract": "contracts/LemonadeMarketplaceV1Unique.sol:LemonadeMarketplaceV1Unique",
            "label": "tokenContract",
            "offset": 0,
            "slot": "6",
            "type": "t_address"
          },
          {
            "astId": 7431,
            "contract": "contracts/LemonadeMarketplaceV1Unique.sol:LemonadeMarketplaceV1Unique",
            "label": "tokenId",
            "offset": 0,
            "slot": "7",
            "type": "t_uint256"
          },
          {
            "astId": 7433,
            "contract": "contracts/LemonadeMarketplaceV1Unique.sol:LemonadeMarketplaceV1Unique",
            "label": "bidder",
            "offset": 0,
            "slot": "8",
            "type": "t_address"
          },
          {
            "astId": 7435,
            "contract": "contracts/LemonadeMarketplaceV1Unique.sol:LemonadeMarketplaceV1Unique",
            "label": "bidAmount",
            "offset": 0,
            "slot": "9",
            "type": "t_uint256"
          },
          {
            "astId": 7437,
            "contract": "contracts/LemonadeMarketplaceV1Unique.sol:LemonadeMarketplaceV1Unique",
            "label": "taker",
            "offset": 0,
            "slot": "10",
            "type": "t_address"
          },
          {
            "astId": 7439,
            "contract": "contracts/LemonadeMarketplaceV1Unique.sol:LemonadeMarketplaceV1Unique",
            "label": "paidAmount",
            "offset": 0,
            "slot": "11",
            "type": "t_uint256"
          }
        ],
        "numberOfBytes": "384"
      },
      "t_struct(RoleData)19_storage": {
        "encoding": "inplace",
        "label": "struct AccessControl.RoleData",
        "members": [
          {
            "astId": 16,
            "contract": "contracts/LemonadeMarketplaceV1Unique.sol:LemonadeMarketplaceV1Unique",
            "label": "members",
            "offset": 0,
            "slot": "0",
            "type": "t_mapping(t_address,t_bool)"
          },
          {
            "astId": 18,
            "contract": "contracts/LemonadeMarketplaceV1Unique.sol:LemonadeMarketplaceV1Unique",
            "label": "adminRole",
            "offset": 0,
            "slot": "1",
            "type": "t_bytes32"
          }
        ],
        "numberOfBytes": "64"
      },
      "t_struct(Set)3532_storage": {
        "encoding": "inplace",
        "label": "struct EnumerableSet.Set",
        "members": [
          {
            "astId": 3527,
            "contract": "contracts/LemonadeMarketplaceV1Unique.sol:LemonadeMarketplaceV1Unique",
            "label": "_values",
            "offset": 0,
            "slot": "0",
            "type": "t_array(t_bytes32)dyn_storage"
          },
          {
            "astId": 3531,
            "contract": "contracts/LemonadeMarketplaceV1Unique.sol:LemonadeMarketplaceV1Unique",
            "label": "_indexes",
            "offset": 0,
            "slot": "1",
            "type": "t_mapping(t_bytes32,t_uint256)"
          }
        ],
        "numberOfBytes": "64"
      },
      "t_uint256": {
        "encoding": "inplace",
        "label": "uint256",
        "numberOfBytes": "32"
      }
    }
  }
}