{
  "address": "0xbc6C027B7F0CA2BEb0d71E479a05758187d4ea63",
  "abi": [
    {
      "inputs": [
        {
          "internalType": "address",
          "name": "feeAccount_",
          "type": "address"
        },
        {
          "internalType": "uint96",
          "name": "feeValue_",
          "type": "uint96"
        }
      ],
      "stateMutability": "nonpayable",
      "type": "constructor"
    },
    {
      "anonymous": false,
      "inputs": [
        {
          "indexed": true,
          "internalType": "uint256",
          "name": "orderId",
          "type": "uint256"
        },
        {
          "indexed": true,
          "internalType": "address",
          "name": "bidder",
          "type": "address"
        },
        {
          "indexed": false,
          "internalType": "uint256",
          "name": "bidAmount",
          "type": "uint256"
        }
      ],
      "name": "OrderBid",
      "type": "event"
    },
    {
      "anonymous": false,
      "inputs": [
        {
          "indexed": true,
          "internalType": "uint256",
          "name": "orderId",
          "type": "uint256"
        }
      ],
      "name": "OrderCancelled",
      "type": "event"
    },
    {
      "anonymous": false,
      "inputs": [
        {
          "indexed": true,
          "internalType": "uint256",
          "name": "orderId",
          "type": "uint256"
        },
        {
          "indexed": false,
          "internalType": "enum LemonadeMarketplaceV1.OrderKind",
          "name": "kind",
          "type": "uint8"
        },
        {
          "indexed": false,
          "internalType": "uint256",
          "name": "openFrom",
          "type": "uint256"
        },
        {
          "indexed": false,
          "internalType": "uint256",
          "name": "openTo",
          "type": "uint256"
        },
        {
          "indexed": true,
          "internalType": "address",
          "name": "maker",
          "type": "address"
        },
        {
          "indexed": false,
          "internalType": "address",
          "name": "currency",
          "type": "address"
        },
        {
          "indexed": false,
          "internalType": "uint256",
          "name": "price",
          "type": "uint256"
        },
        {
          "indexed": false,
          "internalType": "address",
          "name": "tokenContract",
          "type": "address"
        },
        {
          "indexed": false,
          "internalType": "uint256",
          "name": "tokenId",
          "type": "uint256"
        }
      ],
      "name": "OrderCreated",
      "type": "event"
    },
    {
      "anonymous": false,
      "inputs": [
        {
          "indexed": true,
          "internalType": "uint256",
          "name": "orderId",
          "type": "uint256"
        },
        {
          "indexed": true,
          "internalType": "address",
          "name": "taker",
          "type": "address"
        },
        {
          "indexed": false,
          "internalType": "uint256",
          "name": "paidAmount",
          "type": "uint256"
        }
      ],
      "name": "OrderFilled",
      "type": "event"
    },
    {
      "anonymous": false,
      "inputs": [
        {
          "indexed": true,
          "internalType": "bytes32",
          "name": "role",
          "type": "bytes32"
        },
        {
          "indexed": true,
          "internalType": "bytes32",
          "name": "previousAdminRole",
          "type": "bytes32"
        },
        {
          "indexed": true,
          "internalType": "bytes32",
          "name": "newAdminRole",
          "type": "bytes32"
        }
      ],
      "name": "RoleAdminChanged",
      "type": "event"
    },
    {
      "anonymous": false,
      "inputs": [
        {
          "indexed": true,
          "internalType": "bytes32",
          "name": "role",
          "type": "bytes32"
        },
        {
          "indexed": true,
          "internalType": "address",
          "name": "account",
          "type": "address"
        },
        {
          "indexed": true,
          "internalType": "address",
          "name": "sender",
          "type": "address"
        }
      ],
      "name": "RoleGranted",
      "type": "event"
    },
    {
      "anonymous": false,
      "inputs": [
        {
          "indexed": true,
          "internalType": "bytes32",
          "name": "role",
          "type": "bytes32"
        },
        {
          "indexed": true,
          "internalType": "address",
          "name": "account",
          "type": "address"
        },
        {
          "indexed": true,
          "internalType": "address",
          "name": "sender",
          "type": "address"
        }
      ],
      "name": "RoleRevoked",
      "type": "event"
    },
    {
      "inputs": [],
      "name": "DEFAULT_ADMIN_ROLE",
      "outputs": [
        {
          "internalType": "bytes32",
          "name": "",
          "type": "bytes32"
        }
      ],
      "stateMutability": "view",
      "type": "function"
    },
    {
      "inputs": [
        {
          "internalType": "uint256",
          "name": "orderId",
          "type": "uint256"
        },
        {
          "internalType": "uint256",
          "name": "amount",
          "type": "uint256"
        }
      ],
      "name": "bidOrder",
      "outputs": [],
      "stateMutability": "payable",
      "type": "function"
    },
    {
      "inputs": [
        {
          "internalType": "uint256",
          "name": "orderId",
          "type": "uint256"
        }
      ],
      "name": "cancelOrder",
      "outputs": [],
      "stateMutability": "nonpayable",
      "type": "function"
    },
    {
      "inputs": [
        {
          "internalType": "enum LemonadeMarketplaceV1.OrderKind",
          "name": "kind",
          "type": "uint8"
        },
        {
          "internalType": "uint256",
          "name": "openFrom",
          "type": "uint256"
        },
        {
          "internalType": "uint256",
          "name": "openTo",
          "type": "uint256"
        },
        {
          "internalType": "address",
          "name": "currency",
          "type": "address"
        },
        {
          "internalType": "uint256",
          "name": "price",
          "type": "uint256"
        },
        {
          "internalType": "address",
          "name": "tokenContract",
          "type": "address"
        },
        {
          "internalType": "uint256",
          "name": "tokenId",
          "type": "uint256"
        }
      ],
      "name": "createOrder",
      "outputs": [
        {
          "internalType": "uint256",
          "name": "",
          "type": "uint256"
        }
      ],
      "stateMutability": "nonpayable",
      "type": "function"
    },
    {
      "inputs": [],
      "name": "feeAccount",
      "outputs": [
        {
          "internalType": "address",
          "name": "",
          "type": "address"
        }
      ],
      "stateMutability": "view",
      "type": "function"
    },
    {
      "inputs": [],
      "name": "feeValue",
      "outputs": [
        {
          "internalType": "uint96",
          "name": "",
          "type": "uint96"
        }
      ],
      "stateMutability": "view",
      "type": "function"
    },
    {
      "inputs": [
        {
          "internalType": "uint256",
          "name": "orderId",
          "type": "uint256"
        },
        {
          "internalType": "uint256",
          "name": "amount",
          "type": "uint256"
        }
      ],
      "name": "fillOrder",
      "outputs": [],
      "stateMutability": "payable",
      "type": "function"
    },
    {
      "inputs": [
        {
          "internalType": "address",
          "name": "tokenContract",
          "type": "address"
        },
        {
          "internalType": "uint256",
          "name": "tokenId",
          "type": "uint256"
        }
      ],
      "name": "getRaribleV2Royalties",
      "outputs": [
        {
          "internalType": "bool",
          "name": "",
          "type": "bool"
        },
        {
          "components": [
            {
              "internalType": "address payable",
              "name": "account",
              "type": "address"
            },
            {
              "internalType": "uint96",
              "name": "value",
              "type": "uint96"
            }
          ],
          "internalType": "struct LibPart.Part[]",
          "name": "",
          "type": "tuple[]"
        }
      ],
      "stateMutability": "view",
      "type": "function"
    },
    {
      "inputs": [
        {
          "internalType": "bytes32",
          "name": "role",
          "type": "bytes32"
        }
      ],
      "name": "getRoleAdmin",
      "outputs": [
        {
          "internalType": "bytes32",
          "name": "",
          "type": "bytes32"
        }
      ],
      "stateMutability": "view",
      "type": "function"
    },
    {
      "inputs": [
        {
          "internalType": "bytes32",
          "name": "role",
          "type": "bytes32"
        },
        {
          "internalType": "uint256",
          "name": "index",
          "type": "uint256"
        }
      ],
      "name": "getRoleMember",
      "outputs": [
        {
          "internalType": "address",
          "name": "",
          "type": "address"
        }
      ],
      "stateMutability": "view",
      "type": "function"
    },
    {
      "inputs": [
        {
          "internalType": "bytes32",
          "name": "role",
          "type": "bytes32"
        }
      ],
      "name": "getRoleMemberCount",
      "outputs": [
        {
          "internalType": "uint256",
          "name": "",
          "type": "uint256"
        }
      ],
      "stateMutability": "view",
      "type": "function"
    },
    {
      "inputs": [
        {
          "internalType": "address",
          "name": "tokenContract",
          "type": "address"
        },
        {
          "internalType": "uint256",
          "name": "tokenId",
          "type": "uint256"
        },
        {
          "internalType": "uint256",
          "name": "paidAmount",
          "type": "uint256"
        }
      ],
      "name": "getRoyaltyInfo",
      "outputs": [
        {
          "internalType": "bool",
          "name": "",
          "type": "bool"
        },
        {
          "internalType": "address",
          "name": "",
          "type": "address"
        },
        {
          "internalType": "uint256",
          "name": "",
          "type": "uint256"
        }
      ],
      "stateMutability": "view",
      "type": "function"
    },
    {
      "inputs": [
        {
          "internalType": "bytes32",
          "name": "role",
          "type": "bytes32"
        },
        {
          "internalType": "address",
          "name": "account",
          "type": "address"
        }
      ],
      "name": "grantRole",
      "outputs": [],
      "stateMutability": "nonpayable",
      "type": "function"
    },
    {
      "inputs": [
        {
          "internalType": "bytes32",
          "name": "role",
          "type": "bytes32"
        },
        {
          "internalType": "address",
          "name": "account",
          "type": "address"
        }
      ],
      "name": "hasRole",
      "outputs": [
        {
          "internalType": "bool",
          "name": "",
          "type": "bool"
        }
      ],
      "stateMutability": "view",
      "type": "function"
    },
    {
      "inputs": [
        {
          "internalType": "uint256",
          "name": "orderId",
          "type": "uint256"
        }
      ],
      "name": "order",
      "outputs": [
        {
          "internalType": "enum LemonadeMarketplaceV1.OrderKind",
          "name": "",
          "type": "uint8"
        },
        {
          "internalType": "bool",
          "name": "",
          "type": "bool"
        },
        {
          "internalType": "uint256",
          "name": "",
          "type": "uint256"
        },
        {
          "internalType": "uint256",
          "name": "",
          "type": "uint256"
        },
        {
          "internalType": "address",
          "name": "",
          "type": "address"
        },
        {
          "internalType": "address",
          "name": "",
          "type": "address"
        },
        {
          "internalType": "uint256",
          "name": "",
          "type": "uint256"
        },
        {
          "internalType": "uint256",
          "name": "",
          "type": "uint256"
        },
        {
          "internalType": "address",
          "name": "",
          "type": "address"
        },
        {
          "internalType": "uint256",
          "name": "",
          "type": "uint256"
        }
      ],
      "stateMutability": "view",
      "type": "function"
    },
    {
      "inputs": [],
      "name": "orderIdTracker",
      "outputs": [
        {
          "internalType": "uint256",
          "name": "_value",
          "type": "uint256"
        }
      ],
      "stateMutability": "view",
      "type": "function"
    },
    {
      "inputs": [
        {
          "internalType": "bytes32",
          "name": "role",
          "type": "bytes32"
        },
        {
          "internalType": "address",
          "name": "account",
          "type": "address"
        }
      ],
      "name": "renounceRole",
      "outputs": [],
      "stateMutability": "nonpayable",
      "type": "function"
    },
    {
      "inputs": [
        {
          "internalType": "bytes32",
          "name": "role",
          "type": "bytes32"
        },
        {
          "internalType": "address",
          "name": "account",
          "type": "address"
        }
      ],
      "name": "revokeRole",
      "outputs": [],
      "stateMutability": "nonpayable",
      "type": "function"
    },
    {
      "inputs": [
        {
          "internalType": "bytes4",
          "name": "interfaceId",
          "type": "bytes4"
        }
      ],
      "name": "supportsInterface",
      "outputs": [
        {
          "internalType": "bool",
          "name": "",
          "type": "bool"
        }
      ],
      "stateMutability": "view",
      "type": "function"
    },
    {
      "inputs": [
        {
          "internalType": "uint256",
          "name": "orderId",
          "type": "uint256"
        }
      ],
      "name": "token",
      "outputs": [
        {
          "internalType": "address",
          "name": "",
          "type": "address"
        },
        {
          "internalType": "uint256",
          "name": "",
          "type": "uint256"
        }
      ],
      "stateMutability": "view",
      "type": "function"
    }
  ],
  "transactionHash": "0xe37e9cbc4cbf49453104a97f9bb236e4707fb98bd0bd4bae029698137ab84728",
  "args": [
    "0x951292004e8a18955Cb1095CB72Ca6B01d68336E",
    "200"
  ],
  "numDeployments": 2,
  "solcInputHash": "718bfb621f2f340f8e52c49d4c3534de",
  "bytecode": "0x60c06040523480156200001157600080fd5b506040516200326b3803806200326b8339810160408190526200003491620001d8565b606082901b6001600160601b03191660805260a081811b6001600160a01b03191690526200006b6000620000653390565b62000073565b50506200022a565b6200007f828262000083565b5050565b6200009a8282620000c660201b620021be1760201c565b6000828152600160209081526040909120620000c19183906200224262000166821b17901c565b505050565b6000828152602081815260408083206001600160a01b038516845290915290205460ff166200007f576000828152602081815260408083206001600160a01b03851684529091529020805460ff19166001179055620001223390565b6001600160a01b0316816001600160a01b0316837f2f8788117e7eff1d82e926ec794901d17c78024a50270940304540a733656f0d60405160405180910390a45050565b60006200017d836001600160a01b03841662000186565b90505b92915050565b6000818152600183016020526040812054620001cf5750815460018181018455600084815260208082209093018490558454848252828601909352604090209190915562000180565b50600062000180565b60008060408385031215620001eb578182fd5b82516001600160a01b038116811462000202578283fd5b60208401519092506001600160601b03811681146200021f578182fd5b809150509250929050565b60805160601c60a05160a01c613007620002646000396000818161039f0152611dd30152600081816102e50152611e1001526130076000f3fe60806040526004361061011f5760003560e01c80637241fb7d116100a0578063b858fb5f11610064578063b858fb5f146103ee578063c37dfc5b14610401578063ca15c87314610414578063d547741f14610434578063f74337d41461045457600080fd5b80637241fb7d1461031f5780639010d07c1461034d57806391d148541461036d5780639fddaa931461038d578063a217fddf146103d957600080fd5b80632f2ff15d116100e75780632f2ff15d1461022c57806336568abe1461024e57806336de97421461026e578063514fcac7146102b357806365e17c9d146102d357600080fd5b806301ffc9a714610124578063044215c6146101595780630c1097101461019857806321603f43146101c6578063248a9ca3146101fc575b600080fd5b34801561013057600080fd5b5061014461013f366004612b18565b61046b565b60405190151581526020015b60405180910390f35b34801561016557600080fd5b50610179610174366004612ab0565b610496565b604080516001600160a01b039093168352602083019190915201610150565b3480156101a457600080fd5b506101b86101b3366004612b40565b610504565b604051908152602001610150565b3480156101d257600080fd5b506101e66101e1366004612ab0565b6109d7565b6040516101509a99989796959493929190612cda565b34801561020857600080fd5b506101b8610217366004612ab0565b60009081526020819052604090206001015490565b34801561023857600080fd5b5061024c610247366004612ac8565b610c20565b005b34801561025a57600080fd5b5061024c610269366004612ac8565b610c4a565b34801561027a57600080fd5b5061028e610289366004612975565b610cc8565b6040805193151584526001600160a01b03909216602084015290820152606001610150565b3480156102bf57600080fd5b5061024c6102ce366004612ab0565b610d6a565b3480156102df57600080fd5b506103077f000000000000000000000000000000000000000000000000000000000000000081565b6040516001600160a01b039091168152602001610150565b34801561032b57600080fd5b5061033f61033a36600461291d565b6110a3565b604051610150929190612c6f565b34801561035957600080fd5b50610307610368366004612af7565b611177565b34801561037957600080fd5b50610144610388366004612ac8565b611196565b34801561039957600080fd5b506103c17f000000000000000000000000000000000000000000000000000000000000000081565b6040516001600160601b039091168152602001610150565b3480156103e557600080fd5b506101b8600081565b61024c6103fc366004612af7565b6111bf565b61024c61040f366004612af7565b611777565b34801561042057600080fd5b506101b861042f366004612ab0565b612182565b34801561044057600080fd5b5061024c61044f366004612ac8565b612199565b34801561046057600080fd5b506003546101b89081565b60006001600160e01b03198216635a05180f60e01b1480610490575061049082612257565b92915050565b600081815260026020526040812060030154819083906001600160a01b03166104da5760405162461bcd60e51b81526004016104d190612db5565b60405180910390fd5b505050600090815260026020526040902060068101546007909101546001600160a01b0390911691565b600080610511888861228c565b90506000811161056f5760405162461bcd60e51b81526020600482015260356024820152600080516020612fb28339815191526044820152741899481bdc195b88185d081cdbdb59481c1bda5b9d605a1b60648201526084016104d1565b600189600181111561059157634e487b7160e01b600052602160045260246000fd5b141561062a5762278d0081111561062a5760405162461bcd60e51b815260206004820152605160248201527f4c656d6f6e6164654d61726b6574706c6163653a206f72646572206f66206b6960448201527f6e642061756374696f6e206d757374206e6f74206265206f70656e20666f72206064820152706d6f7265207468616e203330206461797360781b608482015260a4016104d1565b6040516323b872dd60e01b81526001600160a01b038516906323b872dd9061065a90339030908890600401612c4b565b600060405180830381600087803b15801561067457600080fd5b505af1158015610688573d6000803e3d6000fd5b50505050600061069760035490565b9050604051806101a001604052808b60018111156106c557634e487b7160e01b600052602160045260246000fd5b815260016020820152604081018b9052606081018a9052608001336001600160a01b03908116825289811660208084019190915260408084018b9052918916606084015260808301889052600060a0840181905260c0840181905260e0840181905261010090930183905284835260029052902081518154829060ff19166001838181111561076457634e487b7160e01b600052602160045260246000fd5b02179055506020820151815461ff00191661010091151582021782556040830151600180840191909155606084015160028401556080840151600380850180546001600160a01b03199081166001600160a01b039485161790915560a0870151600487018054831691851691909117905560c0870151600587015560e0870151600687018054831691851691909117905593860151600786015561012086015160088601805486169184169190911790556101408601516009860155610160860151600a8601805490951692169190911790925561018090930151600b909201919091558054909101905560008181526002602052604080822081516101a081019092528054829060ff16600181111561088e57634e487b7160e01b600052602160045260246000fd5b60018111156108ad57634e487b7160e01b600052602160045260246000fd5b8152815460ff6101009182900416151560208301526001830154604080840191909152600284015460608085019190915260038501546001600160a01b039081166080808701919091526004870154821660a080880191909152600588015460c0808901919091526006890154841660e0808a019190915260078a0154888a015260088a015485166101208a015260098a01546101408a0152600a8a015485166101608a0152600b909901546101809098019790975290880151885189860151948a0151928a0151978a0151988a0151968a01519551999a509216978a977f4e400f43dce6cc22df28146360114559ffae81b0644d4752872c7def6d77319e976109c1979496939490939192909190612d39565b60405180910390a3509998505050505050505050565b6000818152600260205260408120600301548190819081908190819081908190819081908b906001600160a01b0316610a225760405162461bcd60e51b81526004016104d190612db5565b60008c81526002602052604080822081516101a081019092528054829060ff166001811115610a6157634e487b7160e01b600052602160045260246000fd5b6001811115610a8057634e487b7160e01b600052602160045260246000fd5b81526020016000820160019054906101000a900460ff1615151515815260200160018201548152602001600282015481526020016003820160009054906101000a90046001600160a01b03166001600160a01b03166001600160a01b031681526020016004820160009054906101000a90046001600160a01b03166001600160a01b03166001600160a01b03168152602001600582015481526020016006820160009054906101000a90046001600160a01b03166001600160a01b03166001600160a01b03168152602001600782015481526020016008820160009054906101000a90046001600160a01b03166001600160a01b03166001600160a01b0316815260200160098201548152602001600a820160009054906101000a90046001600160a01b03166001600160a01b03166001600160a01b03168152602001600b820154815250509050806000015181602001518260400151836060015184608001518560a001518660c001518761014001518861016001518961018001519b509b509b509b509b509b509b509b509b509b5050509193959799509193959799565b600082815260208190526040902060010154610c3b816122da565b610c4583836122e7565b505050565b6001600160a01b0381163314610cba5760405162461bcd60e51b815260206004820152602f60248201527f416363657373436f6e74726f6c3a2063616e206f6e6c792072656e6f756e636560448201526e103937b632b9903337b91039b2b63360891b60648201526084016104d1565b610cc48282612309565b5050565b60405163152a902d60e11b81526004810183905260248101829052600090819081906001600160a01b03871690632a55205a90604401604080518083038186803b158015610d1557600080fd5b505afa925050508015610d45575060408051601f3d908101601f19168201909252610d4291810190612948565b60015b610d5757506000915081905080610d61565b6001945090925090505b93509350939050565b60008181526002602052604090206003015481906001600160a01b0316610da35760405162461bcd60e51b81526004016104d190612db5565b60008281526002602052604080822081516101a081019092528054829060ff166001811115610de257634e487b7160e01b600052602160045260246000fd5b6001811115610e0157634e487b7160e01b600052602160045260246000fd5b815281546101009081900460ff1615156020830152600183015460408301526002830154606083015260038301546001600160a01b0390811660808401526004840154811660a0840152600584015460c08401526006840154811660e0840152600784015491830191909152600883015481166101208301526009830154610140830152600a83015416610160820152600b90910154610180909101529050336001600160a01b031681608001516001600160a01b03161480610eca5750610eca600033611196565b610f2f5760405162461bcd60e51b815260206004820152603060248201527f4c656d6f6e6164654d61726b6574706c6163653a206d7573742062652074686560448201526f081b585ad95c881d1bc818d85b98d95b60821b60648201526084016104d1565b8060200151610f885760405162461bcd60e51b81526020600482015260316024820152600080516020612fb28339815191526044820152701899481bdc195b881d1bc818d85b98d95b607a1b60648201526084016104d1565b6101208101516001600160a01b031615610ff05760405162461bcd60e51b81526020600482015260356024820152600080516020612fb28339815191526044820152741a185d99481b9bc8189a59081d1bc818d85b98d95b605a1b60648201526084016104d1565b60e081015160808201516101008301516040516323b872dd60e01b81526001600160a01b03909316926323b872dd9261102d923092600401612c4b565b600060405180830381600087803b15801561104757600080fd5b505af115801561105b573d6000803e3d6000fd5b505050600084815260026020526040808220805461ff0019169055518592507f61b9399f2f0f32ca39ce8d7be32caed5ec22fe07a6daba3a467ed479ec6065829190a2505050565b60405163656cb66560e11b8152600481018290526000906060906001600160a01b0385169063cad96cca9060240160006040518083038186803b1580156110e957600080fd5b505afa92505050801561111e57506040513d6000823e601f3d908101601f1916820160405261111b91908101906129a9565b60015b61116957604080516000808252602082019092528161115f565b60408051808201909152600080825260208201528152602001906001900390816111385790505b5091509150611170565b6001925090505b9250929050565b600082815260016020526040812061118f908361232b565b9392505050565b6000918252602082815260408084206001600160a01b0393909316845291905290205460ff1690565b60008281526002602052604090206003015482906001600160a01b03166111f85760405162461bcd60e51b81526004016104d190612db5565b60008381526002602052604080822081516101a081019092528054829060ff16600181111561123757634e487b7160e01b600052602160045260246000fd5b600181111561125657634e487b7160e01b600052602160045260246000fd5b8152815460ff61010091829004161515602083015260018084015460408401526002840154606084015260038401546001600160a01b0390811660808501526004850154811660a0850152600585015460c08501526006850154811660e0850152600785015492840192909252600884015482166101208401526009840154610140840152600a840154909116610160830152600b90920154610180909101529091508151600181111561131a57634e487b7160e01b600052602160045260246000fd5b1461137b5760405162461bcd60e51b81526020600482015260396024820152600080516020612fb283398151915260448201527f6265206f66206b696e642061756374696f6e20746f206269640000000000000060648201526084016104d1565b80602001516113d15760405162461bcd60e51b815260206004820152602e6024820152600080516020612fb283398151915260448201526d1899481bdc195b881d1bc8189a5960921b60648201526084016104d1565b42816040015111156114395760405162461bcd60e51b815260206004820152603a6024820152600080516020612fb283398151915260448201527f6265206f70656e20746f20626964202d20746f6f206561726c7900000000000060648201526084016104d1565b428160600151116114a05760405162461bcd60e51b81526020600482015260396024820152600080516020612fb283398151915260448201527f6265206f70656e20746f20626964202d20746f6f206c6174650000000000000060648201526084016104d1565b828160c0015111156115095760405162461bcd60e51b815260206004820152602c60248201527f4c656d6f6e6164654d61726b6574706c6163653a206d757374206d617463682060448201526b1c1c9a58d9481d1bc8189a5960a21b60648201526084016104d1565b60a08101516001600160a01b031615158061152357503483145b61153f5760405162461bcd60e51b81526004016104d190612dfb565b6101208101516001600160a01b0316156115e15782816101400151106115bc5760405162461bcd60e51b815260206004820152602c60248201527f4c656d6f6e6164654d61726b6574706c6163653a206d7573742073757270617360448201526b1cc8189a59081d1bc8189a5960a21b60648201526084016104d1565b610140810151156115e1576115e18160a0015130836101200151846101400151612337565b600084815260026020526040908190206008810180546001600160a01b031916331790556009810185905581516101a081019092528054829060ff16600181111561163c57634e487b7160e01b600052602160045260246000fd5b600181111561165b57634e487b7160e01b600052602160045260246000fd5b8152815460ff610100918290041615156020830152600183015460408301526002830154606083015260038301546001600160a01b0390811660808401526004840154811660a0840152600584015460c08401526006840154811660e084015260078401549183019190915260088301548116610120830152600983015461014080840191909152600a840154909116610160830152600b909201546101809091015281015190915015611723576117238160a0015182610120015130846101400151612337565b8061012001516001600160a01b0316847f43c168f1d9d74d73325ab680f380bc731699766781190d47b123572b01b2fa2883610140015160405161176991815260200190565b60405180910390a350505050565b60008281526002602052604090206003015482906001600160a01b03166117b05760405162461bcd60e51b81526004016104d190612db5565b60008381526002602052604080822081516101a081019092528054829060ff1660018111156117ef57634e487b7160e01b600052602160045260246000fd5b600181111561180e57634e487b7160e01b600052602160045260246000fd5b8152815460ff61010091829004161515602080840191909152600184015460408401526002840154606084015260038401546001600160a01b0390811660808501526004850154811660a0850152600585015460c08501526006850154811660e0850152600785015492840192909252600884015482166101208401526009840154610140840152600a840154909116610160830152600b90920154610180909101528101519091506119095760405162461bcd60e51b815260206004820152602f6024820152600080516020612fb283398151915260448201526e1899481bdc195b881d1bc8199a5b1b608a1b60648201526084016104d1565b6000848152600260205260408120805461ff0019169055808251600181111561194257634e487b7160e01b600052602160045260246000fd5b1415611b075742826040015111156119b05760405162461bcd60e51b815260206004820152603b6024820152600080516020612fb283398151915260448201527f6265206f70656e20746f2066696c6c202d20746f6f206561726c79000000000060648201526084016104d1565b606082015115806119c45750428260600151115b611a245760405162461bcd60e51b815260206004820152603a6024820152600080516020612fb283398151915260448201527f6265206f70656e20746f2066696c6c202d20746f6f206c61746500000000000060648201526084016104d1565b838260c001511115611a9e5760405162461bcd60e51b815260206004820152603a60248201527f4c656d6f6e6164654d61726b6574706c6163653a206d757374206d617463682060448201527f707269636520746f2066696c6c20646972656374206f7264657200000000000060648201526084016104d1565b60a08201516001600160a01b0316151580611ab857503484145b611ad45760405162461bcd60e51b81526004016104d190612dfb565b506000848152600260205260409020600a810180546001600160a01b03191633908117909155600b909101849055611cb4565b600182516001811115611b2a57634e487b7160e01b600052602160045260246000fd5b1415611cb4576101208201516001600160a01b0316611b9f5760405162461bcd60e51b815260206004820152603e6024820152600080516020612fb283398151915260448201527f686176652062696420746f2066696c6c2061756374696f6e206f72646572000060648201526084016104d1565b6101208201516001600160a01b031633148015611bc0575042826060015111155b80611bd7575060808201516001600160a01b031633145b80611be85750611be8600033611196565b611c6f5760405162461bcd60e51b815260206004820152604c60248201527f4c656d6f6e6164654d61726b6574706c6163653a206d7573742062652074686560448201527f206d616b6572206f722066696e616c2062696464657220746f2066696c6c206160648201526b3ab1ba34b7b71037b93232b960a11b608482015260a4016104d1565b506101208101516000858152600260205260409020600a810180546001600160a01b0319166001600160a01b0390931692909217909155610140820151600b90910155305b6000858152600260205260409081902081516101a081019092528054829060ff166001811115611cf457634e487b7160e01b600052602160045260246000fd5b6001811115611d1357634e487b7160e01b600052602160045260246000fd5b8152815460ff610100918290041615156020830152600183015460408301526002830154606083015260038301546001600160a01b0390811660808401526004840154811660a0840152600584015460c08401526006840154811660e0840152600784015491830191909152600883015481166101208301526009830154610140830152600a83015416610160820152600b9091015461018091820152810151909250156120bd576101808201516000612710611df96001600160601b037f00000000000000000000000000000000000000000000000000000000000000001684612edc565b611e039190612ebc565b9050611e358460a00151847f000000000000000000000000000000000000000000000000000000000000000084612337565b611e3f8183612efb565b9150600080611e578660e001518761010001516110a3565b915091508115611fb057805160005b81811015611fa957828181518110611e8e57634e487b7160e01b600052603260045260246000fd5b6020026020010151600001516001600160a01b031688608001516001600160a01b031614158015611ef357506000838281518110611edc57634e487b7160e01b600052603260045260246000fd5b6020026020010151602001516001600160601b0316115b15611f97576000612710848381518110611f1d57634e487b7160e01b600052603260045260246000fd5b6020026020010151602001516001600160601b03168a6101800151611f429190612edc565b611f4c9190612ebc565b9050611f898960a0015189868581518110611f7757634e487b7160e01b600052603260045260246000fd5b60200260200101516000015184612337565b611f938188612efb565b9650505b80611fa181612f55565b915050611e66565b5050612029565b6000806000611fce8960e001518a61010001518b6101800151610cc8565b925092509250828015611ff75750816001600160a01b031689608001516001600160a01b031614155b80156120035750600081115b15612025576120188960a00151898484612337565b6120228188612efb565b96505b5050505b8315612050576120438660a0015186886080015187612337565b61204d8480612efb565b93505b83156120b85760405162461bcd60e51b815260206004820152603160248201527f4c656d6f6e6164654d61726b6574706c6163653a207472616e7366657220616d6044820152706f756e74206d757374206265207a65726f60781b60648201526084016104d1565b505050505b60e08201516101608301516101008401516040516323b872dd60e01b81526001600160a01b03909316926323b872dd926120fb923092600401612c4b565b600060405180830381600087803b15801561211557600080fd5b505af1158015612129573d6000803e3d6000fd5b505050508161016001516001600160a01b0316857f1e7abafb1a786c4e6394b5c494f50a97e3802ff2ce462eca4fe6a2dd4e1f92e884610180015160405161217391815260200190565b60405180910390a35050505050565b6000818152600160205260408120610490906124af565b6000828152602081905260409020600101546121b4816122da565b610c458383612309565b6121c88282611196565b610cc4576000828152602081815260408083206001600160a01b03851684529091529020805460ff191660011790556121fe3390565b6001600160a01b0316816001600160a01b0316837f2f8788117e7eff1d82e926ec794901d17c78024a50270940304540a733656f0d60405160405180910390a45050565b600061118f836001600160a01b0384166124b9565b60006001600160e01b03198216637965db0b60e01b148061049057506301ffc9a760e01b6001600160e01b0319831614610490565b60008042841061229c578361229e565b425b9050600083156122ae57836122b2565b6000195b9050808211156122c757600092505050610490565b6122d18282612efb565b95945050505050565b6122e48133612508565b50565b6122f182826121be565b6000828152600160205260409020610c459082612242565b612313828261256c565b6000828152600160205260409020610c4590826125d1565b600061118f83836125e6565b6001600160a01b038416612392576001600160a01b038216301461238d576040516001600160a01b0383169082156108fc029083906000818181858888f1935050505015801561238b573d6000803e3d6000fd5b505b6124a9565b6001600160a01b0383163014156124255760405163a9059cbb60e01b81526001600160a01b0383811660048301526024820183905285169063a9059cbb90604401602060405180830381600087803b1580156123ed57600080fd5b505af1158015612401573d6000803e3d6000fd5b505050506040513d601f19601f8201168201806040525081019061238b9190612a90565b6040516323b872dd60e01b81526001600160a01b038516906323b872dd9061245590869086908690600401612c4b565b602060405180830381600087803b15801561246f57600080fd5b505af1158015612483573d6000803e3d6000fd5b505050506040513d601f19601f820116820180604052508101906124a79190612a90565b505b50505050565b6000610490825490565b600081815260018301602052604081205461250057508154600181810184556000848152602080822090930184905584548482528286019093526040902091909155610490565b506000610490565b6125128282611196565b610cc45761252a816001600160a01b0316601461261e565b61253583602061261e565b604051602001612546929190612bd6565b60408051601f198184030181529082905262461bcd60e51b82526104d191600401612d82565b6125768282611196565b15610cc4576000828152602081815260408083206001600160a01b0385168085529252808320805460ff1916905551339285917ff6391f5c32d9c69d2a47ea670b442974b53935d1edc7fd64eb21e047a839171b9190a45050565b600061118f836001600160a01b038416612800565b600082600001828154811061260b57634e487b7160e01b600052603260045260246000fd5b9060005260206000200154905092915050565b6060600061262d836002612edc565b612638906002612ea4565b67ffffffffffffffff81111561265e57634e487b7160e01b600052604160045260246000fd5b6040519080825280601f01601f191660200182016040528015612688576020820181803683370190505b509050600360fc1b816000815181106126b157634e487b7160e01b600052603260045260246000fd5b60200101906001600160f81b031916908160001a905350600f60fb1b816001815181106126ee57634e487b7160e01b600052603260045260246000fd5b60200101906001600160f81b031916908160001a9053506000612712846002612edc565b61271d906001612ea4565b90505b60018111156127b1576f181899199a1a9b1b9c1cb0b131b232b360811b85600f166010811061275f57634e487b7160e01b600052603260045260246000fd5b1a60f81b82828151811061278357634e487b7160e01b600052603260045260246000fd5b60200101906001600160f81b031916908160001a90535060049490941c936127aa81612f3e565b9050612720565b50831561118f5760405162461bcd60e51b815260206004820181905260248201527f537472696e67733a20686578206c656e67746820696e73756666696369656e7460448201526064016104d1565b60008181526001830160205260408120548015612913576000612824600183612efb565b855490915060009061283890600190612efb565b90508181146128b957600086600001828154811061286657634e487b7160e01b600052603260045260246000fd5b906000526020600020015490508087600001848154811061289757634e487b7160e01b600052603260045260246000fd5b6000918252602080832090910192909255918252600188019052604090208390555b85548690806128d857634e487b7160e01b600052603160045260246000fd5b600190038181906000526020600020016000905590558560010160008681526020019081526020016000206000905560019350505050610490565b6000915050610490565b6000806040838503121561292f578182fd5b823561293a81612f9c565b946020939093013593505050565b6000806040838503121561295a578182fd5b825161296581612f9c565b6020939093015192949293505050565b600080600060608486031215612989578081fd5b833561299481612f9c565b95602085013595506040909401359392505050565b600060208083850312156129bb578182fd5b825167ffffffffffffffff808211156129d2578384fd5b818501915085601f8301126129e5578384fd5b8151818111156129f7576129f7612f86565b612a05848260051b01612e73565b8181528481019250838501600683901b85018601891015612a24578687fd5b8694505b82851015612a8457604080828b031215612a40578788fd5b612a48612e4a565b8251612a5381612f9c565b8152828801516001600160601b0381168114612a6d57898afd5b818901528552600195909501949386019301612a28565b50979650505050505050565b600060208284031215612aa1578081fd5b8151801515811461118f578182fd5b600060208284031215612ac1578081fd5b5035919050565b60008060408385031215612ada578182fd5b823591506020830135612aec81612f9c565b809150509250929050565b60008060408385031215612b09578182fd5b50508035926020909101359150565b600060208284031215612b29578081fd5b81356001600160e01b03198116811461118f578182fd5b600080600080600080600060e0888a031215612b5a578283fd5b873560028110612b68578384fd5b965060208801359550604088013594506060880135612b8681612f9c565b93506080880135925060a0880135612b9d81612f9c565b8092505060c0880135905092959891949750929550565b60028110612bd257634e487b7160e01b600052602160045260246000fd5b9052565b7f416363657373436f6e74726f6c3a206163636f756e7420000000000000000000815260008351612c0e816017850160208801612f12565b7001034b99036b4b9b9b4b733903937b6329607d1b6017918401918201528351612c3f816028840160208801612f12565b01602801949350505050565b6001600160a01b039384168152919092166020820152604081019190915260600190565b600060408083018515158452602082818601528186518084526060870191508288019350855b81811015612ccc57845180516001600160a01b031684528401516001600160601b0316848401529383019391850191600101612c95565b509098975050505050505050565b6101408101612ce9828d612bb4565b9915156020820152604081019890985260608801969096526001600160a01b03948516608088015292841660a087015260c086019190915260e08501521661010083015261012090910152919050565b60e08101612d47828a612bb4565b602082019790975260408101959095526001600160a01b039384166060860152608085019290925290911660a083015260c090910152919050565b6020815260008251806020840152612da1816040850160208701612f12565b601f01601f19169190910160400192915050565b60208082526026908201527f4c656d6f6e6164654d61726b6574706c6163653a206f72646572206e6f6e65786040820152651a5cdd195b9d60d21b606082015260800190565b6020808252602f908201527f4c656d6f6e6164654d61726b6574706c6163653a20616d6f756e74206d75737460408201526e206d617463682074782076616c756560881b606082015260800190565b6040805190810167ffffffffffffffff81118282101715612e6d57612e6d612f86565b60405290565b604051601f8201601f1916810167ffffffffffffffff81118282101715612e9c57612e9c612f86565b604052919050565b60008219821115612eb757612eb7612f70565b500190565b600082612ed757634e487b7160e01b81526012600452602481fd5b500490565b6000816000190483118215151615612ef657612ef6612f70565b500290565b600082821015612f0d57612f0d612f70565b500390565b60005b83811015612f2d578181015183820152602001612f15565b838111156124a95750506000910152565b600081612f4d57612f4d612f70565b506000190190565b6000600019821415612f6957612f69612f70565b5060010190565b634e487b7160e01b600052601160045260246000fd5b634e487b7160e01b600052604160045260246000fd5b6001600160a01b03811681146122e457600080fdfe4c656d6f6e6164654d61726b6574706c6163653a206f72646572206d75737420a26469706673582212209b820246f6c62ba8c595fb2a4e480ecb23605dfdba2d4cdcd92147fd3b0ed52e64736f6c63430008040033",
  "devdoc": {
    "kind": "dev",
    "methods": {
      "getRoleAdmin(bytes32)": {
        "details": "Returns the admin role that controls `role`. See {grantRole} and {revokeRole}. To change a role's admin, use {_setRoleAdmin}."
      },
      "getRoleMember(bytes32,uint256)": {
        "details": "Returns one of the accounts that have `role`. `index` must be a value between 0 and {getRoleMemberCount}, non-inclusive. Role bearers are not sorted in any particular way, and their ordering may change at any point. WARNING: When using {getRoleMember} and {getRoleMemberCount}, make sure you perform all queries on the same block. See the following https://forum.openzeppelin.com/t/iterating-over-elements-on-enumerableset-in-openzeppelin-contracts/2296[forum post] for more information."
      },
      "getRoleMemberCount(bytes32)": {
        "details": "Returns the number of accounts that have `role`. Can be used together with {getRoleMember} to enumerate all bearers of a role."
      },
      "grantRole(bytes32,address)": {
        "details": "Grants `role` to `account`. If `account` had not been already granted `role`, emits a {RoleGranted} event. Requirements: - the caller must have ``role``'s admin role."
      },
      "hasRole(bytes32,address)": {
        "details": "Returns `true` if `account` has been granted `role`."
      },
      "renounceRole(bytes32,address)": {
        "details": "Revokes `role` from the calling account. Roles are often managed via {grantRole} and {revokeRole}: this function's purpose is to provide a mechanism for accounts to lose their privileges if they are compromised (such as when a trusted device is misplaced). If the calling account had been revoked `role`, emits a {RoleRevoked} event. Requirements: - the caller must be `account`."
      },
      "revokeRole(bytes32,address)": {
        "details": "Revokes `role` from `account`. If `account` had been granted `role`, emits a {RoleRevoked} event. Requirements: - the caller must have ``role``'s admin role."
      },
      "supportsInterface(bytes4)": {
        "details": "See {IERC165-supportsInterface}."
      }
    },
    "version": 1
  },
  "userdoc": {
    "kind": "user",
    "methods": {},
    "version": 1
  },
  "storageLayout": {
    "storage": [
      {
        "astId": 2200,
        "contract": "contracts/LemonadeMarketplaceV1.sol:LemonadeMarketplaceV1",
        "label": "_roles",
        "offset": 0,
        "slot": "0",
        "type": "t_mapping(t_bytes32,t_struct(RoleData)2195_storage)"
      },
      {
        "astId": 2514,
        "contract": "contracts/LemonadeMarketplaceV1.sol:LemonadeMarketplaceV1",
        "label": "_roleMembers",
        "offset": 0,
        "slot": "1",
        "type": "t_mapping(t_bytes32,t_struct(AddressSet)5730_storage)"
      },
      {
        "astId": 7138,
        "contract": "contracts/LemonadeMarketplaceV1.sol:LemonadeMarketplaceV1",
        "label": "_orders",
        "offset": 0,
        "slot": "2",
        "type": "t_mapping(t_uint256,t_struct(Order)7133_storage)"
      },
      {
        "astId": 7141,
        "contract": "contracts/LemonadeMarketplaceV1.sol:LemonadeMarketplaceV1",
        "label": "orderIdTracker",
        "offset": 0,
        "slot": "3",
        "type": "t_struct(Counter)4909_storage"
      }
    ],
    "types": {
      "t_address": {
        "encoding": "inplace",
        "label": "address",
        "numberOfBytes": "20"
      },
      "t_array(t_bytes32)dyn_storage": {
        "base": "t_bytes32",
        "encoding": "dynamic_array",
        "label": "bytes32[]",
        "numberOfBytes": "32"
      },
      "t_bool": {
        "encoding": "inplace",
        "label": "bool",
        "numberOfBytes": "1"
      },
      "t_bytes32": {
        "encoding": "inplace",
        "label": "bytes32",
        "numberOfBytes": "32"
      },
      "t_enum(OrderKind)7064": {
        "encoding": "inplace",
        "label": "enum LemonadeMarketplaceV1.OrderKind",
        "numberOfBytes": "1"
      },
      "t_mapping(t_address,t_bool)": {
        "encoding": "mapping",
        "key": "t_address",
        "label": "mapping(address => bool)",
        "numberOfBytes": "32",
        "value": "t_bool"
      },
      "t_mapping(t_bytes32,t_struct(AddressSet)5730_storage)": {
        "encoding": "mapping",
        "key": "t_bytes32",
        "label": "mapping(bytes32 => struct EnumerableSet.AddressSet)",
        "numberOfBytes": "32",
        "value": "t_struct(AddressSet)5730_storage"
      },
      "t_mapping(t_bytes32,t_struct(RoleData)2195_storage)": {
        "encoding": "mapping",
        "key": "t_bytes32",
        "label": "mapping(bytes32 => struct AccessControl.RoleData)",
        "numberOfBytes": "32",
        "value": "t_struct(RoleData)2195_storage"
      },
      "t_mapping(t_bytes32,t_uint256)": {
        "encoding": "mapping",
        "key": "t_bytes32",
        "label": "mapping(bytes32 => uint256)",
        "numberOfBytes": "32",
        "value": "t_uint256"
      },
      "t_mapping(t_uint256,t_struct(Order)7133_storage)": {
        "encoding": "mapping",
        "key": "t_uint256",
        "label": "mapping(uint256 => struct LemonadeMarketplaceV1.Order)",
        "numberOfBytes": "32",
        "value": "t_struct(Order)7133_storage"
      },
      "t_struct(AddressSet)5730_storage": {
        "encoding": "inplace",
        "label": "struct EnumerableSet.AddressSet",
        "members": [
          {
            "astId": 5729,
            "contract": "contracts/LemonadeMarketplaceV1.sol:LemonadeMarketplaceV1",
            "label": "_inner",
            "offset": 0,
            "slot": "0",
            "type": "t_struct(Set)5429_storage"
          }
        ],
        "numberOfBytes": "64"
      },
      "t_struct(Counter)4909_storage": {
        "encoding": "inplace",
        "label": "struct Counters.Counter",
        "members": [
          {
            "astId": 4908,
            "contract": "contracts/LemonadeMarketplaceV1.sol:LemonadeMarketplaceV1",
            "label": "_value",
            "offset": 0,
            "slot": "0",
            "type": "t_uint256"
          }
        ],
        "numberOfBytes": "32"
      },
      "t_struct(Order)7133_storage": {
        "encoding": "inplace",
        "label": "struct LemonadeMarketplaceV1.Order",
        "members": [
          {
            "astId": 7108,
            "contract": "contracts/LemonadeMarketplaceV1.sol:LemonadeMarketplaceV1",
            "label": "kind",
            "offset": 0,
            "slot": "0",
            "type": "t_enum(OrderKind)7064"
          },
          {
            "astId": 7110,
            "contract": "contracts/LemonadeMarketplaceV1.sol:LemonadeMarketplaceV1",
            "label": "open",
            "offset": 1,
            "slot": "0",
            "type": "t_bool"
          },
          {
            "astId": 7112,
            "contract": "contracts/LemonadeMarketplaceV1.sol:LemonadeMarketplaceV1",
            "label": "openFrom",
            "offset": 0,
            "slot": "1",
            "type": "t_uint256"
          },
          {
            "astId": 7114,
            "contract": "contracts/LemonadeMarketplaceV1.sol:LemonadeMarketplaceV1",
            "label": "openTo",
            "offset": 0,
            "slot": "2",
            "type": "t_uint256"
          },
          {
            "astId": 7116,
            "contract": "contracts/LemonadeMarketplaceV1.sol:LemonadeMarketplaceV1",
            "label": "maker",
            "offset": 0,
            "slot": "3",
            "type": "t_address"
          },
          {
            "astId": 7118,
            "contract": "contracts/LemonadeMarketplaceV1.sol:LemonadeMarketplaceV1",
            "label": "currency",
            "offset": 0,
            "slot": "4",
            "type": "t_address"
          },
          {
            "astId": 7120,
            "contract": "contracts/LemonadeMarketplaceV1.sol:LemonadeMarketplaceV1",
            "label": "price",
            "offset": 0,
            "slot": "5",
            "type": "t_uint256"
          },
          {
            "astId": 7122,
            "contract": "contracts/LemonadeMarketplaceV1.sol:LemonadeMarketplaceV1",
            "label": "tokenContract",
            "offset": 0,
            "slot": "6",
            "type": "t_address"
          },
          {
            "astId": 7124,
            "contract": "contracts/LemonadeMarketplaceV1.sol:LemonadeMarketplaceV1",
            "label": "tokenId",
            "offset": 0,
            "slot": "7",
            "type": "t_uint256"
          },
          {
            "astId": 7126,
            "contract": "contracts/LemonadeMarketplaceV1.sol:LemonadeMarketplaceV1",
            "label": "bidder",
            "offset": 0,
            "slot": "8",
            "type": "t_address"
          },
          {
            "astId": 7128,
            "contract": "contracts/LemonadeMarketplaceV1.sol:LemonadeMarketplaceV1",
            "label": "bidAmount",
            "offset": 0,
            "slot": "9",
            "type": "t_uint256"
          },
          {
            "astId": 7130,
            "contract": "contracts/LemonadeMarketplaceV1.sol:LemonadeMarketplaceV1",
            "label": "taker",
            "offset": 0,
            "slot": "10",
            "type": "t_address"
          },
          {
            "astId": 7132,
            "contract": "contracts/LemonadeMarketplaceV1.sol:LemonadeMarketplaceV1",
            "label": "paidAmount",
            "offset": 0,
            "slot": "11",
            "type": "t_uint256"
          }
        ],
        "numberOfBytes": "384"
      },
      "t_struct(RoleData)2195_storage": {
        "encoding": "inplace",
        "label": "struct AccessControl.RoleData",
        "members": [
          {
            "astId": 2192,
            "contract": "contracts/LemonadeMarketplaceV1.sol:LemonadeMarketplaceV1",
            "label": "members",
            "offset": 0,
            "slot": "0",
            "type": "t_mapping(t_address,t_bool)"
          },
          {
            "astId": 2194,
            "contract": "contracts/LemonadeMarketplaceV1.sol:LemonadeMarketplaceV1",
            "label": "adminRole",
            "offset": 0,
            "slot": "1",
            "type": "t_bytes32"
          }
        ],
        "numberOfBytes": "64"
      },
      "t_struct(Set)5429_storage": {
        "encoding": "inplace",
        "label": "struct EnumerableSet.Set",
        "members": [
          {
            "astId": 5424,
            "contract": "contracts/LemonadeMarketplaceV1.sol:LemonadeMarketplaceV1",
            "label": "_values",
            "offset": 0,
            "slot": "0",
            "type": "t_array(t_bytes32)dyn_storage"
          },
          {
            "astId": 5428,
            "contract": "contracts/LemonadeMarketplaceV1.sol:LemonadeMarketplaceV1",
            "label": "_indexes",
            "offset": 0,
            "slot": "1",
            "type": "t_mapping(t_bytes32,t_uint256)"
          }
        ],
        "numberOfBytes": "64"
      },
      "t_uint256": {
        "encoding": "inplace",
        "label": "uint256",
        "numberOfBytes": "32"
      }
    }
  }
}