{
  "address": "0x8a945454478f73d586c9B9ebf6b694f925E4d462",
  "abi": [
    {
      "inputs": [
        {
          "internalType": "address",
          "name": "feeAccount_",
          "type": "address"
        },
        {
          "internalType": "uint96",
          "name": "feeValue_",
          "type": "uint96"
        }
      ],
      "stateMutability": "nonpayable",
      "type": "constructor"
    },
    {
      "anonymous": false,
      "inputs": [
        {
          "indexed": true,
          "internalType": "uint256",
          "name": "orderId",
          "type": "uint256"
        },
        {
          "indexed": true,
          "internalType": "address",
          "name": "bidder",
          "type": "address"
        },
        {
          "indexed": false,
          "internalType": "uint256",
          "name": "bidAmount",
          "type": "uint256"
        }
      ],
      "name": "OrderBid",
      "type": "event"
    },
    {
      "anonymous": false,
      "inputs": [
        {
          "indexed": true,
          "internalType": "uint256",
          "name": "orderId",
          "type": "uint256"
        }
      ],
      "name": "OrderCancelled",
      "type": "event"
    },
    {
      "anonymous": false,
      "inputs": [
        {
          "indexed": true,
          "internalType": "uint256",
          "name": "orderId",
          "type": "uint256"
        },
        {
          "indexed": false,
          "internalType": "enum LemonadeMarketplaceV2.OrderKind",
          "name": "kind",
          "type": "uint8"
        },
        {
          "indexed": false,
          "internalType": "uint256",
          "name": "openFrom",
          "type": "uint256"
        },
        {
          "indexed": false,
          "internalType": "uint256",
          "name": "openTo",
          "type": "uint256"
        },
        {
          "indexed": true,
          "internalType": "address",
          "name": "maker",
          "type": "address"
        },
        {
          "indexed": false,
          "internalType": "address",
          "name": "currency",
          "type": "address"
        },
        {
          "indexed": false,
          "internalType": "uint256",
          "name": "price",
          "type": "uint256"
        },
        {
          "indexed": false,
          "internalType": "address",
          "name": "tokenContract",
          "type": "address"
        },
        {
          "indexed": false,
          "internalType": "uint256",
          "name": "tokenId",
          "type": "uint256"
        }
      ],
      "name": "OrderCreated",
      "type": "event"
    },
    {
      "anonymous": false,
      "inputs": [
        {
          "indexed": true,
          "internalType": "uint256",
          "name": "orderId",
          "type": "uint256"
        },
        {
          "indexed": true,
          "internalType": "address",
          "name": "taker",
          "type": "address"
        },
        {
          "indexed": false,
          "internalType": "uint256",
          "name": "paidAmount",
          "type": "uint256"
        }
      ],
      "name": "OrderFilled",
      "type": "event"
    },
    {
      "anonymous": false,
      "inputs": [
        {
          "indexed": true,
          "internalType": "bytes32",
          "name": "role",
          "type": "bytes32"
        },
        {
          "indexed": true,
          "internalType": "bytes32",
          "name": "previousAdminRole",
          "type": "bytes32"
        },
        {
          "indexed": true,
          "internalType": "bytes32",
          "name": "newAdminRole",
          "type": "bytes32"
        }
      ],
      "name": "RoleAdminChanged",
      "type": "event"
    },
    {
      "anonymous": false,
      "inputs": [
        {
          "indexed": true,
          "internalType": "bytes32",
          "name": "role",
          "type": "bytes32"
        },
        {
          "indexed": true,
          "internalType": "address",
          "name": "account",
          "type": "address"
        },
        {
          "indexed": true,
          "internalType": "address",
          "name": "sender",
          "type": "address"
        }
      ],
      "name": "RoleGranted",
      "type": "event"
    },
    {
      "anonymous": false,
      "inputs": [
        {
          "indexed": true,
          "internalType": "bytes32",
          "name": "role",
          "type": "bytes32"
        },
        {
          "indexed": true,
          "internalType": "address",
          "name": "account",
          "type": "address"
        },
        {
          "indexed": true,
          "internalType": "address",
          "name": "sender",
          "type": "address"
        }
      ],
      "name": "RoleRevoked",
      "type": "event"
    },
    {
      "inputs": [],
      "name": "DEFAULT_ADMIN_ROLE",
      "outputs": [
        {
          "internalType": "bytes32",
          "name": "",
          "type": "bytes32"
        }
      ],
      "stateMutability": "view",
      "type": "function"
    },
    {
      "inputs": [
        {
          "internalType": "uint256",
          "name": "orderId",
          "type": "uint256"
        },
        {
          "internalType": "uint256",
          "name": "amount",
          "type": "uint256"
        },
        {
          "internalType": "address",
          "name": "subject",
          "type": "address"
        }
      ],
      "name": "bidOrder",
      "outputs": [],
      "stateMutability": "payable",
      "type": "function"
    },
    {
      "inputs": [
        {
          "internalType": "uint256",
          "name": "orderId",
          "type": "uint256"
        }
      ],
      "name": "cancelOrder",
      "outputs": [],
      "stateMutability": "nonpayable",
      "type": "function"
    },
    {
      "inputs": [
        {
          "internalType": "enum LemonadeMarketplaceV2.OrderKind",
          "name": "kind",
          "type": "uint8"
        },
        {
          "internalType": "uint256",
          "name": "openFrom",
          "type": "uint256"
        },
        {
          "internalType": "uint256",
          "name": "openTo",
          "type": "uint256"
        },
        {
          "internalType": "address",
          "name": "currency",
          "type": "address"
        },
        {
          "internalType": "uint256",
          "name": "price",
          "type": "uint256"
        },
        {
          "internalType": "address",
          "name": "tokenContract",
          "type": "address"
        },
        {
          "internalType": "uint256",
          "name": "tokenId",
          "type": "uint256"
        }
      ],
      "name": "createOrder",
      "outputs": [
        {
          "internalType": "uint256",
          "name": "",
          "type": "uint256"
        }
      ],
      "stateMutability": "nonpayable",
      "type": "function"
    },
    {
      "inputs": [],
      "name": "feeAccount",
      "outputs": [
        {
          "internalType": "address",
          "name": "",
          "type": "address"
        }
      ],
      "stateMutability": "view",
      "type": "function"
    },
    {
      "inputs": [],
      "name": "feeValue",
      "outputs": [
        {
          "internalType": "uint96",
          "name": "",
          "type": "uint96"
        }
      ],
      "stateMutability": "view",
      "type": "function"
    },
    {
      "inputs": [
        {
          "internalType": "uint256",
          "name": "orderId",
          "type": "uint256"
        },
        {
          "internalType": "uint256",
          "name": "amount",
          "type": "uint256"
        },
        {
          "internalType": "address",
          "name": "subject",
          "type": "address"
        }
      ],
      "name": "fillOrder",
      "outputs": [],
      "stateMutability": "payable",
      "type": "function"
    },
    {
      "inputs": [
        {
          "internalType": "address",
          "name": "tokenContract",
          "type": "address"
        },
        {
          "internalType": "uint256",
          "name": "tokenId",
          "type": "uint256"
        }
      ],
      "name": "getRaribleV2Royalties",
      "outputs": [
        {
          "internalType": "bool",
          "name": "",
          "type": "bool"
        },
        {
          "components": [
            {
              "internalType": "address payable",
              "name": "account",
              "type": "address"
            },
            {
              "internalType": "uint96",
              "name": "value",
              "type": "uint96"
            }
          ],
          "internalType": "struct LibPart.Part[]",
          "name": "",
          "type": "tuple[]"
        }
      ],
      "stateMutability": "view",
      "type": "function"
    },
    {
      "inputs": [
        {
          "internalType": "bytes32",
          "name": "role",
          "type": "bytes32"
        }
      ],
      "name": "getRoleAdmin",
      "outputs": [
        {
          "internalType": "bytes32",
          "name": "",
          "type": "bytes32"
        }
      ],
      "stateMutability": "view",
      "type": "function"
    },
    {
      "inputs": [
        {
          "internalType": "bytes32",
          "name": "role",
          "type": "bytes32"
        },
        {
          "internalType": "uint256",
          "name": "index",
          "type": "uint256"
        }
      ],
      "name": "getRoleMember",
      "outputs": [
        {
          "internalType": "address",
          "name": "",
          "type": "address"
        }
      ],
      "stateMutability": "view",
      "type": "function"
    },
    {
      "inputs": [
        {
          "internalType": "bytes32",
          "name": "role",
          "type": "bytes32"
        }
      ],
      "name": "getRoleMemberCount",
      "outputs": [
        {
          "internalType": "uint256",
          "name": "",
          "type": "uint256"
        }
      ],
      "stateMutability": "view",
      "type": "function"
    },
    {
      "inputs": [
        {
          "internalType": "address",
          "name": "tokenContract",
          "type": "address"
        },
        {
          "internalType": "uint256",
          "name": "tokenId",
          "type": "uint256"
        },
        {
          "internalType": "uint256",
          "name": "paidAmount",
          "type": "uint256"
        }
      ],
      "name": "getRoyaltyInfo",
      "outputs": [
        {
          "internalType": "bool",
          "name": "",
          "type": "bool"
        },
        {
          "internalType": "address",
          "name": "",
          "type": "address"
        },
        {
          "internalType": "uint256",
          "name": "",
          "type": "uint256"
        }
      ],
      "stateMutability": "view",
      "type": "function"
    },
    {
      "inputs": [
        {
          "internalType": "bytes32",
          "name": "role",
          "type": "bytes32"
        },
        {
          "internalType": "address",
          "name": "account",
          "type": "address"
        }
      ],
      "name": "grantRole",
      "outputs": [],
      "stateMutability": "nonpayable",
      "type": "function"
    },
    {
      "inputs": [
        {
          "internalType": "bytes32",
          "name": "role",
          "type": "bytes32"
        },
        {
          "internalType": "address",
          "name": "account",
          "type": "address"
        }
      ],
      "name": "hasRole",
      "outputs": [
        {
          "internalType": "bool",
          "name": "",
          "type": "bool"
        }
      ],
      "stateMutability": "view",
      "type": "function"
    },
    {
      "inputs": [
        {
          "internalType": "uint256",
          "name": "orderId",
          "type": "uint256"
        }
      ],
      "name": "order",
      "outputs": [
        {
          "internalType": "enum LemonadeMarketplaceV2.OrderKind",
          "name": "",
          "type": "uint8"
        },
        {
          "internalType": "bool",
          "name": "",
          "type": "bool"
        },
        {
          "internalType": "uint256",
          "name": "",
          "type": "uint256"
        },
        {
          "internalType": "uint256",
          "name": "",
          "type": "uint256"
        },
        {
          "internalType": "address",
          "name": "",
          "type": "address"
        },
        {
          "internalType": "address",
          "name": "",
          "type": "address"
        },
        {
          "internalType": "uint256",
          "name": "",
          "type": "uint256"
        },
        {
          "internalType": "uint256",
          "name": "",
          "type": "uint256"
        },
        {
          "internalType": "address",
          "name": "",
          "type": "address"
        },
        {
          "internalType": "uint256",
          "name": "",
          "type": "uint256"
        }
      ],
      "stateMutability": "view",
      "type": "function"
    },
    {
      "inputs": [],
      "name": "orderIdTracker",
      "outputs": [
        {
          "internalType": "uint256",
          "name": "_value",
          "type": "uint256"
        }
      ],
      "stateMutability": "view",
      "type": "function"
    },
    {
      "inputs": [
        {
          "internalType": "bytes32",
          "name": "role",
          "type": "bytes32"
        },
        {
          "internalType": "address",
          "name": "account",
          "type": "address"
        }
      ],
      "name": "renounceRole",
      "outputs": [],
      "stateMutability": "nonpayable",
      "type": "function"
    },
    {
      "inputs": [
        {
          "internalType": "bytes32",
          "name": "role",
          "type": "bytes32"
        },
        {
          "internalType": "address",
          "name": "account",
          "type": "address"
        }
      ],
      "name": "revokeRole",
      "outputs": [],
      "stateMutability": "nonpayable",
      "type": "function"
    },
    {
      "inputs": [
        {
          "internalType": "bytes4",
          "name": "interfaceId",
          "type": "bytes4"
        }
      ],
      "name": "supportsInterface",
      "outputs": [
        {
          "internalType": "bool",
          "name": "",
          "type": "bool"
        }
      ],
      "stateMutability": "view",
      "type": "function"
    },
    {
      "inputs": [
        {
          "internalType": "uint256",
          "name": "orderId",
          "type": "uint256"
        }
      ],
      "name": "token",
      "outputs": [
        {
          "internalType": "address",
          "name": "",
          "type": "address"
        },
        {
          "internalType": "uint256",
          "name": "",
          "type": "uint256"
        }
      ],
      "stateMutability": "view",
      "type": "function"
    }
  ],
  "transactionHash": "0xe0bfbb32716a8b41426f959ff7973d4e6b074f1005336703712e2374e4dbb230",
  "args": [
    "0x951292004e8a18955Cb1095CB72Ca6B01d68336E",
    "200"
  ],
  "numDeployments": 1,
  "solcInputHash": "696da32c9e80d7de8ba64b798ee35630",
  "bytecode": "0x60c06040523480156200001157600080fd5b50604051620032e2380380620032e28339810160408190526200003491620001d8565b606082901b6001600160601b03191660805260a081811b6001600160a01b03191690526200006b6000620000653390565b62000073565b50506200022a565b6200007f828262000083565b5050565b6200009a8282620000c660201b620021f61760201c565b6000828152600160209081526040909120620000c19183906200227a62000166821b17901c565b505050565b6000828152602081815260408083206001600160a01b038516845290915290205460ff166200007f576000828152602081815260408083206001600160a01b03851684529091529020805460ff19166001179055620001223390565b6001600160a01b0316816001600160a01b0316837f2f8788117e7eff1d82e926ec794901d17c78024a50270940304540a733656f0d60405160405180910390a45050565b60006200017d836001600160a01b03841662000186565b90505b92915050565b6000818152600183016020526040812054620001cf5750815460018181018455600084815260208082209093018490558454848252828601909352604090209190915562000180565b50600062000180565b60008060408385031215620001eb578182fd5b82516001600160a01b038116811462000202578283fd5b60208401519092506001600160601b03811681146200021f578182fd5b809150509250929050565b60805160601c60a05160a01c61307e62000264600039600081816103c501526119c501526000818161030b0152611a02015261307e6000f3fe60806040526004361061011f5760003560e01c8063514fcac7116100a05780639fddaa93116100645780639fddaa93146103b3578063a217fddf146103ff578063ca15c87314610414578063d547741f14610434578063f74337d41461045457600080fd5b8063514fcac7146102d957806365e17c9d146102f95780637241fb7d146103455780639010d07c1461037357806391d148541461039357600080fd5b80632a645923116100e75780632a6459231461022c5780632f2ff15d1461024157806336568abe1461026157806336de97421461028157806347dfcc16146102c657600080fd5b806301ffc9a714610124578063044215c6146101595780630c1097101461019857806321603f43146101c6578063248a9ca3146101fc575b600080fd5b34801561013057600080fd5b5061014461013f366004612b57565b61046b565b60405190151581526020015b60405180910390f35b34801561016557600080fd5b50610179610174366004612aef565b610496565b604080516001600160a01b039093168352602083019190915201610150565b3480156101a457600080fd5b506101b86101b3366004612b7f565b610504565b604051908152602001610150565b3480156101d257600080fd5b506101e66101e1366004612aef565b6109d7565b6040516101509a99989796959493929190612d51565b34801561020857600080fd5b506101b8610217366004612aef565b60009081526020819052604090206001015490565b61023f61023a366004612bf3565b610c20565b005b34801561024d57600080fd5b5061023f61025c366004612b07565b6111fe565b34801561026d57600080fd5b5061023f61027c366004612b07565b611228565b34801561028d57600080fd5b506102a161029c3660046129b4565b6112a6565b6040805193151584526001600160a01b03909216602084015290820152606001610150565b61023f6102d4366004612bf3565b611348565b3480156102e557600080fd5b5061023f6102f4366004612aef565b611d65565b34801561030557600080fd5b5061032d7f000000000000000000000000000000000000000000000000000000000000000081565b6040516001600160a01b039091168152602001610150565b34801561035157600080fd5b5061036561036036600461295c565b61209e565b604051610150929190612ce6565b34801561037f57600080fd5b5061032d61038e366004612b36565b612172565b34801561039f57600080fd5b506101446103ae366004612b07565b612191565b3480156103bf57600080fd5b506103e77f000000000000000000000000000000000000000000000000000000000000000081565b6040516001600160601b039091168152602001610150565b34801561040b57600080fd5b506101b8600081565b34801561042057600080fd5b506101b861042f366004612aef565b6121ba565b34801561044057600080fd5b5061023f61044f366004612b07565b6121d1565b34801561046057600080fd5b506003546101b89081565b60006001600160e01b03198216635a05180f60e01b148061049057506104908261228f565b92915050565b600081815260026020526040812060030154819083906001600160a01b03166104da5760405162461bcd60e51b81526004016104d190612e2c565b60405180910390fd5b505050600090815260026020526040902060068101546007909101546001600160a01b0390911691565b60008061051188886122c4565b90506000811161056f5760405162461bcd60e51b815260206004820152603560248201526000805160206130298339815191526044820152741899481bdc195b88185d081cdbdb59481c1bda5b9d605a1b60648201526084016104d1565b600189600181111561059157634e487b7160e01b600052602160045260246000fd5b141561062a5762278d0081111561062a5760405162461bcd60e51b815260206004820152605160248201527f4c656d6f6e6164654d61726b6574706c6163653a206f72646572206f66206b6960448201527f6e642061756374696f6e206d757374206e6f74206265206f70656e20666f72206064820152706d6f7265207468616e203330206461797360781b608482015260a4016104d1565b6040516323b872dd60e01b81526001600160a01b038516906323b872dd9061065a90339030908890600401612cc2565b600060405180830381600087803b15801561067457600080fd5b505af1158015610688573d6000803e3d6000fd5b50505050600061069760035490565b9050604051806101a001604052808b60018111156106c557634e487b7160e01b600052602160045260246000fd5b815260016020820152604081018b9052606081018a9052608001336001600160a01b03908116825289811660208084019190915260408084018b9052918916606084015260808301889052600060a0840181905260c0840181905260e0840181905261010090930183905284835260029052902081518154829060ff19166001838181111561076457634e487b7160e01b600052602160045260246000fd5b02179055506020820151815461ff00191661010091151582021782556040830151600180840191909155606084015160028401556080840151600380850180546001600160a01b03199081166001600160a01b039485161790915560a0870151600487018054831691851691909117905560c0870151600587015560e0870151600687018054831691851691909117905593860151600786015561012086015160088601805486169184169190911790556101408601516009860155610160860151600a8601805490951692169190911790925561018090930151600b909201919091558054909101905560008181526002602052604080822081516101a081019092528054829060ff16600181111561088e57634e487b7160e01b600052602160045260246000fd5b60018111156108ad57634e487b7160e01b600052602160045260246000fd5b8152815460ff6101009182900416151560208301526001830154604080840191909152600284015460608085019190915260038501546001600160a01b039081166080808701919091526004870154821660a080880191909152600588015460c0808901919091526006890154841660e0808a019190915260078a0154888a015260088a015485166101208a015260098a01546101408a0152600a8a015485166101608a0152600b909901546101809098019790975290880151885189860151948a0151928a0151978a0151988a0151968a01519551999a509216978a977f4e400f43dce6cc22df28146360114559ffae81b0644d4752872c7def6d77319e976109c1979496939490939192909190612db0565b60405180910390a3509998505050505050505050565b6000818152600260205260408120600301548190819081908190819081908190819081908b906001600160a01b0316610a225760405162461bcd60e51b81526004016104d190612e2c565b60008c81526002602052604080822081516101a081019092528054829060ff166001811115610a6157634e487b7160e01b600052602160045260246000fd5b6001811115610a8057634e487b7160e01b600052602160045260246000fd5b81526020016000820160019054906101000a900460ff1615151515815260200160018201548152602001600282015481526020016003820160009054906101000a90046001600160a01b03166001600160a01b03166001600160a01b031681526020016004820160009054906101000a90046001600160a01b03166001600160a01b03166001600160a01b03168152602001600582015481526020016006820160009054906101000a90046001600160a01b03166001600160a01b03166001600160a01b03168152602001600782015481526020016008820160009054906101000a90046001600160a01b03166001600160a01b03166001600160a01b0316815260200160098201548152602001600a820160009054906101000a90046001600160a01b03166001600160a01b03166001600160a01b03168152602001600b820154815250509050806000015181602001518260400151836060015184608001518560a001518660c001518761014001518861016001518961018001519b509b509b509b509b509b509b509b509b509b5050509193959799509193959799565b60008381526002602052604090206003015483906001600160a01b0316610c595760405162461bcd60e51b81526004016104d190612e2c565b60008481526002602052604080822081516101a081019092528054829060ff166001811115610c9857634e487b7160e01b600052602160045260246000fd5b6001811115610cb757634e487b7160e01b600052602160045260246000fd5b8152815460ff61010091829004161515602083015260018084015460408401526002840154606084015260038401546001600160a01b0390811660808501526004850154811660a0850152600585015460c08501526006850154811660e0850152600785015492840192909252600884015482166101208401526009840154610140840152600a840154909116610160830152600b909201546101809091015290915081516001811115610d7b57634e487b7160e01b600052602160045260246000fd5b14610ddc5760405162461bcd60e51b8152602060048201526039602482015260008051602061302983398151915260448201527f6265206f66206b696e642061756374696f6e20746f206269640000000000000060648201526084016104d1565b8060200151610e325760405162461bcd60e51b815260206004820152602e602482015260008051602061302983398151915260448201526d1899481bdc195b881d1bc8189a5960921b60648201526084016104d1565b4281604001511115610e9a5760405162461bcd60e51b815260206004820152603a602482015260008051602061302983398151915260448201527f6265206f70656e20746f20626964202d20746f6f206561726c7900000000000060648201526084016104d1565b42816060015111610f015760405162461bcd60e51b8152602060048201526039602482015260008051602061302983398151915260448201527f6265206f70656e20746f20626964202d20746f6f206c6174650000000000000060648201526084016104d1565b838160c001511115610f6a5760405162461bcd60e51b815260206004820152602c60248201527f4c656d6f6e6164654d61726b6574706c6163653a206d757374206d617463682060448201526b1c1c9a58d9481d1bc8189a5960a21b60648201526084016104d1565b60a08101516001600160a01b0316151580610f8457503484145b610fa05760405162461bcd60e51b81526004016104d190612e72565b6101208101516001600160a01b03161561104257838161014001511061101d5760405162461bcd60e51b815260206004820152602c60248201527f4c656d6f6e6164654d61726b6574706c6163653a206d7573742073757270617360448201526b1cc8189a59081d1bc8189a5960a21b60648201526084016104d1565b61014081015115611042576110428160a0015130836101200151846101400151612312565b336001600160a01b0384166110575780611059565b835b600087815260026020526040908190206008810180546001600160a01b0319166001600160a01b0394909416939093179092556009820187905580516101a081019091528154909190829060ff1660018111156110c657634e487b7160e01b600052602160045260246000fd5b60018111156110e557634e487b7160e01b600052602160045260246000fd5b8152815460ff610100918290041615156020830152600183015460408301526002830154606083015260038301546001600160a01b0390811660808401526004840154811660a0840152600584015460c08401526006840154811660e084015260078401549183019190915260088301548116610120830152600983015461014080840191909152600a840154909116610160830152600b9092015461018090910152810151909250156111a8576111a88260a001518230856101400151612312565b8161012001516001600160a01b0316867f43c168f1d9d74d73325ab680f380bc731699766781190d47b123572b01b2fa288461014001516040516111ee91815260200190565b60405180910390a3505050505050565b6000828152602081905260409020600101546112198161248a565b6112238383612497565b505050565b6001600160a01b03811633146112985760405162461bcd60e51b815260206004820152602f60248201527f416363657373436f6e74726f6c3a2063616e206f6e6c792072656e6f756e636560448201526e103937b632b9903337b91039b2b63360891b60648201526084016104d1565b6112a282826124b9565b5050565b60405163152a902d60e11b81526004810183905260248101829052600090819081906001600160a01b03871690632a55205a90604401604080518083038186803b1580156112f357600080fd5b505afa925050508015611323575060408051601f3d908101601f1916820190925261132091810190612987565b60015b6113355750600091508190508061133f565b6001945090925090505b93509350939050565b60008381526002602052604090206003015483906001600160a01b03166113815760405162461bcd60e51b81526004016104d190612e2c565b60008481526002602052604080822081516101a081019092528054829060ff1660018111156113c057634e487b7160e01b600052602160045260246000fd5b60018111156113df57634e487b7160e01b600052602160045260246000fd5b8152815460ff61010091829004161515602080840191909152600184015460408401526002840154606084015260038401546001600160a01b0390811660808501526004850154811660a0850152600585015460c08501526006850154811660e0850152600785015492840192909252600884015482166101208401526009840154610140840152600a840154909116610160830152600b90920154610180909101528101519091506114da5760405162461bcd60e51b815260206004820152602f602482015260008051602061302983398151915260448201526e1899481bdc195b881d1bc8199a5b1b608a1b60648201526084016104d1565b6000858152600260205260408120805461ff0019169055808251600181111561151357634e487b7160e01b600052602160045260246000fd5b14156116f95742826040015111156115815760405162461bcd60e51b815260206004820152603b602482015260008051602061302983398151915260448201527f6265206f70656e20746f2066696c6c202d20746f6f206561726c79000000000060648201526084016104d1565b606082015115806115955750428260600151115b6115f55760405162461bcd60e51b815260206004820152603a602482015260008051602061302983398151915260448201527f6265206f70656e20746f2066696c6c202d20746f6f206c61746500000000000060648201526084016104d1565b848260c00151111561166f5760405162461bcd60e51b815260206004820152603a60248201527f4c656d6f6e6164654d61726b6574706c6163653a206d757374206d617463682060448201527f707269636520746f2066696c6c20646972656374206f7264657200000000000060648201526084016104d1565b60a08201516001600160a01b031615158061168957503485145b6116a55760405162461bcd60e51b81526004016104d190612e72565b50336001600160a01b0384166116bb57806116bd565b835b6000878152600260205260409020600a810180546001600160a01b0319166001600160a01b039390931692909217909155600b018590556118a6565b60018251600181111561171c57634e487b7160e01b600052602160045260246000fd5b14156118a6576101208201516001600160a01b03166117915760405162461bcd60e51b815260206004820152603e602482015260008051602061302983398151915260448201527f686176652062696420746f2066696c6c2061756374696f6e206f72646572000060648201526084016104d1565b6101208201516001600160a01b0316331480156117b2575042826060015111155b806117c9575060808201516001600160a01b031633145b806117da57506117da600033612191565b6118615760405162461bcd60e51b815260206004820152604c60248201527f4c656d6f6e6164654d61726b6574706c6163653a206d7573742062652074686560448201527f206d616b6572206f722066696e616c2062696464657220746f2066696c6c206160648201526b3ab1ba34b7b71037b93232b960a11b608482015260a4016104d1565b506101208101516000868152600260205260409020600a810180546001600160a01b0319166001600160a01b0390931692909217909155610140820151600b90910155305b6000868152600260205260409081902081516101a081019092528054829060ff1660018111156118e657634e487b7160e01b600052602160045260246000fd5b600181111561190557634e487b7160e01b600052602160045260246000fd5b8152815460ff610100918290041615156020830152600183015460408301526002830154606083015260038301546001600160a01b0390811660808401526004840154811660a0840152600584015460c08401526006840154811660e0840152600784015491830191909152600883015481166101208301526009830154610140830152600a83015416610160820152600b909101546101809182015281015190925015611caf5761018082015160006127106119eb6001600160601b037f00000000000000000000000000000000000000000000000000000000000000001684612f53565b6119f59190612f33565b9050611a278460a00151847f000000000000000000000000000000000000000000000000000000000000000084612312565b611a318183612f72565b9150600080611a498660e0015187610100015161209e565b915091508115611ba257805160005b81811015611b9b57828181518110611a8057634e487b7160e01b600052603260045260246000fd5b6020026020010151600001516001600160a01b031688608001516001600160a01b031614158015611ae557506000838281518110611ace57634e487b7160e01b600052603260045260246000fd5b6020026020010151602001516001600160601b0316115b15611b89576000612710848381518110611b0f57634e487b7160e01b600052603260045260246000fd5b6020026020010151602001516001600160601b03168a6101800151611b349190612f53565b611b3e9190612f33565b9050611b7b8960a0015189868581518110611b6957634e487b7160e01b600052603260045260246000fd5b60200260200101516000015184612312565b611b858188612f72565b9650505b80611b9381612fcc565b915050611a58565b5050611c1b565b6000806000611bc08960e001518a61010001518b61018001516112a6565b925092509250828015611be95750816001600160a01b031689608001516001600160a01b031614155b8015611bf55750600081115b15611c1757611c0a8960a00151898484612312565b611c148188612f72565b96505b5050505b8315611c4257611c358660a0015186886080015187612312565b611c3f8480612f72565b93505b8315611caa5760405162461bcd60e51b815260206004820152603160248201527f4c656d6f6e6164654d61726b6574706c6163653a207472616e7366657220616d6044820152706f756e74206d757374206265207a65726f60781b60648201526084016104d1565b505050505b60e08201516101608301516101008401516040516323b872dd60e01b81526001600160a01b03909316926323b872dd92611ced923092600401612cc2565b600060405180830381600087803b158015611d0757600080fd5b505af1158015611d1b573d6000803e3d6000fd5b505050508161016001516001600160a01b0316867f1e7abafb1a786c4e6394b5c494f50a97e3802ff2ce462eca4fe6a2dd4e1f92e88461018001516040516111ee91815260200190565b60008181526002602052604090206003015481906001600160a01b0316611d9e5760405162461bcd60e51b81526004016104d190612e2c565b60008281526002602052604080822081516101a081019092528054829060ff166001811115611ddd57634e487b7160e01b600052602160045260246000fd5b6001811115611dfc57634e487b7160e01b600052602160045260246000fd5b815281546101009081900460ff1615156020830152600183015460408301526002830154606083015260038301546001600160a01b0390811660808401526004840154811660a0840152600584015460c08401526006840154811660e0840152600784015491830191909152600883015481166101208301526009830154610140830152600a83015416610160820152600b90910154610180909101529050336001600160a01b031681608001516001600160a01b03161480611ec55750611ec5600033612191565b611f2a5760405162461bcd60e51b815260206004820152603060248201527f4c656d6f6e6164654d61726b6574706c6163653a206d7573742062652074686560448201526f081b585ad95c881d1bc818d85b98d95b60821b60648201526084016104d1565b8060200151611f835760405162461bcd60e51b815260206004820152603160248201526000805160206130298339815191526044820152701899481bdc195b881d1bc818d85b98d95b607a1b60648201526084016104d1565b6101208101516001600160a01b031615611feb5760405162461bcd60e51b815260206004820152603560248201526000805160206130298339815191526044820152741a185d99481b9bc8189a59081d1bc818d85b98d95b605a1b60648201526084016104d1565b60e081015160808201516101008301516040516323b872dd60e01b81526001600160a01b03909316926323b872dd92612028923092600401612cc2565b600060405180830381600087803b15801561204257600080fd5b505af1158015612056573d6000803e3d6000fd5b505050600084815260026020526040808220805461ff0019169055518592507f61b9399f2f0f32ca39ce8d7be32caed5ec22fe07a6daba3a467ed479ec6065829190a2505050565b60405163656cb66560e11b8152600481018290526000906060906001600160a01b0385169063cad96cca9060240160006040518083038186803b1580156120e457600080fd5b505afa92505050801561211957506040513d6000823e601f3d908101601f1916820160405261211691908101906129e8565b60015b61216457604080516000808252602082019092528161215a565b60408051808201909152600080825260208201528152602001906001900390816121335790505b509150915061216b565b6001925090505b9250929050565b600082815260016020526040812061218a90836124db565b9392505050565b6000918252602082815260408084206001600160a01b0393909316845291905290205460ff1690565b6000818152600160205260408120610490906124e7565b6000828152602081905260409020600101546121ec8161248a565b61122383836124b9565b6122008282612191565b6112a2576000828152602081815260408083206001600160a01b03851684529091529020805460ff191660011790556122363390565b6001600160a01b0316816001600160a01b0316837f2f8788117e7eff1d82e926ec794901d17c78024a50270940304540a733656f0d60405160405180910390a45050565b600061218a836001600160a01b0384166124f1565b60006001600160e01b03198216637965db0b60e01b148061049057506301ffc9a760e01b6001600160e01b0319831614610490565b6000804284106122d457836122d6565b425b9050600083156122e657836122ea565b6000195b9050808211156122ff57600092505050610490565b6123098282612f72565b95945050505050565b6001600160a01b03841661236d576001600160a01b0382163014612368576040516001600160a01b0383169082156108fc029083906000818181858888f19350505050158015612366573d6000803e3d6000fd5b505b612484565b6001600160a01b0383163014156124005760405163a9059cbb60e01b81526001600160a01b0383811660048301526024820183905285169063a9059cbb90604401602060405180830381600087803b1580156123c857600080fd5b505af11580156123dc573d6000803e3d6000fd5b505050506040513d601f19601f820116820180604052508101906123669190612acf565b6040516323b872dd60e01b81526001600160a01b038516906323b872dd9061243090869086908690600401612cc2565b602060405180830381600087803b15801561244a57600080fd5b505af115801561245e573d6000803e3d6000fd5b505050506040513d601f19601f820116820180604052508101906124829190612acf565b505b50505050565b6124948133612540565b50565b6124a182826121f6565b6000828152600160205260409020611223908261227a565b6124c38282612599565b600082815260016020526040902061122390826125fe565b600061218a8383612613565b6000610490825490565b600081815260018301602052604081205461253857508154600181810184556000848152602080822090930184905584548482528286019093526040902091909155610490565b506000610490565b61254a8282612191565b6112a2576125578161264b565b61256283602061265d565b604051602001612573929190612c4d565b60408051601f198184030181529082905262461bcd60e51b82526104d191600401612df9565b6125a38282612191565b156112a2576000828152602081815260408083206001600160a01b0385168085529252808320805460ff1916905551339285917ff6391f5c32d9c69d2a47ea670b442974b53935d1edc7fd64eb21e047a839171b9190a45050565b600061218a836001600160a01b03841661283f565b600082600001828154811061263857634e487b7160e01b600052603260045260246000fd5b9060005260206000200154905092915050565b60606104906001600160a01b03831660145b6060600061266c836002612f53565b612677906002612f1b565b67ffffffffffffffff81111561269d57634e487b7160e01b600052604160045260246000fd5b6040519080825280601f01601f1916602001820160405280156126c7576020820181803683370190505b509050600360fc1b816000815181106126f057634e487b7160e01b600052603260045260246000fd5b60200101906001600160f81b031916908160001a905350600f60fb1b8160018151811061272d57634e487b7160e01b600052603260045260246000fd5b60200101906001600160f81b031916908160001a9053506000612751846002612f53565b61275c906001612f1b565b90505b60018111156127f0576f181899199a1a9b1b9c1cb0b131b232b360811b85600f166010811061279e57634e487b7160e01b600052603260045260246000fd5b1a60f81b8282815181106127c257634e487b7160e01b600052603260045260246000fd5b60200101906001600160f81b031916908160001a90535060049490941c936127e981612fb5565b905061275f565b50831561218a5760405162461bcd60e51b815260206004820181905260248201527f537472696e67733a20686578206c656e67746820696e73756666696369656e7460448201526064016104d1565b60008181526001830160205260408120548015612952576000612863600183612f72565b855490915060009061287790600190612f72565b90508181146128f85760008660000182815481106128a557634e487b7160e01b600052603260045260246000fd5b90600052602060002001549050808760000184815481106128d657634e487b7160e01b600052603260045260246000fd5b6000918252602080832090910192909255918252600188019052604090208390555b855486908061291757634e487b7160e01b600052603160045260246000fd5b600190038181906000526020600020016000905590558560010160008681526020019081526020016000206000905560019350505050610490565b6000915050610490565b6000806040838503121561296e578182fd5b823561297981613013565b946020939093013593505050565b60008060408385031215612999578182fd5b82516129a481613013565b6020939093015192949293505050565b6000806000606084860312156129c8578081fd5b83356129d381613013565b95602085013595506040909401359392505050565b600060208083850312156129fa578182fd5b825167ffffffffffffffff80821115612a11578384fd5b818501915085601f830112612a24578384fd5b815181811115612a3657612a36612ffd565b612a44848260051b01612eea565b8181528481019250838501600683901b85018601891015612a63578687fd5b8694505b82851015612ac357604080828b031215612a7f578788fd5b612a87612ec1565b8251612a9281613013565b8152828801516001600160601b0381168114612aac57898afd5b818901528552600195909501949386019301612a67565b50979650505050505050565b600060208284031215612ae0578081fd5b8151801515811461218a578182fd5b600060208284031215612b00578081fd5b5035919050565b60008060408385031215612b19578182fd5b823591506020830135612b2b81613013565b809150509250929050565b60008060408385031215612b48578182fd5b50508035926020909101359150565b600060208284031215612b68578081fd5b81356001600160e01b03198116811461218a578182fd5b600080600080600080600060e0888a031215612b99578283fd5b873560028110612ba7578384fd5b965060208801359550604088013594506060880135612bc581613013565b93506080880135925060a0880135612bdc81613013565b8092505060c0880135905092959891949750929550565b600080600060608486031215612c07578081fd5b83359250602084013591506040840135612c2081613013565b809150509250925092565b60028110612c4957634e487b7160e01b600052602160045260246000fd5b9052565b7f416363657373436f6e74726f6c3a206163636f756e7420000000000000000000815260008351612c85816017850160208801612f89565b7001034b99036b4b9b9b4b733903937b6329607d1b6017918401918201528351612cb6816028840160208801612f89565b01602801949350505050565b6001600160a01b039384168152919092166020820152604081019190915260600190565b600060408083018515158452602082818601528186518084526060870191508288019350855b81811015612d4357845180516001600160a01b031684528401516001600160601b0316848401529383019391850191600101612d0c565b509098975050505050505050565b6101408101612d60828d612c2b565b9915156020820152604081019890985260608801969096526001600160a01b03948516608088015292841660a087015260c086019190915260e08501521661010083015261012090910152919050565b60e08101612dbe828a612c2b565b602082019790975260408101959095526001600160a01b039384166060860152608085019290925290911660a083015260c090910152919050565b6020815260008251806020840152612e18816040850160208701612f89565b601f01601f19169190910160400192915050565b60208082526026908201527f4c656d6f6e6164654d61726b6574706c6163653a206f72646572206e6f6e65786040820152651a5cdd195b9d60d21b606082015260800190565b6020808252602f908201527f4c656d6f6e6164654d61726b6574706c6163653a20616d6f756e74206d75737460408201526e206d617463682074782076616c756560881b606082015260800190565b6040805190810167ffffffffffffffff81118282101715612ee457612ee4612ffd565b60405290565b604051601f8201601f1916810167ffffffffffffffff81118282101715612f1357612f13612ffd565b604052919050565b60008219821115612f2e57612f2e612fe7565b500190565b600082612f4e57634e487b7160e01b81526012600452602481fd5b500490565b6000816000190483118215151615612f6d57612f6d612fe7565b500290565b600082821015612f8457612f84612fe7565b500390565b60005b83811015612fa4578181015183820152602001612f8c565b838111156124845750506000910152565b600081612fc457612fc4612fe7565b506000190190565b6000600019821415612fe057612fe0612fe7565b5060010190565b634e487b7160e01b600052601160045260246000fd5b634e487b7160e01b600052604160045260246000fd5b6001600160a01b038116811461249457600080fdfe4c656d6f6e6164654d61726b6574706c6163653a206f72646572206d75737420a2646970667358221220ba08125d1a1cef0fae1cbdadc5c579b4699dfb98619fa1f249ee9a0451cea4b364736f6c63430008040033",
  "devdoc": {
    "kind": "dev",
    "methods": {
      "getRoleAdmin(bytes32)": {
        "details": "Returns the admin role that controls `role`. See {grantRole} and {revokeRole}. To change a role's admin, use {_setRoleAdmin}."
      },
      "getRoleMember(bytes32,uint256)": {
        "details": "Returns one of the accounts that have `role`. `index` must be a value between 0 and {getRoleMemberCount}, non-inclusive. Role bearers are not sorted in any particular way, and their ordering may change at any point. WARNING: When using {getRoleMember} and {getRoleMemberCount}, make sure you perform all queries on the same block. See the following https://forum.openzeppelin.com/t/iterating-over-elements-on-enumerableset-in-openzeppelin-contracts/2296[forum post] for more information."
      },
      "getRoleMemberCount(bytes32)": {
        "details": "Returns the number of accounts that have `role`. Can be used together with {getRoleMember} to enumerate all bearers of a role."
      },
      "grantRole(bytes32,address)": {
        "details": "Grants `role` to `account`. If `account` had not been already granted `role`, emits a {RoleGranted} event. Requirements: - the caller must have ``role``'s admin role. May emit a {RoleGranted} event."
      },
      "hasRole(bytes32,address)": {
        "details": "Returns `true` if `account` has been granted `role`."
      },
      "renounceRole(bytes32,address)": {
        "details": "Revokes `role` from the calling account. Roles are often managed via {grantRole} and {revokeRole}: this function's purpose is to provide a mechanism for accounts to lose their privileges if they are compromised (such as when a trusted device is misplaced). If the calling account had been revoked `role`, emits a {RoleRevoked} event. Requirements: - the caller must be `account`. May emit a {RoleRevoked} event."
      },
      "revokeRole(bytes32,address)": {
        "details": "Revokes `role` from `account`. If `account` had been granted `role`, emits a {RoleRevoked} event. Requirements: - the caller must have ``role``'s admin role. May emit a {RoleRevoked} event."
      },
      "supportsInterface(bytes4)": {
        "details": "See {IERC165-supportsInterface}."
      }
    },
    "version": 1
  },
  "userdoc": {
    "kind": "user",
    "methods": {},
    "version": 1
  },
  "storageLayout": {
    "storage": [
      {
        "astId": 6733,
        "contract": "contracts/LemonadeMarketplaceV2.sol:LemonadeMarketplaceV2",
        "label": "_roles",
        "offset": 0,
        "slot": "0",
        "type": "t_mapping(t_bytes32,t_struct(RoleData)6728_storage)"
      },
      {
        "astId": 7043,
        "contract": "contracts/LemonadeMarketplaceV2.sol:LemonadeMarketplaceV2",
        "label": "_roleMembers",
        "offset": 0,
        "slot": "1",
        "type": "t_mapping(t_bytes32,t_struct(AddressSet)13297_storage)"
      },
      {
        "astId": 16635,
        "contract": "contracts/LemonadeMarketplaceV2.sol:LemonadeMarketplaceV2",
        "label": "_orders",
        "offset": 0,
        "slot": "2",
        "type": "t_mapping(t_uint256,t_struct(Order)16630_storage)"
      },
      {
        "astId": 16638,
        "contract": "contracts/LemonadeMarketplaceV2.sol:LemonadeMarketplaceV2",
        "label": "orderIdTracker",
        "offset": 0,
        "slot": "3",
        "type": "t_struct(Counter)10997_storage"
      }
    ],
    "types": {
      "t_address": {
        "encoding": "inplace",
        "label": "address",
        "numberOfBytes": "20"
      },
      "t_array(t_bytes32)dyn_storage": {
        "base": "t_bytes32",
        "encoding": "dynamic_array",
        "label": "bytes32[]",
        "numberOfBytes": "32"
      },
      "t_bool": {
        "encoding": "inplace",
        "label": "bool",
        "numberOfBytes": "1"
      },
      "t_bytes32": {
        "encoding": "inplace",
        "label": "bytes32",
        "numberOfBytes": "32"
      },
      "t_enum(OrderKind)16561": {
        "encoding": "inplace",
        "label": "enum LemonadeMarketplaceV2.OrderKind",
        "numberOfBytes": "1"
      },
      "t_mapping(t_address,t_bool)": {
        "encoding": "mapping",
        "key": "t_address",
        "label": "mapping(address => bool)",
        "numberOfBytes": "32",
        "value": "t_bool"
      },
      "t_mapping(t_bytes32,t_struct(AddressSet)13297_storage)": {
        "encoding": "mapping",
        "key": "t_bytes32",
        "label": "mapping(bytes32 => struct EnumerableSet.AddressSet)",
        "numberOfBytes": "32",
        "value": "t_struct(AddressSet)13297_storage"
      },
      "t_mapping(t_bytes32,t_struct(RoleData)6728_storage)": {
        "encoding": "mapping",
        "key": "t_bytes32",
        "label": "mapping(bytes32 => struct AccessControl.RoleData)",
        "numberOfBytes": "32",
        "value": "t_struct(RoleData)6728_storage"
      },
      "t_mapping(t_bytes32,t_uint256)": {
        "encoding": "mapping",
        "key": "t_bytes32",
        "label": "mapping(bytes32 => uint256)",
        "numberOfBytes": "32",
        "value": "t_uint256"
      },
      "t_mapping(t_uint256,t_struct(Order)16630_storage)": {
        "encoding": "mapping",
        "key": "t_uint256",
        "label": "mapping(uint256 => struct LemonadeMarketplaceV2.Order)",
        "numberOfBytes": "32",
        "value": "t_struct(Order)16630_storage"
      },
      "t_struct(AddressSet)13297_storage": {
        "encoding": "inplace",
        "label": "struct EnumerableSet.AddressSet",
        "members": [
          {
            "astId": 13296,
            "contract": "contracts/LemonadeMarketplaceV2.sol:LemonadeMarketplaceV2",
            "label": "_inner",
            "offset": 0,
            "slot": "0",
            "type": "t_struct(Set)12982_storage"
          }
        ],
        "numberOfBytes": "64"
      },
      "t_struct(Counter)10997_storage": {
        "encoding": "inplace",
        "label": "struct Counters.Counter",
        "members": [
          {
            "astId": 10996,
            "contract": "contracts/LemonadeMarketplaceV2.sol:LemonadeMarketplaceV2",
            "label": "_value",
            "offset": 0,
            "slot": "0",
            "type": "t_uint256"
          }
        ],
        "numberOfBytes": "32"
      },
      "t_struct(Order)16630_storage": {
        "encoding": "inplace",
        "label": "struct LemonadeMarketplaceV2.Order",
        "members": [
          {
            "astId": 16605,
            "contract": "contracts/LemonadeMarketplaceV2.sol:LemonadeMarketplaceV2",
            "label": "kind",
            "offset": 0,
            "slot": "0",
            "type": "t_enum(OrderKind)16561"
          },
          {
            "astId": 16607,
            "contract": "contracts/LemonadeMarketplaceV2.sol:LemonadeMarketplaceV2",
            "label": "open",
            "offset": 1,
            "slot": "0",
            "type": "t_bool"
          },
          {
            "astId": 16609,
            "contract": "contracts/LemonadeMarketplaceV2.sol:LemonadeMarketplaceV2",
            "label": "openFrom",
            "offset": 0,
            "slot": "1",
            "type": "t_uint256"
          },
          {
            "astId": 16611,
            "contract": "contracts/LemonadeMarketplaceV2.sol:LemonadeMarketplaceV2",
            "label": "openTo",
            "offset": 0,
            "slot": "2",
            "type": "t_uint256"
          },
          {
            "astId": 16613,
            "contract": "contracts/LemonadeMarketplaceV2.sol:LemonadeMarketplaceV2",
            "label": "maker",
            "offset": 0,
            "slot": "3",
            "type": "t_address"
          },
          {
            "astId": 16615,
            "contract": "contracts/LemonadeMarketplaceV2.sol:LemonadeMarketplaceV2",
            "label": "currency",
            "offset": 0,
            "slot": "4",
            "type": "t_address"
          },
          {
            "astId": 16617,
            "contract": "contracts/LemonadeMarketplaceV2.sol:LemonadeMarketplaceV2",
            "label": "price",
            "offset": 0,
            "slot": "5",
            "type": "t_uint256"
          },
          {
            "astId": 16619,
            "contract": "contracts/LemonadeMarketplaceV2.sol:LemonadeMarketplaceV2",
            "label": "tokenContract",
            "offset": 0,
            "slot": "6",
            "type": "t_address"
          },
          {
            "astId": 16621,
            "contract": "contracts/LemonadeMarketplaceV2.sol:LemonadeMarketplaceV2",
            "label": "tokenId",
            "offset": 0,
            "slot": "7",
            "type": "t_uint256"
          },
          {
            "astId": 16623,
            "contract": "contracts/LemonadeMarketplaceV2.sol:LemonadeMarketplaceV2",
            "label": "bidder",
            "offset": 0,
            "slot": "8",
            "type": "t_address"
          },
          {
            "astId": 16625,
            "contract": "contracts/LemonadeMarketplaceV2.sol:LemonadeMarketplaceV2",
            "label": "bidAmount",
            "offset": 0,
            "slot": "9",
            "type": "t_uint256"
          },
          {
            "astId": 16627,
            "contract": "contracts/LemonadeMarketplaceV2.sol:LemonadeMarketplaceV2",
            "label": "taker",
            "offset": 0,
            "slot": "10",
            "type": "t_address"
          },
          {
            "astId": 16629,
            "contract": "contracts/LemonadeMarketplaceV2.sol:LemonadeMarketplaceV2",
            "label": "paidAmount",
            "offset": 0,
            "slot": "11",
            "type": "t_uint256"
          }
        ],
        "numberOfBytes": "384"
      },
      "t_struct(RoleData)6728_storage": {
        "encoding": "inplace",
        "label": "struct AccessControl.RoleData",
        "members": [
          {
            "astId": 6725,
            "contract": "contracts/LemonadeMarketplaceV2.sol:LemonadeMarketplaceV2",
            "label": "members",
            "offset": 0,
            "slot": "0",
            "type": "t_mapping(t_address,t_bool)"
          },
          {
            "astId": 6727,
            "contract": "contracts/LemonadeMarketplaceV2.sol:LemonadeMarketplaceV2",
            "label": "adminRole",
            "offset": 0,
            "slot": "1",
            "type": "t_bytes32"
          }
        ],
        "numberOfBytes": "64"
      },
      "t_struct(Set)12982_storage": {
        "encoding": "inplace",
        "label": "struct EnumerableSet.Set",
        "members": [
          {
            "astId": 12977,
            "contract": "contracts/LemonadeMarketplaceV2.sol:LemonadeMarketplaceV2",
            "label": "_values",
            "offset": 0,
            "slot": "0",
            "type": "t_array(t_bytes32)dyn_storage"
          },
          {
            "astId": 12981,
            "contract": "contracts/LemonadeMarketplaceV2.sol:LemonadeMarketplaceV2",
            "label": "_indexes",
            "offset": 0,
            "slot": "1",
            "type": "t_mapping(t_bytes32,t_uint256)"
          }
        ],
        "numberOfBytes": "64"
      },
      "t_uint256": {
        "encoding": "inplace",
        "label": "uint256",
        "numberOfBytes": "32"
      }
    }
  }
}