{
  "address": "0xFB9d2fB134B8b6Bd70BC8E83bC5c9226A9793ee8",
  "abi": [
    {
      "anonymous": false,
      "inputs": [
        {
          "indexed": true,
          "internalType": "bytes32",
          "name": "id",
          "type": "bytes32"
        }
      ],
      "name": "ChainlinkCancelled",
      "type": "event"
    },
    {
      "anonymous": false,
      "inputs": [
        {
          "indexed": true,
          "internalType": "bytes32",
          "name": "id",
          "type": "bytes32"
        }
      ],
      "name": "ChainlinkFulfilled",
      "type": "event"
    },
    {
      "anonymous": false,
      "inputs": [
        {
          "indexed": true,
          "internalType": "bytes32",
          "name": "id",
          "type": "bytes32"
        }
      ],
      "name": "ChainlinkRequested",
      "type": "event"
    },
    {
      "anonymous": false,
      "inputs": [
        {
          "indexed": true,
          "internalType": "address",
          "name": "previousOwner",
          "type": "address"
        },
        {
          "indexed": true,
          "internalType": "address",
          "name": "newOwner",
          "type": "address"
        }
      ],
      "name": "OwnershipTransferred",
      "type": "event"
    },
    {
      "inputs": [],
      "name": "config",
      "outputs": [
        {
          "internalType": "address",
          "name": "chainlinkToken",
          "type": "address"
        },
        {
          "internalType": "address",
          "name": "chainlinkOracle",
          "type": "address"
        },
        {
          "internalType": "bytes32",
          "name": "jobId",
          "type": "bytes32"
        },
        {
          "internalType": "uint256",
          "name": "fee",
          "type": "uint256"
        },
        {
          "internalType": "string",
          "name": "url",
          "type": "string"
        }
      ],
      "stateMutability": "view",
      "type": "function"
    },
    {
      "inputs": [
        {
          "internalType": "address",
          "name": "chainlinkToken",
          "type": "address"
        },
        {
          "internalType": "address",
          "name": "chainlinkOracle",
          "type": "address"
        },
        {
          "internalType": "bytes32",
          "name": "jobId",
          "type": "bytes32"
        },
        {
          "internalType": "uint256",
          "name": "fee",
          "type": "uint256"
        },
        {
          "internalType": "string",
          "name": "url",
          "type": "string"
        }
      ],
      "name": "configure",
      "outputs": [],
      "stateMutability": "nonpayable",
      "type": "function"
    },
    {
      "inputs": [
        {
          "internalType": "bytes32",
          "name": "requestId",
          "type": "bytes32"
        },
        {
          "internalType": "bytes",
          "name": "bytesData",
          "type": "bytes"
        }
      ],
      "name": "fulfillBytes",
      "outputs": [],
      "stateMutability": "nonpayable",
      "type": "function"
    },
    {
      "inputs": [],
      "name": "owner",
      "outputs": [
        {
          "internalType": "address",
          "name": "",
          "type": "address"
        }
      ],
      "stateMutability": "view",
      "type": "function"
    },
    {
      "inputs": [],
      "name": "renounceOwnership",
      "outputs": [],
      "stateMutability": "nonpayable",
      "type": "function"
    },
    {
      "inputs": [
        {
          "internalType": "bytes4",
          "name": "selector",
          "type": "bytes4"
        },
        {
          "internalType": "bytes",
          "name": "state",
          "type": "bytes"
        }
      ],
      "name": "requestBytes",
      "outputs": [
        {
          "internalType": "bytes32",
          "name": "requestId",
          "type": "bytes32"
        }
      ],
      "stateMutability": "nonpayable",
      "type": "function"
    },
    {
      "inputs": [
        {
          "internalType": "address",
          "name": "newOwner",
          "type": "address"
        }
      ],
      "name": "transferOwnership",
      "outputs": [],
      "stateMutability": "nonpayable",
      "type": "function"
    },
    {
      "inputs": [
        {
          "internalType": "address",
          "name": "to",
          "type": "address"
        }
      ],
      "name": "withdrawLink",
      "outputs": [],
      "stateMutability": "nonpayable",
      "type": "function"
    }
  ],
  "transactionHash": "0x9da19f8435799b55b1f624a01ddb4ec8b7c9c6186a43b2487cd34718a6230af5",
  "args": [],
  "numDeployments": 1,
  "solcInputHash": "6d42b2d13507a48c14849ae25766efed",
  "bytecode": "0x6080604052600160045534801561001557600080fd5b5061001f33610024565b610076565b600680546001600160a01b038381166001600160a01b0319831681179093556040519116919082907f8be0079c531659141344cd1fd0a4f28419497f9722a3daafe3b4186f6b6457e090600090a35050565b611bca806100856000396000f3fe608060405234801561001057600080fd5b50600436106100885760003560e01c806390e9ca7f1161005b57806390e9ca7f146100f1578063c2fb852314610104578063e4c02e3e14610117578063f2fde38b1461012a57600080fd5b80632593e9ef1461008d578063715018a6146100b357806379502c55146100bd5780638da5cb5b146100d6575b600080fd5b6100a061009b366004611657565b61013d565b6040519081526020015b60405180910390f35b6100bb6102be565b005b6100c56102fd565b6040516100aa959493929190611816565b6006546040516001600160a01b0390911681526020016100aa565b6100bb6100ff366004611557565b6103c8565b6100bb610112366004611613565b610564565b6100bb610125366004611571565b610846565b6100bb610138366004611557565b6108cb565b6000806040516004808237805160e01c91505060006101666007543063c2fb852360e01b610966565b90506101dc6040518060400160405280600381526020016219d95d60ea1b815250600961019d336001600160a01b0316601461098b565b6101a886600461098b565b6101b189610b73565b6040516020016101c49493929190611716565b60408051601f19818403018152919052839190610cd4565b610229604051806040016040528060048152602001630e0c2e8d60e31b815250604051806040016040528060048152602001636461746160e01b81525083610cd49092919063ffffffff16565b61023581600854610cf7565b604080516060810182523381526001600160e01b0319881660208083019182528284018981526000868152600a83529490942083518154935160e01c600160a01b026001600160c01b03199094166001600160a01b03919091161792909217825592518051949750919390926102b2926001850192910190611399565b50505050505b92915050565b6006546001600160a01b031633146102f15760405162461bcd60e51b81526004016102e890611904565b60405180910390fd5b6102fb6000610d11565b565b60008060008060606103176002546001600160a01b031690565b6003546001600160a01b0316600754600854600980805461033790611ac9565b80601f016020809104026020016040519081016040528092919081815260200182805461036390611ac9565b80156103b05780601f10610385576101008083540402835291602001916103b0565b820191906000526020600020905b81548152906001019060200180831161039357829003601f168201915b50505050509050945094509450945094509091929394565b6006546001600160a01b031633146103f25760405162461bcd60e51b81526004016102e890611904565b60006104066002546001600160a01b031690565b6040516370a0823160e01b81523060048201529091506001600160a01b0382169063a9059cbb90849083906370a082319060240160206040518083038186803b15801561045257600080fd5b505afa158015610466573d6000803e3d6000fd5b505050506040513d601f19601f8201168201806040525081019061048a919061169a565b6040516001600160e01b031960e085901b1681526001600160a01b0390921660048301526024820152604401602060405180830381600087803b1580156104d057600080fd5b505af11580156104e4573d6000803e3d6000fd5b505050506040513d601f19601f8201168201806040525081019061050891906115f3565b6105605760405162461bcd60e51b8152602060048201526024808201527f436861696e6c696e6b526571756573743a20756e61626c6520746f207472616e60448201526339b332b960e11b60648201526084016102e8565b5050565b60008281526005602052604090205482906001600160a01b031633146105dd5760405162461bcd60e51b815260206004820152602860248201527f536f75726365206d75737420626520746865206f7261636c65206f6620746865604482015267081c995c5d595cdd60c21b60648201526084016102e8565b60008181526005602052604080822080546001600160a01b03191690555182917f7cc135e0cebb02c3480ae5d74d377283180a2601f8f644edf7987b009316c63a91a26000838152600a60209081526040808320815160608101835281546001600160a01b0381168252600160a01b900460e01b6001600160e01b03191693810193909352600181018054919284019161067690611ac9565b80601f01602080910402602001604051908101604052809291908181526020018280546106a290611ac9565b80156106ef5780601f106106c4576101008083540402835291602001916106ef565b820191906000526020600020905b8154815290600101906020018083116106d257829003601f168201915b505050505081525050905060008082600001516001600160a01b031683602001518460400151876040516024016107279291906118df565b60408051601f198184030181529181526020820180516001600160e01b03166001600160e01b031990941693909317909252905161076591906116fa565b6000604051808303816000865af19150503d80600081146107a2576040519150601f19603f3d011682016040523d82523d6000602084013e6107a7565b606091505b509150915081610812578051156107c057805160208201fd5b60405162461bcd60e51b815260206004820152602160248201527f436861696e6c696e6b526571756573743a2063616c6c6261636b206661696c656044820152601960fa1b60648201526084016102e8565b6000868152600a6020526040812080546001600160c01b03191681559061083c600183018261141d565b5050505050505050565b6006546001600160a01b031633146108705760405162461bcd60e51b81526004016102e890611904565b600280546001600160a01b0319166001600160a01b038716179055600380546001600160a01b0319166001600160a01b0386161790556007839055600882905580516108c3906009906020840190611399565b505050505050565b6006546001600160a01b031633146108f55760405162461bcd60e51b81526004016102e890611904565b6001600160a01b03811661095a5760405162461bcd60e51b815260206004820152602660248201527f4f776e61626c653a206e6577206f776e657220697320746865207a65726f206160448201526564647265737360d01b60648201526084016102e8565b61096381610d11565b50565b61096e611457565b610976611457565b61098281868686610d63565b95945050505050565b6060600061099a836002611a50565b6109a5906002611939565b6001600160401b038111156109ca57634e487b7160e01b600052604160045260246000fd5b6040519080825280601f01601f1916602001820160405280156109f4576020820181803683370190505b509050600360fc1b81600081518110610a1d57634e487b7160e01b600052603260045260246000fd5b60200101906001600160f81b031916908160001a905350600f60fb1b81600181518110610a5a57634e487b7160e01b600052603260045260246000fd5b60200101906001600160f81b031916908160001a9053506000610a7e846002611a50565b610a89906001611939565b90505b6001811115610b1d576f181899199a1a9b1b9c1cb0b131b232b360811b85600f1660108110610acb57634e487b7160e01b600052603260045260246000fd5b1a60f81b828281518110610aef57634e487b7160e01b600052603260045260246000fd5b60200101906001600160f81b031916908160001a90535060049490941c93610b1681611ab2565b9050610a8c565b508315610b6c5760405162461bcd60e51b815260206004820181905260248201527f537472696e67733a20686578206c656e67746820696e73756666696369656e7460448201526064016102e8565b9392505050565b6060815160001415610b9357505060408051602081019091526000815290565b6000604051806060016040528060408152602001611b556040913990506000600384516002610bc29190611939565b610bcc9190611951565b610bd7906004611a50565b6001600160401b03811115610bfc57634e487b7160e01b600052604160045260246000fd5b6040519080825280601f01601f191660200182016040528015610c26576020820181803683370190505b509050600182016020820185865187015b80821015610c92576003820191508151603f8160121c168501518453600184019350603f81600c1c168501518453600184019350603f8160061c168501518453600184019350603f8116850151845350600183019250610c37565b5050600386510660018114610cae5760028114610cc157610cc9565b603d6001830353603d6002830353610cc9565b603d60018303535b509195945050505050565b6080830151610ce39083610da9565b6080830151610cf29082610da9565b505050565b600354600090610b6c906001600160a01b03168484610dc0565b600680546001600160a01b038381166001600160a01b0319831681179093556040519116919082907f8be0079c531659141344cd1fd0a4f28419497f9722a3daafe3b4186f6b6457e090600090a35050565b610d6b611457565b610d7b8560800151610100610e53565b50508284526001600160a01b03821660208501526001600160e01b031981166040850152835b949350505050565b610db68260038351610eb8565b610cf28282610fc5565b600454600090610dd1816001611939565b600455835160408086015160808701515191516000936320214ca360e11b93610e099386938493923092918a91600191602401611850565b60408051601f198184030181529190526020810180516001600160e01b03166001600160e01b0319909316929092179091529050610e4986838684610fec565b9695505050505050565b604080518082019091526060815260006020820152610e73602083611afe565b15610e9b57610e83602083611afe565b610e8e906020611a6f565b610e989083611939565b91505b506020828101829052604080518085526000815290920101905290565b6017816001600160401b031611610ee257610edc8360e0600585901b168317611159565b50505050565b60ff816001600160401b031611610f1e57610f08836018611fe0600586901b1617611159565b50610edc836001600160401b038316600161117e565b61ffff816001600160401b031611610f5b57610f45836019611fe0600586901b1617611159565b50610edc836001600160401b038316600261117e565b63ffffffff816001600160401b031611610f9a57610f8483601a611fe0600586901b1617611159565b50610edc836001600160401b038316600461117e565b610faf83601b611fe0600586901b1617611159565b50610edc836001600160401b038316600861117e565b604080518082019091526060815260006020820152610b6c838460000151518485516111a4565b6040516bffffffffffffffffffffffff193060601b1660208201526034810184905260009060540160408051808303601f1901815282825280516020918201206000818152600590925291812080546001600160a01b0319166001600160a01b038a1617905590925082917fb5e6e01e79f91267dc17b4e6314d5d4d03593d2ceee0fbb452b750bd70ea5af99190a2600254604051630200057560e51b81526001600160a01b0390911690634000aea0906110af908890879087906004016118b8565b602060405180830381600087803b1580156110c957600080fd5b505af11580156110dd573d6000803e3d6000fd5b505050506040513d601f19601f8201168201806040525081019061110191906115f3565b610da15760405162461bcd60e51b815260206004820152602360248201527f756e61626c6520746f207472616e73666572416e6443616c6c20746f206f7261604482015262636c6560e81b60648201526084016102e8565b604080518082019091526060815260006020820152610b6c838460000151518461128e565b604080518082019091526060815260006020820152610da18485600001515185856112ea565b60408051808201909152606081526000602082015282518211156111c757600080fd5b60208501516111d68386611939565b111561120957611209856111f9876020015187866111f49190611939565b61136b565b611204906002611a50565b611382565b6000808651805187602083010193508088870111156112285787860182525b505050602084015b602084106112685780518252611247602083611939565b9150611254602082611939565b9050611261602085611a6f565b9350611230565b51815160001960208690036101000a019081169019919091161790525083949350505050565b604080518082019091526060815260006020820152836020015183106112c3576112c384856020015160026112049190611a50565b8351805160208583010184815350808514156112e0576001810182525b5093949350505050565b604080518082019091526060815260006020820152602085015161130e8584611939565b111561132257611322856111f98685611939565b60006001611332846101006119a8565b61133c9190611a6f565b90508551838682010185831982511617815250805184870111156113605783860181525b509495945050505050565b60008183111561137c5750816102b8565b50919050565b815161138e8383610e53565b50610edc8382610fc5565b8280546113a590611ac9565b90600052602060002090601f0160209004810192826113c7576000855561140d565b82601f106113e057805160ff191683800117855561140d565b8280016001018555821561140d579182015b8281111561140d5782518255916020019190600101906113f2565b50611419929150611492565b5090565b50805461142990611ac9565b6000825580601f10611439575050565b601f0160209004906000526020600020908101906109639190611492565b6040805160a0810182526000808252602080830182905282840182905260608084018390528451808601909552845283015290608082015290565b5b808211156114195760008155600101611493565b60006001600160401b03808411156114c1576114c1611b3e565b604051601f8501601f19908116603f011681019082821181831017156114e9576114e9611b3e565b8160405280935085815286868601111561150257600080fd5b858560208301376000602087830101525050509392505050565b80356001600160a01b038116811461153357600080fd5b919050565b600082601f830112611548578081fd5b610b6c838335602085016114a7565b600060208284031215611568578081fd5b610b6c8261151c565b600080600080600060a08688031215611588578081fd5b6115918661151c565b945061159f6020870161151c565b9350604086013592506060860135915060808601356001600160401b038111156115c7578182fd5b8601601f810188136115d7578182fd5b6115e6888235602084016114a7565b9150509295509295909350565b600060208284031215611604578081fd5b81518015158114610b6c578182fd5b60008060408385031215611625578182fd5b8235915060208301356001600160401b03811115611641578182fd5b61164d85828601611538565b9150509250929050565b60008060408385031215611669578182fd5b82356001600160e01b031981168114611680578283fd5b915060208301356001600160401b03811115611641578182fd5b6000602082840312156116ab578081fd5b5051919050565b600081518084526116ca816020860160208601611a86565b601f01601f19169290920160200192915050565b600081516116f0818560208601611a86565b9290920192915050565b6000825161170c818460208701611a86565b9190910192915050565b600080865482600182811c91508083168061173257607f831692505b602080841082141561175257634e487b7160e01b87526022600452602487fd5b8180156117665760018114611777576117a3565b60ff198616895284890196506117a3565b60008d815260209020885b8681101561179b5781548b820152908501908301611782565b505084890196505b50505050505061180b6118056117f26117ec6117d66117d086672673656e6465723d60c01b815260080190565b8b6116de565b692673656c6563746f723d60b01b8152600a0190565b886116de565b662673746174653d60c81b815260070190565b856116de565b979650505050505050565b6001600160a01b03868116825285166020820152604081018490526060810183905260a06080820181905260009061180b908301846116b2565b6001600160a01b0389811682526020820189905260408201889052861660608201526001600160e01b03198516608082015260a0810184905260c0810183905261010060e082018190526000906118a9838201856116b2565b9b9a5050505050505050505050565b60018060a01b038416815282602082015260606040820152600061098260608301846116b2565b6040815260006118f260408301856116b2565b828103602084015261098281856116b2565b6020808252818101527f4f776e61626c653a2063616c6c6572206973206e6f7420746865206f776e6572604082015260600190565b6000821982111561194c5761194c611b12565b500190565b60008261196057611960611b28565b500490565b600181815b808511156119a057816000190482111561198657611986611b12565b8085161561199357918102915b93841c939080029061196a565b509250929050565b6000610b6c83836000826119be575060016102b8565b816119cb575060006102b8565b81600181146119e157600281146119eb57611a07565b60019150506102b8565b60ff8411156119fc576119fc611b12565b50506001821b6102b8565b5060208310610133831016604e8410600b8410161715611a2a575081810a6102b8565b611a348383611965565b8060001904821115611a4857611a48611b12565b029392505050565b6000816000190483118215151615611a6a57611a6a611b12565b500290565b600082821015611a8157611a81611b12565b500390565b60005b83811015611aa1578181015183820152602001611a89565b83811115610edc5750506000910152565b600081611ac157611ac1611b12565b506000190190565b600181811c90821680611add57607f821691505b6020821081141561137c57634e487b7160e01b600052602260045260246000fd5b600082611b0d57611b0d611b28565b500690565b634e487b7160e01b600052601160045260246000fd5b634e487b7160e01b600052601260045260246000fd5b634e487b7160e01b600052604160045260246000fdfe4142434445464748494a4b4c4d4e4f505152535455565758595a6162636465666768696a6b6c6d6e6f707172737475767778797a303132333435363738392b2fa2646970667358221220b4099bcc52369d67239ecad21e054166abed32b3f4f9889fd602ec61133a73d464736f6c63430008040033",
  "devdoc": {
    "kind": "dev",
    "methods": {
      "owner()": {
        "details": "Returns the address of the current owner."
      },
      "renounceOwnership()": {
        "details": "Leaves the contract without owner. It will not be possible to call `onlyOwner` functions anymore. Can only be called by the current owner. NOTE: Renouncing ownership will leave the contract without an owner, thereby removing any functionality that is only available to the owner."
      },
      "transferOwnership(address)": {
        "details": "Transfers ownership of the contract to a new account (`newOwner`). Can only be called by the current owner."
      }
    },
    "version": 1
  },
  "userdoc": {
    "kind": "user",
    "methods": {},
    "version": 1
  },
  "storageLayout": {
    "storage": [
      {
        "astId": 319,
        "contract": "contracts/ChainlinkRequest.sol:ChainlinkRequest",
        "label": "s_ens",
        "offset": 0,
        "slot": "0",
        "type": "t_contract(ENSInterface)974"
      },
      {
        "astId": 321,
        "contract": "contracts/ChainlinkRequest.sol:ChainlinkRequest",
        "label": "s_ensNode",
        "offset": 0,
        "slot": "1",
        "type": "t_bytes32"
      },
      {
        "astId": 324,
        "contract": "contracts/ChainlinkRequest.sol:ChainlinkRequest",
        "label": "s_link",
        "offset": 0,
        "slot": "2",
        "type": "t_contract(LinkTokenInterface)1069"
      },
      {
        "astId": 327,
        "contract": "contracts/ChainlinkRequest.sol:ChainlinkRequest",
        "label": "s_oracle",
        "offset": 0,
        "slot": "3",
        "type": "t_contract(OperatorInterface)1149"
      },
      {
        "astId": 330,
        "contract": "contracts/ChainlinkRequest.sol:ChainlinkRequest",
        "label": "s_requestCount",
        "offset": 0,
        "slot": "4",
        "type": "t_uint256"
      },
      {
        "astId": 334,
        "contract": "contracts/ChainlinkRequest.sol:ChainlinkRequest",
        "label": "s_pendingRequests",
        "offset": 0,
        "slot": "5",
        "type": "t_mapping(t_bytes32,t_address)"
      },
      {
        "astId": 2726,
        "contract": "contracts/ChainlinkRequest.sol:ChainlinkRequest",
        "label": "_owner",
        "offset": 0,
        "slot": "6",
        "type": "t_address"
      },
      {
        "astId": 5847,
        "contract": "contracts/ChainlinkRequest.sol:ChainlinkRequest",
        "label": "_jobId",
        "offset": 0,
        "slot": "7",
        "type": "t_bytes32"
      },
      {
        "astId": 5849,
        "contract": "contracts/ChainlinkRequest.sol:ChainlinkRequest",
        "label": "_fee",
        "offset": 0,
        "slot": "8",
        "type": "t_uint256"
      },
      {
        "astId": 5851,
        "contract": "contracts/ChainlinkRequest.sol:ChainlinkRequest",
        "label": "_url",
        "offset": 0,
        "slot": "9",
        "type": "t_string_storage"
      },
      {
        "astId": 5863,
        "contract": "contracts/ChainlinkRequest.sol:ChainlinkRequest",
        "label": "_pendingRequests",
        "offset": 0,
        "slot": "10",
        "type": "t_mapping(t_bytes32,t_struct(PendingRequest)5858_storage)"
      }
    ],
    "types": {
      "t_address": {
        "encoding": "inplace",
        "label": "address",
        "numberOfBytes": "20"
      },
      "t_bytes32": {
        "encoding": "inplace",
        "label": "bytes32",
        "numberOfBytes": "32"
      },
      "t_bytes4": {
        "encoding": "inplace",
        "label": "bytes4",
        "numberOfBytes": "4"
      },
      "t_bytes_storage": {
        "encoding": "bytes",
        "label": "bytes",
        "numberOfBytes": "32"
      },
      "t_contract(ENSInterface)974": {
        "encoding": "inplace",
        "label": "contract ENSInterface",
        "numberOfBytes": "20"
      },
      "t_contract(LinkTokenInterface)1069": {
        "encoding": "inplace",
        "label": "contract LinkTokenInterface",
        "numberOfBytes": "20"
      },
      "t_contract(OperatorInterface)1149": {
        "encoding": "inplace",
        "label": "contract OperatorInterface",
        "numberOfBytes": "20"
      },
      "t_mapping(t_bytes32,t_address)": {
        "encoding": "mapping",
        "key": "t_bytes32",
        "label": "mapping(bytes32 => address)",
        "numberOfBytes": "32",
        "value": "t_address"
      },
      "t_mapping(t_bytes32,t_struct(PendingRequest)5858_storage)": {
        "encoding": "mapping",
        "key": "t_bytes32",
        "label": "mapping(bytes32 => struct ChainlinkRequest.PendingRequest)",
        "numberOfBytes": "32",
        "value": "t_struct(PendingRequest)5858_storage"
      },
      "t_string_storage": {
        "encoding": "bytes",
        "label": "string",
        "numberOfBytes": "32"
      },
      "t_struct(PendingRequest)5858_storage": {
        "encoding": "inplace",
        "label": "struct ChainlinkRequest.PendingRequest",
        "members": [
          {
            "astId": 5853,
            "contract": "contracts/ChainlinkRequest.sol:ChainlinkRequest",
            "label": "sender",
            "offset": 0,
            "slot": "0",
            "type": "t_address"
          },
          {
            "astId": 5855,
            "contract": "contracts/ChainlinkRequest.sol:ChainlinkRequest",
            "label": "selector",
            "offset": 20,
            "slot": "0",
            "type": "t_bytes4"
          },
          {
            "astId": 5857,
            "contract": "contracts/ChainlinkRequest.sol:ChainlinkRequest",
            "label": "state",
            "offset": 0,
            "slot": "1",
            "type": "t_bytes_storage"
          }
        ],
        "numberOfBytes": "64"
      },
      "t_uint256": {
        "encoding": "inplace",
        "label": "uint256",
        "numberOfBytes": "32"
      }
    }
  }
}