{
  "address": "0x71Deb1a1CfAe375ef779b8D4F39F145Ab07aA66c",
  "abi": [
    {
      "inputs": [
        {
          "internalType": "string",
          "name": "name",
          "type": "string"
        },
        {
          "internalType": "string",
          "name": "symbol",
          "type": "string"
        },
        {
          "internalType": "address",
          "name": "childChainManager",
          "type": "address"
        }
      ],
      "stateMutability": "nonpayable",
      "type": "constructor"
    },
    {
      "anonymous": false,
      "inputs": [
        {
          "indexed": true,
          "internalType": "address",
          "name": "owner",
          "type": "address"
        },
        {
          "indexed": true,
          "internalType": "address",
          "name": "approved",
          "type": "address"
        },
        {
          "indexed": true,
          "internalType": "uint256",
          "name": "tokenId",
          "type": "uint256"
        }
      ],
      "name": "Approval",
      "type": "event"
    },
    {
      "anonymous": false,
      "inputs": [
        {
          "indexed": true,
          "internalType": "address",
          "name": "owner",
          "type": "address"
        },
        {
          "indexed": true,
          "internalType": "address",
          "name": "operator",
          "type": "address"
        },
        {
          "indexed": false,
          "internalType": "bool",
          "name": "approved",
          "type": "bool"
        }
      ],
      "name": "ApprovalForAll",
      "type": "event"
    },
    {
      "anonymous": false,
      "inputs": [
        {
          "indexed": false,
          "internalType": "address",
          "name": "account",
          "type": "address"
        }
      ],
      "name": "Paused",
      "type": "event"
    },
    {
      "anonymous": false,
      "inputs": [
        {
          "indexed": true,
          "internalType": "bytes32",
          "name": "role",
          "type": "bytes32"
        },
        {
          "indexed": true,
          "internalType": "bytes32",
          "name": "previousAdminRole",
          "type": "bytes32"
        },
        {
          "indexed": true,
          "internalType": "bytes32",
          "name": "newAdminRole",
          "type": "bytes32"
        }
      ],
      "name": "RoleAdminChanged",
      "type": "event"
    },
    {
      "anonymous": false,
      "inputs": [
        {
          "indexed": true,
          "internalType": "bytes32",
          "name": "role",
          "type": "bytes32"
        },
        {
          "indexed": true,
          "internalType": "address",
          "name": "account",
          "type": "address"
        },
        {
          "indexed": true,
          "internalType": "address",
          "name": "sender",
          "type": "address"
        }
      ],
      "name": "RoleGranted",
      "type": "event"
    },
    {
      "anonymous": false,
      "inputs": [
        {
          "indexed": true,
          "internalType": "bytes32",
          "name": "role",
          "type": "bytes32"
        },
        {
          "indexed": true,
          "internalType": "address",
          "name": "account",
          "type": "address"
        },
        {
          "indexed": true,
          "internalType": "address",
          "name": "sender",
          "type": "address"
        }
      ],
      "name": "RoleRevoked",
      "type": "event"
    },
    {
      "anonymous": false,
      "inputs": [
        {
          "indexed": true,
          "internalType": "address",
          "name": "from",
          "type": "address"
        },
        {
          "indexed": true,
          "internalType": "address",
          "name": "to",
          "type": "address"
        },
        {
          "indexed": true,
          "internalType": "uint256",
          "name": "tokenId",
          "type": "uint256"
        }
      ],
      "name": "Transfer",
      "type": "event"
    },
    {
      "anonymous": false,
      "inputs": [
        {
          "indexed": true,
          "internalType": "address",
          "name": "from",
          "type": "address"
        },
        {
          "indexed": true,
          "internalType": "address",
          "name": "to",
          "type": "address"
        },
        {
          "indexed": true,
          "internalType": "uint256",
          "name": "tokenId",
          "type": "uint256"
        },
        {
          "indexed": false,
          "internalType": "bytes",
          "name": "metaData",
          "type": "bytes"
        }
      ],
      "name": "TransferWithMetadata",
      "type": "event"
    },
    {
      "anonymous": false,
      "inputs": [
        {
          "indexed": false,
          "internalType": "address",
          "name": "account",
          "type": "address"
        }
      ],
      "name": "Unpaused",
      "type": "event"
    },
    {
      "anonymous": false,
      "inputs": [
        {
          "indexed": true,
          "internalType": "address",
          "name": "user",
          "type": "address"
        },
        {
          "indexed": false,
          "internalType": "uint256[]",
          "name": "tokenIds",
          "type": "uint256[]"
        }
      ],
      "name": "WithdrawnBatch",
      "type": "event"
    },
    {
      "inputs": [],
      "name": "DEFAULT_ADMIN_ROLE",
      "outputs": [
        {
          "internalType": "bytes32",
          "name": "",
          "type": "bytes32"
        }
      ],
      "stateMutability": "view",
      "type": "function"
    },
    {
      "inputs": [],
      "name": "DEPOSITOR_ROLE",
      "outputs": [
        {
          "internalType": "bytes32",
          "name": "",
          "type": "bytes32"
        }
      ],
      "stateMutability": "view",
      "type": "function"
    },
    {
      "inputs": [],
      "name": "PAUSER_ROLE",
      "outputs": [
        {
          "internalType": "bytes32",
          "name": "",
          "type": "bytes32"
        }
      ],
      "stateMutability": "view",
      "type": "function"
    },
    {
      "inputs": [],
      "name": "WITHDRAW_BATCH_LIMIT",
      "outputs": [
        {
          "internalType": "uint256",
          "name": "",
          "type": "uint256"
        }
      ],
      "stateMutability": "view",
      "type": "function"
    },
    {
      "inputs": [
        {
          "internalType": "uint256",
          "name": "",
          "type": "uint256"
        }
      ],
      "name": "_tokenWithdrawn",
      "outputs": [
        {
          "internalType": "bool",
          "name": "",
          "type": "bool"
        }
      ],
      "stateMutability": "view",
      "type": "function"
    },
    {
      "inputs": [
        {
          "internalType": "address",
          "name": "to",
          "type": "address"
        },
        {
          "internalType": "uint256",
          "name": "tokenId",
          "type": "uint256"
        }
      ],
      "name": "approve",
      "outputs": [],
      "stateMutability": "nonpayable",
      "type": "function"
    },
    {
      "inputs": [
        {
          "internalType": "address",
          "name": "owner",
          "type": "address"
        }
      ],
      "name": "balanceOf",
      "outputs": [
        {
          "internalType": "uint256",
          "name": "",
          "type": "uint256"
        }
      ],
      "stateMutability": "view",
      "type": "function"
    },
    {
      "inputs": [
        {
          "internalType": "uint256",
          "name": "tokenId",
          "type": "uint256"
        }
      ],
      "name": "burn",
      "outputs": [],
      "stateMutability": "nonpayable",
      "type": "function"
    },
    {
      "inputs": [
        {
          "internalType": "address",
          "name": "user",
          "type": "address"
        },
        {
          "internalType": "bytes",
          "name": "depositData",
          "type": "bytes"
        }
      ],
      "name": "deposit",
      "outputs": [],
      "stateMutability": "nonpayable",
      "type": "function"
    },
    {
      "inputs": [
        {
          "internalType": "uint256",
          "name": "tokenId",
          "type": "uint256"
        }
      ],
      "name": "encodeState",
      "outputs": [
        {
          "internalType": "bytes",
          "name": "",
          "type": "bytes"
        }
      ],
      "stateMutability": "view",
      "type": "function"
    },
    {
      "inputs": [
        {
          "internalType": "uint256",
          "name": "tokenId",
          "type": "uint256"
        }
      ],
      "name": "getApproved",
      "outputs": [
        {
          "internalType": "address",
          "name": "",
          "type": "address"
        }
      ],
      "stateMutability": "view",
      "type": "function"
    },
    {
      "inputs": [
        {
          "internalType": "bytes32",
          "name": "role",
          "type": "bytes32"
        }
      ],
      "name": "getRoleAdmin",
      "outputs": [
        {
          "internalType": "bytes32",
          "name": "",
          "type": "bytes32"
        }
      ],
      "stateMutability": "view",
      "type": "function"
    },
    {
      "inputs": [
        {
          "internalType": "bytes32",
          "name": "role",
          "type": "bytes32"
        },
        {
          "internalType": "uint256",
          "name": "index",
          "type": "uint256"
        }
      ],
      "name": "getRoleMember",
      "outputs": [
        {
          "internalType": "address",
          "name": "",
          "type": "address"
        }
      ],
      "stateMutability": "view",
      "type": "function"
    },
    {
      "inputs": [
        {
          "internalType": "bytes32",
          "name": "role",
          "type": "bytes32"
        }
      ],
      "name": "getRoleMemberCount",
      "outputs": [
        {
          "internalType": "uint256",
          "name": "",
          "type": "uint256"
        }
      ],
      "stateMutability": "view",
      "type": "function"
    },
    {
      "inputs": [
        {
          "internalType": "bytes32",
          "name": "role",
          "type": "bytes32"
        },
        {
          "internalType": "address",
          "name": "account",
          "type": "address"
        }
      ],
      "name": "grantRole",
      "outputs": [],
      "stateMutability": "nonpayable",
      "type": "function"
    },
    {
      "inputs": [
        {
          "internalType": "bytes32",
          "name": "role",
          "type": "bytes32"
        },
        {
          "internalType": "address",
          "name": "account",
          "type": "address"
        }
      ],
      "name": "hasRole",
      "outputs": [
        {
          "internalType": "bool",
          "name": "",
          "type": "bool"
        }
      ],
      "stateMutability": "view",
      "type": "function"
    },
    {
      "inputs": [
        {
          "internalType": "address",
          "name": "owner",
          "type": "address"
        },
        {
          "internalType": "address",
          "name": "operator",
          "type": "address"
        }
      ],
      "name": "isApprovedForAll",
      "outputs": [
        {
          "internalType": "bool",
          "name": "",
          "type": "bool"
        }
      ],
      "stateMutability": "view",
      "type": "function"
    },
    {
      "inputs": [
        {
          "internalType": "string",
          "name": "tokenURI_",
          "type": "string"
        }
      ],
      "name": "mintToCaller",
      "outputs": [
        {
          "internalType": "uint256",
          "name": "",
          "type": "uint256"
        }
      ],
      "stateMutability": "nonpayable",
      "type": "function"
    },
    {
      "inputs": [
        {
          "internalType": "string",
          "name": "tokenURI_",
          "type": "string"
        },
        {
          "internalType": "uint256",
          "name": "fraction",
          "type": "uint256"
        }
      ],
      "name": "mintToCallerWithRoyalty",
      "outputs": [
        {
          "internalType": "uint256",
          "name": "",
          "type": "uint256"
        }
      ],
      "stateMutability": "nonpayable",
      "type": "function"
    },
    {
      "inputs": [],
      "name": "name",
      "outputs": [
        {
          "internalType": "string",
          "name": "",
          "type": "string"
        }
      ],
      "stateMutability": "view",
      "type": "function"
    },
    {
      "inputs": [
        {
          "internalType": "uint256",
          "name": "tokenId",
          "type": "uint256"
        }
      ],
      "name": "ownerOf",
      "outputs": [
        {
          "internalType": "address",
          "name": "",
          "type": "address"
        }
      ],
      "stateMutability": "view",
      "type": "function"
    },
    {
      "inputs": [],
      "name": "pause",
      "outputs": [],
      "stateMutability": "nonpayable",
      "type": "function"
    },
    {
      "inputs": [],
      "name": "paused",
      "outputs": [
        {
          "internalType": "bool",
          "name": "",
          "type": "bool"
        }
      ],
      "stateMutability": "view",
      "type": "function"
    },
    {
      "inputs": [
        {
          "internalType": "bytes32",
          "name": "role",
          "type": "bytes32"
        },
        {
          "internalType": "address",
          "name": "account",
          "type": "address"
        }
      ],
      "name": "renounceRole",
      "outputs": [],
      "stateMutability": "nonpayable",
      "type": "function"
    },
    {
      "inputs": [
        {
          "internalType": "bytes32",
          "name": "role",
          "type": "bytes32"
        },
        {
          "internalType": "address",
          "name": "account",
          "type": "address"
        }
      ],
      "name": "revokeRole",
      "outputs": [],
      "stateMutability": "nonpayable",
      "type": "function"
    },
    {
      "inputs": [
        {
          "internalType": "uint256",
          "name": "tokenId",
          "type": "uint256"
        }
      ],
      "name": "royalty",
      "outputs": [
        {
          "internalType": "address",
          "name": "",
          "type": "address"
        },
        {
          "internalType": "uint256",
          "name": "",
          "type": "uint256"
        }
      ],
      "stateMutability": "view",
      "type": "function"
    },
    {
      "inputs": [
        {
          "internalType": "address",
          "name": "from",
          "type": "address"
        },
        {
          "internalType": "address",
          "name": "to",
          "type": "address"
        },
        {
          "internalType": "uint256",
          "name": "tokenId",
          "type": "uint256"
        }
      ],
      "name": "safeTransferFrom",
      "outputs": [],
      "stateMutability": "nonpayable",
      "type": "function"
    },
    {
      "inputs": [
        {
          "internalType": "address",
          "name": "from",
          "type": "address"
        },
        {
          "internalType": "address",
          "name": "to",
          "type": "address"
        },
        {
          "internalType": "uint256",
          "name": "tokenId",
          "type": "uint256"
        },
        {
          "internalType": "bytes",
          "name": "_data",
          "type": "bytes"
        }
      ],
      "name": "safeTransferFrom",
      "outputs": [],
      "stateMutability": "nonpayable",
      "type": "function"
    },
    {
      "inputs": [
        {
          "internalType": "address",
          "name": "operator",
          "type": "address"
        },
        {
          "internalType": "bool",
          "name": "approved",
          "type": "bool"
        }
      ],
      "name": "setApprovalForAll",
      "outputs": [],
      "stateMutability": "nonpayable",
      "type": "function"
    },
    {
      "inputs": [
        {
          "internalType": "bytes4",
          "name": "interfaceId",
          "type": "bytes4"
        }
      ],
      "name": "supportsInterface",
      "outputs": [
        {
          "internalType": "bool",
          "name": "",
          "type": "bool"
        }
      ],
      "stateMutability": "view",
      "type": "function"
    },
    {
      "inputs": [],
      "name": "symbol",
      "outputs": [
        {
          "internalType": "string",
          "name": "",
          "type": "string"
        }
      ],
      "stateMutability": "view",
      "type": "function"
    },
    {
      "inputs": [
        {
          "internalType": "uint256",
          "name": "index",
          "type": "uint256"
        }
      ],
      "name": "tokenByIndex",
      "outputs": [
        {
          "internalType": "uint256",
          "name": "",
          "type": "uint256"
        }
      ],
      "stateMutability": "view",
      "type": "function"
    },
    {
      "inputs": [
        {
          "internalType": "address",
          "name": "owner",
          "type": "address"
        },
        {
          "internalType": "uint256",
          "name": "index",
          "type": "uint256"
        }
      ],
      "name": "tokenOfOwnerByIndex",
      "outputs": [
        {
          "internalType": "uint256",
          "name": "",
          "type": "uint256"
        }
      ],
      "stateMutability": "view",
      "type": "function"
    },
    {
      "inputs": [
        {
          "internalType": "uint256",
          "name": "tokenId",
          "type": "uint256"
        }
      ],
      "name": "tokenURI",
      "outputs": [
        {
          "internalType": "string",
          "name": "",
          "type": "string"
        }
      ],
      "stateMutability": "view",
      "type": "function"
    },
    {
      "inputs": [],
      "name": "totalSupply",
      "outputs": [
        {
          "internalType": "uint256",
          "name": "",
          "type": "uint256"
        }
      ],
      "stateMutability": "view",
      "type": "function"
    },
    {
      "inputs": [
        {
          "internalType": "address",
          "name": "from",
          "type": "address"
        },
        {
          "internalType": "address",
          "name": "to",
          "type": "address"
        },
        {
          "internalType": "uint256",
          "name": "tokenId",
          "type": "uint256"
        }
      ],
      "name": "transferFrom",
      "outputs": [],
      "stateMutability": "nonpayable",
      "type": "function"
    },
    {
      "inputs": [],
      "name": "unpause",
      "outputs": [],
      "stateMutability": "nonpayable",
      "type": "function"
    },
    {
      "inputs": [
        {
          "internalType": "uint256",
          "name": "tokenId",
          "type": "uint256"
        }
      ],
      "name": "withdraw",
      "outputs": [],
      "stateMutability": "nonpayable",
      "type": "function"
    },
    {
      "inputs": [
        {
          "internalType": "uint256[]",
          "name": "tokenIds",
          "type": "uint256[]"
        }
      ],
      "name": "withdrawBatch",
      "outputs": [],
      "stateMutability": "nonpayable",
      "type": "function"
    },
    {
      "inputs": [
        {
          "internalType": "uint256",
          "name": "tokenId",
          "type": "uint256"
        }
      ],
      "name": "withdrawWithMetadata",
      "outputs": [],
      "stateMutability": "nonpayable",
      "type": "function"
    }
  ],
  "transactionHash": "0xd645b780ab52c3232517667e28a76f0cedab139ede9f8332d9a3e8083a03e6ac",
  "args": [
    "Non-Fungible Lemon",
    "NFL",
    "0xb5505a6d998549090530911180f38aC5130101c6"
  ],
  "solcInputHash": "778db0688eedce50129df75c9b21ddb3",
  "bytecode": "0x60806040523480156200001157600080fd5b506040516200635e3803806200635e8339818101604052810190620000379190620004f7565b8282816002908051906020019062000051929190620003be565b5080600390805190602001906200006a929190620003be565b5050506000600c60006101000a81548160ff021916908315150217905550620000ac6000801b620000a06200012860201b60201c565b6200013060201b60201c565b620000de7f8f4f2da22e8ac8f11e15f9fc141cddbb5deea8800186560abb6e68c5496619a9826200013060201b60201c565b6200011f7f65d7a28e3265b37a6474929f336521b332c1681b933f6cb9f3376673440d862a620001136200012860201b60201c565b6200013060201b60201c565b5050506200073d565b600033905090565b6200014782826200017860201b62001d2e1760201c565b6200017381600160008581526020019081526020016000206200018e60201b62001d3c1790919060201c565b505050565b6200018a8282620001c660201b60201c565b5050565b6000620001be836000018373ffffffffffffffffffffffffffffffffffffffff1660001b620002b760201b60201c565b905092915050565b620001d882826200033160201b60201c565b620002b357600160008084815260200190815260200160002060000160008373ffffffffffffffffffffffffffffffffffffffff1673ffffffffffffffffffffffffffffffffffffffff16815260200190815260200160002060006101000a81548160ff021916908315150217905550620002586200012860201b60201c565b73ffffffffffffffffffffffffffffffffffffffff168173ffffffffffffffffffffffffffffffffffffffff16837f2f8788117e7eff1d82e926ec794901d17c78024a50270940304540a733656f0d60405160405180910390a45b5050565b6000620002cb83836200039b60201b60201c565b620003265782600001829080600181540180825580915050600190039060005260206000200160009091909190915055826000018054905083600101600084815260200190815260200160002081905550600190506200032b565b600090505b92915050565b600080600084815260200190815260200160002060000160008373ffffffffffffffffffffffffffffffffffffffff1673ffffffffffffffffffffffffffffffffffffffff16815260200190815260200160002060009054906101000a900460ff16905092915050565b600080836001016000848152602001908152602001600020541415905092915050565b828054620003cc9062000648565b90600052602060002090601f016020900481019282620003f057600085556200043c565b82601f106200040b57805160ff19168380011785556200043c565b828001600101855582156200043c579182015b828111156200043b5782518255916020019190600101906200041e565b5b5090506200044b91906200044f565b5090565b5b808211156200046a57600081600090555060010162000450565b5090565b6000620004856200047f84620005a8565b6200057f565b9050828152602081018484840111156200049e57600080fd5b620004ab84828562000612565b509392505050565b600081519050620004c48162000723565b92915050565b600082601f830112620004dc57600080fd5b8151620004ee8482602086016200046e565b91505092915050565b6000806000606084860312156200050d57600080fd5b600084015167ffffffffffffffff8111156200052857600080fd5b6200053686828701620004ca565b935050602084015167ffffffffffffffff8111156200055457600080fd5b6200056286828701620004ca565b92505060406200057586828701620004b3565b9150509250925092565b60006200058b6200059e565b90506200059982826200067e565b919050565b6000604051905090565b600067ffffffffffffffff821115620005c657620005c5620006e3565b5b620005d18262000712565b9050602081019050919050565b6000620005eb82620005f2565b9050919050565b600073ffffffffffffffffffffffffffffffffffffffff82169050919050565b60005b838110156200063257808201518184015260208101905062000615565b8381111562000642576000848401525b50505050565b600060028204905060018216806200066157607f821691505b60208210811415620006785762000677620006b4565b5b50919050565b620006898262000712565b810181811067ffffffffffffffff82111715620006ab57620006aa620006e3565b5b80604052505050565b7f4e487b7100000000000000000000000000000000000000000000000000000000600052602260045260246000fd5b7f4e487b7100000000000000000000000000000000000000000000000000000000600052604160045260246000fd5b6000601f19601f8301169050919050565b6200072e81620005de565b81146200073a57600080fd5b50565b615c11806200074d6000396000f3fe608060405234801561001057600080fd5b50600436106102485760003560e01c80637624f30d1161013b578063b88d4fde116100b8578063db65b45f1161007c578063db65b45f1461070f578063e63ab1e91461073f578063e814cb711461075d578063e985e9c51461078e578063f6e8391d146107be57610248565b8063b88d4fde1461065b578063c87b56dd14610677578063ca15c873146106a7578063cf2c52cb146106d7578063d547741f146106f357610248565b80639c8d4156116100ff5780639c8d4156146105cb578063a217fddf146105e7578063a22cb46514610605578063a3b0b5a314610621578063a5e584dc1461063f57610248565b80637624f30d146105135780638456cb59146105435780639010d07c1461054d57806391d148541461057d57806395d89b41146105ad57610248565b80632f745c59116101c95780634eff851d1161018d5780634eff851d146104475780634f6ccce7146104655780635c975abb146104955780636352211e146104b357806370a08231146104e357610248565b80632f745c59146103b957806336568abe146103e95780633f4ba83a1461040557806342842e0e1461040f57806342966c681461042b57610248565b806318160ddd1161021057806318160ddd1461031757806323b872dd14610335578063248a9ca3146103515780632e1a7d4d146103815780632f2ff15d1461039d57610248565b806301ffc9a71461024d57806306fdde031461027d578063081812fc1461029b578063095ea7b3146102cb578063111fb47b146102e7575b600080fd5b61026760048036038101906102629190614209565b6107ee565b6040516102749190614a1c565b60405180910390f35b610285610800565b6040516102929190614a74565b60405180910390f35b6102b560048036038101906102b09190614331565b610892565b6040516102c29190614968565b60405180910390f35b6102e560048036038101906102e0919061406a565b610917565b005b61030160048036038101906102fc919061429c565b610a2f565b60405161030e9190614e74565b60405180910390f35b61031f610ad3565b60405161032c9190614e74565b60405180910390f35b61034f600480360381019061034a9190613f0c565b610ae0565b005b61036b60048036038101906103669190614168565b610b40565b6040516103789190614a37565b60405180910390f35b61039b60048036038101906103969190614331565b610b5f565b005b6103b760048036038101906103b29190614191565b610c14565b005b6103d360048036038101906103ce919061406a565b610c48565b6040516103e09190614e74565b60405180910390f35b61040360048036038101906103fe9190614191565b610ced565b005b61040d610d21565b005b61042960048036038101906104249190613f0c565b610d5e565b005b61044560048036038101906104409190614331565b610d7e565b005b61044f610dda565b60405161045c9190614e74565b60405180910390f35b61047f600480360381019061047a9190614331565b610ddf565b60405161048c9190614e74565b60405180910390f35b61049d610e76565b6040516104aa9190614a1c565b60405180910390f35b6104cd60048036038101906104c89190614331565b610e8d565b6040516104da9190614968565b60405180910390f35b6104fd60048036038101906104f89190613ea7565b610f3f565b60405161050a9190614e74565b60405180910390f35b61052d60048036038101906105289190614331565b610ff7565b60405161053a9190614a1c565b60405180910390f35b61054b611017565b005b610567600480360381019061056291906141cd565b611054565b6040516105749190614968565b60405180910390f35b61059760048036038101906105929190614191565b611083565b6040516105a49190614a1c565b60405180910390f35b6105b56110ed565b6040516105c29190614a74565b60405180910390f35b6105e560048036038101906105e091906140e2565b61117f565b005b6105ef611360565b6040516105fc9190614a37565b60405180910390f35b61061f600480360381019061061a9190613fd6565b611367565b005b6106296114e8565b6040516106369190614a37565b60405180910390f35b61065960048036038101906106549190614331565b61150c565b005b61067560048036038101906106709190613f5b565b6116bd565b005b610691600480360381019061068c9190614331565b61171f565b60405161069e9190614a74565b60405180910390f35b6106c160048036038101906106bc9190614168565b61180c565b6040516106ce9190614e74565b60405180910390f35b6106f160048036038101906106ec9190614012565b611830565b005b61070d60048036038101906107089190614191565b6119b4565b005b61072960048036038101906107249190614331565b6119e8565b6040516107369190614a52565b60405180910390f35b610747611abb565b6040516107549190614a37565b60405180910390f35b61077760048036038101906107729190614331565b611adf565b6040516107859291906149cf565b60405180910390f35b6107a860048036038101906107a39190613ed0565b611c27565b6040516107b59190614a1c565b60405180910390f35b6107d860048036038101906107d391906142dd565b611cbb565b6040516107e59190614e74565b60405180910390f35b60006107f982611d6c565b9050919050565b60606002805461080f90615164565b80601f016020809104026020016040519081016040528092919081815260200182805461083b90615164565b80156108885780601f1061085d57610100808354040283529160200191610888565b820191906000526020600020905b81548152906001019060200180831161086b57829003601f168201915b5050505050905090565b600061089d82611de6565b6108dc576040517f08c379a00000000000000000000000000000000000000000000000000000000081526004016108d390614d74565b60405180910390fd5b6006600083815260200190815260200160002060009054906101000a900473ffffffffffffffffffffffffffffffffffffffff169050919050565b600061092282610e8d565b90508073ffffffffffffffffffffffffffffffffffffffff168373ffffffffffffffffffffffffffffffffffffffff161415610993576040517f08c379a000000000000000000000000000000000000000000000000000000000815260040161098a90614dd4565b60405180910390fd5b8073ffffffffffffffffffffffffffffffffffffffff166109b2611e52565b73ffffffffffffffffffffffffffffffffffffffff1614806109e157506109e0816109db611e52565b611c27565b5b610a20576040517f08c379a0000000000000000000000000000000000000000000000000000000008152600401610a1790614cb4565b60405180910390fd5b610a2a8383611e5a565b505050565b6000610a39610e76565b15610a79576040517f08c379a0000000000000000000000000000000000000000000000000000000008152600401610a7090614c94565b60405180910390fd5b6000610a85600e611f13565b9050610a98610a92611e52565b82611f21565b82601060008381526020019081526020016000209080519060200190610abf929190613afa565b50610aca600e6120ef565b80915050919050565b6000600a80549050905090565b610af1610aeb611e52565b82612105565b610b30576040517f08c379a0000000000000000000000000000000000000000000000000000000008152600401610b2790614df4565b60405180910390fd5b610b3b8383836121e3565b505050565b6000806000838152602001908152602001600020600101549050919050565b610b6881610e8d565b73ffffffffffffffffffffffffffffffffffffffff16610b86611e52565b73ffffffffffffffffffffffffffffffffffffffff1614610bdc576040517f08c379a0000000000000000000000000000000000000000000000000000000008152600401610bd390614b14565b60405180910390fd5b6001600f600083815260200190815260200160002060006101000a81548160ff021916908315150217905550610c118161243f565b50565b610c1e8282612550565b610c438160016000858152602001908152602001600020611d3c90919063ffffffff16565b505050565b6000610c5383610f3f565b8210610c94576040517f08c379a0000000000000000000000000000000000000000000000000000000008152600401610c8b90614b94565b60405180910390fd5b600860008473ffffffffffffffffffffffffffffffffffffffff1673ffffffffffffffffffffffffffffffffffffffff168152602001908152602001600020600083815260200190815260200160002054905092915050565b610cf78282612579565b610d1c81600160008581526020019081526020016000206125fc90919063ffffffff16565b505050565b7f65d7a28e3265b37a6474929f336521b332c1681b933f6cb9f3376673440d862a610d5381610d4e611e52565b61262c565b610d5b6126c9565b50565b610d79838383604051806020016040528060008152506116bd565b505050565b610d8f610d89611e52565b82612105565b610dce576040517f08c379a0000000000000000000000000000000000000000000000000000000008152600401610dc590614e34565b60405180910390fd5b610dd78161243f565b50565b601481565b6000610de9610ad3565b8210610e2a576040517f08c379a0000000000000000000000000000000000000000000000000000000008152600401610e2190614e14565b60405180910390fd5b600a8281548110610e64577f4e487b7100000000000000000000000000000000000000000000000000000000600052603260045260246000fd5b90600052602060002001549050919050565b6000600c60009054906101000a900460ff16905090565b6000806004600084815260200190815260200160002060009054906101000a900473ffffffffffffffffffffffffffffffffffffffff169050600073ffffffffffffffffffffffffffffffffffffffff168173ffffffffffffffffffffffffffffffffffffffff161415610f36576040517f08c379a0000000000000000000000000000000000000000000000000000000008152600401610f2d90614cf4565b60405180910390fd5b80915050919050565b60008073ffffffffffffffffffffffffffffffffffffffff168273ffffffffffffffffffffffffffffffffffffffff161415610fb0576040517f08c379a0000000000000000000000000000000000000000000000000000000008152600401610fa790614cd4565b60405180910390fd5b600560008373ffffffffffffffffffffffffffffffffffffffff1673ffffffffffffffffffffffffffffffffffffffff168152602001908152602001600020549050919050565b600f6020528060005260406000206000915054906101000a900460ff1681565b7f65d7a28e3265b37a6474929f336521b332c1681b933f6cb9f3376673440d862a61104981611044611e52565b61262c565b61105161276b565b50565b600061107b826001600086815260200190815260200160002061280e90919063ffffffff16565b905092915050565b600080600084815260200190815260200160002060000160008373ffffffffffffffffffffffffffffffffffffffff1673ffffffffffffffffffffffffffffffffffffffff16815260200190815260200160002060009054906101000a900460ff16905092915050565b6060600380546110fc90615164565b80601f016020809104026020016040519081016040528092919081815260200182805461112890615164565b80156111755780601f1061114a57610100808354040283529160200191611175565b820191906000526020600020905b81548152906001019060200180831161115857829003601f168201915b5050505050905090565b600082829050905060148111156111cb576040517f08c379a00000000000000000000000000000000000000000000000000000000081526004016111c290614b54565b60405180910390fd5b60005b81811015611303576000848483818110611211577f4e487b7100000000000000000000000000000000000000000000000000000000600052603260045260246000fd5b90506020020135905061122381610e8d565b73ffffffffffffffffffffffffffffffffffffffff16611241611e52565b73ffffffffffffffffffffffffffffffffffffffff1614816040516020016112699190614908565b604051602081830303815290604052906112b9576040517f08c379a00000000000000000000000000000000000000000000000000000000081526004016112b09190614a74565b60405180910390fd5b506001600f600083815260200190815260200160002060006101000a81548160ff0219169083151502179055506112ef8161243f565b5080806112fb906151c7565b9150506111ce565b5061130c611e52565b73ffffffffffffffffffffffffffffffffffffffff167ff871896b17e9cb7a64941c62c188a4f5c621b86800e3d15452ece01ce56073df84846040516113539291906149f8565b60405180910390a2505050565b6000801b81565b61136f611e52565b73ffffffffffffffffffffffffffffffffffffffff168273ffffffffffffffffffffffffffffffffffffffff1614156113dd576040517f08c379a00000000000000000000000000000000000000000000000000000000081526004016113d490614c34565b60405180910390fd5b80600760006113ea611e52565b73ffffffffffffffffffffffffffffffffffffffff1673ffffffffffffffffffffffffffffffffffffffff16815260200190815260200160002060008473ffffffffffffffffffffffffffffffffffffffff1673ffffffffffffffffffffffffffffffffffffffff16815260200190815260200160002060006101000a81548160ff0219169083151502179055508173ffffffffffffffffffffffffffffffffffffffff16611497611e52565b73ffffffffffffffffffffffffffffffffffffffff167f17307eab39ab6107e8899845ad3d59bd9653f200f220920489ca2b5937696c31836040516114dc9190614a1c565b60405180910390a35050565b7f8f4f2da22e8ac8f11e15f9fc141cddbb5deea8800186560abb6e68c5496619a981565b61151581610e8d565b73ffffffffffffffffffffffffffffffffffffffff16611533611e52565b73ffffffffffffffffffffffffffffffffffffffff1614611589576040517f08c379a000000000000000000000000000000000000000000000000000000000815260040161158090614b14565b60405180910390fd5b6001600f600083815260200190815260200160002060006101000a81548160ff02191690831515021790555080600073ffffffffffffffffffffffffffffffffffffffff166115d783610e8d565b73ffffffffffffffffffffffffffffffffffffffff167ff94915c6d1fd521cee85359239227480c7e8776d7caf1fc3bacad5c269b66a143073ffffffffffffffffffffffffffffffffffffffff1663db65b45f866040518263ffffffff1660e01b81526004016116479190614e74565b60006040518083038186803b15801561165f57600080fd5b505afa158015611673573d6000803e3d6000fd5b505050506040513d6000823e3d601f19601f8201168201806040525081019061169c919061425b565b6040516116a99190614a52565b60405180910390a46116ba8161243f565b50565b6116ce6116c8611e52565b83612105565b61170d576040517f08c379a000000000000000000000000000000000000000000000000000000000815260040161170490614df4565b60405180910390fd5b61171984848484612828565b50505050565b606061172a82611de6565b611769576040517f08c379a000000000000000000000000000000000000000000000000000000000815260040161176090614c54565b60405180910390fd5b60106000838152602001908152602001600020805461178790615164565b80601f01602080910402602001604051908101604052809291908181526020018280546117b390615164565b80156118005780601f106117d557610100808354040283529160200191611800565b820191906000526020600020905b8154815290600101906020018083116117e357829003601f168201915b50505050509050919050565b600061182960016000848152602001908152602001600020612884565b9050919050565b7f8f4f2da22e8ac8f11e15f9fc141cddbb5deea8800186560abb6e68c5496619a96118628161185d611e52565b61262c565b60208383905014156118bd576000838381019061187f9190614331565b90506000600f600083815260200190815260200160002060006101000a81548160ff0219169083151502179055506118b78582611f21565b506119ae565b600083838101906118ce9190614127565b905060008151905060005b818110156119aa576000600f6000858481518110611920577f4e487b7100000000000000000000000000000000000000000000000000000000600052603260045260246000fd5b6020026020010151815260200190815260200160002060006101000a81548160ff0219169083151502179055506119978784838151811061198a577f4e487b7100000000000000000000000000000000000000000000000000000000600052603260045260246000fd5b6020026020010151611f21565b80806119a2906151c7565b9150506118d9565b5050505b50505050565b6119be8282612899565b6119e381600160008581526020019081526020016000206125fc90919063ffffffff16565b505050565b606060006119f58361171f565b90506000803073ffffffffffffffffffffffffffffffffffffffff1663e814cb71866040518263ffffffff1660e01b8152600401611a339190614e74565b604080518083038186803b158015611a4a57600080fd5b505afa925050508015611a7b57506040513d601f19601f82011682018060405250810190611a7891906140a6565b60015b611a8457611a8d565b81935080925050505b828282604051602001611aa293929190614a96565b6040516020818303038152906040529350505050919050565b7f65d7a28e3265b37a6474929f336521b332c1681b933f6cb9f3376673440d862a81565b600080611aeb83611de6565b611b2a576040517f08c379a0000000000000000000000000000000000000000000000000000000008152600401611b2190614b74565b60405180910390fd5b600073ffffffffffffffffffffffffffffffffffffffff16600d600085815260200190815260200160002060000160009054906101000a900473ffffffffffffffffffffffffffffffffffffffff1673ffffffffffffffffffffffffffffffffffffffff161415611bd0576040517f08c379a0000000000000000000000000000000000000000000000000000000008152600401611bc790614bf4565b60405180910390fd5b600d600084815260200190815260200160002060000160009054906101000a900473ffffffffffffffffffffffffffffffffffffffff16600d60008581526020019081526020016000206001015491509150915091565b6000600760008473ffffffffffffffffffffffffffffffffffffffff1673ffffffffffffffffffffffffffffffffffffffff16815260200190815260200160002060008373ffffffffffffffffffffffffffffffffffffffff1673ffffffffffffffffffffffffffffffffffffffff16815260200190815260200160002060009054906101000a900460ff16905092915050565b6000611cc5610e76565b15611d05576040517f08c379a0000000000000000000000000000000000000000000000000000000008152600401611cfc90614c94565b60405180910390fd5b6000611d1084610a2f565b9050611d2481611d1e611e52565b856128c2565b8091505092915050565b611d388282612a67565b5050565b6000611d64836000018373ffffffffffffffffffffffffffffffffffffffff1660001b612b47565b905092915050565b60007fe814cb71000000000000000000000000000000000000000000000000000000007bffffffffffffffffffffffffffffffffffffffffffffffffffffffff1916827bffffffffffffffffffffffffffffffffffffffffffffffffffffffff19161480611ddf5750611dde82612bb7565b5b9050919050565b60008073ffffffffffffffffffffffffffffffffffffffff166004600084815260200190815260200160002060009054906101000a900473ffffffffffffffffffffffffffffffffffffffff1673ffffffffffffffffffffffffffffffffffffffff1614159050919050565b600033905090565b816006600083815260200190815260200160002060006101000a81548173ffffffffffffffffffffffffffffffffffffffff021916908373ffffffffffffffffffffffffffffffffffffffff160217905550808273ffffffffffffffffffffffffffffffffffffffff16611ecd83610e8d565b73ffffffffffffffffffffffffffffffffffffffff167f8c5be1e5ebec7d5bd14f71427d1e84f3dd0314c0f7b2291e5b200ac8c7c3b92560405160405180910390a45050565b600081600001549050919050565b600073ffffffffffffffffffffffffffffffffffffffff168273ffffffffffffffffffffffffffffffffffffffff161415611f91576040517f08c379a0000000000000000000000000000000000000000000000000000000008152600401611f8890614d54565b60405180910390fd5b611f9a81611de6565b15611fda576040517f08c379a0000000000000000000000000000000000000000000000000000000008152600401611fd190614bd4565b60405180910390fd5b611fe660008383612c31565b6001600560008473ffffffffffffffffffffffffffffffffffffffff1673ffffffffffffffffffffffffffffffffffffffff16815260200190815260200160002060008282546120369190614f96565b92505081905550816004600083815260200190815260200160002060006101000a81548173ffffffffffffffffffffffffffffffffffffffff021916908373ffffffffffffffffffffffffffffffffffffffff160217905550808273ffffffffffffffffffffffffffffffffffffffff16600073ffffffffffffffffffffffffffffffffffffffff167fddf252ad1be2c89b69c2b068fc378daa952ba7f163c4a11628f55a4df523b3ef60405160405180910390a45050565b6001816000016000828254019250508190555050565b600061211082611de6565b61214f576040517f08c379a000000000000000000000000000000000000000000000000000000000815260040161214690614c74565b60405180910390fd5b600061215a83610e8d565b90508073ffffffffffffffffffffffffffffffffffffffff168473ffffffffffffffffffffffffffffffffffffffff1614806121c957508373ffffffffffffffffffffffffffffffffffffffff166121b184610892565b73ffffffffffffffffffffffffffffffffffffffff16145b806121da57506121d98185611c27565b5b91505092915050565b8273ffffffffffffffffffffffffffffffffffffffff1661220382610e8d565b73ffffffffffffffffffffffffffffffffffffffff1614612259576040517f08c379a000000000000000000000000000000000000000000000000000000000815260040161225090614d94565b60405180910390fd5b600073ffffffffffffffffffffffffffffffffffffffff168273ffffffffffffffffffffffffffffffffffffffff1614156122c9576040517f08c379a00000000000000000000000000000000000000000000000000000000081526004016122c090614c14565b60405180910390fd5b6122d4838383612c31565b6122df600082611e5a565b6001600560008573ffffffffffffffffffffffffffffffffffffffff1673ffffffffffffffffffffffffffffffffffffffff168152602001908152602001600020600082825461232f9190615046565b925050819055506001600560008473ffffffffffffffffffffffffffffffffffffffff1673ffffffffffffffffffffffffffffffffffffffff16815260200190815260200160002060008282546123869190614f96565b92505081905550816004600083815260200190815260200160002060006101000a81548173ffffffffffffffffffffffffffffffffffffffff021916908373ffffffffffffffffffffffffffffffffffffffff160217905550808273ffffffffffffffffffffffffffffffffffffffff168473ffffffffffffffffffffffffffffffffffffffff167fddf252ad1be2c89b69c2b068fc378daa952ba7f163c4a11628f55a4df523b3ef60405160405180910390a4505050565b600061244a82610e8d565b905061245881600084612c31565b612463600083611e5a565b6001600560008373ffffffffffffffffffffffffffffffffffffffff1673ffffffffffffffffffffffffffffffffffffffff16815260200190815260200160002060008282546124b39190615046565b925050819055506004600083815260200190815260200160002060006101000a81549073ffffffffffffffffffffffffffffffffffffffff021916905581600073ffffffffffffffffffffffffffffffffffffffff168273ffffffffffffffffffffffffffffffffffffffff167fddf252ad1be2c89b69c2b068fc378daa952ba7f163c4a11628f55a4df523b3ef60405160405180910390a45050565b61255982610b40565b61256a81612565611e52565b61262c565b6125748383612a67565b505050565b612581611e52565b73ffffffffffffffffffffffffffffffffffffffff168173ffffffffffffffffffffffffffffffffffffffff16146125ee576040517f08c379a00000000000000000000000000000000000000000000000000000000081526004016125e590614e54565b60405180910390fd5b6125f88282612c41565b5050565b6000612624836000018373ffffffffffffffffffffffffffffffffffffffff1660001b612d22565b905092915050565b6126368282611083565b6126c55761265b8173ffffffffffffffffffffffffffffffffffffffff166014612ea8565b6126698360001c6020612ea8565b60405160200161267a92919061492e565b6040516020818303038152906040526040517f08c379a00000000000000000000000000000000000000000000000000000000081526004016126bc9190614a74565b60405180910390fd5b5050565b6126d1610e76565b612710576040517f08c379a000000000000000000000000000000000000000000000000000000000815260040161270790614b34565b60405180910390fd5b6000600c60006101000a81548160ff0219169083151502179055507f5db9ee0a495bf2e6ff9c91a7834c1ba4fdd244a5e8aa4e537bd38aeae4b073aa612754611e52565b6040516127619190614968565b60405180910390a1565b612773610e76565b156127b3576040517f08c379a00000000000000000000000000000000000000000000000000000000081526004016127aa90614c94565b60405180910390fd5b6001600c60006101000a81548160ff0219169083151502179055507f62e78cea01bee320cd4e420270b5ea74000d11b0c9f74754ebdbfc544b05a2586127f7611e52565b6040516128049190614968565b60405180910390a1565b600061281d83600001836131a2565b60001c905092915050565b6128338484846121e3565b61283f848484846131f3565b61287e576040517f08c379a000000000000000000000000000000000000000000000000000000000815260040161287590614bb4565b60405180910390fd5b50505050565b60006128928260000161338a565b9050919050565b6128a282610b40565b6128b3816128ae611e52565b61262c565b6128bd8383612c41565b505050565b6128cb83611de6565b61290a576040517f08c379a000000000000000000000000000000000000000000000000000000000815260040161290190614d34565b60405180910390fd5b600073ffffffffffffffffffffffffffffffffffffffff168273ffffffffffffffffffffffffffffffffffffffff16141561297a576040517f08c379a000000000000000000000000000000000000000000000000000000000815260040161297190614d14565b60405180910390fd5b6000811180156129915750670de0b6b3a764000081105b6129d0576040517f08c379a00000000000000000000000000000000000000000000000000000000081526004016129c790614db4565b60405180910390fd5b60405180604001604052808373ffffffffffffffffffffffffffffffffffffffff16815260200182815250600d600085815260200190815260200160002060008201518160000160006101000a81548173ffffffffffffffffffffffffffffffffffffffff021916908373ffffffffffffffffffffffffffffffffffffffff16021790555060208201518160010155905050505050565b612a718282611083565b612b4357600160008084815260200190815260200160002060000160008373ffffffffffffffffffffffffffffffffffffffff1673ffffffffffffffffffffffffffffffffffffffff16815260200190815260200160002060006101000a81548160ff021916908315150217905550612ae8611e52565b73ffffffffffffffffffffffffffffffffffffffff168173ffffffffffffffffffffffffffffffffffffffff16837f2f8788117e7eff1d82e926ec794901d17c78024a50270940304540a733656f0d60405160405180910390a45b5050565b6000612b53838361339b565b612bac578260000182908060018154018082558091505060019003906000526020600020016000909190919091505582600001805490508360010160008481526020019081526020016000208190555060019050612bb1565b600090505b92915050565b60007f780e9d63000000000000000000000000000000000000000000000000000000007bffffffffffffffffffffffffffffffffffffffffffffffffffffffff1916827bffffffffffffffffffffffffffffffffffffffffffffffffffffffff19161480612c2a5750612c29826133be565b5b9050919050565b612c3c8383836134a0565b505050565b612c4b8282611083565b15612d1e57600080600084815260200190815260200160002060000160008373ffffffffffffffffffffffffffffffffffffffff1673ffffffffffffffffffffffffffffffffffffffff16815260200190815260200160002060006101000a81548160ff021916908315150217905550612cc3611e52565b73ffffffffffffffffffffffffffffffffffffffff168173ffffffffffffffffffffffffffffffffffffffff16837ff6391f5c32d9c69d2a47ea670b442974b53935d1edc7fd64eb21e047a839171b60405160405180910390a45b5050565b60008083600101600084815260200190815260200160002054905060008114612e9c576000600182612d549190615046565b9050600060018660000180549050612d6c9190615046565b9050818114612e27576000866000018281548110612db3577f4e487b7100000000000000000000000000000000000000000000000000000000600052603260045260246000fd5b9060005260206000200154905080876000018481548110612dfd577f4e487b7100000000000000000000000000000000000000000000000000000000600052603260045260246000fd5b90600052602060002001819055508387600101600083815260200190815260200160002081905550505b85600001805480612e61577f4e487b7100000000000000000000000000000000000000000000000000000000600052603160045260246000fd5b600190038181906000526020600020016000905590558560010160008681526020019081526020016000206000905560019350505050612ea2565b60009150505b92915050565b606060006002836002612ebb9190614fec565b612ec59190614f96565b67ffffffffffffffff811115612f04577f4e487b7100000000000000000000000000000000000000000000000000000000600052604160045260246000fd5b6040519080825280601f01601f191660200182016040528015612f365781602001600182028036833780820191505090505b5090507f300000000000000000000000000000000000000000000000000000000000000081600081518110612f94577f4e487b7100000000000000000000000000000000000000000000000000000000600052603260045260246000fd5b60200101907effffffffffffffffffffffffffffffffffffffffffffffffffffffffffffff1916908160001a9053507f78000000000000000000000000000000000000000000000000000000000000008160018151811061301e577f4e487b7100000000000000000000000000000000000000000000000000000000600052603260045260246000fd5b60200101907effffffffffffffffffffffffffffffffffffffffffffffffffffffffffffff1916908160001a9053506000600184600261305e9190614fec565b6130689190614f96565b90505b6001811115613154577f3031323334353637383961626364656600000000000000000000000000000000600f8616601081106130d0577f4e487b7100000000000000000000000000000000000000000000000000000000600052603260045260246000fd5b1a60f81b82828151811061310d577f4e487b7100000000000000000000000000000000000000000000000000000000600052603260045260246000fd5b60200101907effffffffffffffffffffffffffffffffffffffffffffffffffffffffffffff1916908160001a905350600485901c94508061314d9061513a565b905061306b565b5060008414613198576040517f08c379a000000000000000000000000000000000000000000000000000000000815260040161318f90614ad4565b60405180910390fd5b8091505092915050565b60008260000182815481106131e0577f4e487b7100000000000000000000000000000000000000000000000000000000600052603260045260246000fd5b9060005260206000200154905092915050565b60006132148473ffffffffffffffffffffffffffffffffffffffff166134f8565b1561337d578373ffffffffffffffffffffffffffffffffffffffff1663150b7a0261323d611e52565b8786866040518563ffffffff1660e01b815260040161325f9493929190614983565b602060405180830381600087803b15801561327957600080fd5b505af19250505080156132aa57506040513d601f19601f820116820180604052508101906132a79190614232565b60015b61332d573d80600081146132da576040519150601f19603f3d011682016040523d82523d6000602084013e6132df565b606091505b50600081511415613325576040517f08c379a000000000000000000000000000000000000000000000000000000000815260040161331c90614bb4565b60405180910390fd5b805181602001fd5b63150b7a0260e01b7bffffffffffffffffffffffffffffffffffffffffffffffffffffffff1916817bffffffffffffffffffffffffffffffffffffffffffffffffffffffff191614915050613382565b600190505b949350505050565b600081600001805490509050919050565b600080836001016000848152602001908152602001600020541415905092915050565b60007f80ac58cd000000000000000000000000000000000000000000000000000000007bffffffffffffffffffffffffffffffffffffffffffffffffffffffff1916827bffffffffffffffffffffffffffffffffffffffffffffffffffffffff1916148061348957507f5b5e139f000000000000000000000000000000000000000000000000000000007bffffffffffffffffffffffffffffffffffffffffffffffffffffffff1916827bffffffffffffffffffffffffffffffffffffffffffffffffffffffff1916145b8061349957506134988261350b565b5b9050919050565b6134ab838383613585565b6134b3610e76565b156134f3576040517f08c379a00000000000000000000000000000000000000000000000000000000081526004016134ea90614af4565b60405180910390fd5b505050565b600080823b905060008111915050919050565b60007f5a05180f000000000000000000000000000000000000000000000000000000007bffffffffffffffffffffffffffffffffffffffffffffffffffffffff1916827bffffffffffffffffffffffffffffffffffffffffffffffffffffffff1916148061357e575061357d82613699565b5b9050919050565b613590838383613713565b600073ffffffffffffffffffffffffffffffffffffffff168373ffffffffffffffffffffffffffffffffffffffff1614156135d3576135ce81613718565b613612565b8173ffffffffffffffffffffffffffffffffffffffff168373ffffffffffffffffffffffffffffffffffffffff1614613611576136108382613761565b5b5b600073ffffffffffffffffffffffffffffffffffffffff168273ffffffffffffffffffffffffffffffffffffffff16141561365557613650816138ce565b613694565b8273ffffffffffffffffffffffffffffffffffffffff168273ffffffffffffffffffffffffffffffffffffffff1614613693576136928282613a11565b5b5b505050565b60007f7965db0b000000000000000000000000000000000000000000000000000000007bffffffffffffffffffffffffffffffffffffffffffffffffffffffff1916827bffffffffffffffffffffffffffffffffffffffffffffffffffffffff1916148061370c575061370b82613a90565b5b9050919050565b505050565b600a80549050600b600083815260200190815260200160002081905550600a81908060018154018082558091505060019003906000526020600020016000909190919091505550565b6000600161376e84610f3f565b6137789190615046565b905060006009600084815260200190815260200160002054905081811461385d576000600860008673ffffffffffffffffffffffffffffffffffffffff1673ffffffffffffffffffffffffffffffffffffffff168152602001908152602001600020600084815260200190815260200160002054905080600860008773ffffffffffffffffffffffffffffffffffffffff1673ffffffffffffffffffffffffffffffffffffffff168152602001908152602001600020600084815260200190815260200160002081905550816009600083815260200190815260200160002081905550505b6009600084815260200190815260200160002060009055600860008573ffffffffffffffffffffffffffffffffffffffff1673ffffffffffffffffffffffffffffffffffffffff16815260200190815260200160002060008381526020019081526020016000206000905550505050565b60006001600a805490506138e29190615046565b90506000600b60008481526020019081526020016000205490506000600a8381548110613938577f4e487b7100000000000000000000000000000000000000000000000000000000600052603260045260246000fd5b9060005260206000200154905080600a8381548110613980577f4e487b7100000000000000000000000000000000000000000000000000000000600052603260045260246000fd5b906000526020600020018190555081600b600083815260200190815260200160002081905550600b600085815260200190815260200160002060009055600a8054806139f5577f4e487b7100000000000000000000000000000000000000000000000000000000600052603160045260246000fd5b6001900381819060005260206000200160009055905550505050565b6000613a1c83610f3f565b905081600860008573ffffffffffffffffffffffffffffffffffffffff1673ffffffffffffffffffffffffffffffffffffffff168152602001908152602001600020600083815260200190815260200160002081905550806009600084815260200190815260200160002081905550505050565b60007f01ffc9a7000000000000000000000000000000000000000000000000000000007bffffffffffffffffffffffffffffffffffffffffffffffffffffffff1916827bffffffffffffffffffffffffffffffffffffffffffffffffffffffff1916149050919050565b828054613b0690615164565b90600052602060002090601f016020900481019282613b285760008555613b6f565b82601f10613b4157805160ff1916838001178555613b6f565b82800160010185558215613b6f579182015b82811115613b6e578251825591602001919060010190613b53565b5b509050613b7c9190613b80565b5090565b5b80821115613b99576000816000905550600101613b81565b5090565b6000613bb0613bab84614eb4565b614e8f565b90508083825260208201905082856020860282011115613bcf57600080fd5b60005b85811015613bff5781613be58882613e7d565b845260208401935060208301925050600181019050613bd2565b5050509392505050565b6000613c1c613c1784614ee0565b614e8f565b905082815260208101848484011115613c3457600080fd5b613c3f8482856150f8565b509392505050565b6000613c5a613c5584614ee0565b614e8f565b905082815260208101848484011115613c7257600080fd5b613c7d848285615107565b509392505050565b6000613c98613c9384614f11565b614e8f565b905082815260208101848484011115613cb057600080fd5b613cbb8482856150f8565b509392505050565b600081359050613cd281615b68565b92915050565b600081519050613ce781615b68565b92915050565b60008083601f840112613cff57600080fd5b8235905067ffffffffffffffff811115613d1857600080fd5b602083019150836020820283011115613d3057600080fd5b9250929050565b600082601f830112613d4857600080fd5b8135613d58848260208601613b9d565b91505092915050565b600081359050613d7081615b7f565b92915050565b600081359050613d8581615b96565b92915050565b600081359050613d9a81615bad565b92915050565b600081519050613daf81615bad565b92915050565b60008083601f840112613dc757600080fd5b8235905067ffffffffffffffff811115613de057600080fd5b602083019150836001820283011115613df857600080fd5b9250929050565b600082601f830112613e1057600080fd5b8135613e20848260208601613c09565b91505092915050565b600082601f830112613e3a57600080fd5b8151613e4a848260208601613c47565b91505092915050565b600082601f830112613e6457600080fd5b8135613e74848260208601613c85565b91505092915050565b600081359050613e8c81615bc4565b92915050565b600081519050613ea181615bc4565b92915050565b600060208284031215613eb957600080fd5b6000613ec784828501613cc3565b91505092915050565b60008060408385031215613ee357600080fd5b6000613ef185828601613cc3565b9250506020613f0285828601613cc3565b9150509250929050565b600080600060608486031215613f2157600080fd5b6000613f2f86828701613cc3565b9350506020613f4086828701613cc3565b9250506040613f5186828701613e7d565b9150509250925092565b60008060008060808587031215613f7157600080fd5b6000613f7f87828801613cc3565b9450506020613f9087828801613cc3565b9350506040613fa187828801613e7d565b925050606085013567ffffffffffffffff811115613fbe57600080fd5b613fca87828801613dff565b91505092959194509250565b60008060408385031215613fe957600080fd5b6000613ff785828601613cc3565b925050602061400885828601613d61565b9150509250929050565b60008060006040848603121561402757600080fd5b600061403586828701613cc3565b935050602084013567ffffffffffffffff81111561405257600080fd5b61405e86828701613db5565b92509250509250925092565b6000806040838503121561407d57600080fd5b600061408b85828601613cc3565b925050602061409c85828601613e7d565b9150509250929050565b600080604083850312156140b957600080fd5b60006140c785828601613cd8565b92505060206140d885828601613e92565b9150509250929050565b600080602083850312156140f557600080fd5b600083013567ffffffffffffffff81111561410f57600080fd5b61411b85828601613ced565b92509250509250929050565b60006020828403121561413957600080fd5b600082013567ffffffffffffffff81111561415357600080fd5b61415f84828501613d37565b91505092915050565b60006020828403121561417a57600080fd5b600061418884828501613d76565b91505092915050565b600080604083850312156141a457600080fd5b60006141b285828601613d76565b92505060206141c385828601613cc3565b9150509250929050565b600080604083850312156141e057600080fd5b60006141ee85828601613d76565b92505060206141ff85828601613e7d565b9150509250929050565b60006020828403121561421b57600080fd5b600061422984828501613d8b565b91505092915050565b60006020828403121561424457600080fd5b600061425284828501613da0565b91505092915050565b60006020828403121561426d57600080fd5b600082015167ffffffffffffffff81111561428757600080fd5b61429384828501613e29565b91505092915050565b6000602082840312156142ae57600080fd5b600082013567ffffffffffffffff8111156142c857600080fd5b6142d484828501613e53565b91505092915050565b600080604083850312156142f057600080fd5b600083013567ffffffffffffffff81111561430a57600080fd5b61431685828601613e53565b925050602061432785828601613e7d565b9150509250929050565b60006020828403121561434357600080fd5b600061435184828501613e7d565b91505092915050565b6143638161507a565b82525050565b60006143758385614f58565b93507f07ffffffffffffffffffffffffffffffffffffffffffffffffffffffffffffff8311156143a457600080fd5b6020830292506143b58385846150f8565b82840190509392505050565b6143ca8161508c565b82525050565b6143d981615098565b82525050565b60006143ea82614f42565b6143f48185614f69565b9350614404818560208601615107565b61440d816152a7565b840191505092915050565b600061442382614f4d565b61442d8185614f7a565b935061443d818560208601615107565b614446816152a7565b840191505092915050565b600061445c82614f4d565b6144668185614f8b565b9350614476818560208601615107565b80840191505092915050565b600061448f602083614f7a565b915061449a826152b8565b602082019050919050565b60006144b2602b83614f7a565b91506144bd826152e1565b604082019050919050565b60006144d5602383614f7a565b91506144e082615330565b604082019050919050565b60006144f8601483614f7a565b91506145038261537f565b602082019050919050565b600061451b602383614f7a565b9150614526826153a8565b604082019050919050565b600061453e602a83614f7a565b9150614549826153f7565b604082019050919050565b6000614561602b83614f7a565b915061456c82615446565b604082019050919050565b6000614584603283614f7a565b915061458f82615495565b604082019050919050565b60006145a7601c83614f7a565b91506145b2826154e4565b602082019050919050565b60006145ca602d83614f7a565b91506145d58261550d565b604082019050919050565b60006145ed602483614f7a565b91506145f88261555c565b604082019050919050565b6000614610601983614f7a565b915061461b826155ab565b602082019050919050565b6000614633602f83614f7a565b915061463e826155d4565b604082019050919050565b6000614656602c83614f7a565b915061466182615623565b604082019050919050565b6000614679601083614f7a565b915061468482615672565b602082019050919050565b600061469c603883614f7a565b91506146a78261569b565b604082019050919050565b60006146bf602a83614f7a565b91506146ca826156ea565b604082019050919050565b60006146e2602983614f7a565b91506146ed82615739565b604082019050919050565b6000614705602683614f7a565b915061471082615788565b604082019050919050565b6000614728602883614f7a565b9150614733826157d7565b604082019050919050565b600061474b602083614f7a565b915061475682615826565b602082019050919050565b600061476e602c83614f7a565b91506147798261584f565b604082019050919050565b6000614791602983614f7a565b915061479c8261589e565b604082019050919050565b60006147b4603c83614f7a565b91506147bf826158ed565b604082019050919050565b60006147d7602483614f8b565b91506147e28261593c565b602482019050919050565b60006147fa602183614f7a565b91506148058261598b565b604082019050919050565b600061481d603183614f7a565b9150614828826159da565b604082019050919050565b6000614840602c83614f7a565b915061484b82615a29565b604082019050919050565b6000614863601783614f8b565b915061486e82615a78565b601782019050919050565b6000614886603083614f7a565b915061489182615aa1565b604082019050919050565b60006148a9601183614f8b565b91506148b482615af0565b601182019050919050565b60006148cc602f83614f7a565b91506148d782615b19565b604082019050919050565b6148eb816150ee565b82525050565b6149026148fd826150ee565b615210565b82525050565b6000614913826147ca565b915061491f82846148f1565b60208201915081905092915050565b600061493982614856565b91506149458285614451565b91506149508261489c565b915061495c8284614451565b91508190509392505050565b600060208201905061497d600083018461435a565b92915050565b6000608082019050614998600083018761435a565b6149a5602083018661435a565b6149b260408301856148e2565b81810360608301526149c481846143df565b905095945050505050565b60006040820190506149e4600083018561435a565b6149f160208301846148e2565b9392505050565b60006020820190508181036000830152614a13818486614369565b90509392505050565b6000602082019050614a3160008301846143c1565b92915050565b6000602082019050614a4c60008301846143d0565b92915050565b60006020820190508181036000830152614a6c81846143df565b905092915050565b60006020820190508181036000830152614a8e8184614418565b905092915050565b60006060820190508181036000830152614ab08186614418565b9050614abf602083018561435a565b614acc60408301846148e2565b949350505050565b60006020820190508181036000830152614aed81614482565b9050919050565b60006020820190508181036000830152614b0d816144a5565b9050919050565b60006020820190508181036000830152614b2d816144c8565b9050919050565b60006020820190508181036000830152614b4d816144eb565b9050919050565b60006020820190508181036000830152614b6d8161450e565b9050919050565b60006020820190508181036000830152614b8d81614531565b9050919050565b60006020820190508181036000830152614bad81614554565b9050919050565b60006020820190508181036000830152614bcd81614577565b9050919050565b60006020820190508181036000830152614bed8161459a565b9050919050565b60006020820190508181036000830152614c0d816145bd565b9050919050565b60006020820190508181036000830152614c2d816145e0565b9050919050565b60006020820190508181036000830152614c4d81614603565b9050919050565b60006020820190508181036000830152614c6d81614626565b9050919050565b60006020820190508181036000830152614c8d81614649565b9050919050565b60006020820190508181036000830152614cad8161466c565b9050919050565b60006020820190508181036000830152614ccd8161468f565b9050919050565b60006020820190508181036000830152614ced816146b2565b9050919050565b60006020820190508181036000830152614d0d816146d5565b9050919050565b60006020820190508181036000830152614d2d816146f8565b9050919050565b60006020820190508181036000830152614d4d8161471b565b9050919050565b60006020820190508181036000830152614d6d8161473e565b9050919050565b60006020820190508181036000830152614d8d81614761565b9050919050565b60006020820190508181036000830152614dad81614784565b9050919050565b60006020820190508181036000830152614dcd816147a7565b9050919050565b60006020820190508181036000830152614ded816147ed565b9050919050565b60006020820190508181036000830152614e0d81614810565b9050919050565b60006020820190508181036000830152614e2d81614833565b9050919050565b60006020820190508181036000830152614e4d81614879565b9050919050565b60006020820190508181036000830152614e6d816148bf565b9050919050565b6000602082019050614e8960008301846148e2565b92915050565b6000614e99614eaa565b9050614ea58282615196565b919050565b6000604051905090565b600067ffffffffffffffff821115614ecf57614ece615278565b5b602082029050602081019050919050565b600067ffffffffffffffff821115614efb57614efa615278565b5b614f04826152a7565b9050602081019050919050565b600067ffffffffffffffff821115614f2c57614f2b615278565b5b614f35826152a7565b9050602081019050919050565b600081519050919050565b600081519050919050565b600082825260208201905092915050565b600082825260208201905092915050565b600082825260208201905092915050565b600081905092915050565b6000614fa1826150ee565b9150614fac836150ee565b9250827fffffffffffffffffffffffffffffffffffffffffffffffffffffffffffffffff03821115614fe157614fe061521a565b5b828201905092915050565b6000614ff7826150ee565b9150615002836150ee565b9250817fffffffffffffffffffffffffffffffffffffffffffffffffffffffffffffffff048311821515161561503b5761503a61521a565b5b828202905092915050565b6000615051826150ee565b915061505c836150ee565b92508282101561506f5761506e61521a565b5b828203905092915050565b6000615085826150ce565b9050919050565b60008115159050919050565b6000819050919050565b60007fffffffff0000000000000000000000000000000000000000000000000000000082169050919050565b600073ffffffffffffffffffffffffffffffffffffffff82169050919050565b6000819050919050565b82818337600083830152505050565b60005b8381101561512557808201518184015260208101905061510a565b83811115615134576000848401525b50505050565b6000615145826150ee565b915060008214156151595761515861521a565b5b600182039050919050565b6000600282049050600182168061517c57607f821691505b602082108114156151905761518f615249565b5b50919050565b61519f826152a7565b810181811067ffffffffffffffff821117156151be576151bd615278565b5b80604052505050565b60006151d2826150ee565b91507fffffffffffffffffffffffffffffffffffffffffffffffffffffffffffffffff8214156152055761520461521a565b5b600182019050919050565b6000819050919050565b7f4e487b7100000000000000000000000000000000000000000000000000000000600052601160045260246000fd5b7f4e487b7100000000000000000000000000000000000000000000000000000000600052602260045260246000fd5b7f4e487b7100000000000000000000000000000000000000000000000000000000600052604160045260246000fd5b6000601f19601f8301169050919050565b7f537472696e67733a20686578206c656e67746820696e73756666696369656e74600082015250565b7f4552433732315061757361626c653a20746f6b656e207472616e73666572207760008201527f68696c6520706175736564000000000000000000000000000000000000000000602082015250565b7f4552433732314c656d6f6e6164653a20494e56414c49445f544f4b454e5f4f5760008201527f4e45520000000000000000000000000000000000000000000000000000000000602082015250565b7f5061757361626c653a206e6f7420706175736564000000000000000000000000600082015250565b7f4552433732314c656d6f6e6164653a20455843454544535f42415443485f4c4960008201527f4d49540000000000000000000000000000000000000000000000000000000000602082015250565b7f455243373231526f79616c74793a20717565727920666f72206e6f6e6578697360008201527f74656e7420746f6b656e00000000000000000000000000000000000000000000602082015250565b7f455243373231456e756d657261626c653a206f776e657220696e646578206f7560008201527f74206f6620626f756e6473000000000000000000000000000000000000000000602082015250565b7f4552433732313a207472616e7366657220746f206e6f6e20455243373231526560008201527f63656976657220696d706c656d656e7465720000000000000000000000000000602082015250565b7f4552433732313a20746f6b656e20616c7265616479206d696e74656400000000600082015250565b7f4552433732314c656d6f6e6164653a20717565727920666f72206e6f6e65786960008201527f7374656e7420726f79616c747900000000000000000000000000000000000000602082015250565b7f4552433732313a207472616e7366657220746f20746865207a65726f2061646460008201527f7265737300000000000000000000000000000000000000000000000000000000602082015250565b7f4552433732313a20617070726f766520746f2063616c6c657200000000000000600082015250565b7f4552433732314c656d6f6e6164653a2055524920717565727920666f72206e6f60008201527f6e6578697374656e7420746f6b656e0000000000000000000000000000000000602082015250565b7f4552433732313a206f70657261746f7220717565727920666f72206e6f6e657860008201527f697374656e7420746f6b656e0000000000000000000000000000000000000000602082015250565b7f5061757361626c653a2070617573656400000000000000000000000000000000600082015250565b7f4552433732313a20617070726f76652063616c6c6572206973206e6f74206f7760008201527f6e6572206e6f7220617070726f76656420666f7220616c6c0000000000000000602082015250565b7f4552433732313a2062616c616e636520717565727920666f7220746865207a6560008201527f726f206164647265737300000000000000000000000000000000000000000000602082015250565b7f4552433732313a206f776e657220717565727920666f72206e6f6e657869737460008201527f656e7420746f6b656e0000000000000000000000000000000000000000000000602082015250565b7f455243373231526f79616c74793a2073657420746f20746865207a65726f206160008201527f6464726573730000000000000000000000000000000000000000000000000000602082015250565b7f455243373231526f79616c74793a2073657420666f72206e6f6e65786973746560008201527f6e7420746f6b656e000000000000000000000000000000000000000000000000602082015250565b7f4552433732313a206d696e7420746f20746865207a65726f2061646472657373600082015250565b7f4552433732313a20617070726f76656420717565727920666f72206e6f6e657860008201527f697374656e7420746f6b656e0000000000000000000000000000000000000000602082015250565b7f4552433732313a207472616e73666572206f6620746f6b656e2074686174206960008201527f73206e6f74206f776e0000000000000000000000000000000000000000000000602082015250565b7f455243373231526f79616c74793a2073657420666f72206672616374696f6e2060008201527f6e6f74207374726963746c79206265747765656e203020616e64203100000000602082015250565b7f4552433732314c656d6f6e6164653a20494e56414c49445f544f4b454e5f4f5760008201527f4e45522000000000000000000000000000000000000000000000000000000000602082015250565b7f4552433732313a20617070726f76616c20746f2063757272656e74206f776e6560008201527f7200000000000000000000000000000000000000000000000000000000000000602082015250565b7f4552433732313a207472616e736665722063616c6c6572206973206e6f74206f60008201527f776e6572206e6f7220617070726f766564000000000000000000000000000000602082015250565b7f455243373231456e756d657261626c653a20676c6f62616c20696e646578206f60008201527f7574206f6620626f756e64730000000000000000000000000000000000000000602082015250565b7f416363657373436f6e74726f6c3a206163636f756e7420000000000000000000600082015250565b7f4552433732314275726e61626c653a2063616c6c6572206973206e6f74206f7760008201527f6e6572206e6f7220617070726f76656400000000000000000000000000000000602082015250565b7f206973206d697373696e6720726f6c6520000000000000000000000000000000600082015250565b7f416363657373436f6e74726f6c3a2063616e206f6e6c792072656e6f756e636560008201527f20726f6c657320666f722073656c660000000000000000000000000000000000602082015250565b615b718161507a565b8114615b7c57600080fd5b50565b615b888161508c565b8114615b9357600080fd5b50565b615b9f81615098565b8114615baa57600080fd5b50565b615bb6816150a2565b8114615bc157600080fd5b50565b615bcd816150ee565b8114615bd857600080fd5b5056fea26469706673582212205ac9d6c436fa20b4fabedcc28ffeab5e1b467af89167c39e2ca1a761f4807a3c64736f6c63430008040033",
  "devdoc": {
    "kind": "dev",
    "methods": {
      "approve(address,uint256)": {
        "details": "See {IERC721-approve}."
      },
      "balanceOf(address)": {
        "details": "See {IERC721-balanceOf}."
      },
      "burn(uint256)": {
        "details": "Burns `tokenId`. See {ERC721-_burn}. Requirements: - The caller must own `tokenId` or be an approved operator."
      },
      "deposit(address,bytes)": {
        "details": "see https://github.com/maticnetwork/pos-portal/blob/88dbf0a88fd68fa11f7a3b9d36629930f6b93a05/flat/ChildMintableERC721.sol#L2160"
      },
      "encodeState(uint256)": {
        "details": "see https://github.com/maticnetwork/pos-portal/blob/88dbf0a88fd68fa11f7a3b9d36629930f6b93a05/flat/ChildMintableERC721.sol#L2255"
      },
      "getApproved(uint256)": {
        "details": "See {IERC721-getApproved}."
      },
      "getRoleAdmin(bytes32)": {
        "details": "Returns the admin role that controls `role`. See {grantRole} and {revokeRole}. To change a role's admin, use {_setRoleAdmin}."
      },
      "getRoleMember(bytes32,uint256)": {
        "details": "Returns one of the accounts that have `role`. `index` must be a value between 0 and {getRoleMemberCount}, non-inclusive. Role bearers are not sorted in any particular way, and their ordering may change at any point. WARNING: When using {getRoleMember} and {getRoleMemberCount}, make sure you perform all queries on the same block. See the following https://forum.openzeppelin.com/t/iterating-over-elements-on-enumerableset-in-openzeppelin-contracts/2296[forum post] for more information."
      },
      "getRoleMemberCount(bytes32)": {
        "details": "Returns the number of accounts that have `role`. Can be used together with {getRoleMember} to enumerate all bearers of a role."
      },
      "grantRole(bytes32,address)": {
        "details": "Overload {grantRole} to track enumerable memberships"
      },
      "hasRole(bytes32,address)": {
        "details": "Returns `true` if `account` has been granted `role`."
      },
      "isApprovedForAll(address,address)": {
        "details": "See {IERC721-isApprovedForAll}."
      },
      "name()": {
        "details": "See {IERC721Metadata-name}."
      },
      "ownerOf(uint256)": {
        "details": "See {IERC721-ownerOf}."
      },
      "paused()": {
        "details": "Returns true if the contract is paused, and false otherwise."
      },
      "renounceRole(bytes32,address)": {
        "details": "Overload {renounceRole} to track enumerable memberships"
      },
      "revokeRole(bytes32,address)": {
        "details": "Overload {revokeRole} to track enumerable memberships"
      },
      "royalty(uint256)": {
        "details": "Returns the royalty maker and fraction for `tokenId` token."
      },
      "safeTransferFrom(address,address,uint256)": {
        "details": "See {IERC721-safeTransferFrom}."
      },
      "safeTransferFrom(address,address,uint256,bytes)": {
        "details": "See {IERC721-safeTransferFrom}."
      },
      "setApprovalForAll(address,bool)": {
        "details": "See {IERC721-setApprovalForAll}."
      },
      "symbol()": {
        "details": "See {IERC721Metadata-symbol}."
      },
      "tokenByIndex(uint256)": {
        "details": "See {IERC721Enumerable-tokenByIndex}."
      },
      "tokenOfOwnerByIndex(address,uint256)": {
        "details": "See {IERC721Enumerable-tokenOfOwnerByIndex}."
      },
      "tokenURI(uint256)": {
        "details": "See {IERC721Metadata-tokenURI}."
      },
      "totalSupply()": {
        "details": "See {IERC721Enumerable-totalSupply}."
      },
      "transferFrom(address,address,uint256)": {
        "details": "See {IERC721-transferFrom}."
      },
      "withdraw(uint256)": {
        "details": "see https://github.com/maticnetwork/pos-portal/blob/88dbf0a88fd68fa11f7a3b9d36629930f6b93a05/flat/ChildMintableERC721.sol#L2191"
      },
      "withdrawBatch(uint256[])": {
        "details": "see https://github.com/maticnetwork/pos-portal/blob/88dbf0a88fd68fa11f7a3b9d36629930f6b93a05/flat/ChildMintableERC721.sol#L2202"
      },
      "withdrawWithMetadata(uint256)": {
        "details": "see https://github.com/maticnetwork/pos-portal/blob/88dbf0a88fd68fa11f7a3b9d36629930f6b93a05/flat/ChildMintableERC721.sol#L2234"
      }
    },
    "version": 1
  },
  "userdoc": {
    "kind": "user",
    "methods": {},
    "version": 1
  },
  "storageLayout": {
    "storage": [
      {
        "astId": 24,
        "contract": "contracts/ERC721Lemonade.sol:ERC721Lemonade",
        "label": "_roles",
        "offset": 0,
        "slot": "0",
        "type": "t_mapping(t_bytes32,t_struct(RoleData)19_storage)"
      },
      {
        "astId": 325,
        "contract": "contracts/ERC721Lemonade.sol:ERC721Lemonade",
        "label": "_roleMembers",
        "offset": 0,
        "slot": "1",
        "type": "t_mapping(t_bytes32,t_struct(AddressSet)3681_storage)"
      },
      {
        "astId": 1350,
        "contract": "contracts/ERC721Lemonade.sol:ERC721Lemonade",
        "label": "_name",
        "offset": 0,
        "slot": "2",
        "type": "t_string_storage"
      },
      {
        "astId": 1352,
        "contract": "contracts/ERC721Lemonade.sol:ERC721Lemonade",
        "label": "_symbol",
        "offset": 0,
        "slot": "3",
        "type": "t_string_storage"
      },
      {
        "astId": 1356,
        "contract": "contracts/ERC721Lemonade.sol:ERC721Lemonade",
        "label": "_owners",
        "offset": 0,
        "slot": "4",
        "type": "t_mapping(t_uint256,t_address)"
      },
      {
        "astId": 1360,
        "contract": "contracts/ERC721Lemonade.sol:ERC721Lemonade",
        "label": "_balances",
        "offset": 0,
        "slot": "5",
        "type": "t_mapping(t_address,t_uint256)"
      },
      {
        "astId": 1364,
        "contract": "contracts/ERC721Lemonade.sol:ERC721Lemonade",
        "label": "_tokenApprovals",
        "offset": 0,
        "slot": "6",
        "type": "t_mapping(t_uint256,t_address)"
      },
      {
        "astId": 1370,
        "contract": "contracts/ERC721Lemonade.sol:ERC721Lemonade",
        "label": "_operatorApprovals",
        "offset": 0,
        "slot": "7",
        "type": "t_mapping(t_address,t_mapping(t_address,t_bool))"
      },
      {
        "astId": 2319,
        "contract": "contracts/ERC721Lemonade.sol:ERC721Lemonade",
        "label": "_ownedTokens",
        "offset": 0,
        "slot": "8",
        "type": "t_mapping(t_address,t_mapping(t_uint256,t_uint256))"
      },
      {
        "astId": 2323,
        "contract": "contracts/ERC721Lemonade.sol:ERC721Lemonade",
        "label": "_ownedTokensIndex",
        "offset": 0,
        "slot": "9",
        "type": "t_mapping(t_uint256,t_uint256)"
      },
      {
        "astId": 2326,
        "contract": "contracts/ERC721Lemonade.sol:ERC721Lemonade",
        "label": "_allTokens",
        "offset": 0,
        "slot": "10",
        "type": "t_array(t_uint256)dyn_storage"
      },
      {
        "astId": 2330,
        "contract": "contracts/ERC721Lemonade.sol:ERC721Lemonade",
        "label": "_allTokensIndex",
        "offset": 0,
        "slot": "11",
        "type": "t_mapping(t_uint256,t_uint256)"
      },
      {
        "astId": 601,
        "contract": "contracts/ERC721Lemonade.sol:ERC721Lemonade",
        "label": "_paused",
        "offset": 0,
        "slot": "12",
        "type": "t_bool"
      },
      {
        "astId": 4749,
        "contract": "contracts/ERC721Lemonade.sol:ERC721Lemonade",
        "label": "_royalties",
        "offset": 0,
        "slot": "13",
        "type": "t_mapping(t_uint256,t_struct(Royalty)4744_storage)"
      },
      {
        "astId": 4037,
        "contract": "contracts/ERC721Lemonade.sol:ERC721Lemonade",
        "label": "_tokenIdTracker",
        "offset": 0,
        "slot": "14",
        "type": "t_struct(Counter)3062_storage"
      },
      {
        "astId": 4041,
        "contract": "contracts/ERC721Lemonade.sol:ERC721Lemonade",
        "label": "_tokenWithdrawn",
        "offset": 0,
        "slot": "15",
        "type": "t_mapping(t_uint256,t_bool)"
      },
      {
        "astId": 4045,
        "contract": "contracts/ERC721Lemonade.sol:ERC721Lemonade",
        "label": "_tokenURIs",
        "offset": 0,
        "slot": "16",
        "type": "t_mapping(t_uint256,t_string_storage)"
      }
    ],
    "types": {
      "t_address": {
        "encoding": "inplace",
        "label": "address",
        "numberOfBytes": "20"
      },
      "t_array(t_bytes32)dyn_storage": {
        "base": "t_bytes32",
        "encoding": "dynamic_array",
        "label": "bytes32[]",
        "numberOfBytes": "32"
      },
      "t_array(t_uint256)dyn_storage": {
        "base": "t_uint256",
        "encoding": "dynamic_array",
        "label": "uint256[]",
        "numberOfBytes": "32"
      },
      "t_bool": {
        "encoding": "inplace",
        "label": "bool",
        "numberOfBytes": "1"
      },
      "t_bytes32": {
        "encoding": "inplace",
        "label": "bytes32",
        "numberOfBytes": "32"
      },
      "t_mapping(t_address,t_bool)": {
        "encoding": "mapping",
        "key": "t_address",
        "label": "mapping(address => bool)",
        "numberOfBytes": "32",
        "value": "t_bool"
      },
      "t_mapping(t_address,t_mapping(t_address,t_bool))": {
        "encoding": "mapping",
        "key": "t_address",
        "label": "mapping(address => mapping(address => bool))",
        "numberOfBytes": "32",
        "value": "t_mapping(t_address,t_bool)"
      },
      "t_mapping(t_address,t_mapping(t_uint256,t_uint256))": {
        "encoding": "mapping",
        "key": "t_address",
        "label": "mapping(address => mapping(uint256 => uint256))",
        "numberOfBytes": "32",
        "value": "t_mapping(t_uint256,t_uint256)"
      },
      "t_mapping(t_address,t_uint256)": {
        "encoding": "mapping",
        "key": "t_address",
        "label": "mapping(address => uint256)",
        "numberOfBytes": "32",
        "value": "t_uint256"
      },
      "t_mapping(t_bytes32,t_struct(AddressSet)3681_storage)": {
        "encoding": "mapping",
        "key": "t_bytes32",
        "label": "mapping(bytes32 => struct EnumerableSet.AddressSet)",
        "numberOfBytes": "32",
        "value": "t_struct(AddressSet)3681_storage"
      },
      "t_mapping(t_bytes32,t_struct(RoleData)19_storage)": {
        "encoding": "mapping",
        "key": "t_bytes32",
        "label": "mapping(bytes32 => struct AccessControl.RoleData)",
        "numberOfBytes": "32",
        "value": "t_struct(RoleData)19_storage"
      },
      "t_mapping(t_bytes32,t_uint256)": {
        "encoding": "mapping",
        "key": "t_bytes32",
        "label": "mapping(bytes32 => uint256)",
        "numberOfBytes": "32",
        "value": "t_uint256"
      },
      "t_mapping(t_uint256,t_address)": {
        "encoding": "mapping",
        "key": "t_uint256",
        "label": "mapping(uint256 => address)",
        "numberOfBytes": "32",
        "value": "t_address"
      },
      "t_mapping(t_uint256,t_bool)": {
        "encoding": "mapping",
        "key": "t_uint256",
        "label": "mapping(uint256 => bool)",
        "numberOfBytes": "32",
        "value": "t_bool"
      },
      "t_mapping(t_uint256,t_string_storage)": {
        "encoding": "mapping",
        "key": "t_uint256",
        "label": "mapping(uint256 => string)",
        "numberOfBytes": "32",
        "value": "t_string_storage"
      },
      "t_mapping(t_uint256,t_struct(Royalty)4744_storage)": {
        "encoding": "mapping",
        "key": "t_uint256",
        "label": "mapping(uint256 => struct ERC721Royalty.Royalty)",
        "numberOfBytes": "32",
        "value": "t_struct(Royalty)4744_storage"
      },
      "t_mapping(t_uint256,t_uint256)": {
        "encoding": "mapping",
        "key": "t_uint256",
        "label": "mapping(uint256 => uint256)",
        "numberOfBytes": "32",
        "value": "t_uint256"
      },
      "t_string_storage": {
        "encoding": "bytes",
        "label": "string",
        "numberOfBytes": "32"
      },
      "t_struct(AddressSet)3681_storage": {
        "encoding": "inplace",
        "label": "struct EnumerableSet.AddressSet",
        "members": [
          {
            "astId": 3680,
            "contract": "contracts/ERC721Lemonade.sol:ERC721Lemonade",
            "label": "_inner",
            "offset": 0,
            "slot": "0",
            "type": "t_struct(Set)3380_storage"
          }
        ],
        "numberOfBytes": "64"
      },
      "t_struct(Counter)3062_storage": {
        "encoding": "inplace",
        "label": "struct Counters.Counter",
        "members": [
          {
            "astId": 3061,
            "contract": "contracts/ERC721Lemonade.sol:ERC721Lemonade",
            "label": "_value",
            "offset": 0,
            "slot": "0",
            "type": "t_uint256"
          }
        ],
        "numberOfBytes": "32"
      },
      "t_struct(RoleData)19_storage": {
        "encoding": "inplace",
        "label": "struct AccessControl.RoleData",
        "members": [
          {
            "astId": 16,
            "contract": "contracts/ERC721Lemonade.sol:ERC721Lemonade",
            "label": "members",
            "offset": 0,
            "slot": "0",
            "type": "t_mapping(t_address,t_bool)"
          },
          {
            "astId": 18,
            "contract": "contracts/ERC721Lemonade.sol:ERC721Lemonade",
            "label": "adminRole",
            "offset": 0,
            "slot": "1",
            "type": "t_bytes32"
          }
        ],
        "numberOfBytes": "64"
      },
      "t_struct(Royalty)4744_storage": {
        "encoding": "inplace",
        "label": "struct ERC721Royalty.Royalty",
        "members": [
          {
            "astId": 4741,
            "contract": "contracts/ERC721Lemonade.sol:ERC721Lemonade",
            "label": "maker",
            "offset": 0,
            "slot": "0",
            "type": "t_address"
          },
          {
            "astId": 4743,
            "contract": "contracts/ERC721Lemonade.sol:ERC721Lemonade",
            "label": "fraction",
            "offset": 0,
            "slot": "1",
            "type": "t_uint256"
          }
        ],
        "numberOfBytes": "64"
      },
      "t_struct(Set)3380_storage": {
        "encoding": "inplace",
        "label": "struct EnumerableSet.Set",
        "members": [
          {
            "astId": 3375,
            "contract": "contracts/ERC721Lemonade.sol:ERC721Lemonade",
            "label": "_values",
            "offset": 0,
            "slot": "0",
            "type": "t_array(t_bytes32)dyn_storage"
          },
          {
            "astId": 3379,
            "contract": "contracts/ERC721Lemonade.sol:ERC721Lemonade",
            "label": "_indexes",
            "offset": 0,
            "slot": "1",
            "type": "t_mapping(t_bytes32,t_uint256)"
          }
        ],
        "numberOfBytes": "64"
      },
      "t_uint256": {
        "encoding": "inplace",
        "label": "uint256",
        "numberOfBytes": "32"
      }
    }
  }
}