{
  "address": "0x94f73287BC1667F5472485A7bf2Bfadc639436c8",
  "abi": [
    {
      "inputs": [
        {
          "internalType": "string",
          "name": "name",
          "type": "string"
        },
        {
          "internalType": "string",
          "name": "symbol",
          "type": "string"
        },
        {
          "internalType": "address",
          "name": "trustedForwarder_",
          "type": "address"
        },
        {
          "internalType": "address",
          "name": "childChainManager",
          "type": "address"
        }
      ],
      "stateMutability": "nonpayable",
      "type": "constructor"
    },
    {
      "anonymous": false,
      "inputs": [
        {
          "indexed": true,
          "internalType": "address",
          "name": "owner",
          "type": "address"
        },
        {
          "indexed": true,
          "internalType": "address",
          "name": "approved",
          "type": "address"
        },
        {
          "indexed": true,
          "internalType": "uint256",
          "name": "tokenId",
          "type": "uint256"
        }
      ],
      "name": "Approval",
      "type": "event"
    },
    {
      "anonymous": false,
      "inputs": [
        {
          "indexed": true,
          "internalType": "address",
          "name": "owner",
          "type": "address"
        },
        {
          "indexed": true,
          "internalType": "address",
          "name": "operator",
          "type": "address"
        },
        {
          "indexed": false,
          "internalType": "bool",
          "name": "approved",
          "type": "bool"
        }
      ],
      "name": "ApprovalForAll",
      "type": "event"
    },
    {
      "anonymous": false,
      "inputs": [
        {
          "indexed": false,
          "internalType": "address",
          "name": "account",
          "type": "address"
        }
      ],
      "name": "Paused",
      "type": "event"
    },
    {
      "anonymous": false,
      "inputs": [
        {
          "indexed": true,
          "internalType": "bytes32",
          "name": "role",
          "type": "bytes32"
        },
        {
          "indexed": true,
          "internalType": "bytes32",
          "name": "previousAdminRole",
          "type": "bytes32"
        },
        {
          "indexed": true,
          "internalType": "bytes32",
          "name": "newAdminRole",
          "type": "bytes32"
        }
      ],
      "name": "RoleAdminChanged",
      "type": "event"
    },
    {
      "anonymous": false,
      "inputs": [
        {
          "indexed": true,
          "internalType": "bytes32",
          "name": "role",
          "type": "bytes32"
        },
        {
          "indexed": true,
          "internalType": "address",
          "name": "account",
          "type": "address"
        },
        {
          "indexed": true,
          "internalType": "address",
          "name": "sender",
          "type": "address"
        }
      ],
      "name": "RoleGranted",
      "type": "event"
    },
    {
      "anonymous": false,
      "inputs": [
        {
          "indexed": true,
          "internalType": "bytes32",
          "name": "role",
          "type": "bytes32"
        },
        {
          "indexed": true,
          "internalType": "address",
          "name": "account",
          "type": "address"
        },
        {
          "indexed": true,
          "internalType": "address",
          "name": "sender",
          "type": "address"
        }
      ],
      "name": "RoleRevoked",
      "type": "event"
    },
    {
      "anonymous": false,
      "inputs": [
        {
          "indexed": false,
          "internalType": "uint256",
          "name": "tokenId",
          "type": "uint256"
        },
        {
          "components": [
            {
              "internalType": "address payable",
              "name": "account",
              "type": "address"
            },
            {
              "internalType": "uint96",
              "name": "value",
              "type": "uint96"
            }
          ],
          "indexed": false,
          "internalType": "struct LibPart.Part[]",
          "name": "royalties",
          "type": "tuple[]"
        }
      ],
      "name": "RoyaltiesSet",
      "type": "event"
    },
    {
      "anonymous": false,
      "inputs": [
        {
          "indexed": true,
          "internalType": "address",
          "name": "from",
          "type": "address"
        },
        {
          "indexed": true,
          "internalType": "address",
          "name": "to",
          "type": "address"
        },
        {
          "indexed": true,
          "internalType": "uint256",
          "name": "tokenId",
          "type": "uint256"
        }
      ],
      "name": "Transfer",
      "type": "event"
    },
    {
      "anonymous": false,
      "inputs": [
        {
          "indexed": true,
          "internalType": "address",
          "name": "from",
          "type": "address"
        },
        {
          "indexed": true,
          "internalType": "address",
          "name": "to",
          "type": "address"
        },
        {
          "indexed": true,
          "internalType": "uint256",
          "name": "tokenId",
          "type": "uint256"
        },
        {
          "indexed": false,
          "internalType": "bytes",
          "name": "metaData",
          "type": "bytes"
        }
      ],
      "name": "TransferWithMetadata",
      "type": "event"
    },
    {
      "anonymous": false,
      "inputs": [
        {
          "indexed": false,
          "internalType": "address",
          "name": "account",
          "type": "address"
        }
      ],
      "name": "Unpaused",
      "type": "event"
    },
    {
      "anonymous": false,
      "inputs": [
        {
          "indexed": true,
          "internalType": "address",
          "name": "user",
          "type": "address"
        },
        {
          "indexed": false,
          "internalType": "uint256[]",
          "name": "tokenIds",
          "type": "uint256[]"
        }
      ],
      "name": "WithdrawnBatch",
      "type": "event"
    },
    {
      "inputs": [],
      "name": "DEFAULT_ADMIN_ROLE",
      "outputs": [
        {
          "internalType": "bytes32",
          "name": "",
          "type": "bytes32"
        }
      ],
      "stateMutability": "view",
      "type": "function"
    },
    {
      "inputs": [],
      "name": "DEPOSITOR_ROLE",
      "outputs": [
        {
          "internalType": "bytes32",
          "name": "",
          "type": "bytes32"
        }
      ],
      "stateMutability": "view",
      "type": "function"
    },
    {
      "inputs": [],
      "name": "PAUSER_ROLE",
      "outputs": [
        {
          "internalType": "bytes32",
          "name": "",
          "type": "bytes32"
        }
      ],
      "stateMutability": "view",
      "type": "function"
    },
    {
      "inputs": [
        {
          "internalType": "uint256",
          "name": "",
          "type": "uint256"
        }
      ],
      "name": "_tokenWithdrawn",
      "outputs": [
        {
          "internalType": "bool",
          "name": "",
          "type": "bool"
        }
      ],
      "stateMutability": "view",
      "type": "function"
    },
    {
      "inputs": [
        {
          "internalType": "address",
          "name": "to",
          "type": "address"
        },
        {
          "internalType": "uint256",
          "name": "tokenId",
          "type": "uint256"
        }
      ],
      "name": "approve",
      "outputs": [],
      "stateMutability": "nonpayable",
      "type": "function"
    },
    {
      "inputs": [
        {
          "internalType": "address",
          "name": "owner",
          "type": "address"
        }
      ],
      "name": "balanceOf",
      "outputs": [
        {
          "internalType": "uint256",
          "name": "",
          "type": "uint256"
        }
      ],
      "stateMutability": "view",
      "type": "function"
    },
    {
      "inputs": [
        {
          "internalType": "uint256",
          "name": "tokenId",
          "type": "uint256"
        }
      ],
      "name": "burn",
      "outputs": [],
      "stateMutability": "nonpayable",
      "type": "function"
    },
    {
      "inputs": [
        {
          "internalType": "address",
          "name": "user",
          "type": "address"
        },
        {
          "internalType": "bytes",
          "name": "depositData",
          "type": "bytes"
        }
      ],
      "name": "deposit",
      "outputs": [],
      "stateMutability": "nonpayable",
      "type": "function"
    },
    {
      "inputs": [
        {
          "internalType": "uint256",
          "name": "tokenId",
          "type": "uint256"
        }
      ],
      "name": "encodeState",
      "outputs": [
        {
          "internalType": "bytes",
          "name": "",
          "type": "bytes"
        }
      ],
      "stateMutability": "view",
      "type": "function"
    },
    {
      "inputs": [
        {
          "internalType": "uint256",
          "name": "tokenId",
          "type": "uint256"
        }
      ],
      "name": "getApproved",
      "outputs": [
        {
          "internalType": "address",
          "name": "",
          "type": "address"
        }
      ],
      "stateMutability": "view",
      "type": "function"
    },
    {
      "inputs": [
        {
          "internalType": "uint256",
          "name": "id",
          "type": "uint256"
        }
      ],
      "name": "getRaribleV2Royalties",
      "outputs": [
        {
          "components": [
            {
              "internalType": "address payable",
              "name": "account",
              "type": "address"
            },
            {
              "internalType": "uint96",
              "name": "value",
              "type": "uint96"
            }
          ],
          "internalType": "struct LibPart.Part[]",
          "name": "",
          "type": "tuple[]"
        }
      ],
      "stateMutability": "view",
      "type": "function"
    },
    {
      "inputs": [
        {
          "internalType": "bytes32",
          "name": "role",
          "type": "bytes32"
        }
      ],
      "name": "getRoleAdmin",
      "outputs": [
        {
          "internalType": "bytes32",
          "name": "",
          "type": "bytes32"
        }
      ],
      "stateMutability": "view",
      "type": "function"
    },
    {
      "inputs": [
        {
          "internalType": "bytes32",
          "name": "role",
          "type": "bytes32"
        },
        {
          "internalType": "uint256",
          "name": "index",
          "type": "uint256"
        }
      ],
      "name": "getRoleMember",
      "outputs": [
        {
          "internalType": "address",
          "name": "",
          "type": "address"
        }
      ],
      "stateMutability": "view",
      "type": "function"
    },
    {
      "inputs": [
        {
          "internalType": "bytes32",
          "name": "role",
          "type": "bytes32"
        }
      ],
      "name": "getRoleMemberCount",
      "outputs": [
        {
          "internalType": "uint256",
          "name": "",
          "type": "uint256"
        }
      ],
      "stateMutability": "view",
      "type": "function"
    },
    {
      "inputs": [
        {
          "internalType": "bytes32",
          "name": "role",
          "type": "bytes32"
        },
        {
          "internalType": "address",
          "name": "account",
          "type": "address"
        }
      ],
      "name": "grantRole",
      "outputs": [],
      "stateMutability": "nonpayable",
      "type": "function"
    },
    {
      "inputs": [
        {
          "internalType": "bytes32",
          "name": "role",
          "type": "bytes32"
        },
        {
          "internalType": "address",
          "name": "account",
          "type": "address"
        }
      ],
      "name": "hasRole",
      "outputs": [
        {
          "internalType": "bool",
          "name": "",
          "type": "bool"
        }
      ],
      "stateMutability": "view",
      "type": "function"
    },
    {
      "inputs": [
        {
          "internalType": "address",
          "name": "owner",
          "type": "address"
        },
        {
          "internalType": "address",
          "name": "operator",
          "type": "address"
        }
      ],
      "name": "isApprovedForAll",
      "outputs": [
        {
          "internalType": "bool",
          "name": "",
          "type": "bool"
        }
      ],
      "stateMutability": "view",
      "type": "function"
    },
    {
      "inputs": [
        {
          "internalType": "address",
          "name": "forwarder",
          "type": "address"
        }
      ],
      "name": "isTrustedForwarder",
      "outputs": [
        {
          "internalType": "bool",
          "name": "",
          "type": "bool"
        }
      ],
      "stateMutability": "view",
      "type": "function"
    },
    {
      "inputs": [
        {
          "internalType": "string",
          "name": "tokenURI_",
          "type": "string"
        }
      ],
      "name": "mintToCaller",
      "outputs": [
        {
          "internalType": "uint256",
          "name": "",
          "type": "uint256"
        }
      ],
      "stateMutability": "nonpayable",
      "type": "function"
    },
    {
      "inputs": [
        {
          "internalType": "string",
          "name": "tokenURI_",
          "type": "string"
        },
        {
          "components": [
            {
              "internalType": "address payable",
              "name": "account",
              "type": "address"
            },
            {
              "internalType": "uint96",
              "name": "value",
              "type": "uint96"
            }
          ],
          "internalType": "struct LibPart.Part[]",
          "name": "royalties_",
          "type": "tuple[]"
        }
      ],
      "name": "mintToCallerWithRoyalty",
      "outputs": [
        {
          "internalType": "uint256",
          "name": "",
          "type": "uint256"
        }
      ],
      "stateMutability": "nonpayable",
      "type": "function"
    },
    {
      "inputs": [],
      "name": "name",
      "outputs": [
        {
          "internalType": "string",
          "name": "",
          "type": "string"
        }
      ],
      "stateMutability": "view",
      "type": "function"
    },
    {
      "inputs": [
        {
          "internalType": "uint256",
          "name": "tokenId",
          "type": "uint256"
        }
      ],
      "name": "ownerOf",
      "outputs": [
        {
          "internalType": "address",
          "name": "",
          "type": "address"
        }
      ],
      "stateMutability": "view",
      "type": "function"
    },
    {
      "inputs": [],
      "name": "pause",
      "outputs": [],
      "stateMutability": "nonpayable",
      "type": "function"
    },
    {
      "inputs": [],
      "name": "paused",
      "outputs": [
        {
          "internalType": "bool",
          "name": "",
          "type": "bool"
        }
      ],
      "stateMutability": "view",
      "type": "function"
    },
    {
      "inputs": [
        {
          "internalType": "bytes32",
          "name": "role",
          "type": "bytes32"
        },
        {
          "internalType": "address",
          "name": "account",
          "type": "address"
        }
      ],
      "name": "renounceRole",
      "outputs": [],
      "stateMutability": "nonpayable",
      "type": "function"
    },
    {
      "inputs": [
        {
          "internalType": "bytes32",
          "name": "role",
          "type": "bytes32"
        },
        {
          "internalType": "address",
          "name": "account",
          "type": "address"
        }
      ],
      "name": "revokeRole",
      "outputs": [],
      "stateMutability": "nonpayable",
      "type": "function"
    },
    {
      "inputs": [
        {
          "internalType": "uint256",
          "name": "tokenId",
          "type": "uint256"
        },
        {
          "internalType": "uint256",
          "name": "price",
          "type": "uint256"
        }
      ],
      "name": "royaltyInfo",
      "outputs": [
        {
          "internalType": "address",
          "name": "receiver",
          "type": "address"
        },
        {
          "internalType": "uint256",
          "name": "royaltyAmount",
          "type": "uint256"
        }
      ],
      "stateMutability": "view",
      "type": "function"
    },
    {
      "inputs": [
        {
          "internalType": "address",
          "name": "from",
          "type": "address"
        },
        {
          "internalType": "address",
          "name": "to",
          "type": "address"
        },
        {
          "internalType": "uint256",
          "name": "tokenId",
          "type": "uint256"
        }
      ],
      "name": "safeTransferFrom",
      "outputs": [],
      "stateMutability": "nonpayable",
      "type": "function"
    },
    {
      "inputs": [
        {
          "internalType": "address",
          "name": "from",
          "type": "address"
        },
        {
          "internalType": "address",
          "name": "to",
          "type": "address"
        },
        {
          "internalType": "uint256",
          "name": "tokenId",
          "type": "uint256"
        },
        {
          "internalType": "bytes",
          "name": "_data",
          "type": "bytes"
        }
      ],
      "name": "safeTransferFrom",
      "outputs": [],
      "stateMutability": "nonpayable",
      "type": "function"
    },
    {
      "inputs": [
        {
          "internalType": "address",
          "name": "operator",
          "type": "address"
        },
        {
          "internalType": "bool",
          "name": "approved",
          "type": "bool"
        }
      ],
      "name": "setApprovalForAll",
      "outputs": [],
      "stateMutability": "nonpayable",
      "type": "function"
    },
    {
      "inputs": [
        {
          "internalType": "address",
          "name": "trustedForwarder_",
          "type": "address"
        }
      ],
      "name": "setTrustedForwarder",
      "outputs": [],
      "stateMutability": "nonpayable",
      "type": "function"
    },
    {
      "inputs": [
        {
          "internalType": "bytes4",
          "name": "interfaceId",
          "type": "bytes4"
        }
      ],
      "name": "supportsInterface",
      "outputs": [
        {
          "internalType": "bool",
          "name": "",
          "type": "bool"
        }
      ],
      "stateMutability": "view",
      "type": "function"
    },
    {
      "inputs": [],
      "name": "symbol",
      "outputs": [
        {
          "internalType": "string",
          "name": "",
          "type": "string"
        }
      ],
      "stateMutability": "view",
      "type": "function"
    },
    {
      "inputs": [
        {
          "internalType": "uint256",
          "name": "tokenId",
          "type": "uint256"
        }
      ],
      "name": "tokenURI",
      "outputs": [
        {
          "internalType": "string",
          "name": "",
          "type": "string"
        }
      ],
      "stateMutability": "view",
      "type": "function"
    },
    {
      "inputs": [
        {
          "internalType": "address",
          "name": "from",
          "type": "address"
        },
        {
          "internalType": "address",
          "name": "to",
          "type": "address"
        },
        {
          "internalType": "uint256",
          "name": "tokenId",
          "type": "uint256"
        }
      ],
      "name": "transferFrom",
      "outputs": [],
      "stateMutability": "nonpayable",
      "type": "function"
    },
    {
      "inputs": [],
      "name": "trustedForwarder",
      "outputs": [
        {
          "internalType": "address",
          "name": "",
          "type": "address"
        }
      ],
      "stateMutability": "view",
      "type": "function"
    },
    {
      "inputs": [],
      "name": "unpause",
      "outputs": [],
      "stateMutability": "nonpayable",
      "type": "function"
    },
    {
      "inputs": [],
      "name": "versionRecipient",
      "outputs": [
        {
          "internalType": "string",
          "name": "",
          "type": "string"
        }
      ],
      "stateMutability": "pure",
      "type": "function"
    },
    {
      "inputs": [
        {
          "internalType": "uint256",
          "name": "tokenId",
          "type": "uint256"
        }
      ],
      "name": "withdraw",
      "outputs": [],
      "stateMutability": "nonpayable",
      "type": "function"
    },
    {
      "inputs": [
        {
          "internalType": "uint256[]",
          "name": "tokenIds",
          "type": "uint256[]"
        }
      ],
      "name": "withdrawBatch",
      "outputs": [],
      "stateMutability": "nonpayable",
      "type": "function"
    },
    {
      "inputs": [
        {
          "internalType": "uint256",
          "name": "tokenId",
          "type": "uint256"
        }
      ],
      "name": "withdrawWithMetadata",
      "outputs": [],
      "stateMutability": "nonpayable",
      "type": "function"
    }
  ],
  "transactionHash": "0x6c3170d86aa2d6f904b8a337a3db3455530c08240a8c0b645f46cdab7d3c3eff",
  "args": [
    "Non-Fungible Lemon",
    "NFL",
    "0x9399BB24DBB5C4b782C70c2969F58716Ebbd6a3b",
    "0xb5505a6d998549090530911180f38aC5130101c6"
  ],
  "solcInputHash": "c8da00fc08d9aa32ebd089f66d1099e1",
  "bytecode": "0x60806040523480156200001157600080fd5b506040516200624d3803806200624d83398181016040528101906200003791906200060b565b8383816002908051906020019062000051929190620004d2565b5080600390805190602001906200006a929190620004d2565b5050506000600860006101000a81548160ff02191690831515021790555081600860016101000a81548173ffffffffffffffffffffffffffffffffffffffff021916908373ffffffffffffffffffffffffffffffffffffffff160217905550620000ed6000801b620000e16200016a60201b60201c565b6200018660201b60201c565b6200011f7f8f4f2da22e8ac8f11e15f9fc141cddbb5deea8800186560abb6e68c5496619a9826200018660201b60201c565b620001607f65d7a28e3265b37a6474929f336521b332c1681b933f6cb9f3376673440d862a620001546200016a60201b60201c565b6200018660201b60201c565b5050505062000867565b600062000181620001ce60201b62001cb71760201c565b905090565b6200019d8282620001ea60201b62001cc61760201c565b620001c981600160008581526020019081526020016000206200020060201b62001cd41790919060201c565b505050565b6000620001e56200023860201b62001d041760201c565b905090565b620001fc82826200028060201b60201c565b5050565b600062000230836000018373ffffffffffffffffffffffffffffffffffffffff1660001b6200037160201b60201c565b905092915050565b600060186000369050101580156200025d57506200025c33620003eb60201b60201c565b5b156200027357601436033560601c90506200027c565b3390506200027d565b5b90565b6200029282826200044560201b60201c565b6200036d57600160008084815260200190815260200160002060000160008373ffffffffffffffffffffffffffffffffffffffff1673ffffffffffffffffffffffffffffffffffffffff16815260200190815260200160002060006101000a81548160ff021916908315150217905550620003126200016a60201b60201c565b73ffffffffffffffffffffffffffffffffffffffff168173ffffffffffffffffffffffffffffffffffffffff16837f2f8788117e7eff1d82e926ec794901d17c78024a50270940304540a733656f0d60405160405180910390a45b5050565b6000620003858383620004af60201b60201c565b620003e0578260000182908060018154018082558091505060019003906000526020600020016000909190919091505582600001805490508360010160008481526020019081526020016000208190555060019050620003e5565b600090505b92915050565b6000600860019054906101000a900473ffffffffffffffffffffffffffffffffffffffff1673ffffffffffffffffffffffffffffffffffffffff168273ffffffffffffffffffffffffffffffffffffffff16149050919050565b600080600084815260200190815260200160002060000160008373ffffffffffffffffffffffffffffffffffffffff1673ffffffffffffffffffffffffffffffffffffffff16815260200190815260200160002060009054906101000a900460ff16905092915050565b600080836001016000848152602001908152602001600020541415905092915050565b828054620004e09062000772565b90600052602060002090601f01602090048101928262000504576000855562000550565b82601f106200051f57805160ff191683800117855562000550565b8280016001018555821562000550579182015b828111156200054f57825182559160200191906001019062000532565b5b5090506200055f919062000563565b5090565b5b808211156200057e57600081600090555060010162000564565b5090565b6000620005996200059384620006d2565b620006a9565b905082815260208101848484011115620005b257600080fd5b620005bf8482856200073c565b509392505050565b600081519050620005d8816200084d565b92915050565b600082601f830112620005f057600080fd5b81516200060284826020860162000582565b91505092915050565b600080600080608085870312156200062257600080fd5b600085015167ffffffffffffffff8111156200063d57600080fd5b6200064b87828801620005de565b945050602085015167ffffffffffffffff8111156200066957600080fd5b6200067787828801620005de565b93505060406200068a87828801620005c7565b92505060606200069d87828801620005c7565b91505092959194509250565b6000620006b5620006c8565b9050620006c38282620007a8565b919050565b6000604051905090565b600067ffffffffffffffff821115620006f057620006ef6200080d565b5b620006fb826200083c565b9050602081019050919050565b600062000715826200071c565b9050919050565b600073ffffffffffffffffffffffffffffffffffffffff82169050919050565b60005b838110156200075c5780820151818401526020810190506200073f565b838111156200076c576000848401525b50505050565b600060028204905060018216806200078b57607f821691505b60208210811415620007a257620007a1620007de565b5b50919050565b620007b3826200083c565b810181811067ffffffffffffffff82111715620007d557620007d46200080d565b5b80604052505050565b7f4e487b7100000000000000000000000000000000000000000000000000000000600052602260045260246000fd5b7f4e487b7100000000000000000000000000000000000000000000000000000000600052604160045260246000fd5b6000601f19601f8301169050919050565b620008588162000708565b81146200086457600080fd5b50565b6159d680620008776000396000f3fe608060405234801561001057600080fd5b50600436106102535760003560e01c80637624f30d11610146578063a5e584dc116100c3578063cf2c52cb11610087578063cf2c52cb14610743578063d547741f1461075f578063da7422281461077b578063db65b45f14610797578063e63ab1e9146107c7578063e985e9c5146107e557610253565b8063a5e584dc1461067b578063b88d4fde14610697578063c87b56dd146106b3578063ca15c873146106e3578063cad96cca1461071357610253565b806395d89b411161010a57806395d89b41146105e95780639c8d415614610607578063a217fddf14610623578063a22cb46514610641578063a3b0b5a31461065d57610253565b80637624f30d146105315780637da0a877146105615780638456cb591461057f5780639010d07c1461058957806391d14854146105b957610253565b806336568abe116101d4578063572b6c0511610198578063572b6c051461045357806358b4c6bb146104835780635c975abb146104b35780636352211e146104d157806370a082311461050157610253565b806336568abe146103d75780633f4ba83a146103f357806342842e0e146103fd57806342966c6814610419578063486ff0cd1461043557610253565b806323b872dd1161021b57806323b872dd14610322578063248a9ca31461033e5780632a55205a1461036e5780632e1a7d4d1461039f5780632f2ff15d146103bb57610253565b806301ffc9a71461025857806306fdde0314610288578063081812fc146102a6578063095ea7b3146102d6578063111fb47b146102f2575b600080fd5b610272600480360381019061026d9190613f9f565b610815565b60405161027f91906148ce565b60405180910390f35b610290610827565b60405161029d9190614926565b60405180910390f35b6102c060048036038101906102bb91906140df565b6108b9565b6040516102cd91906147f8565b60405180910390f35b6102f060048036038101906102eb9190613e3c565b61093e565b005b61030c60048036038101906103079190614032565b610a56565b6040516103199190614c5f565b60405180910390f35b61033c60048036038101906103379190613cde565b610afa565b005b61035860048036038101906103539190613efe565b610b5a565b60405161036591906148e9565b60405180910390f35b61038860048036038101906103839190614108565b610b79565b60405161039692919061485f565b60405180910390f35b6103b960048036038101906103b491906140df565b610d84565b005b6103d560048036038101906103d09190613f27565b610d90565b005b6103f160048036038101906103ec9190613f27565b610dc4565b005b6103fb610df8565b005b61041760048036038101906104129190613cde565b610e35565b005b610433600480360381019061042e91906140df565b610e55565b005b61043d610eb1565b60405161044a9190614926565b60405180910390f35b61046d60048036038101906104689190613c79565b610eee565b60405161047a91906148ce565b60405180910390f35b61049d60048036038101906104989190614073565b610f48565b6040516104aa9190614c5f565b60405180910390f35b6104bb610fb3565b6040516104c891906148ce565b60405180910390f35b6104eb60048036038101906104e691906140df565b610fca565b6040516104f891906147f8565b60405180910390f35b61051b60048036038101906105169190613c79565b61107c565b6040516105289190614c5f565b60405180910390f35b61054b600480360381019061054691906140df565b611134565b60405161055891906148ce565b60405180910390f35b610569611154565b60405161057691906147f8565b60405180910390f35b61058761117a565b005b6105a3600480360381019061059e9190613f63565b6111b7565b6040516105b091906147f8565b60405180910390f35b6105d360048036038101906105ce9190613f27565b6111e6565b6040516105e091906148ce565b60405180910390f35b6105f1611250565b6040516105fe9190614926565b60405180910390f35b610621600480360381019061061c9190613e78565b6112e2565b005b61062b6113b3565b60405161063891906148e9565b60405180910390f35b61065b60048036038101906106569190613da8565b6113ba565b005b61066561153b565b60405161067291906148e9565b60405180910390f35b610695600480360381019061069091906140df565b61155f565b005b6106b160048036038101906106ac9190613d2d565b611733565b005b6106cd60048036038101906106c891906140df565b611795565b6040516106da9190614926565b60405180910390f35b6106fd60048036038101906106f89190613efe565b611882565b60405161070a9190614c5f565b60405180910390f35b61072d600480360381019061072891906140df565b6118a6565b60405161073a9190614888565b60405180910390f35b61075d60048036038101906107589190613de4565b6119a8565b005b61077960048036038101906107749190613f27565b611b2c565b005b61079560048036038101906107909190613c79565b611b60565b005b6107b160048036038101906107ac91906140df565b611bba565b6040516107be9190614904565b60405180910390f35b6107cf611bff565b6040516107dc91906148e9565b60405180910390f35b6107ff60048036038101906107fa9190613ca2565b611c23565b60405161080c91906148ce565b60405180910390f35b600061082082611d40565b9050919050565b606060028054610836906150a4565b80601f0160208091040260200160405190810160405280929190818152602001828054610862906150a4565b80156108af5780601f10610884576101008083540402835291602001916108af565b820191906000526020600020905b81548152906001019060200180831161089257829003601f168201915b5050505050905090565b60006108c482611e22565b610903576040517f08c379a00000000000000000000000000000000000000000000000000000000081526004016108fa90614b5f565b60405180910390fd5b6006600083815260200190815260200160002060009054906101000a900473ffffffffffffffffffffffffffffffffffffffff169050919050565b600061094982610fca565b90508073ffffffffffffffffffffffffffffffffffffffff168373ffffffffffffffffffffffffffffffffffffffff1614156109ba576040517f08c379a00000000000000000000000000000000000000000000000000000000081526004016109b190614b9f565b60405180910390fd5b8073ffffffffffffffffffffffffffffffffffffffff166109d9611e8e565b73ffffffffffffffffffffffffffffffffffffffff161480610a085750610a0781610a02611e8e565b611c23565b5b610a47576040517f08c379a0000000000000000000000000000000000000000000000000000000008152600401610a3e90614adf565b60405180910390fd5b610a518383611e9d565b505050565b6000610a60610fb3565b15610aa0576040517f08c379a0000000000000000000000000000000000000000000000000000000008152600401610a9790614abf565b60405180910390fd5b6000610aac600a611f56565b9050610abf610ab9611e8e565b82611f64565b82600c60008381526020019081526020016000209080519060200190610ae69291906137ea565b50610af1600a612132565b80915050919050565b610b0b610b05611e8e565b82612148565b610b4a576040517f08c379a0000000000000000000000000000000000000000000000000000000008152600401610b4190614bbf565b60405180910390fd5b610b55838383612226565b505050565b6000806000838152602001908152602001600020600101549050919050565b600080600060096000868152602001908152602001600020805480602002602001604051908101604052809291908181526020016000905b82821015610c73578382906000526020600020016040518060400160405290816000820160009054906101000a900473ffffffffffffffffffffffffffffffffffffffff1673ffffffffffffffffffffffffffffffffffffffff1673ffffffffffffffffffffffffffffffffffffffff1681526020016000820160149054906101000a90046bffffffffffffffffffffffff166bffffffffffffffffffffffff166bffffffffffffffffffffffff168152505081526020019060010190610bb1565b5050505090506000815190506000811415610c9657600080935093505050610d7d565b6000805b82811015610d1557838181518110610cdb577f4e487b7100000000000000000000000000000000000000000000000000000000600052603260045260246000fd5b6020026020010151602001516bffffffffffffffffffffffff1682610d009190614e43565b91508080610d0d9061513b565b915050610c9a565b5082600081518110610d50577f4e487b7100000000000000000000000000000000000000000000000000000000600052603260045260246000fd5b6020026020010151600001516127108288610d6b9190614eca565b610d759190614e99565b945094505050505b9250929050565b610d8d8161155f565b50565b610d9a8282612482565b610dbf8160016000858152602001908152602001600020611cd490919063ffffffff16565b505050565b610dce82826124ab565b610df3816001600085815260200190815260200160002061252e90919063ffffffff16565b505050565b7f65d7a28e3265b37a6474929f336521b332c1681b933f6cb9f3376673440d862a610e2a81610e25611e8e565b61255e565b610e326125fb565b50565b610e5083838360405180602001604052806000815250611733565b505050565b610e66610e60611e8e565b82612148565b610ea5576040517f08c379a0000000000000000000000000000000000000000000000000000000008152600401610e9c90614c1f565b60405180910390fd5b610eae8161269d565b50565b60606040518060400160405280600181526020017f3100000000000000000000000000000000000000000000000000000000000000815250905090565b6000600860019054906101000a900473ffffffffffffffffffffffffffffffffffffffff1673ffffffffffffffffffffffffffffffffffffffff168273ffffffffffffffffffffffffffffffffffffffff16149050919050565b6000610f52610fb3565b15610f92576040517f08c379a0000000000000000000000000000000000000000000000000000000008152600401610f8990614abf565b60405180910390fd5b6000610f9d84610a56565b9050610fa981846127ae565b8091505092915050565b6000600860009054906101000a900460ff16905090565b6000806004600084815260200190815260200160002060009054906101000a900473ffffffffffffffffffffffffffffffffffffffff169050600073ffffffffffffffffffffffffffffffffffffffff168173ffffffffffffffffffffffffffffffffffffffff161415611073576040517f08c379a000000000000000000000000000000000000000000000000000000000815260040161106a90614b1f565b60405180910390fd5b80915050919050565b60008073ffffffffffffffffffffffffffffffffffffffff168273ffffffffffffffffffffffffffffffffffffffff1614156110ed576040517f08c379a00000000000000000000000000000000000000000000000000000000081526004016110e490614aff565b60405180910390fd5b600560008373ffffffffffffffffffffffffffffffffffffffff1673ffffffffffffffffffffffffffffffffffffffff168152602001908152602001600020549050919050565b600b6020528060005260406000206000915054906101000a900460ff1681565b600860019054906101000a900473ffffffffffffffffffffffffffffffffffffffff1681565b7f65d7a28e3265b37a6474929f336521b332c1681b933f6cb9f3376673440d862a6111ac816111a7611e8e565b61255e565b6111b4612ac9565b50565b60006111de8260016000868152602001908152602001600020612b6c90919063ffffffff16565b905092915050565b600080600084815260200190815260200160002060000160008373ffffffffffffffffffffffffffffffffffffffff1673ffffffffffffffffffffffffffffffffffffffff16815260200190815260200160002060009054906101000a900460ff16905092915050565b60606003805461125f906150a4565b80601f016020809104026020016040519081016040528092919081815260200182805461128b906150a4565b80156112d85780601f106112ad576101008083540402835291602001916112d8565b820191906000526020600020905b8154815290600101906020018083116112bb57829003601f168201915b5050505050905090565b600082829050905060005b81811015611356576000848483818110611330577f4e487b7100000000000000000000000000000000000000000000000000000000600052603260045260246000fd5b9050602002013590506113428161155f565b50808061134e9061513b565b9150506112ed565b5061135f611e8e565b73ffffffffffffffffffffffffffffffffffffffff167ff871896b17e9cb7a64941c62c188a4f5c621b86800e3d15452ece01ce56073df84846040516113a69291906148aa565b60405180910390a2505050565b6000801b81565b6113c2611e8e565b73ffffffffffffffffffffffffffffffffffffffff168273ffffffffffffffffffffffffffffffffffffffff161415611430576040517f08c379a000000000000000000000000000000000000000000000000000000000815260040161142790614a3f565b60405180910390fd5b806007600061143d611e8e565b73ffffffffffffffffffffffffffffffffffffffff1673ffffffffffffffffffffffffffffffffffffffff16815260200190815260200160002060008473ffffffffffffffffffffffffffffffffffffffff1673ffffffffffffffffffffffffffffffffffffffff16815260200190815260200160002060006101000a81548160ff0219169083151502179055508173ffffffffffffffffffffffffffffffffffffffff166114ea611e8e565b73ffffffffffffffffffffffffffffffffffffffff167f17307eab39ab6107e8899845ad3d59bd9653f200f220920489ca2b5937696c318360405161152f91906148ce565b60405180910390a35050565b7f8f4f2da22e8ac8f11e15f9fc141cddbb5deea8800186560abb6e68c5496619a981565b61156881610fca565b73ffffffffffffffffffffffffffffffffffffffff16611586611e8e565b73ffffffffffffffffffffffffffffffffffffffff1614816040516020016115ae9190614798565b604051602081830303815290604052906115fe576040517f08c379a00000000000000000000000000000000000000000000000000000000081526004016115f59190614926565b60405180910390fd5b506001600b600083815260200190815260200160002060006101000a81548160ff02191690831515021790555080600073ffffffffffffffffffffffffffffffffffffffff1661164d83610fca565b73ffffffffffffffffffffffffffffffffffffffff167ff94915c6d1fd521cee85359239227480c7e8776d7caf1fc3bacad5c269b66a143073ffffffffffffffffffffffffffffffffffffffff1663db65b45f866040518263ffffffff1660e01b81526004016116bd9190614c5f565b60006040518083038186803b1580156116d557600080fd5b505afa1580156116e9573d6000803e3d6000fd5b505050506040513d6000823e3d601f19601f820116820180604052508101906117129190613ff1565b60405161171f9190614904565b60405180910390a46117308161269d565b50565b61174461173e611e8e565b83612148565b611783576040517f08c379a000000000000000000000000000000000000000000000000000000000815260040161177a90614bbf565b60405180910390fd5b61178f84848484612b86565b50505050565b60606117a082611e22565b6117df576040517f08c379a00000000000000000000000000000000000000000000000000000000081526004016117d690614a5f565b60405180910390fd5b600c600083815260200190815260200160002080546117fd906150a4565b80601f0160208091040260200160405190810160405280929190818152602001828054611829906150a4565b80156118765780601f1061184b57610100808354040283529160200191611876565b820191906000526020600020905b81548152906001019060200180831161185957829003601f168201915b50505050509050919050565b600061189f60016000848152602001908152602001600020612be2565b9050919050565b606060096000838152602001908152602001600020805480602002602001604051908101604052809291908181526020016000905b8282101561199d578382906000526020600020016040518060400160405290816000820160009054906101000a900473ffffffffffffffffffffffffffffffffffffffff1673ffffffffffffffffffffffffffffffffffffffff1673ffffffffffffffffffffffffffffffffffffffff1681526020016000820160149054906101000a90046bffffffffffffffffffffffff166bffffffffffffffffffffffff166bffffffffffffffffffffffff1681525050815260200190600101906118db565b505050509050919050565b7f8f4f2da22e8ac8f11e15f9fc141cddbb5deea8800186560abb6e68c5496619a96119da816119d5611e8e565b61255e565b6020838390501415611a3557600083838101906119f791906140df565b90506000600b600083815260200190815260200160002060006101000a81548160ff021916908315150217905550611a2f8582611f64565b50611b26565b60008383810190611a469190613ebd565b905060008151905060005b81811015611b22576000600b6000858481518110611a98577f4e487b7100000000000000000000000000000000000000000000000000000000600052603260045260246000fd5b6020026020010151815260200190815260200160002060006101000a81548160ff021916908315150217905550611b0f87848381518110611b02577f4e487b7100000000000000000000000000000000000000000000000000000000600052603260045260246000fd5b6020026020010151611f64565b8080611b1a9061513b565b915050611a51565b5050505b50505050565b611b368282612bf7565b611b5b816001600085815260200190815260200160002061252e90919063ffffffff16565b505050565b6000801b611b7581611b70611e8e565b61255e565b81600860016101000a81548173ffffffffffffffffffffffffffffffffffffffff021916908373ffffffffffffffffffffffffffffffffffffffff1602179055505050565b6060611bc582611795565b60096000848152602001908152602001600020604051602001611be9929190614948565b6040516020818303038152906040529050919050565b7f65d7a28e3265b37a6474929f336521b332c1681b933f6cb9f3376673440d862a81565b6000600760008473ffffffffffffffffffffffffffffffffffffffff1673ffffffffffffffffffffffffffffffffffffffff16815260200190815260200160002060008373ffffffffffffffffffffffffffffffffffffffff1673ffffffffffffffffffffffffffffffffffffffff16815260200190815260200160002060009054906101000a900460ff16905092915050565b6000611cc1611d04565b905090565b611cd08282612c20565b5050565b6000611cfc836000018373ffffffffffffffffffffffffffffffffffffffff1660001b612d00565b905092915050565b60006018600036905010158015611d205750611d1f33610eee565b5b15611d3457601436033560601c9050611d3c565b339050611d3d565b5b90565b60007f2a55205a000000000000000000000000000000000000000000000000000000007bffffffffffffffffffffffffffffffffffffffffffffffffffffffff1916827bffffffffffffffffffffffffffffffffffffffffffffffffffffffff19161480611e0b57507fcad96cca000000000000000000000000000000000000000000000000000000007bffffffffffffffffffffffffffffffffffffffffffffffffffffffff1916827bffffffffffffffffffffffffffffffffffffffffffffffffffffffff1916145b80611e1b5750611e1a82612d70565b5b9050919050565b60008073ffffffffffffffffffffffffffffffffffffffff166004600084815260200190815260200160002060009054906101000a900473ffffffffffffffffffffffffffffffffffffffff1673ffffffffffffffffffffffffffffffffffffffff1614159050919050565b6000611e98611cb7565b905090565b816006600083815260200190815260200160002060006101000a81548173ffffffffffffffffffffffffffffffffffffffff021916908373ffffffffffffffffffffffffffffffffffffffff160217905550808273ffffffffffffffffffffffffffffffffffffffff16611f1083610fca565b73ffffffffffffffffffffffffffffffffffffffff167f8c5be1e5ebec7d5bd14f71427d1e84f3dd0314c0f7b2291e5b200ac8c7c3b92560405160405180910390a45050565b600081600001549050919050565b600073ffffffffffffffffffffffffffffffffffffffff168273ffffffffffffffffffffffffffffffffffffffff161415611fd4576040517f08c379a0000000000000000000000000000000000000000000000000000000008152600401611fcb90614b3f565b60405180910390fd5b611fdd81611e22565b1561201d576040517f08c379a0000000000000000000000000000000000000000000000000000000008152600401612014906149ff565b60405180910390fd5b61202960008383612e52565b6001600560008473ffffffffffffffffffffffffffffffffffffffff1673ffffffffffffffffffffffffffffffffffffffff16815260200190815260200160002060008282546120799190614e43565b92505081905550816004600083815260200190815260200160002060006101000a81548173ffffffffffffffffffffffffffffffffffffffff021916908373ffffffffffffffffffffffffffffffffffffffff160217905550808273ffffffffffffffffffffffffffffffffffffffff16600073ffffffffffffffffffffffffffffffffffffffff167fddf252ad1be2c89b69c2b068fc378daa952ba7f163c4a11628f55a4df523b3ef60405160405180910390a45050565b6001816000016000828254019250508190555050565b600061215382611e22565b612192576040517f08c379a000000000000000000000000000000000000000000000000000000000815260040161218990614a7f565b60405180910390fd5b600061219d83610fca565b90508073ffffffffffffffffffffffffffffffffffffffff168473ffffffffffffffffffffffffffffffffffffffff16148061220c57508373ffffffffffffffffffffffffffffffffffffffff166121f4846108b9565b73ffffffffffffffffffffffffffffffffffffffff16145b8061221d575061221c8185611c23565b5b91505092915050565b8273ffffffffffffffffffffffffffffffffffffffff1661224682610fca565b73ffffffffffffffffffffffffffffffffffffffff161461229c576040517f08c379a000000000000000000000000000000000000000000000000000000000815260040161229390614b7f565b60405180910390fd5b600073ffffffffffffffffffffffffffffffffffffffff168273ffffffffffffffffffffffffffffffffffffffff16141561230c576040517f08c379a000000000000000000000000000000000000000000000000000000000815260040161230390614a1f565b60405180910390fd5b612317838383612e52565b612322600082611e9d565b6001600560008573ffffffffffffffffffffffffffffffffffffffff1673ffffffffffffffffffffffffffffffffffffffff16815260200190815260200160002060008282546123729190614f24565b925050819055506001600560008473ffffffffffffffffffffffffffffffffffffffff1673ffffffffffffffffffffffffffffffffffffffff16815260200190815260200160002060008282546123c99190614e43565b92505081905550816004600083815260200190815260200160002060006101000a81548173ffffffffffffffffffffffffffffffffffffffff021916908373ffffffffffffffffffffffffffffffffffffffff160217905550808273ffffffffffffffffffffffffffffffffffffffff168473ffffffffffffffffffffffffffffffffffffffff167fddf252ad1be2c89b69c2b068fc378daa952ba7f163c4a11628f55a4df523b3ef60405160405180910390a4505050565b61248b82610b5a565b61249c81612497611e8e565b61255e565b6124a68383612c20565b505050565b6124b3611e8e565b73ffffffffffffffffffffffffffffffffffffffff168173ffffffffffffffffffffffffffffffffffffffff1614612520576040517f08c379a000000000000000000000000000000000000000000000000000000000815260040161251790614c3f565b60405180910390fd5b61252a8282612e62565b5050565b6000612556836000018373ffffffffffffffffffffffffffffffffffffffff1660001b612f43565b905092915050565b61256882826111e6565b6125f75761258d8173ffffffffffffffffffffffffffffffffffffffff1660146130c9565b61259b8360001c60206130c9565b6040516020016125ac9291906147be565b6040516020818303038152906040526040517f08c379a00000000000000000000000000000000000000000000000000000000081526004016125ee9190614926565b60405180910390fd5b5050565b612603610fb3565b612642576040517f08c379a0000000000000000000000000000000000000000000000000000000008152600401612639906149bf565b60405180910390fd5b6000600860006101000a81548160ff0219169083151502179055507f5db9ee0a495bf2e6ff9c91a7834c1ba4fdd244a5e8aa4e537bd38aeae4b073aa612686611e8e565b60405161269391906147f8565b60405180910390a1565b60006126a882610fca565b90506126b681600084612e52565b6126c1600083611e9d565b6001600560008373ffffffffffffffffffffffffffffffffffffffff1673ffffffffffffffffffffffffffffffffffffffff16815260200190815260200160002060008282546127119190614f24565b925050819055506004600083815260200190815260200160002060006101000a81549073ffffffffffffffffffffffffffffffffffffffff021916905581600073ffffffffffffffffffffffffffffffffffffffff168273ffffffffffffffffffffffffffffffffffffffff167fddf252ad1be2c89b69c2b068fc378daa952ba7f163c4a11628f55a4df523b3ef60405160405180910390a45050565b600080600090505b8251811015612a7557600073ffffffffffffffffffffffffffffffffffffffff16838281518110612810577f4e487b7100000000000000000000000000000000000000000000000000000000600052603260045260246000fd5b60200260200101516000015173ffffffffffffffffffffffffffffffffffffffff161415612873576040517f08c379a000000000000000000000000000000000000000000000000000000000815260040161286a90614bff565b60405180910390fd5b60008382815181106128ae577f4e487b7100000000000000000000000000000000000000000000000000000000600052603260045260246000fd5b6020026020010151602001516bffffffffffffffffffffffff161415612909576040517f08c379a000000000000000000000000000000000000000000000000000000000815260040161290090614a9f565b60405180910390fd5b828181518110612942577f4e487b7100000000000000000000000000000000000000000000000000000000600052603260045260246000fd5b6020026020010151602001516bffffffffffffffffffffffff16826129679190614e43565b9150600960008581526020019081526020016000208382815181106129b5577f4e487b7100000000000000000000000000000000000000000000000000000000600052603260045260246000fd5b60200260200101519080600181540180825580915050600190039060005260206000200160009091909190915060008201518160000160006101000a81548173ffffffffffffffffffffffffffffffffffffffff021916908373ffffffffffffffffffffffffffffffffffffffff16021790555060208201518160000160146101000a8154816bffffffffffffffffffffffff02191690836bffffffffffffffffffffffff16021790555050508080612a6d9061513b565b9150506127b6565b506127108110612aba576040517f08c379a0000000000000000000000000000000000000000000000000000000008152600401612ab190614bdf565b60405180910390fd5b612ac483836133c3565b505050565b612ad1610fb3565b15612b11576040517f08c379a0000000000000000000000000000000000000000000000000000000008152600401612b0890614abf565b60405180910390fd5b6001600860006101000a81548160ff0219169083151502179055507f62e78cea01bee320cd4e420270b5ea74000d11b0c9f74754ebdbfc544b05a258612b55611e8e565b604051612b6291906147f8565b60405180910390a1565b6000612b7b8360000183613400565b60001c905092915050565b612b91848484612226565b612b9d84848484613451565b612bdc576040517f08c379a0000000000000000000000000000000000000000000000000000000008152600401612bd3906149df565b60405180910390fd5b50505050565b6000612bf0826000016135e8565b9050919050565b612c0082610b5a565b612c1181612c0c611e8e565b61255e565b612c1b8383612e62565b505050565b612c2a82826111e6565b612cfc57600160008084815260200190815260200160002060000160008373ffffffffffffffffffffffffffffffffffffffff1673ffffffffffffffffffffffffffffffffffffffff16815260200190815260200160002060006101000a81548160ff021916908315150217905550612ca1611e8e565b73ffffffffffffffffffffffffffffffffffffffff168173ffffffffffffffffffffffffffffffffffffffff16837f2f8788117e7eff1d82e926ec794901d17c78024a50270940304540a733656f0d60405160405180910390a45b5050565b6000612d0c83836135f9565b612d65578260000182908060018154018082558091505060019003906000526020600020016000909190919091505582600001805490508360010160008481526020019081526020016000208190555060019050612d6a565b600090505b92915050565b60007f80ac58cd000000000000000000000000000000000000000000000000000000007bffffffffffffffffffffffffffffffffffffffffffffffffffffffff1916827bffffffffffffffffffffffffffffffffffffffffffffffffffffffff19161480612e3b57507f5b5e139f000000000000000000000000000000000000000000000000000000007bffffffffffffffffffffffffffffffffffffffffffffffffffffffff1916827bffffffffffffffffffffffffffffffffffffffffffffffffffffffff1916145b80612e4b5750612e4a8261361c565b5b9050919050565b612e5d838383613696565b505050565b612e6c82826111e6565b15612f3f57600080600084815260200190815260200160002060000160008373ffffffffffffffffffffffffffffffffffffffff1673ffffffffffffffffffffffffffffffffffffffff16815260200190815260200160002060006101000a81548160ff021916908315150217905550612ee4611e8e565b73ffffffffffffffffffffffffffffffffffffffff168173ffffffffffffffffffffffffffffffffffffffff16837ff6391f5c32d9c69d2a47ea670b442974b53935d1edc7fd64eb21e047a839171b60405160405180910390a45b5050565b600080836001016000848152602001908152602001600020549050600081146130bd576000600182612f759190614f24565b9050600060018660000180549050612f8d9190614f24565b9050818114613048576000866000018281548110612fd4577f4e487b7100000000000000000000000000000000000000000000000000000000600052603260045260246000fd5b906000526020600020015490508087600001848154811061301e577f4e487b7100000000000000000000000000000000000000000000000000000000600052603260045260246000fd5b90600052602060002001819055508387600101600083815260200190815260200160002081905550505b85600001805480613082577f4e487b7100000000000000000000000000000000000000000000000000000000600052603160045260246000fd5b6001900381819060005260206000200160009055905585600101600086815260200190815260200160002060009055600193505050506130c3565b60009150505b92915050565b6060600060028360026130dc9190614eca565b6130e69190614e43565b67ffffffffffffffff811115613125577f4e487b7100000000000000000000000000000000000000000000000000000000600052604160045260246000fd5b6040519080825280601f01601f1916602001820160405280156131575781602001600182028036833780820191505090505b5090507f3000000000000000000000000000000000000000000000000000000000000000816000815181106131b5577f4e487b7100000000000000000000000000000000000000000000000000000000600052603260045260246000fd5b60200101907effffffffffffffffffffffffffffffffffffffffffffffffffffffffffffff1916908160001a9053507f78000000000000000000000000000000000000000000000000000000000000008160018151811061323f577f4e487b7100000000000000000000000000000000000000000000000000000000600052603260045260246000fd5b60200101907effffffffffffffffffffffffffffffffffffffffffffffffffffffffffffff1916908160001a9053506000600184600261327f9190614eca565b6132899190614e43565b90505b6001811115613375577f3031323334353637383961626364656600000000000000000000000000000000600f8616601081106132f1577f4e487b7100000000000000000000000000000000000000000000000000000000600052603260045260246000fd5b1a60f81b82828151811061332e577f4e487b7100000000000000000000000000000000000000000000000000000000600052603260045260246000fd5b60200101907effffffffffffffffffffffffffffffffffffffffffffffffffffffffffffff1916908160001a905350600485901c94508061336e9061507a565b905061328c565b50600084146133b9576040517f08c379a00000000000000000000000000000000000000000000000000000000081526004016133b09061497f565b60405180910390fd5b8091505092915050565b7f3fa96d7b6bcbfe71ef171666d84db3cf52fa2d1c8afdb1cc8e486177f208b7df82826040516133f4929190614c7a565b60405180910390a15050565b600082600001828154811061343e577f4e487b7100000000000000000000000000000000000000000000000000000000600052603260045260246000fd5b9060005260206000200154905092915050565b60006134728473ffffffffffffffffffffffffffffffffffffffff166136ee565b156135db578373ffffffffffffffffffffffffffffffffffffffff1663150b7a0261349b611e8e565b8786866040518563ffffffff1660e01b81526004016134bd9493929190614813565b602060405180830381600087803b1580156134d757600080fd5b505af192505050801561350857506040513d601f19601f820116820180604052508101906135059190613fc8565b60015b61358b573d8060008114613538576040519150601f19603f3d011682016040523d82523d6000602084013e61353d565b606091505b50600081511415613583576040517f08c379a000000000000000000000000000000000000000000000000000000000815260040161357a906149df565b60405180910390fd5b805181602001fd5b63150b7a0260e01b7bffffffffffffffffffffffffffffffffffffffffffffffffffffffff1916817bffffffffffffffffffffffffffffffffffffffffffffffffffffffff1916149150506135e0565b600190505b949350505050565b600081600001805490509050919050565b600080836001016000848152602001908152602001600020541415905092915050565b60007f5a05180f000000000000000000000000000000000000000000000000000000007bffffffffffffffffffffffffffffffffffffffffffffffffffffffff1916827bffffffffffffffffffffffffffffffffffffffffffffffffffffffff1916148061368f575061368e82613701565b5b9050919050565b6136a183838361377b565b6136a9610fb3565b156136e9576040517f08c379a00000000000000000000000000000000000000000000000000000000081526004016136e09061499f565b60405180910390fd5b505050565b600080823b905060008111915050919050565b60007f7965db0b000000000000000000000000000000000000000000000000000000007bffffffffffffffffffffffffffffffffffffffffffffffffffffffff1916827bffffffffffffffffffffffffffffffffffffffffffffffffffffffff19161480613774575061377382613780565b5b9050919050565b505050565b60007f01ffc9a7000000000000000000000000000000000000000000000000000000007bffffffffffffffffffffffffffffffffffffffffffffffffffffffff1916827bffffffffffffffffffffffffffffffffffffffffffffffffffffffff1916149050919050565b8280546137f6906150a4565b90600052602060002090601f016020900481019282613818576000855561385f565b82601f1061383157805160ff191683800117855561385f565b8280016001018555821561385f579182015b8281111561385e578251825591602001919060010190613843565b5b50905061386c9190613870565b5090565b5b80821115613889576000816000905550600101613871565b5090565b60006138a061389b84614ccf565b614caa565b905080838252602082019050828560408602820111156138bf57600080fd5b60005b858110156138ef57816138d58882613c03565b8452602084019350604083019250506001810190506138c2565b5050509392505050565b600061390c61390784614cfb565b614caa565b9050808382526020820190508285602086028201111561392b57600080fd5b60005b8581101561395b57816139418882613c4f565b84526020840193506020830192505060018101905061392e565b5050509392505050565b600061397861397384614d27565b614caa565b90508281526020810184848401111561399057600080fd5b61399b848285615038565b509392505050565b60006139b66139b184614d27565b614caa565b9050828152602081018484840111156139ce57600080fd5b6139d9848285615047565b509392505050565b60006139f46139ef84614d58565b614caa565b905082815260208101848484011115613a0c57600080fd5b613a17848285615038565b509392505050565b600081359050613a2e816158ff565b92915050565b600081359050613a4381615916565b92915050565b600082601f830112613a5a57600080fd5b8135613a6a84826020860161388d565b91505092915050565b60008083601f840112613a8557600080fd5b8235905067ffffffffffffffff811115613a9e57600080fd5b602083019150836020820283011115613ab657600080fd5b9250929050565b600082601f830112613ace57600080fd5b8135613ade8482602086016138f9565b91505092915050565b600081359050613af68161592d565b92915050565b600081359050613b0b81615944565b92915050565b600081359050613b208161595b565b92915050565b600081519050613b358161595b565b92915050565b60008083601f840112613b4d57600080fd5b8235905067ffffffffffffffff811115613b6657600080fd5b602083019150836001820283011115613b7e57600080fd5b9250929050565b600082601f830112613b9657600080fd5b8135613ba6848260208601613965565b91505092915050565b600082601f830112613bc057600080fd5b8151613bd08482602086016139a3565b91505092915050565b600082601f830112613bea57600080fd5b8135613bfa8482602086016139e1565b91505092915050565b600060408284031215613c1557600080fd5b613c1f6040614caa565b90506000613c2f84828501613a34565b6000830152506020613c4384828501613c64565b60208301525092915050565b600081359050613c5e81615972565b92915050565b600081359050613c7381615989565b92915050565b600060208284031215613c8b57600080fd5b6000613c9984828501613a1f565b91505092915050565b60008060408385031215613cb557600080fd5b6000613cc385828601613a1f565b9250506020613cd485828601613a1f565b9150509250929050565b600080600060608486031215613cf357600080fd5b6000613d0186828701613a1f565b9350506020613d1286828701613a1f565b9250506040613d2386828701613c4f565b9150509250925092565b60008060008060808587031215613d4357600080fd5b6000613d5187828801613a1f565b9450506020613d6287828801613a1f565b9350506040613d7387828801613c4f565b925050606085013567ffffffffffffffff811115613d9057600080fd5b613d9c87828801613b85565b91505092959194509250565b60008060408385031215613dbb57600080fd5b6000613dc985828601613a1f565b9250506020613dda85828601613ae7565b9150509250929050565b600080600060408486031215613df957600080fd5b6000613e0786828701613a1f565b935050602084013567ffffffffffffffff811115613e2457600080fd5b613e3086828701613b3b565b92509250509250925092565b60008060408385031215613e4f57600080fd5b6000613e5d85828601613a1f565b9250506020613e6e85828601613c4f565b9150509250929050565b60008060208385031215613e8b57600080fd5b600083013567ffffffffffffffff811115613ea557600080fd5b613eb185828601613a73565b92509250509250929050565b600060208284031215613ecf57600080fd5b600082013567ffffffffffffffff811115613ee957600080fd5b613ef584828501613abd565b91505092915050565b600060208284031215613f1057600080fd5b6000613f1e84828501613afc565b91505092915050565b60008060408385031215613f3a57600080fd5b6000613f4885828601613afc565b9250506020613f5985828601613a1f565b9150509250929050565b60008060408385031215613f7657600080fd5b6000613f8485828601613afc565b9250506020613f9585828601613c4f565b9150509250929050565b600060208284031215613fb157600080fd5b6000613fbf84828501613b11565b91505092915050565b600060208284031215613fda57600080fd5b6000613fe884828501613b26565b91505092915050565b60006020828403121561400357600080fd5b600082015167ffffffffffffffff81111561401d57600080fd5b61402984828501613baf565b91505092915050565b60006020828403121561404457600080fd5b600082013567ffffffffffffffff81111561405e57600080fd5b61406a84828501613bd9565b91505092915050565b6000806040838503121561408657600080fd5b600083013567ffffffffffffffff8111156140a057600080fd5b6140ac85828601613bd9565b925050602083013567ffffffffffffffff8111156140c957600080fd5b6140d585828601613a49565b9150509250929050565b6000602082840312156140f157600080fd5b60006140ff84828501613c4f565b91505092915050565b6000806040838503121561411b57600080fd5b600061412985828601613c4f565b925050602061413a85828601613c4f565b9150509250929050565b600061415083836146f4565b60408301905092915050565b60006141688383614723565b60408301905092915050565b61417d81614fa2565b82525050565b61418c81614f90565b82525050565b600061419d82614dae565b6141a78185614df4565b93506141b283614d89565b8060005b838110156141e35781516141ca8882614144565b97506141d583614dda565b9250506001810190506141b6565b5085935050505092915050565b60006141fb82614db9565b6142058185614df4565b935061421083614d99565b8060005b838110156142405781614227888261415c565b975061423283614de7565b925050600181019050614214565b5085935050505092915050565b60006142598385614e05565b93507f07ffffffffffffffffffffffffffffffffffffffffffffffffffffffffffffff83111561428857600080fd5b602083029250614299838584615038565b82840190509392505050565b6142ae81614fb4565b82525050565b6142bd81614fc0565b82525050565b60006142ce82614dc4565b6142d88185614e16565b93506142e8818560208601615047565b6142f18161524a565b840191505092915050565b600061430782614dcf565b6143118185614e27565b9350614321818560208601615047565b61432a8161524a565b840191505092915050565b600061434082614dcf565b61434a8185614e38565b935061435a818560208601615047565b80840191505092915050565b6000614373602083614e27565b915061437e82615275565b602082019050919050565b6000614396602b83614e27565b91506143a18261529e565b604082019050919050565b60006143b9601483614e27565b91506143c4826152ed565b602082019050919050565b60006143dc603283614e27565b91506143e782615316565b604082019050919050565b60006143ff601c83614e27565b915061440a82615365565b602082019050919050565b6000614422602483614e27565b915061442d8261538e565b604082019050919050565b6000614445601983614e27565b9150614450826153dd565b602082019050919050565b6000614468602f83614e27565b915061447382615406565b604082019050919050565b600061448b602c83614e27565b915061449682615455565b604082019050919050565b60006144ae602083614e27565b91506144b9826154a4565b602082019050919050565b60006144d1601083614e27565b91506144dc826154cd565b602082019050919050565b60006144f4603883614e27565b91506144ff826154f6565b604082019050919050565b6000614517602a83614e27565b915061452282615545565b604082019050919050565b600061453a602983614e27565b915061454582615594565b604082019050919050565b600061455d602083614e27565b9150614568826155e3565b602082019050919050565b6000614580602c83614e27565b915061458b8261560c565b604082019050919050565b60006145a3602983614e27565b91506145ae8261565b565b604082019050919050565b60006145c6602483614e38565b91506145d1826156aa565b602482019050919050565b60006145e9602183614e27565b91506145f4826156f9565b604082019050919050565b600061460c603183614e27565b915061461782615748565b604082019050919050565b600061462f602583614e27565b915061463a82615797565b604082019050919050565b6000614652601783614e38565b915061465d826157e6565b601782019050919050565b6000614675601b83614e27565b91506146808261580f565b602082019050919050565b6000614698603083614e27565b91506146a382615838565b604082019050919050565b60006146bb601183614e38565b91506146c682615887565b601182019050919050565b60006146de602f83614e27565b91506146e9826158b0565b604082019050919050565b60408201600082015161470a6000850182614174565b50602082015161471d6020850182614789565b50505050565b604082016000808301549050614738816150d6565b6147456000860182614174565b5061474f816150f0565b61475c6020860182614789565b5050505050565b61476c81615016565b82525050565b61478361477e82615016565b615184565b82525050565b61479281615020565b82525050565b60006147a3826145b9565b91506147af8284614772565b60208201915081905092915050565b60006147c982614645565b91506147d58285614335565b91506147e0826146ae565b91506147ec8284614335565b91508190509392505050565b600060208201905061480d6000830184614183565b92915050565b60006080820190506148286000830187614183565b6148356020830186614183565b6148426040830185614763565b818103606083015261485481846142c3565b905095945050505050565b60006040820190506148746000830185614183565b6148816020830184614763565b9392505050565b600060208201905081810360008301526148a28184614192565b905092915050565b600060208201905081810360008301526148c581848661424d565b90509392505050565b60006020820190506148e360008301846142a5565b92915050565b60006020820190506148fe60008301846142b4565b92915050565b6000602082019050818103600083015261491e81846142c3565b905092915050565b6000602082019050818103600083015261494081846142fc565b905092915050565b6000604082019050818103600083015261496281856142fc565b9050818103602083015261497681846141f0565b90509392505050565b6000602082019050818103600083015261499881614366565b9050919050565b600060208201905081810360008301526149b881614389565b9050919050565b600060208201905081810360008301526149d8816143ac565b9050919050565b600060208201905081810360008301526149f8816143cf565b9050919050565b60006020820190508181036000830152614a18816143f2565b9050919050565b60006020820190508181036000830152614a3881614415565b9050919050565b60006020820190508181036000830152614a5881614438565b9050919050565b60006020820190508181036000830152614a788161445b565b9050919050565b60006020820190508181036000830152614a988161447e565b9050919050565b60006020820190508181036000830152614ab8816144a1565b9050919050565b60006020820190508181036000830152614ad8816144c4565b9050919050565b60006020820190508181036000830152614af8816144e7565b9050919050565b60006020820190508181036000830152614b188161450a565b9050919050565b60006020820190508181036000830152614b388161452d565b9050919050565b60006020820190508181036000830152614b5881614550565b9050919050565b60006020820190508181036000830152614b7881614573565b9050919050565b60006020820190508181036000830152614b9881614596565b9050919050565b60006020820190508181036000830152614bb8816145dc565b9050919050565b60006020820190508181036000830152614bd8816145ff565b9050919050565b60006020820190508181036000830152614bf881614622565b9050919050565b60006020820190508181036000830152614c1881614668565b9050919050565b60006020820190508181036000830152614c388161468b565b9050919050565b60006020820190508181036000830152614c58816146d1565b9050919050565b6000602082019050614c746000830184614763565b92915050565b6000604082019050614c8f6000830185614763565b8181036020830152614ca18184614192565b90509392505050565b6000614cb4614cc5565b9050614cc0828261510a565b919050565b6000604051905090565b600067ffffffffffffffff821115614cea57614ce961521b565b5b602082029050602081019050919050565b600067ffffffffffffffff821115614d1657614d1561521b565b5b602082029050602081019050919050565b600067ffffffffffffffff821115614d4257614d4161521b565b5b614d4b8261524a565b9050602081019050919050565b600067ffffffffffffffff821115614d7357614d7261521b565b5b614d7c8261524a565b9050602081019050919050565b6000819050602082019050919050565b60008190508160005260206000209050919050565b600081519050919050565b600081549050919050565b600081519050919050565b600081519050919050565b6000602082019050919050565b6000600182019050919050565b600082825260208201905092915050565b600082825260208201905092915050565b600082825260208201905092915050565b600082825260208201905092915050565b600081905092915050565b6000614e4e82615016565b9150614e5983615016565b9250827fffffffffffffffffffffffffffffffffffffffffffffffffffffffffffffffff03821115614e8e57614e8d61518e565b5b828201905092915050565b6000614ea482615016565b9150614eaf83615016565b925082614ebf57614ebe6151bd565b5b828204905092915050565b6000614ed582615016565b9150614ee083615016565b9250817fffffffffffffffffffffffffffffffffffffffffffffffffffffffffffffffff0483118215151615614f1957614f1861518e565b5b828202905092915050565b6000614f2f82615016565b9150614f3a83615016565b925082821015614f4d57614f4c61518e565b5b828203905092915050565b600073ffffffffffffffffffffffffffffffffffffffff82169050919050565b60006bffffffffffffffffffffffff82169050919050565b6000614f9b82614ff6565b9050919050565b6000614fad82614ff6565b9050919050565b60008115159050919050565b6000819050919050565b60007fffffffff0000000000000000000000000000000000000000000000000000000082169050919050565b600073ffffffffffffffffffffffffffffffffffffffff82169050919050565b6000819050919050565b60006bffffffffffffffffffffffff82169050919050565b82818337600083830152505050565b60005b8381101561506557808201518184015260208101905061504a565b83811115615074576000848401525b50505050565b600061508582615016565b915060008214156150995761509861518e565b5b600182039050919050565b600060028204905060018216806150bc57607f821691505b602082108114156150d0576150cf6151ec565b5b50919050565b60006150e96150e48361525b565b614f58565b9050919050565b60006151036150fe83615268565b614f78565b9050919050565b6151138261524a565b810181811067ffffffffffffffff821117156151325761513161521b565b5b80604052505050565b600061514682615016565b91507fffffffffffffffffffffffffffffffffffffffffffffffffffffffffffffffff8214156151795761517861518e565b5b600182019050919050565b6000819050919050565b7f4e487b7100000000000000000000000000000000000000000000000000000000600052601160045260246000fd5b7f4e487b7100000000000000000000000000000000000000000000000000000000600052601260045260246000fd5b7f4e487b7100000000000000000000000000000000000000000000000000000000600052602260045260246000fd5b7f4e487b7100000000000000000000000000000000000000000000000000000000600052604160045260246000fd5b6000601f19601f8301169050919050565b60008160001c9050919050565b60008160a01c9050919050565b7f537472696e67733a20686578206c656e67746820696e73756666696369656e74600082015250565b7f4552433732315061757361626c653a20746f6b656e207472616e73666572207760008201527f68696c6520706175736564000000000000000000000000000000000000000000602082015250565b7f5061757361626c653a206e6f7420706175736564000000000000000000000000600082015250565b7f4552433732313a207472616e7366657220746f206e6f6e20455243373231526560008201527f63656976657220696d706c656d656e7465720000000000000000000000000000602082015250565b7f4552433732313a20746f6b656e20616c7265616479206d696e74656400000000600082015250565b7f4552433732313a207472616e7366657220746f20746865207a65726f2061646460008201527f7265737300000000000000000000000000000000000000000000000000000000602082015250565b7f4552433732313a20617070726f766520746f2063616c6c657200000000000000600082015250565b7f4552433732314c656d6f6e6164653a2055524920717565727920666f72206e6f60008201527f6e6578697374656e7420746f6b656e0000000000000000000000000000000000602082015250565b7f4552433732313a206f70657261746f7220717565727920666f72206e6f6e657860008201527f697374656e7420746f6b656e0000000000000000000000000000000000000000602082015250565b7f526f79616c74792076616c75652073686f756c6420626520706f736974697665600082015250565b7f5061757361626c653a2070617573656400000000000000000000000000000000600082015250565b7f4552433732313a20617070726f76652063616c6c6572206973206e6f74206f7760008201527f6e6572206e6f7220617070726f76656420666f7220616c6c0000000000000000602082015250565b7f4552433732313a2062616c616e636520717565727920666f7220746865207a6560008201527f726f206164647265737300000000000000000000000000000000000000000000602082015250565b7f4552433732313a206f776e657220717565727920666f72206e6f6e657869737460008201527f656e7420746f6b656e0000000000000000000000000000000000000000000000602082015250565b7f4552433732313a206d696e7420746f20746865207a65726f2061646472657373600082015250565b7f4552433732313a20617070726f76656420717565727920666f72206e6f6e657860008201527f697374656e7420746f6b656e0000000000000000000000000000000000000000602082015250565b7f4552433732313a207472616e73666572206f6620746f6b656e2074686174206960008201527f73206e6f74206f776e0000000000000000000000000000000000000000000000602082015250565b7f4552433732314c656d6f6e6164653a20494e56414c49445f544f4b454e5f4f5760008201527f4e45522000000000000000000000000000000000000000000000000000000000602082015250565b7f4552433732313a20617070726f76616c20746f2063757272656e74206f776e6560008201527f7200000000000000000000000000000000000000000000000000000000000000602082015250565b7f4552433732313a207472616e736665722063616c6c6572206973206e6f74206f60008201527f776e6572206e6f7220617070726f766564000000000000000000000000000000602082015250565b7f526f79616c747920746f74616c2076616c75652073686f756c64206265203c2060008201527f3130303030000000000000000000000000000000000000000000000000000000602082015250565b7f416363657373436f6e74726f6c3a206163636f756e7420000000000000000000600082015250565b7f526563697069656e742073686f756c642062652070726573656e740000000000600082015250565b7f4552433732314275726e61626c653a2063616c6c6572206973206e6f74206f7760008201527f6e6572206e6f7220617070726f76656400000000000000000000000000000000602082015250565b7f206973206d697373696e6720726f6c6520000000000000000000000000000000600082015250565b7f416363657373436f6e74726f6c3a2063616e206f6e6c792072656e6f756e636560008201527f20726f6c657320666f722073656c660000000000000000000000000000000000602082015250565b61590881614f90565b811461591357600080fd5b50565b61591f81614fa2565b811461592a57600080fd5b50565b61593681614fb4565b811461594157600080fd5b50565b61594d81614fc0565b811461595857600080fd5b50565b61596481614fca565b811461596f57600080fd5b50565b61597b81615016565b811461598657600080fd5b50565b61599281615020565b811461599d57600080fd5b5056fea2646970667358221220663fab52afcb20322a23eab3d9d1741492968f246ea4d1cc71f54657be7cfd1064736f6c63430008040033",
  "devdoc": {
    "kind": "dev",
    "methods": {
      "approve(address,uint256)": {
        "details": "See {IERC721-approve}."
      },
      "balanceOf(address)": {
        "details": "See {IERC721-balanceOf}."
      },
      "burn(uint256)": {
        "details": "Burns `tokenId`. See {ERC721-_burn}. Requirements: - The caller must own `tokenId` or be an approved operator."
      },
      "deposit(address,bytes)": {
        "details": "see https://github.com/maticnetwork/pos-portal/blob/88dbf0a88fd68fa11f7a3b9d36629930f6b93a05/flat/ChildMintableERC721.sol#L2160"
      },
      "encodeState(uint256)": {
        "details": "see https://github.com/maticnetwork/pos-portal/blob/88dbf0a88fd68fa11f7a3b9d36629930f6b93a05/flat/ChildMintableERC721.sol#L2255"
      },
      "getApproved(uint256)": {
        "details": "See {IERC721-getApproved}."
      },
      "getRoleAdmin(bytes32)": {
        "details": "Returns the admin role that controls `role`. See {grantRole} and {revokeRole}. To change a role's admin, use {_setRoleAdmin}."
      },
      "getRoleMember(bytes32,uint256)": {
        "details": "Returns one of the accounts that have `role`. `index` must be a value between 0 and {getRoleMemberCount}, non-inclusive. Role bearers are not sorted in any particular way, and their ordering may change at any point. WARNING: When using {getRoleMember} and {getRoleMemberCount}, make sure you perform all queries on the same block. See the following https://forum.openzeppelin.com/t/iterating-over-elements-on-enumerableset-in-openzeppelin-contracts/2296[forum post] for more information."
      },
      "getRoleMemberCount(bytes32)": {
        "details": "Returns the number of accounts that have `role`. Can be used together with {getRoleMember} to enumerate all bearers of a role."
      },
      "grantRole(bytes32,address)": {
        "details": "Overload {grantRole} to track enumerable memberships"
      },
      "hasRole(bytes32,address)": {
        "details": "Returns `true` if `account` has been granted `role`."
      },
      "isApprovedForAll(address,address)": {
        "details": "See {IERC721-isApprovedForAll}."
      },
      "name()": {
        "details": "See {IERC721Metadata-name}."
      },
      "ownerOf(uint256)": {
        "details": "See {IERC721-ownerOf}."
      },
      "paused()": {
        "details": "Returns true if the contract is paused, and false otherwise."
      },
      "renounceRole(bytes32,address)": {
        "details": "Overload {renounceRole} to track enumerable memberships"
      },
      "revokeRole(bytes32,address)": {
        "details": "Overload {revokeRole} to track enumerable memberships"
      },
      "safeTransferFrom(address,address,uint256)": {
        "details": "See {IERC721-safeTransferFrom}."
      },
      "safeTransferFrom(address,address,uint256,bytes)": {
        "details": "See {IERC721-safeTransferFrom}."
      },
      "setApprovalForAll(address,bool)": {
        "details": "See {IERC721-setApprovalForAll}."
      },
      "symbol()": {
        "details": "See {IERC721Metadata-symbol}."
      },
      "tokenURI(uint256)": {
        "details": "See {IERC721Metadata-tokenURI}."
      },
      "transferFrom(address,address,uint256)": {
        "details": "See {IERC721-transferFrom}."
      },
      "withdraw(uint256)": {
        "details": "see https://github.com/maticnetwork/pos-portal/blob/88dbf0a88fd68fa11f7a3b9d36629930f6b93a05/flat/ChildMintableERC721.sol#L2191"
      },
      "withdrawBatch(uint256[])": {
        "details": "see https://github.com/maticnetwork/pos-portal/blob/88dbf0a88fd68fa11f7a3b9d36629930f6b93a05/flat/ChildMintableERC721.sol#L2202"
      },
      "withdrawWithMetadata(uint256)": {
        "details": "see https://github.com/maticnetwork/pos-portal/blob/88dbf0a88fd68fa11f7a3b9d36629930f6b93a05/flat/ChildMintableERC721.sol#L2234"
      }
    },
    "version": 1
  },
  "userdoc": {
    "kind": "user",
    "methods": {
      "isTrustedForwarder(address)": {
        "notice": "return if the forwarder is trusted to forward relayed transactions to us. the forwarder is required to verify the sender's signature, and verify the call is not a replay."
      }
    },
    "version": 1
  },
  "storageLayout": {
    "storage": [
      {
        "astId": 24,
        "contract": "contracts/ERC721Lemonade.sol:ERC721Lemonade",
        "label": "_roles",
        "offset": 0,
        "slot": "0",
        "type": "t_mapping(t_bytes32,t_struct(RoleData)19_storage)"
      },
      {
        "astId": 325,
        "contract": "contracts/ERC721Lemonade.sol:ERC721Lemonade",
        "label": "_roleMembers",
        "offset": 0,
        "slot": "1",
        "type": "t_mapping(t_bytes32,t_struct(AddressSet)3032_storage)"
      },
      {
        "astId": 701,
        "contract": "contracts/ERC721Lemonade.sol:ERC721Lemonade",
        "label": "_name",
        "offset": 0,
        "slot": "2",
        "type": "t_string_storage"
      },
      {
        "astId": 703,
        "contract": "contracts/ERC721Lemonade.sol:ERC721Lemonade",
        "label": "_symbol",
        "offset": 0,
        "slot": "3",
        "type": "t_string_storage"
      },
      {
        "astId": 707,
        "contract": "contracts/ERC721Lemonade.sol:ERC721Lemonade",
        "label": "_owners",
        "offset": 0,
        "slot": "4",
        "type": "t_mapping(t_uint256,t_address)"
      },
      {
        "astId": 711,
        "contract": "contracts/ERC721Lemonade.sol:ERC721Lemonade",
        "label": "_balances",
        "offset": 0,
        "slot": "5",
        "type": "t_mapping(t_address,t_uint256)"
      },
      {
        "astId": 715,
        "contract": "contracts/ERC721Lemonade.sol:ERC721Lemonade",
        "label": "_tokenApprovals",
        "offset": 0,
        "slot": "6",
        "type": "t_mapping(t_uint256,t_address)"
      },
      {
        "astId": 721,
        "contract": "contracts/ERC721Lemonade.sol:ERC721Lemonade",
        "label": "_operatorApprovals",
        "offset": 0,
        "slot": "7",
        "type": "t_mapping(t_address,t_mapping(t_address,t_bool))"
      },
      {
        "astId": 601,
        "contract": "contracts/ERC721Lemonade.sol:ERC721Lemonade",
        "label": "_paused",
        "offset": 0,
        "slot": "8",
        "type": "t_bool"
      },
      {
        "astId": 4297,
        "contract": "contracts/ERC721Lemonade.sol:ERC721Lemonade",
        "label": "trustedForwarder",
        "offset": 1,
        "slot": "8",
        "type": "t_address"
      },
      {
        "astId": 4438,
        "contract": "contracts/ERC721Lemonade.sol:ERC721Lemonade",
        "label": "royalties",
        "offset": 0,
        "slot": "9",
        "type": "t_mapping(t_uint256,t_array(t_struct(Part)4386_storage)dyn_storage)"
      },
      {
        "astId": 3692,
        "contract": "contracts/ERC721Lemonade.sol:ERC721Lemonade",
        "label": "_tokenIdTracker",
        "offset": 0,
        "slot": "10",
        "type": "t_struct(Counter)2413_storage"
      },
      {
        "astId": 3696,
        "contract": "contracts/ERC721Lemonade.sol:ERC721Lemonade",
        "label": "_tokenWithdrawn",
        "offset": 0,
        "slot": "11",
        "type": "t_mapping(t_uint256,t_bool)"
      },
      {
        "astId": 3700,
        "contract": "contracts/ERC721Lemonade.sol:ERC721Lemonade",
        "label": "_tokenURIs",
        "offset": 0,
        "slot": "12",
        "type": "t_mapping(t_uint256,t_string_storage)"
      }
    ],
    "types": {
      "t_address": {
        "encoding": "inplace",
        "label": "address",
        "numberOfBytes": "20"
      },
      "t_address_payable": {
        "encoding": "inplace",
        "label": "address payable",
        "numberOfBytes": "20"
      },
      "t_array(t_bytes32)dyn_storage": {
        "base": "t_bytes32",
        "encoding": "dynamic_array",
        "label": "bytes32[]",
        "numberOfBytes": "32"
      },
      "t_array(t_struct(Part)4386_storage)dyn_storage": {
        "base": "t_struct(Part)4386_storage",
        "encoding": "dynamic_array",
        "label": "struct LibPart.Part[]",
        "numberOfBytes": "32"
      },
      "t_bool": {
        "encoding": "inplace",
        "label": "bool",
        "numberOfBytes": "1"
      },
      "t_bytes32": {
        "encoding": "inplace",
        "label": "bytes32",
        "numberOfBytes": "32"
      },
      "t_mapping(t_address,t_bool)": {
        "encoding": "mapping",
        "key": "t_address",
        "label": "mapping(address => bool)",
        "numberOfBytes": "32",
        "value": "t_bool"
      },
      "t_mapping(t_address,t_mapping(t_address,t_bool))": {
        "encoding": "mapping",
        "key": "t_address",
        "label": "mapping(address => mapping(address => bool))",
        "numberOfBytes": "32",
        "value": "t_mapping(t_address,t_bool)"
      },
      "t_mapping(t_address,t_uint256)": {
        "encoding": "mapping",
        "key": "t_address",
        "label": "mapping(address => uint256)",
        "numberOfBytes": "32",
        "value": "t_uint256"
      },
      "t_mapping(t_bytes32,t_struct(AddressSet)3032_storage)": {
        "encoding": "mapping",
        "key": "t_bytes32",
        "label": "mapping(bytes32 => struct EnumerableSet.AddressSet)",
        "numberOfBytes": "32",
        "value": "t_struct(AddressSet)3032_storage"
      },
      "t_mapping(t_bytes32,t_struct(RoleData)19_storage)": {
        "encoding": "mapping",
        "key": "t_bytes32",
        "label": "mapping(bytes32 => struct AccessControl.RoleData)",
        "numberOfBytes": "32",
        "value": "t_struct(RoleData)19_storage"
      },
      "t_mapping(t_bytes32,t_uint256)": {
        "encoding": "mapping",
        "key": "t_bytes32",
        "label": "mapping(bytes32 => uint256)",
        "numberOfBytes": "32",
        "value": "t_uint256"
      },
      "t_mapping(t_uint256,t_address)": {
        "encoding": "mapping",
        "key": "t_uint256",
        "label": "mapping(uint256 => address)",
        "numberOfBytes": "32",
        "value": "t_address"
      },
      "t_mapping(t_uint256,t_array(t_struct(Part)4386_storage)dyn_storage)": {
        "encoding": "mapping",
        "key": "t_uint256",
        "label": "mapping(uint256 => struct LibPart.Part[])",
        "numberOfBytes": "32",
        "value": "t_array(t_struct(Part)4386_storage)dyn_storage"
      },
      "t_mapping(t_uint256,t_bool)": {
        "encoding": "mapping",
        "key": "t_uint256",
        "label": "mapping(uint256 => bool)",
        "numberOfBytes": "32",
        "value": "t_bool"
      },
      "t_mapping(t_uint256,t_string_storage)": {
        "encoding": "mapping",
        "key": "t_uint256",
        "label": "mapping(uint256 => string)",
        "numberOfBytes": "32",
        "value": "t_string_storage"
      },
      "t_string_storage": {
        "encoding": "bytes",
        "label": "string",
        "numberOfBytes": "32"
      },
      "t_struct(AddressSet)3032_storage": {
        "encoding": "inplace",
        "label": "struct EnumerableSet.AddressSet",
        "members": [
          {
            "astId": 3031,
            "contract": "contracts/ERC721Lemonade.sol:ERC721Lemonade",
            "label": "_inner",
            "offset": 0,
            "slot": "0",
            "type": "t_struct(Set)2731_storage"
          }
        ],
        "numberOfBytes": "64"
      },
      "t_struct(Counter)2413_storage": {
        "encoding": "inplace",
        "label": "struct Counters.Counter",
        "members": [
          {
            "astId": 2412,
            "contract": "contracts/ERC721Lemonade.sol:ERC721Lemonade",
            "label": "_value",
            "offset": 0,
            "slot": "0",
            "type": "t_uint256"
          }
        ],
        "numberOfBytes": "32"
      },
      "t_struct(Part)4386_storage": {
        "encoding": "inplace",
        "label": "struct LibPart.Part",
        "members": [
          {
            "astId": 4383,
            "contract": "contracts/ERC721Lemonade.sol:ERC721Lemonade",
            "label": "account",
            "offset": 0,
            "slot": "0",
            "type": "t_address_payable"
          },
          {
            "astId": 4385,
            "contract": "contracts/ERC721Lemonade.sol:ERC721Lemonade",
            "label": "value",
            "offset": 20,
            "slot": "0",
            "type": "t_uint96"
          }
        ],
        "numberOfBytes": "32"
      },
      "t_struct(RoleData)19_storage": {
        "encoding": "inplace",
        "label": "struct AccessControl.RoleData",
        "members": [
          {
            "astId": 16,
            "contract": "contracts/ERC721Lemonade.sol:ERC721Lemonade",
            "label": "members",
            "offset": 0,
            "slot": "0",
            "type": "t_mapping(t_address,t_bool)"
          },
          {
            "astId": 18,
            "contract": "contracts/ERC721Lemonade.sol:ERC721Lemonade",
            "label": "adminRole",
            "offset": 0,
            "slot": "1",
            "type": "t_bytes32"
          }
        ],
        "numberOfBytes": "64"
      },
      "t_struct(Set)2731_storage": {
        "encoding": "inplace",
        "label": "struct EnumerableSet.Set",
        "members": [
          {
            "astId": 2726,
            "contract": "contracts/ERC721Lemonade.sol:ERC721Lemonade",
            "label": "_values",
            "offset": 0,
            "slot": "0",
            "type": "t_array(t_bytes32)dyn_storage"
          },
          {
            "astId": 2730,
            "contract": "contracts/ERC721Lemonade.sol:ERC721Lemonade",
            "label": "_indexes",
            "offset": 0,
            "slot": "1",
            "type": "t_mapping(t_bytes32,t_uint256)"
          }
        ],
        "numberOfBytes": "64"
      },
      "t_uint256": {
        "encoding": "inplace",
        "label": "uint256",
        "numberOfBytes": "32"
      },
      "t_uint96": {
        "encoding": "inplace",
        "label": "uint96",
        "numberOfBytes": "12"
      }
    }
  }
}