{
  "address": "0x4576895ce3248811eC37bE0Ed98112eFAf075072",
  "abi": [
    {
      "inputs": [
        {
          "internalType": "string",
          "name": "name",
          "type": "string"
        },
        {
          "internalType": "string",
          "name": "symbol",
          "type": "string"
        },
        {
          "internalType": "address",
          "name": "trustedForwarder_",
          "type": "address"
        },
        {
          "internalType": "address",
          "name": "trustedOperator",
          "type": "address"
        }
      ],
      "stateMutability": "nonpayable",
      "type": "constructor"
    },
    {
      "anonymous": false,
      "inputs": [
        {
          "indexed": true,
          "internalType": "address",
          "name": "owner",
          "type": "address"
        },
        {
          "indexed": true,
          "internalType": "address",
          "name": "approved",
          "type": "address"
        },
        {
          "indexed": true,
          "internalType": "uint256",
          "name": "tokenId",
          "type": "uint256"
        }
      ],
      "name": "Approval",
      "type": "event"
    },
    {
      "anonymous": false,
      "inputs": [
        {
          "indexed": true,
          "internalType": "address",
          "name": "owner",
          "type": "address"
        },
        {
          "indexed": true,
          "internalType": "address",
          "name": "operator",
          "type": "address"
        },
        {
          "indexed": false,
          "internalType": "bool",
          "name": "approved",
          "type": "bool"
        }
      ],
      "name": "ApprovalForAll",
      "type": "event"
    },
    {
      "anonymous": false,
      "inputs": [
        {
          "indexed": true,
          "internalType": "address",
          "name": "previousOwner",
          "type": "address"
        },
        {
          "indexed": true,
          "internalType": "address",
          "name": "newOwner",
          "type": "address"
        }
      ],
      "name": "OwnershipTransferred",
      "type": "event"
    },
    {
      "anonymous": false,
      "inputs": [
        {
          "indexed": true,
          "internalType": "address",
          "name": "from",
          "type": "address"
        },
        {
          "indexed": true,
          "internalType": "address",
          "name": "to",
          "type": "address"
        },
        {
          "indexed": true,
          "internalType": "uint256",
          "name": "tokenId",
          "type": "uint256"
        }
      ],
      "name": "Transfer",
      "type": "event"
    },
    {
      "inputs": [
        {
          "internalType": "address",
          "name": "to",
          "type": "address"
        },
        {
          "internalType": "uint256",
          "name": "tokenId",
          "type": "uint256"
        }
      ],
      "name": "approve",
      "outputs": [],
      "stateMutability": "nonpayable",
      "type": "function"
    },
    {
      "inputs": [
        {
          "internalType": "address",
          "name": "owner",
          "type": "address"
        }
      ],
      "name": "balanceOf",
      "outputs": [
        {
          "internalType": "uint256",
          "name": "",
          "type": "uint256"
        }
      ],
      "stateMutability": "view",
      "type": "function"
    },
    {
      "inputs": [
        {
          "internalType": "uint256",
          "name": "tokenId",
          "type": "uint256"
        }
      ],
      "name": "getApproved",
      "outputs": [
        {
          "internalType": "address",
          "name": "",
          "type": "address"
        }
      ],
      "stateMutability": "view",
      "type": "function"
    },
    {
      "inputs": [
        {
          "internalType": "uint256",
          "name": "tokenId",
          "type": "uint256"
        }
      ],
      "name": "getRaribleV2Royalties",
      "outputs": [
        {
          "components": [
            {
              "internalType": "address payable",
              "name": "account",
              "type": "address"
            },
            {
              "internalType": "uint96",
              "name": "value",
              "type": "uint96"
            }
          ],
          "internalType": "struct LibPart.Part[]",
          "name": "",
          "type": "tuple[]"
        }
      ],
      "stateMutability": "view",
      "type": "function"
    },
    {
      "inputs": [
        {
          "internalType": "address",
          "name": "owner",
          "type": "address"
        },
        {
          "internalType": "address",
          "name": "operator",
          "type": "address"
        }
      ],
      "name": "isApprovedForAll",
      "outputs": [
        {
          "internalType": "bool",
          "name": "",
          "type": "bool"
        }
      ],
      "stateMutability": "view",
      "type": "function"
    },
    {
      "inputs": [
        {
          "internalType": "address",
          "name": "forwarder",
          "type": "address"
        }
      ],
      "name": "isTrustedForwarder",
      "outputs": [
        {
          "internalType": "bool",
          "name": "",
          "type": "bool"
        }
      ],
      "stateMutability": "view",
      "type": "function"
    },
    {
      "inputs": [
        {
          "internalType": "string",
          "name": "tokenURI_",
          "type": "string"
        }
      ],
      "name": "mintToCaller",
      "outputs": [
        {
          "internalType": "uint256",
          "name": "",
          "type": "uint256"
        }
      ],
      "stateMutability": "nonpayable",
      "type": "function"
    },
    {
      "inputs": [
        {
          "internalType": "string",
          "name": "tokenURI_",
          "type": "string"
        },
        {
          "components": [
            {
              "internalType": "address payable",
              "name": "account",
              "type": "address"
            },
            {
              "internalType": "uint96",
              "name": "value",
              "type": "uint96"
            }
          ],
          "internalType": "struct LibPart.Part[]",
          "name": "royalties",
          "type": "tuple[]"
        }
      ],
      "name": "mintToCallerWithRoyalty",
      "outputs": [
        {
          "internalType": "uint256",
          "name": "",
          "type": "uint256"
        }
      ],
      "stateMutability": "nonpayable",
      "type": "function"
    },
    {
      "inputs": [],
      "name": "name",
      "outputs": [
        {
          "internalType": "string",
          "name": "",
          "type": "string"
        }
      ],
      "stateMutability": "view",
      "type": "function"
    },
    {
      "inputs": [],
      "name": "owner",
      "outputs": [
        {
          "internalType": "address",
          "name": "",
          "type": "address"
        }
      ],
      "stateMutability": "view",
      "type": "function"
    },
    {
      "inputs": [
        {
          "internalType": "uint256",
          "name": "tokenId",
          "type": "uint256"
        }
      ],
      "name": "ownerOf",
      "outputs": [
        {
          "internalType": "address",
          "name": "",
          "type": "address"
        }
      ],
      "stateMutability": "view",
      "type": "function"
    },
    {
      "inputs": [],
      "name": "renounceOwnership",
      "outputs": [],
      "stateMutability": "nonpayable",
      "type": "function"
    },
    {
      "inputs": [
        {
          "internalType": "uint256",
          "name": "tokenId",
          "type": "uint256"
        },
        {
          "internalType": "uint256",
          "name": "price",
          "type": "uint256"
        }
      ],
      "name": "royaltyInfo",
      "outputs": [
        {
          "internalType": "address",
          "name": "receiver",
          "type": "address"
        },
        {
          "internalType": "uint256",
          "name": "royaltyAmount",
          "type": "uint256"
        }
      ],
      "stateMutability": "view",
      "type": "function"
    },
    {
      "inputs": [
        {
          "internalType": "address",
          "name": "from",
          "type": "address"
        },
        {
          "internalType": "address",
          "name": "to",
          "type": "address"
        },
        {
          "internalType": "uint256",
          "name": "tokenId",
          "type": "uint256"
        }
      ],
      "name": "safeTransferFrom",
      "outputs": [],
      "stateMutability": "nonpayable",
      "type": "function"
    },
    {
      "inputs": [
        {
          "internalType": "address",
          "name": "from",
          "type": "address"
        },
        {
          "internalType": "address",
          "name": "to",
          "type": "address"
        },
        {
          "internalType": "uint256",
          "name": "tokenId",
          "type": "uint256"
        },
        {
          "internalType": "bytes",
          "name": "_data",
          "type": "bytes"
        }
      ],
      "name": "safeTransferFrom",
      "outputs": [],
      "stateMutability": "nonpayable",
      "type": "function"
    },
    {
      "inputs": [
        {
          "internalType": "address",
          "name": "operator",
          "type": "address"
        },
        {
          "internalType": "bool",
          "name": "approved",
          "type": "bool"
        }
      ],
      "name": "setApprovalForAll",
      "outputs": [],
      "stateMutability": "nonpayable",
      "type": "function"
    },
    {
      "inputs": [
        {
          "internalType": "bytes4",
          "name": "interfaceId",
          "type": "bytes4"
        }
      ],
      "name": "supportsInterface",
      "outputs": [
        {
          "internalType": "bool",
          "name": "",
          "type": "bool"
        }
      ],
      "stateMutability": "view",
      "type": "function"
    },
    {
      "inputs": [],
      "name": "symbol",
      "outputs": [
        {
          "internalType": "string",
          "name": "",
          "type": "string"
        }
      ],
      "stateMutability": "view",
      "type": "function"
    },
    {
      "inputs": [
        {
          "internalType": "uint256",
          "name": "tokenId",
          "type": "uint256"
        }
      ],
      "name": "tokenURI",
      "outputs": [
        {
          "internalType": "string",
          "name": "",
          "type": "string"
        }
      ],
      "stateMutability": "view",
      "type": "function"
    },
    {
      "inputs": [
        {
          "internalType": "address",
          "name": "from",
          "type": "address"
        },
        {
          "internalType": "address",
          "name": "to",
          "type": "address"
        },
        {
          "internalType": "uint256",
          "name": "tokenId",
          "type": "uint256"
        }
      ],
      "name": "transferFrom",
      "outputs": [],
      "stateMutability": "nonpayable",
      "type": "function"
    },
    {
      "inputs": [
        {
          "internalType": "address",
          "name": "newOwner",
          "type": "address"
        }
      ],
      "name": "transferOwnership",
      "outputs": [],
      "stateMutability": "nonpayable",
      "type": "function"
    },
    {
      "inputs": [],
      "name": "trustedForwarder",
      "outputs": [
        {
          "internalType": "address",
          "name": "",
          "type": "address"
        }
      ],
      "stateMutability": "view",
      "type": "function"
    },
    {
      "inputs": [],
      "name": "versionRecipient",
      "outputs": [
        {
          "internalType": "string",
          "name": "",
          "type": "string"
        }
      ],
      "stateMutability": "pure",
      "type": "function"
    }
  ],
  "transactionHash": "0x081f8e65e9eb57b2b353bd1de775b3fd6123eb1e016a0e28c1c109ac374b794c",
  "args": [
    "Non-Fungible Lemon",
    "NFL",
    "0x9399BB24DBB5C4b782C70c2969F58716Ebbd6a3b",
    "0xff7Ca10aF37178BdD056628eF42fD7F799fAc77c"
  ],
  "numDeployments": 2,
  "solcInputHash": "14370ca0d81117eb8baa5b51311dafbb",
  "bytecode": "0x60806040523480156200001157600080fd5b506040516200204e3803806200204e833981016040819052620000349162000346565b83838181816000908051906020019062000050929190620001d5565b50805162000066906001906020840190620001d5565b505050620000836200007d620000ba60201b60201c565b62000131565b5050600a80546001600160a01b039384166001600160a01b031991821617909155600b805492909316911617905550620004259050565b600080333014156200011457600080368080601f0160208091040260200160405190810160405280939291908181526020018383808284376000920191909152505050503601516001600160a01b031691506200012c9050565b620001296200018360201b62000d1d1760201c565b90505b919050565b600680546001600160a01b038381166001600160a01b0319831681179093556040519116919082907f8be0079c531659141344cd1fd0a4f28419497f9722a3daafe3b4186f6b6457e090600090a35050565b60006200019a6200019f60201b62000d2c1760201c565b905090565b600060183610801590620001bd5750600a546001600160a01b031633145b15620001d0575060131936013560601c90565b503390565b828054620001e390620003d2565b90600052602060002090601f01602090048101928262000207576000855562000252565b82601f106200022257805160ff191683800117855562000252565b8280016001018555821562000252579182015b828111156200025257825182559160200191906001019062000235565b506200026092915062000264565b5090565b5b8082111562000260576000815560010162000265565b80516001600160a01b03811681146200012c57600080fd5b600082601f830112620002a4578081fd5b81516001600160401b0380821115620002c157620002c16200040f565b604051601f8301601f19908116603f01168101908282118183101715620002ec57620002ec6200040f565b8160405283815260209250868385880101111562000308578485fd5b8491505b838210156200032b57858201830151818301840152908201906200030c565b838211156200033c57848385830101525b9695505050505050565b600080600080608085870312156200035c578384fd5b84516001600160401b038082111562000373578586fd5b620003818883890162000293565b9550602087015191508082111562000397578485fd5b50620003a68782880162000293565b935050620003b7604086016200027b565b9150620003c7606086016200027b565b905092959194509250565b600181811c90821680620003e757607f821691505b602082108114156200040957634e487b7160e01b600052602260045260246000fd5b50919050565b634e487b7160e01b600052604160045260246000fd5b611c1980620004356000396000f3fe608060405234801561001057600080fd5b506004361061014d5760003560e01c80636352211e116100c3578063a22cb4651161007c578063a22cb465146102f4578063b88d4fde14610307578063c87b56dd1461031a578063cad96cca1461032d578063e985e9c51461034d578063f2fde38b1461036057600080fd5b80636352211e1461029a57806370a08231146102ad578063715018a6146102c05780637da0a877146102c85780638da5cb5b146102db57806395d89b41146102ec57600080fd5b806323b872dd1161011557806323b872dd146101f05780632a55205a1461020357806342842e0e14610235578063486ff0cd14610248578063572b6c051461026557806358b4c6bb1461028757600080fd5b806301ffc9a71461015257806306fdde031461017a578063081812fc1461018f578063095ea7b3146101ba578063111fb47b146101cf575b600080fd5b610165610160366004611720565b610373565b60405190151581526020015b60405180910390f35b6101826103b9565b60405161017191906119b8565b6101a261019d366004611896565b61044b565b6040516001600160a01b039091168152602001610171565b6101cd6101c83660046116f5565b6104e5565b005b6101e26101dd366004611758565b61060d565b604051908152602001610171565b6101cd6101fe366004611607565b61065a565b6102166102113660046118ae565b610692565b604080516001600160a01b039093168352602083019190915201610171565b6101cd610243366004611607565b610791565b6040805180820190915260018152603160f81b6020820152610182565b6101656102733660046115b3565b600a546001600160a01b0391821691161490565b6101e261029536600461178b565b6107ac565b6101a26102a8366004611896565b61084e565b6101e26102bb3660046115b3565b6108c5565b6101cd61094c565b600a546101a2906001600160a01b031681565b6006546001600160a01b03166101a2565b6101826109d1565b6101cd6103023660046116c4565b6109e0565b6101cd610315366004611647565b6109f6565b610182610328366004611896565b610a35565b61034061033b366004611896565b610b52565b6040516101719190611957565b61016561035b3660046115cf565b610be1565b6101cd61036e3660046115b3565b610c33565b60006001600160e01b0319821663152a902d60e11b14806103a457506001600160e01b0319821663656cb66560e11b145b806103b357506103b382610d60565b92915050565b6060600080546103c890611b36565b80601f01602080910402602001604051908101604052809291908181526020018280546103f490611b36565b80156104415780601f1061041657610100808354040283529160200191610441565b820191906000526020600020905b81548152906001019060200180831161042457829003601f168201915b5050505050905090565b6000818152600260205260408120546001600160a01b03166104c95760405162461bcd60e51b815260206004820152602c60248201527f4552433732313a20617070726f76656420717565727920666f72206e6f6e657860448201526b34b9ba32b73a103a37b5b2b760a11b60648201526084015b60405180910390fd5b506000908152600460205260409020546001600160a01b031690565b60006104f08261084e565b9050806001600160a01b0316836001600160a01b0316141561055e5760405162461bcd60e51b815260206004820152602160248201527f4552433732313a20617070726f76616c20746f2063757272656e74206f776e656044820152603960f91b60648201526084016104c0565b806001600160a01b0316610570610db0565b6001600160a01b0316148061058c575061058c8161035b610db0565b6105fe5760405162461bcd60e51b815260206004820152603860248201527f4552433732313a20617070726f76652063616c6c6572206973206e6f74206f7760448201527f6e6572206e6f7220617070726f76656420666f7220616c6c000000000000000060648201526084016104c0565b6106088383610e18565b505050565b60008061061960075490565b905061062c610626610db0565b82610e86565b6000818152600860209081526040909120845161064b928601906114a3565b506103b3600780546001019055565b61066b610665610db0565b82610fc8565b6106875760405162461bcd60e51b81526004016104c090611a1d565b61060883838361109f565b6000828152600960205260408120548190806106b557600080925092505061078a565b6000805b828110156107295760008781526009602052604090208054829081106106ef57634e487b7160e01b600052603260045260246000fd5b60009182526020909120015461071590600160a01b90046001600160601b031683611ac8565b91508061072181611b71565b9150506106b9565b506000868152600960205260408120805490919061075757634e487b7160e01b600052603260045260246000fd5b6000918252602090912001546001600160a01b03166127106107798388611b00565b6107839190611ae0565b9350935050505b9250929050565b610608838383604051806020016040528060008152506109f6565b6000806107b88461060d565b835190915060005b8181101561084457600083815260096020526040902085518690839081106107f857634e487b7160e01b600052603260045260246000fd5b602090810291909101810151825460018181018555600094855293839020825192909301516001600160601b0316600160a01b026001600160a01b0390921691909117910155016107c0565b5090949350505050565b6000818152600260205260408120546001600160a01b0316806103b35760405162461bcd60e51b815260206004820152602960248201527f4552433732313a206f776e657220717565727920666f72206e6f6e657869737460448201526832b73a103a37b5b2b760b91b60648201526084016104c0565b60006001600160a01b0382166109305760405162461bcd60e51b815260206004820152602a60248201527f4552433732313a2062616c616e636520717565727920666f7220746865207a65604482015269726f206164647265737360b01b60648201526084016104c0565b506001600160a01b031660009081526003602052604090205490565b610954610db0565b6001600160a01b031661096f6006546001600160a01b031690565b6001600160a01b0316146109c55760405162461bcd60e51b815260206004820181905260248201527f4f776e61626c653a2063616c6c6572206973206e6f7420746865206f776e657260448201526064016104c0565b6109cf600061123b565b565b6060600180546103c890611b36565b6109f26109eb610db0565b838361128d565b5050565b610a07610a01610db0565b83610fc8565b610a235760405162461bcd60e51b81526004016104c090611a1d565b610a2f8484848461135c565b50505050565b6000818152600260205260409020546060906001600160a01b0316610ab45760405162461bcd60e51b815260206004820152602f60248201527f4552433732314c656d6f6e6164653a2055524920717565727920666f72206e6f60448201526e3732bc34b9ba32b73a103a37b5b2b760891b60648201526084016104c0565b60008281526008602052604090208054610acd90611b36565b80601f0160208091040260200160405190810160405280929190818152602001828054610af990611b36565b8015610b465780601f10610b1b57610100808354040283529160200191610b46565b820191906000526020600020905b815481529060010190602001808311610b2957829003601f168201915b50505050509050919050565b606060096000838152602001908152602001600020805480602002602001604051908101604052809291908181526020016000905b82821015610bd657600084815260209081902060408051808201909152908401546001600160a01b0381168252600160a01b90046001600160601b031681830152825260019092019101610b87565b505050509050919050565b600b546000906001600160a01b0383811691161415610c02575060016103b3565b6001600160a01b0380841660009081526005602090815260408083209386168352929052205460ff165b9392505050565b610c3b610db0565b6001600160a01b0316610c566006546001600160a01b031690565b6001600160a01b031614610cac5760405162461bcd60e51b815260206004820181905260248201527f4f776e61626c653a2063616c6c6572206973206e6f7420746865206f776e657260448201526064016104c0565b6001600160a01b038116610d115760405162461bcd60e51b815260206004820152602660248201527f4f776e61626c653a206e6577206f776e657220697320746865207a65726f206160448201526564647265737360d01b60648201526084016104c0565b610d1a8161123b565b50565b6000610d27610d2c565b905090565b600060183610801590610d495750600a546001600160a01b031633145b15610d5b575060131936013560601c90565b503390565b60006001600160e01b031982166380ac58cd60e01b1480610d9157506001600160e01b03198216635b5e139f60e01b145b806103b357506301ffc9a760e01b6001600160e01b03198316146103b3565b60008033301415610e0857600080368080601f0160208091040260200160405190810160405280939291908181526020018383808284376000920191909152505050503601516001600160a01b03169150610e139050565b610e10610d1d565b90505b919050565b600081815260046020526040902080546001600160a01b0319166001600160a01b0384169081179091558190610e4d8261084e565b6001600160a01b03167f8c5be1e5ebec7d5bd14f71427d1e84f3dd0314c0f7b2291e5b200ac8c7c3b92560405160405180910390a45050565b6001600160a01b038216610edc5760405162461bcd60e51b815260206004820181905260248201527f4552433732313a206d696e7420746f20746865207a65726f206164647265737360448201526064016104c0565b6000818152600260205260409020546001600160a01b031615610f415760405162461bcd60e51b815260206004820152601c60248201527f4552433732313a20746f6b656e20616c7265616479206d696e7465640000000060448201526064016104c0565b6001600160a01b0382166000908152600360205260408120805460019290610f6a908490611ac8565b909155505060008181526002602052604080822080546001600160a01b0319166001600160a01b03861690811790915590518392907fddf252ad1be2c89b69c2b068fc378daa952ba7f163c4a11628f55a4df523b3ef908290a45050565b6000818152600260205260408120546001600160a01b03166110415760405162461bcd60e51b815260206004820152602c60248201527f4552433732313a206f70657261746f7220717565727920666f72206e6f6e657860448201526b34b9ba32b73a103a37b5b2b760a11b60648201526084016104c0565b600061104c8361084e565b9050806001600160a01b0316846001600160a01b0316148061107357506110738185610be1565b806110975750836001600160a01b031661108c8461044b565b6001600160a01b0316145b949350505050565b826001600160a01b03166110b28261084e565b6001600160a01b0316146111165760405162461bcd60e51b815260206004820152602560248201527f4552433732313a207472616e736665722066726f6d20696e636f72726563742060448201526437bbb732b960d91b60648201526084016104c0565b6001600160a01b0382166111785760405162461bcd60e51b8152602060048201526024808201527f4552433732313a207472616e7366657220746f20746865207a65726f206164646044820152637265737360e01b60648201526084016104c0565b611183600082610e18565b6001600160a01b03831660009081526003602052604081208054600192906111ac908490611b1f565b90915550506001600160a01b03821660009081526003602052604081208054600192906111da908490611ac8565b909155505060008181526002602052604080822080546001600160a01b0319166001600160a01b0386811691821790925591518493918716917fddf252ad1be2c89b69c2b068fc378daa952ba7f163c4a11628f55a4df523b3ef91a4505050565b600680546001600160a01b038381166001600160a01b0319831681179093556040519116919082907f8be0079c531659141344cd1fd0a4f28419497f9722a3daafe3b4186f6b6457e090600090a35050565b816001600160a01b0316836001600160a01b031614156112ef5760405162461bcd60e51b815260206004820152601960248201527f4552433732313a20617070726f766520746f2063616c6c65720000000000000060448201526064016104c0565b6001600160a01b03838116600081815260056020908152604080832094871680845294825291829020805460ff191686151590811790915591519182527f17307eab39ab6107e8899845ad3d59bd9653f200f220920489ca2b5937696c31910160405180910390a3505050565b61136784848461109f565b6113738484848461138f565b610a2f5760405162461bcd60e51b81526004016104c0906119cb565b60006001600160a01b0384163b1561149857836001600160a01b031663150b7a026113b8610db0565b8786866040518563ffffffff1660e01b81526004016113da949392919061191a565b602060405180830381600087803b1580156113f457600080fd5b505af1925050508015611424575060408051601f3d908101601f191682019092526114219181019061173c565b60015b61147e573d808015611452576040519150601f19603f3d011682016040523d82523d6000602084013e611457565b606091505b5080516114765760405162461bcd60e51b81526004016104c0906119cb565b805181602001fd5b6001600160e01b031916630a85bd0160e11b149050611097565b506001949350505050565b8280546114af90611b36565b90600052602060002090601f0160209004810192826114d15760008555611517565b82601f106114ea57805160ff1916838001178555611517565b82800160010185558215611517579182015b828111156115175782518255916020019190600101906114fc565b50611523929150611527565b5090565b5b808211156115235760008155600101611528565b600067ffffffffffffffff83111561155657611556611ba2565b611569601f8401601f1916602001611a97565b905082815283838301111561157d57600080fd5b828260208301376000602084830101529392505050565b600082601f8301126115a4578081fd5b610c2c8383356020850161153c565b6000602082840312156115c4578081fd5b8135610c2c81611bb8565b600080604083850312156115e1578081fd5b82356115ec81611bb8565b915060208301356115fc81611bb8565b809150509250929050565b60008060006060848603121561161b578081fd5b833561162681611bb8565b9250602084013561163681611bb8565b929592945050506040919091013590565b6000806000806080858703121561165c578081fd5b843561166781611bb8565b9350602085013561167781611bb8565b925060408501359150606085013567ffffffffffffffff811115611699578182fd5b8501601f810187136116a9578182fd5b6116b88782356020840161153c565b91505092959194509250565b600080604083850312156116d6578182fd5b82356116e181611bb8565b9150602083013580151581146115fc578182fd5b60008060408385031215611707578182fd5b823561171281611bb8565b946020939093013593505050565b600060208284031215611731578081fd5b8135610c2c81611bcd565b60006020828403121561174d578081fd5b8151610c2c81611bcd565b600060208284031215611769578081fd5b813567ffffffffffffffff81111561177f578182fd5b61109784828501611594565b600080604080848603121561179e578283fd5b833567ffffffffffffffff808211156117b5578485fd5b6117c187838801611594565b94506020915081860135818111156117d7578485fd5b8601601f810188136117e7578485fd5b8035828111156117f9576117f9611ba2565b611807848260051b01611a97565b8181528481019350828501600683901b840186018b1015611826578788fd5b8793505b828410156118855786818c031215611840578788fd5b611848611a6e565b813561185381611bb8565b8152818701356001600160601b038116811461186d57898afd5b8188015285529385019360019390930192860161182a565b508096505050505050509250929050565b6000602082840312156118a7578081fd5b5035919050565b600080604083850312156118c0578182fd5b50508035926020909101359150565b60008151808452815b818110156118f4576020818501810151868301820152016118d8565b818111156119055782602083870101525b50601f01601f19169290920160200192915050565b6001600160a01b038581168252841660208201526040810183905260806060820181905260009061194d908301846118cf565b9695505050505050565b602080825282518282018190526000919060409081850190868401855b828110156119ab57815180516001600160a01b031685528601516001600160601b0316868501529284019290850190600101611974565b5091979650505050505050565b602081526000610c2c60208301846118cf565b60208082526032908201527f4552433732313a207472616e7366657220746f206e6f6e20455243373231526560408201527131b2b4bb32b91034b6b83632b6b2b73a32b960711b606082015260800190565b60208082526031908201527f4552433732313a207472616e736665722063616c6c6572206973206e6f74206f6040820152701ddb995c881b9bdc88185c1c1c9bdd9959607a1b606082015260800190565b6040805190810167ffffffffffffffff81118282101715611a9157611a91611ba2565b60405290565b604051601f8201601f1916810167ffffffffffffffff81118282101715611ac057611ac0611ba2565b604052919050565b60008219821115611adb57611adb611b8c565b500190565b600082611afb57634e487b7160e01b81526012600452602481fd5b500490565b6000816000190483118215151615611b1a57611b1a611b8c565b500290565b600082821015611b3157611b31611b8c565b500390565b600181811c90821680611b4a57607f821691505b60208210811415611b6b57634e487b7160e01b600052602260045260246000fd5b50919050565b6000600019821415611b8557611b85611b8c565b5060010190565b634e487b7160e01b600052601160045260246000fd5b634e487b7160e01b600052604160045260246000fd5b6001600160a01b0381168114610d1a57600080fd5b6001600160e01b031981168114610d1a57600080fdfea26469706673582212207156004fe53a89942acb93ba87d8e50cfe1a6dae2149c64d7db8c9a1deff776b64736f6c63430008040033",
  "devdoc": {
    "kind": "dev",
    "methods": {
      "approve(address,uint256)": {
        "details": "See {IERC721-approve}."
      },
      "balanceOf(address)": {
        "details": "See {IERC721-balanceOf}."
      },
      "getApproved(uint256)": {
        "details": "See {IERC721-getApproved}."
      },
      "isApprovedForAll(address,address)": {
        "details": "See {IERC721-isApprovedForAll}."
      },
      "name()": {
        "details": "See {IERC721Metadata-name}."
      },
      "owner()": {
        "details": "Returns the address of the current owner."
      },
      "ownerOf(uint256)": {
        "details": "See {IERC721-ownerOf}."
      },
      "renounceOwnership()": {
        "details": "Leaves the contract without owner. It will not be possible to call `onlyOwner` functions anymore. Can only be called by the current owner. NOTE: Renouncing ownership will leave the contract without an owner, thereby removing any functionality that is only available to the owner."
      },
      "safeTransferFrom(address,address,uint256)": {
        "details": "See {IERC721-safeTransferFrom}."
      },
      "safeTransferFrom(address,address,uint256,bytes)": {
        "details": "See {IERC721-safeTransferFrom}."
      },
      "setApprovalForAll(address,bool)": {
        "details": "See {IERC721-setApprovalForAll}."
      },
      "supportsInterface(bytes4)": {
        "details": "See {IERC165-supportsInterface}."
      },
      "symbol()": {
        "details": "See {IERC721Metadata-symbol}."
      },
      "tokenURI(uint256)": {
        "details": "See {IERC721Metadata-tokenURI}."
      },
      "transferFrom(address,address,uint256)": {
        "details": "See {IERC721-transferFrom}."
      },
      "transferOwnership(address)": {
        "details": "Transfers ownership of the contract to a new account (`newOwner`). Can only be called by the current owner."
      }
    },
    "version": 1
  },
  "userdoc": {
    "kind": "user",
    "methods": {
      "isTrustedForwarder(address)": {
        "notice": "return if the forwarder is trusted to forward relayed transactions to us. the forwarder is required to verify the sender's signature, and verify the call is not a replay."
      }
    },
    "version": 1
  },
  "storageLayout": {
    "storage": [
      {
        "astId": 3538,
        "contract": "contracts/ERC721LemonadeV1Polygon.sol:ERC721LemonadeV1Polygon",
        "label": "_name",
        "offset": 0,
        "slot": "0",
        "type": "t_string_storage"
      },
      {
        "astId": 3540,
        "contract": "contracts/ERC721LemonadeV1Polygon.sol:ERC721LemonadeV1Polygon",
        "label": "_symbol",
        "offset": 0,
        "slot": "1",
        "type": "t_string_storage"
      },
      {
        "astId": 3544,
        "contract": "contracts/ERC721LemonadeV1Polygon.sol:ERC721LemonadeV1Polygon",
        "label": "_owners",
        "offset": 0,
        "slot": "2",
        "type": "t_mapping(t_uint256,t_address)"
      },
      {
        "astId": 3548,
        "contract": "contracts/ERC721LemonadeV1Polygon.sol:ERC721LemonadeV1Polygon",
        "label": "_balances",
        "offset": 0,
        "slot": "3",
        "type": "t_mapping(t_address,t_uint256)"
      },
      {
        "astId": 3552,
        "contract": "contracts/ERC721LemonadeV1Polygon.sol:ERC721LemonadeV1Polygon",
        "label": "_tokenApprovals",
        "offset": 0,
        "slot": "4",
        "type": "t_mapping(t_uint256,t_address)"
      },
      {
        "astId": 3558,
        "contract": "contracts/ERC721LemonadeV1Polygon.sol:ERC721LemonadeV1Polygon",
        "label": "_operatorApprovals",
        "offset": 0,
        "slot": "5",
        "type": "t_mapping(t_address,t_mapping(t_address,t_bool))"
      },
      {
        "astId": 2726,
        "contract": "contracts/ERC721LemonadeV1Polygon.sol:ERC721LemonadeV1Polygon",
        "label": "_owner",
        "offset": 0,
        "slot": "6",
        "type": "t_address"
      },
      {
        "astId": 6436,
        "contract": "contracts/ERC721LemonadeV1Polygon.sol:ERC721LemonadeV1Polygon",
        "label": "_tokenIdTracker",
        "offset": 0,
        "slot": "7",
        "type": "t_struct(Counter)4909_storage"
      },
      {
        "astId": 6440,
        "contract": "contracts/ERC721LemonadeV1Polygon.sol:ERC721LemonadeV1Polygon",
        "label": "_tokenURIs",
        "offset": 0,
        "slot": "8",
        "type": "t_mapping(t_uint256,t_string_storage)"
      },
      {
        "astId": 6446,
        "contract": "contracts/ERC721LemonadeV1Polygon.sol:ERC721LemonadeV1Polygon",
        "label": "_royalties",
        "offset": 0,
        "slot": "9",
        "type": "t_mapping(t_uint256,t_array(t_struct(Part)9468_storage)dyn_storage)"
      },
      {
        "astId": 9379,
        "contract": "contracts/ERC721LemonadeV1Polygon.sol:ERC721LemonadeV1Polygon",
        "label": "trustedForwarder",
        "offset": 0,
        "slot": "10",
        "type": "t_address"
      },
      {
        "astId": 6785,
        "contract": "contracts/ERC721LemonadeV1Polygon.sol:ERC721LemonadeV1Polygon",
        "label": "_trustedOperator",
        "offset": 0,
        "slot": "11",
        "type": "t_address"
      }
    ],
    "types": {
      "t_address": {
        "encoding": "inplace",
        "label": "address",
        "numberOfBytes": "20"
      },
      "t_address_payable": {
        "encoding": "inplace",
        "label": "address payable",
        "numberOfBytes": "20"
      },
      "t_array(t_struct(Part)9468_storage)dyn_storage": {
        "base": "t_struct(Part)9468_storage",
        "encoding": "dynamic_array",
        "label": "struct LibPart.Part[]",
        "numberOfBytes": "32"
      },
      "t_bool": {
        "encoding": "inplace",
        "label": "bool",
        "numberOfBytes": "1"
      },
      "t_mapping(t_address,t_bool)": {
        "encoding": "mapping",
        "key": "t_address",
        "label": "mapping(address => bool)",
        "numberOfBytes": "32",
        "value": "t_bool"
      },
      "t_mapping(t_address,t_mapping(t_address,t_bool))": {
        "encoding": "mapping",
        "key": "t_address",
        "label": "mapping(address => mapping(address => bool))",
        "numberOfBytes": "32",
        "value": "t_mapping(t_address,t_bool)"
      },
      "t_mapping(t_address,t_uint256)": {
        "encoding": "mapping",
        "key": "t_address",
        "label": "mapping(address => uint256)",
        "numberOfBytes": "32",
        "value": "t_uint256"
      },
      "t_mapping(t_uint256,t_address)": {
        "encoding": "mapping",
        "key": "t_uint256",
        "label": "mapping(uint256 => address)",
        "numberOfBytes": "32",
        "value": "t_address"
      },
      "t_mapping(t_uint256,t_array(t_struct(Part)9468_storage)dyn_storage)": {
        "encoding": "mapping",
        "key": "t_uint256",
        "label": "mapping(uint256 => struct LibPart.Part[])",
        "numberOfBytes": "32",
        "value": "t_array(t_struct(Part)9468_storage)dyn_storage"
      },
      "t_mapping(t_uint256,t_string_storage)": {
        "encoding": "mapping",
        "key": "t_uint256",
        "label": "mapping(uint256 => string)",
        "numberOfBytes": "32",
        "value": "t_string_storage"
      },
      "t_string_storage": {
        "encoding": "bytes",
        "label": "string",
        "numberOfBytes": "32"
      },
      "t_struct(Counter)4909_storage": {
        "encoding": "inplace",
        "label": "struct Counters.Counter",
        "members": [
          {
            "astId": 4908,
            "contract": "contracts/ERC721LemonadeV1Polygon.sol:ERC721LemonadeV1Polygon",
            "label": "_value",
            "offset": 0,
            "slot": "0",
            "type": "t_uint256"
          }
        ],
        "numberOfBytes": "32"
      },
      "t_struct(Part)9468_storage": {
        "encoding": "inplace",
        "label": "struct LibPart.Part",
        "members": [
          {
            "astId": 9465,
            "contract": "contracts/ERC721LemonadeV1Polygon.sol:ERC721LemonadeV1Polygon",
            "label": "account",
            "offset": 0,
            "slot": "0",
            "type": "t_address_payable"
          },
          {
            "astId": 9467,
            "contract": "contracts/ERC721LemonadeV1Polygon.sol:ERC721LemonadeV1Polygon",
            "label": "value",
            "offset": 20,
            "slot": "0",
            "type": "t_uint96"
          }
        ],
        "numberOfBytes": "32"
      },
      "t_uint256": {
        "encoding": "inplace",
        "label": "uint256",
        "numberOfBytes": "32"
      },
      "t_uint96": {
        "encoding": "inplace",
        "label": "uint96",
        "numberOfBytes": "12"
      }
    }
  }
}