{
  "address": "0xf25521D6642834D2bFDf533Ce43899336fa9F4Bb",
  "abi": [
    {
      "inputs": [
        {
          "internalType": "address",
          "name": "feeAccount",
          "type": "address"
        },
        {
          "internalType": "uint96",
          "name": "feeValue",
          "type": "uint96"
        },
        {
          "internalType": "address",
          "name": "trustedForwarder",
          "type": "address"
        }
      ],
      "stateMutability": "nonpayable",
      "type": "constructor"
    },
    {
      "anonymous": false,
      "inputs": [
        {
          "indexed": true,
          "internalType": "uint256",
          "name": "orderId",
          "type": "uint256"
        },
        {
          "indexed": true,
          "internalType": "address",
          "name": "bidder",
          "type": "address"
        },
        {
          "indexed": false,
          "internalType": "uint256",
          "name": "bidAmount",
          "type": "uint256"
        }
      ],
      "name": "OrderBid",
      "type": "event"
    },
    {
      "anonymous": false,
      "inputs": [
        {
          "indexed": true,
          "internalType": "uint256",
          "name": "orderId",
          "type": "uint256"
        }
      ],
      "name": "OrderCancelled",
      "type": "event"
    },
    {
      "anonymous": false,
      "inputs": [
        {
          "indexed": true,
          "internalType": "uint256",
          "name": "orderId",
          "type": "uint256"
        },
        {
          "indexed": false,
          "internalType": "enum LemonadeMarketplaceV2.OrderKind",
          "name": "kind",
          "type": "uint8"
        },
        {
          "indexed": false,
          "internalType": "uint256",
          "name": "openFrom",
          "type": "uint256"
        },
        {
          "indexed": false,
          "internalType": "uint256",
          "name": "openTo",
          "type": "uint256"
        },
        {
          "indexed": true,
          "internalType": "address",
          "name": "maker",
          "type": "address"
        },
        {
          "indexed": false,
          "internalType": "address",
          "name": "currency",
          "type": "address"
        },
        {
          "indexed": false,
          "internalType": "uint256",
          "name": "price",
          "type": "uint256"
        },
        {
          "indexed": false,
          "internalType": "address",
          "name": "tokenContract",
          "type": "address"
        },
        {
          "indexed": false,
          "internalType": "uint256",
          "name": "tokenId",
          "type": "uint256"
        }
      ],
      "name": "OrderCreated",
      "type": "event"
    },
    {
      "anonymous": false,
      "inputs": [
        {
          "indexed": true,
          "internalType": "uint256",
          "name": "orderId",
          "type": "uint256"
        },
        {
          "indexed": true,
          "internalType": "address",
          "name": "taker",
          "type": "address"
        },
        {
          "indexed": false,
          "internalType": "uint256",
          "name": "paidAmount",
          "type": "uint256"
        }
      ],
      "name": "OrderFilled",
      "type": "event"
    },
    {
      "anonymous": false,
      "inputs": [
        {
          "indexed": true,
          "internalType": "bytes32",
          "name": "role",
          "type": "bytes32"
        },
        {
          "indexed": true,
          "internalType": "bytes32",
          "name": "previousAdminRole",
          "type": "bytes32"
        },
        {
          "indexed": true,
          "internalType": "bytes32",
          "name": "newAdminRole",
          "type": "bytes32"
        }
      ],
      "name": "RoleAdminChanged",
      "type": "event"
    },
    {
      "anonymous": false,
      "inputs": [
        {
          "indexed": true,
          "internalType": "bytes32",
          "name": "role",
          "type": "bytes32"
        },
        {
          "indexed": true,
          "internalType": "address",
          "name": "account",
          "type": "address"
        },
        {
          "indexed": true,
          "internalType": "address",
          "name": "sender",
          "type": "address"
        }
      ],
      "name": "RoleGranted",
      "type": "event"
    },
    {
      "anonymous": false,
      "inputs": [
        {
          "indexed": true,
          "internalType": "bytes32",
          "name": "role",
          "type": "bytes32"
        },
        {
          "indexed": true,
          "internalType": "address",
          "name": "account",
          "type": "address"
        },
        {
          "indexed": true,
          "internalType": "address",
          "name": "sender",
          "type": "address"
        }
      ],
      "name": "RoleRevoked",
      "type": "event"
    },
    {
      "inputs": [],
      "name": "DEFAULT_ADMIN_ROLE",
      "outputs": [
        {
          "internalType": "bytes32",
          "name": "",
          "type": "bytes32"
        }
      ],
      "stateMutability": "view",
      "type": "function"
    },
    {
      "inputs": [
        {
          "internalType": "uint256",
          "name": "orderId",
          "type": "uint256"
        },
        {
          "internalType": "uint256",
          "name": "amount",
          "type": "uint256"
        },
        {
          "internalType": "address",
          "name": "subject",
          "type": "address"
        }
      ],
      "name": "bidOrder",
      "outputs": [],
      "stateMutability": "payable",
      "type": "function"
    },
    {
      "inputs": [
        {
          "internalType": "uint256",
          "name": "orderId",
          "type": "uint256"
        }
      ],
      "name": "cancelOrder",
      "outputs": [],
      "stateMutability": "nonpayable",
      "type": "function"
    },
    {
      "inputs": [
        {
          "internalType": "enum LemonadeMarketplaceV2.OrderKind",
          "name": "kind",
          "type": "uint8"
        },
        {
          "internalType": "uint256",
          "name": "openFrom",
          "type": "uint256"
        },
        {
          "internalType": "uint256",
          "name": "openTo",
          "type": "uint256"
        },
        {
          "internalType": "address",
          "name": "currency",
          "type": "address"
        },
        {
          "internalType": "uint256",
          "name": "price",
          "type": "uint256"
        },
        {
          "internalType": "address",
          "name": "tokenContract",
          "type": "address"
        },
        {
          "internalType": "uint256",
          "name": "tokenId",
          "type": "uint256"
        }
      ],
      "name": "createOrder",
      "outputs": [
        {
          "internalType": "uint256",
          "name": "",
          "type": "uint256"
        }
      ],
      "stateMutability": "nonpayable",
      "type": "function"
    },
    {
      "inputs": [],
      "name": "feeAccount",
      "outputs": [
        {
          "internalType": "address",
          "name": "",
          "type": "address"
        }
      ],
      "stateMutability": "view",
      "type": "function"
    },
    {
      "inputs": [],
      "name": "feeValue",
      "outputs": [
        {
          "internalType": "uint96",
          "name": "",
          "type": "uint96"
        }
      ],
      "stateMutability": "view",
      "type": "function"
    },
    {
      "inputs": [
        {
          "internalType": "uint256",
          "name": "orderId",
          "type": "uint256"
        },
        {
          "internalType": "uint256",
          "name": "amount",
          "type": "uint256"
        },
        {
          "internalType": "address",
          "name": "subject",
          "type": "address"
        }
      ],
      "name": "fillOrder",
      "outputs": [],
      "stateMutability": "payable",
      "type": "function"
    },
    {
      "inputs": [
        {
          "internalType": "address",
          "name": "tokenContract",
          "type": "address"
        },
        {
          "internalType": "uint256",
          "name": "tokenId",
          "type": "uint256"
        }
      ],
      "name": "getRaribleV2Royalties",
      "outputs": [
        {
          "internalType": "bool",
          "name": "",
          "type": "bool"
        },
        {
          "components": [
            {
              "internalType": "address payable",
              "name": "account",
              "type": "address"
            },
            {
              "internalType": "uint96",
              "name": "value",
              "type": "uint96"
            }
          ],
          "internalType": "struct LibPart.Part[]",
          "name": "",
          "type": "tuple[]"
        }
      ],
      "stateMutability": "view",
      "type": "function"
    },
    {
      "inputs": [
        {
          "internalType": "bytes32",
          "name": "role",
          "type": "bytes32"
        }
      ],
      "name": "getRoleAdmin",
      "outputs": [
        {
          "internalType": "bytes32",
          "name": "",
          "type": "bytes32"
        }
      ],
      "stateMutability": "view",
      "type": "function"
    },
    {
      "inputs": [
        {
          "internalType": "bytes32",
          "name": "role",
          "type": "bytes32"
        },
        {
          "internalType": "uint256",
          "name": "index",
          "type": "uint256"
        }
      ],
      "name": "getRoleMember",
      "outputs": [
        {
          "internalType": "address",
          "name": "",
          "type": "address"
        }
      ],
      "stateMutability": "view",
      "type": "function"
    },
    {
      "inputs": [
        {
          "internalType": "bytes32",
          "name": "role",
          "type": "bytes32"
        }
      ],
      "name": "getRoleMemberCount",
      "outputs": [
        {
          "internalType": "uint256",
          "name": "",
          "type": "uint256"
        }
      ],
      "stateMutability": "view",
      "type": "function"
    },
    {
      "inputs": [
        {
          "internalType": "address",
          "name": "tokenContract",
          "type": "address"
        },
        {
          "internalType": "uint256",
          "name": "tokenId",
          "type": "uint256"
        },
        {
          "internalType": "uint256",
          "name": "paidAmount",
          "type": "uint256"
        }
      ],
      "name": "getRoyaltyInfo",
      "outputs": [
        {
          "internalType": "bool",
          "name": "",
          "type": "bool"
        },
        {
          "internalType": "address",
          "name": "",
          "type": "address"
        },
        {
          "internalType": "uint256",
          "name": "",
          "type": "uint256"
        }
      ],
      "stateMutability": "view",
      "type": "function"
    },
    {
      "inputs": [
        {
          "internalType": "bytes32",
          "name": "role",
          "type": "bytes32"
        },
        {
          "internalType": "address",
          "name": "account",
          "type": "address"
        }
      ],
      "name": "grantRole",
      "outputs": [],
      "stateMutability": "nonpayable",
      "type": "function"
    },
    {
      "inputs": [
        {
          "internalType": "bytes32",
          "name": "role",
          "type": "bytes32"
        },
        {
          "internalType": "address",
          "name": "account",
          "type": "address"
        }
      ],
      "name": "hasRole",
      "outputs": [
        {
          "internalType": "bool",
          "name": "",
          "type": "bool"
        }
      ],
      "stateMutability": "view",
      "type": "function"
    },
    {
      "inputs": [
        {
          "internalType": "address",
          "name": "forwarder",
          "type": "address"
        }
      ],
      "name": "isTrustedForwarder",
      "outputs": [
        {
          "internalType": "bool",
          "name": "",
          "type": "bool"
        }
      ],
      "stateMutability": "view",
      "type": "function"
    },
    {
      "inputs": [
        {
          "internalType": "uint256",
          "name": "orderId",
          "type": "uint256"
        }
      ],
      "name": "order",
      "outputs": [
        {
          "internalType": "enum LemonadeMarketplaceV2.OrderKind",
          "name": "",
          "type": "uint8"
        },
        {
          "internalType": "bool",
          "name": "",
          "type": "bool"
        },
        {
          "internalType": "uint256",
          "name": "",
          "type": "uint256"
        },
        {
          "internalType": "uint256",
          "name": "",
          "type": "uint256"
        },
        {
          "internalType": "address",
          "name": "",
          "type": "address"
        },
        {
          "internalType": "address",
          "name": "",
          "type": "address"
        },
        {
          "internalType": "uint256",
          "name": "",
          "type": "uint256"
        },
        {
          "internalType": "uint256",
          "name": "",
          "type": "uint256"
        },
        {
          "internalType": "address",
          "name": "",
          "type": "address"
        },
        {
          "internalType": "uint256",
          "name": "",
          "type": "uint256"
        }
      ],
      "stateMutability": "view",
      "type": "function"
    },
    {
      "inputs": [],
      "name": "orderIdTracker",
      "outputs": [
        {
          "internalType": "uint256",
          "name": "_value",
          "type": "uint256"
        }
      ],
      "stateMutability": "view",
      "type": "function"
    },
    {
      "inputs": [
        {
          "internalType": "bytes32",
          "name": "role",
          "type": "bytes32"
        },
        {
          "internalType": "address",
          "name": "account",
          "type": "address"
        }
      ],
      "name": "renounceRole",
      "outputs": [],
      "stateMutability": "nonpayable",
      "type": "function"
    },
    {
      "inputs": [
        {
          "internalType": "bytes32",
          "name": "role",
          "type": "bytes32"
        },
        {
          "internalType": "address",
          "name": "account",
          "type": "address"
        }
      ],
      "name": "revokeRole",
      "outputs": [],
      "stateMutability": "nonpayable",
      "type": "function"
    },
    {
      "inputs": [
        {
          "internalType": "bytes4",
          "name": "interfaceId",
          "type": "bytes4"
        }
      ],
      "name": "supportsInterface",
      "outputs": [
        {
          "internalType": "bool",
          "name": "",
          "type": "bool"
        }
      ],
      "stateMutability": "view",
      "type": "function"
    },
    {
      "inputs": [
        {
          "internalType": "uint256",
          "name": "orderId",
          "type": "uint256"
        }
      ],
      "name": "token",
      "outputs": [
        {
          "internalType": "address",
          "name": "",
          "type": "address"
        },
        {
          "internalType": "uint256",
          "name": "",
          "type": "uint256"
        }
      ],
      "stateMutability": "view",
      "type": "function"
    },
    {
      "inputs": [],
      "name": "trustedForwarder",
      "outputs": [
        {
          "internalType": "address",
          "name": "",
          "type": "address"
        }
      ],
      "stateMutability": "view",
      "type": "function"
    },
    {
      "inputs": [],
      "name": "versionRecipient",
      "outputs": [
        {
          "internalType": "string",
          "name": "",
          "type": "string"
        }
      ],
      "stateMutability": "pure",
      "type": "function"
    }
  ],
  "transactionHash": "0x77419a897a0e4cc0ccd7c897d0f520958ce24fb2ab91cbde38aeca6dc44d4436",
  "args": [
    "0xFB756b44060e426731e54e9F433c43c75ee90d9f",
    "200",
    "0x9399BB24DBB5C4b782C70c2969F58716Ebbd6a3b"
  ],
  "numDeployments": 1,
  "solcInputHash": "496552b320c3306e56f723a165cf2c88",
  "bytecode": "0x60c06040523480156200001157600080fd5b50604051620034fa380380620034fa833981016040819052620000349162000272565b606083901b6001600160601b03191660805260a082811b6001600160a01b03191690528083836200007060006200006a6200009c565b620000b8565b5050600480546001600160a01b0319166001600160a01b039290921691909117905550620002c8915050565b6000620000b3620000c860201b620022f21760201c565b905090565b620000c48282620000fe565b5050565b600060183610801590620000e657506004546001600160a01b031633145b15620000f9575060131936013560601c90565b503390565b6200011582826200014160201b620023261760201c565b60008281526001602090815260409091206200013c918390620023ab620001e3821b17901c565b505050565b6000828152602081815260408083206001600160a01b038516845290915290205460ff16620000c4576000828152602081815260408083206001600160a01b03851684529091529020805460ff191660011790556200019f6200009c565b6001600160a01b0316816001600160a01b0316837f2f8788117e7eff1d82e926ec794901d17c78024a50270940304540a733656f0d60405160405180910390a45050565b6000620001fa836001600160a01b03841662000203565b90505b92915050565b60008181526001830160205260408120546200024c57508154600181810184556000848152602080822090930184905584548482528286019093526040902091909155620001fd565b506000620001fd565b80516001600160a01b03811681146200026d57600080fd5b919050565b60008060006060848603121562000287578283fd5b620002928462000255565b60208501519093506001600160601b0381168114620002af578283fd5b9150620002bf6040850162000255565b90509250925092565b60805160601c60a05160a01c6131f862000302600039600081816104650152611ab801526000818161038b0152611af501526131f86000f3fe6080604052600436106101405760003560e01c8063514fcac7116100b657806391d148541161006f57806391d14854146104335780639fddaa9314610453578063a217fddf1461049f578063ca15c873146104b4578063d547741f146104d4578063f74337d4146104f457600080fd5b8063514fcac71461032a578063572b6c051461034a57806365e17c9d146103795780637241fb7d146103c55780637da0a877146103f35780639010d07c1461041357600080fd5b80632a645923116101085780632a6459231461024d5780632f2ff15d1461026257806336568abe1461028257806336de9742146102a257806347dfcc16146102e7578063486ff0cd146102fa57600080fd5b806301ffc9a714610145578063044215c61461017a5780630c109710146101b957806321603f43146101e7578063248a9ca31461021d575b600080fd5b34801561015157600080fd5b50610165610160366004612cd1565b61050b565b60405190151581526020015b60405180910390f35b34801561018657600080fd5b5061019a610195366004612c69565b610536565b604080516001600160a01b039093168352602083019190915201610171565b3480156101c557600080fd5b506101d96101d4366004612cf9565b6105a4565b604051908152602001610171565b3480156101f357600080fd5b50610207610202366004612c69565b610a85565b6040516101719a99989796959493929190612ecb565b34801561022957600080fd5b506101d9610238366004612c69565b60009081526020819052604090206001015490565b61026061025b366004612d6d565b610cce565b005b34801561026e57600080fd5b5061026061027d366004612c81565b6112b7565b34801561028e57600080fd5b5061026061029d366004612c81565b6112e1565b3480156102ae57600080fd5b506102c26102bd366004612b2e565b61136f565b6040805193151584526001600160a01b03909216602084015290820152606001610171565b6102606102f5366004612d6d565b611411565b34801561030657600080fd5b5060408051808201825260018152603160f81b602082015290516101719190612f73565b34801561033657600080fd5b50610260610345366004612c69565b611e58565b34801561035657600080fd5b50610165610365366004612aba565b6004546001600160a01b0391821691161490565b34801561038557600080fd5b506103ad7f000000000000000000000000000000000000000000000000000000000000000081565b6040516001600160a01b039091168152602001610171565b3480156103d157600080fd5b506103e56103e0366004612ad6565b61219a565b604051610171929190612e60565b3480156103ff57600080fd5b506004546103ad906001600160a01b031681565b34801561041f57600080fd5b506103ad61042e366004612cb0565b61226e565b34801561043f57600080fd5b5061016561044e366004612c81565b61228d565b34801561045f57600080fd5b506104877f000000000000000000000000000000000000000000000000000000000000000081565b6040516001600160601b039091168152602001610171565b3480156104ab57600080fd5b506101d9600081565b3480156104c057600080fd5b506101d96104cf366004612c69565b6122b6565b3480156104e057600080fd5b506102606104ef366004612c81565b6122cd565b34801561050057600080fd5b506003546101d99081565b60006001600160e01b03198216635a05180f60e01b14806105305750610530826123c0565b92915050565b600081815260026020526040812060030154819083906001600160a01b031661057a5760405162461bcd60e51b815260040161057190612fa6565b60405180910390fd5b505050600090815260026020526040902060068101546007909101546001600160a01b0390911691565b6000806105b188886123f5565b90506000811161060f5760405162461bcd60e51b815260206004820152603560248201526000805160206131a38339815191526044820152741899481bdc195b88185d081cdbdb59481c1bda5b9d605a1b6064820152608401610571565b600189600181111561063157634e487b7160e01b600052602160045260246000fd5b14156106ca5762278d008111156106ca5760405162461bcd60e51b815260206004820152605160248201527f4c656d6f6e6164654d61726b6574706c6163653a206f72646572206f66206b6960448201527f6e642061756374696f6e206d757374206e6f74206265206f70656e20666f72206064820152706d6f7265207468616e203330206461797360781b608482015260a401610571565b836001600160a01b03166323b872dd6106e1612443565b30866040518463ffffffff1660e01b815260040161070193929190612e3c565b600060405180830381600087803b15801561071b57600080fd5b505af115801561072f573d6000803e3d6000fd5b50505050600061073e60035490565b9050604051806101a001604052808b600181111561076c57634e487b7160e01b600052602160045260246000fd5b81526020016001151581526020018a815260200189815260200161078e612443565b6001600160a01b03908116825289811660208084019190915260408084018b9052918916606084015260808301889052600060a0840181905260c0840181905260e0840181905261010090930183905284835260029052902081518154829060ff19166001838181111561081257634e487b7160e01b600052602160045260246000fd5b02179055506020820151815461ff00191661010091151582021782556040830151600180840191909155606084015160028401556080840151600380850180546001600160a01b03199081166001600160a01b039485161790915560a0870151600487018054831691851691909117905560c0870151600587015560e0870151600687018054831691851691909117905593860151600786015561012086015160088601805486169184169190911790556101408601516009860155610160860151600a8601805490951692169190911790925561018090930151600b909201919091558054909101905560008181526002602052604080822081516101a081019092528054829060ff16600181111561093c57634e487b7160e01b600052602160045260246000fd5b600181111561095b57634e487b7160e01b600052602160045260246000fd5b8152815460ff6101009182900416151560208301526001830154604080840191909152600284015460608085019190915260038501546001600160a01b039081166080808701919091526004870154821660a080880191909152600588015460c0808901919091526006890154841660e0808a019190915260078a0154888a015260088a015485166101208a015260098a01546101408a0152600a8a015485166101608a0152600b909901546101809098019790975290880151885189860151948a0151928a0151978a0151988a0151968a01519551999a509216978a977f4e400f43dce6cc22df28146360114559ffae81b0644d4752872c7def6d77319e97610a6f979496939490939192909190612f2a565b60405180910390a3509998505050505050505050565b6000818152600260205260408120600301548190819081908190819081908190819081908b906001600160a01b0316610ad05760405162461bcd60e51b815260040161057190612fa6565b60008c81526002602052604080822081516101a081019092528054829060ff166001811115610b0f57634e487b7160e01b600052602160045260246000fd5b6001811115610b2e57634e487b7160e01b600052602160045260246000fd5b81526020016000820160019054906101000a900460ff1615151515815260200160018201548152602001600282015481526020016003820160009054906101000a90046001600160a01b03166001600160a01b03166001600160a01b031681526020016004820160009054906101000a90046001600160a01b03166001600160a01b03166001600160a01b03168152602001600582015481526020016006820160009054906101000a90046001600160a01b03166001600160a01b03166001600160a01b03168152602001600782015481526020016008820160009054906101000a90046001600160a01b03166001600160a01b03166001600160a01b0316815260200160098201548152602001600a820160009054906101000a90046001600160a01b03166001600160a01b03166001600160a01b03168152602001600b820154815250509050806000015181602001518260400151836060015184608001518560a001518660c001518761014001518861016001518961018001519b509b509b509b509b509b509b509b509b509b5050509193959799509193959799565b60008381526002602052604090206003015483906001600160a01b0316610d075760405162461bcd60e51b815260040161057190612fa6565b60008481526002602052604080822081516101a081019092528054829060ff166001811115610d4657634e487b7160e01b600052602160045260246000fd5b6001811115610d6557634e487b7160e01b600052602160045260246000fd5b8152815460ff61010091829004161515602083015260018084015460408401526002840154606084015260038401546001600160a01b0390811660808501526004850154811660a0850152600585015460c08501526006850154811660e0850152600785015492840192909252600884015482166101208401526009840154610140840152600a840154909116610160830152600b909201546101809091015290915081516001811115610e2957634e487b7160e01b600052602160045260246000fd5b14610e8a5760405162461bcd60e51b815260206004820152603960248201526000805160206131a383398151915260448201527f6265206f66206b696e642061756374696f6e20746f20626964000000000000006064820152608401610571565b8060200151610ee05760405162461bcd60e51b815260206004820152602e60248201526000805160206131a383398151915260448201526d1899481bdc195b881d1bc8189a5960921b6064820152608401610571565b4281604001511115610f485760405162461bcd60e51b815260206004820152603a60248201526000805160206131a383398151915260448201527f6265206f70656e20746f20626964202d20746f6f206561726c790000000000006064820152608401610571565b42816060015111610faf5760405162461bcd60e51b815260206004820152603960248201526000805160206131a383398151915260448201527f6265206f70656e20746f20626964202d20746f6f206c617465000000000000006064820152608401610571565b838160c0015111156110185760405162461bcd60e51b815260206004820152602c60248201527f4c656d6f6e6164654d61726b6574706c6163653a206d757374206d617463682060448201526b1c1c9a58d9481d1bc8189a5960a21b6064820152608401610571565b60a08101516001600160a01b031615158061103257503484145b61104e5760405162461bcd60e51b815260040161057190612fec565b6101208101516001600160a01b0316156110f05783816101400151106110cb5760405162461bcd60e51b815260206004820152602c60248201527f4c656d6f6e6164654d61726b6574706c6163653a206d7573742073757270617360448201526b1cc8189a59081d1bc8189a5960a21b6064820152608401610571565b610140810151156110f0576110f08160a0015130836101200151846101400151612452565b60006110fa612443565b90506001600160a01b0384166111105780611112565b835b600087815260026020526040908190206008810180546001600160a01b0319166001600160a01b0394909416939093179092556009820187905580516101a081019091528154909190829060ff16600181111561117f57634e487b7160e01b600052602160045260246000fd5b600181111561119e57634e487b7160e01b600052602160045260246000fd5b8152815460ff610100918290041615156020830152600183015460408301526002830154606083015260038301546001600160a01b0390811660808401526004840154811660a0840152600584015460c08401526006840154811660e084015260078401549183019190915260088301548116610120830152600983015461014080840191909152600a840154909116610160830152600b909201546101809091015281015190925015611261576112618260a001518230856101400151612452565b8161012001516001600160a01b0316867f43c168f1d9d74d73325ab680f380bc731699766781190d47b123572b01b2fa288461014001516040516112a791815260200190565b60405180910390a3505050505050565b6000828152602081905260409020600101546112d2816125ca565b6112dc83836125de565b505050565b6112e9612443565b6001600160a01b0316816001600160a01b0316146113615760405162461bcd60e51b815260206004820152602f60248201527f416363657373436f6e74726f6c3a2063616e206f6e6c792072656e6f756e636560448201526e103937b632b9903337b91039b2b63360891b6064820152608401610571565b61136b8282612600565b5050565b60405163152a902d60e11b81526004810183905260248101829052600090819081906001600160a01b03871690632a55205a90604401604080518083038186803b1580156113bc57600080fd5b505afa9250505080156113ec575060408051601f3d908101601f191682019092526113e991810190612b01565b60015b6113fe57506000915081905080611408565b6001945090925090505b93509350939050565b60008381526002602052604090206003015483906001600160a01b031661144a5760405162461bcd60e51b815260040161057190612fa6565b60008481526002602052604080822081516101a081019092528054829060ff16600181111561148957634e487b7160e01b600052602160045260246000fd5b60018111156114a857634e487b7160e01b600052602160045260246000fd5b8152815460ff61010091829004161515602080840191909152600184015460408401526002840154606084015260038401546001600160a01b0390811660808501526004850154811660a0850152600585015460c08501526006850154811660e0850152600785015492840192909252600884015482166101208401526009840154610140840152600a840154909116610160830152600b90920154610180909101528101519091506115a35760405162461bcd60e51b815260206004820152602f60248201526000805160206131a383398151915260448201526e1899481bdc195b881d1bc8199a5b1b608a1b6064820152608401610571565b6000858152600260205260408120805461ff001916905580825160018111156115dc57634e487b7160e01b600052602160045260246000fd5b14156117ca57428260400151111561164a5760405162461bcd60e51b815260206004820152603b60248201526000805160206131a383398151915260448201527f6265206f70656e20746f2066696c6c202d20746f6f206561726c7900000000006064820152608401610571565b6060820151158061165e5750428260600151115b6116be5760405162461bcd60e51b815260206004820152603a60248201526000805160206131a383398151915260448201527f6265206f70656e20746f2066696c6c202d20746f6f206c6174650000000000006064820152608401610571565b848260c0015111156117385760405162461bcd60e51b815260206004820152603a60248201527f4c656d6f6e6164654d61726b6574706c6163653a206d757374206d617463682060448201527f707269636520746f2066696c6c20646972656374206f726465720000000000006064820152608401610571565b60a08201516001600160a01b031615158061175257503485145b61176e5760405162461bcd60e51b815260040161057190612fec565b611776612443565b90506001600160a01b03841661178c578061178e565b835b6000878152600260205260409020600a810180546001600160a01b0319166001600160a01b039390931692909217909155600b01859055611999565b6001825160018111156117ed57634e487b7160e01b600052602160045260246000fd5b1415611999576101208201516001600160a01b03166118625760405162461bcd60e51b815260206004820152603e60248201526000805160206131a383398151915260448201527f686176652062696420746f2066696c6c2061756374696f6e206f7264657200006064820152608401610571565b61186a612443565b6001600160a01b03168261012001516001600160a01b0316148015611893575042826060015111155b806118ba57506118a1612443565b6001600160a01b031682608001516001600160a01b0316145b806118cd57506118cd600061044e612443565b6119545760405162461bcd60e51b815260206004820152604c60248201527f4c656d6f6e6164654d61726b6574706c6163653a206d7573742062652074686560448201527f206d616b6572206f722066696e616c2062696464657220746f2066696c6c206160648201526b3ab1ba34b7b71037b93232b960a11b608482015260a401610571565b506101208101516000868152600260205260409020600a810180546001600160a01b0319166001600160a01b0390931692909217909155610140820151600b90910155305b6000868152600260205260409081902081516101a081019092528054829060ff1660018111156119d957634e487b7160e01b600052602160045260246000fd5b60018111156119f857634e487b7160e01b600052602160045260246000fd5b8152815460ff610100918290041615156020830152600183015460408301526002830154606083015260038301546001600160a01b0390811660808401526004840154811660a0840152600584015460c08401526006840154811660e0840152600784015491830191909152600883015481166101208301526009830154610140830152600a83015416610160820152600b909101546101809182015281015190925015611da2576101808201516000612710611ade6001600160601b037f000000000000000000000000000000000000000000000000000000000000000016846130cd565b611ae891906130ad565b9050611b1a8460a00151847f000000000000000000000000000000000000000000000000000000000000000084612452565b611b2481836130ec565b9150600080611b3c8660e0015187610100015161219a565b915091508115611c9557805160005b81811015611c8e57828181518110611b7357634e487b7160e01b600052603260045260246000fd5b6020026020010151600001516001600160a01b031688608001516001600160a01b031614158015611bd857506000838281518110611bc157634e487b7160e01b600052603260045260246000fd5b6020026020010151602001516001600160601b0316115b15611c7c576000612710848381518110611c0257634e487b7160e01b600052603260045260246000fd5b6020026020010151602001516001600160601b03168a6101800151611c2791906130cd565b611c3191906130ad565b9050611c6e8960a0015189868581518110611c5c57634e487b7160e01b600052603260045260246000fd5b60200260200101516000015184612452565b611c7881886130ec565b9650505b80611c8681613146565b915050611b4b565b5050611d0e565b6000806000611cb38960e001518a61010001518b610180015161136f565b925092509250828015611cdc5750816001600160a01b031689608001516001600160a01b031614155b8015611ce85750600081115b15611d0a57611cfd8960a00151898484612452565b611d0781886130ec565b96505b5050505b8315611d3557611d288660a0015186886080015187612452565b611d3284806130ec565b93505b8315611d9d5760405162461bcd60e51b815260206004820152603160248201527f4c656d6f6e6164654d61726b6574706c6163653a207472616e7366657220616d6044820152706f756e74206d757374206265207a65726f60781b6064820152608401610571565b505050505b60e08201516101608301516101008401516040516323b872dd60e01b81526001600160a01b03909316926323b872dd92611de0923092600401612e3c565b600060405180830381600087803b158015611dfa57600080fd5b505af1158015611e0e573d6000803e3d6000fd5b505050508161016001516001600160a01b0316867f1e7abafb1a786c4e6394b5c494f50a97e3802ff2ce462eca4fe6a2dd4e1f92e88461018001516040516112a791815260200190565b60008181526002602052604090206003015481906001600160a01b0316611e915760405162461bcd60e51b815260040161057190612fa6565b60008281526002602052604080822081516101a081019092528054829060ff166001811115611ed057634e487b7160e01b600052602160045260246000fd5b6001811115611eef57634e487b7160e01b600052602160045260246000fd5b8152815460ff610100918290041615156020830152600183015460408301526002830154606083015260038301546001600160a01b0390811660808401526004840154811660a0840152600584015460c08401526006840154811660e0840152600784015491830191909152600883015481166101208301526009830154610140830152600a83015416610160820152600b90910154610180909101529050611f96612443565b6001600160a01b031681608001516001600160a01b03161480611fc15750611fc1600061044e612443565b6120265760405162461bcd60e51b815260206004820152603060248201527f4c656d6f6e6164654d61726b6574706c6163653a206d7573742062652074686560448201526f081b585ad95c881d1bc818d85b98d95b60821b6064820152608401610571565b806020015161207f5760405162461bcd60e51b815260206004820152603160248201526000805160206131a38339815191526044820152701899481bdc195b881d1bc818d85b98d95b607a1b6064820152608401610571565b6101208101516001600160a01b0316156120e75760405162461bcd60e51b815260206004820152603560248201526000805160206131a38339815191526044820152741a185d99481b9bc8189a59081d1bc818d85b98d95b605a1b6064820152608401610571565b60e081015160808201516101008301516040516323b872dd60e01b81526001600160a01b03909316926323b872dd92612124923092600401612e3c565b600060405180830381600087803b15801561213e57600080fd5b505af1158015612152573d6000803e3d6000fd5b505050600084815260026020526040808220805461ff0019169055518592507f61b9399f2f0f32ca39ce8d7be32caed5ec22fe07a6daba3a467ed479ec6065829190a2505050565b60405163656cb66560e11b8152600481018290526000906060906001600160a01b0385169063cad96cca9060240160006040518083038186803b1580156121e057600080fd5b505afa92505050801561221557506040513d6000823e601f3d908101601f191682016040526122129190810190612b62565b60015b612260576040805160008082526020820190925281612256565b604080518082019091526000808252602082015281526020019060019003908161222f5790505b5091509150612267565b6001925090505b9250929050565b60008281526001602052604081206122869083612622565b9392505050565b6000918252602082815260408084206001600160a01b0393909316845291905290205460ff1690565b60008181526001602052604081206105309061262e565b6000828152602081905260409020600101546122e8816125ca565b6112dc8383612600565b60006018361080159061230f57506004546001600160a01b031633145b15612321575060131936013560601c90565b503390565b612330828261228d565b61136b576000828152602081815260408083206001600160a01b03851684529091529020805460ff19166001179055612367612443565b6001600160a01b0316816001600160a01b0316837f2f8788117e7eff1d82e926ec794901d17c78024a50270940304540a733656f0d60405160405180910390a45050565b6000612286836001600160a01b038416612638565b60006001600160e01b03198216637965db0b60e01b148061053057506301ffc9a760e01b6001600160e01b0319831614610530565b6000804284106124055783612407565b425b905060008315612417578361241b565b6000195b90508082111561243057600092505050610530565b61243a82826130ec565b95945050505050565b600061244d6122f2565b905090565b6001600160a01b0384166124ad576001600160a01b03821630146124a8576040516001600160a01b0383169082156108fc029083906000818181858888f193505050501580156124a6573d6000803e3d6000fd5b505b6125c4565b6001600160a01b0383163014156125405760405163a9059cbb60e01b81526001600160a01b0383811660048301526024820183905285169063a9059cbb90604401602060405180830381600087803b15801561250857600080fd5b505af115801561251c573d6000803e3d6000fd5b505050506040513d601f19601f820116820180604052508101906124a69190612c49565b6040516323b872dd60e01b81526001600160a01b038516906323b872dd9061257090869086908690600401612e3c565b602060405180830381600087803b15801561258a57600080fd5b505af115801561259e573d6000803e3d6000fd5b505050506040513d601f19601f820116820180604052508101906125c29190612c49565b505b50505050565b6125db816125d6612443565b612687565b50565b6125e88282612326565b60008281526001602052604090206112dc90826123ab565b61260a82826126eb565b60008281526001602052604090206112dc908261276e565b60006122868383612783565b6000610530825490565b600081815260018301602052604081205461267f57508154600181810184556000848152602080822090930184905584548482528286019093526040902091909155610530565b506000610530565b612691828261228d565b61136b576126a9816001600160a01b031660146127bb565b6126b48360206127bb565b6040516020016126c5929190612dc7565b60408051601f198184030181529082905262461bcd60e51b825261057191600401612f73565b6126f5828261228d565b1561136b576000828152602081815260408083206001600160a01b03851684529091529020805460ff1916905561272a612443565b6001600160a01b0316816001600160a01b0316837ff6391f5c32d9c69d2a47ea670b442974b53935d1edc7fd64eb21e047a839171b60405160405180910390a45050565b6000612286836001600160a01b03841661299d565b60008260000182815481106127a857634e487b7160e01b600052603260045260246000fd5b9060005260206000200154905092915050565b606060006127ca8360026130cd565b6127d5906002613095565b67ffffffffffffffff8111156127fb57634e487b7160e01b600052604160045260246000fd5b6040519080825280601f01601f191660200182016040528015612825576020820181803683370190505b509050600360fc1b8160008151811061284e57634e487b7160e01b600052603260045260246000fd5b60200101906001600160f81b031916908160001a905350600f60fb1b8160018151811061288b57634e487b7160e01b600052603260045260246000fd5b60200101906001600160f81b031916908160001a90535060006128af8460026130cd565b6128ba906001613095565b90505b600181111561294e576f181899199a1a9b1b9c1cb0b131b232b360811b85600f16601081106128fc57634e487b7160e01b600052603260045260246000fd5b1a60f81b82828151811061292057634e487b7160e01b600052603260045260246000fd5b60200101906001600160f81b031916908160001a90535060049490941c936129478161312f565b90506128bd565b5083156122865760405162461bcd60e51b815260206004820181905260248201527f537472696e67733a20686578206c656e67746820696e73756666696369656e746044820152606401610571565b60008181526001830160205260408120548015612ab05760006129c16001836130ec565b85549091506000906129d5906001906130ec565b9050818114612a56576000866000018281548110612a0357634e487b7160e01b600052603260045260246000fd5b9060005260206000200154905080876000018481548110612a3457634e487b7160e01b600052603260045260246000fd5b6000918252602080832090910192909255918252600188019052604090208390555b8554869080612a7557634e487b7160e01b600052603160045260246000fd5b600190038181906000526020600020016000905590558560010160008681526020019081526020016000206000905560019350505050610530565b6000915050610530565b600060208284031215612acb578081fd5b81356122868161318d565b60008060408385031215612ae8578081fd5b8235612af38161318d565b946020939093013593505050565b60008060408385031215612b13578182fd5b8251612b1e8161318d565b6020939093015192949293505050565b600080600060608486031215612b42578081fd5b8335612b4d8161318d565b95602085013595506040909401359392505050565b60006020808385031215612b74578182fd5b825167ffffffffffffffff80821115612b8b578384fd5b818501915085601f830112612b9e578384fd5b815181811115612bb057612bb0613177565b612bbe848260051b01613064565b8181528481019250838501600683901b85018601891015612bdd578687fd5b8694505b82851015612c3d57604080828b031215612bf9578788fd5b612c0161303b565b8251612c0c8161318d565b8152828801516001600160601b0381168114612c2657898afd5b818901528552600195909501949386019301612be1565b50979650505050505050565b600060208284031215612c5a578081fd5b81518015158114612286578182fd5b600060208284031215612c7a578081fd5b5035919050565b60008060408385031215612c93578182fd5b823591506020830135612ca58161318d565b809150509250929050565b60008060408385031215612cc2578182fd5b50508035926020909101359150565b600060208284031215612ce2578081fd5b81356001600160e01b031981168114612286578182fd5b600080600080600080600060e0888a031215612d13578283fd5b873560028110612d21578384fd5b965060208801359550604088013594506060880135612d3f8161318d565b93506080880135925060a0880135612d568161318d565b8092505060c0880135905092959891949750929550565b600080600060608486031215612d81578081fd5b83359250602084013591506040840135612d9a8161318d565b809150509250925092565b60028110612dc357634e487b7160e01b600052602160045260246000fd5b9052565b7f416363657373436f6e74726f6c3a206163636f756e7420000000000000000000815260008351612dff816017850160208801613103565b7001034b99036b4b9b9b4b733903937b6329607d1b6017918401918201528351612e30816028840160208801613103565b01602801949350505050565b6001600160a01b039384168152919092166020820152604081019190915260600190565b600060408083018515158452602082818601528186518084526060870191508288019350855b81811015612ebd57845180516001600160a01b031684528401516001600160601b0316848401529383019391850191600101612e86565b509098975050505050505050565b6101408101612eda828d612da5565b9915156020820152604081019890985260608801969096526001600160a01b03948516608088015292841660a087015260c086019190915260e08501521661010083015261012090910152919050565b60e08101612f38828a612da5565b602082019790975260408101959095526001600160a01b039384166060860152608085019290925290911660a083015260c090910152919050565b6020815260008251806020840152612f92816040850160208701613103565b601f01601f19169190910160400192915050565b60208082526026908201527f4c656d6f6e6164654d61726b6574706c6163653a206f72646572206e6f6e65786040820152651a5cdd195b9d60d21b606082015260800190565b6020808252602f908201527f4c656d6f6e6164654d61726b6574706c6163653a20616d6f756e74206d75737460408201526e206d617463682074782076616c756560881b606082015260800190565b6040805190810167ffffffffffffffff8111828210171561305e5761305e613177565b60405290565b604051601f8201601f1916810167ffffffffffffffff8111828210171561308d5761308d613177565b604052919050565b600082198211156130a8576130a8613161565b500190565b6000826130c857634e487b7160e01b81526012600452602481fd5b500490565b60008160001904831182151516156130e7576130e7613161565b500290565b6000828210156130fe576130fe613161565b500390565b60005b8381101561311e578181015183820152602001613106565b838111156125c45750506000910152565b60008161313e5761313e613161565b506000190190565b600060001982141561315a5761315a613161565b5060010190565b634e487b7160e01b600052601160045260246000fd5b634e487b7160e01b600052604160045260246000fd5b6001600160a01b03811681146125db57600080fdfe4c656d6f6e6164654d61726b6574706c6163653a206f72646572206d75737420a2646970667358221220ea4827e84342fdaa53229cfa725c3280aac5e7ea39bf8daec9b1bd87f81691ea64736f6c63430008040033",
  "devdoc": {
    "kind": "dev",
    "methods": {
      "getRoleAdmin(bytes32)": {
        "details": "Returns the admin role that controls `role`. See {grantRole} and {revokeRole}. To change a role's admin, use {_setRoleAdmin}."
      },
      "getRoleMember(bytes32,uint256)": {
        "details": "Returns one of the accounts that have `role`. `index` must be a value between 0 and {getRoleMemberCount}, non-inclusive. Role bearers are not sorted in any particular way, and their ordering may change at any point. WARNING: When using {getRoleMember} and {getRoleMemberCount}, make sure you perform all queries on the same block. See the following https://forum.openzeppelin.com/t/iterating-over-elements-on-enumerableset-in-openzeppelin-contracts/2296[forum post] for more information."
      },
      "getRoleMemberCount(bytes32)": {
        "details": "Returns the number of accounts that have `role`. Can be used together with {getRoleMember} to enumerate all bearers of a role."
      },
      "grantRole(bytes32,address)": {
        "details": "Grants `role` to `account`. If `account` had not been already granted `role`, emits a {RoleGranted} event. Requirements: - the caller must have ``role``'s admin role."
      },
      "hasRole(bytes32,address)": {
        "details": "Returns `true` if `account` has been granted `role`."
      },
      "renounceRole(bytes32,address)": {
        "details": "Revokes `role` from the calling account. Roles are often managed via {grantRole} and {revokeRole}: this function's purpose is to provide a mechanism for accounts to lose their privileges if they are compromised (such as when a trusted device is misplaced). If the calling account had been revoked `role`, emits a {RoleRevoked} event. Requirements: - the caller must be `account`."
      },
      "revokeRole(bytes32,address)": {
        "details": "Revokes `role` from `account`. If `account` had been granted `role`, emits a {RoleRevoked} event. Requirements: - the caller must have ``role``'s admin role."
      },
      "supportsInterface(bytes4)": {
        "details": "See {IERC165-supportsInterface}."
      }
    },
    "version": 1
  },
  "userdoc": {
    "kind": "user",
    "methods": {
      "isTrustedForwarder(address)": {
        "notice": "return if the forwarder is trusted to forward relayed transactions to us. the forwarder is required to verify the sender's signature, and verify the call is not a replay."
      }
    },
    "version": 1
  },
  "storageLayout": {
    "storage": [
      {
        "astId": 2200,
        "contract": "contracts/LemonadeMarketplaceV2Forwardable.sol:LemonadeMarketplaceV2Forwardable",
        "label": "_roles",
        "offset": 0,
        "slot": "0",
        "type": "t_mapping(t_bytes32,t_struct(RoleData)2195_storage)"
      },
      {
        "astId": 2514,
        "contract": "contracts/LemonadeMarketplaceV2Forwardable.sol:LemonadeMarketplaceV2Forwardable",
        "label": "_roleMembers",
        "offset": 0,
        "slot": "1",
        "type": "t_mapping(t_bytes32,t_struct(AddressSet)5730_storage)"
      },
      {
        "astId": 8459,
        "contract": "contracts/LemonadeMarketplaceV2Forwardable.sol:LemonadeMarketplaceV2Forwardable",
        "label": "_orders",
        "offset": 0,
        "slot": "2",
        "type": "t_mapping(t_uint256,t_struct(Order)8454_storage)"
      },
      {
        "astId": 8462,
        "contract": "contracts/LemonadeMarketplaceV2Forwardable.sol:LemonadeMarketplaceV2Forwardable",
        "label": "orderIdTracker",
        "offset": 0,
        "slot": "3",
        "type": "t_struct(Counter)4909_storage"
      },
      {
        "astId": 10763,
        "contract": "contracts/LemonadeMarketplaceV2Forwardable.sol:LemonadeMarketplaceV2Forwardable",
        "label": "trustedForwarder",
        "offset": 0,
        "slot": "4",
        "type": "t_address"
      }
    ],
    "types": {
      "t_address": {
        "encoding": "inplace",
        "label": "address",
        "numberOfBytes": "20"
      },
      "t_array(t_bytes32)dyn_storage": {
        "base": "t_bytes32",
        "encoding": "dynamic_array",
        "label": "bytes32[]",
        "numberOfBytes": "32"
      },
      "t_bool": {
        "encoding": "inplace",
        "label": "bool",
        "numberOfBytes": "1"
      },
      "t_bytes32": {
        "encoding": "inplace",
        "label": "bytes32",
        "numberOfBytes": "32"
      },
      "t_enum(OrderKind)8385": {
        "encoding": "inplace",
        "label": "enum LemonadeMarketplaceV2.OrderKind",
        "numberOfBytes": "1"
      },
      "t_mapping(t_address,t_bool)": {
        "encoding": "mapping",
        "key": "t_address",
        "label": "mapping(address => bool)",
        "numberOfBytes": "32",
        "value": "t_bool"
      },
      "t_mapping(t_bytes32,t_struct(AddressSet)5730_storage)": {
        "encoding": "mapping",
        "key": "t_bytes32",
        "label": "mapping(bytes32 => struct EnumerableSet.AddressSet)",
        "numberOfBytes": "32",
        "value": "t_struct(AddressSet)5730_storage"
      },
      "t_mapping(t_bytes32,t_struct(RoleData)2195_storage)": {
        "encoding": "mapping",
        "key": "t_bytes32",
        "label": "mapping(bytes32 => struct AccessControl.RoleData)",
        "numberOfBytes": "32",
        "value": "t_struct(RoleData)2195_storage"
      },
      "t_mapping(t_bytes32,t_uint256)": {
        "encoding": "mapping",
        "key": "t_bytes32",
        "label": "mapping(bytes32 => uint256)",
        "numberOfBytes": "32",
        "value": "t_uint256"
      },
      "t_mapping(t_uint256,t_struct(Order)8454_storage)": {
        "encoding": "mapping",
        "key": "t_uint256",
        "label": "mapping(uint256 => struct LemonadeMarketplaceV2.Order)",
        "numberOfBytes": "32",
        "value": "t_struct(Order)8454_storage"
      },
      "t_struct(AddressSet)5730_storage": {
        "encoding": "inplace",
        "label": "struct EnumerableSet.AddressSet",
        "members": [
          {
            "astId": 5729,
            "contract": "contracts/LemonadeMarketplaceV2Forwardable.sol:LemonadeMarketplaceV2Forwardable",
            "label": "_inner",
            "offset": 0,
            "slot": "0",
            "type": "t_struct(Set)5429_storage"
          }
        ],
        "numberOfBytes": "64"
      },
      "t_struct(Counter)4909_storage": {
        "encoding": "inplace",
        "label": "struct Counters.Counter",
        "members": [
          {
            "astId": 4908,
            "contract": "contracts/LemonadeMarketplaceV2Forwardable.sol:LemonadeMarketplaceV2Forwardable",
            "label": "_value",
            "offset": 0,
            "slot": "0",
            "type": "t_uint256"
          }
        ],
        "numberOfBytes": "32"
      },
      "t_struct(Order)8454_storage": {
        "encoding": "inplace",
        "label": "struct LemonadeMarketplaceV2.Order",
        "members": [
          {
            "astId": 8429,
            "contract": "contracts/LemonadeMarketplaceV2Forwardable.sol:LemonadeMarketplaceV2Forwardable",
            "label": "kind",
            "offset": 0,
            "slot": "0",
            "type": "t_enum(OrderKind)8385"
          },
          {
            "astId": 8431,
            "contract": "contracts/LemonadeMarketplaceV2Forwardable.sol:LemonadeMarketplaceV2Forwardable",
            "label": "open",
            "offset": 1,
            "slot": "0",
            "type": "t_bool"
          },
          {
            "astId": 8433,
            "contract": "contracts/LemonadeMarketplaceV2Forwardable.sol:LemonadeMarketplaceV2Forwardable",
            "label": "openFrom",
            "offset": 0,
            "slot": "1",
            "type": "t_uint256"
          },
          {
            "astId": 8435,
            "contract": "contracts/LemonadeMarketplaceV2Forwardable.sol:LemonadeMarketplaceV2Forwardable",
            "label": "openTo",
            "offset": 0,
            "slot": "2",
            "type": "t_uint256"
          },
          {
            "astId": 8437,
            "contract": "contracts/LemonadeMarketplaceV2Forwardable.sol:LemonadeMarketplaceV2Forwardable",
            "label": "maker",
            "offset": 0,
            "slot": "3",
            "type": "t_address"
          },
          {
            "astId": 8439,
            "contract": "contracts/LemonadeMarketplaceV2Forwardable.sol:LemonadeMarketplaceV2Forwardable",
            "label": "currency",
            "offset": 0,
            "slot": "4",
            "type": "t_address"
          },
          {
            "astId": 8441,
            "contract": "contracts/LemonadeMarketplaceV2Forwardable.sol:LemonadeMarketplaceV2Forwardable",
            "label": "price",
            "offset": 0,
            "slot": "5",
            "type": "t_uint256"
          },
          {
            "astId": 8443,
            "contract": "contracts/LemonadeMarketplaceV2Forwardable.sol:LemonadeMarketplaceV2Forwardable",
            "label": "tokenContract",
            "offset": 0,
            "slot": "6",
            "type": "t_address"
          },
          {
            "astId": 8445,
            "contract": "contracts/LemonadeMarketplaceV2Forwardable.sol:LemonadeMarketplaceV2Forwardable",
            "label": "tokenId",
            "offset": 0,
            "slot": "7",
            "type": "t_uint256"
          },
          {
            "astId": 8447,
            "contract": "contracts/LemonadeMarketplaceV2Forwardable.sol:LemonadeMarketplaceV2Forwardable",
            "label": "bidder",
            "offset": 0,
            "slot": "8",
            "type": "t_address"
          },
          {
            "astId": 8449,
            "contract": "contracts/LemonadeMarketplaceV2Forwardable.sol:LemonadeMarketplaceV2Forwardable",
            "label": "bidAmount",
            "offset": 0,
            "slot": "9",
            "type": "t_uint256"
          },
          {
            "astId": 8451,
            "contract": "contracts/LemonadeMarketplaceV2Forwardable.sol:LemonadeMarketplaceV2Forwardable",
            "label": "taker",
            "offset": 0,
            "slot": "10",
            "type": "t_address"
          },
          {
            "astId": 8453,
            "contract": "contracts/LemonadeMarketplaceV2Forwardable.sol:LemonadeMarketplaceV2Forwardable",
            "label": "paidAmount",
            "offset": 0,
            "slot": "11",
            "type": "t_uint256"
          }
        ],
        "numberOfBytes": "384"
      },
      "t_struct(RoleData)2195_storage": {
        "encoding": "inplace",
        "label": "struct AccessControl.RoleData",
        "members": [
          {
            "astId": 2192,
            "contract": "contracts/LemonadeMarketplaceV2Forwardable.sol:LemonadeMarketplaceV2Forwardable",
            "label": "members",
            "offset": 0,
            "slot": "0",
            "type": "t_mapping(t_address,t_bool)"
          },
          {
            "astId": 2194,
            "contract": "contracts/LemonadeMarketplaceV2Forwardable.sol:LemonadeMarketplaceV2Forwardable",
            "label": "adminRole",
            "offset": 0,
            "slot": "1",
            "type": "t_bytes32"
          }
        ],
        "numberOfBytes": "64"
      },
      "t_struct(Set)5429_storage": {
        "encoding": "inplace",
        "label": "struct EnumerableSet.Set",
        "members": [
          {
            "astId": 5424,
            "contract": "contracts/LemonadeMarketplaceV2Forwardable.sol:LemonadeMarketplaceV2Forwardable",
            "label": "_values",
            "offset": 0,
            "slot": "0",
            "type": "t_array(t_bytes32)dyn_storage"
          },
          {
            "astId": 5428,
            "contract": "contracts/LemonadeMarketplaceV2Forwardable.sol:LemonadeMarketplaceV2Forwardable",
            "label": "_indexes",
            "offset": 0,
            "slot": "1",
            "type": "t_mapping(t_bytes32,t_uint256)"
          }
        ],
        "numberOfBytes": "64"
      },
      "t_uint256": {
        "encoding": "inplace",
        "label": "uint256",
        "numberOfBytes": "32"
      }
    }
  }
}