{
  "address": "0xbc6C027B7F0CA2BEb0d71E479a05758187d4ea63",
  "abi": [
    {
      "inputs": [
        {
          "internalType": "address",
          "name": "feeMaker",
          "type": "address"
        },
        {
          "internalType": "uint256",
          "name": "feeFraction",
          "type": "uint256"
        }
      ],
      "stateMutability": "nonpayable",
      "type": "constructor"
    },
    {
      "anonymous": false,
      "inputs": [
        {
          "indexed": true,
          "internalType": "uint256",
          "name": "orderId",
          "type": "uint256"
        },
        {
          "indexed": true,
          "internalType": "address",
          "name": "bidder",
          "type": "address"
        },
        {
          "indexed": false,
          "internalType": "uint256",
          "name": "bidAmount",
          "type": "uint256"
        }
      ],
      "name": "OrderBid",
      "type": "event"
    },
    {
      "anonymous": false,
      "inputs": [
        {
          "indexed": true,
          "internalType": "uint256",
          "name": "orderId",
          "type": "uint256"
        }
      ],
      "name": "OrderCancelled",
      "type": "event"
    },
    {
      "anonymous": false,
      "inputs": [
        {
          "indexed": true,
          "internalType": "uint256",
          "name": "orderId",
          "type": "uint256"
        },
        {
          "indexed": false,
          "internalType": "enum LemonadeMarketplace.OrderKind",
          "name": "kind",
          "type": "uint8"
        },
        {
          "indexed": false,
          "internalType": "uint256",
          "name": "openFrom",
          "type": "uint256"
        },
        {
          "indexed": false,
          "internalType": "uint256",
          "name": "openTo",
          "type": "uint256"
        },
        {
          "indexed": true,
          "internalType": "address",
          "name": "maker",
          "type": "address"
        },
        {
          "indexed": false,
          "internalType": "address",
          "name": "currency",
          "type": "address"
        },
        {
          "indexed": false,
          "internalType": "uint256",
          "name": "price",
          "type": "uint256"
        },
        {
          "indexed": false,
          "internalType": "address",
          "name": "tokenContract",
          "type": "address"
        },
        {
          "indexed": false,
          "internalType": "uint256",
          "name": "tokenId",
          "type": "uint256"
        }
      ],
      "name": "OrderCreated",
      "type": "event"
    },
    {
      "anonymous": false,
      "inputs": [
        {
          "indexed": true,
          "internalType": "uint256",
          "name": "orderId",
          "type": "uint256"
        },
        {
          "indexed": true,
          "internalType": "address",
          "name": "taker",
          "type": "address"
        },
        {
          "indexed": false,
          "internalType": "uint256",
          "name": "paidAmount",
          "type": "uint256"
        }
      ],
      "name": "OrderFilled",
      "type": "event"
    },
    {
      "anonymous": false,
      "inputs": [
        {
          "indexed": false,
          "internalType": "address",
          "name": "account",
          "type": "address"
        }
      ],
      "name": "Paused",
      "type": "event"
    },
    {
      "anonymous": false,
      "inputs": [
        {
          "indexed": true,
          "internalType": "bytes32",
          "name": "role",
          "type": "bytes32"
        },
        {
          "indexed": true,
          "internalType": "bytes32",
          "name": "previousAdminRole",
          "type": "bytes32"
        },
        {
          "indexed": true,
          "internalType": "bytes32",
          "name": "newAdminRole",
          "type": "bytes32"
        }
      ],
      "name": "RoleAdminChanged",
      "type": "event"
    },
    {
      "anonymous": false,
      "inputs": [
        {
          "indexed": true,
          "internalType": "bytes32",
          "name": "role",
          "type": "bytes32"
        },
        {
          "indexed": true,
          "internalType": "address",
          "name": "account",
          "type": "address"
        },
        {
          "indexed": true,
          "internalType": "address",
          "name": "sender",
          "type": "address"
        }
      ],
      "name": "RoleGranted",
      "type": "event"
    },
    {
      "anonymous": false,
      "inputs": [
        {
          "indexed": true,
          "internalType": "bytes32",
          "name": "role",
          "type": "bytes32"
        },
        {
          "indexed": true,
          "internalType": "address",
          "name": "account",
          "type": "address"
        },
        {
          "indexed": true,
          "internalType": "address",
          "name": "sender",
          "type": "address"
        }
      ],
      "name": "RoleRevoked",
      "type": "event"
    },
    {
      "anonymous": false,
      "inputs": [
        {
          "indexed": false,
          "internalType": "address",
          "name": "account",
          "type": "address"
        }
      ],
      "name": "Unpaused",
      "type": "event"
    },
    {
      "inputs": [],
      "name": "DEFAULT_ADMIN_ROLE",
      "outputs": [
        {
          "internalType": "bytes32",
          "name": "",
          "type": "bytes32"
        }
      ],
      "stateMutability": "view",
      "type": "function"
    },
    {
      "inputs": [],
      "name": "FEE_FRACTION",
      "outputs": [
        {
          "internalType": "uint256",
          "name": "",
          "type": "uint256"
        }
      ],
      "stateMutability": "view",
      "type": "function"
    },
    {
      "inputs": [],
      "name": "FEE_MAKER",
      "outputs": [
        {
          "internalType": "address",
          "name": "",
          "type": "address"
        }
      ],
      "stateMutability": "view",
      "type": "function"
    },
    {
      "inputs": [],
      "name": "PAUSER_ROLE",
      "outputs": [
        {
          "internalType": "bytes32",
          "name": "",
          "type": "bytes32"
        }
      ],
      "stateMutability": "view",
      "type": "function"
    },
    {
      "inputs": [
        {
          "internalType": "uint256",
          "name": "orderId",
          "type": "uint256"
        },
        {
          "internalType": "uint256",
          "name": "amount",
          "type": "uint256"
        }
      ],
      "name": "bidOrder",
      "outputs": [],
      "stateMutability": "nonpayable",
      "type": "function"
    },
    {
      "inputs": [
        {
          "internalType": "uint256",
          "name": "orderId",
          "type": "uint256"
        }
      ],
      "name": "cancelOrder",
      "outputs": [],
      "stateMutability": "nonpayable",
      "type": "function"
    },
    {
      "inputs": [
        {
          "internalType": "enum LemonadeMarketplace.OrderKind",
          "name": "kind",
          "type": "uint8"
        },
        {
          "internalType": "uint256",
          "name": "openFrom",
          "type": "uint256"
        },
        {
          "internalType": "uint256",
          "name": "openTo",
          "type": "uint256"
        },
        {
          "internalType": "address",
          "name": "currency",
          "type": "address"
        },
        {
          "internalType": "uint256",
          "name": "price",
          "type": "uint256"
        },
        {
          "internalType": "address",
          "name": "tokenContract",
          "type": "address"
        },
        {
          "internalType": "uint256",
          "name": "tokenId",
          "type": "uint256"
        }
      ],
      "name": "createOrder",
      "outputs": [
        {
          "internalType": "uint256",
          "name": "",
          "type": "uint256"
        }
      ],
      "stateMutability": "nonpayable",
      "type": "function"
    },
    {
      "inputs": [],
      "name": "fee",
      "outputs": [
        {
          "internalType": "address",
          "name": "",
          "type": "address"
        },
        {
          "internalType": "uint256",
          "name": "",
          "type": "uint256"
        }
      ],
      "stateMutability": "view",
      "type": "function"
    },
    {
      "inputs": [
        {
          "internalType": "uint256",
          "name": "orderId",
          "type": "uint256"
        },
        {
          "internalType": "uint256",
          "name": "amount",
          "type": "uint256"
        }
      ],
      "name": "fillOrder",
      "outputs": [],
      "stateMutability": "nonpayable",
      "type": "function"
    },
    {
      "inputs": [
        {
          "internalType": "bytes32",
          "name": "role",
          "type": "bytes32"
        }
      ],
      "name": "getRoleAdmin",
      "outputs": [
        {
          "internalType": "bytes32",
          "name": "",
          "type": "bytes32"
        }
      ],
      "stateMutability": "view",
      "type": "function"
    },
    {
      "inputs": [
        {
          "internalType": "bytes32",
          "name": "role",
          "type": "bytes32"
        },
        {
          "internalType": "uint256",
          "name": "index",
          "type": "uint256"
        }
      ],
      "name": "getRoleMember",
      "outputs": [
        {
          "internalType": "address",
          "name": "",
          "type": "address"
        }
      ],
      "stateMutability": "view",
      "type": "function"
    },
    {
      "inputs": [
        {
          "internalType": "bytes32",
          "name": "role",
          "type": "bytes32"
        }
      ],
      "name": "getRoleMemberCount",
      "outputs": [
        {
          "internalType": "uint256",
          "name": "",
          "type": "uint256"
        }
      ],
      "stateMutability": "view",
      "type": "function"
    },
    {
      "inputs": [
        {
          "internalType": "bytes32",
          "name": "role",
          "type": "bytes32"
        },
        {
          "internalType": "address",
          "name": "account",
          "type": "address"
        }
      ],
      "name": "grantRole",
      "outputs": [],
      "stateMutability": "nonpayable",
      "type": "function"
    },
    {
      "inputs": [
        {
          "internalType": "bytes32",
          "name": "role",
          "type": "bytes32"
        },
        {
          "internalType": "address",
          "name": "account",
          "type": "address"
        }
      ],
      "name": "hasRole",
      "outputs": [
        {
          "internalType": "bool",
          "name": "",
          "type": "bool"
        }
      ],
      "stateMutability": "view",
      "type": "function"
    },
    {
      "inputs": [
        {
          "internalType": "uint256",
          "name": "orderId",
          "type": "uint256"
        }
      ],
      "name": "order",
      "outputs": [
        {
          "internalType": "enum LemonadeMarketplace.OrderKind",
          "name": "",
          "type": "uint8"
        },
        {
          "internalType": "bool",
          "name": "",
          "type": "bool"
        },
        {
          "internalType": "uint256",
          "name": "",
          "type": "uint256"
        },
        {
          "internalType": "uint256",
          "name": "",
          "type": "uint256"
        },
        {
          "internalType": "address",
          "name": "",
          "type": "address"
        },
        {
          "internalType": "address",
          "name": "",
          "type": "address"
        },
        {
          "internalType": "uint256",
          "name": "",
          "type": "uint256"
        },
        {
          "internalType": "uint256",
          "name": "",
          "type": "uint256"
        },
        {
          "internalType": "address",
          "name": "",
          "type": "address"
        },
        {
          "internalType": "uint256",
          "name": "",
          "type": "uint256"
        }
      ],
      "stateMutability": "view",
      "type": "function"
    },
    {
      "inputs": [],
      "name": "pause",
      "outputs": [],
      "stateMutability": "nonpayable",
      "type": "function"
    },
    {
      "inputs": [],
      "name": "paused",
      "outputs": [
        {
          "internalType": "bool",
          "name": "",
          "type": "bool"
        }
      ],
      "stateMutability": "view",
      "type": "function"
    },
    {
      "inputs": [
        {
          "internalType": "bytes32",
          "name": "role",
          "type": "bytes32"
        },
        {
          "internalType": "address",
          "name": "account",
          "type": "address"
        }
      ],
      "name": "renounceRole",
      "outputs": [],
      "stateMutability": "nonpayable",
      "type": "function"
    },
    {
      "inputs": [
        {
          "internalType": "bytes32",
          "name": "role",
          "type": "bytes32"
        },
        {
          "internalType": "address",
          "name": "account",
          "type": "address"
        }
      ],
      "name": "revokeRole",
      "outputs": [],
      "stateMutability": "nonpayable",
      "type": "function"
    },
    {
      "inputs": [
        {
          "internalType": "bytes4",
          "name": "interfaceId",
          "type": "bytes4"
        }
      ],
      "name": "supportsInterface",
      "outputs": [
        {
          "internalType": "bool",
          "name": "",
          "type": "bool"
        }
      ],
      "stateMutability": "view",
      "type": "function"
    },
    {
      "inputs": [
        {
          "internalType": "uint256",
          "name": "orderId",
          "type": "uint256"
        }
      ],
      "name": "token",
      "outputs": [
        {
          "internalType": "address",
          "name": "",
          "type": "address"
        },
        {
          "internalType": "uint256",
          "name": "",
          "type": "uint256"
        }
      ],
      "stateMutability": "view",
      "type": "function"
    },
    {
      "inputs": [],
      "name": "unpause",
      "outputs": [],
      "stateMutability": "nonpayable",
      "type": "function"
    }
  ],
  "transactionHash": "0x8b1630a0375cecba0c99dee72c31ff12c12f0502377847098720f1624788204b",
  "args": [
    "0x951292004e8a18955Cb1095CB72Ca6B01d68336E",
    "20000000000000000"
  ],
  "solcInputHash": "1c1e32fc40ded2fd53598ea29641632d",
  "bytecode": "0x60c06040523480156200001157600080fd5b5060405162005e5638038062005e568339818101604052810190620000379190620003c2565b6000600260006101000a81548160ff0219169083151502179055508173ffffffffffffffffffffffffffffffffffffffff1660808173ffffffffffffffffffffffffffffffffffffffff1660601b815250508060a08181525050620000b56000801b620000a9620000fe60201b60201c565b6200010660201b60201c565b620000f67f65d7a28e3265b37a6474929f336521b332c1681b933f6cb9f3376673440d862a620000ea620000fe60201b60201c565b6200010660201b60201c565b505062000475565b600033905090565b6200011d82826200014e60201b620034a21760201c565b6200014981600160008581526020019081526020016000206200016460201b620034b01790919060201c565b505050565b6200016082826200019c60201b60201c565b5050565b600062000194836000018373ffffffffffffffffffffffffffffffffffffffff1660001b6200028d60201b60201c565b905092915050565b620001ae82826200030760201b60201c565b6200028957600160008084815260200190815260200160002060000160008373ffffffffffffffffffffffffffffffffffffffff1673ffffffffffffffffffffffffffffffffffffffff16815260200190815260200160002060006101000a81548160ff0219169083151502179055506200022e620000fe60201b60201c565b73ffffffffffffffffffffffffffffffffffffffff168173ffffffffffffffffffffffffffffffffffffffff16837f2f8788117e7eff1d82e926ec794901d17c78024a50270940304540a733656f0d60405160405180910390a45b5050565b6000620002a183836200037160201b60201c565b620002fc57826000018290806001815401808255809150506001900390600052602060002001600090919091909150558260000180549050836001016000848152602001908152602001600020819055506001905062000301565b600090505b92915050565b600080600084815260200190815260200160002060000160008373ffffffffffffffffffffffffffffffffffffffff1673ffffffffffffffffffffffffffffffffffffffff16815260200190815260200160002060009054906101000a900460ff16905092915050565b600080836001016000848152602001908152602001600020541415905092915050565b600081519050620003a58162000441565b92915050565b600081519050620003bc816200045b565b92915050565b60008060408385031215620003d657600080fd5b6000620003e68582860162000394565b9250506020620003f985828601620003ab565b9150509250929050565b6000620004108262000417565b9050919050565b600073ffffffffffffffffffffffffffffffffffffffff82169050919050565b6000819050919050565b6200044c8162000403565b81146200045857600080fd5b50565b620004668162000437565b81146200047257600080fd5b50565b60805160601c60a05161599c620004ba6000396000818161108d0152818161314d015261345701526000818161156f015281816131930152613436015261599c6000f3fe608060405234801561001057600080fd5b50600436106101425760003560e01c80635c975abb116100b8578063b858fb5f1161007c578063b858fb5f14610381578063c37dfc5b1461039d578063ca15c873146103b9578063d547741f146103e9578063ddca3f4314610405578063e63ab1e91461042457610142565b80635c975abb146102db5780638456cb59146102f95780639010d07c1461030357806391d1485414610333578063a217fddf1461036357610142565b8063248a9ca31161010a578063248a9ca31461022f5780632f2ff15d1461025f57806336568abe1461027b5780633f4ba83a146102975780634ecd9f7e146102a1578063514fcac7146102bf57610142565b806301ffc9a714610147578063044215c6146101775780630c109710146101a85780631b1c61e1146101d857806321603f43146101f6575b600080fd5b610161600480360381019061015c91906143bf565b610442565b60405161016e91906149e3565b60405180910390f35b610191600480360381019061018c9190614486565b6104bc565b60405161019f9291906149ba565b60405180910390f35b6101c260048036038101906101bd91906143e8565b61082b565b6040516101cf9190614e46565b60405180910390f35b6101e061108b565b6040516101ed9190614e46565b60405180910390f35b610210600480360381019061020b9190614486565b6110af565b6040516102269a99989796959493929190614a19565b60405180910390f35b6102496004803603810190610244919061431e565b61146c565b60405161025691906149fe565b60405180910390f35b61027960048036038101906102749190614347565b61148b565b005b61029560048036038101906102909190614347565b6114bf565b005b61029f6114f3565b005b6102a961156d565b6040516102b69190614968565b60405180910390f35b6102d960048036038101906102d49190614486565b611591565b005b6102e3611b58565b6040516102f091906149e3565b60405180910390f35b610301611b6f565b005b61031d60048036038101906103189190614383565b611be9565b60405161032a9190614968565b60405180910390f35b61034d60048036038101906103489190614347565b611c18565b60405161035a91906149e3565b60405180910390f35b61036b611c82565b60405161037891906149fe565b60405180910390f35b61039b600480360381019061039691906144af565b611c89565b005b6103b760048036038101906103b291906144af565b61262d565b005b6103d360048036038101906103ce919061431e565b6133d9565b6040516103e09190614e46565b60405180910390f35b61040360048036038101906103fe9190614347565b6133fd565b005b61040d613431565b60405161041b9291906149ba565b60405180910390f35b61042c61347e565b60405161043991906149fe565b60405180910390f35b60007f5a05180f000000000000000000000000000000000000000000000000000000007bffffffffffffffffffffffffffffffffffffffffffffffffffffffff1916827bffffffffffffffffffffffffffffffffffffffffffffffffffffffff191614806104b557506104b4826134e0565b5b9050919050565b60008082600073ffffffffffffffffffffffffffffffffffffffff166003600083815260200190815260200160002060030160009054906101000a900473ffffffffffffffffffffffffffffffffffffffff1673ffffffffffffffffffffffffffffffffffffffff161415610566576040517f08c379a000000000000000000000000000000000000000000000000000000000815260040161055d90614d26565b60405180910390fd5b600060036000868152602001908152602001600020604051806101a00160405290816000820160009054906101000a900460ff1660018111156105d2577f4e487b7100000000000000000000000000000000000000000000000000000000600052602160045260246000fd5b600181111561060a577f4e487b7100000000000000000000000000000000000000000000000000000000600052602160045260246000fd5b81526020016000820160019054906101000a900460ff1615151515815260200160018201548152602001600282015481526020016003820160009054906101000a900473ffffffffffffffffffffffffffffffffffffffff1673ffffffffffffffffffffffffffffffffffffffff1673ffffffffffffffffffffffffffffffffffffffff1681526020016004820160009054906101000a900473ffffffffffffffffffffffffffffffffffffffff1673ffffffffffffffffffffffffffffffffffffffff1673ffffffffffffffffffffffffffffffffffffffff168152602001600582015481526020016006820160009054906101000a900473ffffffffffffffffffffffffffffffffffffffff1673ffffffffffffffffffffffffffffffffffffffff1673ffffffffffffffffffffffffffffffffffffffff168152602001600782015481526020016008820160009054906101000a900473ffffffffffffffffffffffffffffffffffffffff1673ffffffffffffffffffffffffffffffffffffffff1673ffffffffffffffffffffffffffffffffffffffff16815260200160098201548152602001600a820160009054906101000a900473ffffffffffffffffffffffffffffffffffffffff1673ffffffffffffffffffffffffffffffffffffffff1673ffffffffffffffffffffffffffffffffffffffff168152602001600b8201548152505090508060e00151816101000151935093505050915091565b6000610835611b58565b15610875576040517f08c379a000000000000000000000000000000000000000000000000000000000815260040161086c90614c86565b60405180910390fd5b6000610881888861355a565b9050600081116108c6576040517f08c379a00000000000000000000000000000000000000000000000000000000081526004016108bd90614ca6565b60405180910390fd5b6001808111156108ff577f4e487b7100000000000000000000000000000000000000000000000000000000600052602160045260246000fd5b896001811115610938577f4e487b7100000000000000000000000000000000000000000000000000000000600052602160045260246000fd5b14156109855762093a80811115610984576040517f08c379a000000000000000000000000000000000000000000000000000000000815260040161097b90614c06565b60405180910390fd5b5b8373ffffffffffffffffffffffffffffffffffffffff166323b872dd6109a96135cb565b30866040518463ffffffff1660e01b81526004016109c993929190614983565b600060405180830381600087803b1580156109e357600080fd5b505af11580156109f7573d6000803e3d6000fd5b505050506000610a0760046135d3565b9050604051806101a001604052808b6001811115610a4e577f4e487b7100000000000000000000000000000000000000000000000000000000600052602160045260246000fd5b81526020016001151581526020018a8152602001898152602001610a706135cb565b73ffffffffffffffffffffffffffffffffffffffff1681526020018873ffffffffffffffffffffffffffffffffffffffff1681526020018781526020018673ffffffffffffffffffffffffffffffffffffffff168152602001858152602001600073ffffffffffffffffffffffffffffffffffffffff16815260200160008152602001600073ffffffffffffffffffffffffffffffffffffffff16815260200160008152506003600083815260200190815260200160002060008201518160000160006101000a81548160ff02191690836001811115610b79577f4e487b7100000000000000000000000000000000000000000000000000000000600052602160045260246000fd5b021790555060208201518160000160016101000a81548160ff021916908315150217905550604082015181600101556060820151816002015560808201518160030160006101000a81548173ffffffffffffffffffffffffffffffffffffffff021916908373ffffffffffffffffffffffffffffffffffffffff16021790555060a08201518160040160006101000a81548173ffffffffffffffffffffffffffffffffffffffff021916908373ffffffffffffffffffffffffffffffffffffffff16021790555060c0820151816005015560e08201518160060160006101000a81548173ffffffffffffffffffffffffffffffffffffffff021916908373ffffffffffffffffffffffffffffffffffffffff16021790555061010082015181600701556101208201518160080160006101000a81548173ffffffffffffffffffffffffffffffffffffffff021916908373ffffffffffffffffffffffffffffffffffffffff160217905550610140820151816009015561016082015181600a0160006101000a81548173ffffffffffffffffffffffffffffffffffffffff021916908373ffffffffffffffffffffffffffffffffffffffff16021790555061018082015181600b0155905050610d4f60046135e1565b600060036000838152602001908152602001600020604051806101a00160405290816000820160009054906101000a900460ff166001811115610dbb577f4e487b7100000000000000000000000000000000000000000000000000000000600052602160045260246000fd5b6001811115610df3577f4e487b7100000000000000000000000000000000000000000000000000000000600052602160045260246000fd5b81526020016000820160019054906101000a900460ff1615151515815260200160018201548152602001600282015481526020016003820160009054906101000a900473ffffffffffffffffffffffffffffffffffffffff1673ffffffffffffffffffffffffffffffffffffffff1673ffffffffffffffffffffffffffffffffffffffff1681526020016004820160009054906101000a900473ffffffffffffffffffffffffffffffffffffffff1673ffffffffffffffffffffffffffffffffffffffff1673ffffffffffffffffffffffffffffffffffffffff168152602001600582015481526020016006820160009054906101000a900473ffffffffffffffffffffffffffffffffffffffff1673ffffffffffffffffffffffffffffffffffffffff1673ffffffffffffffffffffffffffffffffffffffff168152602001600782015481526020016008820160009054906101000a900473ffffffffffffffffffffffffffffffffffffffff1673ffffffffffffffffffffffffffffffffffffffff1673ffffffffffffffffffffffffffffffffffffffff16815260200160098201548152602001600a820160009054906101000a900473ffffffffffffffffffffffffffffffffffffffff1673ffffffffffffffffffffffffffffffffffffffff1673ffffffffffffffffffffffffffffffffffffffff168152602001600b820154815250509050806080015173ffffffffffffffffffffffffffffffffffffffff16827f4e400f43dce6cc22df28146360114559ffae81b0644d4752872c7def6d77319e8360000151846040015185606001518660a001518760c001518860e001518961010001516040516110729796959493929190614ab5565b60405180910390a3819350505050979650505050505050565b7f000000000000000000000000000000000000000000000000000000000000000081565b6000806000806000806000806000808a600073ffffffffffffffffffffffffffffffffffffffff166003600083815260200190815260200160002060030160009054906101000a900473ffffffffffffffffffffffffffffffffffffffff1673ffffffffffffffffffffffffffffffffffffffff161415611165576040517f08c379a000000000000000000000000000000000000000000000000000000000815260040161115c90614d26565b60405180910390fd5b6000600360008e8152602001908152602001600020604051806101a00160405290816000820160009054906101000a900460ff1660018111156111d1577f4e487b7100000000000000000000000000000000000000000000000000000000600052602160045260246000fd5b6001811115611209577f4e487b7100000000000000000000000000000000000000000000000000000000600052602160045260246000fd5b81526020016000820160019054906101000a900460ff1615151515815260200160018201548152602001600282015481526020016003820160009054906101000a900473ffffffffffffffffffffffffffffffffffffffff1673ffffffffffffffffffffffffffffffffffffffff1673ffffffffffffffffffffffffffffffffffffffff1681526020016004820160009054906101000a900473ffffffffffffffffffffffffffffffffffffffff1673ffffffffffffffffffffffffffffffffffffffff1673ffffffffffffffffffffffffffffffffffffffff168152602001600582015481526020016006820160009054906101000a900473ffffffffffffffffffffffffffffffffffffffff1673ffffffffffffffffffffffffffffffffffffffff1673ffffffffffffffffffffffffffffffffffffffff168152602001600782015481526020016008820160009054906101000a900473ffffffffffffffffffffffffffffffffffffffff1673ffffffffffffffffffffffffffffffffffffffff1673ffffffffffffffffffffffffffffffffffffffff16815260200160098201548152602001600a820160009054906101000a900473ffffffffffffffffffffffffffffffffffffffff1673ffffffffffffffffffffffffffffffffffffffff1673ffffffffffffffffffffffffffffffffffffffff168152602001600b820154815250509050806000015181602001518260400151836060015184608001518560a001518660c001518761014001518861016001518961018001519b509b509b509b509b509b509b509b509b509b5050509193959799509193959799565b6000806000838152602001908152602001600020600101549050919050565b61149582826135f7565b6114ba81600160008581526020019081526020016000206134b090919063ffffffff16565b505050565b6114c98282613620565b6114ee81600160008581526020019081526020016000206136a390919063ffffffff16565b505050565b6115247f65d7a28e3265b37a6474929f336521b332c1681b933f6cb9f3376673440d862a61151f6135cb565b611c18565b611563576040517f08c379a000000000000000000000000000000000000000000000000000000000815260040161155a90614d86565b60405180910390fd5b61156b6136d3565b565b7f000000000000000000000000000000000000000000000000000000000000000081565b611599611b58565b156115d9576040517f08c379a00000000000000000000000000000000000000000000000000000000081526004016115d090614c86565b60405180910390fd5b80600073ffffffffffffffffffffffffffffffffffffffff166003600083815260200190815260200160002060030160009054906101000a900473ffffffffffffffffffffffffffffffffffffffff1673ffffffffffffffffffffffffffffffffffffffff161415611680576040517f08c379a000000000000000000000000000000000000000000000000000000000815260040161167790614d26565b60405180910390fd5b600060036000848152602001908152602001600020604051806101a00160405290816000820160009054906101000a900460ff1660018111156116ec577f4e487b7100000000000000000000000000000000000000000000000000000000600052602160045260246000fd5b6001811115611724577f4e487b7100000000000000000000000000000000000000000000000000000000600052602160045260246000fd5b81526020016000820160019054906101000a900460ff1615151515815260200160018201548152602001600282015481526020016003820160009054906101000a900473ffffffffffffffffffffffffffffffffffffffff1673ffffffffffffffffffffffffffffffffffffffff1673ffffffffffffffffffffffffffffffffffffffff1681526020016004820160009054906101000a900473ffffffffffffffffffffffffffffffffffffffff1673ffffffffffffffffffffffffffffffffffffffff1673ffffffffffffffffffffffffffffffffffffffff168152602001600582015481526020016006820160009054906101000a900473ffffffffffffffffffffffffffffffffffffffff1673ffffffffffffffffffffffffffffffffffffffff1673ffffffffffffffffffffffffffffffffffffffff168152602001600782015481526020016008820160009054906101000a900473ffffffffffffffffffffffffffffffffffffffff1673ffffffffffffffffffffffffffffffffffffffff1673ffffffffffffffffffffffffffffffffffffffff16815260200160098201548152602001600a820160009054906101000a900473ffffffffffffffffffffffffffffffffffffffff1673ffffffffffffffffffffffffffffffffffffffff1673ffffffffffffffffffffffffffffffffffffffff168152602001600b8201548152505090506119376135cb565b73ffffffffffffffffffffffffffffffffffffffff16816080015173ffffffffffffffffffffffffffffffffffffffff16148061198457506119836000801b61197e6135cb565b611c18565b5b6119c3576040517f08c379a00000000000000000000000000000000000000000000000000000000081526004016119ba90614d06565b60405180910390fd5b8060200151611a07576040517f08c379a00000000000000000000000000000000000000000000000000000000081526004016119fe90614ce6565b60405180910390fd5b600073ffffffffffffffffffffffffffffffffffffffff1681610120015173ffffffffffffffffffffffffffffffffffffffff1614611a7b576040517f08c379a0000000000000000000000000000000000000000000000000000000008152600401611a7290614cc6565b60405180910390fd5b8060e0015173ffffffffffffffffffffffffffffffffffffffff166342842e0e3083608001518461010001516040518463ffffffff1660e01b8152600401611ac593929190614983565b600060405180830381600087803b158015611adf57600080fd5b505af1158015611af3573d6000803e3d6000fd5b5050505060006003600085815260200190815260200160002060000160016101000a81548160ff021916908315150217905550827f61b9399f2f0f32ca39ce8d7be32caed5ec22fe07a6daba3a467ed479ec60658260405160405180910390a2505050565b6000600260009054906101000a900460ff16905090565b611ba07f65d7a28e3265b37a6474929f336521b332c1681b933f6cb9f3376673440d862a611b9b6135cb565b611c18565b611bdf576040517f08c379a0000000000000000000000000000000000000000000000000000000008152600401611bd690614ba6565b60405180910390fd5b611be7613775565b565b6000611c10826001600086815260200190815260200160002061381890919063ffffffff16565b905092915050565b600080600084815260200190815260200160002060000160008373ffffffffffffffffffffffffffffffffffffffff1673ffffffffffffffffffffffffffffffffffffffff16815260200190815260200160002060009054906101000a900460ff16905092915050565b6000801b81565b611c91611b58565b15611cd1576040517f08c379a0000000000000000000000000000000000000000000000000000000008152600401611cc890614c86565b60405180910390fd5b81600073ffffffffffffffffffffffffffffffffffffffff166003600083815260200190815260200160002060030160009054906101000a900473ffffffffffffffffffffffffffffffffffffffff1673ffffffffffffffffffffffffffffffffffffffff161415611d78576040517f08c379a0000000000000000000000000000000000000000000000000000000008152600401611d6f90614d26565b60405180910390fd5b600060036000858152602001908152602001600020604051806101a00160405290816000820160009054906101000a900460ff166001811115611de4577f4e487b7100000000000000000000000000000000000000000000000000000000600052602160045260246000fd5b6001811115611e1c577f4e487b7100000000000000000000000000000000000000000000000000000000600052602160045260246000fd5b81526020016000820160019054906101000a900460ff1615151515815260200160018201548152602001600282015481526020016003820160009054906101000a900473ffffffffffffffffffffffffffffffffffffffff1673ffffffffffffffffffffffffffffffffffffffff1673ffffffffffffffffffffffffffffffffffffffff1681526020016004820160009054906101000a900473ffffffffffffffffffffffffffffffffffffffff1673ffffffffffffffffffffffffffffffffffffffff1673ffffffffffffffffffffffffffffffffffffffff168152602001600582015481526020016006820160009054906101000a900473ffffffffffffffffffffffffffffffffffffffff1673ffffffffffffffffffffffffffffffffffffffff1673ffffffffffffffffffffffffffffffffffffffff168152602001600782015481526020016008820160009054906101000a900473ffffffffffffffffffffffffffffffffffffffff1673ffffffffffffffffffffffffffffffffffffffff1673ffffffffffffffffffffffffffffffffffffffff16815260200160098201548152602001600a820160009054906101000a900473ffffffffffffffffffffffffffffffffffffffff1673ffffffffffffffffffffffffffffffffffffffff1673ffffffffffffffffffffffffffffffffffffffff168152602001600b820154815250509050600180811115612060577f4e487b7100000000000000000000000000000000000000000000000000000000600052602160045260246000fd5b8160000151600181111561209d577f4e487b7100000000000000000000000000000000000000000000000000000000600052602160045260246000fd5b146120dd576040517f08c379a00000000000000000000000000000000000000000000000000000000081526004016120d490614c26565b60405180910390fd5b8060200151612121576040517f08c379a000000000000000000000000000000000000000000000000000000000815260040161211890614be6565b60405180910390fd5b4281604001511115612168576040517f08c379a000000000000000000000000000000000000000000000000000000000815260040161215f90614d66565b60405180910390fd5b428160600151116121ae576040517f08c379a00000000000000000000000000000000000000000000000000000000081526004016121a590614bc6565b60405180910390fd5b828160c0015111156121f5576040517f08c379a00000000000000000000000000000000000000000000000000000000081526004016121ec90614d46565b60405180910390fd5b600073ffffffffffffffffffffffffffffffffffffffff1681610120015173ffffffffffffffffffffffffffffffffffffffff1614612290578281610140015110612275576040517f08c379a000000000000000000000000000000000000000000000000000000000815260040161226c90614e26565b60405180910390fd5b61228f8160a0015130836101200151846101400151613832565b5b6122986135cb565b6003600086815260200190815260200160002060080160006101000a81548173ffffffffffffffffffffffffffffffffffffffff021916908373ffffffffffffffffffffffffffffffffffffffff16021790555082600360008681526020019081526020016000206009018190555060036000858152602001908152602001600020604051806101a00160405290816000820160009054906101000a900460ff166001811115612371577f4e487b7100000000000000000000000000000000000000000000000000000000600052602160045260246000fd5b60018111156123a9577f4e487b7100000000000000000000000000000000000000000000000000000000600052602160045260246000fd5b81526020016000820160019054906101000a900460ff1615151515815260200160018201548152602001600282015481526020016003820160009054906101000a900473ffffffffffffffffffffffffffffffffffffffff1673ffffffffffffffffffffffffffffffffffffffff1673ffffffffffffffffffffffffffffffffffffffff1681526020016004820160009054906101000a900473ffffffffffffffffffffffffffffffffffffffff1673ffffffffffffffffffffffffffffffffffffffff1673ffffffffffffffffffffffffffffffffffffffff168152602001600582015481526020016006820160009054906101000a900473ffffffffffffffffffffffffffffffffffffffff1673ffffffffffffffffffffffffffffffffffffffff1673ffffffffffffffffffffffffffffffffffffffff168152602001600782015481526020016008820160009054906101000a900473ffffffffffffffffffffffffffffffffffffffff1673ffffffffffffffffffffffffffffffffffffffff1673ffffffffffffffffffffffffffffffffffffffff16815260200160098201548152602001600a820160009054906101000a900473ffffffffffffffffffffffffffffffffffffffff1673ffffffffffffffffffffffffffffffffffffffff1673ffffffffffffffffffffffffffffffffffffffff168152602001600b8201548152505090506125ce8160a0015182610120015130846101400151613832565b80610120015173ffffffffffffffffffffffffffffffffffffffff16847f43c168f1d9d74d73325ab680f380bc731699766781190d47b123572b01b2fa2883610140015160405161261f9190614e46565b60405180910390a350505050565b612635611b58565b15612675576040517f08c379a000000000000000000000000000000000000000000000000000000000815260040161266c90614c86565b60405180910390fd5b81600073ffffffffffffffffffffffffffffffffffffffff166003600083815260200190815260200160002060030160009054906101000a900473ffffffffffffffffffffffffffffffffffffffff1673ffffffffffffffffffffffffffffffffffffffff16141561271c576040517f08c379a000000000000000000000000000000000000000000000000000000000815260040161271390614d26565b60405180910390fd5b600060036000858152602001908152602001600020604051806101a00160405290816000820160009054906101000a900460ff166001811115612788577f4e487b7100000000000000000000000000000000000000000000000000000000600052602160045260246000fd5b60018111156127c0577f4e487b7100000000000000000000000000000000000000000000000000000000600052602160045260246000fd5b81526020016000820160019054906101000a900460ff1615151515815260200160018201548152602001600282015481526020016003820160009054906101000a900473ffffffffffffffffffffffffffffffffffffffff1673ffffffffffffffffffffffffffffffffffffffff1673ffffffffffffffffffffffffffffffffffffffff1681526020016004820160009054906101000a900473ffffffffffffffffffffffffffffffffffffffff1673ffffffffffffffffffffffffffffffffffffffff1673ffffffffffffffffffffffffffffffffffffffff168152602001600582015481526020016006820160009054906101000a900473ffffffffffffffffffffffffffffffffffffffff1673ffffffffffffffffffffffffffffffffffffffff1673ffffffffffffffffffffffffffffffffffffffff168152602001600782015481526020016008820160009054906101000a900473ffffffffffffffffffffffffffffffffffffffff1673ffffffffffffffffffffffffffffffffffffffff1673ffffffffffffffffffffffffffffffffffffffff16815260200160098201548152602001600a820160009054906101000a900473ffffffffffffffffffffffffffffffffffffffff1673ffffffffffffffffffffffffffffffffffffffff1673ffffffffffffffffffffffffffffffffffffffff168152602001600b8201548152505090508060200151612a0f576040517f08c379a0000000000000000000000000000000000000000000000000000000008152600401612a0690614b86565b60405180910390fd5b60006003600086815260200190815260200160002060000160016101000a81548160ff0219169083151502179055506000806001811115612a79577f4e487b7100000000000000000000000000000000000000000000000000000000600052602160045260246000fd5b82600001516001811115612ab6577f4e487b7100000000000000000000000000000000000000000000000000000000600052602160045260246000fd5b1415612c25574282604001511115612b03576040517f08c379a0000000000000000000000000000000000000000000000000000000008152600401612afa90614c66565b60405180910390fd5b600082606001511480612b195750428260600151115b612b58576040517f08c379a0000000000000000000000000000000000000000000000000000000008152600401612b4f90614c46565b60405180910390fd5b838260c001511115612b9f576040517f08c379a0000000000000000000000000000000000000000000000000000000008152600401612b9690614dc6565b60405180910390fd5b612ba76135cb565b60036000878152602001908152602001600020600a0160006101000a81548173ffffffffffffffffffffffffffffffffffffffff021916908373ffffffffffffffffffffffffffffffffffffffff1602179055508360036000878152602001908152602001600020600b0181905550612c1e6135cb565b9050612e7b565b600180811115612c5e577f4e487b7100000000000000000000000000000000000000000000000000000000600052602160045260246000fd5b82600001516001811115612c9b577f4e487b7100000000000000000000000000000000000000000000000000000000600052602160045260246000fd5b1415612e7a57600073ffffffffffffffffffffffffffffffffffffffff1682610120015173ffffffffffffffffffffffffffffffffffffffff161415612d16576040517f08c379a0000000000000000000000000000000000000000000000000000000008152600401612d0d90614da6565b60405180910390fd5b612d1e6135cb565b73ffffffffffffffffffffffffffffffffffffffff1682610120015173ffffffffffffffffffffffffffffffffffffffff16148015612d61575042826060015111155b80612da25750612d6f6135cb565b73ffffffffffffffffffffffffffffffffffffffff16826080015173ffffffffffffffffffffffffffffffffffffffff16145b80612dbd5750612dbc6000801b612db76135cb565b611c18565b5b612dfc576040517f08c379a0000000000000000000000000000000000000000000000000000000008152600401612df390614de6565b60405180910390fd5b81610120015160036000878152602001908152602001600020600a0160006101000a81548173ffffffffffffffffffffffffffffffffffffffff021916908373ffffffffffffffffffffffffffffffffffffffff16021790555081610140015160036000878152602001908152602001600020600b01819055503090505b5b60036000868152602001908152602001600020604051806101a00160405290816000820160009054906101000a900460ff166001811115612ee5577f4e487b7100000000000000000000000000000000000000000000000000000000600052602160045260246000fd5b6001811115612f1d577f4e487b7100000000000000000000000000000000000000000000000000000000600052602160045260246000fd5b81526020016000820160019054906101000a900460ff1615151515815260200160018201548152602001600282015481526020016003820160009054906101000a900473ffffffffffffffffffffffffffffffffffffffff1673ffffffffffffffffffffffffffffffffffffffff1673ffffffffffffffffffffffffffffffffffffffff1681526020016004820160009054906101000a900473ffffffffffffffffffffffffffffffffffffffff1673ffffffffffffffffffffffffffffffffffffffff1673ffffffffffffffffffffffffffffffffffffffff168152602001600582015481526020016006820160009054906101000a900473ffffffffffffffffffffffffffffffffffffffff1673ffffffffffffffffffffffffffffffffffffffff1673ffffffffffffffffffffffffffffffffffffffff168152602001600782015481526020016008820160009054906101000a900473ffffffffffffffffffffffffffffffffffffffff1673ffffffffffffffffffffffffffffffffffffffff1673ffffffffffffffffffffffffffffffffffffffff16815260200160098201548152602001600a820160009054906101000a900473ffffffffffffffffffffffffffffffffffffffff1673ffffffffffffffffffffffffffffffffffffffff1673ffffffffffffffffffffffffffffffffffffffff168152602001600b820154815250509150600082610180015111156132fc57600082610180015190506000670de0b6b3a76400007f000000000000000000000000000000000000000000000000000000000000000085610180015161317c9190614f0f565b6131869190614ede565b90506131b88460a00151847f000000000000000000000000000000000000000000000000000000000000000084613832565b80826131c49190614f69565b91508360e0015173ffffffffffffffffffffffffffffffffffffffff1663e814cb718561010001516040518263ffffffff1660e01b81526004016132089190614e46565b604080518083038186803b15801561321f57600080fd5b505afa92505050801561325057506040513d601f19601f8201168201806040525081019061324d91906142b9565b60015b613259576132db565b8173ffffffffffffffffffffffffffffffffffffffff16866080015173ffffffffffffffffffffffffffffffffffffffff16146132d8576000670de0b6b3a7640000828861018001516132ac9190614f0f565b6132b69190614ede565b90506132c88760a00151878584613832565b80856132d49190614f69565b9450505b50505b60008211156132f9576132f88460a0015184866080015185613832565b5b50505b8160e0015173ffffffffffffffffffffffffffffffffffffffff166342842e0e308461016001518561010001516040518463ffffffff1660e01b815260040161334793929190614983565b600060405180830381600087803b15801561336157600080fd5b505af1158015613375573d6000803e3d6000fd5b5050505081610160015173ffffffffffffffffffffffffffffffffffffffff16857f1e7abafb1a786c4e6394b5c494f50a97e3802ff2ce462eca4fe6a2dd4e1f92e88461018001516040516133ca9190614e46565b60405180910390a35050505050565b60006133f660016000848152602001908152602001600020613996565b9050919050565b61340782826139ab565b61342c81600160008581526020019081526020016000206136a390919063ffffffff16565b505050565b6000807f00000000000000000000000000000000000000000000000000000000000000007f0000000000000000000000000000000000000000000000000000000000000000915091509091565b7f65d7a28e3265b37a6474929f336521b332c1681b933f6cb9f3376673440d862a81565b6134ac82826139d4565b5050565b60006134d8836000018373ffffffffffffffffffffffffffffffffffffffff1660001b613ab4565b905092915050565b60007f7965db0b000000000000000000000000000000000000000000000000000000007bffffffffffffffffffffffffffffffffffffffffffffffffffffffff1916827bffffffffffffffffffffffffffffffffffffffffffffffffffffffff19161480613553575061355282613b24565b5b9050919050565b60008042841061356a578361356c565b425b9050600080841461357d578361359f565b7fffffffffffffffffffffffffffffffffffffffffffffffffffffffffffffffff5b9050808211156135b4576000925050506135c5565b81816135c09190614f69565b925050505b92915050565b600033905090565b600081600001549050919050565b6001816000016000828254019250508190555050565b6136008261146c565b6136118161360c6135cb565b613b8e565b61361b83836139d4565b505050565b6136286135cb565b73ffffffffffffffffffffffffffffffffffffffff168173ffffffffffffffffffffffffffffffffffffffff1614613695576040517f08c379a000000000000000000000000000000000000000000000000000000000815260040161368c90614e06565b60405180910390fd5b61369f8282613c2b565b5050565b60006136cb836000018373ffffffffffffffffffffffffffffffffffffffff1660001b613d0c565b905092915050565b6136db611b58565b61371a576040517f08c379a000000000000000000000000000000000000000000000000000000000815260040161371190614b66565b60405180910390fd5b6000600260006101000a81548160ff0219169083151502179055507f5db9ee0a495bf2e6ff9c91a7834c1ba4fdd244a5e8aa4e537bd38aeae4b073aa61375e6135cb565b60405161376b9190614968565b60405180910390a1565b61377d611b58565b156137bd576040517f08c379a00000000000000000000000000000000000000000000000000000000081526004016137b490614c86565b60405180910390fd5b6001600260006101000a81548160ff0219169083151502179055507f62e78cea01bee320cd4e420270b5ea74000d11b0c9f74754ebdbfc544b05a2586138016135cb565b60405161380e9190614968565b60405180910390a1565b60006138278360000183613e92565b60001c905092915050565b60008490503073ffffffffffffffffffffffffffffffffffffffff168473ffffffffffffffffffffffffffffffffffffffff1614156138fe578073ffffffffffffffffffffffffffffffffffffffff1663a9059cbb84846040518363ffffffff1660e01b81526004016138a69291906149ba565b602060405180830381600087803b1580156138c057600080fd5b505af11580156138d4573d6000803e3d6000fd5b505050506040513d601f19601f820116820180604052508101906138f891906142f5565b5061398f565b8073ffffffffffffffffffffffffffffffffffffffff166323b872dd8585856040518463ffffffff1660e01b815260040161393b93929190614983565b602060405180830381600087803b15801561395557600080fd5b505af1158015613969573d6000803e3d6000fd5b505050506040513d601f19601f8201168201806040525081019061398d91906142f5565b505b5050505050565b60006139a482600001613ee3565b9050919050565b6139b48261146c565b6139c5816139c06135cb565b613b8e565b6139cf8383613c2b565b505050565b6139de8282611c18565b613ab057600160008084815260200190815260200160002060000160008373ffffffffffffffffffffffffffffffffffffffff1673ffffffffffffffffffffffffffffffffffffffff16815260200190815260200160002060006101000a81548160ff021916908315150217905550613a556135cb565b73ffffffffffffffffffffffffffffffffffffffff168173ffffffffffffffffffffffffffffffffffffffff16837f2f8788117e7eff1d82e926ec794901d17c78024a50270940304540a733656f0d60405160405180910390a45b5050565b6000613ac08383613ef4565b613b19578260000182908060018154018082558091505060019003906000526020600020016000909190919091505582600001805490508360010160008481526020019081526020016000208190555060019050613b1e565b600090505b92915050565b60007f01ffc9a7000000000000000000000000000000000000000000000000000000007bffffffffffffffffffffffffffffffffffffffffffffffffffffffff1916827bffffffffffffffffffffffffffffffffffffffffffffffffffffffff1916149050919050565b613b988282611c18565b613c2757613bbd8173ffffffffffffffffffffffffffffffffffffffff166014613f17565b613bcb8360001c6020613f17565b604051602001613bdc92919061492e565b6040516020818303038152906040526040517f08c379a0000000000000000000000000000000000000000000000000000000008152600401613c1e9190614b24565b60405180910390fd5b5050565b613c358282611c18565b15613d0857600080600084815260200190815260200160002060000160008373ffffffffffffffffffffffffffffffffffffffff1673ffffffffffffffffffffffffffffffffffffffff16815260200190815260200160002060006101000a81548160ff021916908315150217905550613cad6135cb565b73ffffffffffffffffffffffffffffffffffffffff168173ffffffffffffffffffffffffffffffffffffffff16837ff6391f5c32d9c69d2a47ea670b442974b53935d1edc7fd64eb21e047a839171b60405160405180910390a45b5050565b60008083600101600084815260200190815260200160002054905060008114613e86576000600182613d3e9190614f69565b9050600060018660000180549050613d569190614f69565b9050818114613e11576000866000018281548110613d9d577f4e487b7100000000000000000000000000000000000000000000000000000000600052603260045260246000fd5b9060005260206000200154905080876000018481548110613de7577f4e487b7100000000000000000000000000000000000000000000000000000000600052603260045260246000fd5b90600052602060002001819055508387600101600083815260200190815260200160002081905550505b85600001805480613e4b577f4e487b7100000000000000000000000000000000000000000000000000000000600052603160045260246000fd5b600190038181906000526020600020016000905590558560010160008681526020019081526020016000206000905560019350505050613e8c565b60009150505b92915050565b6000826000018281548110613ed0577f4e487b7100000000000000000000000000000000000000000000000000000000600052603260045260246000fd5b9060005260206000200154905092915050565b600081600001805490509050919050565b600080836001016000848152602001908152602001600020541415905092915050565b606060006002836002613f2a9190614f0f565b613f349190614e88565b67ffffffffffffffff811115613f73577f4e487b7100000000000000000000000000000000000000000000000000000000600052604160045260246000fd5b6040519080825280601f01601f191660200182016040528015613fa55781602001600182028036833780820191505090505b5090507f300000000000000000000000000000000000000000000000000000000000000081600081518110614003577f4e487b7100000000000000000000000000000000000000000000000000000000600052603260045260246000fd5b60200101907effffffffffffffffffffffffffffffffffffffffffffffffffffffffffffff1916908160001a9053507f78000000000000000000000000000000000000000000000000000000000000008160018151811061408d577f4e487b7100000000000000000000000000000000000000000000000000000000600052603260045260246000fd5b60200101907effffffffffffffffffffffffffffffffffffffffffffffffffffffffffffff1916908160001a905350600060018460026140cd9190614f0f565b6140d79190614e88565b90505b60018111156141c3577f3031323334353637383961626364656600000000000000000000000000000000600f86166010811061413f577f4e487b7100000000000000000000000000000000000000000000000000000000600052603260045260246000fd5b1a60f81b82828151811061417c577f4e487b7100000000000000000000000000000000000000000000000000000000600052603260045260246000fd5b60200101907effffffffffffffffffffffffffffffffffffffffffffffffffffffffffffff1916908160001a905350600485901c9450806141bc90615073565b90506140da565b5060008414614207576040517f08c379a00000000000000000000000000000000000000000000000000000000081526004016141fe90614b46565b60405180910390fd5b8091505092915050565b600081359050614220816158e3565b92915050565b600081519050614235816158e3565b92915050565b60008151905061424a816158fa565b92915050565b60008135905061425f81615911565b92915050565b60008135905061427481615928565b92915050565b6000813590506142898161593f565b92915050565b60008135905061429e8161594f565b92915050565b6000815190506142b38161594f565b92915050565b600080604083850312156142cc57600080fd5b60006142da85828601614226565b92505060206142eb858286016142a4565b9150509250929050565b60006020828403121561430757600080fd5b60006143158482850161423b565b91505092915050565b60006020828403121561433057600080fd5b600061433e84828501614250565b91505092915050565b6000806040838503121561435a57600080fd5b600061436885828601614250565b925050602061437985828601614211565b9150509250929050565b6000806040838503121561439657600080fd5b60006143a485828601614250565b92505060206143b58582860161428f565b9150509250929050565b6000602082840312156143d157600080fd5b60006143df84828501614265565b91505092915050565b600080600080600080600060e0888a03121561440357600080fd5b60006144118a828b0161427a565b97505060206144228a828b0161428f565b96505060406144338a828b0161428f565b95505060606144448a828b01614211565b94505060806144558a828b0161428f565b93505060a06144668a828b01614211565b92505060c06144778a828b0161428f565b91505092959891949750929550565b60006020828403121561449857600080fd5b60006144a68482850161428f565b91505092915050565b600080604083850312156144c257600080fd5b60006144d08582860161428f565b92505060206144e18582860161428f565b9150509250929050565b6144f481614f9d565b82525050565b61450381614faf565b82525050565b61451281614fbb565b82525050565b6145218161502e565b82525050565b600061453282614e61565b61453c8185614e6c565b935061454c818560208601615040565b6145558161512a565b840191505092915050565b600061456b82614e61565b6145758185614e7d565b9350614585818560208601615040565b80840191505092915050565b600061459e602083614e6c565b91506145a98261513b565b602082019050919050565b60006145c1601483614e6c565b91506145cc82615164565b602082019050919050565b60006145e4602f83614e6c565b91506145ef8261518d565b604082019050919050565b6000614607603383614e6c565b9150614612826151dc565b604082019050919050565b600061462a603983614e6c565b91506146358261522b565b604082019050919050565b600061464d602e83614e6c565b91506146588261527a565b604082019050919050565b6000614670605083614e6c565b915061467b826152c9565b606082019050919050565b6000614693603983614e6c565b915061469e8261533e565b604082019050919050565b60006146b6603a83614e6c565b91506146c18261538d565b604082019050919050565b60006146d9603b83614e6c565b91506146e4826153dc565b604082019050919050565b60006146fc601083614e6c565b91506147078261542b565b602082019050919050565b600061471f603583614e6c565b915061472a82615454565b604082019050919050565b6000614742603583614e6c565b915061474d826154a3565b604082019050919050565b6000614765603183614e6c565b9150614770826154f2565b604082019050919050565b6000614788603083614e6c565b915061479382615541565b604082019050919050565b60006147ab602683614e6c565b91506147b682615590565b604082019050919050565b60006147ce602c83614e6c565b91506147d9826155df565b604082019050919050565b60006147f1603a83614e6c565b91506147fc8261562e565b604082019050919050565b6000614814601783614e7d565b915061481f8261567d565b601782019050919050565b6000614837603583614e6c565b9150614842826156a6565b604082019050919050565b600061485a603e83614e6c565b9150614865826156f5565b604082019050919050565b600061487d603a83614e6c565b915061488882615744565b604082019050919050565b60006148a0601183614e7d565b91506148ab82615793565b601182019050919050565b60006148c3604c83614e6c565b91506148ce826157bc565b606082019050919050565b60006148e6602f83614e6c565b91506148f182615831565b604082019050919050565b6000614909602c83614e6c565b915061491482615880565b604082019050919050565b61492881615024565b82525050565b600061493982614807565b91506149458285614560565b915061495082614893565b915061495c8284614560565b91508190509392505050565b600060208201905061497d60008301846144eb565b92915050565b600060608201905061499860008301866144eb565b6149a560208301856144eb565b6149b2604083018461491f565b949350505050565b60006040820190506149cf60008301856144eb565b6149dc602083018461491f565b9392505050565b60006020820190506149f860008301846144fa565b92915050565b6000602082019050614a136000830184614509565b92915050565b600061014082019050614a2f600083018d614518565b614a3c602083018c6144fa565b614a49604083018b61491f565b614a56606083018a61491f565b614a6360808301896144eb565b614a7060a08301886144eb565b614a7d60c083018761491f565b614a8a60e083018661491f565b614a986101008301856144eb565b614aa661012083018461491f565b9b9a5050505050505050505050565b600060e082019050614aca600083018a614518565b614ad7602083018961491f565b614ae4604083018861491f565b614af160608301876144eb565b614afe608083018661491f565b614b0b60a08301856144eb565b614b1860c083018461491f565b98975050505050505050565b60006020820190508181036000830152614b3e8184614527565b905092915050565b60006020820190508181036000830152614b5f81614591565b9050919050565b60006020820190508181036000830152614b7f816145b4565b9050919050565b60006020820190508181036000830152614b9f816145d7565b9050919050565b60006020820190508181036000830152614bbf816145fa565b9050919050565b60006020820190508181036000830152614bdf8161461d565b9050919050565b60006020820190508181036000830152614bff81614640565b9050919050565b60006020820190508181036000830152614c1f81614663565b9050919050565b60006020820190508181036000830152614c3f81614686565b9050919050565b60006020820190508181036000830152614c5f816146a9565b9050919050565b60006020820190508181036000830152614c7f816146cc565b9050919050565b60006020820190508181036000830152614c9f816146ef565b9050919050565b60006020820190508181036000830152614cbf81614712565b9050919050565b60006020820190508181036000830152614cdf81614735565b9050919050565b60006020820190508181036000830152614cff81614758565b9050919050565b60006020820190508181036000830152614d1f8161477b565b9050919050565b60006020820190508181036000830152614d3f8161479e565b9050919050565b60006020820190508181036000830152614d5f816147c1565b9050919050565b60006020820190508181036000830152614d7f816147e4565b9050919050565b60006020820190508181036000830152614d9f8161482a565b9050919050565b60006020820190508181036000830152614dbf8161484d565b9050919050565b60006020820190508181036000830152614ddf81614870565b9050919050565b60006020820190508181036000830152614dff816148b6565b9050919050565b60006020820190508181036000830152614e1f816148d9565b9050919050565b60006020820190508181036000830152614e3f816148fc565b9050919050565b6000602082019050614e5b600083018461491f565b92915050565b600081519050919050565b600082825260208201905092915050565b600081905092915050565b6000614e9382615024565b9150614e9e83615024565b9250827fffffffffffffffffffffffffffffffffffffffffffffffffffffffffffffffff03821115614ed357614ed261509d565b5b828201905092915050565b6000614ee982615024565b9150614ef483615024565b925082614f0457614f036150cc565b5b828204905092915050565b6000614f1a82615024565b9150614f2583615024565b9250817fffffffffffffffffffffffffffffffffffffffffffffffffffffffffffffffff0483118215151615614f5e57614f5d61509d565b5b828202905092915050565b6000614f7482615024565b9150614f7f83615024565b925082821015614f9257614f9161509d565b5b828203905092915050565b6000614fa882615004565b9050919050565b60008115159050919050565b6000819050919050565b60007fffffffff0000000000000000000000000000000000000000000000000000000082169050919050565b6000819050614fff826158cf565b919050565b600073ffffffffffffffffffffffffffffffffffffffff82169050919050565b6000819050919050565b600061503982614ff1565b9050919050565b60005b8381101561505e578082015181840152602081019050615043565b8381111561506d576000848401525b50505050565b600061507e82615024565b915060008214156150925761509161509d565b5b600182039050919050565b7f4e487b7100000000000000000000000000000000000000000000000000000000600052601160045260246000fd5b7f4e487b7100000000000000000000000000000000000000000000000000000000600052601260045260246000fd5b7f4e487b7100000000000000000000000000000000000000000000000000000000600052602160045260246000fd5b6000601f19601f8301169050919050565b7f537472696e67733a20686578206c656e67746820696e73756666696369656e74600082015250565b7f5061757361626c653a206e6f7420706175736564000000000000000000000000600082015250565b7f4c656d6f6e6164654d61726b6574706c6163653a206f72646572206d7573742060008201527f6265206f70656e20746f2066696c6c0000000000000000000000000000000000602082015250565b7f4c656d6f6e6164654d61726b6574706c6163653a206d7573742068617665207060008201527f617573657220726f6c6520746f20706175736500000000000000000000000000602082015250565b7f4c656d6f6e6164654d61726b6574706c6163653a206f72646572206d7573742060008201527f6265206f70656e20746f20626964202d20746f6f206c61746500000000000000602082015250565b7f4c656d6f6e6164654d61726b6574706c6163653a206f72646572206d7573742060008201527f6265206f70656e20746f20626964000000000000000000000000000000000000602082015250565b7f4c656d6f6e6164654d61726b6574706c6163653a206f72646572206f66206b6960008201527f6e642061756374696f6e206d757374206e6f74206265206f70656e20666f722060208201527f6d6f7265207468616e2037206461797300000000000000000000000000000000604082015250565b7f4c656d6f6e6164654d61726b6574706c6163653a206f72646572206d7573742060008201527f6265206f66206b696e642061756374696f6e20746f2062696400000000000000602082015250565b7f4c656d6f6e6164654d61726b6574706c6163653a206f72646572206d7573742060008201527f6265206f70656e20746f2066696c6c202d20746f6f206c617465000000000000602082015250565b7f4c656d6f6e6164654d61726b6574706c6163653a206f72646572206d7573742060008201527f6265206f70656e20746f2066696c6c202d20746f6f206561726c790000000000602082015250565b7f5061757361626c653a2070617573656400000000000000000000000000000000600082015250565b7f4c656d6f6e6164654d61726b6574706c6163653a206f72646572206d7573742060008201527f6265206f70656e20617420736f6d6520706f696e740000000000000000000000602082015250565b7f4c656d6f6e6164654d61726b6574706c6163653a206f72646572206d7573742060008201527f68617665206e6f2062696420746f2063616e63656c0000000000000000000000602082015250565b7f4c656d6f6e6164654d61726b6574706c6163653a206f72646572206d7573742060008201527f6265206f70656e20746f2063616e63656c000000000000000000000000000000602082015250565b7f4c656d6f6e6164654d61726b6574706c6163653a206d7573742062652074686560008201527f206d616b657220746f2063616e63656c00000000000000000000000000000000602082015250565b7f4c656d6f6e6164654d61726b6574706c6163653a206f72646572206e6f6e657860008201527f697374656e740000000000000000000000000000000000000000000000000000602082015250565b7f4c656d6f6e6164654d61726b6574706c6163653a206d757374206d617463682060008201527f707269636520746f206269640000000000000000000000000000000000000000602082015250565b7f4c656d6f6e6164654d61726b6574706c6163653a206f72646572206d7573742060008201527f6265206f70656e20746f20626964202d20746f6f206561726c79000000000000602082015250565b7f416363657373436f6e74726f6c3a206163636f756e7420000000000000000000600082015250565b7f4c656d6f6e6164654d61726b6574706c6163653a206d7573742068617665207060008201527f617573657220726f6c6520746f20756e70617573650000000000000000000000602082015250565b7f4c656d6f6e6164654d61726b6574706c6163653a206f72646572206d7573742060008201527f686176652062696420746f2066696c6c2061756374696f6e206f726465720000602082015250565b7f4c656d6f6e6164654d61726b6574706c6163653a206d757374206d617463682060008201527f707269636520746f2066696c6c20646972656374206f72646572000000000000602082015250565b7f206973206d697373696e6720726f6c6520000000000000000000000000000000600082015250565b7f4c656d6f6e6164654d61726b6574706c6163653a206d7573742062652074686560008201527f206d616b6572206f722066696e616c2062696464657220746f2066696c6c206160208201527f756374696f6e206f726465720000000000000000000000000000000000000000604082015250565b7f416363657373436f6e74726f6c3a2063616e206f6e6c792072656e6f756e636560008201527f20726f6c657320666f722073656c660000000000000000000000000000000000602082015250565b7f4c656d6f6e6164654d61726b6574706c6163653a206d7573742073757270617360008201527f732062696420746f206269640000000000000000000000000000000000000000602082015250565b600281106158e0576158df6150fb565b5b50565b6158ec81614f9d565b81146158f757600080fd5b50565b61590381614faf565b811461590e57600080fd5b50565b61591a81614fbb565b811461592557600080fd5b50565b61593181614fc5565b811461593c57600080fd5b50565b6002811061594c57600080fd5b50565b61595881615024565b811461596357600080fd5b5056fea264697066735822122073f492d169be3a69e858552f8b946679014e4feee0522ca555ce3bcb1d581fcc64736f6c63430008040033",
  "devdoc": {
    "kind": "dev",
    "methods": {
      "getRoleAdmin(bytes32)": {
        "details": "Returns the admin role that controls `role`. See {grantRole} and {revokeRole}. To change a role's admin, use {_setRoleAdmin}."
      },
      "getRoleMember(bytes32,uint256)": {
        "details": "Returns one of the accounts that have `role`. `index` must be a value between 0 and {getRoleMemberCount}, non-inclusive. Role bearers are not sorted in any particular way, and their ordering may change at any point. WARNING: When using {getRoleMember} and {getRoleMemberCount}, make sure you perform all queries on the same block. See the following https://forum.openzeppelin.com/t/iterating-over-elements-on-enumerableset-in-openzeppelin-contracts/2296[forum post] for more information."
      },
      "getRoleMemberCount(bytes32)": {
        "details": "Returns the number of accounts that have `role`. Can be used together with {getRoleMember} to enumerate all bearers of a role."
      },
      "grantRole(bytes32,address)": {
        "details": "Overload {grantRole} to track enumerable memberships"
      },
      "hasRole(bytes32,address)": {
        "details": "Returns `true` if `account` has been granted `role`."
      },
      "paused()": {
        "details": "Returns true if the contract is paused, and false otherwise."
      },
      "renounceRole(bytes32,address)": {
        "details": "Overload {renounceRole} to track enumerable memberships"
      },
      "revokeRole(bytes32,address)": {
        "details": "Overload {revokeRole} to track enumerable memberships"
      },
      "supportsInterface(bytes4)": {
        "details": "See {IERC165-supportsInterface}."
      }
    },
    "version": 1
  },
  "userdoc": {
    "kind": "user",
    "methods": {},
    "version": 1
  },
  "storageLayout": {
    "storage": [
      {
        "astId": 24,
        "contract": "contracts/LemonadeMarketplace.sol:LemonadeMarketplace",
        "label": "_roles",
        "offset": 0,
        "slot": "0",
        "type": "t_mapping(t_bytes32,t_struct(RoleData)19_storage)"
      },
      {
        "astId": 325,
        "contract": "contracts/LemonadeMarketplace.sol:LemonadeMarketplace",
        "label": "_roleMembers",
        "offset": 0,
        "slot": "1",
        "type": "t_mapping(t_bytes32,t_struct(AddressSet)1516_storage)"
      },
      {
        "astId": 601,
        "contract": "contracts/LemonadeMarketplace.sol:LemonadeMarketplace",
        "label": "_paused",
        "offset": 0,
        "slot": "2",
        "type": "t_bool"
      },
      {
        "astId": 1922,
        "contract": "contracts/LemonadeMarketplace.sol:LemonadeMarketplace",
        "label": "_orders",
        "offset": 0,
        "slot": "3",
        "type": "t_mapping(t_uint256,t_struct(Order)1917_storage)"
      },
      {
        "astId": 1925,
        "contract": "contracts/LemonadeMarketplace.sol:LemonadeMarketplace",
        "label": "_orderIdTracker",
        "offset": 0,
        "slot": "4",
        "type": "t_struct(Counter)897_storage"
      }
    ],
    "types": {
      "t_address": {
        "encoding": "inplace",
        "label": "address",
        "numberOfBytes": "20"
      },
      "t_array(t_bytes32)dyn_storage": {
        "base": "t_bytes32",
        "encoding": "dynamic_array",
        "label": "bytes32[]",
        "numberOfBytes": "32"
      },
      "t_bool": {
        "encoding": "inplace",
        "label": "bool",
        "numberOfBytes": "1"
      },
      "t_bytes32": {
        "encoding": "inplace",
        "label": "bytes32",
        "numberOfBytes": "32"
      },
      "t_enum(OrderKind)1848": {
        "encoding": "inplace",
        "label": "enum LemonadeMarketplace.OrderKind",
        "numberOfBytes": "1"
      },
      "t_mapping(t_address,t_bool)": {
        "encoding": "mapping",
        "key": "t_address",
        "label": "mapping(address => bool)",
        "numberOfBytes": "32",
        "value": "t_bool"
      },
      "t_mapping(t_bytes32,t_struct(AddressSet)1516_storage)": {
        "encoding": "mapping",
        "key": "t_bytes32",
        "label": "mapping(bytes32 => struct EnumerableSet.AddressSet)",
        "numberOfBytes": "32",
        "value": "t_struct(AddressSet)1516_storage"
      },
      "t_mapping(t_bytes32,t_struct(RoleData)19_storage)": {
        "encoding": "mapping",
        "key": "t_bytes32",
        "label": "mapping(bytes32 => struct AccessControl.RoleData)",
        "numberOfBytes": "32",
        "value": "t_struct(RoleData)19_storage"
      },
      "t_mapping(t_bytes32,t_uint256)": {
        "encoding": "mapping",
        "key": "t_bytes32",
        "label": "mapping(bytes32 => uint256)",
        "numberOfBytes": "32",
        "value": "t_uint256"
      },
      "t_mapping(t_uint256,t_struct(Order)1917_storage)": {
        "encoding": "mapping",
        "key": "t_uint256",
        "label": "mapping(uint256 => struct LemonadeMarketplace.Order)",
        "numberOfBytes": "32",
        "value": "t_struct(Order)1917_storage"
      },
      "t_struct(AddressSet)1516_storage": {
        "encoding": "inplace",
        "label": "struct EnumerableSet.AddressSet",
        "members": [
          {
            "astId": 1515,
            "contract": "contracts/LemonadeMarketplace.sol:LemonadeMarketplace",
            "label": "_inner",
            "offset": 0,
            "slot": "0",
            "type": "t_struct(Set)1215_storage"
          }
        ],
        "numberOfBytes": "64"
      },
      "t_struct(Counter)897_storage": {
        "encoding": "inplace",
        "label": "struct Counters.Counter",
        "members": [
          {
            "astId": 896,
            "contract": "contracts/LemonadeMarketplace.sol:LemonadeMarketplace",
            "label": "_value",
            "offset": 0,
            "slot": "0",
            "type": "t_uint256"
          }
        ],
        "numberOfBytes": "32"
      },
      "t_struct(Order)1917_storage": {
        "encoding": "inplace",
        "label": "struct LemonadeMarketplace.Order",
        "members": [
          {
            "astId": 1892,
            "contract": "contracts/LemonadeMarketplace.sol:LemonadeMarketplace",
            "label": "kind",
            "offset": 0,
            "slot": "0",
            "type": "t_enum(OrderKind)1848"
          },
          {
            "astId": 1894,
            "contract": "contracts/LemonadeMarketplace.sol:LemonadeMarketplace",
            "label": "open",
            "offset": 1,
            "slot": "0",
            "type": "t_bool"
          },
          {
            "astId": 1896,
            "contract": "contracts/LemonadeMarketplace.sol:LemonadeMarketplace",
            "label": "openFrom",
            "offset": 0,
            "slot": "1",
            "type": "t_uint256"
          },
          {
            "astId": 1898,
            "contract": "contracts/LemonadeMarketplace.sol:LemonadeMarketplace",
            "label": "openTo",
            "offset": 0,
            "slot": "2",
            "type": "t_uint256"
          },
          {
            "astId": 1900,
            "contract": "contracts/LemonadeMarketplace.sol:LemonadeMarketplace",
            "label": "maker",
            "offset": 0,
            "slot": "3",
            "type": "t_address"
          },
          {
            "astId": 1902,
            "contract": "contracts/LemonadeMarketplace.sol:LemonadeMarketplace",
            "label": "currency",
            "offset": 0,
            "slot": "4",
            "type": "t_address"
          },
          {
            "astId": 1904,
            "contract": "contracts/LemonadeMarketplace.sol:LemonadeMarketplace",
            "label": "price",
            "offset": 0,
            "slot": "5",
            "type": "t_uint256"
          },
          {
            "astId": 1906,
            "contract": "contracts/LemonadeMarketplace.sol:LemonadeMarketplace",
            "label": "tokenContract",
            "offset": 0,
            "slot": "6",
            "type": "t_address"
          },
          {
            "astId": 1908,
            "contract": "contracts/LemonadeMarketplace.sol:LemonadeMarketplace",
            "label": "tokenId",
            "offset": 0,
            "slot": "7",
            "type": "t_uint256"
          },
          {
            "astId": 1910,
            "contract": "contracts/LemonadeMarketplace.sol:LemonadeMarketplace",
            "label": "bidder",
            "offset": 0,
            "slot": "8",
            "type": "t_address"
          },
          {
            "astId": 1912,
            "contract": "contracts/LemonadeMarketplace.sol:LemonadeMarketplace",
            "label": "bidAmount",
            "offset": 0,
            "slot": "9",
            "type": "t_uint256"
          },
          {
            "astId": 1914,
            "contract": "contracts/LemonadeMarketplace.sol:LemonadeMarketplace",
            "label": "taker",
            "offset": 0,
            "slot": "10",
            "type": "t_address"
          },
          {
            "astId": 1916,
            "contract": "contracts/LemonadeMarketplace.sol:LemonadeMarketplace",
            "label": "paidAmount",
            "offset": 0,
            "slot": "11",
            "type": "t_uint256"
          }
        ],
        "numberOfBytes": "384"
      },
      "t_struct(RoleData)19_storage": {
        "encoding": "inplace",
        "label": "struct AccessControl.RoleData",
        "members": [
          {
            "astId": 16,
            "contract": "contracts/LemonadeMarketplace.sol:LemonadeMarketplace",
            "label": "members",
            "offset": 0,
            "slot": "0",
            "type": "t_mapping(t_address,t_bool)"
          },
          {
            "astId": 18,
            "contract": "contracts/LemonadeMarketplace.sol:LemonadeMarketplace",
            "label": "adminRole",
            "offset": 0,
            "slot": "1",
            "type": "t_bytes32"
          }
        ],
        "numberOfBytes": "64"
      },
      "t_struct(Set)1215_storage": {
        "encoding": "inplace",
        "label": "struct EnumerableSet.Set",
        "members": [
          {
            "astId": 1210,
            "contract": "contracts/LemonadeMarketplace.sol:LemonadeMarketplace",
            "label": "_values",
            "offset": 0,
            "slot": "0",
            "type": "t_array(t_bytes32)dyn_storage"
          },
          {
            "astId": 1214,
            "contract": "contracts/LemonadeMarketplace.sol:LemonadeMarketplace",
            "label": "_indexes",
            "offset": 0,
            "slot": "1",
            "type": "t_mapping(t_bytes32,t_uint256)"
          }
        ],
        "numberOfBytes": "64"
      },
      "t_uint256": {
        "encoding": "inplace",
        "label": "uint256",
        "numberOfBytes": "32"
      }
    }
  }
}