{
  "address": "0xa0f12a0943833226cA556dccB5B1309c3BCd654c",
  "abi": [
    {
      "inputs": [
        {
          "internalType": "address",
          "name": "feeAccount",
          "type": "address"
        },
        {
          "internalType": "uint96",
          "name": "feeValue",
          "type": "uint96"
        },
        {
          "internalType": "address",
          "name": "trustedForwarder_",
          "type": "address"
        }
      ],
      "stateMutability": "nonpayable",
      "type": "constructor"
    },
    {
      "anonymous": false,
      "inputs": [
        {
          "indexed": true,
          "internalType": "uint256",
          "name": "orderId",
          "type": "uint256"
        },
        {
          "indexed": true,
          "internalType": "address",
          "name": "bidder",
          "type": "address"
        },
        {
          "indexed": false,
          "internalType": "uint256",
          "name": "bidAmount",
          "type": "uint256"
        }
      ],
      "name": "OrderBid",
      "type": "event"
    },
    {
      "anonymous": false,
      "inputs": [
        {
          "indexed": true,
          "internalType": "uint256",
          "name": "orderId",
          "type": "uint256"
        }
      ],
      "name": "OrderCancelled",
      "type": "event"
    },
    {
      "anonymous": false,
      "inputs": [
        {
          "indexed": true,
          "internalType": "uint256",
          "name": "orderId",
          "type": "uint256"
        },
        {
          "indexed": false,
          "internalType": "enum LemonadeMarketplace.OrderKind",
          "name": "kind",
          "type": "uint8"
        },
        {
          "indexed": false,
          "internalType": "uint256",
          "name": "openFrom",
          "type": "uint256"
        },
        {
          "indexed": false,
          "internalType": "uint256",
          "name": "openTo",
          "type": "uint256"
        },
        {
          "indexed": true,
          "internalType": "address",
          "name": "maker",
          "type": "address"
        },
        {
          "indexed": false,
          "internalType": "address",
          "name": "currency",
          "type": "address"
        },
        {
          "indexed": false,
          "internalType": "uint256",
          "name": "price",
          "type": "uint256"
        },
        {
          "indexed": false,
          "internalType": "address",
          "name": "tokenContract",
          "type": "address"
        },
        {
          "indexed": false,
          "internalType": "uint256",
          "name": "tokenId",
          "type": "uint256"
        }
      ],
      "name": "OrderCreated",
      "type": "event"
    },
    {
      "anonymous": false,
      "inputs": [
        {
          "indexed": true,
          "internalType": "uint256",
          "name": "orderId",
          "type": "uint256"
        },
        {
          "indexed": true,
          "internalType": "address",
          "name": "taker",
          "type": "address"
        },
        {
          "indexed": false,
          "internalType": "uint256",
          "name": "paidAmount",
          "type": "uint256"
        }
      ],
      "name": "OrderFilled",
      "type": "event"
    },
    {
      "anonymous": false,
      "inputs": [
        {
          "indexed": false,
          "internalType": "address",
          "name": "account",
          "type": "address"
        }
      ],
      "name": "Paused",
      "type": "event"
    },
    {
      "anonymous": false,
      "inputs": [
        {
          "indexed": true,
          "internalType": "bytes32",
          "name": "role",
          "type": "bytes32"
        },
        {
          "indexed": true,
          "internalType": "bytes32",
          "name": "previousAdminRole",
          "type": "bytes32"
        },
        {
          "indexed": true,
          "internalType": "bytes32",
          "name": "newAdminRole",
          "type": "bytes32"
        }
      ],
      "name": "RoleAdminChanged",
      "type": "event"
    },
    {
      "anonymous": false,
      "inputs": [
        {
          "indexed": true,
          "internalType": "bytes32",
          "name": "role",
          "type": "bytes32"
        },
        {
          "indexed": true,
          "internalType": "address",
          "name": "account",
          "type": "address"
        },
        {
          "indexed": true,
          "internalType": "address",
          "name": "sender",
          "type": "address"
        }
      ],
      "name": "RoleGranted",
      "type": "event"
    },
    {
      "anonymous": false,
      "inputs": [
        {
          "indexed": true,
          "internalType": "bytes32",
          "name": "role",
          "type": "bytes32"
        },
        {
          "indexed": true,
          "internalType": "address",
          "name": "account",
          "type": "address"
        },
        {
          "indexed": true,
          "internalType": "address",
          "name": "sender",
          "type": "address"
        }
      ],
      "name": "RoleRevoked",
      "type": "event"
    },
    {
      "anonymous": false,
      "inputs": [
        {
          "indexed": false,
          "internalType": "address",
          "name": "account",
          "type": "address"
        }
      ],
      "name": "Unpaused",
      "type": "event"
    },
    {
      "inputs": [],
      "name": "DEFAULT_ADMIN_ROLE",
      "outputs": [
        {
          "internalType": "bytes32",
          "name": "",
          "type": "bytes32"
        }
      ],
      "stateMutability": "view",
      "type": "function"
    },
    {
      "inputs": [],
      "name": "FEE_ACCOUNT",
      "outputs": [
        {
          "internalType": "address",
          "name": "",
          "type": "address"
        }
      ],
      "stateMutability": "view",
      "type": "function"
    },
    {
      "inputs": [],
      "name": "FEE_VALUE",
      "outputs": [
        {
          "internalType": "uint96",
          "name": "",
          "type": "uint96"
        }
      ],
      "stateMutability": "view",
      "type": "function"
    },
    {
      "inputs": [],
      "name": "PAUSER_ROLE",
      "outputs": [
        {
          "internalType": "bytes32",
          "name": "",
          "type": "bytes32"
        }
      ],
      "stateMutability": "view",
      "type": "function"
    },
    {
      "inputs": [
        {
          "internalType": "uint256",
          "name": "orderId",
          "type": "uint256"
        },
        {
          "internalType": "uint256",
          "name": "amount",
          "type": "uint256"
        }
      ],
      "name": "bidOrder",
      "outputs": [],
      "stateMutability": "nonpayable",
      "type": "function"
    },
    {
      "inputs": [
        {
          "internalType": "uint256",
          "name": "orderId",
          "type": "uint256"
        }
      ],
      "name": "cancelOrder",
      "outputs": [],
      "stateMutability": "nonpayable",
      "type": "function"
    },
    {
      "inputs": [
        {
          "internalType": "enum LemonadeMarketplace.OrderKind",
          "name": "kind",
          "type": "uint8"
        },
        {
          "internalType": "uint256",
          "name": "openFrom",
          "type": "uint256"
        },
        {
          "internalType": "uint256",
          "name": "openTo",
          "type": "uint256"
        },
        {
          "internalType": "address",
          "name": "currency",
          "type": "address"
        },
        {
          "internalType": "uint256",
          "name": "price",
          "type": "uint256"
        },
        {
          "internalType": "address",
          "name": "tokenContract",
          "type": "address"
        },
        {
          "internalType": "uint256",
          "name": "tokenId",
          "type": "uint256"
        }
      ],
      "name": "createOrder",
      "outputs": [
        {
          "internalType": "uint256",
          "name": "",
          "type": "uint256"
        }
      ],
      "stateMutability": "nonpayable",
      "type": "function"
    },
    {
      "inputs": [],
      "name": "fee",
      "outputs": [
        {
          "internalType": "address",
          "name": "",
          "type": "address"
        },
        {
          "internalType": "uint96",
          "name": "",
          "type": "uint96"
        }
      ],
      "stateMutability": "view",
      "type": "function"
    },
    {
      "inputs": [
        {
          "internalType": "uint256",
          "name": "orderId",
          "type": "uint256"
        },
        {
          "internalType": "uint256",
          "name": "amount",
          "type": "uint256"
        }
      ],
      "name": "fillOrder",
      "outputs": [],
      "stateMutability": "nonpayable",
      "type": "function"
    },
    {
      "inputs": [
        {
          "internalType": "bytes32",
          "name": "role",
          "type": "bytes32"
        }
      ],
      "name": "getRoleAdmin",
      "outputs": [
        {
          "internalType": "bytes32",
          "name": "",
          "type": "bytes32"
        }
      ],
      "stateMutability": "view",
      "type": "function"
    },
    {
      "inputs": [
        {
          "internalType": "bytes32",
          "name": "role",
          "type": "bytes32"
        },
        {
          "internalType": "uint256",
          "name": "index",
          "type": "uint256"
        }
      ],
      "name": "getRoleMember",
      "outputs": [
        {
          "internalType": "address",
          "name": "",
          "type": "address"
        }
      ],
      "stateMutability": "view",
      "type": "function"
    },
    {
      "inputs": [
        {
          "internalType": "bytes32",
          "name": "role",
          "type": "bytes32"
        }
      ],
      "name": "getRoleMemberCount",
      "outputs": [
        {
          "internalType": "uint256",
          "name": "",
          "type": "uint256"
        }
      ],
      "stateMutability": "view",
      "type": "function"
    },
    {
      "inputs": [
        {
          "internalType": "bytes32",
          "name": "role",
          "type": "bytes32"
        },
        {
          "internalType": "address",
          "name": "account",
          "type": "address"
        }
      ],
      "name": "grantRole",
      "outputs": [],
      "stateMutability": "nonpayable",
      "type": "function"
    },
    {
      "inputs": [
        {
          "internalType": "bytes32",
          "name": "role",
          "type": "bytes32"
        },
        {
          "internalType": "address",
          "name": "account",
          "type": "address"
        }
      ],
      "name": "hasRole",
      "outputs": [
        {
          "internalType": "bool",
          "name": "",
          "type": "bool"
        }
      ],
      "stateMutability": "view",
      "type": "function"
    },
    {
      "inputs": [
        {
          "internalType": "address",
          "name": "forwarder",
          "type": "address"
        }
      ],
      "name": "isTrustedForwarder",
      "outputs": [
        {
          "internalType": "bool",
          "name": "",
          "type": "bool"
        }
      ],
      "stateMutability": "view",
      "type": "function"
    },
    {
      "inputs": [
        {
          "internalType": "uint256",
          "name": "orderId",
          "type": "uint256"
        }
      ],
      "name": "order",
      "outputs": [
        {
          "internalType": "enum LemonadeMarketplace.OrderKind",
          "name": "",
          "type": "uint8"
        },
        {
          "internalType": "bool",
          "name": "",
          "type": "bool"
        },
        {
          "internalType": "uint256",
          "name": "",
          "type": "uint256"
        },
        {
          "internalType": "uint256",
          "name": "",
          "type": "uint256"
        },
        {
          "internalType": "address",
          "name": "",
          "type": "address"
        },
        {
          "internalType": "address",
          "name": "",
          "type": "address"
        },
        {
          "internalType": "uint256",
          "name": "",
          "type": "uint256"
        },
        {
          "internalType": "uint256",
          "name": "",
          "type": "uint256"
        },
        {
          "internalType": "address",
          "name": "",
          "type": "address"
        },
        {
          "internalType": "uint256",
          "name": "",
          "type": "uint256"
        }
      ],
      "stateMutability": "view",
      "type": "function"
    },
    {
      "inputs": [],
      "name": "pause",
      "outputs": [],
      "stateMutability": "nonpayable",
      "type": "function"
    },
    {
      "inputs": [],
      "name": "paused",
      "outputs": [
        {
          "internalType": "bool",
          "name": "",
          "type": "bool"
        }
      ],
      "stateMutability": "view",
      "type": "function"
    },
    {
      "inputs": [
        {
          "internalType": "bytes32",
          "name": "role",
          "type": "bytes32"
        },
        {
          "internalType": "address",
          "name": "account",
          "type": "address"
        }
      ],
      "name": "renounceRole",
      "outputs": [],
      "stateMutability": "nonpayable",
      "type": "function"
    },
    {
      "inputs": [
        {
          "internalType": "bytes32",
          "name": "role",
          "type": "bytes32"
        },
        {
          "internalType": "address",
          "name": "account",
          "type": "address"
        }
      ],
      "name": "revokeRole",
      "outputs": [],
      "stateMutability": "nonpayable",
      "type": "function"
    },
    {
      "inputs": [
        {
          "internalType": "address",
          "name": "trustedForwarder_",
          "type": "address"
        }
      ],
      "name": "setTrustedForwarder",
      "outputs": [],
      "stateMutability": "nonpayable",
      "type": "function"
    },
    {
      "inputs": [
        {
          "internalType": "bytes4",
          "name": "interfaceId",
          "type": "bytes4"
        }
      ],
      "name": "supportsInterface",
      "outputs": [
        {
          "internalType": "bool",
          "name": "",
          "type": "bool"
        }
      ],
      "stateMutability": "view",
      "type": "function"
    },
    {
      "inputs": [
        {
          "internalType": "uint256",
          "name": "orderId",
          "type": "uint256"
        }
      ],
      "name": "token",
      "outputs": [
        {
          "internalType": "address",
          "name": "",
          "type": "address"
        },
        {
          "internalType": "uint256",
          "name": "",
          "type": "uint256"
        }
      ],
      "stateMutability": "view",
      "type": "function"
    },
    {
      "inputs": [],
      "name": "trustedForwarder",
      "outputs": [
        {
          "internalType": "address",
          "name": "",
          "type": "address"
        }
      ],
      "stateMutability": "view",
      "type": "function"
    },
    {
      "inputs": [],
      "name": "unpause",
      "outputs": [],
      "stateMutability": "nonpayable",
      "type": "function"
    },
    {
      "inputs": [],
      "name": "versionRecipient",
      "outputs": [
        {
          "internalType": "string",
          "name": "",
          "type": "string"
        }
      ],
      "stateMutability": "pure",
      "type": "function"
    }
  ],
  "transactionHash": "0x4f5d6720a616168bf0adf3056186f4853a508955d4b86c105a8da04e19fb85cf",
  "args": [
    "0x951292004e8a18955Cb1095CB72Ca6B01d68336E",
    "200",
    "0x9399BB24DBB5C4b782C70c2969F58716Ebbd6a3b"
  ],
  "solcInputHash": "e36dd94290dc41b9804dfb8a6e5aabca",
  "bytecode": "0x60c06040523480156200001157600080fd5b50604051620064bd380380620064bd8339818101604052810190620000379190620004f5565b6000600260006101000a81548160ff0219169083151502179055508273ffffffffffffffffffffffffffffffffffffffff1660808173ffffffffffffffffffffffffffffffffffffffff1660601b81525050816bffffffffffffffffffffffff1660a0816bffffffffffffffffffffffff1660a01b8152505080600260016101000a81548173ffffffffffffffffffffffffffffffffffffffff021916908373ffffffffffffffffffffffffffffffffffffffff160217905550620001156000801b620001096200015f60201b60201c565b6200017b60201b60201c565b620001567f65d7a28e3265b37a6474929f336521b332c1681b933f6cb9f3376673440d862a6200014a6200015f60201b60201c565b6200017b60201b60201c565b505050620005cb565b600062000176620001c360201b6200361a1760201c565b905090565b620001928282620001df60201b620036291760201c565b620001be8160016000858152602001908152602001600020620001f560201b620036371790919060201c565b505050565b6000620001da6200022d60201b620036671760201c565b905090565b620001f182826200027560201b60201c565b5050565b600062000225836000018373ffffffffffffffffffffffffffffffffffffffff1660001b6200036660201b60201c565b905092915050565b600060186000369050101580156200025257506200025133620003e060201b60201c565b5b156200026857601436033560601c905062000271565b33905062000272565b5b90565b6200028782826200043a60201b60201c565b6200036257600160008084815260200190815260200160002060000160008373ffffffffffffffffffffffffffffffffffffffff1673ffffffffffffffffffffffffffffffffffffffff16815260200190815260200160002060006101000a81548160ff021916908315150217905550620003076200015f60201b60201c565b73ffffffffffffffffffffffffffffffffffffffff168173ffffffffffffffffffffffffffffffffffffffff16837f2f8788117e7eff1d82e926ec794901d17c78024a50270940304540a733656f0d60405160405180910390a45b5050565b60006200037a8383620004a460201b60201c565b620003d5578260000182908060018154018082558091505060019003906000526020600020016000909190919091505582600001805490508360010160008481526020019081526020016000208190555060019050620003da565b600090505b92915050565b6000600260019054906101000a900473ffffffffffffffffffffffffffffffffffffffff1673ffffffffffffffffffffffffffffffffffffffff168273ffffffffffffffffffffffffffffffffffffffff16149050919050565b600080600084815260200190815260200160002060000160008373ffffffffffffffffffffffffffffffffffffffff1673ffffffffffffffffffffffffffffffffffffffff16815260200190815260200160002060009054906101000a900460ff16905092915050565b600080836001016000848152602001908152602001600020541415905092915050565b600081519050620004d88162000597565b92915050565b600081519050620004ef81620005b1565b92915050565b6000806000606084860312156200050b57600080fd5b60006200051b86828701620004c7565b93505060206200052e86828701620004de565b92505060406200054186828701620004c7565b9150509250925092565b600062000558826200055f565b9050919050565b600073ffffffffffffffffffffffffffffffffffffffff82169050919050565b60006bffffffffffffffffffffffff82169050919050565b620005a2816200054b565b8114620005ae57600080fd5b50565b620005bc816200057f565b8114620005c857600080fd5b50565b60805160601c60a05160a01c615eaa6200061360003960008181611b8b0152818161306b01526135cf015260008181611a27015281816130bf01526135ae0152615eaa6000f3fe608060405234801561001057600080fd5b506004361061018e5760003560e01c80637da0a877116100de578063b858fb5f11610097578063d547741f11610071578063d547741f146104a1578063da742228146104bd578063ddca3f43146104d9578063e63ab1e9146104f85761018e565b8063b858fb5f14610439578063c37dfc5b14610455578063ca15c873146104715761018e565b80637da0a877146103755780638456cb59146103935780639010d07c1461039d57806391d14854146103cd578063a217fddf146103fd578063ae9130951461041b5761018e565b806336568abe1161014b578063514fcac711610125578063514fcac7146102ed578063572b6c05146103095780635c975abb146103395780637cca687b146103575761018e565b806336568abe146102a95780633f4ba83a146102c5578063486ff0cd146102cf5761018e565b806301ffc9a714610193578063044215c6146101c35780630c109710146101f457806321603f4314610224578063248a9ca31461025d5780632f2ff15d1461028d575b600080fd5b6101ad60048036038101906101a891906146ff565b610516565b6040516101ba9190614d5b565b60405180910390f35b6101dd60048036038101906101d891906147c6565b610590565b6040516101eb929190614d09565b60405180910390f35b61020e60048036038101906102099190614728565b610692565b60405161021b91906151be565b60405180910390f35b61023e600480360381019061023991906147c6565b610ef2565b6040516102549a99989796959493929190614d91565b60405180910390f35b6102776004803603810190610272919061465e565b6112af565b6040516102849190614d76565b60405180910390f35b6102a760048036038101906102a29190614687565b6112ce565b005b6102c360048036038101906102be9190614687565b611302565b005b6102cd611336565b005b6102d76113b0565b6040516102e49190614e9c565b60405180910390f35b610307600480360381019061030291906147c6565b6113ed565b005b610323600480360381019061031e919061458f565b6119b4565b6040516103309190614d5b565b60405180910390f35b610341611a0e565b60405161034e9190614d5b565b60405180910390f35b61035f611a25565b60405161036c9190614cb7565b60405180910390f35b61037d611a49565b60405161038a9190614cb7565b60405180910390f35b61039b611a6f565b005b6103b760048036038101906103b291906146c3565b611ae9565b6040516103c49190614cb7565b60405180910390f35b6103e760048036038101906103e29190614687565b611b18565b6040516103f49190614d5b565b60405180910390f35b610405611b82565b6040516104129190614d76565b60405180910390f35b610423611b89565b6040516104309190615202565b60405180910390f35b610453600480360381019061044e91906147ef565b611bad565b005b61046f600480360381019061046a91906147ef565b612551565b005b61048b6004803603810190610486919061465e565b6134f7565b60405161049891906151be565b60405180910390f35b6104bb60048036038101906104b69190614687565b61351b565b005b6104d760048036038101906104d2919061458f565b61354f565b005b6104e16135a9565b6040516104ef929190614d32565b60405180910390f35b6105006135f6565b60405161050d9190614d76565b60405180910390f35b60007f5a05180f000000000000000000000000000000000000000000000000000000007bffffffffffffffffffffffffffffffffffffffffffffffffffffffff1916827bffffffffffffffffffffffffffffffffffffffffffffffffffffffff191614806105895750610588826136a3565b5b9050919050565b60008082600073ffffffffffffffffffffffffffffffffffffffff166003600083815260200190815260200160002060030160009054906101000a900473ffffffffffffffffffffffffffffffffffffffff1673ffffffffffffffffffffffffffffffffffffffff16141561063a576040517f08c379a00000000000000000000000000000000000000000000000000000000081526004016106319061509e565b60405180910390fd5b6003600085815260200190815260200160002060060160009054906101000a900473ffffffffffffffffffffffffffffffffffffffff1660036000868152602001908152602001600020600701549250925050915091565b600061069c611a0e565b156106dc576040517f08c379a00000000000000000000000000000000000000000000000000000000081526004016106d390614fde565b60405180910390fd5b60006106e8888861371d565b90506000811161072d576040517f08c379a00000000000000000000000000000000000000000000000000000000081526004016107249061501e565b60405180910390fd5b600180811115610766577f4e487b7100000000000000000000000000000000000000000000000000000000600052602160045260246000fd5b89600181111561079f577f4e487b7100000000000000000000000000000000000000000000000000000000600052602160045260246000fd5b14156107ec5762278d008111156107eb576040517f08c379a00000000000000000000000000000000000000000000000000000000081526004016107e290614ffe565b60405180910390fd5b5b8373ffffffffffffffffffffffffffffffffffffffff166323b872dd61081061378e565b30866040518463ffffffff1660e01b815260040161083093929190614cd2565b600060405180830381600087803b15801561084a57600080fd5b505af115801561085e573d6000803e3d6000fd5b50505050600061086e600461379d565b9050604051806101a001604052808b60018111156108b5577f4e487b7100000000000000000000000000000000000000000000000000000000600052602160045260246000fd5b81526020016001151581526020018a81526020018981526020016108d761378e565b73ffffffffffffffffffffffffffffffffffffffff1681526020018873ffffffffffffffffffffffffffffffffffffffff1681526020018781526020018673ffffffffffffffffffffffffffffffffffffffff168152602001858152602001600073ffffffffffffffffffffffffffffffffffffffff16815260200160008152602001600073ffffffffffffffffffffffffffffffffffffffff16815260200160008152506003600083815260200190815260200160002060008201518160000160006101000a81548160ff021916908360018111156109e0577f4e487b7100000000000000000000000000000000000000000000000000000000600052602160045260246000fd5b021790555060208201518160000160016101000a81548160ff021916908315150217905550604082015181600101556060820151816002015560808201518160030160006101000a81548173ffffffffffffffffffffffffffffffffffffffff021916908373ffffffffffffffffffffffffffffffffffffffff16021790555060a08201518160040160006101000a81548173ffffffffffffffffffffffffffffffffffffffff021916908373ffffffffffffffffffffffffffffffffffffffff16021790555060c0820151816005015560e08201518160060160006101000a81548173ffffffffffffffffffffffffffffffffffffffff021916908373ffffffffffffffffffffffffffffffffffffffff16021790555061010082015181600701556101208201518160080160006101000a81548173ffffffffffffffffffffffffffffffffffffffff021916908373ffffffffffffffffffffffffffffffffffffffff160217905550610140820151816009015561016082015181600a0160006101000a81548173ffffffffffffffffffffffffffffffffffffffff021916908373ffffffffffffffffffffffffffffffffffffffff16021790555061018082015181600b0155905050610bb660046137ab565b600060036000838152602001908152602001600020604051806101a00160405290816000820160009054906101000a900460ff166001811115610c22577f4e487b7100000000000000000000000000000000000000000000000000000000600052602160045260246000fd5b6001811115610c5a577f4e487b7100000000000000000000000000000000000000000000000000000000600052602160045260246000fd5b81526020016000820160019054906101000a900460ff1615151515815260200160018201548152602001600282015481526020016003820160009054906101000a900473ffffffffffffffffffffffffffffffffffffffff1673ffffffffffffffffffffffffffffffffffffffff1673ffffffffffffffffffffffffffffffffffffffff1681526020016004820160009054906101000a900473ffffffffffffffffffffffffffffffffffffffff1673ffffffffffffffffffffffffffffffffffffffff1673ffffffffffffffffffffffffffffffffffffffff168152602001600582015481526020016006820160009054906101000a900473ffffffffffffffffffffffffffffffffffffffff1673ffffffffffffffffffffffffffffffffffffffff1673ffffffffffffffffffffffffffffffffffffffff168152602001600782015481526020016008820160009054906101000a900473ffffffffffffffffffffffffffffffffffffffff1673ffffffffffffffffffffffffffffffffffffffff1673ffffffffffffffffffffffffffffffffffffffff16815260200160098201548152602001600a820160009054906101000a900473ffffffffffffffffffffffffffffffffffffffff1673ffffffffffffffffffffffffffffffffffffffff1673ffffffffffffffffffffffffffffffffffffffff168152602001600b820154815250509050806080015173ffffffffffffffffffffffffffffffffffffffff16827f4e400f43dce6cc22df28146360114559ffae81b0644d4752872c7def6d77319e8360000151846040015185606001518660a001518760c001518860e00151896101000151604051610ed99796959493929190614e2d565b60405180910390a3819350505050979650505050505050565b6000806000806000806000806000808a600073ffffffffffffffffffffffffffffffffffffffff166003600083815260200190815260200160002060030160009054906101000a900473ffffffffffffffffffffffffffffffffffffffff1673ffffffffffffffffffffffffffffffffffffffff161415610fa8576040517f08c379a0000000000000000000000000000000000000000000000000000000008152600401610f9f9061509e565b60405180910390fd5b6000600360008e8152602001908152602001600020604051806101a00160405290816000820160009054906101000a900460ff166001811115611014577f4e487b7100000000000000000000000000000000000000000000000000000000600052602160045260246000fd5b600181111561104c577f4e487b7100000000000000000000000000000000000000000000000000000000600052602160045260246000fd5b81526020016000820160019054906101000a900460ff1615151515815260200160018201548152602001600282015481526020016003820160009054906101000a900473ffffffffffffffffffffffffffffffffffffffff1673ffffffffffffffffffffffffffffffffffffffff1673ffffffffffffffffffffffffffffffffffffffff1681526020016004820160009054906101000a900473ffffffffffffffffffffffffffffffffffffffff1673ffffffffffffffffffffffffffffffffffffffff1673ffffffffffffffffffffffffffffffffffffffff168152602001600582015481526020016006820160009054906101000a900473ffffffffffffffffffffffffffffffffffffffff1673ffffffffffffffffffffffffffffffffffffffff1673ffffffffffffffffffffffffffffffffffffffff168152602001600782015481526020016008820160009054906101000a900473ffffffffffffffffffffffffffffffffffffffff1673ffffffffffffffffffffffffffffffffffffffff1673ffffffffffffffffffffffffffffffffffffffff16815260200160098201548152602001600a820160009054906101000a900473ffffffffffffffffffffffffffffffffffffffff1673ffffffffffffffffffffffffffffffffffffffff1673ffffffffffffffffffffffffffffffffffffffff168152602001600b820154815250509050806000015181602001518260400151836060015184608001518560a001518660c001518761014001518861016001518961018001519b509b509b509b509b509b509b509b509b509b5050509193959799509193959799565b6000806000838152602001908152602001600020600101549050919050565b6112d882826137c1565b6112fd816001600085815260200190815260200160002061363790919063ffffffff16565b505050565b61130c82826137ea565b611331816001600085815260200190815260200160002061386d90919063ffffffff16565b505050565b6113677f65d7a28e3265b37a6474929f336521b332c1681b933f6cb9f3376673440d862a61136261378e565b611b18565b6113a6576040517f08c379a000000000000000000000000000000000000000000000000000000000815260040161139d906150fe565b60405180910390fd5b6113ae61389d565b565b60606040518060400160405280600181526020017f3100000000000000000000000000000000000000000000000000000000000000815250905090565b6113f5611a0e565b15611435576040517f08c379a000000000000000000000000000000000000000000000000000000000815260040161142c90614fde565b60405180910390fd5b80600073ffffffffffffffffffffffffffffffffffffffff166003600083815260200190815260200160002060030160009054906101000a900473ffffffffffffffffffffffffffffffffffffffff1673ffffffffffffffffffffffffffffffffffffffff1614156114dc576040517f08c379a00000000000000000000000000000000000000000000000000000000081526004016114d39061509e565b60405180910390fd5b600060036000848152602001908152602001600020604051806101a00160405290816000820160009054906101000a900460ff166001811115611548577f4e487b7100000000000000000000000000000000000000000000000000000000600052602160045260246000fd5b6001811115611580577f4e487b7100000000000000000000000000000000000000000000000000000000600052602160045260246000fd5b81526020016000820160019054906101000a900460ff1615151515815260200160018201548152602001600282015481526020016003820160009054906101000a900473ffffffffffffffffffffffffffffffffffffffff1673ffffffffffffffffffffffffffffffffffffffff1673ffffffffffffffffffffffffffffffffffffffff1681526020016004820160009054906101000a900473ffffffffffffffffffffffffffffffffffffffff1673ffffffffffffffffffffffffffffffffffffffff1673ffffffffffffffffffffffffffffffffffffffff168152602001600582015481526020016006820160009054906101000a900473ffffffffffffffffffffffffffffffffffffffff1673ffffffffffffffffffffffffffffffffffffffff1673ffffffffffffffffffffffffffffffffffffffff168152602001600782015481526020016008820160009054906101000a900473ffffffffffffffffffffffffffffffffffffffff1673ffffffffffffffffffffffffffffffffffffffff1673ffffffffffffffffffffffffffffffffffffffff16815260200160098201548152602001600a820160009054906101000a900473ffffffffffffffffffffffffffffffffffffffff1673ffffffffffffffffffffffffffffffffffffffff1673ffffffffffffffffffffffffffffffffffffffff168152602001600b82015481525050905061179361378e565b73ffffffffffffffffffffffffffffffffffffffff16816080015173ffffffffffffffffffffffffffffffffffffffff1614806117e057506117df6000801b6117da61378e565b611b18565b5b61181f576040517f08c379a00000000000000000000000000000000000000000000000000000000081526004016118169061507e565b60405180910390fd5b8060200151611863576040517f08c379a000000000000000000000000000000000000000000000000000000000815260040161185a9061505e565b60405180910390fd5b600073ffffffffffffffffffffffffffffffffffffffff1681610120015173ffffffffffffffffffffffffffffffffffffffff16146118d7576040517f08c379a00000000000000000000000000000000000000000000000000000000081526004016118ce9061503e565b60405180910390fd5b8060e0015173ffffffffffffffffffffffffffffffffffffffff166342842e0e3083608001518461010001516040518463ffffffff1660e01b815260040161192193929190614cd2565b600060405180830381600087803b15801561193b57600080fd5b505af115801561194f573d6000803e3d6000fd5b5050505060006003600085815260200190815260200160002060000160016101000a81548160ff021916908315150217905550827f61b9399f2f0f32ca39ce8d7be32caed5ec22fe07a6daba3a467ed479ec60658260405160405180910390a2505050565b6000600260019054906101000a900473ffffffffffffffffffffffffffffffffffffffff1673ffffffffffffffffffffffffffffffffffffffff168273ffffffffffffffffffffffffffffffffffffffff16149050919050565b6000600260009054906101000a900460ff16905090565b7f000000000000000000000000000000000000000000000000000000000000000081565b600260019054906101000a900473ffffffffffffffffffffffffffffffffffffffff1681565b611aa07f65d7a28e3265b37a6474929f336521b332c1681b933f6cb9f3376673440d862a611a9b61378e565b611b18565b611adf576040517f08c379a0000000000000000000000000000000000000000000000000000000008152600401611ad690614f1e565b60405180910390fd5b611ae761393f565b565b6000611b1082600160008681526020019081526020016000206139e290919063ffffffff16565b905092915050565b600080600084815260200190815260200160002060000160008373ffffffffffffffffffffffffffffffffffffffff1673ffffffffffffffffffffffffffffffffffffffff16815260200190815260200160002060009054906101000a900460ff16905092915050565b6000801b81565b7f000000000000000000000000000000000000000000000000000000000000000081565b611bb5611a0e565b15611bf5576040517f08c379a0000000000000000000000000000000000000000000000000000000008152600401611bec90614fde565b60405180910390fd5b81600073ffffffffffffffffffffffffffffffffffffffff166003600083815260200190815260200160002060030160009054906101000a900473ffffffffffffffffffffffffffffffffffffffff1673ffffffffffffffffffffffffffffffffffffffff161415611c9c576040517f08c379a0000000000000000000000000000000000000000000000000000000008152600401611c939061509e565b60405180910390fd5b600060036000858152602001908152602001600020604051806101a00160405290816000820160009054906101000a900460ff166001811115611d08577f4e487b7100000000000000000000000000000000000000000000000000000000600052602160045260246000fd5b6001811115611d40577f4e487b7100000000000000000000000000000000000000000000000000000000600052602160045260246000fd5b81526020016000820160019054906101000a900460ff1615151515815260200160018201548152602001600282015481526020016003820160009054906101000a900473ffffffffffffffffffffffffffffffffffffffff1673ffffffffffffffffffffffffffffffffffffffff1673ffffffffffffffffffffffffffffffffffffffff1681526020016004820160009054906101000a900473ffffffffffffffffffffffffffffffffffffffff1673ffffffffffffffffffffffffffffffffffffffff1673ffffffffffffffffffffffffffffffffffffffff168152602001600582015481526020016006820160009054906101000a900473ffffffffffffffffffffffffffffffffffffffff1673ffffffffffffffffffffffffffffffffffffffff1673ffffffffffffffffffffffffffffffffffffffff168152602001600782015481526020016008820160009054906101000a900473ffffffffffffffffffffffffffffffffffffffff1673ffffffffffffffffffffffffffffffffffffffff1673ffffffffffffffffffffffffffffffffffffffff16815260200160098201548152602001600a820160009054906101000a900473ffffffffffffffffffffffffffffffffffffffff1673ffffffffffffffffffffffffffffffffffffffff1673ffffffffffffffffffffffffffffffffffffffff168152602001600b820154815250509050600180811115611f84577f4e487b7100000000000000000000000000000000000000000000000000000000600052602160045260246000fd5b81600001516001811115611fc1577f4e487b7100000000000000000000000000000000000000000000000000000000600052602160045260246000fd5b14612001576040517f08c379a0000000000000000000000000000000000000000000000000000000008152600401611ff890614f7e565b60405180910390fd5b8060200151612045576040517f08c379a000000000000000000000000000000000000000000000000000000000815260040161203c90614f5e565b60405180910390fd5b428160400151111561208c576040517f08c379a0000000000000000000000000000000000000000000000000000000008152600401612083906150de565b60405180910390fd5b428160600151116120d2576040517f08c379a00000000000000000000000000000000000000000000000000000000081526004016120c990614f3e565b60405180910390fd5b828160c001511115612119576040517f08c379a0000000000000000000000000000000000000000000000000000000008152600401612110906150be565b60405180910390fd5b600073ffffffffffffffffffffffffffffffffffffffff1681610120015173ffffffffffffffffffffffffffffffffffffffff16146121b4578281610140015110612199576040517f08c379a00000000000000000000000000000000000000000000000000000000081526004016121909061519e565b60405180910390fd5b6121b38160a00151308361012001518461014001516139fc565b5b6121bc61378e565b6003600086815260200190815260200160002060080160006101000a81548173ffffffffffffffffffffffffffffffffffffffff021916908373ffffffffffffffffffffffffffffffffffffffff16021790555082600360008681526020019081526020016000206009018190555060036000858152602001908152602001600020604051806101a00160405290816000820160009054906101000a900460ff166001811115612295577f4e487b7100000000000000000000000000000000000000000000000000000000600052602160045260246000fd5b60018111156122cd577f4e487b7100000000000000000000000000000000000000000000000000000000600052602160045260246000fd5b81526020016000820160019054906101000a900460ff1615151515815260200160018201548152602001600282015481526020016003820160009054906101000a900473ffffffffffffffffffffffffffffffffffffffff1673ffffffffffffffffffffffffffffffffffffffff1673ffffffffffffffffffffffffffffffffffffffff1681526020016004820160009054906101000a900473ffffffffffffffffffffffffffffffffffffffff1673ffffffffffffffffffffffffffffffffffffffff1673ffffffffffffffffffffffffffffffffffffffff168152602001600582015481526020016006820160009054906101000a900473ffffffffffffffffffffffffffffffffffffffff1673ffffffffffffffffffffffffffffffffffffffff1673ffffffffffffffffffffffffffffffffffffffff168152602001600782015481526020016008820160009054906101000a900473ffffffffffffffffffffffffffffffffffffffff1673ffffffffffffffffffffffffffffffffffffffff1673ffffffffffffffffffffffffffffffffffffffff16815260200160098201548152602001600a820160009054906101000a900473ffffffffffffffffffffffffffffffffffffffff1673ffffffffffffffffffffffffffffffffffffffff1673ffffffffffffffffffffffffffffffffffffffff168152602001600b8201548152505090506124f28160a00151826101200151308461014001516139fc565b80610120015173ffffffffffffffffffffffffffffffffffffffff16847f43c168f1d9d74d73325ab680f380bc731699766781190d47b123572b01b2fa2883610140015160405161254391906151be565b60405180910390a350505050565b612559611a0e565b15612599576040517f08c379a000000000000000000000000000000000000000000000000000000000815260040161259090614fde565b60405180910390fd5b81600073ffffffffffffffffffffffffffffffffffffffff166003600083815260200190815260200160002060030160009054906101000a900473ffffffffffffffffffffffffffffffffffffffff1673ffffffffffffffffffffffffffffffffffffffff161415612640576040517f08c379a00000000000000000000000000000000000000000000000000000000081526004016126379061509e565b60405180910390fd5b600060036000858152602001908152602001600020604051806101a00160405290816000820160009054906101000a900460ff1660018111156126ac577f4e487b7100000000000000000000000000000000000000000000000000000000600052602160045260246000fd5b60018111156126e4577f4e487b7100000000000000000000000000000000000000000000000000000000600052602160045260246000fd5b81526020016000820160019054906101000a900460ff1615151515815260200160018201548152602001600282015481526020016003820160009054906101000a900473ffffffffffffffffffffffffffffffffffffffff1673ffffffffffffffffffffffffffffffffffffffff1673ffffffffffffffffffffffffffffffffffffffff1681526020016004820160009054906101000a900473ffffffffffffffffffffffffffffffffffffffff1673ffffffffffffffffffffffffffffffffffffffff1673ffffffffffffffffffffffffffffffffffffffff168152602001600582015481526020016006820160009054906101000a900473ffffffffffffffffffffffffffffffffffffffff1673ffffffffffffffffffffffffffffffffffffffff1673ffffffffffffffffffffffffffffffffffffffff168152602001600782015481526020016008820160009054906101000a900473ffffffffffffffffffffffffffffffffffffffff1673ffffffffffffffffffffffffffffffffffffffff1673ffffffffffffffffffffffffffffffffffffffff16815260200160098201548152602001600a820160009054906101000a900473ffffffffffffffffffffffffffffffffffffffff1673ffffffffffffffffffffffffffffffffffffffff1673ffffffffffffffffffffffffffffffffffffffff168152602001600b8201548152505090508060200151612933576040517f08c379a000000000000000000000000000000000000000000000000000000000815260040161292a90614efe565b60405180910390fd5b60006003600086815260200190815260200160002060000160016101000a81548160ff021916908315150217905550600080600181111561299d577f4e487b7100000000000000000000000000000000000000000000000000000000600052602160045260246000fd5b826000015160018111156129da577f4e487b7100000000000000000000000000000000000000000000000000000000600052602160045260246000fd5b1415612b49574282604001511115612a27576040517f08c379a0000000000000000000000000000000000000000000000000000000008152600401612a1e90614fbe565b60405180910390fd5b600082606001511480612a3d5750428260600151115b612a7c576040517f08c379a0000000000000000000000000000000000000000000000000000000008152600401612a7390614f9e565b60405180910390fd5b838260c001511115612ac3576040517f08c379a0000000000000000000000000000000000000000000000000000000008152600401612aba9061513e565b60405180910390fd5b612acb61378e565b60036000878152602001908152602001600020600a0160006101000a81548173ffffffffffffffffffffffffffffffffffffffff021916908373ffffffffffffffffffffffffffffffffffffffff1602179055508360036000878152602001908152602001600020600b0181905550612b4261378e565b9050612d9f565b600180811115612b82577f4e487b7100000000000000000000000000000000000000000000000000000000600052602160045260246000fd5b82600001516001811115612bbf577f4e487b7100000000000000000000000000000000000000000000000000000000600052602160045260246000fd5b1415612d9e57600073ffffffffffffffffffffffffffffffffffffffff1682610120015173ffffffffffffffffffffffffffffffffffffffff161415612c3a576040517f08c379a0000000000000000000000000000000000000000000000000000000008152600401612c319061511e565b60405180910390fd5b612c4261378e565b73ffffffffffffffffffffffffffffffffffffffff1682610120015173ffffffffffffffffffffffffffffffffffffffff16148015612c85575042826060015111155b80612cc65750612c9361378e565b73ffffffffffffffffffffffffffffffffffffffff16826080015173ffffffffffffffffffffffffffffffffffffffff16145b80612ce15750612ce06000801b612cdb61378e565b611b18565b5b612d20576040517f08c379a0000000000000000000000000000000000000000000000000000000008152600401612d179061515e565b60405180910390fd5b81610120015160036000878152602001908152602001600020600a0160006101000a81548173ffffffffffffffffffffffffffffffffffffffff021916908373ffffffffffffffffffffffffffffffffffffffff16021790555081610140015160036000878152602001908152602001600020600b01819055503090505b5b60036000868152602001908152602001600020604051806101a00160405290816000820160009054906101000a900460ff166001811115612e09577f4e487b7100000000000000000000000000000000000000000000000000000000600052602160045260246000fd5b6001811115612e41577f4e487b7100000000000000000000000000000000000000000000000000000000600052602160045260246000fd5b81526020016000820160019054906101000a900460ff1615151515815260200160018201548152602001600282015481526020016003820160009054906101000a900473ffffffffffffffffffffffffffffffffffffffff1673ffffffffffffffffffffffffffffffffffffffff1673ffffffffffffffffffffffffffffffffffffffff1681526020016004820160009054906101000a900473ffffffffffffffffffffffffffffffffffffffff1673ffffffffffffffffffffffffffffffffffffffff1673ffffffffffffffffffffffffffffffffffffffff168152602001600582015481526020016006820160009054906101000a900473ffffffffffffffffffffffffffffffffffffffff1673ffffffffffffffffffffffffffffffffffffffff1673ffffffffffffffffffffffffffffffffffffffff168152602001600782015481526020016008820160009054906101000a900473ffffffffffffffffffffffffffffffffffffffff1673ffffffffffffffffffffffffffffffffffffffff1673ffffffffffffffffffffffffffffffffffffffff16815260200160098201548152602001600a820160009054906101000a900473ffffffffffffffffffffffffffffffffffffffff1673ffffffffffffffffffffffffffffffffffffffff1673ffffffffffffffffffffffffffffffffffffffff168152602001600b8201548152505091506000826101800151111561341a576000826101800151905060006127107f00000000000000000000000000000000000000000000000000000000000000006bffffffffffffffffffffffff168561018001516130a8919061531c565b6130b291906152eb565b90506130e48460a00151847f0000000000000000000000000000000000000000000000000000000000000000846139fc565b80826130f09190615376565b91508360e0015173ffffffffffffffffffffffffffffffffffffffff1663cad96cca8561010001516040518263ffffffff1660e01b815260040161313491906151be565b60006040518083038186803b15801561314c57600080fd5b505afa92505050801561318257506040513d6000823e3d601f19601f8201168201806040525081019061317f91906145f4565b60015b61327e578360e0015173ffffffffffffffffffffffffffffffffffffffff16632a55205a8561010001518661018001516040518363ffffffff1660e01b81526004016131cf9291906151d9565b604080518083038186803b1580156131e657600080fd5b505afa92505050801561321757506040513d601f19601f8201168201806040525081019061321491906145b8565b60015b61322057613279565b8173ffffffffffffffffffffffffffffffffffffffff16866080015173ffffffffffffffffffffffffffffffffffffffff1614613276576132678660a001518684846139fc565b80846132739190615376565b93505b50505b6133f9565b60008151905060005b818110156133f5578281815181106132c8577f4e487b7100000000000000000000000000000000000000000000000000000000600052603260045260246000fd5b60200260200101516000015173ffffffffffffffffffffffffffffffffffffffff16876080015173ffffffffffffffffffffffffffffffffffffffff16146133e2576000612710848381518110613348577f4e487b7100000000000000000000000000000000000000000000000000000000600052603260045260246000fd5b6020026020010151602001516bffffffffffffffffffffffff16896101800151613372919061531c565b61337c91906152eb565b90506133d28860a00151888685815181106133c0577f4e487b7100000000000000000000000000000000000000000000000000000000600052603260045260246000fd5b602002602001015160000151846139fc565b80866133de9190615376565b9550505b80806133ed90615505565b915050613287565b5050505b6000821115613417576134168460a00151848660800151856139fc565b5b50505b8160e0015173ffffffffffffffffffffffffffffffffffffffff166342842e0e308461016001518561010001516040518463ffffffff1660e01b815260040161346593929190614cd2565b600060405180830381600087803b15801561347f57600080fd5b505af1158015613493573d6000803e3d6000fd5b5050505081610160015173ffffffffffffffffffffffffffffffffffffffff16857f1e7abafb1a786c4e6394b5c494f50a97e3802ff2ce462eca4fe6a2dd4e1f92e88461018001516040516134e891906151be565b60405180910390a35050505050565b600061351460016000848152602001908152602001600020613b60565b9050919050565b6135258282613b75565b61354a816001600085815260200190815260200160002061386d90919063ffffffff16565b505050565b6000801b6135648161355f61378e565b613b9e565b81600260016101000a81548173ffffffffffffffffffffffffffffffffffffffff021916908373ffffffffffffffffffffffffffffffffffffffff1602179055505050565b6000807f00000000000000000000000000000000000000000000000000000000000000007f0000000000000000000000000000000000000000000000000000000000000000915091509091565b7f65d7a28e3265b37a6474929f336521b332c1681b933f6cb9f3376673440d862a81565b6000613624613667565b905090565b6136338282613c3b565b5050565b600061365f836000018373ffffffffffffffffffffffffffffffffffffffff1660001b613d1b565b905092915050565b600060186000369050101580156136835750613682336119b4565b5b1561369757601436033560601c905061369f565b3390506136a0565b5b90565b60007f7965db0b000000000000000000000000000000000000000000000000000000007bffffffffffffffffffffffffffffffffffffffffffffffffffffffff1916827bffffffffffffffffffffffffffffffffffffffffffffffffffffffff19161480613716575061371582613d8b565b5b9050919050565b60008042841061372d578361372f565b425b905060008084146137405783613762565b7fffffffffffffffffffffffffffffffffffffffffffffffffffffffffffffffff5b90508082111561377757600092505050613788565b81816137839190615376565b925050505b92915050565b600061379861361a565b905090565b600081600001549050919050565b6001816000016000828254019250508190555050565b6137ca826112af565b6137db816137d661378e565b613b9e565b6137e58383613c3b565b505050565b6137f261378e565b73ffffffffffffffffffffffffffffffffffffffff168173ffffffffffffffffffffffffffffffffffffffff161461385f576040517f08c379a00000000000000000000000000000000000000000000000000000000081526004016138569061517e565b60405180910390fd5b6138698282613df5565b5050565b6000613895836000018373ffffffffffffffffffffffffffffffffffffffff1660001b613ed6565b905092915050565b6138a5611a0e565b6138e4576040517f08c379a00000000000000000000000000000000000000000000000000000000081526004016138db90614ede565b60405180910390fd5b6000600260006101000a81548160ff0219169083151502179055507f5db9ee0a495bf2e6ff9c91a7834c1ba4fdd244a5e8aa4e537bd38aeae4b073aa61392861378e565b6040516139359190614cb7565b60405180910390a1565b613947611a0e565b15613987576040517f08c379a000000000000000000000000000000000000000000000000000000000815260040161397e90614fde565b60405180910390fd5b6001600260006101000a81548160ff0219169083151502179055507f62e78cea01bee320cd4e420270b5ea74000d11b0c9f74754ebdbfc544b05a2586139cb61378e565b6040516139d89190614cb7565b60405180910390a1565b60006139f1836000018361405c565b60001c905092915050565b60008490503073ffffffffffffffffffffffffffffffffffffffff168473ffffffffffffffffffffffffffffffffffffffff161415613ac8578073ffffffffffffffffffffffffffffffffffffffff1663a9059cbb84846040518363ffffffff1660e01b8152600401613a70929190614d09565b602060405180830381600087803b158015613a8a57600080fd5b505af1158015613a9e573d6000803e3d6000fd5b505050506040513d601f19601f82011682018060405250810190613ac29190614635565b50613b59565b8073ffffffffffffffffffffffffffffffffffffffff166323b872dd8585856040518463ffffffff1660e01b8152600401613b0593929190614cd2565b602060405180830381600087803b158015613b1f57600080fd5b505af1158015613b33573d6000803e3d6000fd5b505050506040513d601f19601f82011682018060405250810190613b579190614635565b505b5050505050565b6000613b6e826000016140ad565b9050919050565b613b7e826112af565b613b8f81613b8a61378e565b613b9e565b613b998383613df5565b505050565b613ba88282611b18565b613c3757613bcd8173ffffffffffffffffffffffffffffffffffffffff1660146140be565b613bdb8360001c60206140be565b604051602001613bec929190614c7d565b6040516020818303038152906040526040517f08c379a0000000000000000000000000000000000000000000000000000000008152600401613c2e9190614e9c565b60405180910390fd5b5050565b613c458282611b18565b613d1757600160008084815260200190815260200160002060000160008373ffffffffffffffffffffffffffffffffffffffff1673ffffffffffffffffffffffffffffffffffffffff16815260200190815260200160002060006101000a81548160ff021916908315150217905550613cbc61378e565b73ffffffffffffffffffffffffffffffffffffffff168173ffffffffffffffffffffffffffffffffffffffff16837f2f8788117e7eff1d82e926ec794901d17c78024a50270940304540a733656f0d60405160405180910390a45b5050565b6000613d2783836143b8565b613d80578260000182908060018154018082558091505060019003906000526020600020016000909190919091505582600001805490508360010160008481526020019081526020016000208190555060019050613d85565b600090505b92915050565b60007f01ffc9a7000000000000000000000000000000000000000000000000000000007bffffffffffffffffffffffffffffffffffffffffffffffffffffffff1916827bffffffffffffffffffffffffffffffffffffffffffffffffffffffff1916149050919050565b613dff8282611b18565b15613ed257600080600084815260200190815260200160002060000160008373ffffffffffffffffffffffffffffffffffffffff1673ffffffffffffffffffffffffffffffffffffffff16815260200190815260200160002060006101000a81548160ff021916908315150217905550613e7761378e565b73ffffffffffffffffffffffffffffffffffffffff168173ffffffffffffffffffffffffffffffffffffffff16837ff6391f5c32d9c69d2a47ea670b442974b53935d1edc7fd64eb21e047a839171b60405160405180910390a45b5050565b60008083600101600084815260200190815260200160002054905060008114614050576000600182613f089190615376565b9050600060018660000180549050613f209190615376565b9050818114613fdb576000866000018281548110613f67577f4e487b7100000000000000000000000000000000000000000000000000000000600052603260045260246000fd5b9060005260206000200154905080876000018481548110613fb1577f4e487b7100000000000000000000000000000000000000000000000000000000600052603260045260246000fd5b90600052602060002001819055508387600101600083815260200190815260200160002081905550505b85600001805480614015577f4e487b7100000000000000000000000000000000000000000000000000000000600052603160045260246000fd5b600190038181906000526020600020016000905590558560010160008681526020019081526020016000206000905560019350505050614056565b60009150505b92915050565b600082600001828154811061409a577f4e487b7100000000000000000000000000000000000000000000000000000000600052603260045260246000fd5b9060005260206000200154905092915050565b600081600001805490509050919050565b6060600060028360026140d1919061531c565b6140db9190615295565b67ffffffffffffffff81111561411a577f4e487b7100000000000000000000000000000000000000000000000000000000600052604160045260246000fd5b6040519080825280601f01601f19166020018201604052801561414c5781602001600182028036833780820191505090505b5090507f3000000000000000000000000000000000000000000000000000000000000000816000815181106141aa577f4e487b7100000000000000000000000000000000000000000000000000000000600052603260045260246000fd5b60200101907effffffffffffffffffffffffffffffffffffffffffffffffffffffffffffff1916908160001a9053507f780000000000000000000000000000000000000000000000000000000000000081600181518110614234577f4e487b7100000000000000000000000000000000000000000000000000000000600052603260045260246000fd5b60200101907effffffffffffffffffffffffffffffffffffffffffffffffffffffffffffff1916908160001a90535060006001846002614274919061531c565b61427e9190615295565b90505b600181111561436a577f3031323334353637383961626364656600000000000000000000000000000000600f8616601081106142e6577f4e487b7100000000000000000000000000000000000000000000000000000000600052603260045260246000fd5b1a60f81b828281518110614323577f4e487b7100000000000000000000000000000000000000000000000000000000600052603260045260246000fd5b60200101907effffffffffffffffffffffffffffffffffffffffffffffffffffffffffffff1916908160001a905350600485901c945080614363906154aa565b9050614281565b50600084146143ae576040517f08c379a00000000000000000000000000000000000000000000000000000000081526004016143a590614ebe565b60405180910390fd5b8091505092915050565b600080836001016000848152602001908152602001600020541415905092915050565b60006143ee6143e984615242565b61521d565b9050808382526020820190508285604086028201111561440d57600080fd5b60005b8581101561443d57816144238882614504565b845260208401935060408301925050600181019050614410565b5050509392505050565b60008135905061445681615dc3565b92915050565b60008151905061446b81615dc3565b92915050565b60008151905061448081615dda565b92915050565b600082601f83011261449757600080fd5b81516144a78482602086016143db565b91505092915050565b6000815190506144bf81615df1565b92915050565b6000813590506144d481615e08565b92915050565b6000813590506144e981615e1f565b92915050565b6000813590506144fe81615e36565b92915050565b60006040828403121561451657600080fd5b614520604061521d565b9050600061453084828501614471565b60008301525060206145448482850161457a565b60208301525092915050565b60008135905061455f81615e46565b92915050565b60008151905061457481615e46565b92915050565b60008151905061458981615e5d565b92915050565b6000602082840312156145a157600080fd5b60006145af84828501614447565b91505092915050565b600080604083850312156145cb57600080fd5b60006145d98582860161445c565b92505060206145ea85828601614565565b9150509250929050565b60006020828403121561460657600080fd5b600082015167ffffffffffffffff81111561462057600080fd5b61462c84828501614486565b91505092915050565b60006020828403121561464757600080fd5b6000614655848285016144b0565b91505092915050565b60006020828403121561467057600080fd5b600061467e848285016144c5565b91505092915050565b6000806040838503121561469a57600080fd5b60006146a8858286016144c5565b92505060206146b985828601614447565b9150509250929050565b600080604083850312156146d657600080fd5b60006146e4858286016144c5565b92505060206146f585828601614550565b9150509250929050565b60006020828403121561471157600080fd5b600061471f848285016144da565b91505092915050565b600080600080600080600060e0888a03121561474357600080fd5b60006147518a828b016144ef565b97505060206147628a828b01614550565b96505060406147738a828b01614550565b95505060606147848a828b01614447565b94505060806147958a828b01614550565b93505060a06147a68a828b01614447565b92505060c06147b78a828b01614550565b91505092959891949750929550565b6000602082840312156147d857600080fd5b60006147e684828501614550565b91505092915050565b6000806040838503121561480257600080fd5b600061481085828601614550565b925050602061482185828601614550565b9150509250929050565b614834816153aa565b82525050565b614843816153ce565b82525050565b614852816153da565b82525050565b61486181615465565b82525050565b60006148728261526e565b61487c8185615279565b935061488c818560208601615477565b6148958161560a565b840191505092915050565b60006148ab8261526e565b6148b5818561528a565b93506148c5818560208601615477565b80840191505092915050565b60006148de602083615279565b91506148e98261561b565b602082019050919050565b6000614901601483615279565b915061490c82615644565b602082019050919050565b6000614924602f83615279565b915061492f8261566d565b604082019050919050565b6000614947603383615279565b9150614952826156bc565b604082019050919050565b600061496a603983615279565b91506149758261570b565b604082019050919050565b600061498d602e83615279565b91506149988261575a565b604082019050919050565b60006149b0603983615279565b91506149bb826157a9565b604082019050919050565b60006149d3603a83615279565b91506149de826157f8565b604082019050919050565b60006149f6603b83615279565b9150614a0182615847565b604082019050919050565b6000614a19601083615279565b9150614a2482615896565b602082019050919050565b6000614a3c605183615279565b9150614a47826158bf565b606082019050919050565b6000614a5f603583615279565b9150614a6a82615934565b604082019050919050565b6000614a82603583615279565b9150614a8d82615983565b604082019050919050565b6000614aa5603183615279565b9150614ab0826159d2565b604082019050919050565b6000614ac8603083615279565b9150614ad382615a21565b604082019050919050565b6000614aeb602683615279565b9150614af682615a70565b604082019050919050565b6000614b0e602c83615279565b9150614b1982615abf565b604082019050919050565b6000614b31603a83615279565b9150614b3c82615b0e565b604082019050919050565b6000614b5460178361528a565b9150614b5f82615b5d565b601782019050919050565b6000614b77603583615279565b9150614b8282615b86565b604082019050919050565b6000614b9a603e83615279565b9150614ba582615bd5565b604082019050919050565b6000614bbd603a83615279565b9150614bc882615c24565b604082019050919050565b6000614be060118361528a565b9150614beb82615c73565b601182019050919050565b6000614c03604c83615279565b9150614c0e82615c9c565b606082019050919050565b6000614c26602f83615279565b9150614c3182615d11565b604082019050919050565b6000614c49602c83615279565b9150614c5482615d60565b604082019050919050565b614c6881615443565b82525050565b614c778161544d565b82525050565b6000614c8882614b47565b9150614c9482856148a0565b9150614c9f82614bd3565b9150614cab82846148a0565b91508190509392505050565b6000602082019050614ccc600083018461482b565b92915050565b6000606082019050614ce7600083018661482b565b614cf4602083018561482b565b614d016040830184614c5f565b949350505050565b6000604082019050614d1e600083018561482b565b614d2b6020830184614c5f565b9392505050565b6000604082019050614d47600083018561482b565b614d546020830184614c6e565b9392505050565b6000602082019050614d70600083018461483a565b92915050565b6000602082019050614d8b6000830184614849565b92915050565b600061014082019050614da7600083018d614858565b614db4602083018c61483a565b614dc1604083018b614c5f565b614dce606083018a614c5f565b614ddb608083018961482b565b614de860a083018861482b565b614df560c0830187614c5f565b614e0260e0830186614c5f565b614e1061010083018561482b565b614e1e610120830184614c5f565b9b9a5050505050505050505050565b600060e082019050614e42600083018a614858565b614e4f6020830189614c5f565b614e5c6040830188614c5f565b614e69606083018761482b565b614e766080830186614c5f565b614e8360a083018561482b565b614e9060c0830184614c5f565b98975050505050505050565b60006020820190508181036000830152614eb68184614867565b905092915050565b60006020820190508181036000830152614ed7816148d1565b9050919050565b60006020820190508181036000830152614ef7816148f4565b9050919050565b60006020820190508181036000830152614f1781614917565b9050919050565b60006020820190508181036000830152614f378161493a565b9050919050565b60006020820190508181036000830152614f578161495d565b9050919050565b60006020820190508181036000830152614f7781614980565b9050919050565b60006020820190508181036000830152614f97816149a3565b9050919050565b60006020820190508181036000830152614fb7816149c6565b9050919050565b60006020820190508181036000830152614fd7816149e9565b9050919050565b60006020820190508181036000830152614ff781614a0c565b9050919050565b6000602082019050818103600083015261501781614a2f565b9050919050565b6000602082019050818103600083015261503781614a52565b9050919050565b6000602082019050818103600083015261505781614a75565b9050919050565b6000602082019050818103600083015261507781614a98565b9050919050565b6000602082019050818103600083015261509781614abb565b9050919050565b600060208201905081810360008301526150b781614ade565b9050919050565b600060208201905081810360008301526150d781614b01565b9050919050565b600060208201905081810360008301526150f781614b24565b9050919050565b6000602082019050818103600083015261511781614b6a565b9050919050565b6000602082019050818103600083015261513781614b8d565b9050919050565b6000602082019050818103600083015261515781614bb0565b9050919050565b6000602082019050818103600083015261517781614bf6565b9050919050565b6000602082019050818103600083015261519781614c19565b9050919050565b600060208201905081810360008301526151b781614c3c565b9050919050565b60006020820190506151d36000830184614c5f565b92915050565b60006040820190506151ee6000830185614c5f565b6151fb6020830184614c5f565b9392505050565b60006020820190506152176000830184614c6e565b92915050565b6000615227615238565b905061523382826154d4565b919050565b6000604051905090565b600067ffffffffffffffff82111561525d5761525c6155db565b5b602082029050602081019050919050565b600081519050919050565b600082825260208201905092915050565b600081905092915050565b60006152a082615443565b91506152ab83615443565b9250827fffffffffffffffffffffffffffffffffffffffffffffffffffffffffffffffff038211156152e0576152df61554e565b5b828201905092915050565b60006152f682615443565b915061530183615443565b9250826153115761531061557d565b5b828204905092915050565b600061532782615443565b915061533283615443565b9250817fffffffffffffffffffffffffffffffffffffffffffffffffffffffffffffffff048311821515161561536b5761536a61554e565b5b828202905092915050565b600061538182615443565b915061538c83615443565b92508282101561539f5761539e61554e565b5b828203905092915050565b60006153b582615423565b9050919050565b60006153c782615423565b9050919050565b60008115159050919050565b6000819050919050565b60007fffffffff0000000000000000000000000000000000000000000000000000000082169050919050565b600081905061541e82615daf565b919050565b600073ffffffffffffffffffffffffffffffffffffffff82169050919050565b6000819050919050565b60006bffffffffffffffffffffffff82169050919050565b600061547082615410565b9050919050565b60005b8381101561549557808201518184015260208101905061547a565b838111156154a4576000848401525b50505050565b60006154b582615443565b915060008214156154c9576154c861554e565b5b600182039050919050565b6154dd8261560a565b810181811067ffffffffffffffff821117156154fc576154fb6155db565b5b80604052505050565b600061551082615443565b91507fffffffffffffffffffffffffffffffffffffffffffffffffffffffffffffffff8214156155435761554261554e565b5b600182019050919050565b7f4e487b7100000000000000000000000000000000000000000000000000000000600052601160045260246000fd5b7f4e487b7100000000000000000000000000000000000000000000000000000000600052601260045260246000fd5b7f4e487b7100000000000000000000000000000000000000000000000000000000600052602160045260246000fd5b7f4e487b7100000000000000000000000000000000000000000000000000000000600052604160045260246000fd5b6000601f19601f8301169050919050565b7f537472696e67733a20686578206c656e67746820696e73756666696369656e74600082015250565b7f5061757361626c653a206e6f7420706175736564000000000000000000000000600082015250565b7f4c656d6f6e6164654d61726b6574706c6163653a206f72646572206d7573742060008201527f6265206f70656e20746f2066696c6c0000000000000000000000000000000000602082015250565b7f4c656d6f6e6164654d61726b6574706c6163653a206d7573742068617665207060008201527f617573657220726f6c6520746f20706175736500000000000000000000000000602082015250565b7f4c656d6f6e6164654d61726b6574706c6163653a206f72646572206d7573742060008201527f6265206f70656e20746f20626964202d20746f6f206c61746500000000000000602082015250565b7f4c656d6f6e6164654d61726b6574706c6163653a206f72646572206d7573742060008201527f6265206f70656e20746f20626964000000000000000000000000000000000000602082015250565b7f4c656d6f6e6164654d61726b6574706c6163653a206f72646572206d7573742060008201527f6265206f66206b696e642061756374696f6e20746f2062696400000000000000602082015250565b7f4c656d6f6e6164654d61726b6574706c6163653a206f72646572206d7573742060008201527f6265206f70656e20746f2066696c6c202d20746f6f206c617465000000000000602082015250565b7f4c656d6f6e6164654d61726b6574706c6163653a206f72646572206d7573742060008201527f6265206f70656e20746f2066696c6c202d20746f6f206561726c790000000000602082015250565b7f5061757361626c653a2070617573656400000000000000000000000000000000600082015250565b7f4c656d6f6e6164654d61726b6574706c6163653a206f72646572206f66206b6960008201527f6e642061756374696f6e206d757374206e6f74206265206f70656e20666f722060208201527f6d6f7265207468616e2033302064617973000000000000000000000000000000604082015250565b7f4c656d6f6e6164654d61726b6574706c6163653a206f72646572206d7573742060008201527f6265206f70656e20617420736f6d6520706f696e740000000000000000000000602082015250565b7f4c656d6f6e6164654d61726b6574706c6163653a206f72646572206d7573742060008201527f68617665206e6f2062696420746f2063616e63656c0000000000000000000000602082015250565b7f4c656d6f6e6164654d61726b6574706c6163653a206f72646572206d7573742060008201527f6265206f70656e20746f2063616e63656c000000000000000000000000000000602082015250565b7f4c656d6f6e6164654d61726b6574706c6163653a206d7573742062652074686560008201527f206d616b657220746f2063616e63656c00000000000000000000000000000000602082015250565b7f4c656d6f6e6164654d61726b6574706c6163653a206f72646572206e6f6e657860008201527f697374656e740000000000000000000000000000000000000000000000000000602082015250565b7f4c656d6f6e6164654d61726b6574706c6163653a206d757374206d617463682060008201527f707269636520746f206269640000000000000000000000000000000000000000602082015250565b7f4c656d6f6e6164654d61726b6574706c6163653a206f72646572206d7573742060008201527f6265206f70656e20746f20626964202d20746f6f206561726c79000000000000602082015250565b7f416363657373436f6e74726f6c3a206163636f756e7420000000000000000000600082015250565b7f4c656d6f6e6164654d61726b6574706c6163653a206d7573742068617665207060008201527f617573657220726f6c6520746f20756e70617573650000000000000000000000602082015250565b7f4c656d6f6e6164654d61726b6574706c6163653a206f72646572206d7573742060008201527f686176652062696420746f2066696c6c2061756374696f6e206f726465720000602082015250565b7f4c656d6f6e6164654d61726b6574706c6163653a206d757374206d617463682060008201527f707269636520746f2066696c6c20646972656374206f72646572000000000000602082015250565b7f206973206d697373696e6720726f6c6520000000000000000000000000000000600082015250565b7f4c656d6f6e6164654d61726b6574706c6163653a206d7573742062652074686560008201527f206d616b6572206f722066696e616c2062696464657220746f2066696c6c206160208201527f756374696f6e206f726465720000000000000000000000000000000000000000604082015250565b7f416363657373436f6e74726f6c3a2063616e206f6e6c792072656e6f756e636560008201527f20726f6c657320666f722073656c660000000000000000000000000000000000602082015250565b7f4c656d6f6e6164654d61726b6574706c6163653a206d7573742073757270617360008201527f732062696420746f206269640000000000000000000000000000000000000000602082015250565b60028110615dc057615dbf6155ac565b5b50565b615dcc816153aa565b8114615dd757600080fd5b50565b615de3816153bc565b8114615dee57600080fd5b50565b615dfa816153ce565b8114615e0557600080fd5b50565b615e11816153da565b8114615e1c57600080fd5b50565b615e28816153e4565b8114615e3357600080fd5b50565b60028110615e4357600080fd5b50565b615e4f81615443565b8114615e5a57600080fd5b50565b615e668161544d565b8114615e7157600080fd5b5056fea26469706673582212200e0cca03051c75bb4c4df45e416ee8e925225a44de1dba181043391302f5c77f64736f6c63430008040033",
  "devdoc": {
    "kind": "dev",
    "methods": {
      "getRoleAdmin(bytes32)": {
        "details": "Returns the admin role that controls `role`. See {grantRole} and {revokeRole}. To change a role's admin, use {_setRoleAdmin}."
      },
      "getRoleMember(bytes32,uint256)": {
        "details": "Returns one of the accounts that have `role`. `index` must be a value between 0 and {getRoleMemberCount}, non-inclusive. Role bearers are not sorted in any particular way, and their ordering may change at any point. WARNING: When using {getRoleMember} and {getRoleMemberCount}, make sure you perform all queries on the same block. See the following https://forum.openzeppelin.com/t/iterating-over-elements-on-enumerableset-in-openzeppelin-contracts/2296[forum post] for more information."
      },
      "getRoleMemberCount(bytes32)": {
        "details": "Returns the number of accounts that have `role`. Can be used together with {getRoleMember} to enumerate all bearers of a role."
      },
      "grantRole(bytes32,address)": {
        "details": "Overload {grantRole} to track enumerable memberships"
      },
      "hasRole(bytes32,address)": {
        "details": "Returns `true` if `account` has been granted `role`."
      },
      "paused()": {
        "details": "Returns true if the contract is paused, and false otherwise."
      },
      "renounceRole(bytes32,address)": {
        "details": "Overload {renounceRole} to track enumerable memberships"
      },
      "revokeRole(bytes32,address)": {
        "details": "Overload {revokeRole} to track enumerable memberships"
      },
      "supportsInterface(bytes4)": {
        "details": "See {IERC165-supportsInterface}."
      }
    },
    "version": 1
  },
  "userdoc": {
    "kind": "user",
    "methods": {
      "isTrustedForwarder(address)": {
        "notice": "return if the forwarder is trusted to forward relayed transactions to us. the forwarder is required to verify the sender's signature, and verify the call is not a replay."
      }
    },
    "version": 1
  },
  "storageLayout": {
    "storage": [
      {
        "astId": 24,
        "contract": "contracts/LemonadeMarketplace.sol:LemonadeMarketplace",
        "label": "_roles",
        "offset": 0,
        "slot": "0",
        "type": "t_mapping(t_bytes32,t_struct(RoleData)19_storage)"
      },
      {
        "astId": 325,
        "contract": "contracts/LemonadeMarketplace.sol:LemonadeMarketplace",
        "label": "_roleMembers",
        "offset": 0,
        "slot": "1",
        "type": "t_mapping(t_bytes32,t_struct(AddressSet)1516_storage)"
      },
      {
        "astId": 601,
        "contract": "contracts/LemonadeMarketplace.sol:LemonadeMarketplace",
        "label": "_paused",
        "offset": 0,
        "slot": "2",
        "type": "t_bool"
      },
      {
        "astId": 2955,
        "contract": "contracts/LemonadeMarketplace.sol:LemonadeMarketplace",
        "label": "trustedForwarder",
        "offset": 1,
        "slot": "2",
        "type": "t_address"
      },
      {
        "astId": 1928,
        "contract": "contracts/LemonadeMarketplace.sol:LemonadeMarketplace",
        "label": "_orders",
        "offset": 0,
        "slot": "3",
        "type": "t_mapping(t_uint256,t_struct(Order)1923_storage)"
      },
      {
        "astId": 1931,
        "contract": "contracts/LemonadeMarketplace.sol:LemonadeMarketplace",
        "label": "_orderIdTracker",
        "offset": 0,
        "slot": "4",
        "type": "t_struct(Counter)897_storage"
      }
    ],
    "types": {
      "t_address": {
        "encoding": "inplace",
        "label": "address",
        "numberOfBytes": "20"
      },
      "t_array(t_bytes32)dyn_storage": {
        "base": "t_bytes32",
        "encoding": "dynamic_array",
        "label": "bytes32[]",
        "numberOfBytes": "32"
      },
      "t_bool": {
        "encoding": "inplace",
        "label": "bool",
        "numberOfBytes": "1"
      },
      "t_bytes32": {
        "encoding": "inplace",
        "label": "bytes32",
        "numberOfBytes": "32"
      },
      "t_enum(OrderKind)1854": {
        "encoding": "inplace",
        "label": "enum LemonadeMarketplace.OrderKind",
        "numberOfBytes": "1"
      },
      "t_mapping(t_address,t_bool)": {
        "encoding": "mapping",
        "key": "t_address",
        "label": "mapping(address => bool)",
        "numberOfBytes": "32",
        "value": "t_bool"
      },
      "t_mapping(t_bytes32,t_struct(AddressSet)1516_storage)": {
        "encoding": "mapping",
        "key": "t_bytes32",
        "label": "mapping(bytes32 => struct EnumerableSet.AddressSet)",
        "numberOfBytes": "32",
        "value": "t_struct(AddressSet)1516_storage"
      },
      "t_mapping(t_bytes32,t_struct(RoleData)19_storage)": {
        "encoding": "mapping",
        "key": "t_bytes32",
        "label": "mapping(bytes32 => struct AccessControl.RoleData)",
        "numberOfBytes": "32",
        "value": "t_struct(RoleData)19_storage"
      },
      "t_mapping(t_bytes32,t_uint256)": {
        "encoding": "mapping",
        "key": "t_bytes32",
        "label": "mapping(bytes32 => uint256)",
        "numberOfBytes": "32",
        "value": "t_uint256"
      },
      "t_mapping(t_uint256,t_struct(Order)1923_storage)": {
        "encoding": "mapping",
        "key": "t_uint256",
        "label": "mapping(uint256 => struct LemonadeMarketplace.Order)",
        "numberOfBytes": "32",
        "value": "t_struct(Order)1923_storage"
      },
      "t_struct(AddressSet)1516_storage": {
        "encoding": "inplace",
        "label": "struct EnumerableSet.AddressSet",
        "members": [
          {
            "astId": 1515,
            "contract": "contracts/LemonadeMarketplace.sol:LemonadeMarketplace",
            "label": "_inner",
            "offset": 0,
            "slot": "0",
            "type": "t_struct(Set)1215_storage"
          }
        ],
        "numberOfBytes": "64"
      },
      "t_struct(Counter)897_storage": {
        "encoding": "inplace",
        "label": "struct Counters.Counter",
        "members": [
          {
            "astId": 896,
            "contract": "contracts/LemonadeMarketplace.sol:LemonadeMarketplace",
            "label": "_value",
            "offset": 0,
            "slot": "0",
            "type": "t_uint256"
          }
        ],
        "numberOfBytes": "32"
      },
      "t_struct(Order)1923_storage": {
        "encoding": "inplace",
        "label": "struct LemonadeMarketplace.Order",
        "members": [
          {
            "astId": 1898,
            "contract": "contracts/LemonadeMarketplace.sol:LemonadeMarketplace",
            "label": "kind",
            "offset": 0,
            "slot": "0",
            "type": "t_enum(OrderKind)1854"
          },
          {
            "astId": 1900,
            "contract": "contracts/LemonadeMarketplace.sol:LemonadeMarketplace",
            "label": "open",
            "offset": 1,
            "slot": "0",
            "type": "t_bool"
          },
          {
            "astId": 1902,
            "contract": "contracts/LemonadeMarketplace.sol:LemonadeMarketplace",
            "label": "openFrom",
            "offset": 0,
            "slot": "1",
            "type": "t_uint256"
          },
          {
            "astId": 1904,
            "contract": "contracts/LemonadeMarketplace.sol:LemonadeMarketplace",
            "label": "openTo",
            "offset": 0,
            "slot": "2",
            "type": "t_uint256"
          },
          {
            "astId": 1906,
            "contract": "contracts/LemonadeMarketplace.sol:LemonadeMarketplace",
            "label": "maker",
            "offset": 0,
            "slot": "3",
            "type": "t_address"
          },
          {
            "astId": 1908,
            "contract": "contracts/LemonadeMarketplace.sol:LemonadeMarketplace",
            "label": "currency",
            "offset": 0,
            "slot": "4",
            "type": "t_address"
          },
          {
            "astId": 1910,
            "contract": "contracts/LemonadeMarketplace.sol:LemonadeMarketplace",
            "label": "price",
            "offset": 0,
            "slot": "5",
            "type": "t_uint256"
          },
          {
            "astId": 1912,
            "contract": "contracts/LemonadeMarketplace.sol:LemonadeMarketplace",
            "label": "tokenContract",
            "offset": 0,
            "slot": "6",
            "type": "t_address"
          },
          {
            "astId": 1914,
            "contract": "contracts/LemonadeMarketplace.sol:LemonadeMarketplace",
            "label": "tokenId",
            "offset": 0,
            "slot": "7",
            "type": "t_uint256"
          },
          {
            "astId": 1916,
            "contract": "contracts/LemonadeMarketplace.sol:LemonadeMarketplace",
            "label": "bidder",
            "offset": 0,
            "slot": "8",
            "type": "t_address"
          },
          {
            "astId": 1918,
            "contract": "contracts/LemonadeMarketplace.sol:LemonadeMarketplace",
            "label": "bidAmount",
            "offset": 0,
            "slot": "9",
            "type": "t_uint256"
          },
          {
            "astId": 1920,
            "contract": "contracts/LemonadeMarketplace.sol:LemonadeMarketplace",
            "label": "taker",
            "offset": 0,
            "slot": "10",
            "type": "t_address"
          },
          {
            "astId": 1922,
            "contract": "contracts/LemonadeMarketplace.sol:LemonadeMarketplace",
            "label": "paidAmount",
            "offset": 0,
            "slot": "11",
            "type": "t_uint256"
          }
        ],
        "numberOfBytes": "384"
      },
      "t_struct(RoleData)19_storage": {
        "encoding": "inplace",
        "label": "struct AccessControl.RoleData",
        "members": [
          {
            "astId": 16,
            "contract": "contracts/LemonadeMarketplace.sol:LemonadeMarketplace",
            "label": "members",
            "offset": 0,
            "slot": "0",
            "type": "t_mapping(t_address,t_bool)"
          },
          {
            "astId": 18,
            "contract": "contracts/LemonadeMarketplace.sol:LemonadeMarketplace",
            "label": "adminRole",
            "offset": 0,
            "slot": "1",
            "type": "t_bytes32"
          }
        ],
        "numberOfBytes": "64"
      },
      "t_struct(Set)1215_storage": {
        "encoding": "inplace",
        "label": "struct EnumerableSet.Set",
        "members": [
          {
            "astId": 1210,
            "contract": "contracts/LemonadeMarketplace.sol:LemonadeMarketplace",
            "label": "_values",
            "offset": 0,
            "slot": "0",
            "type": "t_array(t_bytes32)dyn_storage"
          },
          {
            "astId": 1214,
            "contract": "contracts/LemonadeMarketplace.sol:LemonadeMarketplace",
            "label": "_indexes",
            "offset": 0,
            "slot": "1",
            "type": "t_mapping(t_bytes32,t_uint256)"
          }
        ],
        "numberOfBytes": "64"
      },
      "t_uint256": {
        "encoding": "inplace",
        "label": "uint256",
        "numberOfBytes": "32"
      }
    }
  }
}