{
  "address": "0x09C8b91dF16c8F21a6Cd2A6d802ca728A2DB2828",
  "abi": [
    {
      "inputs": [
        {
          "internalType": "address",
          "name": "feeAccount",
          "type": "address"
        },
        {
          "internalType": "uint96",
          "name": "feeValue",
          "type": "uint96"
        }
      ],
      "stateMutability": "nonpayable",
      "type": "constructor"
    },
    {
      "anonymous": false,
      "inputs": [
        {
          "indexed": true,
          "internalType": "uint256",
          "name": "orderId",
          "type": "uint256"
        },
        {
          "indexed": true,
          "internalType": "address",
          "name": "bidder",
          "type": "address"
        },
        {
          "indexed": false,
          "internalType": "uint256",
          "name": "bidAmount",
          "type": "uint256"
        }
      ],
      "name": "OrderBid",
      "type": "event"
    },
    {
      "anonymous": false,
      "inputs": [
        {
          "indexed": true,
          "internalType": "uint256",
          "name": "orderId",
          "type": "uint256"
        }
      ],
      "name": "OrderCancelled",
      "type": "event"
    },
    {
      "anonymous": false,
      "inputs": [
        {
          "indexed": true,
          "internalType": "uint256",
          "name": "orderId",
          "type": "uint256"
        },
        {
          "indexed": false,
          "internalType": "enum LemonadeMarketplaceV1.OrderKind",
          "name": "kind",
          "type": "uint8"
        },
        {
          "indexed": false,
          "internalType": "uint256",
          "name": "openFrom",
          "type": "uint256"
        },
        {
          "indexed": false,
          "internalType": "uint256",
          "name": "openTo",
          "type": "uint256"
        },
        {
          "indexed": true,
          "internalType": "address",
          "name": "maker",
          "type": "address"
        },
        {
          "indexed": false,
          "internalType": "address",
          "name": "currency",
          "type": "address"
        },
        {
          "indexed": false,
          "internalType": "uint256",
          "name": "price",
          "type": "uint256"
        },
        {
          "indexed": false,
          "internalType": "address",
          "name": "tokenContract",
          "type": "address"
        },
        {
          "indexed": false,
          "internalType": "uint256",
          "name": "tokenId",
          "type": "uint256"
        }
      ],
      "name": "OrderCreated",
      "type": "event"
    },
    {
      "anonymous": false,
      "inputs": [
        {
          "indexed": true,
          "internalType": "uint256",
          "name": "orderId",
          "type": "uint256"
        },
        {
          "indexed": true,
          "internalType": "address",
          "name": "taker",
          "type": "address"
        },
        {
          "indexed": false,
          "internalType": "uint256",
          "name": "paidAmount",
          "type": "uint256"
        }
      ],
      "name": "OrderFilled",
      "type": "event"
    },
    {
      "anonymous": false,
      "inputs": [
        {
          "indexed": true,
          "internalType": "bytes32",
          "name": "role",
          "type": "bytes32"
        },
        {
          "indexed": true,
          "internalType": "bytes32",
          "name": "previousAdminRole",
          "type": "bytes32"
        },
        {
          "indexed": true,
          "internalType": "bytes32",
          "name": "newAdminRole",
          "type": "bytes32"
        }
      ],
      "name": "RoleAdminChanged",
      "type": "event"
    },
    {
      "anonymous": false,
      "inputs": [
        {
          "indexed": true,
          "internalType": "bytes32",
          "name": "role",
          "type": "bytes32"
        },
        {
          "indexed": true,
          "internalType": "address",
          "name": "account",
          "type": "address"
        },
        {
          "indexed": true,
          "internalType": "address",
          "name": "sender",
          "type": "address"
        }
      ],
      "name": "RoleGranted",
      "type": "event"
    },
    {
      "anonymous": false,
      "inputs": [
        {
          "indexed": true,
          "internalType": "bytes32",
          "name": "role",
          "type": "bytes32"
        },
        {
          "indexed": true,
          "internalType": "address",
          "name": "account",
          "type": "address"
        },
        {
          "indexed": true,
          "internalType": "address",
          "name": "sender",
          "type": "address"
        }
      ],
      "name": "RoleRevoked",
      "type": "event"
    },
    {
      "inputs": [],
      "name": "DEFAULT_ADMIN_ROLE",
      "outputs": [
        {
          "internalType": "bytes32",
          "name": "",
          "type": "bytes32"
        }
      ],
      "stateMutability": "view",
      "type": "function"
    },
    {
      "inputs": [
        {
          "internalType": "uint256",
          "name": "orderId",
          "type": "uint256"
        },
        {
          "internalType": "uint256",
          "name": "amount",
          "type": "uint256"
        }
      ],
      "name": "bidOrder",
      "outputs": [],
      "stateMutability": "payable",
      "type": "function"
    },
    {
      "inputs": [
        {
          "internalType": "uint256",
          "name": "orderId",
          "type": "uint256"
        }
      ],
      "name": "cancelOrder",
      "outputs": [],
      "stateMutability": "nonpayable",
      "type": "function"
    },
    {
      "inputs": [
        {
          "internalType": "enum LemonadeMarketplaceV1.OrderKind",
          "name": "kind",
          "type": "uint8"
        },
        {
          "internalType": "uint256",
          "name": "openFrom",
          "type": "uint256"
        },
        {
          "internalType": "uint256",
          "name": "openTo",
          "type": "uint256"
        },
        {
          "internalType": "address",
          "name": "currency",
          "type": "address"
        },
        {
          "internalType": "uint256",
          "name": "price",
          "type": "uint256"
        },
        {
          "internalType": "address",
          "name": "tokenContract",
          "type": "address"
        },
        {
          "internalType": "uint256",
          "name": "tokenId",
          "type": "uint256"
        }
      ],
      "name": "createOrder",
      "outputs": [
        {
          "internalType": "uint256",
          "name": "",
          "type": "uint256"
        }
      ],
      "stateMutability": "nonpayable",
      "type": "function"
    },
    {
      "inputs": [],
      "name": "feeAccount",
      "outputs": [
        {
          "internalType": "address",
          "name": "",
          "type": "address"
        }
      ],
      "stateMutability": "view",
      "type": "function"
    },
    {
      "inputs": [],
      "name": "feeValue",
      "outputs": [
        {
          "internalType": "uint96",
          "name": "",
          "type": "uint96"
        }
      ],
      "stateMutability": "view",
      "type": "function"
    },
    {
      "inputs": [
        {
          "internalType": "uint256",
          "name": "orderId",
          "type": "uint256"
        },
        {
          "internalType": "uint256",
          "name": "amount",
          "type": "uint256"
        }
      ],
      "name": "fillOrder",
      "outputs": [],
      "stateMutability": "payable",
      "type": "function"
    },
    {
      "inputs": [
        {
          "internalType": "address",
          "name": "tokenContract",
          "type": "address"
        },
        {
          "internalType": "uint256",
          "name": "tokenId",
          "type": "uint256"
        }
      ],
      "name": "getRaribleV2Royalties",
      "outputs": [
        {
          "internalType": "bool",
          "name": "",
          "type": "bool"
        },
        {
          "components": [
            {
              "internalType": "address payable",
              "name": "account",
              "type": "address"
            },
            {
              "internalType": "uint96",
              "name": "value",
              "type": "uint96"
            }
          ],
          "internalType": "struct LibPart.Part[]",
          "name": "",
          "type": "tuple[]"
        }
      ],
      "stateMutability": "view",
      "type": "function"
    },
    {
      "inputs": [
        {
          "internalType": "bytes32",
          "name": "role",
          "type": "bytes32"
        }
      ],
      "name": "getRoleAdmin",
      "outputs": [
        {
          "internalType": "bytes32",
          "name": "",
          "type": "bytes32"
        }
      ],
      "stateMutability": "view",
      "type": "function"
    },
    {
      "inputs": [
        {
          "internalType": "bytes32",
          "name": "role",
          "type": "bytes32"
        },
        {
          "internalType": "uint256",
          "name": "index",
          "type": "uint256"
        }
      ],
      "name": "getRoleMember",
      "outputs": [
        {
          "internalType": "address",
          "name": "",
          "type": "address"
        }
      ],
      "stateMutability": "view",
      "type": "function"
    },
    {
      "inputs": [
        {
          "internalType": "bytes32",
          "name": "role",
          "type": "bytes32"
        }
      ],
      "name": "getRoleMemberCount",
      "outputs": [
        {
          "internalType": "uint256",
          "name": "",
          "type": "uint256"
        }
      ],
      "stateMutability": "view",
      "type": "function"
    },
    {
      "inputs": [
        {
          "internalType": "address",
          "name": "tokenContract",
          "type": "address"
        },
        {
          "internalType": "uint256",
          "name": "tokenId",
          "type": "uint256"
        },
        {
          "internalType": "uint256",
          "name": "paidAmount",
          "type": "uint256"
        }
      ],
      "name": "getRoyaltyInfo",
      "outputs": [
        {
          "internalType": "bool",
          "name": "",
          "type": "bool"
        },
        {
          "internalType": "address",
          "name": "",
          "type": "address"
        },
        {
          "internalType": "uint256",
          "name": "",
          "type": "uint256"
        }
      ],
      "stateMutability": "view",
      "type": "function"
    },
    {
      "inputs": [
        {
          "internalType": "bytes32",
          "name": "role",
          "type": "bytes32"
        },
        {
          "internalType": "address",
          "name": "account",
          "type": "address"
        }
      ],
      "name": "grantRole",
      "outputs": [],
      "stateMutability": "nonpayable",
      "type": "function"
    },
    {
      "inputs": [
        {
          "internalType": "bytes32",
          "name": "role",
          "type": "bytes32"
        },
        {
          "internalType": "address",
          "name": "account",
          "type": "address"
        }
      ],
      "name": "hasRole",
      "outputs": [
        {
          "internalType": "bool",
          "name": "",
          "type": "bool"
        }
      ],
      "stateMutability": "view",
      "type": "function"
    },
    {
      "inputs": [
        {
          "internalType": "uint256",
          "name": "orderId",
          "type": "uint256"
        }
      ],
      "name": "order",
      "outputs": [
        {
          "internalType": "enum LemonadeMarketplaceV1.OrderKind",
          "name": "",
          "type": "uint8"
        },
        {
          "internalType": "bool",
          "name": "",
          "type": "bool"
        },
        {
          "internalType": "uint256",
          "name": "",
          "type": "uint256"
        },
        {
          "internalType": "uint256",
          "name": "",
          "type": "uint256"
        },
        {
          "internalType": "address",
          "name": "",
          "type": "address"
        },
        {
          "internalType": "address",
          "name": "",
          "type": "address"
        },
        {
          "internalType": "uint256",
          "name": "",
          "type": "uint256"
        },
        {
          "internalType": "uint256",
          "name": "",
          "type": "uint256"
        },
        {
          "internalType": "address",
          "name": "",
          "type": "address"
        },
        {
          "internalType": "uint256",
          "name": "",
          "type": "uint256"
        }
      ],
      "stateMutability": "view",
      "type": "function"
    },
    {
      "inputs": [],
      "name": "orderIdTracker",
      "outputs": [
        {
          "internalType": "uint256",
          "name": "_value",
          "type": "uint256"
        }
      ],
      "stateMutability": "view",
      "type": "function"
    },
    {
      "inputs": [
        {
          "internalType": "bytes32",
          "name": "role",
          "type": "bytes32"
        },
        {
          "internalType": "address",
          "name": "account",
          "type": "address"
        }
      ],
      "name": "renounceRole",
      "outputs": [],
      "stateMutability": "nonpayable",
      "type": "function"
    },
    {
      "inputs": [
        {
          "internalType": "bytes32",
          "name": "role",
          "type": "bytes32"
        },
        {
          "internalType": "address",
          "name": "account",
          "type": "address"
        }
      ],
      "name": "revokeRole",
      "outputs": [],
      "stateMutability": "nonpayable",
      "type": "function"
    },
    {
      "inputs": [
        {
          "internalType": "bytes4",
          "name": "interfaceId",
          "type": "bytes4"
        }
      ],
      "name": "supportsInterface",
      "outputs": [
        {
          "internalType": "bool",
          "name": "",
          "type": "bool"
        }
      ],
      "stateMutability": "view",
      "type": "function"
    },
    {
      "inputs": [
        {
          "internalType": "uint256",
          "name": "orderId",
          "type": "uint256"
        }
      ],
      "name": "token",
      "outputs": [
        {
          "internalType": "address",
          "name": "",
          "type": "address"
        },
        {
          "internalType": "uint256",
          "name": "",
          "type": "uint256"
        }
      ],
      "stateMutability": "view",
      "type": "function"
    }
  ],
  "transactionHash": "0xf5433a681f34b0e6df0032950308d7f23c65ed50405e491a880e9d7e523b00e4",
  "args": [
    "0x951292004e8a18955Cb1095CB72Ca6B01d68336E",
    "200"
  ],
  "numDeployments": 1,
  "solcInputHash": "b1e397fd93dae4e1be96c59cbf27f071",
  "bytecode": "0x60c06040523480156200001157600080fd5b5060405162003808380380620038088339810160408190526200003491620001dc565b606082901b6001600160601b03191660805260a081811b6001600160a01b031916905281816200006d6000620000673390565b62000077565b505050506200022e565b62000083828262000087565b5050565b6200009e8282620000ca60201b6200222c1760201c565b6000828152600160209081526040909120620000c5918390620022b06200016a821b17901c565b505050565b6000828152602081815260408083206001600160a01b038516845290915290205460ff1662000083576000828152602081815260408083206001600160a01b03851684529091529020805460ff19166001179055620001263390565b6001600160a01b0316816001600160a01b0316837f2f8788117e7eff1d82e926ec794901d17c78024a50270940304540a733656f0d60405160405180910390a45050565b600062000181836001600160a01b0384166200018a565b90505b92915050565b6000818152600183016020526040812054620001d35750815460018181018455600084815260208082209093018490558454848252828601909352604090209190915562000184565b50600062000184565b60008060408385031215620001ef578182fd5b82516001600160a01b038116811462000206578283fd5b60208401519092506001600160601b038116811462000223578182fd5b809150509250929050565b60805160601c60a05160a01c6135a0620002686000396000818161039f0152611e410152600081816102e50152611e7e01526135a06000f3fe60806040526004361061011f5760003560e01c80637241fb7d116100a0578063b858fb5f11610064578063b858fb5f146103ee578063c37dfc5b14610401578063ca15c87314610414578063d547741f14610434578063f74337d41461045457600080fd5b80637241fb7d1461031f5780639010d07c1461034d57806391d148541461036d5780639fddaa931461038d578063a217fddf146103d957600080fd5b80632f2ff15d116100e75780632f2ff15d1461022c57806336568abe1461024e57806336de97421461026e578063514fcac7146102b357806365e17c9d146102d357600080fd5b806301ffc9a714610124578063044215c6146101595780630c1097101461019857806321603f43146101c6578063248a9ca3146101fc575b600080fd5b34801561013057600080fd5b5061014461013f366004612f71565b61046b565b60405190151581526020015b60405180910390f35b34801561016557600080fd5b50610179610174366004612f09565b610496565b604080516001600160a01b039093168352602083019190915201610150565b3480156101a457600080fd5b506101b86101b3366004613029565b610504565b604051908152602001610150565b3480156101d257600080fd5b506101e66101e1366004612f09565b6109d7565b6040516101509a99989796959493929190613230565b34801561020857600080fd5b506101b8610217366004612f09565b60009081526020819052604090206001015490565b34801561023857600080fd5b5061024c610247366004612f21565b610c20565b005b34801561025a57600080fd5b5061024c610269366004612f21565b610c4a565b34801561027a57600080fd5b5061028e610289366004612d58565b610cc8565b6040805193151584526001600160a01b03909216602084015290820152606001610150565b3480156102bf57600080fd5b5061024c6102ce366004612f09565b610d6a565b3480156102df57600080fd5b506103077f000000000000000000000000000000000000000000000000000000000000000081565b6040516001600160a01b039091168152602001610150565b34801561032b57600080fd5b5061033f61033a366004612d00565b6110a3565b6040516101509291906131c5565b34801561035957600080fd5b50610307610368366004612f50565b6111e5565b34801561037957600080fd5b50610144610388366004612f21565b611204565b34801561039957600080fd5b506103c17f000000000000000000000000000000000000000000000000000000000000000081565b6040516001600160601b039091168152602001610150565b3480156103e557600080fd5b506101b8600081565b61024c6103fc36600461309d565b61122d565b61024c61040f36600461309d565b6117e5565b34801561042057600080fd5b506101b861042f366004612f09565b6121f0565b34801561044057600080fd5b5061024c61044f366004612f21565b612207565b34801561046057600080fd5b506003546101b89081565b60006001600160e01b03198216635a05180f60e01b14806104905750610490826122c5565b92915050565b600081815260026020526040812060030154819083906001600160a01b03166104da5760405162461bcd60e51b81526004016104d1906132eb565b60405180910390fd5b505050600090815260026020526040902060068101546007909101546001600160a01b0390911691565b60008061051188886122fa565b90506000811161056f5760405162461bcd60e51b8152602060048201526035602482015260008051602061354b8339815191526044820152741899481bdc195b88185d081cdbdb59481c1bda5b9d605a1b60648201526084016104d1565b600189600181111561059157634e487b7160e01b600052602160045260246000fd5b141561062a5762278d0081111561062a5760405162461bcd60e51b815260206004820152605160248201527f4c656d6f6e6164654d61726b6574706c6163653a206f72646572206f66206b6960448201527f6e642061756374696f6e206d757374206e6f74206265206f70656e20666f72206064820152706d6f7265207468616e203330206461797360781b608482015260a4016104d1565b6040516323b872dd60e01b81526001600160a01b038516906323b872dd9061065a903390309088906004016131a1565b600060405180830381600087803b15801561067457600080fd5b505af1158015610688573d6000803e3d6000fd5b50505050600061069760035490565b9050604051806101a001604052808b60018111156106c557634e487b7160e01b600052602160045260246000fd5b815260016020820152604081018b9052606081018a9052608001336001600160a01b03908116825289811660208084019190915260408084018b9052918916606084015260808301889052600060a0840181905260c0840181905260e0840181905261010090930183905284835260029052902081518154829060ff19166001838181111561076457634e487b7160e01b600052602160045260246000fd5b02179055506020820151815461ff00191661010091151582021782556040830151600180840191909155606084015160028401556080840151600380850180546001600160a01b03199081166001600160a01b039485161790915560a0870151600487018054831691851691909117905560c0870151600587015560e0870151600687018054831691851691909117905593860151600786015561012086015160088601805486169184169190911790556101408601516009860155610160860151600a8601805490951692169190911790925561018090930151600b909201919091558054909101905560008181526002602052604080822081516101a081019092528054829060ff16600181111561088e57634e487b7160e01b600052602160045260246000fd5b60018111156108ad57634e487b7160e01b600052602160045260246000fd5b8152815460ff6101009182900416151560208301526001830154604080840191909152600284015460608085019190915260038501546001600160a01b039081166080808701919091526004870154821660a080880191909152600588015460c0808901919091526006890154841660e0808a019190915260078a0154888a015260088a015485166101208a015260098a01546101408a0152600a8a015485166101608a0152600b909901546101809098019790975290880151885189860151948a0151928a0151978a0151988a0151968a01519551999a509216978a977f4e400f43dce6cc22df28146360114559ffae81b0644d4752872c7def6d77319e976109c197949693949093919290919061328f565b60405180910390a3509998505050505050505050565b6000818152600260205260408120600301548190819081908190819081908190819081908b906001600160a01b0316610a225760405162461bcd60e51b81526004016104d1906132eb565b60008c81526002602052604080822081516101a081019092528054829060ff166001811115610a6157634e487b7160e01b600052602160045260246000fd5b6001811115610a8057634e487b7160e01b600052602160045260246000fd5b81526020016000820160019054906101000a900460ff1615151515815260200160018201548152602001600282015481526020016003820160009054906101000a90046001600160a01b03166001600160a01b03166001600160a01b031681526020016004820160009054906101000a90046001600160a01b03166001600160a01b03166001600160a01b03168152602001600582015481526020016006820160009054906101000a90046001600160a01b03166001600160a01b03166001600160a01b03168152602001600782015481526020016008820160009054906101000a90046001600160a01b03166001600160a01b03166001600160a01b0316815260200160098201548152602001600a820160009054906101000a90046001600160a01b03166001600160a01b03166001600160a01b03168152602001600b820154815250509050806000015181602001518260400151836060015184608001518560a001518660c001518761014001518861016001518961018001519b509b509b509b509b509b509b509b509b509b5050509193959799509193959799565b600082815260208190526040902060010154610c3b81612348565b610c458383612355565b505050565b6001600160a01b0381163314610cba5760405162461bcd60e51b815260206004820152602f60248201527f416363657373436f6e74726f6c3a2063616e206f6e6c792072656e6f756e636560448201526e103937b632b9903337b91039b2b63360891b60648201526084016104d1565b610cc48282612377565b5050565b60405163152a902d60e11b81526004810183905260248101829052600090819081906001600160a01b03871690632a55205a90604401604080518083038186803b158015610d1557600080fd5b505afa925050508015610d45575060408051601f3d908101601f19168201909252610d4291810190612d2b565b60015b610d5757506000915081905080610d61565b6001945090925090505b93509350939050565b60008181526002602052604090206003015481906001600160a01b0316610da35760405162461bcd60e51b81526004016104d1906132eb565b60008281526002602052604080822081516101a081019092528054829060ff166001811115610de257634e487b7160e01b600052602160045260246000fd5b6001811115610e0157634e487b7160e01b600052602160045260246000fd5b815281546101009081900460ff1615156020830152600183015460408301526002830154606083015260038301546001600160a01b0390811660808401526004840154811660a0840152600584015460c08401526006840154811660e0840152600784015491830191909152600883015481166101208301526009830154610140830152600a83015416610160820152600b90910154610180909101529050336001600160a01b031681608001516001600160a01b03161480610eca5750610eca600033611204565b610f2f5760405162461bcd60e51b815260206004820152603060248201527f4c656d6f6e6164654d61726b6574706c6163653a206d7573742062652074686560448201526f081b585ad95c881d1bc818d85b98d95b60821b60648201526084016104d1565b8060200151610f885760405162461bcd60e51b8152602060048201526031602482015260008051602061354b8339815191526044820152701899481bdc195b881d1bc818d85b98d95b607a1b60648201526084016104d1565b6101208101516001600160a01b031615610ff05760405162461bcd60e51b8152602060048201526035602482015260008051602061354b8339815191526044820152741a185d99481b9bc8189a59081d1bc818d85b98d95b605a1b60648201526084016104d1565b60e081015160808201516101008301516040516323b872dd60e01b81526001600160a01b03909316926323b872dd9261102d9230926004016131a1565b600060405180830381600087803b15801561104757600080fd5b505af115801561105b573d6000803e3d6000fd5b505050600084815260026020526040808220805461ff0019169055518592507f61b9399f2f0f32ca39ce8d7be32caed5ec22fe07a6daba3a467ed479ec6065829190a2505050565b6000606073ffffffffffffffffffffffffffffffff0000000084167317c4e6453cc49aaaaeaca894e6d9683e00000000146110eb576110e28484612399565b915091506111de565b6040805180820182526009815268726f79616c7469657360b81b60208201529051637228c32760e01b81526001600160a01b03861691637228c32791611135918791600401613380565b60006040518083038186803b15801561114d57600080fd5b505afa92505050801561118257506040513d6000823e601f3d908101601f1916820160405261117f9190810190612f99565b60015b6111cd5760408051600080825260208201909252816111c3565b604080518082019091526000808252602082015281526020019060019003908161119c5790505b50915091506111de565b60016111d882612439565b92509250505b9250929050565b60008281526001602052604081206111fd908361270e565b9392505050565b6000918252602082815260408084206001600160a01b0393909316845291905290205460ff1690565b60008281526002602052604090206003015482906001600160a01b03166112665760405162461bcd60e51b81526004016104d1906132eb565b60008381526002602052604080822081516101a081019092528054829060ff1660018111156112a557634e487b7160e01b600052602160045260246000fd5b60018111156112c457634e487b7160e01b600052602160045260246000fd5b8152815460ff61010091829004161515602083015260018084015460408401526002840154606084015260038401546001600160a01b0390811660808501526004850154811660a0850152600585015460c08501526006850154811660e0850152600785015492840192909252600884015482166101208401526009840154610140840152600a840154909116610160830152600b90920154610180909101529091508151600181111561138857634e487b7160e01b600052602160045260246000fd5b146113e95760405162461bcd60e51b8152602060048201526039602482015260008051602061354b83398151915260448201527f6265206f66206b696e642061756374696f6e20746f206269640000000000000060648201526084016104d1565b806020015161143f5760405162461bcd60e51b815260206004820152602e602482015260008051602061354b83398151915260448201526d1899481bdc195b881d1bc8189a5960921b60648201526084016104d1565b42816040015111156114a75760405162461bcd60e51b815260206004820152603a602482015260008051602061354b83398151915260448201527f6265206f70656e20746f20626964202d20746f6f206561726c7900000000000060648201526084016104d1565b4281606001511161150e5760405162461bcd60e51b8152602060048201526039602482015260008051602061354b83398151915260448201527f6265206f70656e20746f20626964202d20746f6f206c6174650000000000000060648201526084016104d1565b828160c0015111156115775760405162461bcd60e51b815260206004820152602c60248201527f4c656d6f6e6164654d61726b6574706c6163653a206d757374206d617463682060448201526b1c1c9a58d9481d1bc8189a5960a21b60648201526084016104d1565b60a08101516001600160a01b031615158061159157503483145b6115ad5760405162461bcd60e51b81526004016104d190613331565b6101208101516001600160a01b03161561164f57828161014001511061162a5760405162461bcd60e51b815260206004820152602c60248201527f4c656d6f6e6164654d61726b6574706c6163653a206d7573742073757270617360448201526b1cc8189a59081d1bc8189a5960a21b60648201526084016104d1565b6101408101511561164f5761164f8160a001513083610120015184610140015161271a565b600084815260026020526040908190206008810180546001600160a01b031916331790556009810185905581516101a081019092528054829060ff1660018111156116aa57634e487b7160e01b600052602160045260246000fd5b60018111156116c957634e487b7160e01b600052602160045260246000fd5b8152815460ff610100918290041615156020830152600183015460408301526002830154606083015260038301546001600160a01b0390811660808401526004840154811660a0840152600584015460c08401526006840154811660e084015260078401549183019190915260088301548116610120830152600983015461014080840191909152600a840154909116610160830152600b909201546101809091015281015190915015611791576117918160a001518261012001513084610140015161271a565b8061012001516001600160a01b0316847f43c168f1d9d74d73325ab680f380bc731699766781190d47b123572b01b2fa288361014001516040516117d791815260200190565b60405180910390a350505050565b60008281526002602052604090206003015482906001600160a01b031661181e5760405162461bcd60e51b81526004016104d1906132eb565b60008381526002602052604080822081516101a081019092528054829060ff16600181111561185d57634e487b7160e01b600052602160045260246000fd5b600181111561187c57634e487b7160e01b600052602160045260246000fd5b8152815460ff61010091829004161515602080840191909152600184015460408401526002840154606084015260038401546001600160a01b0390811660808501526004850154811660a0850152600585015460c08501526006850154811660e0850152600785015492840192909252600884015482166101208401526009840154610140840152600a840154909116610160830152600b90920154610180909101528101519091506119775760405162461bcd60e51b815260206004820152602f602482015260008051602061354b83398151915260448201526e1899481bdc195b881d1bc8199a5b1b608a1b60648201526084016104d1565b6000848152600260205260408120805461ff001916905580825160018111156119b057634e487b7160e01b600052602160045260246000fd5b1415611b75574282604001511115611a1e5760405162461bcd60e51b815260206004820152603b602482015260008051602061354b83398151915260448201527f6265206f70656e20746f2066696c6c202d20746f6f206561726c79000000000060648201526084016104d1565b60608201511580611a325750428260600151115b611a925760405162461bcd60e51b815260206004820152603a602482015260008051602061354b83398151915260448201527f6265206f70656e20746f2066696c6c202d20746f6f206c61746500000000000060648201526084016104d1565b838260c001511115611b0c5760405162461bcd60e51b815260206004820152603a60248201527f4c656d6f6e6164654d61726b6574706c6163653a206d757374206d617463682060448201527f707269636520746f2066696c6c20646972656374206f7264657200000000000060648201526084016104d1565b60a08201516001600160a01b0316151580611b2657503484145b611b425760405162461bcd60e51b81526004016104d190613331565b506000848152600260205260409020600a810180546001600160a01b03191633908117909155600b909101849055611d22565b600182516001811115611b9857634e487b7160e01b600052602160045260246000fd5b1415611d22576101208201516001600160a01b0316611c0d5760405162461bcd60e51b815260206004820152603e602482015260008051602061354b83398151915260448201527f686176652062696420746f2066696c6c2061756374696f6e206f72646572000060648201526084016104d1565b6101208201516001600160a01b031633148015611c2e575042826060015111155b80611c45575060808201516001600160a01b031633145b80611c565750611c56600033611204565b611cdd5760405162461bcd60e51b815260206004820152604c60248201527f4c656d6f6e6164654d61726b6574706c6163653a206d7573742062652074686560448201527f206d616b6572206f722066696e616c2062696464657220746f2066696c6c206160648201526b3ab1ba34b7b71037b93232b960a11b608482015260a4016104d1565b506101208101516000858152600260205260409020600a810180546001600160a01b0319166001600160a01b0390931692909217909155610140820151600b90910155305b6000858152600260205260409081902081516101a081019092528054829060ff166001811115611d6257634e487b7160e01b600052602160045260246000fd5b6001811115611d8157634e487b7160e01b600052602160045260246000fd5b8152815460ff610100918290041615156020830152600183015460408301526002830154606083015260038301546001600160a01b0390811660808401526004840154811660a0840152600584015460c08401526006840154811660e0840152600784015491830191909152600883015481166101208301526009830154610140830152600a83015416610160820152600b90910154610180918201528101519092501561212b576101808201516000612710611e676001600160601b037f0000000000000000000000000000000000000000000000000000000000000000168461344b565b611e719190613437565b9050611ea38460a00151847f00000000000000000000000000000000000000000000000000000000000000008461271a565b611ead818361346a565b9150600080611ec58660e001518761010001516110a3565b91509150811561201e57805160005b8181101561201757828181518110611efc57634e487b7160e01b600052603260045260246000fd5b6020026020010151600001516001600160a01b031688608001516001600160a01b031614158015611f6157506000838281518110611f4a57634e487b7160e01b600052603260045260246000fd5b6020026020010151602001516001600160601b0316115b15612005576000612710848381518110611f8b57634e487b7160e01b600052603260045260246000fd5b6020026020010151602001516001600160601b03168a6101800151611fb0919061344b565b611fba9190613437565b9050611ff78960a0015189868581518110611fe557634e487b7160e01b600052603260045260246000fd5b6020026020010151600001518461271a565b612001818861346a565b9650505b8061200f816134c4565b915050611ed4565b5050612097565b600080600061203c8960e001518a61010001518b6101800151610cc8565b9250925092508280156120655750816001600160a01b031689608001516001600160a01b031614155b80156120715750600081115b15612093576120868960a0015189848461271a565b612090818861346a565b96505b5050505b83156120be576120b18660a001518688608001518761271a565b6120bb848061346a565b93505b83156121265760405162461bcd60e51b815260206004820152603160248201527f4c656d6f6e6164654d61726b6574706c6163653a207472616e7366657220616d6044820152706f756e74206d757374206265207a65726f60781b60648201526084016104d1565b505050505b60e08201516101608301516101008401516040516323b872dd60e01b81526001600160a01b03909316926323b872dd926121699230926004016131a1565b600060405180830381600087803b15801561218357600080fd5b505af1158015612197573d6000803e3d6000fd5b505050508161016001516001600160a01b0316857f1e7abafb1a786c4e6394b5c494f50a97e3802ff2ce462eca4fe6a2dd4e1f92e88461018001516040516121e191815260200190565b60405180910390a35050505050565b600081815260016020526040812061049090612892565b60008281526020819052604090206001015461222281612348565b610c458383612377565b6122368282611204565b610cc4576000828152602081815260408083206001600160a01b03851684529091529020805460ff1916600117905561226c3390565b6001600160a01b0316816001600160a01b0316837f2f8788117e7eff1d82e926ec794901d17c78024a50270940304540a733656f0d60405160405180910390a45050565b60006111fd836001600160a01b03841661289c565b60006001600160e01b03198216637965db0b60e01b148061049057506301ffc9a760e01b6001600160e01b0319831614610490565b60008042841061230a578361230c565b425b90506000831561231c5783612320565b6000195b90508082111561233557600092505050610490565b61233f828261346a565b95945050505050565b61235281336128eb565b50565b61235f828261222c565b6000828152600160205260409020610c4590826122b0565b612381828261294f565b6000828152600160205260409020610c4590826129b4565b60405163656cb66560e11b8152600481018290526000906060906001600160a01b0385169063cad96cca9060240160006040518083038186803b1580156123df57600080fd5b505afa92505050801561241457506040513d6000823e601f3d908101601f191682016040526124119190810190612d8c565b60015b61242e5760408051600080825260208201909252816111c3565b6001925090506111de565b6060815160001415612489576040805160008082526020820190925290612482565b604080518082019091526000808252602082015281526020019060019003908161245b5790505b5092915050565b6040825161249791906134df565b156125155760405162461bcd60e51b815260206004820152604260248201527f496e76616c6964206279746573206c656e6774682c206578706563746564202860448201527f3332202a203229202a20556e69717565526f79616c7479506172747320636f756064820152611b9d60f21b608482015260a4016104d1565b6000604083516125259190613437565b9050600061253482600261344b565b905060008267ffffffffffffffff81111561255f57634e487b7160e01b600052604160045260246000fd5b6040519080825280602002602001820160405280156125a457816020015b604080518082019091526000808252602082015281526020019060019003908161257d5790505b506040805181815260608101825291925060009190602082018180368337019050509050602080820152826040820152600081876040516020016125e99291906130fd565b60405160208183030381529060405280602001905181019061260b9190612e62565b905060005b858110156127025760008261262683600261344b565b8151811061264457634e487b7160e01b600052603260045260246000fd5b602002602001015167ffffffffffffffff169050600083836002612668919061344b565b61267390600161341f565b8151811061269157634e487b7160e01b600052603260045260246000fd5b602002602001015190506040518060400160405280826001600160a01b03168152602001836001600160601b03168152508684815181106126e257634e487b7160e01b600052603260045260246000fd5b6020026020010181905250505080806126fa906134c4565b915050612610565b50919695505050505050565b60006111fd83836129c9565b6001600160a01b038416612775576001600160a01b0382163014612770576040516001600160a01b0383169082156108fc029083906000818181858888f1935050505015801561276e573d6000803e3d6000fd5b505b61288c565b6001600160a01b0383163014156128085760405163a9059cbb60e01b81526001600160a01b0383811660048301526024820183905285169063a9059cbb90604401602060405180830381600087803b1580156127d057600080fd5b505af11580156127e4573d6000803e3d6000fd5b505050506040513d601f19601f8201168201806040525081019061276e9190612ee9565b6040516323b872dd60e01b81526001600160a01b038516906323b872dd90612838908690869086906004016131a1565b602060405180830381600087803b15801561285257600080fd5b505af1158015612866573d6000803e3d6000fd5b505050506040513d601f19601f8201168201806040525081019061288a9190612ee9565b505b50505050565b6000610490825490565b60008181526001830160205260408120546128e357508154600181810184556000848152602080822090930184905584548482528286019093526040902091909155610490565b506000610490565b6128f58282611204565b610cc45761290d816001600160a01b03166014612a01565b612918836020612a01565b60405160200161292992919061312c565b60408051601f198184030181529082905262461bcd60e51b82526104d1916004016132d8565b6129598282611204565b15610cc4576000828152602081815260408083206001600160a01b0385168085529252808320805460ff1916905551339285917ff6391f5c32d9c69d2a47ea670b442974b53935d1edc7fd64eb21e047a839171b9190a45050565b60006111fd836001600160a01b038416612be3565b60008260000182815481106129ee57634e487b7160e01b600052603260045260246000fd5b9060005260206000200154905092915050565b60606000612a1083600261344b565b612a1b90600261341f565b67ffffffffffffffff811115612a4157634e487b7160e01b600052604160045260246000fd5b6040519080825280601f01601f191660200182016040528015612a6b576020820181803683370190505b509050600360fc1b81600081518110612a9457634e487b7160e01b600052603260045260246000fd5b60200101906001600160f81b031916908160001a905350600f60fb1b81600181518110612ad157634e487b7160e01b600052603260045260246000fd5b60200101906001600160f81b031916908160001a9053506000612af584600261344b565b612b0090600161341f565b90505b6001811115612b94576f181899199a1a9b1b9c1cb0b131b232b360811b85600f1660108110612b4257634e487b7160e01b600052603260045260246000fd5b1a60f81b828281518110612b6657634e487b7160e01b600052603260045260246000fd5b60200101906001600160f81b031916908160001a90535060049490941c93612b8d816134ad565b9050612b03565b5083156111fd5760405162461bcd60e51b815260206004820181905260248201527f537472696e67733a20686578206c656e67746820696e73756666696369656e7460448201526064016104d1565b60008181526001830160205260408120548015612cf6576000612c0760018361346a565b8554909150600090612c1b9060019061346a565b9050818114612c9c576000866000018281548110612c4957634e487b7160e01b600052603260045260246000fd5b9060005260206000200154905080876000018481548110612c7a57634e487b7160e01b600052603260045260246000fd5b6000918252602080832090910192909255918252600188019052604090208390555b8554869080612cbb57634e487b7160e01b600052603160045260246000fd5b600190038181906000526020600020016000905590558560010160008681526020019081526020016000206000905560019350505050610490565b6000915050610490565b60008060408385031215612d12578182fd5b8235612d1d81613535565b946020939093013593505050565b60008060408385031215612d3d578182fd5b8251612d4881613535565b6020939093015192949293505050565b600080600060608486031215612d6c578081fd5b8335612d7781613535565b95602085013595506040909401359392505050565b60006020808385031215612d9e578182fd5b825167ffffffffffffffff811115612db4578283fd5b8301601f81018513612dc4578283fd5b8051612dd7612dd2826133fb565b6133ca565b80828252848201915084840188868560061b8701011115612df6578687fd5b8694505b83851015612e5657604080828b031215612e12578788fd5b612e1a6133a1565b8251612e2581613535565b8152828801516001600160601b0381168114612e3f57898afd5b818901528452600195909501949286019201612dfa565b50979650505050505050565b60006020808385031215612e74578182fd5b825167ffffffffffffffff811115612e8a578283fd5b8301601f81018513612e9a578283fd5b8051612ea8612dd2826133fb565b80828252848201915084840188868560051b8701011115612ec7578687fd5b8694505b83851015612e56578051835260019490940193918501918501612ecb565b600060208284031215612efa578081fd5b815180151581146111fd578182fd5b600060208284031215612f1a578081fd5b5035919050565b60008060408385031215612f33578182fd5b823591506020830135612f4581613535565b809150509250929050565b60008060408385031215612f62578081fd5b50508035926020909101359150565b600060208284031215612f82578081fd5b81356001600160e01b0319811681146111fd578182fd5b600060208284031215612faa578081fd5b815167ffffffffffffffff80821115612fc1578283fd5b818401915084601f830112612fd4578283fd5b815181811115612fe657612fe661351f565b612ff9601f8201601f19166020016133ca565b915080825285602082850101111561300f578384fd5b613020816020840160208601613481565b50949350505050565b600080600080600080600060e0888a031215613043578485fd5b873560028110613051578586fd5b96506020880135955060408801359450606088013561306f81613535565b93506080880135925060a088013561308681613535565b8092505060c0880135905092959891949750929550565b60008060408385031215612f62578182fd5b600281106130cd57634e487b7160e01b600052602160045260246000fd5b9052565b600081518084526130e9816020860160208601613481565b601f01601f19169290920160200192915050565b6000835161310f818460208801613481565b835190830190613123818360208801613481565b01949350505050565b7f416363657373436f6e74726f6c3a206163636f756e7420000000000000000000815260008351613164816017850160208801613481565b7001034b99036b4b9b9b4b733903937b6329607d1b6017918401918201528351613195816028840160208801613481565b01602801949350505050565b6001600160a01b039384168152919092166020820152604081019190915260600190565b600060408083018515158452602082818601528186518084526060870191508288019350855b8181101561322257845180516001600160a01b031684528401516001600160601b03168484015293830193918501916001016131eb565b509098975050505050505050565b610140810161323f828d6130af565b9915156020820152604081019890985260608801969096526001600160a01b03948516608088015292841660a087015260c086019190915260e08501521661010083015261012090910152919050565b60e0810161329d828a6130af565b602082019790975260408101959095526001600160a01b039384166060860152608085019290925290911660a083015260c090910152919050565b6020815260006111fd60208301846130d1565b60208082526026908201527f4c656d6f6e6164654d61726b6574706c6163653a206f72646572206e6f6e65786040820152651a5cdd195b9d60d21b606082015260800190565b6020808252602f908201527f4c656d6f6e6164654d61726b6574706c6163653a20616d6f756e74206d75737460408201526e206d617463682074782076616c756560881b606082015260800190565b82815260406020820152600061339960408301846130d1565b949350505050565b6040805190810167ffffffffffffffff811182821017156133c4576133c461351f565b60405290565b604051601f8201601f1916810167ffffffffffffffff811182821017156133f3576133f361351f565b604052919050565b600067ffffffffffffffff8211156134155761341561351f565b5060051b60200190565b60008219821115613432576134326134f3565b500190565b60008261344657613446613509565b500490565b6000816000190483118215151615613465576134656134f3565b500290565b60008282101561347c5761347c6134f3565b500390565b60005b8381101561349c578181015183820152602001613484565b8381111561288c5750506000910152565b6000816134bc576134bc6134f3565b506000190190565b60006000198214156134d8576134d86134f3565b5060010190565b6000826134ee576134ee613509565b500690565b634e487b7160e01b600052601160045260246000fd5b634e487b7160e01b600052601260045260246000fd5b634e487b7160e01b600052604160045260246000fd5b6001600160a01b038116811461235257600080fdfe4c656d6f6e6164654d61726b6574706c6163653a206f72646572206d75737420a2646970667358221220fcc543bdd6445874f55cbde8b27663b7601045a4bee7380254eeab89d90f92a564736f6c63430008040033",
  "devdoc": {
    "kind": "dev",
    "methods": {
      "getRoleAdmin(bytes32)": {
        "details": "Returns the admin role that controls `role`. See {grantRole} and {revokeRole}. To change a role's admin, use {_setRoleAdmin}."
      },
      "getRoleMember(bytes32,uint256)": {
        "details": "Returns one of the accounts that have `role`. `index` must be a value between 0 and {getRoleMemberCount}, non-inclusive. Role bearers are not sorted in any particular way, and their ordering may change at any point. WARNING: When using {getRoleMember} and {getRoleMemberCount}, make sure you perform all queries on the same block. See the following https://forum.openzeppelin.com/t/iterating-over-elements-on-enumerableset-in-openzeppelin-contracts/2296[forum post] for more information."
      },
      "getRoleMemberCount(bytes32)": {
        "details": "Returns the number of accounts that have `role`. Can be used together with {getRoleMember} to enumerate all bearers of a role."
      },
      "grantRole(bytes32,address)": {
        "details": "Grants `role` to `account`. If `account` had not been already granted `role`, emits a {RoleGranted} event. Requirements: - the caller must have ``role``'s admin role."
      },
      "hasRole(bytes32,address)": {
        "details": "Returns `true` if `account` has been granted `role`."
      },
      "renounceRole(bytes32,address)": {
        "details": "Revokes `role` from the calling account. Roles are often managed via {grantRole} and {revokeRole}: this function's purpose is to provide a mechanism for accounts to lose their privileges if they are compromised (such as when a trusted device is misplaced). If the calling account had been revoked `role`, emits a {RoleRevoked} event. Requirements: - the caller must be `account`."
      },
      "revokeRole(bytes32,address)": {
        "details": "Revokes `role` from `account`. If `account` had been granted `role`, emits a {RoleRevoked} event. Requirements: - the caller must have ``role``'s admin role."
      },
      "supportsInterface(bytes4)": {
        "details": "See {IERC165-supportsInterface}."
      }
    },
    "version": 1
  },
  "userdoc": {
    "kind": "user",
    "methods": {},
    "version": 1
  },
  "storageLayout": {
    "storage": [
      {
        "astId": 2200,
        "contract": "contracts/LemonadeMarketplaceV1Unique.sol:LemonadeMarketplaceV1Unique",
        "label": "_roles",
        "offset": 0,
        "slot": "0",
        "type": "t_mapping(t_bytes32,t_struct(RoleData)2195_storage)"
      },
      {
        "astId": 2514,
        "contract": "contracts/LemonadeMarketplaceV1Unique.sol:LemonadeMarketplaceV1Unique",
        "label": "_roleMembers",
        "offset": 0,
        "slot": "1",
        "type": "t_mapping(t_bytes32,t_struct(AddressSet)5730_storage)"
      },
      {
        "astId": 7701,
        "contract": "contracts/LemonadeMarketplaceV1Unique.sol:LemonadeMarketplaceV1Unique",
        "label": "_orders",
        "offset": 0,
        "slot": "2",
        "type": "t_mapping(t_uint256,t_struct(Order)7696_storage)"
      },
      {
        "astId": 7704,
        "contract": "contracts/LemonadeMarketplaceV1Unique.sol:LemonadeMarketplaceV1Unique",
        "label": "orderIdTracker",
        "offset": 0,
        "slot": "3",
        "type": "t_struct(Counter)4909_storage"
      }
    ],
    "types": {
      "t_address": {
        "encoding": "inplace",
        "label": "address",
        "numberOfBytes": "20"
      },
      "t_array(t_bytes32)dyn_storage": {
        "base": "t_bytes32",
        "encoding": "dynamic_array",
        "label": "bytes32[]",
        "numberOfBytes": "32"
      },
      "t_bool": {
        "encoding": "inplace",
        "label": "bool",
        "numberOfBytes": "1"
      },
      "t_bytes32": {
        "encoding": "inplace",
        "label": "bytes32",
        "numberOfBytes": "32"
      },
      "t_enum(OrderKind)7627": {
        "encoding": "inplace",
        "label": "enum LemonadeMarketplaceV1.OrderKind",
        "numberOfBytes": "1"
      },
      "t_mapping(t_address,t_bool)": {
        "encoding": "mapping",
        "key": "t_address",
        "label": "mapping(address => bool)",
        "numberOfBytes": "32",
        "value": "t_bool"
      },
      "t_mapping(t_bytes32,t_struct(AddressSet)5730_storage)": {
        "encoding": "mapping",
        "key": "t_bytes32",
        "label": "mapping(bytes32 => struct EnumerableSet.AddressSet)",
        "numberOfBytes": "32",
        "value": "t_struct(AddressSet)5730_storage"
      },
      "t_mapping(t_bytes32,t_struct(RoleData)2195_storage)": {
        "encoding": "mapping",
        "key": "t_bytes32",
        "label": "mapping(bytes32 => struct AccessControl.RoleData)",
        "numberOfBytes": "32",
        "value": "t_struct(RoleData)2195_storage"
      },
      "t_mapping(t_bytes32,t_uint256)": {
        "encoding": "mapping",
        "key": "t_bytes32",
        "label": "mapping(bytes32 => uint256)",
        "numberOfBytes": "32",
        "value": "t_uint256"
      },
      "t_mapping(t_uint256,t_struct(Order)7696_storage)": {
        "encoding": "mapping",
        "key": "t_uint256",
        "label": "mapping(uint256 => struct LemonadeMarketplaceV1.Order)",
        "numberOfBytes": "32",
        "value": "t_struct(Order)7696_storage"
      },
      "t_struct(AddressSet)5730_storage": {
        "encoding": "inplace",
        "label": "struct EnumerableSet.AddressSet",
        "members": [
          {
            "astId": 5729,
            "contract": "contracts/LemonadeMarketplaceV1Unique.sol:LemonadeMarketplaceV1Unique",
            "label": "_inner",
            "offset": 0,
            "slot": "0",
            "type": "t_struct(Set)5429_storage"
          }
        ],
        "numberOfBytes": "64"
      },
      "t_struct(Counter)4909_storage": {
        "encoding": "inplace",
        "label": "struct Counters.Counter",
        "members": [
          {
            "astId": 4908,
            "contract": "contracts/LemonadeMarketplaceV1Unique.sol:LemonadeMarketplaceV1Unique",
            "label": "_value",
            "offset": 0,
            "slot": "0",
            "type": "t_uint256"
          }
        ],
        "numberOfBytes": "32"
      },
      "t_struct(Order)7696_storage": {
        "encoding": "inplace",
        "label": "struct LemonadeMarketplaceV1.Order",
        "members": [
          {
            "astId": 7671,
            "contract": "contracts/LemonadeMarketplaceV1Unique.sol:LemonadeMarketplaceV1Unique",
            "label": "kind",
            "offset": 0,
            "slot": "0",
            "type": "t_enum(OrderKind)7627"
          },
          {
            "astId": 7673,
            "contract": "contracts/LemonadeMarketplaceV1Unique.sol:LemonadeMarketplaceV1Unique",
            "label": "open",
            "offset": 1,
            "slot": "0",
            "type": "t_bool"
          },
          {
            "astId": 7675,
            "contract": "contracts/LemonadeMarketplaceV1Unique.sol:LemonadeMarketplaceV1Unique",
            "label": "openFrom",
            "offset": 0,
            "slot": "1",
            "type": "t_uint256"
          },
          {
            "astId": 7677,
            "contract": "contracts/LemonadeMarketplaceV1Unique.sol:LemonadeMarketplaceV1Unique",
            "label": "openTo",
            "offset": 0,
            "slot": "2",
            "type": "t_uint256"
          },
          {
            "astId": 7679,
            "contract": "contracts/LemonadeMarketplaceV1Unique.sol:LemonadeMarketplaceV1Unique",
            "label": "maker",
            "offset": 0,
            "slot": "3",
            "type": "t_address"
          },
          {
            "astId": 7681,
            "contract": "contracts/LemonadeMarketplaceV1Unique.sol:LemonadeMarketplaceV1Unique",
            "label": "currency",
            "offset": 0,
            "slot": "4",
            "type": "t_address"
          },
          {
            "astId": 7683,
            "contract": "contracts/LemonadeMarketplaceV1Unique.sol:LemonadeMarketplaceV1Unique",
            "label": "price",
            "offset": 0,
            "slot": "5",
            "type": "t_uint256"
          },
          {
            "astId": 7685,
            "contract": "contracts/LemonadeMarketplaceV1Unique.sol:LemonadeMarketplaceV1Unique",
            "label": "tokenContract",
            "offset": 0,
            "slot": "6",
            "type": "t_address"
          },
          {
            "astId": 7687,
            "contract": "contracts/LemonadeMarketplaceV1Unique.sol:LemonadeMarketplaceV1Unique",
            "label": "tokenId",
            "offset": 0,
            "slot": "7",
            "type": "t_uint256"
          },
          {
            "astId": 7689,
            "contract": "contracts/LemonadeMarketplaceV1Unique.sol:LemonadeMarketplaceV1Unique",
            "label": "bidder",
            "offset": 0,
            "slot": "8",
            "type": "t_address"
          },
          {
            "astId": 7691,
            "contract": "contracts/LemonadeMarketplaceV1Unique.sol:LemonadeMarketplaceV1Unique",
            "label": "bidAmount",
            "offset": 0,
            "slot": "9",
            "type": "t_uint256"
          },
          {
            "astId": 7693,
            "contract": "contracts/LemonadeMarketplaceV1Unique.sol:LemonadeMarketplaceV1Unique",
            "label": "taker",
            "offset": 0,
            "slot": "10",
            "type": "t_address"
          },
          {
            "astId": 7695,
            "contract": "contracts/LemonadeMarketplaceV1Unique.sol:LemonadeMarketplaceV1Unique",
            "label": "paidAmount",
            "offset": 0,
            "slot": "11",
            "type": "t_uint256"
          }
        ],
        "numberOfBytes": "384"
      },
      "t_struct(RoleData)2195_storage": {
        "encoding": "inplace",
        "label": "struct AccessControl.RoleData",
        "members": [
          {
            "astId": 2192,
            "contract": "contracts/LemonadeMarketplaceV1Unique.sol:LemonadeMarketplaceV1Unique",
            "label": "members",
            "offset": 0,
            "slot": "0",
            "type": "t_mapping(t_address,t_bool)"
          },
          {
            "astId": 2194,
            "contract": "contracts/LemonadeMarketplaceV1Unique.sol:LemonadeMarketplaceV1Unique",
            "label": "adminRole",
            "offset": 0,
            "slot": "1",
            "type": "t_bytes32"
          }
        ],
        "numberOfBytes": "64"
      },
      "t_struct(Set)5429_storage": {
        "encoding": "inplace",
        "label": "struct EnumerableSet.Set",
        "members": [
          {
            "astId": 5424,
            "contract": "contracts/LemonadeMarketplaceV1Unique.sol:LemonadeMarketplaceV1Unique",
            "label": "_values",
            "offset": 0,
            "slot": "0",
            "type": "t_array(t_bytes32)dyn_storage"
          },
          {
            "astId": 5428,
            "contract": "contracts/LemonadeMarketplaceV1Unique.sol:LemonadeMarketplaceV1Unique",
            "label": "_indexes",
            "offset": 0,
            "slot": "1",
            "type": "t_mapping(t_bytes32,t_uint256)"
          }
        ],
        "numberOfBytes": "64"
      },
      "t_uint256": {
        "encoding": "inplace",
        "label": "uint256",
        "numberOfBytes": "32"
      }
    }
  }
}