{
  "address": "0x9ee632d0E11dC2138a81717E0662F4435a6299DC",
  "abi": [
    {
      "inputs": [
        {
          "internalType": "string",
          "name": "name",
          "type": "string"
        },
        {
          "internalType": "string",
          "name": "symbol",
          "type": "string"
        }
      ],
      "stateMutability": "nonpayable",
      "type": "constructor"
    },
    {
      "anonymous": false,
      "inputs": [
        {
          "indexed": true,
          "internalType": "address",
          "name": "owner",
          "type": "address"
        },
        {
          "indexed": true,
          "internalType": "address",
          "name": "approved",
          "type": "address"
        },
        {
          "indexed": true,
          "internalType": "uint256",
          "name": "tokenId",
          "type": "uint256"
        }
      ],
      "name": "Approval",
      "type": "event"
    },
    {
      "anonymous": false,
      "inputs": [
        {
          "indexed": true,
          "internalType": "address",
          "name": "owner",
          "type": "address"
        },
        {
          "indexed": true,
          "internalType": "address",
          "name": "operator",
          "type": "address"
        },
        {
          "indexed": false,
          "internalType": "bool",
          "name": "approved",
          "type": "bool"
        }
      ],
      "name": "ApprovalForAll",
      "type": "event"
    },
    {
      "anonymous": false,
      "inputs": [
        {
          "indexed": true,
          "internalType": "address",
          "name": "previousOwner",
          "type": "address"
        },
        {
          "indexed": true,
          "internalType": "address",
          "name": "newOwner",
          "type": "address"
        }
      ],
      "name": "OwnershipTransferred",
      "type": "event"
    },
    {
      "anonymous": false,
      "inputs": [
        {
          "indexed": true,
          "internalType": "address",
          "name": "from",
          "type": "address"
        },
        {
          "indexed": true,
          "internalType": "address",
          "name": "to",
          "type": "address"
        },
        {
          "indexed": true,
          "internalType": "uint256",
          "name": "tokenId",
          "type": "uint256"
        }
      ],
      "name": "Transfer",
      "type": "event"
    },
    {
      "inputs": [
        {
          "internalType": "address",
          "name": "to",
          "type": "address"
        },
        {
          "internalType": "uint256",
          "name": "tokenId",
          "type": "uint256"
        }
      ],
      "name": "approve",
      "outputs": [],
      "stateMutability": "nonpayable",
      "type": "function"
    },
    {
      "inputs": [
        {
          "internalType": "address",
          "name": "owner",
          "type": "address"
        }
      ],
      "name": "balanceOf",
      "outputs": [
        {
          "internalType": "uint256",
          "name": "",
          "type": "uint256"
        }
      ],
      "stateMutability": "view",
      "type": "function"
    },
    {
      "inputs": [
        {
          "internalType": "uint256",
          "name": "tokenId",
          "type": "uint256"
        }
      ],
      "name": "getApproved",
      "outputs": [
        {
          "internalType": "address",
          "name": "",
          "type": "address"
        }
      ],
      "stateMutability": "view",
      "type": "function"
    },
    {
      "inputs": [
        {
          "internalType": "uint256",
          "name": "tokenId",
          "type": "uint256"
        }
      ],
      "name": "getRaribleV2Royalties",
      "outputs": [
        {
          "components": [
            {
              "internalType": "address payable",
              "name": "account",
              "type": "address"
            },
            {
              "internalType": "uint96",
              "name": "value",
              "type": "uint96"
            }
          ],
          "internalType": "struct LibPart.Part[]",
          "name": "",
          "type": "tuple[]"
        }
      ],
      "stateMutability": "view",
      "type": "function"
    },
    {
      "inputs": [
        {
          "internalType": "address",
          "name": "owner",
          "type": "address"
        },
        {
          "internalType": "address",
          "name": "operator",
          "type": "address"
        }
      ],
      "name": "isApprovedForAll",
      "outputs": [
        {
          "internalType": "bool",
          "name": "",
          "type": "bool"
        }
      ],
      "stateMutability": "view",
      "type": "function"
    },
    {
      "inputs": [
        {
          "internalType": "string",
          "name": "tokenURI_",
          "type": "string"
        }
      ],
      "name": "mintToCaller",
      "outputs": [
        {
          "internalType": "uint256",
          "name": "",
          "type": "uint256"
        }
      ],
      "stateMutability": "nonpayable",
      "type": "function"
    },
    {
      "inputs": [
        {
          "internalType": "string",
          "name": "tokenURI_",
          "type": "string"
        },
        {
          "components": [
            {
              "internalType": "address payable",
              "name": "account",
              "type": "address"
            },
            {
              "internalType": "uint96",
              "name": "value",
              "type": "uint96"
            }
          ],
          "internalType": "struct LibPart.Part[]",
          "name": "royalties_",
          "type": "tuple[]"
        }
      ],
      "name": "mintToCallerWithRoyalty",
      "outputs": [
        {
          "internalType": "uint256",
          "name": "",
          "type": "uint256"
        }
      ],
      "stateMutability": "nonpayable",
      "type": "function"
    },
    {
      "inputs": [],
      "name": "name",
      "outputs": [
        {
          "internalType": "string",
          "name": "",
          "type": "string"
        }
      ],
      "stateMutability": "view",
      "type": "function"
    },
    {
      "inputs": [],
      "name": "owner",
      "outputs": [
        {
          "internalType": "address",
          "name": "",
          "type": "address"
        }
      ],
      "stateMutability": "view",
      "type": "function"
    },
    {
      "inputs": [
        {
          "internalType": "uint256",
          "name": "tokenId",
          "type": "uint256"
        }
      ],
      "name": "ownerOf",
      "outputs": [
        {
          "internalType": "address",
          "name": "",
          "type": "address"
        }
      ],
      "stateMutability": "view",
      "type": "function"
    },
    {
      "inputs": [],
      "name": "renounceOwnership",
      "outputs": [],
      "stateMutability": "nonpayable",
      "type": "function"
    },
    {
      "inputs": [
        {
          "internalType": "uint256",
          "name": "",
          "type": "uint256"
        },
        {
          "internalType": "uint256",
          "name": "",
          "type": "uint256"
        }
      ],
      "name": "royalties",
      "outputs": [
        {
          "internalType": "address payable",
          "name": "account",
          "type": "address"
        },
        {
          "internalType": "uint96",
          "name": "value",
          "type": "uint96"
        }
      ],
      "stateMutability": "view",
      "type": "function"
    },
    {
      "inputs": [
        {
          "internalType": "uint256",
          "name": "tokenId",
          "type": "uint256"
        },
        {
          "internalType": "uint256",
          "name": "price",
          "type": "uint256"
        }
      ],
      "name": "royaltyInfo",
      "outputs": [
        {
          "internalType": "address",
          "name": "receiver",
          "type": "address"
        },
        {
          "internalType": "uint256",
          "name": "royaltyAmount",
          "type": "uint256"
        }
      ],
      "stateMutability": "view",
      "type": "function"
    },
    {
      "inputs": [
        {
          "internalType": "address",
          "name": "from",
          "type": "address"
        },
        {
          "internalType": "address",
          "name": "to",
          "type": "address"
        },
        {
          "internalType": "uint256",
          "name": "tokenId",
          "type": "uint256"
        }
      ],
      "name": "safeTransferFrom",
      "outputs": [],
      "stateMutability": "nonpayable",
      "type": "function"
    },
    {
      "inputs": [
        {
          "internalType": "address",
          "name": "from",
          "type": "address"
        },
        {
          "internalType": "address",
          "name": "to",
          "type": "address"
        },
        {
          "internalType": "uint256",
          "name": "tokenId",
          "type": "uint256"
        },
        {
          "internalType": "bytes",
          "name": "_data",
          "type": "bytes"
        }
      ],
      "name": "safeTransferFrom",
      "outputs": [],
      "stateMutability": "nonpayable",
      "type": "function"
    },
    {
      "inputs": [
        {
          "internalType": "address",
          "name": "operator",
          "type": "address"
        },
        {
          "internalType": "bool",
          "name": "approved",
          "type": "bool"
        }
      ],
      "name": "setApprovalForAll",
      "outputs": [],
      "stateMutability": "nonpayable",
      "type": "function"
    },
    {
      "inputs": [
        {
          "internalType": "bytes4",
          "name": "interfaceId",
          "type": "bytes4"
        }
      ],
      "name": "supportsInterface",
      "outputs": [
        {
          "internalType": "bool",
          "name": "",
          "type": "bool"
        }
      ],
      "stateMutability": "view",
      "type": "function"
    },
    {
      "inputs": [],
      "name": "symbol",
      "outputs": [
        {
          "internalType": "string",
          "name": "",
          "type": "string"
        }
      ],
      "stateMutability": "view",
      "type": "function"
    },
    {
      "inputs": [],
      "name": "tokenIdTracker",
      "outputs": [
        {
          "internalType": "uint256",
          "name": "_value",
          "type": "uint256"
        }
      ],
      "stateMutability": "view",
      "type": "function"
    },
    {
      "inputs": [
        {
          "internalType": "uint256",
          "name": "tokenId",
          "type": "uint256"
        }
      ],
      "name": "tokenURI",
      "outputs": [
        {
          "internalType": "string",
          "name": "",
          "type": "string"
        }
      ],
      "stateMutability": "view",
      "type": "function"
    },
    {
      "inputs": [
        {
          "internalType": "uint256",
          "name": "",
          "type": "uint256"
        }
      ],
      "name": "tokenURIs",
      "outputs": [
        {
          "internalType": "string",
          "name": "",
          "type": "string"
        }
      ],
      "stateMutability": "view",
      "type": "function"
    },
    {
      "inputs": [
        {
          "internalType": "address",
          "name": "from",
          "type": "address"
        },
        {
          "internalType": "address",
          "name": "to",
          "type": "address"
        },
        {
          "internalType": "uint256",
          "name": "tokenId",
          "type": "uint256"
        }
      ],
      "name": "transferFrom",
      "outputs": [],
      "stateMutability": "nonpayable",
      "type": "function"
    },
    {
      "inputs": [
        {
          "internalType": "address",
          "name": "newOwner",
          "type": "address"
        }
      ],
      "name": "transferOwnership",
      "outputs": [],
      "stateMutability": "nonpayable",
      "type": "function"
    }
  ],
  "transactionHash": "0x1d8b25fea47c4f736672efe58ff9a66a87baba49a2a345b54544f5b6a33c3895",
  "args": [
    "Non-Fungible Lemon",
    "NFL"
  ],
  "numDeployments": 1,
  "solcInputHash": "65822252a2dc3d3e211f802d75105bc3",
  "bytecode": "0x60806040523480156200001157600080fd5b5060405162001ee238038062001ee2833981016040819052620000349162000237565b8151829082906200004d906000906020850190620000de565b50805162000063906001906020840190620000de565b505050620000806200007a6200008860201b60201c565b6200008c565b5050620002f1565b3390565b600680546001600160a01b038381166001600160a01b0319831681179093556040519116919082907f8be0079c531659141344cd1fd0a4f28419497f9722a3daafe3b4186f6b6457e090600090a35050565b828054620000ec906200029e565b90600052602060002090601f0160209004810192826200011057600085556200015b565b82601f106200012b57805160ff19168380011785556200015b565b828001600101855582156200015b579182015b828111156200015b5782518255916020019190600101906200013e565b50620001699291506200016d565b5090565b5b808211156200016957600081556001016200016e565b600082601f83011262000195578081fd5b81516001600160401b0380821115620001b257620001b2620002db565b604051601f8301601f19908116603f01168101908282118183101715620001dd57620001dd620002db565b81604052838152602092508683858801011115620001f9578485fd5b8491505b838210156200021c5785820183015181830184015290820190620001fd565b838211156200022d57848385830101525b9695505050505050565b600080604083850312156200024a578182fd5b82516001600160401b038082111562000261578384fd5b6200026f8683870162000184565b9350602085015191508082111562000285578283fd5b50620002948582860162000184565b9150509250929050565b600181811c90821680620002b357607f821691505b60208210811415620002d557634e487b7160e01b600052602260045260246000fd5b50919050565b634e487b7160e01b600052604160045260246000fd5b611be180620003016000396000f3fe608060405234801561001057600080fd5b506004361061014d5760003560e01c80636c8b703f116100c3578063a22cb4651161007c578063a22cb465146102f9578063b88d4fde1461030c578063c87b56dd1461031f578063cad96cca14610332578063e985e9c514610352578063f2fde38b1461038e57600080fd5b80636c8b703f1461027857806370a082311461028b578063715018a61461029e5780638924af74146102a65780638da5cb5b146102e057806395d89b41146102f157600080fd5b8063111fb47b11610115578063111fb47b146101e757806323b872dd146101fa5780632a55205a1461020d57806342842e0e1461023f57806358b4c6bb146102525780636352211e1461026557600080fd5b806301ffc9a71461015257806302bf3d561461017a57806306fdde0314610192578063081812fc146101a7578063095ea7b3146101d2575b600080fd5b6101656101603660046116e8565b6103a1565b60405190151581526020015b60405180910390f35b6007546101849081565b604051908152602001610171565b61019a6103e7565b6040516101719190611980565b6101ba6101b536600461185e565b610479565b6040516001600160a01b039091168152602001610171565b6101e56101e03660046116bd565b610513565b005b6101846101f5366004611720565b610629565b6101e56102083660046115cf565b61066f565b61022061021b366004611876565b6106a0565b604080516001600160a01b039093168352602083019190915201610171565b6101e561024d3660046115cf565b61079f565b610184610260366004611753565b6107ba565b6101ba61027336600461185e565b61085c565b61019a61028636600461185e565b6108d3565b61018461029936600461157b565b61096d565b6101e56109f4565b6102b96102b4366004611876565b610a5a565b604080516001600160a01b0390931683526001600160601b03909116602083015201610171565b6006546001600160a01b03166101ba565b61019a610aa3565b6101e561030736600461168c565b610ab2565b6101e561031a36600461160f565b610ac1565b61019a61032d36600461185e565b610af9565b61034561034036600461185e565b610c16565b604051610171919061191f565b610165610360366004611597565b6001600160a01b03918216600090815260056020908152604080832093909416825291909152205460ff1690565b6101e561039c36600461157b565b610ca5565b60006001600160e01b0319821663152a902d60e11b14806103d257506001600160e01b0319821663656cb66560e11b145b806103e157506103e182610d70565b92915050565b6060600080546103f690611afe565b80601f016020809104026020016040519081016040528092919081815260200182805461042290611afe565b801561046f5780601f106104445761010080835404028352916020019161046f565b820191906000526020600020905b81548152906001019060200180831161045257829003601f168201915b5050505050905090565b6000818152600260205260408120546001600160a01b03166104f75760405162461bcd60e51b815260206004820152602c60248201527f4552433732313a20617070726f76656420717565727920666f72206e6f6e657860448201526b34b9ba32b73a103a37b5b2b760a11b60648201526084015b60405180910390fd5b506000908152600460205260409020546001600160a01b031690565b600061051e8261085c565b9050806001600160a01b0316836001600160a01b0316141561058c5760405162461bcd60e51b815260206004820152602160248201527f4552433732313a20617070726f76616c20746f2063757272656e74206f776e656044820152603960f91b60648201526084016104ee565b336001600160a01b03821614806105a857506105a88133610360565b61061a5760405162461bcd60e51b815260206004820152603860248201527f4552433732313a20617070726f76652063616c6c6572206973206e6f74206f7760448201527f6e6572206e6f7220617070726f76656420666f7220616c6c000000000000000060648201526084016104ee565b6106248383610dc0565b505050565b60008061063560075490565b90506106413382610e2e565b6000818152600860209081526040909120845161066092860190611464565b506103e1600780546001019055565b6106793382610f70565b6106955760405162461bcd60e51b81526004016104ee906119e5565b610624838383611067565b6000828152600960205260408120548190806106c3576000809250925050610798565b6000805b828110156107375760008781526009602052604090208054829081106106fd57634e487b7160e01b600052603260045260246000fd5b60009182526020909120015461072390600160a01b90046001600160601b031683611a90565b91508061072f81611b39565b9150506106c7565b506000868152600960205260408120805490919061076557634e487b7160e01b600052603260045260246000fd5b6000918252602090912001546001600160a01b03166127106107878388611ac8565b6107919190611aa8565b9350935050505b9250929050565b61062483838360405180602001604052806000815250610ac1565b6000806107c684610629565b835190915060005b81811015610852576000838152600960205260409020855186908390811061080657634e487b7160e01b600052603260045260246000fd5b602090810291909101810151825460018181018555600094855293839020825192909301516001600160601b0316600160a01b026001600160a01b0390921691909117910155016107ce565b5090949350505050565b6000818152600260205260408120546001600160a01b0316806103e15760405162461bcd60e51b815260206004820152602960248201527f4552433732313a206f776e657220717565727920666f72206e6f6e657869737460448201526832b73a103a37b5b2b760b91b60648201526084016104ee565b600860205260009081526040902080546108ec90611afe565b80601f016020809104026020016040519081016040528092919081815260200182805461091890611afe565b80156109655780601f1061093a57610100808354040283529160200191610965565b820191906000526020600020905b81548152906001019060200180831161094857829003601f168201915b505050505081565b60006001600160a01b0382166109d85760405162461bcd60e51b815260206004820152602a60248201527f4552433732313a2062616c616e636520717565727920666f7220746865207a65604482015269726f206164647265737360b01b60648201526084016104ee565b506001600160a01b031660009081526003602052604090205490565b6006546001600160a01b03163314610a4e5760405162461bcd60e51b815260206004820181905260248201527f4f776e61626c653a2063616c6c6572206973206e6f7420746865206f776e657260448201526064016104ee565b610a586000611203565b565b60096020528160005260406000208181548110610a7657600080fd5b6000918252602090912001546001600160a01b0381169250600160a01b90046001600160601b0316905082565b6060600180546103f690611afe565b610abd338383611255565b5050565b610acb3383610f70565b610ae75760405162461bcd60e51b81526004016104ee906119e5565b610af384848484611324565b50505050565b6000818152600260205260409020546060906001600160a01b0316610b785760405162461bcd60e51b815260206004820152602f60248201527f4552433732314c656d6f6e6164653a2055524920717565727920666f72206e6f60448201526e3732bc34b9ba32b73a103a37b5b2b760891b60648201526084016104ee565b60008281526008602052604090208054610b9190611afe565b80601f0160208091040260200160405190810160405280929190818152602001828054610bbd90611afe565b8015610c0a5780601f10610bdf57610100808354040283529160200191610c0a565b820191906000526020600020905b815481529060010190602001808311610bed57829003601f168201915b50505050509050919050565b606060096000838152602001908152602001600020805480602002602001604051908101604052809291908181526020016000905b82821015610c9a57600084815260209081902060408051808201909152908401546001600160a01b0381168252600160a01b90046001600160601b031681830152825260019092019101610c4b565b505050509050919050565b6006546001600160a01b03163314610cff5760405162461bcd60e51b815260206004820181905260248201527f4f776e61626c653a2063616c6c6572206973206e6f7420746865206f776e657260448201526064016104ee565b6001600160a01b038116610d645760405162461bcd60e51b815260206004820152602660248201527f4f776e61626c653a206e6577206f776e657220697320746865207a65726f206160448201526564647265737360d01b60648201526084016104ee565b610d6d81611203565b50565b60006001600160e01b031982166380ac58cd60e01b1480610da157506001600160e01b03198216635b5e139f60e01b145b806103e157506301ffc9a760e01b6001600160e01b03198316146103e1565b600081815260046020526040902080546001600160a01b0319166001600160a01b0384169081179091558190610df58261085c565b6001600160a01b03167f8c5be1e5ebec7d5bd14f71427d1e84f3dd0314c0f7b2291e5b200ac8c7c3b92560405160405180910390a45050565b6001600160a01b038216610e845760405162461bcd60e51b815260206004820181905260248201527f4552433732313a206d696e7420746f20746865207a65726f206164647265737360448201526064016104ee565b6000818152600260205260409020546001600160a01b031615610ee95760405162461bcd60e51b815260206004820152601c60248201527f4552433732313a20746f6b656e20616c7265616479206d696e7465640000000060448201526064016104ee565b6001600160a01b0382166000908152600360205260408120805460019290610f12908490611a90565b909155505060008181526002602052604080822080546001600160a01b0319166001600160a01b03861690811790915590518392907fddf252ad1be2c89b69c2b068fc378daa952ba7f163c4a11628f55a4df523b3ef908290a45050565b6000818152600260205260408120546001600160a01b0316610fe95760405162461bcd60e51b815260206004820152602c60248201527f4552433732313a206f70657261746f7220717565727920666f72206e6f6e657860448201526b34b9ba32b73a103a37b5b2b760a11b60648201526084016104ee565b6000610ff48361085c565b9050806001600160a01b0316846001600160a01b0316148061103b57506001600160a01b0380821660009081526005602090815260408083209388168352929052205460ff165b8061105f5750836001600160a01b031661105484610479565b6001600160a01b0316145b949350505050565b826001600160a01b031661107a8261085c565b6001600160a01b0316146110de5760405162461bcd60e51b815260206004820152602560248201527f4552433732313a207472616e736665722066726f6d20696e636f72726563742060448201526437bbb732b960d91b60648201526084016104ee565b6001600160a01b0382166111405760405162461bcd60e51b8152602060048201526024808201527f4552433732313a207472616e7366657220746f20746865207a65726f206164646044820152637265737360e01b60648201526084016104ee565b61114b600082610dc0565b6001600160a01b0383166000908152600360205260408120805460019290611174908490611ae7565b90915550506001600160a01b03821660009081526003602052604081208054600192906111a2908490611a90565b909155505060008181526002602052604080822080546001600160a01b0319166001600160a01b0386811691821790925591518493918716917fddf252ad1be2c89b69c2b068fc378daa952ba7f163c4a11628f55a4df523b3ef91a4505050565b600680546001600160a01b038381166001600160a01b0319831681179093556040519116919082907f8be0079c531659141344cd1fd0a4f28419497f9722a3daafe3b4186f6b6457e090600090a35050565b816001600160a01b0316836001600160a01b031614156112b75760405162461bcd60e51b815260206004820152601960248201527f4552433732313a20617070726f766520746f2063616c6c65720000000000000060448201526064016104ee565b6001600160a01b03838116600081815260056020908152604080832094871680845294825291829020805460ff191686151590811790915591519182527f17307eab39ab6107e8899845ad3d59bd9653f200f220920489ca2b5937696c31910160405180910390a3505050565b61132f848484611067565b61133b84848484611357565b610af35760405162461bcd60e51b81526004016104ee90611993565b60006001600160a01b0384163b1561145957604051630a85bd0160e11b81526001600160a01b0385169063150b7a029061139b9033908990889088906004016118e2565b602060405180830381600087803b1580156113b557600080fd5b505af19250505080156113e5575060408051601f3d908101601f191682019092526113e291810190611704565b60015b61143f573d808015611413576040519150601f19603f3d011682016040523d82523d6000602084013e611418565b606091505b5080516114375760405162461bcd60e51b81526004016104ee90611993565b805181602001fd5b6001600160e01b031916630a85bd0160e11b14905061105f565b506001949350505050565b82805461147090611afe565b90600052602060002090601f01602090048101928261149257600085556114d8565b82601f106114ab57805160ff19168380011785556114d8565b828001600101855582156114d8579182015b828111156114d85782518255916020019190600101906114bd565b506114e49291506114e8565b5090565b5b808211156114e457600081556001016114e9565b600067ffffffffffffffff83111561151757611517611b6a565b61152a601f8401601f1916602001611a5f565b905082815283838301111561153e57600080fd5b828260208301376000602084830101529392505050565b600082601f830112611565578081fd5b611574838335602085016114fd565b9392505050565b60006020828403121561158c578081fd5b813561157481611b80565b600080604083850312156115a9578081fd5b82356115b481611b80565b915060208301356115c481611b80565b809150509250929050565b6000806000606084860312156115e3578081fd5b83356115ee81611b80565b925060208401356115fe81611b80565b929592945050506040919091013590565b60008060008060808587031215611624578081fd5b843561162f81611b80565b9350602085013561163f81611b80565b925060408501359150606085013567ffffffffffffffff811115611661578182fd5b8501601f81018713611671578182fd5b611680878235602084016114fd565b91505092959194509250565b6000806040838503121561169e578182fd5b82356116a981611b80565b9150602083013580151581146115c4578182fd5b600080604083850312156116cf578182fd5b82356116da81611b80565b946020939093013593505050565b6000602082840312156116f9578081fd5b813561157481611b95565b600060208284031215611715578081fd5b815161157481611b95565b600060208284031215611731578081fd5b813567ffffffffffffffff811115611747578182fd5b61105f84828501611555565b6000806040808486031215611766578283fd5b833567ffffffffffffffff8082111561177d578485fd5b61178987838801611555565b945060209150818601358181111561179f578485fd5b8601601f810188136117af578485fd5b8035828111156117c1576117c1611b6a565b6117cf848260051b01611a5f565b8181528481019350828501600683901b840186018b10156117ee578788fd5b8793505b8284101561184d5786818c031215611808578788fd5b611810611a36565b813561181b81611b80565b8152818701356001600160601b038116811461183557898afd5b818801528552938501936001939093019286016117f2565b508096505050505050509250929050565b60006020828403121561186f578081fd5b5035919050565b60008060408385031215611888578182fd5b50508035926020909101359150565b60008151808452815b818110156118bc576020818501810151868301820152016118a0565b818111156118cd5782602083870101525b50601f01601f19169290920160200192915050565b6001600160a01b038581168252841660208201526040810183905260806060820181905260009061191590830184611897565b9695505050505050565b602080825282518282018190526000919060409081850190868401855b8281101561197357815180516001600160a01b031685528601516001600160601b031686850152928401929085019060010161193c565b5091979650505050505050565b6020815260006115746020830184611897565b60208082526032908201527f4552433732313a207472616e7366657220746f206e6f6e20455243373231526560408201527131b2b4bb32b91034b6b83632b6b2b73a32b960711b606082015260800190565b60208082526031908201527f4552433732313a207472616e736665722063616c6c6572206973206e6f74206f6040820152701ddb995c881b9bdc88185c1c1c9bdd9959607a1b606082015260800190565b6040805190810167ffffffffffffffff81118282101715611a5957611a59611b6a565b60405290565b604051601f8201601f1916810167ffffffffffffffff81118282101715611a8857611a88611b6a565b604052919050565b60008219821115611aa357611aa3611b54565b500190565b600082611ac357634e487b7160e01b81526012600452602481fd5b500490565b6000816000190483118215151615611ae257611ae2611b54565b500290565b600082821015611af957611af9611b54565b500390565b600181811c90821680611b1257607f821691505b60208210811415611b3357634e487b7160e01b600052602260045260246000fd5b50919050565b6000600019821415611b4d57611b4d611b54565b5060010190565b634e487b7160e01b600052601160045260246000fd5b634e487b7160e01b600052604160045260246000fd5b6001600160a01b0381168114610d6d57600080fd5b6001600160e01b031981168114610d6d57600080fdfea2646970667358221220141cb049d2f5c0e07a93a3c83e3dfa74d065c167caba7691769c0bb5096b319a64736f6c63430008040033",
  "devdoc": {
    "kind": "dev",
    "methods": {
      "approve(address,uint256)": {
        "details": "See {IERC721-approve}."
      },
      "balanceOf(address)": {
        "details": "See {IERC721-balanceOf}."
      },
      "getApproved(uint256)": {
        "details": "See {IERC721-getApproved}."
      },
      "isApprovedForAll(address,address)": {
        "details": "See {IERC721-isApprovedForAll}."
      },
      "name()": {
        "details": "See {IERC721Metadata-name}."
      },
      "owner()": {
        "details": "Returns the address of the current owner."
      },
      "ownerOf(uint256)": {
        "details": "See {IERC721-ownerOf}."
      },
      "renounceOwnership()": {
        "details": "Leaves the contract without owner. It will not be possible to call `onlyOwner` functions anymore. Can only be called by the current owner. NOTE: Renouncing ownership will leave the contract without an owner, thereby removing any functionality that is only available to the owner."
      },
      "safeTransferFrom(address,address,uint256)": {
        "details": "See {IERC721-safeTransferFrom}."
      },
      "safeTransferFrom(address,address,uint256,bytes)": {
        "details": "See {IERC721-safeTransferFrom}."
      },
      "setApprovalForAll(address,bool)": {
        "details": "See {IERC721-setApprovalForAll}."
      },
      "supportsInterface(bytes4)": {
        "details": "See {IERC165-supportsInterface}."
      },
      "symbol()": {
        "details": "See {IERC721Metadata-symbol}."
      },
      "tokenURI(uint256)": {
        "details": "See {IERC721Metadata-tokenURI}."
      },
      "transferFrom(address,address,uint256)": {
        "details": "See {IERC721-transferFrom}."
      },
      "transferOwnership(address)": {
        "details": "Transfers ownership of the contract to a new account (`newOwner`). Can only be called by the current owner."
      }
    },
    "version": 1
  },
  "userdoc": {
    "kind": "user",
    "methods": {},
    "version": 1
  },
  "storageLayout": {
    "storage": [
      {
        "astId": 3538,
        "contract": "contracts/ERC721LemonadeV1.sol:ERC721LemonadeV1",
        "label": "_name",
        "offset": 0,
        "slot": "0",
        "type": "t_string_storage"
      },
      {
        "astId": 3540,
        "contract": "contracts/ERC721LemonadeV1.sol:ERC721LemonadeV1",
        "label": "_symbol",
        "offset": 0,
        "slot": "1",
        "type": "t_string_storage"
      },
      {
        "astId": 3544,
        "contract": "contracts/ERC721LemonadeV1.sol:ERC721LemonadeV1",
        "label": "_owners",
        "offset": 0,
        "slot": "2",
        "type": "t_mapping(t_uint256,t_address)"
      },
      {
        "astId": 3548,
        "contract": "contracts/ERC721LemonadeV1.sol:ERC721LemonadeV1",
        "label": "_balances",
        "offset": 0,
        "slot": "3",
        "type": "t_mapping(t_address,t_uint256)"
      },
      {
        "astId": 3552,
        "contract": "contracts/ERC721LemonadeV1.sol:ERC721LemonadeV1",
        "label": "_tokenApprovals",
        "offset": 0,
        "slot": "4",
        "type": "t_mapping(t_uint256,t_address)"
      },
      {
        "astId": 3558,
        "contract": "contracts/ERC721LemonadeV1.sol:ERC721LemonadeV1",
        "label": "_operatorApprovals",
        "offset": 0,
        "slot": "5",
        "type": "t_mapping(t_address,t_mapping(t_address,t_bool))"
      },
      {
        "astId": 2726,
        "contract": "contracts/ERC721LemonadeV1.sol:ERC721LemonadeV1",
        "label": "_owner",
        "offset": 0,
        "slot": "6",
        "type": "t_address"
      },
      {
        "astId": 6639,
        "contract": "contracts/ERC721LemonadeV1.sol:ERC721LemonadeV1",
        "label": "tokenIdTracker",
        "offset": 0,
        "slot": "7",
        "type": "t_struct(Counter)4909_storage"
      },
      {
        "astId": 6643,
        "contract": "contracts/ERC721LemonadeV1.sol:ERC721LemonadeV1",
        "label": "tokenURIs",
        "offset": 0,
        "slot": "8",
        "type": "t_mapping(t_uint256,t_string_storage)"
      },
      {
        "astId": 6649,
        "contract": "contracts/ERC721LemonadeV1.sol:ERC721LemonadeV1",
        "label": "royalties",
        "offset": 0,
        "slot": "9",
        "type": "t_mapping(t_uint256,t_array(t_struct(Part)9510_storage)dyn_storage)"
      }
    ],
    "types": {
      "t_address": {
        "encoding": "inplace",
        "label": "address",
        "numberOfBytes": "20"
      },
      "t_address_payable": {
        "encoding": "inplace",
        "label": "address payable",
        "numberOfBytes": "20"
      },
      "t_array(t_struct(Part)9510_storage)dyn_storage": {
        "base": "t_struct(Part)9510_storage",
        "encoding": "dynamic_array",
        "label": "struct LibPart.Part[]",
        "numberOfBytes": "32"
      },
      "t_bool": {
        "encoding": "inplace",
        "label": "bool",
        "numberOfBytes": "1"
      },
      "t_mapping(t_address,t_bool)": {
        "encoding": "mapping",
        "key": "t_address",
        "label": "mapping(address => bool)",
        "numberOfBytes": "32",
        "value": "t_bool"
      },
      "t_mapping(t_address,t_mapping(t_address,t_bool))": {
        "encoding": "mapping",
        "key": "t_address",
        "label": "mapping(address => mapping(address => bool))",
        "numberOfBytes": "32",
        "value": "t_mapping(t_address,t_bool)"
      },
      "t_mapping(t_address,t_uint256)": {
        "encoding": "mapping",
        "key": "t_address",
        "label": "mapping(address => uint256)",
        "numberOfBytes": "32",
        "value": "t_uint256"
      },
      "t_mapping(t_uint256,t_address)": {
        "encoding": "mapping",
        "key": "t_uint256",
        "label": "mapping(uint256 => address)",
        "numberOfBytes": "32",
        "value": "t_address"
      },
      "t_mapping(t_uint256,t_array(t_struct(Part)9510_storage)dyn_storage)": {
        "encoding": "mapping",
        "key": "t_uint256",
        "label": "mapping(uint256 => struct LibPart.Part[])",
        "numberOfBytes": "32",
        "value": "t_array(t_struct(Part)9510_storage)dyn_storage"
      },
      "t_mapping(t_uint256,t_string_storage)": {
        "encoding": "mapping",
        "key": "t_uint256",
        "label": "mapping(uint256 => string)",
        "numberOfBytes": "32",
        "value": "t_string_storage"
      },
      "t_string_storage": {
        "encoding": "bytes",
        "label": "string",
        "numberOfBytes": "32"
      },
      "t_struct(Counter)4909_storage": {
        "encoding": "inplace",
        "label": "struct Counters.Counter",
        "members": [
          {
            "astId": 4908,
            "contract": "contracts/ERC721LemonadeV1.sol:ERC721LemonadeV1",
            "label": "_value",
            "offset": 0,
            "slot": "0",
            "type": "t_uint256"
          }
        ],
        "numberOfBytes": "32"
      },
      "t_struct(Part)9510_storage": {
        "encoding": "inplace",
        "label": "struct LibPart.Part",
        "members": [
          {
            "astId": 9507,
            "contract": "contracts/ERC721LemonadeV1.sol:ERC721LemonadeV1",
            "label": "account",
            "offset": 0,
            "slot": "0",
            "type": "t_address_payable"
          },
          {
            "astId": 9509,
            "contract": "contracts/ERC721LemonadeV1.sol:ERC721LemonadeV1",
            "label": "value",
            "offset": 20,
            "slot": "0",
            "type": "t_uint96"
          }
        ],
        "numberOfBytes": "32"
      },
      "t_uint256": {
        "encoding": "inplace",
        "label": "uint256",
        "numberOfBytes": "32"
      },
      "t_uint96": {
        "encoding": "inplace",
        "label": "uint96",
        "numberOfBytes": "12"
      }
    }
  }
}