{
  "address": "0xdE75f41A64701160482f26C8fadD745e455990BA",
  "abi": [
    {
      "inputs": [
        {
          "internalType": "string",
          "name": "name",
          "type": "string"
        },
        {
          "internalType": "string",
          "name": "symbol",
          "type": "string"
        }
      ],
      "stateMutability": "nonpayable",
      "type": "constructor"
    },
    {
      "anonymous": false,
      "inputs": [
        {
          "indexed": true,
          "internalType": "address",
          "name": "owner",
          "type": "address"
        },
        {
          "indexed": true,
          "internalType": "address",
          "name": "approved",
          "type": "address"
        },
        {
          "indexed": true,
          "internalType": "uint256",
          "name": "tokenId",
          "type": "uint256"
        }
      ],
      "name": "Approval",
      "type": "event"
    },
    {
      "anonymous": false,
      "inputs": [
        {
          "indexed": true,
          "internalType": "address",
          "name": "owner",
          "type": "address"
        },
        {
          "indexed": true,
          "internalType": "address",
          "name": "operator",
          "type": "address"
        },
        {
          "indexed": false,
          "internalType": "bool",
          "name": "approved",
          "type": "bool"
        }
      ],
      "name": "ApprovalForAll",
      "type": "event"
    },
    {
      "anonymous": false,
      "inputs": [
        {
          "indexed": true,
          "internalType": "address",
          "name": "previousOwner",
          "type": "address"
        },
        {
          "indexed": true,
          "internalType": "address",
          "name": "newOwner",
          "type": "address"
        }
      ],
      "name": "OwnershipTransferred",
      "type": "event"
    },
    {
      "anonymous": false,
      "inputs": [
        {
          "indexed": true,
          "internalType": "address",
          "name": "from",
          "type": "address"
        },
        {
          "indexed": true,
          "internalType": "address",
          "name": "to",
          "type": "address"
        },
        {
          "indexed": true,
          "internalType": "uint256",
          "name": "tokenId",
          "type": "uint256"
        }
      ],
      "name": "Transfer",
      "type": "event"
    },
    {
      "inputs": [
        {
          "internalType": "address",
          "name": "to",
          "type": "address"
        },
        {
          "internalType": "uint256",
          "name": "tokenId",
          "type": "uint256"
        }
      ],
      "name": "approve",
      "outputs": [],
      "stateMutability": "nonpayable",
      "type": "function"
    },
    {
      "inputs": [
        {
          "internalType": "address",
          "name": "owner",
          "type": "address"
        }
      ],
      "name": "balanceOf",
      "outputs": [
        {
          "internalType": "uint256",
          "name": "",
          "type": "uint256"
        }
      ],
      "stateMutability": "view",
      "type": "function"
    },
    {
      "inputs": [
        {
          "internalType": "uint256",
          "name": "tokenId",
          "type": "uint256"
        }
      ],
      "name": "getApproved",
      "outputs": [
        {
          "internalType": "address",
          "name": "",
          "type": "address"
        }
      ],
      "stateMutability": "view",
      "type": "function"
    },
    {
      "inputs": [
        {
          "internalType": "uint256",
          "name": "tokenId",
          "type": "uint256"
        }
      ],
      "name": "getRaribleV2Royalties",
      "outputs": [
        {
          "components": [
            {
              "internalType": "address payable",
              "name": "account",
              "type": "address"
            },
            {
              "internalType": "uint96",
              "name": "value",
              "type": "uint96"
            }
          ],
          "internalType": "struct LibPart.Part[]",
          "name": "",
          "type": "tuple[]"
        }
      ],
      "stateMutability": "view",
      "type": "function"
    },
    {
      "inputs": [
        {
          "internalType": "address",
          "name": "owner",
          "type": "address"
        },
        {
          "internalType": "address",
          "name": "operator",
          "type": "address"
        }
      ],
      "name": "isApprovedForAll",
      "outputs": [
        {
          "internalType": "bool",
          "name": "",
          "type": "bool"
        }
      ],
      "stateMutability": "view",
      "type": "function"
    },
    {
      "inputs": [
        {
          "internalType": "string",
          "name": "tokenURI_",
          "type": "string"
        }
      ],
      "name": "mintToCaller",
      "outputs": [
        {
          "internalType": "uint256",
          "name": "",
          "type": "uint256"
        }
      ],
      "stateMutability": "nonpayable",
      "type": "function"
    },
    {
      "inputs": [
        {
          "internalType": "string",
          "name": "tokenURI_",
          "type": "string"
        },
        {
          "components": [
            {
              "internalType": "address payable",
              "name": "account",
              "type": "address"
            },
            {
              "internalType": "uint96",
              "name": "value",
              "type": "uint96"
            }
          ],
          "internalType": "struct LibPart.Part[]",
          "name": "royalties_",
          "type": "tuple[]"
        }
      ],
      "name": "mintToCallerWithRoyalty",
      "outputs": [
        {
          "internalType": "uint256",
          "name": "",
          "type": "uint256"
        }
      ],
      "stateMutability": "nonpayable",
      "type": "function"
    },
    {
      "inputs": [],
      "name": "name",
      "outputs": [
        {
          "internalType": "string",
          "name": "",
          "type": "string"
        }
      ],
      "stateMutability": "view",
      "type": "function"
    },
    {
      "inputs": [],
      "name": "owner",
      "outputs": [
        {
          "internalType": "address",
          "name": "",
          "type": "address"
        }
      ],
      "stateMutability": "view",
      "type": "function"
    },
    {
      "inputs": [
        {
          "internalType": "uint256",
          "name": "tokenId",
          "type": "uint256"
        }
      ],
      "name": "ownerOf",
      "outputs": [
        {
          "internalType": "address",
          "name": "",
          "type": "address"
        }
      ],
      "stateMutability": "view",
      "type": "function"
    },
    {
      "inputs": [],
      "name": "renounceOwnership",
      "outputs": [],
      "stateMutability": "nonpayable",
      "type": "function"
    },
    {
      "inputs": [
        {
          "internalType": "uint256",
          "name": "",
          "type": "uint256"
        },
        {
          "internalType": "uint256",
          "name": "",
          "type": "uint256"
        }
      ],
      "name": "royalties",
      "outputs": [
        {
          "internalType": "address payable",
          "name": "account",
          "type": "address"
        },
        {
          "internalType": "uint96",
          "name": "value",
          "type": "uint96"
        }
      ],
      "stateMutability": "view",
      "type": "function"
    },
    {
      "inputs": [
        {
          "internalType": "uint256",
          "name": "tokenId",
          "type": "uint256"
        },
        {
          "internalType": "uint256",
          "name": "price",
          "type": "uint256"
        }
      ],
      "name": "royaltyInfo",
      "outputs": [
        {
          "internalType": "address",
          "name": "receiver",
          "type": "address"
        },
        {
          "internalType": "uint256",
          "name": "royaltyAmount",
          "type": "uint256"
        }
      ],
      "stateMutability": "view",
      "type": "function"
    },
    {
      "inputs": [
        {
          "internalType": "address",
          "name": "from",
          "type": "address"
        },
        {
          "internalType": "address",
          "name": "to",
          "type": "address"
        },
        {
          "internalType": "uint256",
          "name": "tokenId",
          "type": "uint256"
        }
      ],
      "name": "safeTransferFrom",
      "outputs": [],
      "stateMutability": "nonpayable",
      "type": "function"
    },
    {
      "inputs": [
        {
          "internalType": "address",
          "name": "from",
          "type": "address"
        },
        {
          "internalType": "address",
          "name": "to",
          "type": "address"
        },
        {
          "internalType": "uint256",
          "name": "tokenId",
          "type": "uint256"
        },
        {
          "internalType": "bytes",
          "name": "data",
          "type": "bytes"
        }
      ],
      "name": "safeTransferFrom",
      "outputs": [],
      "stateMutability": "nonpayable",
      "type": "function"
    },
    {
      "inputs": [
        {
          "internalType": "address",
          "name": "operator",
          "type": "address"
        },
        {
          "internalType": "bool",
          "name": "approved",
          "type": "bool"
        }
      ],
      "name": "setApprovalForAll",
      "outputs": [],
      "stateMutability": "nonpayable",
      "type": "function"
    },
    {
      "inputs": [
        {
          "internalType": "bytes4",
          "name": "interfaceId",
          "type": "bytes4"
        }
      ],
      "name": "supportsInterface",
      "outputs": [
        {
          "internalType": "bool",
          "name": "",
          "type": "bool"
        }
      ],
      "stateMutability": "view",
      "type": "function"
    },
    {
      "inputs": [],
      "name": "symbol",
      "outputs": [
        {
          "internalType": "string",
          "name": "",
          "type": "string"
        }
      ],
      "stateMutability": "view",
      "type": "function"
    },
    {
      "inputs": [],
      "name": "tokenIdTracker",
      "outputs": [
        {
          "internalType": "uint256",
          "name": "_value",
          "type": "uint256"
        }
      ],
      "stateMutability": "view",
      "type": "function"
    },
    {
      "inputs": [
        {
          "internalType": "uint256",
          "name": "tokenId",
          "type": "uint256"
        }
      ],
      "name": "tokenURI",
      "outputs": [
        {
          "internalType": "string",
          "name": "",
          "type": "string"
        }
      ],
      "stateMutability": "view",
      "type": "function"
    },
    {
      "inputs": [
        {
          "internalType": "uint256",
          "name": "",
          "type": "uint256"
        }
      ],
      "name": "tokenURIs",
      "outputs": [
        {
          "internalType": "string",
          "name": "",
          "type": "string"
        }
      ],
      "stateMutability": "view",
      "type": "function"
    },
    {
      "inputs": [
        {
          "internalType": "address",
          "name": "from",
          "type": "address"
        },
        {
          "internalType": "address",
          "name": "to",
          "type": "address"
        },
        {
          "internalType": "uint256",
          "name": "tokenId",
          "type": "uint256"
        }
      ],
      "name": "transferFrom",
      "outputs": [],
      "stateMutability": "nonpayable",
      "type": "function"
    },
    {
      "inputs": [
        {
          "internalType": "address",
          "name": "newOwner",
          "type": "address"
        }
      ],
      "name": "transferOwnership",
      "outputs": [],
      "stateMutability": "nonpayable",
      "type": "function"
    }
  ],
  "transactionHash": "0x712f0f53dc44b4c6ee48bcdf30919434bb2b87ffff5efb60dc4414928697930a",
  "args": [
    "Non-Fungible Lemon",
    "NFL"
  ],
  "numDeployments": 1,
  "solcInputHash": "696da32c9e80d7de8ba64b798ee35630",
  "bytecode": "0x60806040523480156200001157600080fd5b5060405162001e3438038062001e34833981016040819052620000349162000237565b8151829082906200004d906000906020850190620000de565b50805162000063906001906020840190620000de565b505050620000806200007a6200008860201b60201c565b6200008c565b5050620002f1565b3390565b600680546001600160a01b038381166001600160a01b0319831681179093556040519116919082907f8be0079c531659141344cd1fd0a4f28419497f9722a3daafe3b4186f6b6457e090600090a35050565b828054620000ec906200029e565b90600052602060002090601f0160209004810192826200011057600085556200015b565b82601f106200012b57805160ff19168380011785556200015b565b828001600101855582156200015b579182015b828111156200015b5782518255916020019190600101906200013e565b50620001699291506200016d565b5090565b5b808211156200016957600081556001016200016e565b600082601f83011262000195578081fd5b81516001600160401b0380821115620001b257620001b2620002db565b604051601f8301601f19908116603f01168101908282118183101715620001dd57620001dd620002db565b81604052838152602092508683858801011115620001f9578485fd5b8491505b838210156200021c5785820183015181830184015290820190620001fd565b838211156200022d57848385830101525b9695505050505050565b600080604083850312156200024a578182fd5b82516001600160401b038082111562000261578384fd5b6200026f8683870162000184565b9350602085015191508082111562000285578283fd5b50620002948582860162000184565b9150509250929050565b600181811c90821680620002b357607f821691505b60208210811415620002d557634e487b7160e01b600052602260045260246000fd5b50919050565b634e487b7160e01b600052604160045260246000fd5b611b3380620003016000396000f3fe608060405234801561001057600080fd5b506004361061014d5760003560e01c80636c8b703f116100c3578063a22cb4651161007c578063a22cb465146102f9578063b88d4fde1461030c578063c87b56dd1461031f578063cad96cca14610332578063e985e9c514610352578063f2fde38b1461038e57600080fd5b80636c8b703f1461027857806370a082311461028b578063715018a61461029e5780638924af74146102a65780638da5cb5b146102e057806395d89b41146102f157600080fd5b8063111fb47b11610115578063111fb47b146101e757806323b872dd146101fa5780632a55205a1461020d57806342842e0e1461023f57806358b4c6bb146102525780636352211e1461026557600080fd5b806301ffc9a71461015257806302bf3d561461017a57806306fdde0314610192578063081812fc146101a7578063095ea7b3146101d2575b600080fd5b610165610160366004611610565b6103a1565b60405190151581526020015b60405180910390f35b6007546101849081565b604051908152602001610171565b61019a6103e7565b60405161017191906118a8565b6101ba6101b5366004611786565b610479565b6040516001600160a01b039091168152602001610171565b6101e56101e03660046115e5565b6104a0565b005b6101846101f5366004611648565b6105bb565b6101e56102083660046114f7565b610601565b61022061021b36600461179e565b610632565b604080516001600160a01b039093168352602083019190915201610171565b6101e561024d3660046114f7565b610731565b61018461026036600461167b565b61074c565b6101ba610273366004611786565b6107ee565b61019a610286366004611786565b61084e565b6101846102993660046114a3565b6108e8565b6101e561096e565b6102b96102b436600461179e565b610982565b604080516001600160a01b0390931683526001600160601b03909116602083015201610171565b6006546001600160a01b03166101ba565b61019a6109cb565b6101e56103073660046115b4565b6109da565b6101e561031a366004611537565b6109e9565b61019a61032d366004611786565b610a21565b610345610340366004611786565b610b3e565b6040516101719190611847565b6101656103603660046114bf565b6001600160a01b03918216600090815260056020908152604080832093909416825291909152205460ff1690565b6101e561039c3660046114a3565b610bcd565b60006001600160e01b0319821663152a902d60e11b14806103d257506001600160e01b0319821663656cb66560e11b145b806103e157506103e182610c46565b92915050565b6060600080546103f690611a50565b80601f016020809104026020016040519081016040528092919081815260200182805461042290611a50565b801561046f5780601f106104445761010080835404028352916020019161046f565b820191906000526020600020905b81548152906001019060200180831161045257829003601f168201915b5050505050905090565b600061048482610c96565b506000908152600460205260409020546001600160a01b031690565b60006104ab826107ee565b9050806001600160a01b0316836001600160a01b0316141561051e5760405162461bcd60e51b815260206004820152602160248201527f4552433732313a20617070726f76616c20746f2063757272656e74206f776e656044820152603960f91b60648201526084015b60405180910390fd5b336001600160a01b038216148061053a575061053a8133610360565b6105ac5760405162461bcd60e51b815260206004820152603d60248201527f4552433732313a20617070726f76652063616c6c6572206973206e6f7420746f60448201527f6b656e206f776e6572206f7220617070726f76656420666f7220616c6c0000006064820152608401610515565b6105b68383610cf5565b505050565b6000806105c760075490565b90506105d33382610d63565b600081815260086020908152604090912084516105f29286019061138c565b506103e1600780546001019055565b61060b3382610eee565b6106275760405162461bcd60e51b8152600401610515906118bb565b6105b6838383610f6d565b60008281526009602052604081205481908061065557600080925092505061072a565b6000805b828110156106c957600087815260096020526040902080548290811061068f57634e487b7160e01b600052603260045260246000fd5b6000918252602090912001546106b590600160a01b90046001600160601b0316836119f9565b9150806106c181611a8b565b915050610659565b50600086815260096020526040812080549091906106f757634e487b7160e01b600052603260045260246000fd5b6000918252602090912001546001600160a01b03166127106107198388611a31565b6107239190611a11565b9350935050505b9250929050565b6105b6838383604051806020016040528060008152506109e9565b600080610758846105bb565b835190915060005b818110156107e4576000838152600960205260409020855186908390811061079857634e487b7160e01b600052603260045260246000fd5b602090810291909101810151825460018181018555600094855293839020825192909301516001600160601b0316600160a01b026001600160a01b039092169190911791015501610760565b5090949350505050565b6000818152600260205260408120546001600160a01b0316806103e15760405162461bcd60e51b8152602060048201526018602482015277115490cdcc8c4e881a5b9d985b1a59081d1bdad95b88125160421b6044820152606401610515565b6008602052600090815260409020805461086790611a50565b80601f016020809104026020016040519081016040528092919081815260200182805461089390611a50565b80156108e05780601f106108b5576101008083540402835291602001916108e0565b820191906000526020600020905b8154815290600101906020018083116108c357829003601f168201915b505050505081565b60006001600160a01b0382166109525760405162461bcd60e51b815260206004820152602960248201527f4552433732313a2061646472657373207a65726f206973206e6f7420612076616044820152683634b21037bbb732b960b91b6064820152608401610515565b506001600160a01b031660009081526003602052604090205490565b6109766110d1565b610980600061112b565b565b6009602052816000526040600020818154811061099e57600080fd5b6000918252602090912001546001600160a01b0381169250600160a01b90046001600160601b0316905082565b6060600180546103f690611a50565b6109e533838361117d565b5050565b6109f33383610eee565b610a0f5760405162461bcd60e51b8152600401610515906118bb565b610a1b8484848461124c565b50505050565b6000818152600260205260409020546060906001600160a01b0316610aa05760405162461bcd60e51b815260206004820152602f60248201527f4552433732314c656d6f6e6164653a2055524920717565727920666f72206e6f60448201526e3732bc34b9ba32b73a103a37b5b2b760891b6064820152608401610515565b60008281526008602052604090208054610ab990611a50565b80601f0160208091040260200160405190810160405280929190818152602001828054610ae590611a50565b8015610b325780601f10610b0757610100808354040283529160200191610b32565b820191906000526020600020905b815481529060010190602001808311610b1557829003601f168201915b50505050509050919050565b606060096000838152602001908152602001600020805480602002602001604051908101604052809291908181526020016000905b82821015610bc257600084815260209081902060408051808201909152908401546001600160a01b0381168252600160a01b90046001600160601b031681830152825260019092019101610b73565b505050509050919050565b610bd56110d1565b6001600160a01b038116610c3a5760405162461bcd60e51b815260206004820152602660248201527f4f776e61626c653a206e6577206f776e657220697320746865207a65726f206160448201526564647265737360d01b6064820152608401610515565b610c438161112b565b50565b60006001600160e01b031982166380ac58cd60e01b1480610c7757506001600160e01b03198216635b5e139f60e01b145b806103e157506301ffc9a760e01b6001600160e01b03198316146103e1565b6000818152600260205260409020546001600160a01b0316610c435760405162461bcd60e51b8152602060048201526018602482015277115490cdcc8c4e881a5b9d985b1a59081d1bdad95b88125160421b6044820152606401610515565b600081815260046020526040902080546001600160a01b0319166001600160a01b0384169081179091558190610d2a826107ee565b6001600160a01b03167f8c5be1e5ebec7d5bd14f71427d1e84f3dd0314c0f7b2291e5b200ac8c7c3b92560405160405180910390a45050565b6001600160a01b038216610db95760405162461bcd60e51b815260206004820181905260248201527f4552433732313a206d696e7420746f20746865207a65726f20616464726573736044820152606401610515565b6000818152600260205260409020546001600160a01b031615610e1e5760405162461bcd60e51b815260206004820152601c60248201527f4552433732313a20746f6b656e20616c7265616479206d696e746564000000006044820152606401610515565b6000818152600260205260409020546001600160a01b031615610e835760405162461bcd60e51b815260206004820152601c60248201527f4552433732313a20746f6b656e20616c7265616479206d696e746564000000006044820152606401610515565b6001600160a01b038216600081815260036020908152604080832080546001019055848352600290915280822080546001600160a01b0319168417905551839291907fddf252ad1be2c89b69c2b068fc378daa952ba7f163c4a11628f55a4df523b3ef908290a45050565b600080610efa836107ee565b9050806001600160a01b0316846001600160a01b03161480610f4157506001600160a01b0380821660009081526005602090815260408083209388168352929052205460ff165b80610f655750836001600160a01b0316610f5a84610479565b6001600160a01b0316145b949350505050565b826001600160a01b0316610f80826107ee565b6001600160a01b031614610fa65760405162461bcd60e51b81526004016105159061195a565b6001600160a01b0382166110085760405162461bcd60e51b8152602060048201526024808201527f4552433732313a207472616e7366657220746f20746865207a65726f206164646044820152637265737360e01b6064820152608401610515565b826001600160a01b031661101b826107ee565b6001600160a01b0316146110415760405162461bcd60e51b81526004016105159061195a565b600081815260046020908152604080832080546001600160a01b03199081169091556001600160a01b0387811680865260038552838620805460001901905590871680865283862080546001019055868652600290945282852080549092168417909155905184937fddf252ad1be2c89b69c2b068fc378daa952ba7f163c4a11628f55a4df523b3ef91a4505050565b6006546001600160a01b031633146109805760405162461bcd60e51b815260206004820181905260248201527f4f776e61626c653a2063616c6c6572206973206e6f7420746865206f776e65726044820152606401610515565b600680546001600160a01b038381166001600160a01b0319831681179093556040519116919082907f8be0079c531659141344cd1fd0a4f28419497f9722a3daafe3b4186f6b6457e090600090a35050565b816001600160a01b0316836001600160a01b031614156111df5760405162461bcd60e51b815260206004820152601960248201527f4552433732313a20617070726f766520746f2063616c6c6572000000000000006044820152606401610515565b6001600160a01b03838116600081815260056020908152604080832094871680845294825291829020805460ff191686151590811790915591519182527f17307eab39ab6107e8899845ad3d59bd9653f200f220920489ca2b5937696c31910160405180910390a3505050565b611257848484610f6d565b6112638484848461127f565b610a1b5760405162461bcd60e51b815260040161051590611908565b60006001600160a01b0384163b1561138157604051630a85bd0160e11b81526001600160a01b0385169063150b7a02906112c390339089908890889060040161180a565b602060405180830381600087803b1580156112dd57600080fd5b505af192505050801561130d575060408051601f3d908101601f1916820190925261130a9181019061162c565b60015b611367573d80801561133b576040519150601f19603f3d011682016040523d82523d6000602084013e611340565b606091505b50805161135f5760405162461bcd60e51b815260040161051590611908565b805181602001fd5b6001600160e01b031916630a85bd0160e11b149050610f65565b506001949350505050565b82805461139890611a50565b90600052602060002090601f0160209004810192826113ba5760008555611400565b82601f106113d357805160ff1916838001178555611400565b82800160010185558215611400579182015b828111156114005782518255916020019190600101906113e5565b5061140c929150611410565b5090565b5b8082111561140c5760008155600101611411565b600067ffffffffffffffff83111561143f5761143f611abc565b611452601f8401601f19166020016119c8565b905082815283838301111561146657600080fd5b828260208301376000602084830101529392505050565b600082601f83011261148d578081fd5b61149c83833560208501611425565b9392505050565b6000602082840312156114b4578081fd5b813561149c81611ad2565b600080604083850312156114d1578081fd5b82356114dc81611ad2565b915060208301356114ec81611ad2565b809150509250929050565b60008060006060848603121561150b578081fd5b833561151681611ad2565b9250602084013561152681611ad2565b929592945050506040919091013590565b6000806000806080858703121561154c578081fd5b843561155781611ad2565b9350602085013561156781611ad2565b925060408501359150606085013567ffffffffffffffff811115611589578182fd5b8501601f81018713611599578182fd5b6115a887823560208401611425565b91505092959194509250565b600080604083850312156115c6578182fd5b82356115d181611ad2565b9150602083013580151581146114ec578182fd5b600080604083850312156115f7578182fd5b823561160281611ad2565b946020939093013593505050565b600060208284031215611621578081fd5b813561149c81611ae7565b60006020828403121561163d578081fd5b815161149c81611ae7565b600060208284031215611659578081fd5b813567ffffffffffffffff81111561166f578182fd5b610f658482850161147d565b600080604080848603121561168e578283fd5b833567ffffffffffffffff808211156116a5578485fd5b6116b18783880161147d565b94506020915081860135818111156116c7578485fd5b8601601f810188136116d7578485fd5b8035828111156116e9576116e9611abc565b6116f7848260051b016119c8565b8181528481019350828501600683901b840186018b1015611716578788fd5b8793505b828410156117755786818c031215611730578788fd5b61173861199f565b813561174381611ad2565b8152818701356001600160601b038116811461175d57898afd5b8188015285529385019360019390930192860161171a565b508096505050505050509250929050565b600060208284031215611797578081fd5b5035919050565b600080604083850312156117b0578182fd5b50508035926020909101359150565b60008151808452815b818110156117e4576020818501810151868301820152016117c8565b818111156117f55782602083870101525b50601f01601f19169290920160200192915050565b6001600160a01b038581168252841660208201526040810183905260806060820181905260009061183d908301846117bf565b9695505050505050565b602080825282518282018190526000919060409081850190868401855b8281101561189b57815180516001600160a01b031685528601516001600160601b0316868501529284019290850190600101611864565b5091979650505050505050565b60208152600061149c60208301846117bf565b6020808252602d908201527f4552433732313a2063616c6c6572206973206e6f7420746f6b656e206f776e6560408201526c1c881bdc88185c1c1c9bdd9959609a1b606082015260800190565b60208082526032908201527f4552433732313a207472616e7366657220746f206e6f6e20455243373231526560408201527131b2b4bb32b91034b6b83632b6b2b73a32b960711b606082015260800190565b60208082526025908201527f4552433732313a207472616e736665722066726f6d20696e636f72726563742060408201526437bbb732b960d91b606082015260800190565b6040805190810167ffffffffffffffff811182821017156119c2576119c2611abc565b60405290565b604051601f8201601f1916810167ffffffffffffffff811182821017156119f1576119f1611abc565b604052919050565b60008219821115611a0c57611a0c611aa6565b500190565b600082611a2c57634e487b7160e01b81526012600452602481fd5b500490565b6000816000190483118215151615611a4b57611a4b611aa6565b500290565b600181811c90821680611a6457607f821691505b60208210811415611a8557634e487b7160e01b600052602260045260246000fd5b50919050565b6000600019821415611a9f57611a9f611aa6565b5060010190565b634e487b7160e01b600052601160045260246000fd5b634e487b7160e01b600052604160045260246000fd5b6001600160a01b0381168114610c4357600080fd5b6001600160e01b031981168114610c4357600080fdfea2646970667358221220bd61b4fb0e01bac1ef862b23c7cd2fd95f087eeadb1dbb863da2f901724ced6064736f6c63430008040033",
  "devdoc": {
    "kind": "dev",
    "methods": {
      "approve(address,uint256)": {
        "details": "See {IERC721-approve}."
      },
      "balanceOf(address)": {
        "details": "See {IERC721-balanceOf}."
      },
      "getApproved(uint256)": {
        "details": "See {IERC721-getApproved}."
      },
      "isApprovedForAll(address,address)": {
        "details": "See {IERC721-isApprovedForAll}."
      },
      "name()": {
        "details": "See {IERC721Metadata-name}."
      },
      "owner()": {
        "details": "Returns the address of the current owner."
      },
      "ownerOf(uint256)": {
        "details": "See {IERC721-ownerOf}."
      },
      "renounceOwnership()": {
        "details": "Leaves the contract without owner. It will not be possible to call `onlyOwner` functions. Can only be called by the current owner. NOTE: Renouncing ownership will leave the contract without an owner, thereby disabling any functionality that is only available to the owner."
      },
      "safeTransferFrom(address,address,uint256)": {
        "details": "See {IERC721-safeTransferFrom}."
      },
      "safeTransferFrom(address,address,uint256,bytes)": {
        "details": "See {IERC721-safeTransferFrom}."
      },
      "setApprovalForAll(address,bool)": {
        "details": "See {IERC721-setApprovalForAll}."
      },
      "supportsInterface(bytes4)": {
        "details": "See {IERC165-supportsInterface}."
      },
      "symbol()": {
        "details": "See {IERC721Metadata-symbol}."
      },
      "tokenURI(uint256)": {
        "details": "See {IERC721Metadata-tokenURI}."
      },
      "transferFrom(address,address,uint256)": {
        "details": "See {IERC721-transferFrom}."
      },
      "transferOwnership(address)": {
        "details": "Transfers ownership of the contract to a new account (`newOwner`). Can only be called by the current owner."
      }
    },
    "version": 1
  },
  "userdoc": {
    "kind": "user",
    "methods": {},
    "version": 1
  },
  "storageLayout": {
    "storage": [
      {
        "astId": 9522,
        "contract": "contracts/ERC721LemonadeV1.sol:ERC721LemonadeV1",
        "label": "_name",
        "offset": 0,
        "slot": "0",
        "type": "t_string_storage"
      },
      {
        "astId": 9524,
        "contract": "contracts/ERC721LemonadeV1.sol:ERC721LemonadeV1",
        "label": "_symbol",
        "offset": 0,
        "slot": "1",
        "type": "t_string_storage"
      },
      {
        "astId": 9528,
        "contract": "contracts/ERC721LemonadeV1.sol:ERC721LemonadeV1",
        "label": "_owners",
        "offset": 0,
        "slot": "2",
        "type": "t_mapping(t_uint256,t_address)"
      },
      {
        "astId": 9532,
        "contract": "contracts/ERC721LemonadeV1.sol:ERC721LemonadeV1",
        "label": "_balances",
        "offset": 0,
        "slot": "3",
        "type": "t_mapping(t_address,t_uint256)"
      },
      {
        "astId": 9536,
        "contract": "contracts/ERC721LemonadeV1.sol:ERC721LemonadeV1",
        "label": "_tokenApprovals",
        "offset": 0,
        "slot": "4",
        "type": "t_mapping(t_uint256,t_address)"
      },
      {
        "astId": 9542,
        "contract": "contracts/ERC721LemonadeV1.sol:ERC721LemonadeV1",
        "label": "_operatorApprovals",
        "offset": 0,
        "slot": "5",
        "type": "t_mapping(t_address,t_mapping(t_address,t_bool))"
      },
      {
        "astId": 7255,
        "contract": "contracts/ERC721LemonadeV1.sol:ERC721LemonadeV1",
        "label": "_owner",
        "offset": 0,
        "slot": "6",
        "type": "t_address"
      },
      {
        "astId": 14206,
        "contract": "contracts/ERC721LemonadeV1.sol:ERC721LemonadeV1",
        "label": "tokenIdTracker",
        "offset": 0,
        "slot": "7",
        "type": "t_struct(Counter)10997_storage"
      },
      {
        "astId": 14210,
        "contract": "contracts/ERC721LemonadeV1.sol:ERC721LemonadeV1",
        "label": "tokenURIs",
        "offset": 0,
        "slot": "8",
        "type": "t_mapping(t_uint256,t_string_storage)"
      },
      {
        "astId": 14216,
        "contract": "contracts/ERC721LemonadeV1.sol:ERC721LemonadeV1",
        "label": "royalties",
        "offset": 0,
        "slot": "9",
        "type": "t_mapping(t_uint256,t_array(t_struct(Part)26487_storage)dyn_storage)"
      }
    ],
    "types": {
      "t_address": {
        "encoding": "inplace",
        "label": "address",
        "numberOfBytes": "20"
      },
      "t_address_payable": {
        "encoding": "inplace",
        "label": "address payable",
        "numberOfBytes": "20"
      },
      "t_array(t_struct(Part)26487_storage)dyn_storage": {
        "base": "t_struct(Part)26487_storage",
        "encoding": "dynamic_array",
        "label": "struct LibPart.Part[]",
        "numberOfBytes": "32"
      },
      "t_bool": {
        "encoding": "inplace",
        "label": "bool",
        "numberOfBytes": "1"
      },
      "t_mapping(t_address,t_bool)": {
        "encoding": "mapping",
        "key": "t_address",
        "label": "mapping(address => bool)",
        "numberOfBytes": "32",
        "value": "t_bool"
      },
      "t_mapping(t_address,t_mapping(t_address,t_bool))": {
        "encoding": "mapping",
        "key": "t_address",
        "label": "mapping(address => mapping(address => bool))",
        "numberOfBytes": "32",
        "value": "t_mapping(t_address,t_bool)"
      },
      "t_mapping(t_address,t_uint256)": {
        "encoding": "mapping",
        "key": "t_address",
        "label": "mapping(address => uint256)",
        "numberOfBytes": "32",
        "value": "t_uint256"
      },
      "t_mapping(t_uint256,t_address)": {
        "encoding": "mapping",
        "key": "t_uint256",
        "label": "mapping(uint256 => address)",
        "numberOfBytes": "32",
        "value": "t_address"
      },
      "t_mapping(t_uint256,t_array(t_struct(Part)26487_storage)dyn_storage)": {
        "encoding": "mapping",
        "key": "t_uint256",
        "label": "mapping(uint256 => struct LibPart.Part[])",
        "numberOfBytes": "32",
        "value": "t_array(t_struct(Part)26487_storage)dyn_storage"
      },
      "t_mapping(t_uint256,t_string_storage)": {
        "encoding": "mapping",
        "key": "t_uint256",
        "label": "mapping(uint256 => string)",
        "numberOfBytes": "32",
        "value": "t_string_storage"
      },
      "t_string_storage": {
        "encoding": "bytes",
        "label": "string",
        "numberOfBytes": "32"
      },
      "t_struct(Counter)10997_storage": {
        "encoding": "inplace",
        "label": "struct Counters.Counter",
        "members": [
          {
            "astId": 10996,
            "contract": "contracts/ERC721LemonadeV1.sol:ERC721LemonadeV1",
            "label": "_value",
            "offset": 0,
            "slot": "0",
            "type": "t_uint256"
          }
        ],
        "numberOfBytes": "32"
      },
      "t_struct(Part)26487_storage": {
        "encoding": "inplace",
        "label": "struct LibPart.Part",
        "members": [
          {
            "astId": 26484,
            "contract": "contracts/ERC721LemonadeV1.sol:ERC721LemonadeV1",
            "label": "account",
            "offset": 0,
            "slot": "0",
            "type": "t_address_payable"
          },
          {
            "astId": 26486,
            "contract": "contracts/ERC721LemonadeV1.sol:ERC721LemonadeV1",
            "label": "value",
            "offset": 20,
            "slot": "0",
            "type": "t_uint96"
          }
        ],
        "numberOfBytes": "32"
      },
      "t_uint256": {
        "encoding": "inplace",
        "label": "uint256",
        "numberOfBytes": "32"
      },
      "t_uint96": {
        "encoding": "inplace",
        "label": "uint96",
        "numberOfBytes": "12"
      }
    }
  }
}