{
  "address": "0x29b1aC5C0737Ddbe93e7F54780855deaD94ADa1D",
  "abi": [
    {
      "inputs": [],
      "name": "AmountMustBePositive",
      "type": "error"
    },
    {
      "inputs": [],
      "name": "InvalidDestination",
      "type": "error"
    },
    {
      "inputs": [],
      "name": "InvalidToken",
      "type": "error"
    },
    {
      "inputs": [],
      "name": "ReferenceAlreadyUsed",
      "type": "error"
    },
    {
      "anonymous": false,
      "inputs": [
        {
          "indexed": true,
          "internalType": "address",
          "name": "payer",
          "type": "address"
        },
        {
          "indexed": true,
          "internalType": "address",
          "name": "token",
          "type": "address"
        },
        {
          "indexed": true,
          "internalType": "address",
          "name": "destination",
          "type": "address"
        },
        {
          "indexed": false,
          "internalType": "uint256",
          "name": "amount",
          "type": "uint256"
        },
        {
          "indexed": false,
          "internalType": "bytes32",
          "name": "paymentRef",
          "type": "bytes32"
        }
      ],
      "name": "PaymentForwarded",
      "type": "event"
    },
    {
      "inputs": [
        {
          "internalType": "address",
          "name": "token",
          "type": "address"
        },
        {
          "internalType": "uint256",
          "name": "amount",
          "type": "uint256"
        },
        {
          "internalType": "address",
          "name": "destination",
          "type": "address"
        },
        {
          "internalType": "bytes32",
          "name": "paymentRef",
          "type": "bytes32"
        }
      ],
      "name": "pay",
      "outputs": [],
      "stateMutability": "nonpayable",
      "type": "function"
    },
    {
      "inputs": [
        {
          "internalType": "bytes32",
          "name": "",
          "type": "bytes32"
        }
      ],
      "name": "payments",
      "outputs": [
        {
          "internalType": "address",
          "name": "payer",
          "type": "address"
        },
        {
          "internalType": "address",
          "name": "token",
          "type": "address"
        },
        {
          "internalType": "uint256",
          "name": "amount",
          "type": "uint256"
        },
        {
          "internalType": "address",
          "name": "destination",
          "type": "address"
        }
      ],
      "stateMutability": "view",
      "type": "function"
    }
  ],
  "transactionHash": "0x7ddfb73479a739ec8cfdf70afe06234c40f312864280e27e708fc9420fb31763",
  "args": [],
  "numDeployments": 1,
  "solcInputHash": "e80f4b10012ae3ce69a2b96a441b18a4",
  "bytecode": "0x608060405234801561001057600080fd5b50610665806100206000396000f3fe608060405234801561001057600080fd5b50600436106100365760003560e01c80630716326d1461003b5780632e40c5b8146100b0575b600080fd5b61007d61004936600461059c565b60006020819052908152604090208054600182015460028301546003909301546001600160a01b0392831693918316921684565b604080516001600160a01b0395861681529385166020850152830191909152909116606082015260800160405180910390f35b6100c36100be366004610532565b6100c5565b005b6000818152602081905260409020546001600160a01b0316156100fa57604051624c4af360e01b815260040160405180910390fd5b6001600160a01b0384166101215760405163c1ab6dc160e01b815260040160405180910390fd5b8261013f57604051632e11316f60e11b815260040160405180910390fd5b6001600160a01b0382166101665760405163ac6b05f560e01b815260040160405180910390fd5b60408051608081018252338082526001600160a01b0387811660208085018281528587018a81528985166060880190815260008a81529384905297909220955186549085166001600160a01b03199182161787559051600187018054918616918316919091179055905160028601559451600390940180549490921693909416929092179091556101f99190848661024a565b60408051848152602081018390526001600160a01b03808516929087169133917f249cf87ffcc511560b39f9b1522fc0e5a4d9a9a971d874100378c39801f788fd910160405180910390a450505050565b604080516001600160a01b0385811660248301528416604482015260648082018490528251808303909101815260849091019091526020810180516001600160e01b03166323b872dd60e01b1790526102a49085906102aa565b50505050565b60006102ff826040518060400160405280602081526020017f5361666545524332303a206c6f772d6c6576656c2063616c6c206661696c6564815250856001600160a01b03166103899092919063ffffffff16565b90508051600014806103205750808060200190518101906103209190610575565b6103845760405162461bcd60e51b815260206004820152602a60248201527f5361666545524332303a204552433230206f7065726174696f6e20646964206e6044820152691bdd081cdd58d8d9595960b21b60648201526084015b60405180910390fd5b505050565b606061039884846000856103a0565b949350505050565b6060824710156104015760405162461bcd60e51b815260206004820152602660248201527f416464726573733a20696e73756666696369656e742062616c616e636520666f6044820152651c8818d85b1b60d21b606482015260840161037b565b600080866001600160a01b0316858760405161041d91906105b4565b60006040518083038185875af1925050503d806000811461045a576040519150601f19603f3d011682016040523d82523d6000602084013e61045f565b606091505b50915091506104708783838761047b565b979650505050505050565b606083156104e75782516104e0576001600160a01b0385163b6104e05760405162461bcd60e51b815260206004820152601d60248201527f416464726573733a2063616c6c20746f206e6f6e2d636f6e7472616374000000604482015260640161037b565b5081610398565b61039883838151156104fc5781518083602001fd5b8060405162461bcd60e51b815260040161037b91906105d0565b80356001600160a01b038116811461052d57600080fd5b919050565b60008060008060808587031215610547578384fd5b61055085610516565b93506020850135925061056560408601610516565b9396929550929360600135925050565b600060208284031215610586578081fd5b81518015158114610595578182fd5b9392505050565b6000602082840312156105ad578081fd5b5035919050565b600082516105c6818460208701610603565b9190910192915050565b60208152600082518060208401526105ef816040850160208701610603565b601f01601f19169190910160400192915050565b60005b8381101561061e578181015183820152602001610606565b838111156102a4575050600091015256fea2646970667358221220b4072a8b363832054f95c67030719d48b512f619c75db8a52d9a0dbada1e0ba664736f6c63430008040033",
  "devdoc": {
    "kind": "dev",
    "methods": {},
    "version": 1
  },
  "userdoc": {
    "kind": "user",
    "methods": {},
    "version": 1
  },
  "storageLayout": {
    "storage": [
      {
        "astId": 853,
        "contract": "contracts/payment/forward/LemonadeForwardPayment.sol:LemonadeForwardPayment",
        "label": "payments",
        "offset": 0,
        "slot": "0",
        "type": "t_mapping(t_bytes32,t_struct(PaymentInfo)836_storage)"
      }
    ],
    "types": {
      "t_address": {
        "encoding": "inplace",
        "label": "address",
        "numberOfBytes": "20"
      },
      "t_bytes32": {
        "encoding": "inplace",
        "label": "bytes32",
        "numberOfBytes": "32"
      },
      "t_mapping(t_bytes32,t_struct(PaymentInfo)836_storage)": {
        "encoding": "mapping",
        "key": "t_bytes32",
        "label": "mapping(bytes32 => struct LemonadeForwardPayment.PaymentInfo)",
        "numberOfBytes": "32",
        "value": "t_struct(PaymentInfo)836_storage"
      },
      "t_struct(PaymentInfo)836_storage": {
        "encoding": "inplace",
        "label": "struct LemonadeForwardPayment.PaymentInfo",
        "members": [
          {
            "astId": 829,
            "contract": "contracts/payment/forward/LemonadeForwardPayment.sol:LemonadeForwardPayment",
            "label": "payer",
            "offset": 0,
            "slot": "0",
            "type": "t_address"
          },
          {
            "astId": 831,
            "contract": "contracts/payment/forward/LemonadeForwardPayment.sol:LemonadeForwardPayment",
            "label": "token",
            "offset": 0,
            "slot": "1",
            "type": "t_address"
          },
          {
            "astId": 833,
            "contract": "contracts/payment/forward/LemonadeForwardPayment.sol:LemonadeForwardPayment",
            "label": "amount",
            "offset": 0,
            "slot": "2",
            "type": "t_uint256"
          },
          {
            "astId": 835,
            "contract": "contracts/payment/forward/LemonadeForwardPayment.sol:LemonadeForwardPayment",
            "label": "destination",
            "offset": 0,
            "slot": "3",
            "type": "t_address"
          }
        ],
        "numberOfBytes": "128"
      },
      "t_uint256": {
        "encoding": "inplace",
        "label": "uint256",
        "numberOfBytes": "32"
      }
    }
  }
}