{
  "address": "0x7202621766E4813de9777BBaFAeC60F2C5C2FC28",
  "abi": [
    {
      "inputs": [
        {
          "internalType": "string",
          "name": "name",
          "type": "string"
        },
        {
          "internalType": "string",
          "name": "symbol",
          "type": "string"
        },
        {
          "internalType": "address",
          "name": "proxyRegistryAddress",
          "type": "address"
        }
      ],
      "stateMutability": "nonpayable",
      "type": "constructor"
    },
    {
      "anonymous": false,
      "inputs": [
        {
          "indexed": true,
          "internalType": "address",
          "name": "owner",
          "type": "address"
        },
        {
          "indexed": true,
          "internalType": "address",
          "name": "approved",
          "type": "address"
        },
        {
          "indexed": true,
          "internalType": "uint256",
          "name": "tokenId",
          "type": "uint256"
        }
      ],
      "name": "Approval",
      "type": "event"
    },
    {
      "anonymous": false,
      "inputs": [
        {
          "indexed": true,
          "internalType": "address",
          "name": "owner",
          "type": "address"
        },
        {
          "indexed": true,
          "internalType": "address",
          "name": "operator",
          "type": "address"
        },
        {
          "indexed": false,
          "internalType": "bool",
          "name": "approved",
          "type": "bool"
        }
      ],
      "name": "ApprovalForAll",
      "type": "event"
    },
    {
      "anonymous": false,
      "inputs": [
        {
          "indexed": true,
          "internalType": "address",
          "name": "previousOwner",
          "type": "address"
        },
        {
          "indexed": true,
          "internalType": "address",
          "name": "newOwner",
          "type": "address"
        }
      ],
      "name": "OwnershipTransferred",
      "type": "event"
    },
    {
      "anonymous": false,
      "inputs": [
        {
          "indexed": false,
          "internalType": "uint256",
          "name": "tokenId",
          "type": "uint256"
        },
        {
          "components": [
            {
              "internalType": "address payable",
              "name": "account",
              "type": "address"
            },
            {
              "internalType": "uint96",
              "name": "value",
              "type": "uint96"
            }
          ],
          "indexed": false,
          "internalType": "struct LibPart.Part[]",
          "name": "royalties",
          "type": "tuple[]"
        }
      ],
      "name": "RoyaltiesSet",
      "type": "event"
    },
    {
      "anonymous": false,
      "inputs": [
        {
          "indexed": true,
          "internalType": "address",
          "name": "from",
          "type": "address"
        },
        {
          "indexed": true,
          "internalType": "address",
          "name": "to",
          "type": "address"
        },
        {
          "indexed": true,
          "internalType": "uint256",
          "name": "tokenId",
          "type": "uint256"
        }
      ],
      "name": "Transfer",
      "type": "event"
    },
    {
      "inputs": [
        {
          "internalType": "address",
          "name": "to",
          "type": "address"
        },
        {
          "internalType": "uint256",
          "name": "tokenId",
          "type": "uint256"
        }
      ],
      "name": "approve",
      "outputs": [],
      "stateMutability": "nonpayable",
      "type": "function"
    },
    {
      "inputs": [
        {
          "internalType": "address",
          "name": "owner",
          "type": "address"
        }
      ],
      "name": "balanceOf",
      "outputs": [
        {
          "internalType": "uint256",
          "name": "",
          "type": "uint256"
        }
      ],
      "stateMutability": "view",
      "type": "function"
    },
    {
      "inputs": [
        {
          "internalType": "uint256",
          "name": "tokenId",
          "type": "uint256"
        }
      ],
      "name": "getApproved",
      "outputs": [
        {
          "internalType": "address",
          "name": "",
          "type": "address"
        }
      ],
      "stateMutability": "view",
      "type": "function"
    },
    {
      "inputs": [
        {
          "internalType": "uint256",
          "name": "id",
          "type": "uint256"
        }
      ],
      "name": "getRaribleV2Royalties",
      "outputs": [
        {
          "components": [
            {
              "internalType": "address payable",
              "name": "account",
              "type": "address"
            },
            {
              "internalType": "uint96",
              "name": "value",
              "type": "uint96"
            }
          ],
          "internalType": "struct LibPart.Part[]",
          "name": "",
          "type": "tuple[]"
        }
      ],
      "stateMutability": "view",
      "type": "function"
    },
    {
      "inputs": [
        {
          "internalType": "address",
          "name": "owner",
          "type": "address"
        },
        {
          "internalType": "address",
          "name": "operator",
          "type": "address"
        }
      ],
      "name": "isApprovedForAll",
      "outputs": [
        {
          "internalType": "bool",
          "name": "",
          "type": "bool"
        }
      ],
      "stateMutability": "view",
      "type": "function"
    },
    {
      "inputs": [
        {
          "internalType": "string",
          "name": "tokenURI_",
          "type": "string"
        }
      ],
      "name": "mintToCaller",
      "outputs": [
        {
          "internalType": "uint256",
          "name": "",
          "type": "uint256"
        }
      ],
      "stateMutability": "nonpayable",
      "type": "function"
    },
    {
      "inputs": [
        {
          "internalType": "string",
          "name": "tokenURI_",
          "type": "string"
        },
        {
          "components": [
            {
              "internalType": "address payable",
              "name": "account",
              "type": "address"
            },
            {
              "internalType": "uint96",
              "name": "value",
              "type": "uint96"
            }
          ],
          "internalType": "struct LibPart.Part[]",
          "name": "royalties_",
          "type": "tuple[]"
        }
      ],
      "name": "mintToCallerWithRoyalty",
      "outputs": [
        {
          "internalType": "uint256",
          "name": "",
          "type": "uint256"
        }
      ],
      "stateMutability": "nonpayable",
      "type": "function"
    },
    {
      "inputs": [],
      "name": "name",
      "outputs": [
        {
          "internalType": "string",
          "name": "",
          "type": "string"
        }
      ],
      "stateMutability": "view",
      "type": "function"
    },
    {
      "inputs": [],
      "name": "owner",
      "outputs": [
        {
          "internalType": "address",
          "name": "",
          "type": "address"
        }
      ],
      "stateMutability": "view",
      "type": "function"
    },
    {
      "inputs": [
        {
          "internalType": "uint256",
          "name": "tokenId",
          "type": "uint256"
        }
      ],
      "name": "ownerOf",
      "outputs": [
        {
          "internalType": "address",
          "name": "",
          "type": "address"
        }
      ],
      "stateMutability": "view",
      "type": "function"
    },
    {
      "inputs": [],
      "name": "renounceOwnership",
      "outputs": [],
      "stateMutability": "nonpayable",
      "type": "function"
    },
    {
      "inputs": [
        {
          "internalType": "uint256",
          "name": "tokenId",
          "type": "uint256"
        },
        {
          "internalType": "uint256",
          "name": "price",
          "type": "uint256"
        }
      ],
      "name": "royaltyInfo",
      "outputs": [
        {
          "internalType": "address",
          "name": "receiver",
          "type": "address"
        },
        {
          "internalType": "uint256",
          "name": "royaltyAmount",
          "type": "uint256"
        }
      ],
      "stateMutability": "view",
      "type": "function"
    },
    {
      "inputs": [
        {
          "internalType": "address",
          "name": "from",
          "type": "address"
        },
        {
          "internalType": "address",
          "name": "to",
          "type": "address"
        },
        {
          "internalType": "uint256",
          "name": "tokenId",
          "type": "uint256"
        }
      ],
      "name": "safeTransferFrom",
      "outputs": [],
      "stateMutability": "nonpayable",
      "type": "function"
    },
    {
      "inputs": [
        {
          "internalType": "address",
          "name": "from",
          "type": "address"
        },
        {
          "internalType": "address",
          "name": "to",
          "type": "address"
        },
        {
          "internalType": "uint256",
          "name": "tokenId",
          "type": "uint256"
        },
        {
          "internalType": "bytes",
          "name": "_data",
          "type": "bytes"
        }
      ],
      "name": "safeTransferFrom",
      "outputs": [],
      "stateMutability": "nonpayable",
      "type": "function"
    },
    {
      "inputs": [
        {
          "internalType": "address",
          "name": "operator",
          "type": "address"
        },
        {
          "internalType": "bool",
          "name": "approved",
          "type": "bool"
        }
      ],
      "name": "setApprovalForAll",
      "outputs": [],
      "stateMutability": "nonpayable",
      "type": "function"
    },
    {
      "inputs": [
        {
          "internalType": "bytes4",
          "name": "interfaceId",
          "type": "bytes4"
        }
      ],
      "name": "supportsInterface",
      "outputs": [
        {
          "internalType": "bool",
          "name": "",
          "type": "bool"
        }
      ],
      "stateMutability": "view",
      "type": "function"
    },
    {
      "inputs": [],
      "name": "symbol",
      "outputs": [
        {
          "internalType": "string",
          "name": "",
          "type": "string"
        }
      ],
      "stateMutability": "view",
      "type": "function"
    },
    {
      "inputs": [
        {
          "internalType": "uint256",
          "name": "tokenId",
          "type": "uint256"
        }
      ],
      "name": "tokenURI",
      "outputs": [
        {
          "internalType": "string",
          "name": "",
          "type": "string"
        }
      ],
      "stateMutability": "view",
      "type": "function"
    },
    {
      "inputs": [
        {
          "internalType": "address",
          "name": "from",
          "type": "address"
        },
        {
          "internalType": "address",
          "name": "to",
          "type": "address"
        },
        {
          "internalType": "uint256",
          "name": "tokenId",
          "type": "uint256"
        }
      ],
      "name": "transferFrom",
      "outputs": [],
      "stateMutability": "nonpayable",
      "type": "function"
    },
    {
      "inputs": [
        {
          "internalType": "address",
          "name": "newOwner",
          "type": "address"
        }
      ],
      "name": "transferOwnership",
      "outputs": [],
      "stateMutability": "nonpayable",
      "type": "function"
    }
  ],
  "transactionHash": "0xd3f25266b31040d43e925408dcf72a33bef17a537f061ed2805400f24273e2d6",
  "args": [
    "Non-Fungible Lemon",
    "NFL",
    "0x1E525EEAF261cA41b809884CBDE9DD9E1619573A"
  ],
  "numDeployments": 1,
  "solcInputHash": "1a536ea601fc072aeca0eac96b52609a",
  "bytecode": "0x60806040523480156200001157600080fd5b50604051620020f4380380620020f483398101604081905262000034916200025d565b8282818181600090805190602001906200005092919062000104565b5080516200006690600190602084019062000104565b505050620000836200007d620000ae60201b60201c565b620000b2565b5050600a80546001600160a01b0319166001600160a01b039290921691909117905550620003399050565b3390565b600780546001600160a01b038381166001600160a01b0319831681179093556040519116919082907f8be0079c531659141344cd1fd0a4f28419497f9722a3daafe3b4186f6b6457e090600090a35050565b8280546200011290620002e6565b90600052602060002090601f01602090048101928262000136576000855562000181565b82601f106200015157805160ff191683800117855562000181565b8280016001018555821562000181579182015b828111156200018157825182559160200191906001019062000164565b506200018f92915062000193565b5090565b5b808211156200018f576000815560010162000194565b600082601f830112620001bb578081fd5b81516001600160401b0380821115620001d857620001d862000323565b604051601f8301601f19908116603f0116810190828211818310171562000203576200020362000323565b816040528381526020925086838588010111156200021f578485fd5b8491505b8382101562000242578582018301518183018401529082019062000223565b838211156200025357848385830101525b9695505050505050565b60008060006060848603121562000272578283fd5b83516001600160401b038082111562000289578485fd5b6200029787838801620001aa565b94506020860151915080821115620002ad578384fd5b50620002bc86828701620001aa565b604086015190935090506001600160a01b0381168114620002db578182fd5b809150509250925092565b600181811c90821680620002fb57607f821691505b602082108114156200031d57634e487b7160e01b600052602260045260246000fd5b50919050565b634e487b7160e01b600052604160045260246000fd5b611dab80620003496000396000f3fe608060405234801561001057600080fd5b506004361061012c5760003560e01c806370a08231116100ad578063b88d4fde11610071578063b88d4fde14610294578063c87b56dd146102a7578063cad96cca146102ba578063e985e9c5146102da578063f2fde38b146102ed57600080fd5b806370a082311461024d578063715018a6146102605780638da5cb5b1461026857806395d89b4114610279578063a22cb4651461028157600080fd5b806323b872dd116100f457806323b872dd146101cf5780632a55205a146101e257806342842e0e1461021457806358b4c6bb146102275780636352211e1461023a57600080fd5b806301ffc9a71461013157806306fdde0314610159578063081812fc1461016e578063095ea7b314610199578063111fb47b146101ae575b600080fd5b61014461013f366004611874565b610300565b60405190151581526020015b60405180910390f35b610161610311565b6040516101509190611b31565b61018161017c366004611a06565b6103a3565b6040516001600160a01b039091168152602001610150565b6101ac6101a7366004611849565b61043d565b005b6101c16101bc3660046118c8565b610553565b604051908152602001610150565b6101ac6101dd36600461175b565b610599565b6101f56101f0366004611a1e565b6105ca565b604080516001600160a01b039093168352602083019190915201610150565b6101ac61022236600461175b565b610719565b6101c16102353660046118fb565b610734565b610181610248366004611a06565b610753565b6101c161025b366004611707565b6107ca565b6101ac610851565b6007546001600160a01b0316610181565b6101616108b7565b6101ac61028f366004611818565b6108c6565b6101ac6102a236600461179b565b6108d5565b6101616102b5366004611a06565b61090d565b6102cd6102c8366004611a06565b610a2a565b6040516101509190611b1e565b6101446102e8366004611723565b610ab9565b6101ac6102fb366004611707565b610b89565b600061030b82610c54565b92915050565b60606000805461032090611cc8565b80601f016020809104026020016040519081016040528092919081815260200182805461034c90611cc8565b80156103995780601f1061036e57610100808354040283529160200191610399565b820191906000526020600020905b81548152906001019060200180831161037c57829003601f168201915b5050505050905090565b6000818152600260205260408120546001600160a01b03166104215760405162461bcd60e51b815260206004820152602c60248201527f4552433732313a20617070726f76656420717565727920666f72206e6f6e657860448201526b34b9ba32b73a103a37b5b2b760a11b60648201526084015b60405180910390fd5b506000908152600460205260409020546001600160a01b031690565b600061044882610753565b9050806001600160a01b0316836001600160a01b031614156104b65760405162461bcd60e51b815260206004820152602160248201527f4552433732313a20617070726f76616c20746f2063757272656e74206f776e656044820152603960f91b6064820152608401610418565b336001600160a01b03821614806104d257506104d28133610ab9565b6105445760405162461bcd60e51b815260206004820152603860248201527f4552433732313a20617070726f76652063616c6c6572206973206e6f74206f7760448201527f6e6572206e6f7220617070726f76656420666f7220616c6c00000000000000006064820152608401610418565b61054e8383610c94565b505050565b60008061055f60085490565b905061056b3382610d02565b6000818152600960209081526040909120845161058a928601906115f7565b5061030b600880546001019055565b6105a33382610e44565b6105bf5760405162461bcd60e51b815260040161041890611b96565b61054e838383610f1a565b6000828152600660209081526040808320805482518185028101850190935280835284938493929190849084015b8282101561064757600084815260209081902060408051808201909152908401546001600160a01b0381168252600160a01b90046001600160601b0316818301528252600190920191016105f8565b5050825192935050508061066357600080935093505050610712565b6000805b828110156106c35783818151811061068f57634e487b7160e01b600052603260045260246000fd5b6020026020010151602001516001600160601b0316826106af9190611c5a565b9150806106bb81611d03565b915050610667565b50826000815181106106e557634e487b7160e01b600052603260045260246000fd5b60200260200101516000015161271082886107009190611c92565b61070a9190611c72565b945094505050505b9250929050565b61054e838383604051806020016040528060008152506108d5565b60008061074084610553565b905061074c81846110b6565b9392505050565b6000818152600260205260408120546001600160a01b03168061030b5760405162461bcd60e51b815260206004820152602960248201527f4552433732313a206f776e657220717565727920666f72206e6f6e657869737460448201526832b73a103a37b5b2b760b91b6064820152608401610418565b60006001600160a01b0382166108355760405162461bcd60e51b815260206004820152602a60248201527f4552433732313a2062616c616e636520717565727920666f7220746865207a65604482015269726f206164647265737360b01b6064820152608401610418565b506001600160a01b031660009081526003602052604090205490565b6007546001600160a01b031633146108ab5760405162461bcd60e51b815260206004820181905260248201527f4f776e61626c653a2063616c6c6572206973206e6f7420746865206f776e65726044820152606401610418565b6108b56000611309565b565b60606001805461032090611cc8565b6108d133838361135b565b5050565b6108df3383610e44565b6108fb5760405162461bcd60e51b815260040161041890611b96565b6109078484848461142a565b50505050565b6000818152600260205260409020546060906001600160a01b031661098c5760405162461bcd60e51b815260206004820152602f60248201527f4552433732314c656d6f6e6164653a2055524920717565727920666f72206e6f60448201526e3732bc34b9ba32b73a103a37b5b2b760891b6064820152608401610418565b600082815260096020526040902080546109a590611cc8565b80601f01602080910402602001604051908101604052809291908181526020018280546109d190611cc8565b8015610a1e5780601f106109f357610100808354040283529160200191610a1e565b820191906000526020600020905b815481529060010190602001808311610a0157829003601f168201915b50505050509050919050565b606060066000838152602001908152602001600020805480602002602001604051908101604052809291908181526020016000905b82821015610aae57600084815260209081902060408051808201909152908401546001600160a01b0381168252600160a01b90046001600160601b031681830152825260019092019101610a5f565b505050509050919050565b600a5460405163c455279160e01b81526001600160a01b03848116600483015260009281169190841690829063c45527919060240160206040518083038186803b158015610b0657600080fd5b505afa158015610b1a573d6000803e3d6000fd5b505050506040513d601f19601f82011682018060405250810190610b3e91906118ac565b6001600160a01b03161415610b5757600191505061030b565b6001600160a01b0380851660009081526005602090815260408083209387168352929052205460ff165b949350505050565b6007546001600160a01b03163314610be35760405162461bcd60e51b815260206004820181905260248201527f4f776e61626c653a2063616c6c6572206973206e6f7420746865206f776e65726044820152606401610418565b6001600160a01b038116610c485760405162461bcd60e51b815260206004820152602660248201527f4f776e61626c653a206e6577206f776e657220697320746865207a65726f206160448201526564647265737360d01b6064820152608401610418565b610c5181611309565b50565b60006001600160e01b0319821663152a902d60e11b1480610c8557506001600160e01b0319821663656cb66560e11b145b8061030b575061030b8261145d565b600081815260046020526040902080546001600160a01b0319166001600160a01b0384169081179091558190610cc982610753565b6001600160a01b03167f8c5be1e5ebec7d5bd14f71427d1e84f3dd0314c0f7b2291e5b200ac8c7c3b92560405160405180910390a45050565b6001600160a01b038216610d585760405162461bcd60e51b815260206004820181905260248201527f4552433732313a206d696e7420746f20746865207a65726f20616464726573736044820152606401610418565b6000818152600260205260409020546001600160a01b031615610dbd5760405162461bcd60e51b815260206004820152601c60248201527f4552433732313a20746f6b656e20616c7265616479206d696e746564000000006044820152606401610418565b6001600160a01b0382166000908152600360205260408120805460019290610de6908490611c5a565b909155505060008181526002602052604080822080546001600160a01b0319166001600160a01b03861690811790915590518392907fddf252ad1be2c89b69c2b068fc378daa952ba7f163c4a11628f55a4df523b3ef908290a45050565b6000818152600260205260408120546001600160a01b0316610ebd5760405162461bcd60e51b815260206004820152602c60248201527f4552433732313a206f70657261746f7220717565727920666f72206e6f6e657860448201526b34b9ba32b73a103a37b5b2b760a11b6064820152608401610418565b6000610ec883610753565b9050806001600160a01b0316846001600160a01b03161480610eef5750610eef8185610ab9565b80610b815750836001600160a01b0316610f08846103a3565b6001600160a01b031614949350505050565b826001600160a01b0316610f2d82610753565b6001600160a01b031614610f915760405162461bcd60e51b815260206004820152602560248201527f4552433732313a207472616e736665722066726f6d20696e636f72726563742060448201526437bbb732b960d91b6064820152608401610418565b6001600160a01b038216610ff35760405162461bcd60e51b8152602060048201526024808201527f4552433732313a207472616e7366657220746f20746865207a65726f206164646044820152637265737360e01b6064820152608401610418565b610ffe600082610c94565b6001600160a01b0383166000908152600360205260408120805460019290611027908490611cb1565b90915550506001600160a01b0382166000908152600360205260408120805460019290611055908490611c5a565b909155505060008181526002602052604080822080546001600160a01b0319166001600160a01b0386811691821790925591518493918716917fddf252ad1be2c89b69c2b068fc378daa952ba7f163c4a11628f55a4df523b3ef91a4505050565b6000805b825181101561129f5760006001600160a01b03168382815181106110ee57634e487b7160e01b600052603260045260246000fd5b6020026020010151600001516001600160a01b031614156111515760405162461bcd60e51b815260206004820152601b60248201527f526563697069656e742073686f756c642062652070726573656e7400000000006044820152606401610418565b82818151811061117157634e487b7160e01b600052603260045260246000fd5b6020026020010151602001516001600160601b0316600014156111d65760405162461bcd60e51b815260206004820181905260248201527f526f79616c74792076616c75652073686f756c6420626520706f7369746976656044820152606401610418565b8281815181106111f657634e487b7160e01b600052603260045260246000fd5b6020026020010151602001516001600160601b0316826112169190611c5a565b91506006600085815260200190815260200160002083828151811061124b57634e487b7160e01b600052603260045260246000fd5b6020908102919091018101518254600181018455600093845292829020815191909201516001600160601b0316600160a01b026001600160a01b03909116179101558061129781611d03565b9150506110ba565b5061271081106112ff5760405162461bcd60e51b815260206004820152602560248201527f526f79616c747920746f74616c2076616c75652073686f756c64206265203c20604482015264031303030360dc1b6064820152608401610418565b61054e83836114ad565b600780546001600160a01b038381166001600160a01b0319831681179093556040519116919082907f8be0079c531659141344cd1fd0a4f28419497f9722a3daafe3b4186f6b6457e090600090a35050565b816001600160a01b0316836001600160a01b031614156113bd5760405162461bcd60e51b815260206004820152601960248201527f4552433732313a20617070726f766520746f2063616c6c6572000000000000006044820152606401610418565b6001600160a01b03838116600081815260056020908152604080832094871680845294825291829020805460ff191686151590811790915591519182527f17307eab39ab6107e8899845ad3d59bd9653f200f220920489ca2b5937696c31910160405180910390a3505050565b611435848484610f1a565b611441848484846114ea565b6109075760405162461bcd60e51b815260040161041890611b44565b60006001600160e01b031982166380ac58cd60e01b148061148e57506001600160e01b03198216635b5e139f60e01b145b8061030b57506301ffc9a760e01b6001600160e01b031983161461030b565b7f3fa96d7b6bcbfe71ef171666d84db3cf52fa2d1c8afdb1cc8e486177f208b7df82826040516114de929190611be7565b60405180910390a15050565b60006001600160a01b0384163b156115ec57604051630a85bd0160e11b81526001600160a01b0385169063150b7a029061152e903390899088908890600401611ae1565b602060405180830381600087803b15801561154857600080fd5b505af1925050508015611578575060408051601f3d908101601f1916820190925261157591810190611890565b60015b6115d2573d8080156115a6576040519150601f19603f3d011682016040523d82523d6000602084013e6115ab565b606091505b5080516115ca5760405162461bcd60e51b815260040161041890611b44565b805181602001fd5b6001600160e01b031916630a85bd0160e11b149050610b81565b506001949350505050565b82805461160390611cc8565b90600052602060002090601f016020900481019282611625576000855561166b565b82601f1061163e57805160ff191683800117855561166b565b8280016001018555821561166b579182015b8281111561166b578251825591602001919060010190611650565b5061167792915061167b565b5090565b5b80821115611677576000815560010161167c565b600067ffffffffffffffff8311156116aa576116aa611d34565b6116bd601f8401601f1916602001611c29565b90508281528383830111156116d157600080fd5b828260208301376000602084830101529392505050565b600082601f8301126116f8578081fd5b61074c83833560208501611690565b600060208284031215611718578081fd5b813561074c81611d4a565b60008060408385031215611735578081fd5b823561174081611d4a565b9150602083013561175081611d4a565b809150509250929050565b60008060006060848603121561176f578081fd5b833561177a81611d4a565b9250602084013561178a81611d4a565b929592945050506040919091013590565b600080600080608085870312156117b0578081fd5b84356117bb81611d4a565b935060208501356117cb81611d4a565b925060408501359150606085013567ffffffffffffffff8111156117ed578182fd5b8501601f810187136117fd578182fd5b61180c87823560208401611690565b91505092959194509250565b6000806040838503121561182a578182fd5b823561183581611d4a565b915060208301358015158114611750578182fd5b6000806040838503121561185b578182fd5b823561186681611d4a565b946020939093013593505050565b600060208284031215611885578081fd5b813561074c81611d5f565b6000602082840312156118a1578081fd5b815161074c81611d5f565b6000602082840312156118bd578081fd5b815161074c81611d4a565b6000602082840312156118d9578081fd5b813567ffffffffffffffff8111156118ef578182fd5b610b81848285016116e8565b600080604080848603121561190e578283fd5b833567ffffffffffffffff80821115611925578485fd5b611931878388016116e8565b9450602091508186013581811115611947578485fd5b8601601f81018813611957578485fd5b80358281111561196957611969611d34565b611977848260051b01611c29565b8181528481019350828501600683901b840186018b1015611996578788fd5b8793505b828410156119f55786818c0312156119b0578788fd5b6119b8611c00565b81356119c381611d4a565b8152818701356001600160601b03811681146119dd57898afd5b8188015285529385019360019390930192860161199a565b508096505050505050509250929050565b600060208284031215611a17578081fd5b5035919050565b60008060408385031215611a30578182fd5b50508035926020909101359150565b6000815180845260208085019450808401835b83811015611a8b57815180516001600160a01b031688528301516001600160601b03168388015260409096019590820190600101611a52565b509495945050505050565b60008151808452815b81811015611abb57602081850181015186830182015201611a9f565b81811115611acc5782602083870101525b50601f01601f19169290920160200192915050565b6001600160a01b0385811682528416602082015260408101839052608060608201819052600090611b1490830184611a96565b9695505050505050565b60208152600061074c6020830184611a3f565b60208152600061074c6020830184611a96565b60208082526032908201527f4552433732313a207472616e7366657220746f206e6f6e20455243373231526560408201527131b2b4bb32b91034b6b83632b6b2b73a32b960711b606082015260800190565b60208082526031908201527f4552433732313a207472616e736665722063616c6c6572206973206e6f74206f6040820152701ddb995c881b9bdc88185c1c1c9bdd9959607a1b606082015260800190565b828152604060208201526000610b816040830184611a3f565b6040805190810167ffffffffffffffff81118282101715611c2357611c23611d34565b60405290565b604051601f8201601f1916810167ffffffffffffffff81118282101715611c5257611c52611d34565b604052919050565b60008219821115611c6d57611c6d611d1e565b500190565b600082611c8d57634e487b7160e01b81526012600452602481fd5b500490565b6000816000190483118215151615611cac57611cac611d1e565b500290565b600082821015611cc357611cc3611d1e565b500390565b600181811c90821680611cdc57607f821691505b60208210811415611cfd57634e487b7160e01b600052602260045260246000fd5b50919050565b6000600019821415611d1757611d17611d1e565b5060010190565b634e487b7160e01b600052601160045260246000fd5b634e487b7160e01b600052604160045260246000fd5b6001600160a01b0381168114610c5157600080fd5b6001600160e01b031981168114610c5157600080fdfea264697066735822122065ffc0167def8ebd5cf4fcacd4659b85fcb04ed9cb24aae6163c1d3f925d970f64736f6c63430008040033",
  "devdoc": {
    "kind": "dev",
    "methods": {
      "approve(address,uint256)": {
        "details": "See {IERC721-approve}."
      },
      "balanceOf(address)": {
        "details": "See {IERC721-balanceOf}."
      },
      "getApproved(uint256)": {
        "details": "See {IERC721-getApproved}."
      },
      "isApprovedForAll(address,address)": {
        "details": "See {IERC721-isApprovedForAll}."
      },
      "name()": {
        "details": "See {IERC721Metadata-name}."
      },
      "owner()": {
        "details": "Returns the address of the current owner."
      },
      "ownerOf(uint256)": {
        "details": "See {IERC721-ownerOf}."
      },
      "renounceOwnership()": {
        "details": "Leaves the contract without owner. It will not be possible to call `onlyOwner` functions anymore. Can only be called by the current owner. NOTE: Renouncing ownership will leave the contract without an owner, thereby removing any functionality that is only available to the owner."
      },
      "safeTransferFrom(address,address,uint256)": {
        "details": "See {IERC721-safeTransferFrom}."
      },
      "safeTransferFrom(address,address,uint256,bytes)": {
        "details": "See {IERC721-safeTransferFrom}."
      },
      "setApprovalForAll(address,bool)": {
        "details": "See {IERC721-setApprovalForAll}."
      },
      "symbol()": {
        "details": "See {IERC721Metadata-symbol}."
      },
      "tokenURI(uint256)": {
        "details": "See {IERC721Metadata-tokenURI}."
      },
      "transferFrom(address,address,uint256)": {
        "details": "See {IERC721-transferFrom}."
      },
      "transferOwnership(address)": {
        "details": "Transfers ownership of the contract to a new account (`newOwner`). Can only be called by the current owner."
      }
    },
    "version": 1
  },
  "userdoc": {
    "kind": "user",
    "methods": {},
    "version": 1
  },
  "storageLayout": {
    "storage": [
      {
        "astId": 1454,
        "contract": "contracts/ERC721LemonadeV1Ethereum.sol:ERC721LemonadeV1Ethereum",
        "label": "_name",
        "offset": 0,
        "slot": "0",
        "type": "t_string_storage"
      },
      {
        "astId": 1456,
        "contract": "contracts/ERC721LemonadeV1Ethereum.sol:ERC721LemonadeV1Ethereum",
        "label": "_symbol",
        "offset": 0,
        "slot": "1",
        "type": "t_string_storage"
      },
      {
        "astId": 1460,
        "contract": "contracts/ERC721LemonadeV1Ethereum.sol:ERC721LemonadeV1Ethereum",
        "label": "_owners",
        "offset": 0,
        "slot": "2",
        "type": "t_mapping(t_uint256,t_address)"
      },
      {
        "astId": 1464,
        "contract": "contracts/ERC721LemonadeV1Ethereum.sol:ERC721LemonadeV1Ethereum",
        "label": "_balances",
        "offset": 0,
        "slot": "3",
        "type": "t_mapping(t_address,t_uint256)"
      },
      {
        "astId": 1468,
        "contract": "contracts/ERC721LemonadeV1Ethereum.sol:ERC721LemonadeV1Ethereum",
        "label": "_tokenApprovals",
        "offset": 0,
        "slot": "4",
        "type": "t_mapping(t_uint256,t_address)"
      },
      {
        "astId": 1474,
        "contract": "contracts/ERC721LemonadeV1Ethereum.sol:ERC721LemonadeV1Ethereum",
        "label": "_operatorApprovals",
        "offset": 0,
        "slot": "5",
        "type": "t_mapping(t_address,t_mapping(t_address,t_bool))"
      },
      {
        "astId": 9907,
        "contract": "contracts/ERC721LemonadeV1Ethereum.sol:ERC721LemonadeV1Ethereum",
        "label": "royalties",
        "offset": 0,
        "slot": "6",
        "type": "t_mapping(t_uint256,t_array(t_struct(Part)9855_storage)dyn_storage)"
      },
      {
        "astId": 550,
        "contract": "contracts/ERC721LemonadeV1Ethereum.sol:ERC721LemonadeV1Ethereum",
        "label": "_owner",
        "offset": 0,
        "slot": "7",
        "type": "t_address"
      },
      {
        "astId": 5924,
        "contract": "contracts/ERC721LemonadeV1Ethereum.sol:ERC721LemonadeV1Ethereum",
        "label": "_tokenIdTracker",
        "offset": 0,
        "slot": "8",
        "type": "t_struct(Counter)3214_storage"
      },
      {
        "astId": 5928,
        "contract": "contracts/ERC721LemonadeV1Ethereum.sol:ERC721LemonadeV1Ethereum",
        "label": "_tokenURIs",
        "offset": 0,
        "slot": "9",
        "type": "t_mapping(t_uint256,t_string_storage)"
      },
      {
        "astId": 6053,
        "contract": "contracts/ERC721LemonadeV1Ethereum.sol:ERC721LemonadeV1Ethereum",
        "label": "_proxyRegistryAddress",
        "offset": 0,
        "slot": "10",
        "type": "t_address"
      }
    ],
    "types": {
      "t_address": {
        "encoding": "inplace",
        "label": "address",
        "numberOfBytes": "20"
      },
      "t_address_payable": {
        "encoding": "inplace",
        "label": "address payable",
        "numberOfBytes": "20"
      },
      "t_array(t_struct(Part)9855_storage)dyn_storage": {
        "base": "t_struct(Part)9855_storage",
        "encoding": "dynamic_array",
        "label": "struct LibPart.Part[]",
        "numberOfBytes": "32"
      },
      "t_bool": {
        "encoding": "inplace",
        "label": "bool",
        "numberOfBytes": "1"
      },
      "t_mapping(t_address,t_bool)": {
        "encoding": "mapping",
        "key": "t_address",
        "label": "mapping(address => bool)",
        "numberOfBytes": "32",
        "value": "t_bool"
      },
      "t_mapping(t_address,t_mapping(t_address,t_bool))": {
        "encoding": "mapping",
        "key": "t_address",
        "label": "mapping(address => mapping(address => bool))",
        "numberOfBytes": "32",
        "value": "t_mapping(t_address,t_bool)"
      },
      "t_mapping(t_address,t_uint256)": {
        "encoding": "mapping",
        "key": "t_address",
        "label": "mapping(address => uint256)",
        "numberOfBytes": "32",
        "value": "t_uint256"
      },
      "t_mapping(t_uint256,t_address)": {
        "encoding": "mapping",
        "key": "t_uint256",
        "label": "mapping(uint256 => address)",
        "numberOfBytes": "32",
        "value": "t_address"
      },
      "t_mapping(t_uint256,t_array(t_struct(Part)9855_storage)dyn_storage)": {
        "encoding": "mapping",
        "key": "t_uint256",
        "label": "mapping(uint256 => struct LibPart.Part[])",
        "numberOfBytes": "32",
        "value": "t_array(t_struct(Part)9855_storage)dyn_storage"
      },
      "t_mapping(t_uint256,t_string_storage)": {
        "encoding": "mapping",
        "key": "t_uint256",
        "label": "mapping(uint256 => string)",
        "numberOfBytes": "32",
        "value": "t_string_storage"
      },
      "t_string_storage": {
        "encoding": "bytes",
        "label": "string",
        "numberOfBytes": "32"
      },
      "t_struct(Counter)3214_storage": {
        "encoding": "inplace",
        "label": "struct Counters.Counter",
        "members": [
          {
            "astId": 3213,
            "contract": "contracts/ERC721LemonadeV1Ethereum.sol:ERC721LemonadeV1Ethereum",
            "label": "_value",
            "offset": 0,
            "slot": "0",
            "type": "t_uint256"
          }
        ],
        "numberOfBytes": "32"
      },
      "t_struct(Part)9855_storage": {
        "encoding": "inplace",
        "label": "struct LibPart.Part",
        "members": [
          {
            "astId": 9852,
            "contract": "contracts/ERC721LemonadeV1Ethereum.sol:ERC721LemonadeV1Ethereum",
            "label": "account",
            "offset": 0,
            "slot": "0",
            "type": "t_address_payable"
          },
          {
            "astId": 9854,
            "contract": "contracts/ERC721LemonadeV1Ethereum.sol:ERC721LemonadeV1Ethereum",
            "label": "value",
            "offset": 20,
            "slot": "0",
            "type": "t_uint96"
          }
        ],
        "numberOfBytes": "32"
      },
      "t_uint256": {
        "encoding": "inplace",
        "label": "uint256",
        "numberOfBytes": "32"
      },
      "t_uint96": {
        "encoding": "inplace",
        "label": "uint96",
        "numberOfBytes": "12"
      }
    }
  }
}