{
  "address": "0x92e033bDaecB8469C855D175cf66979914b9C2e1",
  "abi": [
    {
      "inputs": [
        {
          "internalType": "string",
          "name": "name",
          "type": "string"
        },
        {
          "internalType": "string",
          "name": "symbol",
          "type": "string"
        },
        {
          "internalType": "address",
          "name": "proxyRegistryAddress",
          "type": "address"
        }
      ],
      "stateMutability": "nonpayable",
      "type": "constructor"
    },
    {
      "anonymous": false,
      "inputs": [
        {
          "indexed": true,
          "internalType": "address",
          "name": "owner",
          "type": "address"
        },
        {
          "indexed": true,
          "internalType": "address",
          "name": "approved",
          "type": "address"
        },
        {
          "indexed": true,
          "internalType": "uint256",
          "name": "tokenId",
          "type": "uint256"
        }
      ],
      "name": "Approval",
      "type": "event"
    },
    {
      "anonymous": false,
      "inputs": [
        {
          "indexed": true,
          "internalType": "address",
          "name": "owner",
          "type": "address"
        },
        {
          "indexed": true,
          "internalType": "address",
          "name": "operator",
          "type": "address"
        },
        {
          "indexed": false,
          "internalType": "bool",
          "name": "approved",
          "type": "bool"
        }
      ],
      "name": "ApprovalForAll",
      "type": "event"
    },
    {
      "anonymous": false,
      "inputs": [
        {
          "indexed": true,
          "internalType": "address",
          "name": "previousOwner",
          "type": "address"
        },
        {
          "indexed": true,
          "internalType": "address",
          "name": "newOwner",
          "type": "address"
        }
      ],
      "name": "OwnershipTransferred",
      "type": "event"
    },
    {
      "anonymous": false,
      "inputs": [
        {
          "indexed": true,
          "internalType": "address",
          "name": "from",
          "type": "address"
        },
        {
          "indexed": true,
          "internalType": "address",
          "name": "to",
          "type": "address"
        },
        {
          "indexed": true,
          "internalType": "uint256",
          "name": "tokenId",
          "type": "uint256"
        }
      ],
      "name": "Transfer",
      "type": "event"
    },
    {
      "inputs": [
        {
          "internalType": "address",
          "name": "to",
          "type": "address"
        },
        {
          "internalType": "uint256",
          "name": "tokenId",
          "type": "uint256"
        }
      ],
      "name": "approve",
      "outputs": [],
      "stateMutability": "nonpayable",
      "type": "function"
    },
    {
      "inputs": [
        {
          "internalType": "address",
          "name": "owner",
          "type": "address"
        }
      ],
      "name": "balanceOf",
      "outputs": [
        {
          "internalType": "uint256",
          "name": "",
          "type": "uint256"
        }
      ],
      "stateMutability": "view",
      "type": "function"
    },
    {
      "inputs": [
        {
          "internalType": "uint256",
          "name": "tokenId",
          "type": "uint256"
        }
      ],
      "name": "getApproved",
      "outputs": [
        {
          "internalType": "address",
          "name": "",
          "type": "address"
        }
      ],
      "stateMutability": "view",
      "type": "function"
    },
    {
      "inputs": [
        {
          "internalType": "uint256",
          "name": "tokenId",
          "type": "uint256"
        }
      ],
      "name": "getRaribleV2Royalties",
      "outputs": [
        {
          "components": [
            {
              "internalType": "address payable",
              "name": "account",
              "type": "address"
            },
            {
              "internalType": "uint96",
              "name": "value",
              "type": "uint96"
            }
          ],
          "internalType": "struct LibPart.Part[]",
          "name": "",
          "type": "tuple[]"
        }
      ],
      "stateMutability": "view",
      "type": "function"
    },
    {
      "inputs": [
        {
          "internalType": "address",
          "name": "owner",
          "type": "address"
        },
        {
          "internalType": "address",
          "name": "operator",
          "type": "address"
        }
      ],
      "name": "isApprovedForAll",
      "outputs": [
        {
          "internalType": "bool",
          "name": "",
          "type": "bool"
        }
      ],
      "stateMutability": "view",
      "type": "function"
    },
    {
      "inputs": [
        {
          "internalType": "string",
          "name": "tokenURI_",
          "type": "string"
        }
      ],
      "name": "mintToCaller",
      "outputs": [
        {
          "internalType": "uint256",
          "name": "",
          "type": "uint256"
        }
      ],
      "stateMutability": "nonpayable",
      "type": "function"
    },
    {
      "inputs": [
        {
          "internalType": "string",
          "name": "tokenURI_",
          "type": "string"
        },
        {
          "components": [
            {
              "internalType": "address payable",
              "name": "account",
              "type": "address"
            },
            {
              "internalType": "uint96",
              "name": "value",
              "type": "uint96"
            }
          ],
          "internalType": "struct LibPart.Part[]",
          "name": "royalties",
          "type": "tuple[]"
        }
      ],
      "name": "mintToCallerWithRoyalty",
      "outputs": [
        {
          "internalType": "uint256",
          "name": "",
          "type": "uint256"
        }
      ],
      "stateMutability": "nonpayable",
      "type": "function"
    },
    {
      "inputs": [],
      "name": "name",
      "outputs": [
        {
          "internalType": "string",
          "name": "",
          "type": "string"
        }
      ],
      "stateMutability": "view",
      "type": "function"
    },
    {
      "inputs": [],
      "name": "owner",
      "outputs": [
        {
          "internalType": "address",
          "name": "",
          "type": "address"
        }
      ],
      "stateMutability": "view",
      "type": "function"
    },
    {
      "inputs": [
        {
          "internalType": "uint256",
          "name": "tokenId",
          "type": "uint256"
        }
      ],
      "name": "ownerOf",
      "outputs": [
        {
          "internalType": "address",
          "name": "",
          "type": "address"
        }
      ],
      "stateMutability": "view",
      "type": "function"
    },
    {
      "inputs": [],
      "name": "renounceOwnership",
      "outputs": [],
      "stateMutability": "nonpayable",
      "type": "function"
    },
    {
      "inputs": [
        {
          "internalType": "uint256",
          "name": "tokenId",
          "type": "uint256"
        },
        {
          "internalType": "uint256",
          "name": "price",
          "type": "uint256"
        }
      ],
      "name": "royaltyInfo",
      "outputs": [
        {
          "internalType": "address",
          "name": "receiver",
          "type": "address"
        },
        {
          "internalType": "uint256",
          "name": "royaltyAmount",
          "type": "uint256"
        }
      ],
      "stateMutability": "view",
      "type": "function"
    },
    {
      "inputs": [
        {
          "internalType": "address",
          "name": "from",
          "type": "address"
        },
        {
          "internalType": "address",
          "name": "to",
          "type": "address"
        },
        {
          "internalType": "uint256",
          "name": "tokenId",
          "type": "uint256"
        }
      ],
      "name": "safeTransferFrom",
      "outputs": [],
      "stateMutability": "nonpayable",
      "type": "function"
    },
    {
      "inputs": [
        {
          "internalType": "address",
          "name": "from",
          "type": "address"
        },
        {
          "internalType": "address",
          "name": "to",
          "type": "address"
        },
        {
          "internalType": "uint256",
          "name": "tokenId",
          "type": "uint256"
        },
        {
          "internalType": "bytes",
          "name": "_data",
          "type": "bytes"
        }
      ],
      "name": "safeTransferFrom",
      "outputs": [],
      "stateMutability": "nonpayable",
      "type": "function"
    },
    {
      "inputs": [
        {
          "internalType": "address",
          "name": "operator",
          "type": "address"
        },
        {
          "internalType": "bool",
          "name": "approved",
          "type": "bool"
        }
      ],
      "name": "setApprovalForAll",
      "outputs": [],
      "stateMutability": "nonpayable",
      "type": "function"
    },
    {
      "inputs": [
        {
          "internalType": "bytes4",
          "name": "interfaceId",
          "type": "bytes4"
        }
      ],
      "name": "supportsInterface",
      "outputs": [
        {
          "internalType": "bool",
          "name": "",
          "type": "bool"
        }
      ],
      "stateMutability": "view",
      "type": "function"
    },
    {
      "inputs": [],
      "name": "symbol",
      "outputs": [
        {
          "internalType": "string",
          "name": "",
          "type": "string"
        }
      ],
      "stateMutability": "view",
      "type": "function"
    },
    {
      "inputs": [
        {
          "internalType": "uint256",
          "name": "tokenId",
          "type": "uint256"
        }
      ],
      "name": "tokenURI",
      "outputs": [
        {
          "internalType": "string",
          "name": "",
          "type": "string"
        }
      ],
      "stateMutability": "view",
      "type": "function"
    },
    {
      "inputs": [
        {
          "internalType": "address",
          "name": "from",
          "type": "address"
        },
        {
          "internalType": "address",
          "name": "to",
          "type": "address"
        },
        {
          "internalType": "uint256",
          "name": "tokenId",
          "type": "uint256"
        }
      ],
      "name": "transferFrom",
      "outputs": [],
      "stateMutability": "nonpayable",
      "type": "function"
    },
    {
      "inputs": [
        {
          "internalType": "address",
          "name": "newOwner",
          "type": "address"
        }
      ],
      "name": "transferOwnership",
      "outputs": [],
      "stateMutability": "nonpayable",
      "type": "function"
    }
  ],
  "transactionHash": "0xa3c04f5fc51af62f49449e477023a64fae04edfb70f8ff6fdd898f008f51c7ff",
  "args": [
    "Non-Fungible Lemon",
    "NFL",
    "0x1E525EEAF261cA41b809884CBDE9DD9E1619573A"
  ],
  "numDeployments": 2,
  "solcInputHash": "14370ca0d81117eb8baa5b51311dafbb",
  "bytecode": "0x60806040523480156200001157600080fd5b5060405162001e7138038062001e7183398101604081905262000034916200025d565b8282818181600090805190602001906200005092919062000104565b5080516200006690600190602084019062000104565b505050620000836200007d620000ae60201b60201c565b620000b2565b5050600a80546001600160a01b0319166001600160a01b039290921691909117905550620003399050565b3390565b600680546001600160a01b038381166001600160a01b0319831681179093556040519116919082907f8be0079c531659141344cd1fd0a4f28419497f9722a3daafe3b4186f6b6457e090600090a35050565b8280546200011290620002e6565b90600052602060002090601f01602090048101928262000136576000855562000181565b82601f106200015157805160ff191683800117855562000181565b8280016001018555821562000181579182015b828111156200018157825182559160200191906001019062000164565b506200018f92915062000193565b5090565b5b808211156200018f576000815560010162000194565b600082601f830112620001bb578081fd5b81516001600160401b0380821115620001d857620001d862000323565b604051601f8301601f19908116603f0116810190828211818310171562000203576200020362000323565b816040528381526020925086838588010111156200021f578485fd5b8491505b8382101562000242578582018301518183018401529082019062000223565b838211156200025357848385830101525b9695505050505050565b60008060006060848603121562000272578283fd5b83516001600160401b038082111562000289578485fd5b6200029787838801620001aa565b94506020860151915080821115620002ad578384fd5b50620002bc86828701620001aa565b604086015190935090506001600160a01b0381168114620002db578182fd5b809150509250925092565b600181811c90821680620002fb57607f821691505b602082108114156200031d57634e487b7160e01b600052602260045260246000fd5b50919050565b634e487b7160e01b600052604160045260246000fd5b611b2880620003496000396000f3fe608060405234801561001057600080fd5b506004361061012c5760003560e01c806370a08231116100ad578063b88d4fde11610071578063b88d4fde14610294578063c87b56dd146102a7578063cad96cca146102ba578063e985e9c5146102da578063f2fde38b146102ed57600080fd5b806370a082311461024d578063715018a6146102605780638da5cb5b1461026857806395d89b4114610279578063a22cb4651461028157600080fd5b806323b872dd116100f457806323b872dd146101cf5780632a55205a146101e257806342842e0e1461021457806358b4c6bb146102275780636352211e1461023a57600080fd5b806301ffc9a71461013157806306fdde0314610159578063081812fc1461016e578063095ea7b314610199578063111fb47b146101ae575b600080fd5b61014461013f366004611613565b610300565b60405190151581526020015b60405180910390f35b610161610346565b60405161015091906118c7565b61018161017c3660046117a5565b6103d8565b6040516001600160a01b039091168152602001610150565b6101ac6101a73660046115e8565b610472565b005b6101c16101bc366004611667565b610588565b604051908152602001610150565b6101ac6101dd3660046114fa565b6105ce565b6101f56101f03660046117bd565b6105ff565b604080516001600160a01b039093168352602083019190915201610150565b6101ac6102223660046114fa565b6106fe565b6101c161023536600461169a565b610719565b6101816102483660046117a5565b6107bb565b6101c161025b3660046114a6565b610832565b6101ac6108b9565b6006546001600160a01b0316610181565b61016161091f565b6101ac61028f3660046115b7565b61092e565b6101ac6102a236600461153a565b61093d565b6101616102b53660046117a5565b610975565b6102cd6102c83660046117a5565b610a92565b6040516101509190611866565b6101446102e83660046114c2565b610b21565b6101ac6102fb3660046114a6565b610bf1565b60006001600160e01b0319821663152a902d60e11b148061033157506001600160e01b0319821663656cb66560e11b145b80610340575061034082610cbc565b92915050565b60606000805461035590611a45565b80601f016020809104026020016040519081016040528092919081815260200182805461038190611a45565b80156103ce5780601f106103a3576101008083540402835291602001916103ce565b820191906000526020600020905b8154815290600101906020018083116103b157829003601f168201915b5050505050905090565b6000818152600260205260408120546001600160a01b03166104565760405162461bcd60e51b815260206004820152602c60248201527f4552433732313a20617070726f76656420717565727920666f72206e6f6e657860448201526b34b9ba32b73a103a37b5b2b760a11b60648201526084015b60405180910390fd5b506000908152600460205260409020546001600160a01b031690565b600061047d826107bb565b9050806001600160a01b0316836001600160a01b031614156104eb5760405162461bcd60e51b815260206004820152602160248201527f4552433732313a20617070726f76616c20746f2063757272656e74206f776e656044820152603960f91b606482015260840161044d565b336001600160a01b038216148061050757506105078133610b21565b6105795760405162461bcd60e51b815260206004820152603860248201527f4552433732313a20617070726f76652063616c6c6572206973206e6f74206f7760448201527f6e6572206e6f7220617070726f76656420666f7220616c6c0000000000000000606482015260840161044d565b6105838383610d0c565b505050565b60008061059460075490565b90506105a03382610d7a565b600081815260086020908152604090912084516105bf9286019061138f565b50610340600780546001019055565b6105d83382610ebc565b6105f45760405162461bcd60e51b815260040161044d9061192c565b610583838383610f92565b6000828152600960205260408120548190806106225760008092509250506106f7565b6000805b8281101561069657600087815260096020526040902080548290811061065c57634e487b7160e01b600052603260045260246000fd5b60009182526020909120015461068290600160a01b90046001600160601b0316836119d7565b91508061068e81611a80565b915050610626565b50600086815260096020526040812080549091906106c457634e487b7160e01b600052603260045260246000fd5b6000918252602090912001546001600160a01b03166127106106e68388611a0f565b6106f091906119ef565b9350935050505b9250929050565b6105838383836040518060200160405280600081525061093d565b60008061072584610588565b835190915060005b818110156107b1576000838152600960205260409020855186908390811061076557634e487b7160e01b600052603260045260246000fd5b602090810291909101810151825460018181018555600094855293839020825192909301516001600160601b0316600160a01b026001600160a01b03909216919091179101550161072d565b5090949350505050565b6000818152600260205260408120546001600160a01b0316806103405760405162461bcd60e51b815260206004820152602960248201527f4552433732313a206f776e657220717565727920666f72206e6f6e657869737460448201526832b73a103a37b5b2b760b91b606482015260840161044d565b60006001600160a01b03821661089d5760405162461bcd60e51b815260206004820152602a60248201527f4552433732313a2062616c616e636520717565727920666f7220746865207a65604482015269726f206164647265737360b01b606482015260840161044d565b506001600160a01b031660009081526003602052604090205490565b6006546001600160a01b031633146109135760405162461bcd60e51b815260206004820181905260248201527f4f776e61626c653a2063616c6c6572206973206e6f7420746865206f776e6572604482015260640161044d565b61091d600061112e565b565b60606001805461035590611a45565b610939338383611180565b5050565b6109473383610ebc565b6109635760405162461bcd60e51b815260040161044d9061192c565b61096f8484848461124f565b50505050565b6000818152600260205260409020546060906001600160a01b03166109f45760405162461bcd60e51b815260206004820152602f60248201527f4552433732314c656d6f6e6164653a2055524920717565727920666f72206e6f60448201526e3732bc34b9ba32b73a103a37b5b2b760891b606482015260840161044d565b60008281526008602052604090208054610a0d90611a45565b80601f0160208091040260200160405190810160405280929190818152602001828054610a3990611a45565b8015610a865780601f10610a5b57610100808354040283529160200191610a86565b820191906000526020600020905b815481529060010190602001808311610a6957829003601f168201915b50505050509050919050565b606060096000838152602001908152602001600020805480602002602001604051908101604052809291908181526020016000905b82821015610b1657600084815260209081902060408051808201909152908401546001600160a01b0381168252600160a01b90046001600160601b031681830152825260019092019101610ac7565b505050509050919050565b600a5460405163c455279160e01b81526001600160a01b03848116600483015260009281169190841690829063c45527919060240160206040518083038186803b158015610b6e57600080fd5b505afa158015610b82573d6000803e3d6000fd5b505050506040513d601f19601f82011682018060405250810190610ba6919061164b565b6001600160a01b03161415610bbf576001915050610340565b6001600160a01b0380851660009081526005602090815260408083209387168352929052205460ff165b949350505050565b6006546001600160a01b03163314610c4b5760405162461bcd60e51b815260206004820181905260248201527f4f776e61626c653a2063616c6c6572206973206e6f7420746865206f776e6572604482015260640161044d565b6001600160a01b038116610cb05760405162461bcd60e51b815260206004820152602660248201527f4f776e61626c653a206e6577206f776e657220697320746865207a65726f206160448201526564647265737360d01b606482015260840161044d565b610cb98161112e565b50565b60006001600160e01b031982166380ac58cd60e01b1480610ced57506001600160e01b03198216635b5e139f60e01b145b8061034057506301ffc9a760e01b6001600160e01b0319831614610340565b600081815260046020526040902080546001600160a01b0319166001600160a01b0384169081179091558190610d41826107bb565b6001600160a01b03167f8c5be1e5ebec7d5bd14f71427d1e84f3dd0314c0f7b2291e5b200ac8c7c3b92560405160405180910390a45050565b6001600160a01b038216610dd05760405162461bcd60e51b815260206004820181905260248201527f4552433732313a206d696e7420746f20746865207a65726f2061646472657373604482015260640161044d565b6000818152600260205260409020546001600160a01b031615610e355760405162461bcd60e51b815260206004820152601c60248201527f4552433732313a20746f6b656e20616c7265616479206d696e74656400000000604482015260640161044d565b6001600160a01b0382166000908152600360205260408120805460019290610e5e9084906119d7565b909155505060008181526002602052604080822080546001600160a01b0319166001600160a01b03861690811790915590518392907fddf252ad1be2c89b69c2b068fc378daa952ba7f163c4a11628f55a4df523b3ef908290a45050565b6000818152600260205260408120546001600160a01b0316610f355760405162461bcd60e51b815260206004820152602c60248201527f4552433732313a206f70657261746f7220717565727920666f72206e6f6e657860448201526b34b9ba32b73a103a37b5b2b760a11b606482015260840161044d565b6000610f40836107bb565b9050806001600160a01b0316846001600160a01b03161480610f675750610f678185610b21565b80610be95750836001600160a01b0316610f80846103d8565b6001600160a01b031614949350505050565b826001600160a01b0316610fa5826107bb565b6001600160a01b0316146110095760405162461bcd60e51b815260206004820152602560248201527f4552433732313a207472616e736665722066726f6d20696e636f72726563742060448201526437bbb732b960d91b606482015260840161044d565b6001600160a01b03821661106b5760405162461bcd60e51b8152602060048201526024808201527f4552433732313a207472616e7366657220746f20746865207a65726f206164646044820152637265737360e01b606482015260840161044d565b611076600082610d0c565b6001600160a01b038316600090815260036020526040812080546001929061109f908490611a2e565b90915550506001600160a01b03821660009081526003602052604081208054600192906110cd9084906119d7565b909155505060008181526002602052604080822080546001600160a01b0319166001600160a01b0386811691821790925591518493918716917fddf252ad1be2c89b69c2b068fc378daa952ba7f163c4a11628f55a4df523b3ef91a4505050565b600680546001600160a01b038381166001600160a01b0319831681179093556040519116919082907f8be0079c531659141344cd1fd0a4f28419497f9722a3daafe3b4186f6b6457e090600090a35050565b816001600160a01b0316836001600160a01b031614156111e25760405162461bcd60e51b815260206004820152601960248201527f4552433732313a20617070726f766520746f2063616c6c657200000000000000604482015260640161044d565b6001600160a01b03838116600081815260056020908152604080832094871680845294825291829020805460ff191686151590811790915591519182527f17307eab39ab6107e8899845ad3d59bd9653f200f220920489ca2b5937696c31910160405180910390a3505050565b61125a848484610f92565b61126684848484611282565b61096f5760405162461bcd60e51b815260040161044d906118da565b60006001600160a01b0384163b1561138457604051630a85bd0160e11b81526001600160a01b0385169063150b7a02906112c6903390899088908890600401611829565b602060405180830381600087803b1580156112e057600080fd5b505af1925050508015611310575060408051601f3d908101601f1916820190925261130d9181019061162f565b60015b61136a573d80801561133e576040519150601f19603f3d011682016040523d82523d6000602084013e611343565b606091505b5080516113625760405162461bcd60e51b815260040161044d906118da565b805181602001fd5b6001600160e01b031916630a85bd0160e11b149050610be9565b506001949350505050565b82805461139b90611a45565b90600052602060002090601f0160209004810192826113bd5760008555611403565b82601f106113d657805160ff1916838001178555611403565b82800160010185558215611403579182015b828111156114035782518255916020019190600101906113e8565b5061140f929150611413565b5090565b5b8082111561140f5760008155600101611414565b600067ffffffffffffffff83111561144257611442611ab1565b611455601f8401601f19166020016119a6565b905082815283838301111561146957600080fd5b828260208301376000602084830101529392505050565b600082601f830112611490578081fd5b61149f83833560208501611428565b9392505050565b6000602082840312156114b7578081fd5b813561149f81611ac7565b600080604083850312156114d4578081fd5b82356114df81611ac7565b915060208301356114ef81611ac7565b809150509250929050565b60008060006060848603121561150e578081fd5b833561151981611ac7565b9250602084013561152981611ac7565b929592945050506040919091013590565b6000806000806080858703121561154f578081fd5b843561155a81611ac7565b9350602085013561156a81611ac7565b925060408501359150606085013567ffffffffffffffff81111561158c578182fd5b8501601f8101871361159c578182fd5b6115ab87823560208401611428565b91505092959194509250565b600080604083850312156115c9578182fd5b82356115d481611ac7565b9150602083013580151581146114ef578182fd5b600080604083850312156115fa578182fd5b823561160581611ac7565b946020939093013593505050565b600060208284031215611624578081fd5b813561149f81611adc565b600060208284031215611640578081fd5b815161149f81611adc565b60006020828403121561165c578081fd5b815161149f81611ac7565b600060208284031215611678578081fd5b813567ffffffffffffffff81111561168e578182fd5b610be984828501611480565b60008060408084860312156116ad578283fd5b833567ffffffffffffffff808211156116c4578485fd5b6116d087838801611480565b94506020915081860135818111156116e6578485fd5b8601601f810188136116f6578485fd5b80358281111561170857611708611ab1565b611716848260051b016119a6565b8181528481019350828501600683901b840186018b1015611735578788fd5b8793505b828410156117945786818c03121561174f578788fd5b61175761197d565b813561176281611ac7565b8152818701356001600160601b038116811461177c57898afd5b81880152855293850193600193909301928601611739565b508096505050505050509250929050565b6000602082840312156117b6578081fd5b5035919050565b600080604083850312156117cf578182fd5b50508035926020909101359150565b60008151808452815b81811015611803576020818501810151868301820152016117e7565b818111156118145782602083870101525b50601f01601f19169290920160200192915050565b6001600160a01b038581168252841660208201526040810183905260806060820181905260009061185c908301846117de565b9695505050505050565b602080825282518282018190526000919060409081850190868401855b828110156118ba57815180516001600160a01b031685528601516001600160601b0316868501529284019290850190600101611883565b5091979650505050505050565b60208152600061149f60208301846117de565b60208082526032908201527f4552433732313a207472616e7366657220746f206e6f6e20455243373231526560408201527131b2b4bb32b91034b6b83632b6b2b73a32b960711b606082015260800190565b60208082526031908201527f4552433732313a207472616e736665722063616c6c6572206973206e6f74206f6040820152701ddb995c881b9bdc88185c1c1c9bdd9959607a1b606082015260800190565b6040805190810167ffffffffffffffff811182821017156119a0576119a0611ab1565b60405290565b604051601f8201601f1916810167ffffffffffffffff811182821017156119cf576119cf611ab1565b604052919050565b600082198211156119ea576119ea611a9b565b500190565b600082611a0a57634e487b7160e01b81526012600452602481fd5b500490565b6000816000190483118215151615611a2957611a29611a9b565b500290565b600082821015611a4057611a40611a9b565b500390565b600181811c90821680611a5957607f821691505b60208210811415611a7a57634e487b7160e01b600052602260045260246000fd5b50919050565b6000600019821415611a9457611a94611a9b565b5060010190565b634e487b7160e01b600052601160045260246000fd5b634e487b7160e01b600052604160045260246000fd5b6001600160a01b0381168114610cb957600080fd5b6001600160e01b031981168114610cb957600080fdfea2646970667358221220fb9d060a0f60c863902ba3f25fbdf680f983573754a4612a8b3d354c1875cf6564736f6c63430008040033",
  "devdoc": {
    "kind": "dev",
    "methods": {
      "approve(address,uint256)": {
        "details": "See {IERC721-approve}."
      },
      "balanceOf(address)": {
        "details": "See {IERC721-balanceOf}."
      },
      "getApproved(uint256)": {
        "details": "See {IERC721-getApproved}."
      },
      "isApprovedForAll(address,address)": {
        "details": "See {IERC721-isApprovedForAll}."
      },
      "name()": {
        "details": "See {IERC721Metadata-name}."
      },
      "owner()": {
        "details": "Returns the address of the current owner."
      },
      "ownerOf(uint256)": {
        "details": "See {IERC721-ownerOf}."
      },
      "renounceOwnership()": {
        "details": "Leaves the contract without owner. It will not be possible to call `onlyOwner` functions anymore. Can only be called by the current owner. NOTE: Renouncing ownership will leave the contract without an owner, thereby removing any functionality that is only available to the owner."
      },
      "safeTransferFrom(address,address,uint256)": {
        "details": "See {IERC721-safeTransferFrom}."
      },
      "safeTransferFrom(address,address,uint256,bytes)": {
        "details": "See {IERC721-safeTransferFrom}."
      },
      "setApprovalForAll(address,bool)": {
        "details": "See {IERC721-setApprovalForAll}."
      },
      "supportsInterface(bytes4)": {
        "details": "See {IERC165-supportsInterface}."
      },
      "symbol()": {
        "details": "See {IERC721Metadata-symbol}."
      },
      "tokenURI(uint256)": {
        "details": "See {IERC721Metadata-tokenURI}."
      },
      "transferFrom(address,address,uint256)": {
        "details": "See {IERC721-transferFrom}."
      },
      "transferOwnership(address)": {
        "details": "Transfers ownership of the contract to a new account (`newOwner`). Can only be called by the current owner."
      }
    },
    "version": 1
  },
  "userdoc": {
    "kind": "user",
    "methods": {},
    "version": 1
  },
  "storageLayout": {
    "storage": [
      {
        "astId": 3538,
        "contract": "contracts/ERC721LemonadeV1Ethereum.sol:ERC721LemonadeV1Ethereum",
        "label": "_name",
        "offset": 0,
        "slot": "0",
        "type": "t_string_storage"
      },
      {
        "astId": 3540,
        "contract": "contracts/ERC721LemonadeV1Ethereum.sol:ERC721LemonadeV1Ethereum",
        "label": "_symbol",
        "offset": 0,
        "slot": "1",
        "type": "t_string_storage"
      },
      {
        "astId": 3544,
        "contract": "contracts/ERC721LemonadeV1Ethereum.sol:ERC721LemonadeV1Ethereum",
        "label": "_owners",
        "offset": 0,
        "slot": "2",
        "type": "t_mapping(t_uint256,t_address)"
      },
      {
        "astId": 3548,
        "contract": "contracts/ERC721LemonadeV1Ethereum.sol:ERC721LemonadeV1Ethereum",
        "label": "_balances",
        "offset": 0,
        "slot": "3",
        "type": "t_mapping(t_address,t_uint256)"
      },
      {
        "astId": 3552,
        "contract": "contracts/ERC721LemonadeV1Ethereum.sol:ERC721LemonadeV1Ethereum",
        "label": "_tokenApprovals",
        "offset": 0,
        "slot": "4",
        "type": "t_mapping(t_uint256,t_address)"
      },
      {
        "astId": 3558,
        "contract": "contracts/ERC721LemonadeV1Ethereum.sol:ERC721LemonadeV1Ethereum",
        "label": "_operatorApprovals",
        "offset": 0,
        "slot": "5",
        "type": "t_mapping(t_address,t_mapping(t_address,t_bool))"
      },
      {
        "astId": 2726,
        "contract": "contracts/ERC721LemonadeV1Ethereum.sol:ERC721LemonadeV1Ethereum",
        "label": "_owner",
        "offset": 0,
        "slot": "6",
        "type": "t_address"
      },
      {
        "astId": 6436,
        "contract": "contracts/ERC721LemonadeV1Ethereum.sol:ERC721LemonadeV1Ethereum",
        "label": "_tokenIdTracker",
        "offset": 0,
        "slot": "7",
        "type": "t_struct(Counter)4909_storage"
      },
      {
        "astId": 6440,
        "contract": "contracts/ERC721LemonadeV1Ethereum.sol:ERC721LemonadeV1Ethereum",
        "label": "_tokenURIs",
        "offset": 0,
        "slot": "8",
        "type": "t_mapping(t_uint256,t_string_storage)"
      },
      {
        "astId": 6446,
        "contract": "contracts/ERC721LemonadeV1Ethereum.sol:ERC721LemonadeV1Ethereum",
        "label": "_royalties",
        "offset": 0,
        "slot": "9",
        "type": "t_mapping(t_uint256,t_array(t_struct(Part)9468_storage)dyn_storage)"
      },
      {
        "astId": 6679,
        "contract": "contracts/ERC721LemonadeV1Ethereum.sol:ERC721LemonadeV1Ethereum",
        "label": "_proxyRegistryAddress",
        "offset": 0,
        "slot": "10",
        "type": "t_address"
      }
    ],
    "types": {
      "t_address": {
        "encoding": "inplace",
        "label": "address",
        "numberOfBytes": "20"
      },
      "t_address_payable": {
        "encoding": "inplace",
        "label": "address payable",
        "numberOfBytes": "20"
      },
      "t_array(t_struct(Part)9468_storage)dyn_storage": {
        "base": "t_struct(Part)9468_storage",
        "encoding": "dynamic_array",
        "label": "struct LibPart.Part[]",
        "numberOfBytes": "32"
      },
      "t_bool": {
        "encoding": "inplace",
        "label": "bool",
        "numberOfBytes": "1"
      },
      "t_mapping(t_address,t_bool)": {
        "encoding": "mapping",
        "key": "t_address",
        "label": "mapping(address => bool)",
        "numberOfBytes": "32",
        "value": "t_bool"
      },
      "t_mapping(t_address,t_mapping(t_address,t_bool))": {
        "encoding": "mapping",
        "key": "t_address",
        "label": "mapping(address => mapping(address => bool))",
        "numberOfBytes": "32",
        "value": "t_mapping(t_address,t_bool)"
      },
      "t_mapping(t_address,t_uint256)": {
        "encoding": "mapping",
        "key": "t_address",
        "label": "mapping(address => uint256)",
        "numberOfBytes": "32",
        "value": "t_uint256"
      },
      "t_mapping(t_uint256,t_address)": {
        "encoding": "mapping",
        "key": "t_uint256",
        "label": "mapping(uint256 => address)",
        "numberOfBytes": "32",
        "value": "t_address"
      },
      "t_mapping(t_uint256,t_array(t_struct(Part)9468_storage)dyn_storage)": {
        "encoding": "mapping",
        "key": "t_uint256",
        "label": "mapping(uint256 => struct LibPart.Part[])",
        "numberOfBytes": "32",
        "value": "t_array(t_struct(Part)9468_storage)dyn_storage"
      },
      "t_mapping(t_uint256,t_string_storage)": {
        "encoding": "mapping",
        "key": "t_uint256",
        "label": "mapping(uint256 => string)",
        "numberOfBytes": "32",
        "value": "t_string_storage"
      },
      "t_string_storage": {
        "encoding": "bytes",
        "label": "string",
        "numberOfBytes": "32"
      },
      "t_struct(Counter)4909_storage": {
        "encoding": "inplace",
        "label": "struct Counters.Counter",
        "members": [
          {
            "astId": 4908,
            "contract": "contracts/ERC721LemonadeV1Ethereum.sol:ERC721LemonadeV1Ethereum",
            "label": "_value",
            "offset": 0,
            "slot": "0",
            "type": "t_uint256"
          }
        ],
        "numberOfBytes": "32"
      },
      "t_struct(Part)9468_storage": {
        "encoding": "inplace",
        "label": "struct LibPart.Part",
        "members": [
          {
            "astId": 9465,
            "contract": "contracts/ERC721LemonadeV1Ethereum.sol:ERC721LemonadeV1Ethereum",
            "label": "account",
            "offset": 0,
            "slot": "0",
            "type": "t_address_payable"
          },
          {
            "astId": 9467,
            "contract": "contracts/ERC721LemonadeV1Ethereum.sol:ERC721LemonadeV1Ethereum",
            "label": "value",
            "offset": 20,
            "slot": "0",
            "type": "t_uint96"
          }
        ],
        "numberOfBytes": "32"
      },
      "t_uint256": {
        "encoding": "inplace",
        "label": "uint256",
        "numberOfBytes": "32"
      },
      "t_uint96": {
        "encoding": "inplace",
        "label": "uint96",
        "numberOfBytes": "12"
      }
    }
  }
}