{
  "address": "0xd6A3feb5eefa1A96492183D4A06F11194b59646E",
  "abi": [
    {
      "anonymous": false,
      "inputs": [
        {
          "indexed": false,
          "internalType": "address",
          "name": "escrow",
          "type": "address"
        }
      ],
      "name": "EscrowCreated",
      "type": "event"
    },
    {
      "inputs": [
        {
          "internalType": "address",
          "name": "owner",
          "type": "address"
        },
        {
          "internalType": "address[]",
          "name": "delegates",
          "type": "address[]"
        },
        {
          "internalType": "address[]",
          "name": "payees",
          "type": "address[]"
        },
        {
          "internalType": "uint256[]",
          "name": "shares",
          "type": "uint256[]"
        },
        {
          "internalType": "uint16",
          "name": "hostRefundPercent",
          "type": "uint16"
        },
        {
          "components": [
            {
              "internalType": "uint256",
              "name": "timestamp",
              "type": "uint256"
            },
            {
              "internalType": "uint16",
              "name": "percent",
              "type": "uint16"
            }
          ],
          "internalType": "struct RefundPolicy[]",
          "name": "refundPolicies",
          "type": "tuple[]"
        }
      ],
      "name": "createEscrow",
      "outputs": [],
      "stateMutability": "nonpayable",
      "type": "function"
    }
  ],
  "transactionHash": "0x7ccf272ae46a60b3f264394c852cba2e666df42cc405b3085b4300a35698bbff",
  "args": [],
  "numDeployments": 1,
  "solcInputHash": "dfd5ee4127456507bbdd252347ccca92",
  "bytecode": "0x608060405234801561001057600080fd5b5061319d806100206000396000f3fe60806040523480156200001157600080fd5b50600436106200002e5760003560e01c8063b0bc30d31462000033575b600080fd5b6200004a620000443660046200028e565b6200004c565b005b60008686868686866040516200006290620000d9565b6200007396959493929190620003ec565b604051809103906000f08015801562000090573d6000803e3d6000fd5b506040516001600160a01b03821681529091507fdc172423e65e4eb718110c42ad3b66ac4b0a613e4d07bfb55f2477f2d1bf34eb9060200160405180910390a150505050505050565b612c3e806200052a83390190565b80356001600160a01b0381168114620000ff57600080fd5b919050565b600082601f83011262000115578081fd5b813560206200012e6200012883620004ec565b620004b8565b80838252828201915082860187848660051b89010111156200014e578586fd5b855b8581101562000177576200016482620000e7565b8452928401929084019060010162000150565b5090979650505050505050565b600082601f83011262000195578081fd5b81356020620001a86200012883620004ec565b80838252828201915082860187848660061b8901011115620001c8578586fd5b855b858110156200017757604080838b031215620001e4578788fd5b620001ee6200048c565b83358152620001ff8785016200027b565b818801528552938501939190910190600101620001ca565b600082601f83011262000228578081fd5b813560206200023b6200012883620004ec565b80838252828201915082860187848660051b89010111156200025b578586fd5b855b8581101562000177578135845292840192908401906001016200025d565b803561ffff81168114620000ff57600080fd5b60008060008060008060c08789031215620002a7578182fd5b620002b287620000e7565b9550602087013567ffffffffffffffff80821115620002cf578384fd5b620002dd8a838b0162000104565b96506040890135915080821115620002f3578384fd5b620003018a838b0162000104565b9550606089013591508082111562000317578384fd5b620003258a838b0162000217565b94506200033560808a016200027b565b935060a08901359150808211156200034b578283fd5b506200035a89828a0162000184565b9150509295509295509295565b6000815180845260208085019450808401835b83811015620003a15781516001600160a01b0316875295820195908201906001016200037a565b509495945050505050565b6000815180845260208085019450808401835b83811015620003a15781518051885283015161ffff168388015260409096019590820190600101620003bf565b6001600160a01b038716815260c06020808301829052600091620004139084018962000367565b838103604085015262000427818962000367565b84810360608601528751808252838901925090830190845b818110156200045d578351835292840192918401916001016200043f565b505061ffff8716608086015284810360a08601526200047d8187620003ac565b9b9a5050505050505050505050565b6040805190810167ffffffffffffffff81118282101715620004b257620004b262000513565b60405290565b604051601f8201601f1916810167ffffffffffffffff81118282101715620004e457620004e462000513565b604052919050565b600067ffffffffffffffff82111562000509576200050962000513565b5060051b60200190565b634e487b7160e01b600052604160045260246000fdfe60806040523480156200001157600080fd5b5060405162002c3e38038062002c3e8339810160408190526200003491620009cb565b83838051825114620000a85760405162461bcd60e51b815260206004820152603260248201527f5061796d656e7453706c69747465723a2070617965657320616e6420736861726044820152710cae640d8cadccee8d040dad2e6dac2e8c6d60731b60648201526084015b60405180910390fd5b6000825111620000fb5760405162461bcd60e51b815260206004820152601a60248201527f5061796d656e7453706c69747465723a206e6f2070617965657300000000000060448201526064016200009f565b60005b82518110156200017f576200016a8382815181106200012d57634e487b7160e01b600052603260045260246000fd5b60200260200101518383815181106200015657634e487b7160e01b600052603260045260246000fd5b6020026020010151620004b060201b60201c565b80620001768162000b43565b915050620000fe565b50505060648261ffff161115620001a957604051631fd655cd60e11b815260040160405180910390fd5b6009805462ffff00191661010061ffff851602179055805160018114156200026757600082600081518110620001ef57634e487b7160e01b600052603260045260246000fd5b602002602001015190506200020a816200069c60201b60201c565b600a8054600181018255600091909152815160008051602062002bfe83398151915260029092029182015560209091015160008051602062002bde833981519152909101805461ffff191661ffff90921691909117905562000419565b600181111562000419576040805180820190915260008082526020820152604080518082019091526000808252602082015283600081518110620002bb57634e487b7160e01b600052603260045260246000fd5b60200260200101519050620002d6816200069c60201b60201c565b600a805460018082018355600092909252825160008051602062002bfe833981519152600290920291820155602083015160008051602062002bde833981519152909101805461ffff191661ffff9092169190911790555b8381101562000415578192508481815181106200035b57634e487b7160e01b600052603260045260246000fd5b60200260200101519150816000015183600001511015806200038d5750816020015161ffff16836020015161ffff1611155b15620003ac57604051638ebf7c8f60e01b815260040160405180910390fd5b620003b7826200069c565b600a805460018082018355600092909252835160008051602062002bfe833981519152600290920291820155602084015160008051602062002bde833981519152909101805461ffff191661ffff909216919091179055016200032e565b5050505b62000426600088620006ca565b6200044160008051602062002c1e83398151915288620006ca565b855160005b81811015620004a1576200049860008051602062002c1e8339815191528983815181106200048457634e487b7160e01b600052603260045260246000fd5b6020026020010151620006ca60201b60201c565b60010162000446565b50505050505050505062000b8d565b6001600160a01b0382166200051d5760405162461bcd60e51b815260206004820152602c60248201527f5061796d656e7453706c69747465723a206163636f756e74206973207468652060448201526b7a65726f206164647265737360a01b60648201526084016200009f565b600081116200056f5760405162461bcd60e51b815260206004820152601d60248201527f5061796d656e7453706c69747465723a2073686172657320617265203000000060448201526064016200009f565b6001600160a01b03821660009081526002602052604090205415620005eb5760405162461bcd60e51b815260206004820152602b60248201527f5061796d656e7453706c69747465723a206163636f756e7420616c726561647960448201526a206861732073686172657360a81b60648201526084016200009f565b60048054600181019091557f8a35acfbc15ff81a39ae7d344fd709f28e8600b4aa8c65c6b64bfe7fe36bd19b0180546001600160a01b0319166001600160a01b0384169081179091556000908152600260205260408120829055546200065390829062000b28565b600055604080516001600160a01b0384168152602081018390527f40c340f65e17194d14ddddb073d3c9f888e3cb52b5aae0c6c7706b4fbc905fac910160405180910390a15050565b6064816020015161ffff161115620006c7576040516324999a8f60e21b815260040160405180910390fd5b50565b620006e182826200070d60201b620011001760201c565b60008281526008602090815260409091206200070891839062001186620007b2821b17901c565b505050565b60008281526007602090815260408083206001600160a01b038516845290915290205460ff16620007ae5760008281526007602090815260408083206001600160a01b03851684529091529020805460ff191660011790556200076d3390565b6001600160a01b0316816001600160a01b0316837f2f8788117e7eff1d82e926ec794901d17c78024a50270940304540a733656f0d60405160405180910390a45b5050565b6000620007c9836001600160a01b038416620007d2565b90505b92915050565b60008181526001830160205260408120546200081b57508154600181810184556000848152602080822090930184905584548482528286019093526040902091909155620007cc565b506000620007cc565b80516001600160a01b03811681146200083c57600080fd5b919050565b600082601f83011262000852578081fd5b815160206200086b620008658362000b02565b62000acf565b80838252828201915082860187848660051b89010111156200088b578586fd5b855b85811015620008b457620008a18262000824565b845292840192908401906001016200088d565b5090979650505050505050565b600082601f830112620008d2578081fd5b81516020620008e5620008658362000b02565b80838252828201915082860187848660061b890101111562000905578586fd5b855b85811015620008b457604080838b03121562000921578788fd5b6200092b62000aa4565b835181526200093c878501620009b8565b81880152855293850193919091019060010162000907565b600082601f83011262000965578081fd5b8151602062000978620008658362000b02565b80838252828201915082860187848660051b890101111562000998578586fd5b855b85811015620008b4578151845292840192908401906001016200099a565b805161ffff811681146200083c57600080fd5b60008060008060008060c08789031215620009e4578182fd5b620009ef8762000824565b60208801519096506001600160401b038082111562000a0c578384fd5b62000a1a8a838b0162000841565b9650604089015191508082111562000a30578384fd5b62000a3e8a838b0162000841565b9550606089015191508082111562000a54578384fd5b62000a628a838b0162000954565b945062000a7260808a01620009b8565b935060a089015191508082111562000a88578283fd5b5062000a9789828a01620008c1565b9150509295509295509295565b604080519081016001600160401b038111828210171562000ac95762000ac962000b77565b60405290565b604051601f8201601f191681016001600160401b038111828210171562000afa5762000afa62000b77565b604052919050565b60006001600160401b0382111562000b1e5762000b1e62000b77565b5060051b60200190565b6000821982111562000b3e5762000b3e62000b61565b500190565b600060001982141562000b5a5762000b5a62000b61565b5060010190565b634e487b7160e01b600052601160045260246000fd5b634e487b7160e01b600052604160045260246000fd5b6120418062000b9d6000396000f3fe6080604052600436106101bb5760003560e01c806391d14854116100ec578063ce7c2ac21161008a578063dd7c5e5411610064578063dd7c5e541461059d578063e06c7c55146105b7578063e33b7de3146105ea578063e7003a07146105ff57600080fd5b8063ce7c2ac214610511578063d547741f14610547578063d79779b21461056757600080fd5b8063a4e8ac93116100c6578063a4e8ac93146104a9578063bc157ac1146104c9578063c163de3d146104dc578063ca15c873146104f157600080fd5b806391d148541461043e5780639852595c1461045e578063a217fddf1461049457600080fd5b8063406072a9116101595780635b7baf64116101335780635b7baf641461039957806377c8a441146103b95780638b83209b146103e65780639010d07c1461041e57600080fd5b8063406072a91461031357806340e58ee51461035957806348b750441461037957600080fd5b8063248a9ca311610195578063248a9ca3146102805780632f2ff15d146102be57806336568abe146102de5780633a98ef39146102fe57600080fd5b806301ffc9a714610209578063191655871461023e578063245a91a31461026057600080fd5b36610204577f6ef95f06320e7a25a04a175ca677b7052bdd97131872c2192525a629f51be77033604080516001600160a01b0390921682523460208301520160405180910390a1005b600080fd5b34801561021557600080fd5b50610229610224366004611cc8565b610637565b60405190151581526020015b60405180910390f35b34801561024a57600080fd5b5061025e610259366004611c24565b610662565b005b34801561026c57600080fd5b5061022961027b366004611c60565b61079a565b34801561028c57600080fd5b506102b061029b366004611c60565b60009081526007602052604090206001015490565b604051908152602001610235565b3480156102ca57600080fd5b5061025e6102d9366004611c78565b6107bf565b3480156102ea57600080fd5b5061025e6102f9366004611c78565b6107e9565b34801561030a57600080fd5b506000546102b0565b34801561031f57600080fd5b506102b061032e366004611cf0565b6001600160a01b03918216600090815260066020908152604080832093909416825291909152205490565b34801561036557600080fd5b5061025e610374366004611c60565b610867565b34801561038557600080fd5b5061025e610394366004611cf0565b61090d565b3480156103a557600080fd5b5061025e6103b4366004611c60565b610af5565b3480156103c557600080fd5b506103d96103d4366004611d35565b610b7d565b6040516102359190611e0f565b3480156103f257600080fd5b50610406610401366004611c60565b610c11565b6040516001600160a01b039091168152602001610235565b34801561042a57600080fd5b50610406610439366004611ca7565b610c4f565b34801561044a57600080fd5b50610229610459366004611c78565b610c6e565b34801561046a57600080fd5b506102b0610479366004611c24565b6001600160a01b031660009081526003602052604090205490565b3480156104a057600080fd5b506102b0600081565b3480156104b557600080fd5b5061025e6104c4366004611c60565b610c99565b61025e6104d7366004611d47565b610de8565b3480156104e857600080fd5b5061025e610fef565b3480156104fd57600080fd5b506102b061050c366004611c60565b611092565b34801561051d57600080fd5b506102b061052c366004611c24565b6001600160a01b031660009081526002602052604090205490565b34801561055357600080fd5b5061025e610562366004611c78565b6110a9565b34801561057357600080fd5b506102b0610582366004611c24565b6001600160a01b031660009081526005602052604090205490565b3480156105a957600080fd5b506009546102299060ff1681565b3480156105c357600080fd5b506009546105d790610100900461ffff1681565b60405161ffff9091168152602001610235565b3480156105f657600080fd5b506001546102b0565b34801561060b57600080fd5b5061061f61061a366004611c60565b6110ce565b6040805192835261ffff909116602083015201610235565b60006001600160e01b03198216635a05180f60e01b148061065c575061065c8261119b565b92915050565b6001600160a01b0381166000908152600260205260409020546106a05760405162461bcd60e51b815260040161069790611e9a565b60405180910390fd5b60006106ab60015490565b6106b59047611f2b565b905060006106e283836106dd866001600160a01b031660009081526003602052604090205490565b6111d0565b9050806107015760405162461bcd60e51b815260040161069790611ee0565b6001600160a01b03831660009081526003602052604081208054839290610729908490611f2b565b9250508190555080600160008282546107429190611f2b565b9091555061075290508382611213565b604080516001600160a01b0385168152602081018390527fdf20fd1e76bc69d672e4814fafb2c449bba3a5369d8359adf9e05e6fde87b05691015b60405180910390a1505050565b60095460009060ff168061065c5750506000908152600b602052604090205460ff1690565b6000828152600760205260409020600101546107da8161132c565b6107e48383611339565b505050565b6001600160a01b03811633146108595760405162461bcd60e51b815260206004820152602f60248201527f416363657373436f6e74726f6c3a2063616e206f6e6c792072656e6f756e636560448201526e103937b632b9903337b91039b2b63360891b6064820152608401610697565b610863828261135b565b5050565b6108917fb012ba8c7281edbf1d476d7a0eccd3cb202b439a7f0a8f6c574f02e5df5c10b133610c6e565b6108ae57604051634ca8886760e01b815260040160405180910390fd5b6000818152600b6020526040808220805460ff19166001179055517f3fdad7f8cdfcd1b65d4d09d35f3a990abd6d5cf186ba129cfb4abbf332cf961b91610902918491909182521515602082015260400190565b60405180910390a150565b6001600160a01b0381166000908152600260205260409020546109425760405162461bcd60e51b815260040161069790611e9a565b6001600160a01b0382166000908152600560205260408120546040516370a0823160e01b81523060048201526001600160a01b038516906370a082319060240160206040518083038186803b15801561099a57600080fd5b505afa1580156109ae573d6000803e3d6000fd5b505050506040513d601f19601f820116820180604052508101906109d29190611d1d565b6109dc9190611f2b565b90506000610a1583836106dd87876001600160a01b03918216600090815260066020908152604080832093909416825291909152205490565b905080610a345760405162461bcd60e51b815260040161069790611ee0565b6001600160a01b03808516600090815260066020908152604080832093871683529290529081208054839290610a6b908490611f2b565b90915550506001600160a01b03841660009081526005602052604081208054839290610a98908490611f2b565b90915550610aa9905084848361137d565b604080516001600160a01b038581168252602082018490528616917f3be5b7a71e84ed12875d241991c70855ac5817d847039e17a9d895c1ceb0f18a910160405180910390a250505050565b33610aff8261079a565b610b1c576040516332d6d8f560e21b815260040160405180910390fd5b610b378183600960019054906101000a900461ffff166113cf565b604080516001600160a01b0383168152602081018490527fe6cdcbc54159ba58a71f3aae716b81d82506c6fc76a7383e605e7e365d834425910160405180910390a15050565b6001600160a01b0381166000908152600c602090815260408083208584528252808320805482518185028101850190935280835260609492939192909184015b82821015610c05576000848152602090819020604080518082019091526002850290910180546001600160a01b03168252600190810154828401529083529092019101610bbd565b50505050905092915050565b600060048281548110610c3457634e487b7160e01b600052603260045260246000fd5b6000918252602090912001546001600160a01b031692915050565b6000828152600860205260408120610c67908361157c565b9392505050565b60009182526007602090815260408084206001600160a01b0393909316845291905290205460ff1690565b60095460ff1615610cbd57604051638819799d60e01b815260040160405180910390fd5b6000818152600b602052604090205460ff1615610ced5760405163b8f8d1f760e01b815260040160405180910390fd5b600a54600090815b81811015610d87576000600a826001600a80549050610d149190611f82565b610d1e9190611f82565b81548110610d3c57634e487b7160e01b600052603260045260246000fd5b600091825260209182902060408051808201909152600290920201805480835260019091015461ffff16928201929092529150421015610d7e57806020015193505b50600101610cf5565b506000838152600b60205260409020805460ff19166001179055610db2610dab3390565b84846113cf565b60408051848152600160208201527f3fdad7f8cdfcd1b65d4d09d35f3a990abd6d5cf186ba129cfb4abbf332cf961b910161078d565b60095460ff1615610e0c57604051638819799d60e01b815260040160405180910390fd5b3481610e2b5760405163162908e360e11b815260040160405180910390fd5b6000848152600b602052604090205460ff1615610e5b5760405163b8f8d1f760e01b815260040160405180910390fd5b6001600160a01b038316158015908190610e7457508115155b80610e88575080158015610e885750828214155b15610ea65760405163fe9ba5cd60e01b815260040160405180910390fd5b338115610f37576040516323b872dd60e01b81526001600160a01b038281166004830152306024830152604482018690528616906323b872dd90606401602060405180830381600087803b158015610efd57600080fd5b505af1158015610f11573d6000803e3d6000fd5b505050506040513d601f19601f82011682018060405250810190610f359190611c40565b505b6001600160a01b038181166000818152600c602090815260408083208b84528252808320815180830183528b87168082528185018c8152835460018082018655948852968690209251600290970290920180546001600160a01b031916969098169590951787555195019490945583519283528201899052818301526060810186905290517fde50620a8362ed2d89afd08b856fe6db50ad03c096d5f6e10a7ce71ee5359de3916080908290030190a1505050505050565b6110197fb012ba8c7281edbf1d476d7a0eccd3cb202b439a7f0a8f6c574f02e5df5c10b133610c6e565b61103657604051634ca8886760e01b815260040160405180910390fd5b60095460ff161561105a57604051638819799d60e01b815260040160405180910390fd5b6009805460ff191660011790556040517fc67401958d8f4f70d6e5fb87c0190c6f0df5a05a8926d934f81c7491e7402f4790600090a1565b600081815260086020526040812061065c90611588565b6000828152600760205260409020600101546110c48161132c565b6107e4838361135b565b600a81815481106110de57600080fd5b60009182526020909120600290910201805460019091015490915061ffff1682565b61110a8282610c6e565b6108635760008281526007602090815260408083206001600160a01b03851684529091529020805460ff191660011790556111423390565b6001600160a01b0316816001600160a01b0316837f2f8788117e7eff1d82e926ec794901d17c78024a50270940304540a733656f0d60405160405180910390a45050565b6000610c67836001600160a01b038416611592565b60006001600160e01b03198216637965db0b60e01b148061065c57506301ffc9a760e01b6001600160e01b031983161461065c565b600080546001600160a01b0385168252600260205260408220548391906111f79086611f63565b6112019190611f43565b61120b9190611f82565b949350505050565b804710156112635760405162461bcd60e51b815260206004820152601d60248201527f416464726573733a20696e73756666696369656e742062616c616e63650000006044820152606401610697565b6000826001600160a01b03168260405160006040518083038185875af1925050503d80600081146112b0576040519150601f19603f3d011682016040523d82523d6000602084013e6112b5565b606091505b50509050806107e45760405162461bcd60e51b815260206004820152603a60248201527f416464726573733a20756e61626c6520746f2073656e642076616c75652c207260448201527f6563697069656e74206d617920686176652072657665727465640000000000006064820152608401610697565b61133681336115e1565b50565b6113438282611100565b60008281526008602052604090206107e49082611186565b6113658282611645565b60008281526008602052604090206107e490826116ac565b604080516001600160a01b038416602482015260448082018490528251808303909101815260649091019091526020810180516001600160e01b031663a9059cbb60e01b1790526107e49084906116c1565b61ffff81166113dd57505050565b60006113e98385610b7d565b905080516000141561140e5760405163d1dafa8560e01b815260040160405180910390fd5b336000818152600c60209081526040808320878452909152812061143191611bde565b815160005b818161ffff161015611573576000848261ffff168151811061146857634e487b7160e01b600052603260045260246000fd5b60200260200101519050600060648761ffff16836020015161148a9190611f63565b6114949190611f43565b82519091506001600160a01b03166114e2576040516001600160a01b0386169082156108fc029083906000818181858888f193505050501580156114dc573d6000803e3d6000fd5b50611569565b815160405163a9059cbb60e01b81526001600160a01b038781166004830152602482018490529091169063a9059cbb90604401602060405180830381600087803b15801561152f57600080fd5b505af1158015611543573d6000803e3d6000fd5b505050506040513d601f19601f820116820180604052508101906115679190611c40565b505b5050600101611436565b50505050505050565b6000610c678383611793565b600061065c825490565b60008181526001830160205260408120546115d95750815460018181018455600084815260208082209093018490558454848252828601909352604090209190915561065c565b50600061065c565b6115eb8282610c6e565b61086357611603816001600160a01b031660146117cb565b61160e8360206117cb565b60405160200161161f929190611d9a565b60408051601f198184030181529082905262461bcd60e51b825261069791600401611e67565b61164f8282610c6e565b156108635760008281526007602090815260408083206001600160a01b0385168085529252808320805460ff1916905551339285917ff6391f5c32d9c69d2a47ea670b442974b53935d1edc7fd64eb21e047a839171b9190a45050565b6000610c67836001600160a01b0384166119ad565b6000611716826040518060400160405280602081526020017f5361666545524332303a206c6f772d6c6576656c2063616c6c206661696c6564815250856001600160a01b0316611aca9092919063ffffffff16565b8051909150156107e457808060200190518101906117349190611c40565b6107e45760405162461bcd60e51b815260206004820152602a60248201527f5361666545524332303a204552433230206f7065726174696f6e20646964206e6044820152691bdd081cdd58d8d9595960b21b6064820152608401610697565b60008260000182815481106117b857634e487b7160e01b600052603260045260246000fd5b9060005260206000200154905092915050565b606060006117da836002611f63565b6117e5906002611f2b565b67ffffffffffffffff81111561180b57634e487b7160e01b600052604160045260246000fd5b6040519080825280601f01601f191660200182016040528015611835576020820181803683370190505b509050600360fc1b8160008151811061185e57634e487b7160e01b600052603260045260246000fd5b60200101906001600160f81b031916908160001a905350600f60fb1b8160018151811061189b57634e487b7160e01b600052603260045260246000fd5b60200101906001600160f81b031916908160001a90535060006118bf846002611f63565b6118ca906001611f2b565b90505b600181111561195e576f181899199a1a9b1b9c1cb0b131b232b360811b85600f166010811061190c57634e487b7160e01b600052603260045260246000fd5b1a60f81b82828151811061193057634e487b7160e01b600052603260045260246000fd5b60200101906001600160f81b031916908160001a90535060049490941c9361195781611fc9565b90506118cd565b508315610c675760405162461bcd60e51b815260206004820181905260248201527f537472696e67733a20686578206c656e67746820696e73756666696369656e746044820152606401610697565b60008181526001830160205260408120548015611ac05760006119d1600183611f82565b85549091506000906119e590600190611f82565b9050818114611a66576000866000018281548110611a1357634e487b7160e01b600052603260045260246000fd5b9060005260206000200154905080876000018481548110611a4457634e487b7160e01b600052603260045260246000fd5b6000918252602080832090910192909255918252600188019052604090208390555b8554869080611a8557634e487b7160e01b600052603160045260246000fd5b60019003818190600052602060002001600090559055856001016000868152602001908152602001600020600090556001935050505061065c565b600091505061065c565b606061120b8484600085856001600160a01b0385163b611b2c5760405162461bcd60e51b815260206004820152601d60248201527f416464726573733a2063616c6c20746f206e6f6e2d636f6e74726163740000006044820152606401610697565b600080866001600160a01b03168587604051611b489190611d7e565b60006040518083038185875af1925050503d8060008114611b85576040519150601f19603f3d011682016040523d82523d6000602084013e611b8a565b606091505b5091509150611b9a828286611ba5565b979650505050505050565b60608315611bb4575081610c67565b825115611bc45782518084602001fd5b8160405162461bcd60e51b81526004016106979190611e67565b508054600082556002029060005260206000209081019061133691905b80821115611c205780546001600160a01b031916815560006001820155600201611bfb565b5090565b600060208284031215611c35578081fd5b8135610c6781611ff6565b600060208284031215611c51578081fd5b81518015158114610c67578182fd5b600060208284031215611c71578081fd5b5035919050565b60008060408385031215611c8a578081fd5b823591506020830135611c9c81611ff6565b809150509250929050565b60008060408385031215611cb9578182fd5b50508035926020909101359150565b600060208284031215611cd9578081fd5b81356001600160e01b031981168114610c67578182fd5b60008060408385031215611d02578182fd5b8235611d0d81611ff6565b91506020830135611c9c81611ff6565b600060208284031215611d2e578081fd5b5051919050565b60008060408385031215611c8a578182fd5b600080600060608486031215611d5b578081fd5b833592506020840135611d6d81611ff6565b929592945050506040919091013590565b60008251611d90818460208701611f99565b9190910192915050565b7f416363657373436f6e74726f6c3a206163636f756e7420000000000000000000815260008351611dd2816017850160208801611f99565b7001034b99036b4b9b9b4b733903937b6329607d1b6017918401918201528351611e03816028840160208801611f99565b01602801949350505050565b602080825282518282018190526000919060409081850190868401855b82811015611e5a57815180516001600160a01b03168552860151868501529284019290850190600101611e2c565b5091979650505050505050565b6020815260008251806020840152611e86816040850160208701611f99565b601f01601f19169190910160400192915050565b60208082526026908201527f5061796d656e7453706c69747465723a206163636f756e7420686173206e6f2060408201526573686172657360d01b606082015260800190565b6020808252602b908201527f5061796d656e7453706c69747465723a206163636f756e74206973206e6f742060408201526a191d59481c185e5b595b9d60aa1b606082015260800190565b60008219821115611f3e57611f3e611fe0565b500190565b600082611f5e57634e487b7160e01b81526012600452602481fd5b500490565b6000816000190483118215151615611f7d57611f7d611fe0565b500290565b600082821015611f9457611f94611fe0565b500390565b60005b83811015611fb4578181015183820152602001611f9c565b83811115611fc3576000848401525b50505050565b600081611fd857611fd8611fe0565b506000190190565b634e487b7160e01b600052601160045260246000fd5b6001600160a01b038116811461133657600080fdfea26469706673582212204dc815af4775b39528860e749571e2915a730dc047403338f5f3a0db05a2f2b064736f6c63430008040033c65a7bb8d6351c1cf70c95a316cc6a92839c986682d98bc35f958f4883f9d2a9c65a7bb8d6351c1cf70c95a316cc6a92839c986682d98bc35f958f4883f9d2a8b012ba8c7281edbf1d476d7a0eccd3cb202b439a7f0a8f6c574f02e5df5c10b1a26469706673582212200f2c6bb51982a4c645775610b8757a4af74ada8039a18998b2e47ea0b81ea50164736f6c63430008040033",
  "devdoc": {
    "kind": "dev",
    "methods": {},
    "version": 1
  },
  "userdoc": {
    "kind": "user",
    "methods": {},
    "version": 1
  },
  "storageLayout": {
    "storage": [],
    "types": null
  }
}