{
  "address": "0xA312Ae0E6d09AC510A8749B9649A8cBAd3234759",
  "abi": [
    {
      "inputs": [
        {
          "internalType": "address",
          "name": "feeAccount",
          "type": "address"
        },
        {
          "internalType": "uint96",
          "name": "feeValue",
          "type": "uint96"
        }
      ],
      "stateMutability": "nonpayable",
      "type": "constructor"
    },
    {
      "anonymous": false,
      "inputs": [
        {
          "indexed": true,
          "internalType": "uint256",
          "name": "orderId",
          "type": "uint256"
        },
        {
          "indexed": true,
          "internalType": "address",
          "name": "bidder",
          "type": "address"
        },
        {
          "indexed": false,
          "internalType": "uint256",
          "name": "bidAmount",
          "type": "uint256"
        }
      ],
      "name": "OrderBid",
      "type": "event"
    },
    {
      "anonymous": false,
      "inputs": [
        {
          "indexed": true,
          "internalType": "uint256",
          "name": "orderId",
          "type": "uint256"
        }
      ],
      "name": "OrderCancelled",
      "type": "event"
    },
    {
      "anonymous": false,
      "inputs": [
        {
          "indexed": true,
          "internalType": "uint256",
          "name": "orderId",
          "type": "uint256"
        },
        {
          "indexed": false,
          "internalType": "enum LemonadeMarketplaceV1.OrderKind",
          "name": "kind",
          "type": "uint8"
        },
        {
          "indexed": false,
          "internalType": "uint256",
          "name": "openFrom",
          "type": "uint256"
        },
        {
          "indexed": false,
          "internalType": "uint256",
          "name": "openTo",
          "type": "uint256"
        },
        {
          "indexed": true,
          "internalType": "address",
          "name": "maker",
          "type": "address"
        },
        {
          "indexed": false,
          "internalType": "address",
          "name": "currency",
          "type": "address"
        },
        {
          "indexed": false,
          "internalType": "uint256",
          "name": "price",
          "type": "uint256"
        },
        {
          "indexed": false,
          "internalType": "address",
          "name": "tokenContract",
          "type": "address"
        },
        {
          "indexed": false,
          "internalType": "uint256",
          "name": "tokenId",
          "type": "uint256"
        }
      ],
      "name": "OrderCreated",
      "type": "event"
    },
    {
      "anonymous": false,
      "inputs": [
        {
          "indexed": true,
          "internalType": "uint256",
          "name": "orderId",
          "type": "uint256"
        },
        {
          "indexed": true,
          "internalType": "address",
          "name": "taker",
          "type": "address"
        },
        {
          "indexed": false,
          "internalType": "uint256",
          "name": "paidAmount",
          "type": "uint256"
        }
      ],
      "name": "OrderFilled",
      "type": "event"
    },
    {
      "anonymous": false,
      "inputs": [
        {
          "indexed": true,
          "internalType": "bytes32",
          "name": "role",
          "type": "bytes32"
        },
        {
          "indexed": true,
          "internalType": "bytes32",
          "name": "previousAdminRole",
          "type": "bytes32"
        },
        {
          "indexed": true,
          "internalType": "bytes32",
          "name": "newAdminRole",
          "type": "bytes32"
        }
      ],
      "name": "RoleAdminChanged",
      "type": "event"
    },
    {
      "anonymous": false,
      "inputs": [
        {
          "indexed": true,
          "internalType": "bytes32",
          "name": "role",
          "type": "bytes32"
        },
        {
          "indexed": true,
          "internalType": "address",
          "name": "account",
          "type": "address"
        },
        {
          "indexed": true,
          "internalType": "address",
          "name": "sender",
          "type": "address"
        }
      ],
      "name": "RoleGranted",
      "type": "event"
    },
    {
      "anonymous": false,
      "inputs": [
        {
          "indexed": true,
          "internalType": "bytes32",
          "name": "role",
          "type": "bytes32"
        },
        {
          "indexed": true,
          "internalType": "address",
          "name": "account",
          "type": "address"
        },
        {
          "indexed": true,
          "internalType": "address",
          "name": "sender",
          "type": "address"
        }
      ],
      "name": "RoleRevoked",
      "type": "event"
    },
    {
      "inputs": [],
      "name": "DEFAULT_ADMIN_ROLE",
      "outputs": [
        {
          "internalType": "bytes32",
          "name": "",
          "type": "bytes32"
        }
      ],
      "stateMutability": "view",
      "type": "function"
    },
    {
      "inputs": [
        {
          "internalType": "uint256",
          "name": "orderId",
          "type": "uint256"
        },
        {
          "internalType": "uint256",
          "name": "amount",
          "type": "uint256"
        }
      ],
      "name": "bidOrder",
      "outputs": [],
      "stateMutability": "payable",
      "type": "function"
    },
    {
      "inputs": [
        {
          "internalType": "uint256",
          "name": "orderId",
          "type": "uint256"
        }
      ],
      "name": "cancelOrder",
      "outputs": [],
      "stateMutability": "nonpayable",
      "type": "function"
    },
    {
      "inputs": [
        {
          "internalType": "enum LemonadeMarketplaceV1.OrderKind",
          "name": "kind",
          "type": "uint8"
        },
        {
          "internalType": "uint256",
          "name": "openFrom",
          "type": "uint256"
        },
        {
          "internalType": "uint256",
          "name": "openTo",
          "type": "uint256"
        },
        {
          "internalType": "address",
          "name": "currency",
          "type": "address"
        },
        {
          "internalType": "uint256",
          "name": "price",
          "type": "uint256"
        },
        {
          "internalType": "address",
          "name": "tokenContract",
          "type": "address"
        },
        {
          "internalType": "uint256",
          "name": "tokenId",
          "type": "uint256"
        }
      ],
      "name": "createOrder",
      "outputs": [
        {
          "internalType": "uint256",
          "name": "",
          "type": "uint256"
        }
      ],
      "stateMutability": "nonpayable",
      "type": "function"
    },
    {
      "inputs": [],
      "name": "fee",
      "outputs": [
        {
          "internalType": "address",
          "name": "",
          "type": "address"
        },
        {
          "internalType": "uint96",
          "name": "",
          "type": "uint96"
        }
      ],
      "stateMutability": "view",
      "type": "function"
    },
    {
      "inputs": [
        {
          "internalType": "uint256",
          "name": "orderId",
          "type": "uint256"
        },
        {
          "internalType": "uint256",
          "name": "amount",
          "type": "uint256"
        }
      ],
      "name": "fillOrder",
      "outputs": [],
      "stateMutability": "payable",
      "type": "function"
    },
    {
      "inputs": [
        {
          "internalType": "address",
          "name": "tokenContract",
          "type": "address"
        },
        {
          "internalType": "uint256",
          "name": "tokenId",
          "type": "uint256"
        }
      ],
      "name": "getRaribleV2Royalties",
      "outputs": [
        {
          "internalType": "bool",
          "name": "",
          "type": "bool"
        },
        {
          "components": [
            {
              "internalType": "address payable",
              "name": "account",
              "type": "address"
            },
            {
              "internalType": "uint96",
              "name": "value",
              "type": "uint96"
            }
          ],
          "internalType": "struct LibPart.Part[]",
          "name": "",
          "type": "tuple[]"
        }
      ],
      "stateMutability": "view",
      "type": "function"
    },
    {
      "inputs": [
        {
          "internalType": "bytes32",
          "name": "role",
          "type": "bytes32"
        }
      ],
      "name": "getRoleAdmin",
      "outputs": [
        {
          "internalType": "bytes32",
          "name": "",
          "type": "bytes32"
        }
      ],
      "stateMutability": "view",
      "type": "function"
    },
    {
      "inputs": [
        {
          "internalType": "bytes32",
          "name": "role",
          "type": "bytes32"
        },
        {
          "internalType": "uint256",
          "name": "index",
          "type": "uint256"
        }
      ],
      "name": "getRoleMember",
      "outputs": [
        {
          "internalType": "address",
          "name": "",
          "type": "address"
        }
      ],
      "stateMutability": "view",
      "type": "function"
    },
    {
      "inputs": [
        {
          "internalType": "bytes32",
          "name": "role",
          "type": "bytes32"
        }
      ],
      "name": "getRoleMemberCount",
      "outputs": [
        {
          "internalType": "uint256",
          "name": "",
          "type": "uint256"
        }
      ],
      "stateMutability": "view",
      "type": "function"
    },
    {
      "inputs": [
        {
          "internalType": "address",
          "name": "tokenContract",
          "type": "address"
        },
        {
          "internalType": "uint256",
          "name": "tokenId",
          "type": "uint256"
        },
        {
          "internalType": "uint256",
          "name": "paidAmount",
          "type": "uint256"
        }
      ],
      "name": "getRoyaltyInfo",
      "outputs": [
        {
          "internalType": "bool",
          "name": "",
          "type": "bool"
        },
        {
          "internalType": "address",
          "name": "",
          "type": "address"
        },
        {
          "internalType": "uint256",
          "name": "",
          "type": "uint256"
        }
      ],
      "stateMutability": "view",
      "type": "function"
    },
    {
      "inputs": [
        {
          "internalType": "bytes32",
          "name": "role",
          "type": "bytes32"
        },
        {
          "internalType": "address",
          "name": "account",
          "type": "address"
        }
      ],
      "name": "grantRole",
      "outputs": [],
      "stateMutability": "nonpayable",
      "type": "function"
    },
    {
      "inputs": [
        {
          "internalType": "bytes32",
          "name": "role",
          "type": "bytes32"
        },
        {
          "internalType": "address",
          "name": "account",
          "type": "address"
        }
      ],
      "name": "hasRole",
      "outputs": [
        {
          "internalType": "bool",
          "name": "",
          "type": "bool"
        }
      ],
      "stateMutability": "view",
      "type": "function"
    },
    {
      "inputs": [
        {
          "internalType": "uint256",
          "name": "orderId",
          "type": "uint256"
        }
      ],
      "name": "order",
      "outputs": [
        {
          "internalType": "enum LemonadeMarketplaceV1.OrderKind",
          "name": "",
          "type": "uint8"
        },
        {
          "internalType": "bool",
          "name": "",
          "type": "bool"
        },
        {
          "internalType": "uint256",
          "name": "",
          "type": "uint256"
        },
        {
          "internalType": "uint256",
          "name": "",
          "type": "uint256"
        },
        {
          "internalType": "address",
          "name": "",
          "type": "address"
        },
        {
          "internalType": "address",
          "name": "",
          "type": "address"
        },
        {
          "internalType": "uint256",
          "name": "",
          "type": "uint256"
        },
        {
          "internalType": "uint256",
          "name": "",
          "type": "uint256"
        },
        {
          "internalType": "address",
          "name": "",
          "type": "address"
        },
        {
          "internalType": "uint256",
          "name": "",
          "type": "uint256"
        }
      ],
      "stateMutability": "view",
      "type": "function"
    },
    {
      "inputs": [
        {
          "internalType": "bytes32",
          "name": "role",
          "type": "bytes32"
        },
        {
          "internalType": "address",
          "name": "account",
          "type": "address"
        }
      ],
      "name": "renounceRole",
      "outputs": [],
      "stateMutability": "nonpayable",
      "type": "function"
    },
    {
      "inputs": [
        {
          "internalType": "bytes32",
          "name": "role",
          "type": "bytes32"
        },
        {
          "internalType": "address",
          "name": "account",
          "type": "address"
        }
      ],
      "name": "revokeRole",
      "outputs": [],
      "stateMutability": "nonpayable",
      "type": "function"
    },
    {
      "inputs": [
        {
          "internalType": "bytes4",
          "name": "interfaceId",
          "type": "bytes4"
        }
      ],
      "name": "supportsInterface",
      "outputs": [
        {
          "internalType": "bool",
          "name": "",
          "type": "bool"
        }
      ],
      "stateMutability": "view",
      "type": "function"
    },
    {
      "inputs": [
        {
          "internalType": "uint256",
          "name": "orderId",
          "type": "uint256"
        }
      ],
      "name": "token",
      "outputs": [
        {
          "internalType": "address",
          "name": "",
          "type": "address"
        },
        {
          "internalType": "uint256",
          "name": "",
          "type": "uint256"
        }
      ],
      "stateMutability": "view",
      "type": "function"
    }
  ],
  "transactionHash": "0x91c4bf708378ff0f8c4f3493799621f861b2b204792312909eddf7ed43ae19df",
  "args": [
    "0xFB756b44060e426731e54e9F433c43c75ee90d9f",
    "200"
  ],
  "numDeployments": 2,
  "solcInputHash": "14370ca0d81117eb8baa5b51311dafbb",
  "bytecode": "0x60c06040523480156200001157600080fd5b5060405162003230380380620032308339810160408190526200003491620001d8565b606082901b6001600160601b03191660805260a081811b6001600160a01b03191690526200006b6000620000653390565b62000073565b50506200022a565b6200007f828262000083565b5050565b6200009a8282620000c660201b620021831760201c565b6000828152600160209081526040909120620000c19183906200220762000166821b17901c565b505050565b6000828152602081815260408083206001600160a01b038516845290915290205460ff166200007f576000828152602081815260408083206001600160a01b03851684529091529020805460ff19166001179055620001223390565b6001600160a01b0316816001600160a01b0316837f2f8788117e7eff1d82e926ec794901d17c78024a50270940304540a733656f0d60405160405180910390a45050565b60006200017d836001600160a01b03841662000186565b90505b92915050565b6000818152600183016020526040812054620001cf5750815460018181018455600084815260208082209093018490558454848252828601909352604090209190915562000180565b50600062000180565b60008060408385031215620001eb578182fd5b82516001600160a01b038116811462000202578283fd5b60208401519092506001600160601b03811681146200021f578182fd5b809150509250929050565b60805160601c60a05160a01c612fcc62000264600039600081816104050152611d980152600081816103d90152611dd50152612fcc6000f3fe6080604052600436106101095760003560e01c80637241fb7d11610095578063b858fb5f11610064578063b858fb5f14610358578063c37dfc5b1461036b578063ca15c8731461037e578063d547741f1461039e578063ddca3f43146103be57600080fd5b80637241fb7d146102bd5780639010d07c146102eb57806391d1485414610323578063a217fddf1461034357600080fd5b8063248a9ca3116100dc578063248a9ca3146101e65780632f2ff15d1461021657806336568abe1461023857806336de974214610258578063514fcac71461029d57600080fd5b806301ffc9a71461010e578063044215c6146101435780630c1097101461018257806321603f43146101b0575b600080fd5b34801561011a57600080fd5b5061012e610129366004612add565b610430565b60405190151581526020015b60405180910390f35b34801561014f57600080fd5b5061016361015e366004612a75565b61045b565b604080516001600160a01b03909316835260208301919091520161013a565b34801561018e57600080fd5b506101a261019d366004612b05565b6104c9565b60405190815260200161013a565b3480156101bc57600080fd5b506101d06101cb366004612a75565b61099c565b60405161013a9a99989796959493929190612c9f565b3480156101f257600080fd5b506101a2610201366004612a75565b60009081526020819052604090206001015490565b34801561022257600080fd5b50610236610231366004612a8d565b610be5565b005b34801561024457600080fd5b50610236610253366004612a8d565b610c0f565b34801561026457600080fd5b5061027861027336600461293a565b610c8d565b6040805193151584526001600160a01b0390921660208401529082015260600161013a565b3480156102a957600080fd5b506102366102b8366004612a75565b610d2f565b3480156102c957600080fd5b506102dd6102d83660046128e2565b611068565b60405161013a929190612c34565b3480156102f757600080fd5b5061030b610306366004612abc565b61113c565b6040516001600160a01b03909116815260200161013a565b34801561032f57600080fd5b5061012e61033e366004612a8d565b61115b565b34801561034f57600080fd5b506101a2600081565b610236610366366004612abc565b611184565b610236610379366004612abc565b61173c565b34801561038a57600080fd5b506101a2610399366004612a75565b612147565b3480156103aa57600080fd5b506102366103b9366004612a8d565b61215e565b3480156103ca57600080fd5b50604080516001600160a01b037f00000000000000000000000000000000000000000000000000000000000000001681526001600160601b037f00000000000000000000000000000000000000000000000000000000000000001660208201520161013a565b60006001600160e01b03198216635a05180f60e01b148061045557506104558261221c565b92915050565b600081815260026020526040812060030154819083906001600160a01b031661049f5760405162461bcd60e51b815260040161049690612d7a565b60405180910390fd5b505050600090815260026020526040902060068101546007909101546001600160a01b0390911691565b6000806104d68888612251565b9050600081116105345760405162461bcd60e51b81526020600482015260356024820152600080516020612f778339815191526044820152741899481bdc195b88185d081cdbdb59481c1bda5b9d605a1b6064820152608401610496565b600189600181111561055657634e487b7160e01b600052602160045260246000fd5b14156105ef5762278d008111156105ef5760405162461bcd60e51b815260206004820152605160248201527f4c656d6f6e6164654d61726b6574706c6163653a206f72646572206f66206b6960448201527f6e642061756374696f6e206d757374206e6f74206265206f70656e20666f72206064820152706d6f7265207468616e203330206461797360781b608482015260a401610496565b6040516323b872dd60e01b81526001600160a01b038516906323b872dd9061061f90339030908890600401612c10565b600060405180830381600087803b15801561063957600080fd5b505af115801561064d573d6000803e3d6000fd5b50505050600061065c60035490565b9050604051806101a001604052808b600181111561068a57634e487b7160e01b600052602160045260246000fd5b815260016020820152604081018b9052606081018a9052608001336001600160a01b03908116825289811660208084019190915260408084018b9052918916606084015260808301889052600060a0840181905260c0840181905260e0840181905261010090930183905284835260029052902081518154829060ff19166001838181111561072957634e487b7160e01b600052602160045260246000fd5b02179055506020820151815461ff00191661010091151582021782556040830151600180840191909155606084015160028401556080840151600380850180546001600160a01b03199081166001600160a01b039485161790915560a0870151600487018054831691851691909117905560c0870151600587015560e0870151600687018054831691851691909117905593860151600786015561012086015160088601805486169184169190911790556101408601516009860155610160860151600a8601805490951692169190911790925561018090930151600b909201919091558054909101905560008181526002602052604080822081516101a081019092528054829060ff16600181111561085357634e487b7160e01b600052602160045260246000fd5b600181111561087257634e487b7160e01b600052602160045260246000fd5b8152815460ff6101009182900416151560208301526001830154604080840191909152600284015460608085019190915260038501546001600160a01b039081166080808701919091526004870154821660a080880191909152600588015460c0808901919091526006890154841660e0808a019190915260078a0154888a015260088a015485166101208a015260098a01546101408a0152600a8a015485166101608a0152600b909901546101809098019790975290880151885189860151948a0151928a0151978a0151988a0151968a01519551999a509216978a977f4e400f43dce6cc22df28146360114559ffae81b0644d4752872c7def6d77319e97610986979496939490939192909190612cfe565b60405180910390a3509998505050505050505050565b6000818152600260205260408120600301548190819081908190819081908190819081908b906001600160a01b03166109e75760405162461bcd60e51b815260040161049690612d7a565b60008c81526002602052604080822081516101a081019092528054829060ff166001811115610a2657634e487b7160e01b600052602160045260246000fd5b6001811115610a4557634e487b7160e01b600052602160045260246000fd5b81526020016000820160019054906101000a900460ff1615151515815260200160018201548152602001600282015481526020016003820160009054906101000a90046001600160a01b03166001600160a01b03166001600160a01b031681526020016004820160009054906101000a90046001600160a01b03166001600160a01b03166001600160a01b03168152602001600582015481526020016006820160009054906101000a90046001600160a01b03166001600160a01b03166001600160a01b03168152602001600782015481526020016008820160009054906101000a90046001600160a01b03166001600160a01b03166001600160a01b0316815260200160098201548152602001600a820160009054906101000a90046001600160a01b03166001600160a01b03166001600160a01b03168152602001600b820154815250509050806000015181602001518260400151836060015184608001518560a001518660c001518761014001518861016001518961018001519b509b509b509b509b509b509b509b509b509b5050509193959799509193959799565b600082815260208190526040902060010154610c008161229f565b610c0a83836122ac565b505050565b6001600160a01b0381163314610c7f5760405162461bcd60e51b815260206004820152602f60248201527f416363657373436f6e74726f6c3a2063616e206f6e6c792072656e6f756e636560448201526e103937b632b9903337b91039b2b63360891b6064820152608401610496565b610c8982826122ce565b5050565b60405163152a902d60e11b81526004810183905260248101829052600090819081906001600160a01b03871690632a55205a90604401604080518083038186803b158015610cda57600080fd5b505afa925050508015610d0a575060408051601f3d908101601f19168201909252610d079181019061290d565b60015b610d1c57506000915081905080610d26565b6001945090925090505b93509350939050565b60008181526002602052604090206003015481906001600160a01b0316610d685760405162461bcd60e51b815260040161049690612d7a565b60008281526002602052604080822081516101a081019092528054829060ff166001811115610da757634e487b7160e01b600052602160045260246000fd5b6001811115610dc657634e487b7160e01b600052602160045260246000fd5b815281546101009081900460ff1615156020830152600183015460408301526002830154606083015260038301546001600160a01b0390811660808401526004840154811660a0840152600584015460c08401526006840154811660e0840152600784015491830191909152600883015481166101208301526009830154610140830152600a83015416610160820152600b90910154610180909101529050336001600160a01b031681608001516001600160a01b03161480610e8f5750610e8f60003361115b565b610ef45760405162461bcd60e51b815260206004820152603060248201527f4c656d6f6e6164654d61726b6574706c6163653a206d7573742062652074686560448201526f081b585ad95c881d1bc818d85b98d95b60821b6064820152608401610496565b8060200151610f4d5760405162461bcd60e51b81526020600482015260316024820152600080516020612f778339815191526044820152701899481bdc195b881d1bc818d85b98d95b607a1b6064820152608401610496565b6101208101516001600160a01b031615610fb55760405162461bcd60e51b81526020600482015260356024820152600080516020612f778339815191526044820152741a185d99481b9bc8189a59081d1bc818d85b98d95b605a1b6064820152608401610496565b60e081015160808201516101008301516040516323b872dd60e01b81526001600160a01b03909316926323b872dd92610ff2923092600401612c10565b600060405180830381600087803b15801561100c57600080fd5b505af1158015611020573d6000803e3d6000fd5b505050600084815260026020526040808220805461ff0019169055518592507f61b9399f2f0f32ca39ce8d7be32caed5ec22fe07a6daba3a467ed479ec6065829190a2505050565b60405163656cb66560e11b8152600481018290526000906060906001600160a01b0385169063cad96cca9060240160006040518083038186803b1580156110ae57600080fd5b505afa9250505080156110e357506040513d6000823e601f3d908101601f191682016040526110e0919081019061296e565b60015b61112e576040805160008082526020820190925281611124565b60408051808201909152600080825260208201528152602001906001900390816110fd5790505b5091509150611135565b6001925090505b9250929050565b600082815260016020526040812061115490836122f0565b9392505050565b6000918252602082815260408084206001600160a01b0393909316845291905290205460ff1690565b60008281526002602052604090206003015482906001600160a01b03166111bd5760405162461bcd60e51b815260040161049690612d7a565b60008381526002602052604080822081516101a081019092528054829060ff1660018111156111fc57634e487b7160e01b600052602160045260246000fd5b600181111561121b57634e487b7160e01b600052602160045260246000fd5b8152815460ff61010091829004161515602083015260018084015460408401526002840154606084015260038401546001600160a01b0390811660808501526004850154811660a0850152600585015460c08501526006850154811660e0850152600785015492840192909252600884015482166101208401526009840154610140840152600a840154909116610160830152600b9092015461018090910152909150815160018111156112df57634e487b7160e01b600052602160045260246000fd5b146113405760405162461bcd60e51b81526020600482015260396024820152600080516020612f7783398151915260448201527f6265206f66206b696e642061756374696f6e20746f20626964000000000000006064820152608401610496565b80602001516113965760405162461bcd60e51b815260206004820152602e6024820152600080516020612f7783398151915260448201526d1899481bdc195b881d1bc8189a5960921b6064820152608401610496565b42816040015111156113fe5760405162461bcd60e51b815260206004820152603a6024820152600080516020612f7783398151915260448201527f6265206f70656e20746f20626964202d20746f6f206561726c790000000000006064820152608401610496565b428160600151116114655760405162461bcd60e51b81526020600482015260396024820152600080516020612f7783398151915260448201527f6265206f70656e20746f20626964202d20746f6f206c617465000000000000006064820152608401610496565b828160c0015111156114ce5760405162461bcd60e51b815260206004820152602c60248201527f4c656d6f6e6164654d61726b6574706c6163653a206d757374206d617463682060448201526b1c1c9a58d9481d1bc8189a5960a21b6064820152608401610496565b60a08101516001600160a01b03161515806114e857503483145b6115045760405162461bcd60e51b815260040161049690612dc0565b6101208101516001600160a01b0316156115a65782816101400151106115815760405162461bcd60e51b815260206004820152602c60248201527f4c656d6f6e6164654d61726b6574706c6163653a206d7573742073757270617360448201526b1cc8189a59081d1bc8189a5960a21b6064820152608401610496565b610140810151156115a6576115a68160a00151308361012001518461014001516122fc565b600084815260026020526040908190206008810180546001600160a01b031916331790556009810185905581516101a081019092528054829060ff16600181111561160157634e487b7160e01b600052602160045260246000fd5b600181111561162057634e487b7160e01b600052602160045260246000fd5b8152815460ff610100918290041615156020830152600183015460408301526002830154606083015260038301546001600160a01b0390811660808401526004840154811660a0840152600584015460c08401526006840154811660e084015260078401549183019190915260088301548116610120830152600983015461014080840191909152600a840154909116610160830152600b9092015461018090910152810151909150156116e8576116e88160a00151826101200151308461014001516122fc565b8061012001516001600160a01b0316847f43c168f1d9d74d73325ab680f380bc731699766781190d47b123572b01b2fa2883610140015160405161172e91815260200190565b60405180910390a350505050565b60008281526002602052604090206003015482906001600160a01b03166117755760405162461bcd60e51b815260040161049690612d7a565b60008381526002602052604080822081516101a081019092528054829060ff1660018111156117b457634e487b7160e01b600052602160045260246000fd5b60018111156117d357634e487b7160e01b600052602160045260246000fd5b8152815460ff61010091829004161515602080840191909152600184015460408401526002840154606084015260038401546001600160a01b0390811660808501526004850154811660a0850152600585015460c08501526006850154811660e0850152600785015492840192909252600884015482166101208401526009840154610140840152600a840154909116610160830152600b90920154610180909101528101519091506118ce5760405162461bcd60e51b815260206004820152602f6024820152600080516020612f7783398151915260448201526e1899481bdc195b881d1bc8199a5b1b608a1b6064820152608401610496565b6000848152600260205260408120805461ff0019169055808251600181111561190757634e487b7160e01b600052602160045260246000fd5b1415611acc5742826040015111156119755760405162461bcd60e51b815260206004820152603b6024820152600080516020612f7783398151915260448201527f6265206f70656e20746f2066696c6c202d20746f6f206561726c7900000000006064820152608401610496565b606082015115806119895750428260600151115b6119e95760405162461bcd60e51b815260206004820152603a6024820152600080516020612f7783398151915260448201527f6265206f70656e20746f2066696c6c202d20746f6f206c6174650000000000006064820152608401610496565b838260c001511115611a635760405162461bcd60e51b815260206004820152603a60248201527f4c656d6f6e6164654d61726b6574706c6163653a206d757374206d617463682060448201527f707269636520746f2066696c6c20646972656374206f726465720000000000006064820152608401610496565b60a08201516001600160a01b0316151580611a7d57503484145b611a995760405162461bcd60e51b815260040161049690612dc0565b506000848152600260205260409020600a810180546001600160a01b03191633908117909155600b909101849055611c79565b600182516001811115611aef57634e487b7160e01b600052602160045260246000fd5b1415611c79576101208201516001600160a01b0316611b645760405162461bcd60e51b815260206004820152603e6024820152600080516020612f7783398151915260448201527f686176652062696420746f2066696c6c2061756374696f6e206f7264657200006064820152608401610496565b6101208201516001600160a01b031633148015611b85575042826060015111155b80611b9c575060808201516001600160a01b031633145b80611bad5750611bad60003361115b565b611c345760405162461bcd60e51b815260206004820152604c60248201527f4c656d6f6e6164654d61726b6574706c6163653a206d7573742062652074686560448201527f206d616b6572206f722066696e616c2062696464657220746f2066696c6c206160648201526b3ab1ba34b7b71037b93232b960a11b608482015260a401610496565b506101208101516000858152600260205260409020600a810180546001600160a01b0319166001600160a01b0390931692909217909155610140820151600b90910155305b6000858152600260205260409081902081516101a081019092528054829060ff166001811115611cb957634e487b7160e01b600052602160045260246000fd5b6001811115611cd857634e487b7160e01b600052602160045260246000fd5b8152815460ff610100918290041615156020830152600183015460408301526002830154606083015260038301546001600160a01b0390811660808401526004840154811660a0840152600584015460c08401526006840154811660e0840152600784015491830191909152600883015481166101208301526009830154610140830152600a83015416610160820152600b909101546101809182015281015190925015612082576101808201516000612710611dbe6001600160601b037f00000000000000000000000000000000000000000000000000000000000000001684612ea1565b611dc89190612e81565b9050611dfa8460a00151847f0000000000000000000000000000000000000000000000000000000000000000846122fc565b611e048183612ec0565b9150600080611e1c8660e00151876101000151611068565b915091508115611f7557805160005b81811015611f6e57828181518110611e5357634e487b7160e01b600052603260045260246000fd5b6020026020010151600001516001600160a01b031688608001516001600160a01b031614158015611eb857506000838281518110611ea157634e487b7160e01b600052603260045260246000fd5b6020026020010151602001516001600160601b0316115b15611f5c576000612710848381518110611ee257634e487b7160e01b600052603260045260246000fd5b6020026020010151602001516001600160601b03168a6101800151611f079190612ea1565b611f119190612e81565b9050611f4e8960a0015189868581518110611f3c57634e487b7160e01b600052603260045260246000fd5b602002602001015160000151846122fc565b611f588188612ec0565b9650505b80611f6681612f1a565b915050611e2b565b5050611fee565b6000806000611f938960e001518a61010001518b6101800151610c8d565b925092509250828015611fbc5750816001600160a01b031689608001516001600160a01b031614155b8015611fc85750600081115b15611fea57611fdd8960a001518984846122fc565b611fe78188612ec0565b96505b5050505b8315612015576120088660a00151868860800151876122fc565b6120128480612ec0565b93505b831561207d5760405162461bcd60e51b815260206004820152603160248201527f4c656d6f6e6164654d61726b6574706c6163653a207472616e7366657220616d6044820152706f756e74206d757374206265207a65726f60781b6064820152608401610496565b505050505b60e08201516101608301516101008401516040516323b872dd60e01b81526001600160a01b03909316926323b872dd926120c0923092600401612c10565b600060405180830381600087803b1580156120da57600080fd5b505af11580156120ee573d6000803e3d6000fd5b505050508161016001516001600160a01b0316857f1e7abafb1a786c4e6394b5c494f50a97e3802ff2ce462eca4fe6a2dd4e1f92e884610180015160405161213891815260200190565b60405180910390a35050505050565b600081815260016020526040812061045590612474565b6000828152602081905260409020600101546121798161229f565b610c0a83836122ce565b61218d828261115b565b610c89576000828152602081815260408083206001600160a01b03851684529091529020805460ff191660011790556121c33390565b6001600160a01b0316816001600160a01b0316837f2f8788117e7eff1d82e926ec794901d17c78024a50270940304540a733656f0d60405160405180910390a45050565b6000611154836001600160a01b03841661247e565b60006001600160e01b03198216637965db0b60e01b148061045557506301ffc9a760e01b6001600160e01b0319831614610455565b6000804284106122615783612263565b425b9050600083156122735783612277565b6000195b90508082111561228c57600092505050610455565b6122968282612ec0565b95945050505050565b6122a981336124cd565b50565b6122b68282612183565b6000828152600160205260409020610c0a9082612207565b6122d88282612531565b6000828152600160205260409020610c0a9082612596565b600061115483836125ab565b6001600160a01b038416612357576001600160a01b0382163014612352576040516001600160a01b0383169082156108fc029083906000818181858888f19350505050158015612350573d6000803e3d6000fd5b505b61246e565b6001600160a01b0383163014156123ea5760405163a9059cbb60e01b81526001600160a01b0383811660048301526024820183905285169063a9059cbb90604401602060405180830381600087803b1580156123b257600080fd5b505af11580156123c6573d6000803e3d6000fd5b505050506040513d601f19601f820116820180604052508101906123509190612a55565b6040516323b872dd60e01b81526001600160a01b038516906323b872dd9061241a90869086908690600401612c10565b602060405180830381600087803b15801561243457600080fd5b505af1158015612448573d6000803e3d6000fd5b505050506040513d601f19601f8201168201806040525081019061246c9190612a55565b505b50505050565b6000610455825490565b60008181526001830160205260408120546124c557508154600181810184556000848152602080822090930184905584548482528286019093526040902091909155610455565b506000610455565b6124d7828261115b565b610c89576124ef816001600160a01b031660146125e3565b6124fa8360206125e3565b60405160200161250b929190612b9b565b60408051601f198184030181529082905262461bcd60e51b825261049691600401612d47565b61253b828261115b565b15610c89576000828152602081815260408083206001600160a01b0385168085529252808320805460ff1916905551339285917ff6391f5c32d9c69d2a47ea670b442974b53935d1edc7fd64eb21e047a839171b9190a45050565b6000611154836001600160a01b0384166127c5565b60008260000182815481106125d057634e487b7160e01b600052603260045260246000fd5b9060005260206000200154905092915050565b606060006125f2836002612ea1565b6125fd906002612e69565b67ffffffffffffffff81111561262357634e487b7160e01b600052604160045260246000fd5b6040519080825280601f01601f19166020018201604052801561264d576020820181803683370190505b509050600360fc1b8160008151811061267657634e487b7160e01b600052603260045260246000fd5b60200101906001600160f81b031916908160001a905350600f60fb1b816001815181106126b357634e487b7160e01b600052603260045260246000fd5b60200101906001600160f81b031916908160001a90535060006126d7846002612ea1565b6126e2906001612e69565b90505b6001811115612776576f181899199a1a9b1b9c1cb0b131b232b360811b85600f166010811061272457634e487b7160e01b600052603260045260246000fd5b1a60f81b82828151811061274857634e487b7160e01b600052603260045260246000fd5b60200101906001600160f81b031916908160001a90535060049490941c9361276f81612f03565b90506126e5565b5083156111545760405162461bcd60e51b815260206004820181905260248201527f537472696e67733a20686578206c656e67746820696e73756666696369656e746044820152606401610496565b600081815260018301602052604081205480156128d85760006127e9600183612ec0565b85549091506000906127fd90600190612ec0565b905081811461287e57600086600001828154811061282b57634e487b7160e01b600052603260045260246000fd5b906000526020600020015490508087600001848154811061285c57634e487b7160e01b600052603260045260246000fd5b6000918252602080832090910192909255918252600188019052604090208390555b855486908061289d57634e487b7160e01b600052603160045260246000fd5b600190038181906000526020600020016000905590558560010160008681526020019081526020016000206000905560019350505050610455565b6000915050610455565b600080604083850312156128f4578182fd5b82356128ff81612f61565b946020939093013593505050565b6000806040838503121561291f578182fd5b825161292a81612f61565b6020939093015192949293505050565b60008060006060848603121561294e578081fd5b833561295981612f61565b95602085013595506040909401359392505050565b60006020808385031215612980578182fd5b825167ffffffffffffffff80821115612997578384fd5b818501915085601f8301126129aa578384fd5b8151818111156129bc576129bc612f4b565b6129ca848260051b01612e38565b8181528481019250838501600683901b850186018910156129e9578687fd5b8694505b82851015612a4957604080828b031215612a05578788fd5b612a0d612e0f565b8251612a1881612f61565b8152828801516001600160601b0381168114612a3257898afd5b8189015285526001959095019493860193016129ed565b50979650505050505050565b600060208284031215612a66578081fd5b81518015158114611154578182fd5b600060208284031215612a86578081fd5b5035919050565b60008060408385031215612a9f578182fd5b823591506020830135612ab181612f61565b809150509250929050565b60008060408385031215612ace578182fd5b50508035926020909101359150565b600060208284031215612aee578081fd5b81356001600160e01b031981168114611154578182fd5b600080600080600080600060e0888a031215612b1f578283fd5b873560028110612b2d578384fd5b965060208801359550604088013594506060880135612b4b81612f61565b93506080880135925060a0880135612b6281612f61565b8092505060c0880135905092959891949750929550565b60028110612b9757634e487b7160e01b600052602160045260246000fd5b9052565b7f416363657373436f6e74726f6c3a206163636f756e7420000000000000000000815260008351612bd3816017850160208801612ed7565b7001034b99036b4b9b9b4b733903937b6329607d1b6017918401918201528351612c04816028840160208801612ed7565b01602801949350505050565b6001600160a01b039384168152919092166020820152604081019190915260600190565b600060408083018515158452602082818601528186518084526060870191508288019350855b81811015612c9157845180516001600160a01b031684528401516001600160601b0316848401529383019391850191600101612c5a565b509098975050505050505050565b6101408101612cae828d612b79565b9915156020820152604081019890985260608801969096526001600160a01b03948516608088015292841660a087015260c086019190915260e08501521661010083015261012090910152919050565b60e08101612d0c828a612b79565b602082019790975260408101959095526001600160a01b039384166060860152608085019290925290911660a083015260c090910152919050565b6020815260008251806020840152612d66816040850160208701612ed7565b601f01601f19169190910160400192915050565b60208082526026908201527f4c656d6f6e6164654d61726b6574706c6163653a206f72646572206e6f6e65786040820152651a5cdd195b9d60d21b606082015260800190565b6020808252602f908201527f4c656d6f6e6164654d61726b6574706c6163653a20616d6f756e74206d75737460408201526e206d617463682074782076616c756560881b606082015260800190565b6040805190810167ffffffffffffffff81118282101715612e3257612e32612f4b565b60405290565b604051601f8201601f1916810167ffffffffffffffff81118282101715612e6157612e61612f4b565b604052919050565b60008219821115612e7c57612e7c612f35565b500190565b600082612e9c57634e487b7160e01b81526012600452602481fd5b500490565b6000816000190483118215151615612ebb57612ebb612f35565b500290565b600082821015612ed257612ed2612f35565b500390565b60005b83811015612ef2578181015183820152602001612eda565b8381111561246e5750506000910152565b600081612f1257612f12612f35565b506000190190565b6000600019821415612f2e57612f2e612f35565b5060010190565b634e487b7160e01b600052601160045260246000fd5b634e487b7160e01b600052604160045260246000fd5b6001600160a01b03811681146122a957600080fdfe4c656d6f6e6164654d61726b6574706c6163653a206f72646572206d75737420a2646970667358221220dd2111fc2d36fbe016a798f191e1080c43a6bb1755be5ba3ab3b90a33df0f98a64736f6c63430008040033",
  "devdoc": {
    "kind": "dev",
    "methods": {
      "getRoleAdmin(bytes32)": {
        "details": "Returns the admin role that controls `role`. See {grantRole} and {revokeRole}. To change a role's admin, use {_setRoleAdmin}."
      },
      "getRoleMember(bytes32,uint256)": {
        "details": "Returns one of the accounts that have `role`. `index` must be a value between 0 and {getRoleMemberCount}, non-inclusive. Role bearers are not sorted in any particular way, and their ordering may change at any point. WARNING: When using {getRoleMember} and {getRoleMemberCount}, make sure you perform all queries on the same block. See the following https://forum.openzeppelin.com/t/iterating-over-elements-on-enumerableset-in-openzeppelin-contracts/2296[forum post] for more information."
      },
      "getRoleMemberCount(bytes32)": {
        "details": "Returns the number of accounts that have `role`. Can be used together with {getRoleMember} to enumerate all bearers of a role."
      },
      "grantRole(bytes32,address)": {
        "details": "Grants `role` to `account`. If `account` had not been already granted `role`, emits a {RoleGranted} event. Requirements: - the caller must have ``role``'s admin role."
      },
      "hasRole(bytes32,address)": {
        "details": "Returns `true` if `account` has been granted `role`."
      },
      "renounceRole(bytes32,address)": {
        "details": "Revokes `role` from the calling account. Roles are often managed via {grantRole} and {revokeRole}: this function's purpose is to provide a mechanism for accounts to lose their privileges if they are compromised (such as when a trusted device is misplaced). If the calling account had been revoked `role`, emits a {RoleRevoked} event. Requirements: - the caller must be `account`."
      },
      "revokeRole(bytes32,address)": {
        "details": "Revokes `role` from `account`. If `account` had been granted `role`, emits a {RoleRevoked} event. Requirements: - the caller must have ``role``'s admin role."
      },
      "supportsInterface(bytes4)": {
        "details": "See {IERC165-supportsInterface}."
      }
    },
    "version": 1
  },
  "userdoc": {
    "kind": "user",
    "methods": {},
    "version": 1
  },
  "storageLayout": {
    "storage": [
      {
        "astId": 2200,
        "contract": "contracts/LemonadeMarketplaceV1.sol:LemonadeMarketplaceV1",
        "label": "_roles",
        "offset": 0,
        "slot": "0",
        "type": "t_mapping(t_bytes32,t_struct(RoleData)2195_storage)"
      },
      {
        "astId": 2514,
        "contract": "contracts/LemonadeMarketplaceV1.sol:LemonadeMarketplaceV1",
        "label": "_roleMembers",
        "offset": 0,
        "slot": "1",
        "type": "t_mapping(t_bytes32,t_struct(AddressSet)5528_storage)"
      },
      {
        "astId": 6997,
        "contract": "contracts/LemonadeMarketplaceV1.sol:LemonadeMarketplaceV1",
        "label": "_orders",
        "offset": 0,
        "slot": "2",
        "type": "t_mapping(t_uint256,t_struct(Order)6992_storage)"
      },
      {
        "astId": 7000,
        "contract": "contracts/LemonadeMarketplaceV1.sol:LemonadeMarketplaceV1",
        "label": "_orderIdTracker",
        "offset": 0,
        "slot": "3",
        "type": "t_struct(Counter)4909_storage"
      }
    ],
    "types": {
      "t_address": {
        "encoding": "inplace",
        "label": "address",
        "numberOfBytes": "20"
      },
      "t_array(t_bytes32)dyn_storage": {
        "base": "t_bytes32",
        "encoding": "dynamic_array",
        "label": "bytes32[]",
        "numberOfBytes": "32"
      },
      "t_bool": {
        "encoding": "inplace",
        "label": "bool",
        "numberOfBytes": "1"
      },
      "t_bytes32": {
        "encoding": "inplace",
        "label": "bytes32",
        "numberOfBytes": "32"
      },
      "t_enum(OrderKind)6923": {
        "encoding": "inplace",
        "label": "enum LemonadeMarketplaceV1.OrderKind",
        "numberOfBytes": "1"
      },
      "t_mapping(t_address,t_bool)": {
        "encoding": "mapping",
        "key": "t_address",
        "label": "mapping(address => bool)",
        "numberOfBytes": "32",
        "value": "t_bool"
      },
      "t_mapping(t_bytes32,t_struct(AddressSet)5528_storage)": {
        "encoding": "mapping",
        "key": "t_bytes32",
        "label": "mapping(bytes32 => struct EnumerableSet.AddressSet)",
        "numberOfBytes": "32",
        "value": "t_struct(AddressSet)5528_storage"
      },
      "t_mapping(t_bytes32,t_struct(RoleData)2195_storage)": {
        "encoding": "mapping",
        "key": "t_bytes32",
        "label": "mapping(bytes32 => struct AccessControl.RoleData)",
        "numberOfBytes": "32",
        "value": "t_struct(RoleData)2195_storage"
      },
      "t_mapping(t_bytes32,t_uint256)": {
        "encoding": "mapping",
        "key": "t_bytes32",
        "label": "mapping(bytes32 => uint256)",
        "numberOfBytes": "32",
        "value": "t_uint256"
      },
      "t_mapping(t_uint256,t_struct(Order)6992_storage)": {
        "encoding": "mapping",
        "key": "t_uint256",
        "label": "mapping(uint256 => struct LemonadeMarketplaceV1.Order)",
        "numberOfBytes": "32",
        "value": "t_struct(Order)6992_storage"
      },
      "t_struct(AddressSet)5528_storage": {
        "encoding": "inplace",
        "label": "struct EnumerableSet.AddressSet",
        "members": [
          {
            "astId": 5527,
            "contract": "contracts/LemonadeMarketplaceV1.sol:LemonadeMarketplaceV1",
            "label": "_inner",
            "offset": 0,
            "slot": "0",
            "type": "t_struct(Set)5227_storage"
          }
        ],
        "numberOfBytes": "64"
      },
      "t_struct(Counter)4909_storage": {
        "encoding": "inplace",
        "label": "struct Counters.Counter",
        "members": [
          {
            "astId": 4908,
            "contract": "contracts/LemonadeMarketplaceV1.sol:LemonadeMarketplaceV1",
            "label": "_value",
            "offset": 0,
            "slot": "0",
            "type": "t_uint256"
          }
        ],
        "numberOfBytes": "32"
      },
      "t_struct(Order)6992_storage": {
        "encoding": "inplace",
        "label": "struct LemonadeMarketplaceV1.Order",
        "members": [
          {
            "astId": 6967,
            "contract": "contracts/LemonadeMarketplaceV1.sol:LemonadeMarketplaceV1",
            "label": "kind",
            "offset": 0,
            "slot": "0",
            "type": "t_enum(OrderKind)6923"
          },
          {
            "astId": 6969,
            "contract": "contracts/LemonadeMarketplaceV1.sol:LemonadeMarketplaceV1",
            "label": "open",
            "offset": 1,
            "slot": "0",
            "type": "t_bool"
          },
          {
            "astId": 6971,
            "contract": "contracts/LemonadeMarketplaceV1.sol:LemonadeMarketplaceV1",
            "label": "openFrom",
            "offset": 0,
            "slot": "1",
            "type": "t_uint256"
          },
          {
            "astId": 6973,
            "contract": "contracts/LemonadeMarketplaceV1.sol:LemonadeMarketplaceV1",
            "label": "openTo",
            "offset": 0,
            "slot": "2",
            "type": "t_uint256"
          },
          {
            "astId": 6975,
            "contract": "contracts/LemonadeMarketplaceV1.sol:LemonadeMarketplaceV1",
            "label": "maker",
            "offset": 0,
            "slot": "3",
            "type": "t_address"
          },
          {
            "astId": 6977,
            "contract": "contracts/LemonadeMarketplaceV1.sol:LemonadeMarketplaceV1",
            "label": "currency",
            "offset": 0,
            "slot": "4",
            "type": "t_address"
          },
          {
            "astId": 6979,
            "contract": "contracts/LemonadeMarketplaceV1.sol:LemonadeMarketplaceV1",
            "label": "price",
            "offset": 0,
            "slot": "5",
            "type": "t_uint256"
          },
          {
            "astId": 6981,
            "contract": "contracts/LemonadeMarketplaceV1.sol:LemonadeMarketplaceV1",
            "label": "tokenContract",
            "offset": 0,
            "slot": "6",
            "type": "t_address"
          },
          {
            "astId": 6983,
            "contract": "contracts/LemonadeMarketplaceV1.sol:LemonadeMarketplaceV1",
            "label": "tokenId",
            "offset": 0,
            "slot": "7",
            "type": "t_uint256"
          },
          {
            "astId": 6985,
            "contract": "contracts/LemonadeMarketplaceV1.sol:LemonadeMarketplaceV1",
            "label": "bidder",
            "offset": 0,
            "slot": "8",
            "type": "t_address"
          },
          {
            "astId": 6987,
            "contract": "contracts/LemonadeMarketplaceV1.sol:LemonadeMarketplaceV1",
            "label": "bidAmount",
            "offset": 0,
            "slot": "9",
            "type": "t_uint256"
          },
          {
            "astId": 6989,
            "contract": "contracts/LemonadeMarketplaceV1.sol:LemonadeMarketplaceV1",
            "label": "taker",
            "offset": 0,
            "slot": "10",
            "type": "t_address"
          },
          {
            "astId": 6991,
            "contract": "contracts/LemonadeMarketplaceV1.sol:LemonadeMarketplaceV1",
            "label": "paidAmount",
            "offset": 0,
            "slot": "11",
            "type": "t_uint256"
          }
        ],
        "numberOfBytes": "384"
      },
      "t_struct(RoleData)2195_storage": {
        "encoding": "inplace",
        "label": "struct AccessControl.RoleData",
        "members": [
          {
            "astId": 2192,
            "contract": "contracts/LemonadeMarketplaceV1.sol:LemonadeMarketplaceV1",
            "label": "members",
            "offset": 0,
            "slot": "0",
            "type": "t_mapping(t_address,t_bool)"
          },
          {
            "astId": 2194,
            "contract": "contracts/LemonadeMarketplaceV1.sol:LemonadeMarketplaceV1",
            "label": "adminRole",
            "offset": 0,
            "slot": "1",
            "type": "t_bytes32"
          }
        ],
        "numberOfBytes": "64"
      },
      "t_struct(Set)5227_storage": {
        "encoding": "inplace",
        "label": "struct EnumerableSet.Set",
        "members": [
          {
            "astId": 5222,
            "contract": "contracts/LemonadeMarketplaceV1.sol:LemonadeMarketplaceV1",
            "label": "_values",
            "offset": 0,
            "slot": "0",
            "type": "t_array(t_bytes32)dyn_storage"
          },
          {
            "astId": 5226,
            "contract": "contracts/LemonadeMarketplaceV1.sol:LemonadeMarketplaceV1",
            "label": "_indexes",
            "offset": 0,
            "slot": "1",
            "type": "t_mapping(t_bytes32,t_uint256)"
          }
        ],
        "numberOfBytes": "64"
      },
      "t_uint256": {
        "encoding": "inplace",
        "label": "uint256",
        "numberOfBytes": "32"
      }
    }
  }
}